:100000000C9498030C94C0030C94C0030C94C0038C
:100010000C94C0030C94C0030C94C0030C94C00354
:100020000C94C0030C94C0030C94D5070C944408A2
:100030000C94C0030C94C0030C94C0030C94C00334
:100040000C94C0030C94C0030C94C0030C94C00324
:100050000C94C0030C94C0030C94C0030C948B0745
:100060000C94C0030C94C0030C94C0030C94C00304
:100070000C94C0030C94C0030C94C0030C94C003F4
:100080000C94C0030C94C0030C94C0030C94C003E4
:100090000C94C0030C94C0030C94C0030C94C003D4
:1000A0000C94C0030C94C0030C94C003084AD73BC3
:1000B0003BCE016E84BCBFFDC12F3D6C74319ABD37
:1000C00056833DDA3D00C77F11BED9E4BB4C3E915B
:1000D0006BAAAABE000000803F05A84CCDB2D44E4A
:1000E000B93836A9020C50B9918688083CA6AAAA4C
:1000F0002ABE000000803F0000000000003E5B4F71
:100100005B3E3E6B4F6B3E1C3E7C3E1C183C7E3C77
:10011000181C577D571C1C5E7F5E1C00183C180085
:10012000FFE7C3E7FF0018241800FFE7DBE7FF3015
:10013000483A060E2629792926407F050507407F83
:1001400005253F5A3CE73C5A7F3E1C1C08081C1CF6
:100150003E7F14227F22145F5F005F5F06097F01EC
:100160007F006689956A606060606094A2FFA294D7
:1001700008047E040810207E201008082A1C0808A5
:100180001C2A08081E101010100C1E0C1E0C3038F3
:100190003E3830060E3E0E06000000000000005FF4
:1001A00000000007000700147F147F14242A7F2A10
:1001B00012231308646236495620500008070300D2
:1001C000001C2241000041221C002A1C7F1C2A081E
:1001D000083E080800807030000808080808000081
:1001E00060600020100804023E5149453E00427FF5
:1001F000400072494949462141494D331814127F44
:100200001027454545393C4A4949314121110907E3
:100210003649494936464949291E00001400000064
:100220004034000000081422411414141414004136
:1002300022140802015909063E415D594E7C1211F3
:10024000127C7F494949363E414141227F4141412B
:100250003E7F494949417F090909013E41415173A6
:100260007F0808087F00417F41002040413F017F17
:10027000081422417F404040407F021C027F7F04DF
:1002800008107F3E4141413E7F090909063E415128
:10029000215E7F09192946264949493203017F0118
:1002A000033F4040403F1F2040201F3F4038403F19
:1002B000631408146303047804036159494D43002F
:1002C0007F4141410204081020004141417F040266
:1002D00001020440404040400003070800205454FD
:1002E00078407F28444438384444442838444428DB
:1002F0007F385454541800087E090218A4A49C782E
:100300007F0804047800447D40002040403D007F89
:100310001028440000417F40007C047804787C0869
:100320000404783844444438FC182424181824243D
:1003300018FC7C08040408485454542404043F4422
:10034000243C4040207C1C2040201C3C4030403C51
:1003500044281028444C9090907C4464544C4400B1
:100360000836410000007700000041360800020115
:100370000204023C2623263C1EA1A161123A404001
:10038000207A38545455592155557941215454787F
:1003900041215554784020545579400C1E52721218
:1003A00039555555593954545459395554545800A0
:1003B00000457C410002457D420001457C40F0291A
:1003C0002429F0F0282528F07C5455450020545469
:1003D0007C547C0A097F49324949493232484848AD
:1003E00032324A4848303A4141217A3A42402078F4
:1003F000009DA0A07D39444444393D4040403D3CEF
:1004000024FF2424487E4943662B2FFC2F2BFF0911
:1004100029F620C0887E0903205454794100004405
:100420007D413048484A32384040227A007A0A0AF0
:10043000727D0D19317D2629292F28262929292663
:1004400030484D4020380808080808080808382FA8
:1004500010C8ACBA2F102834FA00007B0000081432
:100460002A142222142A14089500220095AA005565
:1004700000AAAA55AA55AA000000FF00101010FFFC
:1004800000141414FF001010FF00FF1010F010F003
:10049000141414FC001414F700FF0000FF00FF14F4
:1004A00014F404FC141417101F10101F101F141440
:1004B000141F00101010F0000000001F101010108A
:1004C0001F10101010F010000000FF10101010107E
:1004D00010101010FF10000000FF140000FF00FFBC
:1004E00000001F10170000FC04F414141710171458
:1004F00014F404F40000FF00F7141414141414147A
:10050000F700F7141414171410101F101F141414EC
:10051000F4141010F010F000001F101F0000001F56
:1005200014000000FC140000F010F01010FF10FF89
:10053000141414FF141010101F00000000F010FF1E
:10054000FFFFFFFFF0F0F0F0F0FFFFFF0000000002
:1005500000FFFF0F0F0F0F0F38444438447C2A2A46
:100560003E147E02020606027E027E026355494167
:10057000633844443C04407E201E2006027E020272
:1005800099A5E7A5991C2A492A1C4C7201724C3086
:100590004A4D4D303048784830BC625A463D3E495D
:1005A0004949007E0101017E2A2A2A2A2A44445F01
:1005B000444440514A444040444A51400000FF01F5
:1005C00003E080FF000008086B6B08361236243603
:1005D000060F090F06000018180000001010003068
:1005E00040FF0101001F01011E00191D1712003CF0
:1005F0003C3C3C0000000000080B0002020200002E
:100600000904000001020200000524001001052475
:1006100001010104240206052406000107058103E7
:1006200010004009040100020A0000000705020250
:100630004000000705830240000004030904120182
:100640000002EF0201404123368000010102030154
:1006500041726475696E6F204C4C43004172647541
:10066000626F7900F0F89C8E8783878E9CF8F0008B
:1006700000FEFF0303030303070EFCF80000FEFF68
:100680000303030303070EFCF80000FFFF00000054
:1006900000000000FFFF0000FEFF8383838383C709
:1006A000EE7C380000F8FC0E07030303070EFCF88D
:1006B00000003F7FE0C08080C0E07F3FFFFF01017E
:1006C0000101010101FFFF0000FFFF0C0C0C0C1CDD
:1006D0003E77E3C100007FFFC0C0C0C0C0E0703FF4
:1006E0001F00001F3F70E0C0C0C0E0703F1F00004F
:1006F0007FFFC1C1C1C1C1E3773E1C00001F3F7035
:10070000E0C0C0C0E0703F1F000000000001FFFF1C
:1007100001000000D5F08D14A1C881CFD9F1AF2020
:1007200000070605040100080A0B0C0D0900A90AC0
:1007300011241FBECFEFDAE0DEBFCDBF11E0A0E095
:10074000B1E0ECE4F0E402C005900D92AC33B107E7
:10075000D9F727E0ACE3B1E001C01D92A138B207A0
:10076000E1F713E0C8E9D3E004C02197FE010E943D
:10077000F91EC739D107C9F70E94C60A0C94242074
:100780000C940000E9E2F3E0A0E0B8E000800EBCC9
:100790008111012C1197A0FDFDCF0192B9F70DB485
:1007A0000895FC0180912803882311F13FB7F89444
:1007B00082E08093E9002091F200822F90E01816E9
:1007C000190614F481E090E0882339F0289844E673
:1007D000409327034091F1004083222339F0209178
:1007E000F200211103C02BE62093E8003FBF0895DB
:1007F0008FEF9FEF08952FB7F89483E08093E9007F
:100800009091E800892F807295FF04C09091F200CA
:1008100080E4891B2FBF089580911F0381110DC0B3
:1008200082E080931B0384E080931C0310921E03DC
:1008300010921D0381E080931F038BE193E00895E4
:100840003FB7F8948091170390911803A091190372
:10085000B0911A0326B5A89B05C02F3F19F0019649
:10086000A11DB11D3FBFBA2FA92F982F8827BC010A
:10087000CD01620F711D811D911D42E0660F771F32
:10088000881F991F4A95D1F708958F929F92AF9232
:10089000BF92CF92DF92EF92FF926B017C010E9498
:1008A00020044B015C01C114D104E104F104B9F04E
:1008B0000E942004681979098A099B09683E7340DF
:1008C0008105910580F321E0C21AD108E108F10801
:1008D00088EE880E83E0981EA11CB11CE4CFFF9027
:1008E000EF90DF90CF90BF90AF909F908F90089542
:1008F00040913E0150913F0120913C0130913D01DA
:1009000042175307B4F49091E8009570E1F3909189
:10091000E80092FD19C08093F10080913E01909112
:100920003F0101968F739927892B19F48EEF8093DD
:10093000E80080913E0190913F01019690933F0124
:1009400080933E0181E0089580E00895DF92EF9268
:10095000FF920F931F93CF93DF93D82E8A01EB0161
:100960007B01E40EF51ECE15DF0559F0D7FE12C04F
:10097000FE0184910E94780421968111F4CF0FEF3B
:100980001FEFC801DF91CF911F910F91FF90EF9062
:10099000DF9008958881EECF0F931F93CF93DF935D
:1009A0001F92CDB7DEB782E0898342E450E068EF62
:1009B00075E080E80E94A6040E940C04DC011296F7
:1009C0000D911C910115110589F0D801ED91FC9153
:1009D0000280F381E02DBE016F5F7F4FC801099552
:1009E00097FD04C0F80100851185ECCF89810F9037
:1009F000DF91CF911F910F910895615030F02091B8
:100A0000F100FC0120830196F8CF289884E68093BA
:100A100027030895AF92BF92CF92DF92EF92FF9299
:100A20000F931F93CF93DF936C017B018B01040F16
:100A3000151FEB015E01AE18BF08C017D10759F0B2
:100A40006991D601ED91FC910190F081E02DC601F4
:100A50000995892B79F7C501DF91CF911F910F91EE
:100A6000FF90EF90DF90CF90BF90AF9008958F925E
:100A70009F92AF92BF92CF92DF92EF92FF920F932D
:100A80001F93CF93DF936C017B018A0180910B014F
:100A9000882309F45CC080912803882309F457C097
:100AA0008091420180FF05C08091E00082608093C8
:100AB000E000E801B12C8AEFA82E93E0892E2AE30A
:100AC000922E209711F4BB20D9F10E94FB038111D3
:100AD0000AC0AA94AA20D9F161E070E080E090E019
:100AE0000E944504EECF8C171D0611F00CF08C2FE0
:100AF0009FB7F8948092E9002091E80025FD02C09C
:100B00009FBFDFCF282F30E0C21BD30BF7018150EE
:100B100020F041914093F100FACFE20EF31EBB208A
:100B200021F09092E800B12CEBCF8091E80085FD98
:100B3000E7CF9092E800BB24B394209709F3F3CF5A
:100B40005D9884E680934101101611063CF081E027
:100B500090E0F6019383828310E000E0C801DF910A
:100B6000CF911F910F91FF90EF90DF90CF90BF90AA
:100B7000AF909F908F900895CF93DF931F92CDB742
:100B8000DEB76983DC01ED91FC910280F381E02DF9
:100B900041E050E0BE016F5F7F4F09950F90DF91FC
:100BA000CF91089583E08093E9008091F20088233B
:100BB00019F08AE38093E80008950E94FB0390E017
:100BC0000895CF93DF931F92CDB7DEB7FC018485E4
:100BD000958597FD08C02FEF3FEF358724870F904D
:100BE000DF91CF910895CE0101960E94D103019724
:100BF00019F4898190E0F3CF8FEF9FEFF0CF0F933F
:100C00001F93CF93DF931F92CDB7DEB78C01FC010A
:100C10008485958597FF0BC0CE0101960E94D10374
:100C2000019771F4898190E0F80195878487F80134
:100C3000848595850F90DF91CF911F910F91089535
:100C40008FEF9FEFF1CFFC018485958597FD0BC059
:100C50009FB7F89482E08093E9008091F2009FBFF3
:100C600090E0019608959FB7F89482E08093E900A0
:100C70008091F2009FBF90E008952D9A0895BC01E5
:100C800090E080E00C9445048FB18095807F669B56
:100C900088601C9B84600895CF93C82F0E944406EF
:100CA000982F9C2381E09C1380E0CF91089580E0F1
:100CB0000C94C20380389105B8F460347105A0F437
:100CC00020E191E061FD94E060FD990F62FD929555
:100CD000687F269FD0011124A80FA75DBC4F8C917F
:100CE00040FF03C0892B8C93089590958923FBCFF7
:100CF0002F923F924F925F926F927F928F929F922C
:100D0000AF92BF92CF92DF92EF92FF920F931F9319
:100D1000CF93DF93EC018B017A016901C61AD70AE0
:100D2000D7FE03C0D194C194D10847018C1A9D0A03
:100D300097FE03C09194819491088C149D0454F4FF
:100D40009E2D8F2D7901292F382F9C2F8D2FE80173
:100D5000092F182FEC16FD0654F4902F812F8901CE
:100D6000292F382F9C2F8D2FE701E92EF82E170100
:100D70002C1A3D0A2901401A510A57FE03C051940A
:100D800041945108310137FE03C08FEF681A780A89
:100D9000759467948FEF021713070CF481E0A82E67
:100DA000880FBB08EC16FD06A4F041E0BE01C801A7
:100DB0008C149D0414F0B801CE010E945A066418E8
:100DC000750877FE04C00A0D1B1D620C731C21966A
:100DD000E9CFDF91CF911F910F91FF90EF90DF90BE
:100DE000CF90BF90AF909F908F907F906F905F90CB
:100DF0004F903F902F900895EF92FF920F931F9383
:100E0000CF93DF937C018B01040F111DEB0177FF62
:100E100002C0D0E0C0E0C8010134110514F080E444
:100E200090E0C817D9073CF441E0BE01C7010E9419
:100E30005A062196F0CFDF91CF911F910F91FF902D
:100E4000EF9008958F929F92AF92BF92CF92DF92D0
:100E5000EF92FF920F931F93CF93DF936D3089F042
:100E6000C0905502D09056026A30D1F410925402CC
:100E70001092530288E0C80ED11CD0925602C09244
:100E8000550281E090E0DF91CF911F910F91FF908B
:100E9000EF90DF90CF90BF90AF909F908F9008958C
:100EA0000091530210915402E5E06E9FE00111247D
:100EB000C850DF4F4801F12CF5E0E12CFF1629F076
:100EC000CE010196FE01E490EC01B12CA12C4E2D37
:100ED0004170B6016A0D7B1DC4010E945A06E6945A
:100EE000FFEFAF1ABF0A88E0A816B10481F7F394A8
:100EF000EFEF8E1A9E0AF6E0FF12DECF0A5F1F4F59
:100F00001093540200935302BCCF089590E080E008
:100F100008950C94BA1A1F920F920FB60F921124D3
:100F20002F933F938F939F93AF93BF93809113031E
:100F300090911403A0911503B09116033091120300
:100F400023E0230F2D3758F50196A11DB11D2093E5
:100F500012038093130390931403A0931503B0938B
:100F600016038091170390911803A0911903B09173
:100F70001A030196A11DB11D8093170390931803C6
:100F8000A0931903B0931A03BF91AF919F918F91D2
:100F90003F912F910F900FBE0F901F90189526E84C
:100FA000230F0296A11DB11DD2CF1F920F920FB633
:100FB0000F9211248F939F938091E1009091E10013
:100FC000937F9093E10083FF0FC01092E90091E0BE
:100FD0009093EB001092EC0092E39093ED0010924E
:100FE000280398E09093F00082FF22C093E0909352
:100FF000E9009091F200992319F09AE39093E800A8
:1010000090914101992341F0909141019150909329
:101010004101911101C05D9A90912703992341F0FC
:1010200090912703915090932703911101C0289A22
:1010300084FF18C08091E2008E7E81608093E20080
:101040008091E1008F7E8093E100809142018E7E4D
:101050008061809342019F918F910F900FBE0F90FE
:101060001F90189580FFF7CF8091E2008E7E8061FF
:101070008093E2008091E1008E7E8093E100809178
:1010800042018E7E8160E5CF1F920F920FB60F92C4
:101090001124CF92DF92EF92FF920F931F932F9321
:1010A0003F934F935F936F937F938F939F93AF93F0
:1010B000BF93EF93FF93CF93DF93CDB7DEB76C97DA
:1010C000DEBFCDBF1092E9008091E80083FF25C00C
:1010D00068E0CE0145960E94FD0482EF8093E8000F
:1010E0008D8987FF39C09091E80090FFFCCF982F41
:1010F000907609F034C19E894F89588D2F89F88CDC
:10110000911131C0803861F5809143018093F100E5
:101110001092F1008EEF8093E8006C960FB6F89471
:10112000DEBF0FBECDBFDF91CF91FF91EF91BF9199
:10113000AF919F918F917F916F915F914F913F916F
:101140002F911F910F91FF90EF90DF90CF900F9014
:101150000FBE0F901F9018959EEF9093E800C7CF99
:101160001092F100D5CF913059F48111D3CF413095
:10117000510581F6809143018D7F80934301CACF51
:10118000933049F48111C6CF4130510519F6809151
:1011900043018260F2CF953041F48091E80080FFF6
:1011A000FCCF20682093E300B5CF963009F0A9C0AA
:1011B0000B8D1C8D22E01092E90010923F011092DD
:1011C0003E01F2122EC010923D0110923C010E948D
:1011D000CC041F8299E09983FA8291E09E8390EA81
:1011E00098879AEF998720913E0130913F01275FC0
:1011F0003F4F3C832B838D831092E90010923F0177
:1012000010923E0110933D0100933C0149E050E0F3
:10121000BE016F5F7F4F80E00E94A6040E94CC0455
:1012200079CF10933D0100933C010E940C04DC0136
:1012300012960D911C910115110509F451C1D801A7
:10124000ED91FC910480F581E02DBE016B5E7F4F36
:10125000C8010995009709F03EC1F8010085118584
:10126000EACFF3E0FF120EC08F89882309F440C053
:10127000823061F440E867E08CE596E00E94760AEF
:10128000811148CF81E28093EB0047CF813029F470
:1012900040E86BE080E596E0F1CF833099F70E945B
:1012A0000C04DC011296ED90FC908E010F5F1F4F35
:1012B0006801E114F10479F0D701ED91FC91068009
:1012C000F781E02DB801C7010995080F111DF7013D
:1012D000E084F184EECFD8011C92F6010190002049
:1012E000E9F73197BF016C197D0940E0C601C6CF0F
:1012F0006AE376E0FB01449150E080E80E94A60496
:1013000009CF973009F4BECF983021F481E0809363
:10131000F10000CF993009F0FDCE837009F0B2CF13
:10132000E8E1F1E081E031E096E32191222371F0E0
:101330008093E9003093EB00DF0111972C9120930B
:10134000EC009093ED008F5F873079F78EE7809304
:10135000EA001092EA008F8980932803DBCE8B8D00
:101360009C8D1092E90010923F0110923E019093E3
:101370003D0180933C01898D811192C08E899D89A8
:10138000913A49F4813209F07DCF47E050E064E0C2
:1013900071E080E0B3CF913209F074CF833269F409
:1013A0008F89988DB0E0A0E08093000190930101B7
:1013B000A0930201B0930301ADCE803269F4809115
:1013C000E80082FFFCCF67E084E091E00E94FD042A
:1013D0008BEF8093E8009ECE823209F09BCE8F89FE
:1013E00080930B01EEEFFFE7859194918B3F9C4D2D
:1013F00051F1E0E0F8E08091040190910501A091A5
:101400000601B0910701803B9440A105B105F1F4BC
:1014100080910B0180FD1AC0EE3F8AE0F80789F544
:1014200087E797E7918380838091600080934001F4
:1014300088E19BE00FB6F894A895809360000FBEFA
:101440009093600067CEEEEFFAE0D5CF8081918176
:101450008737974709F05ECEA89580916000886134
:10146000809360008091400180936000EE3F2AE00D
:10147000F20789F08091FE0A9091FF0A91838083A0
:1014800049CE808191818737980751F29093FF0A66
:101490008093FE0AC5CF1092FF0A1092FE0A3ACE40
:1014A0000E940C04DC0112960D911C91011511058E
:1014B00009F4E8CED801ED91FC910190F081E02D86
:1014C000BE016B5E7F4FC8010995811123CEF801E3
:1014D00000851185EBCF181619060CF41BCED2CE61
:1014E000F1E0FF12BECE6EE376E004CFEF92FF9202
:1014F0000F931F93CF93DF93F82E192FE62E042F0F
:1015000081E0860F880F0E94780483E00E947804AF
:10151000CF2DD12FEC0EFD2EF11CCE15DF05B9F02D
:1015200007FF13C0FE0184910E947804182F80E009
:101530000E947804812321968111EFCFDF91CF9112
:101540001F910F91FF90EF9008958881EDCF81E07A
:10155000F5CFE9E2F7E01382128288EE93E0A0E093
:10156000B0E084839583A683B78382E291E0918380
:1015700080838FEF9FEF95878487E9E7F7E01382F9
:10158000128284E391E0918380830895CF93DF9367
:10159000CDB7DEB7C055D1090FB6F894DEBF0FBE88
:1015A000CDBF789484B5826084BD84B5816084BDEC
:1015B00085B5826085BD85B5816085BD80916E00F1
:1015C000816080936E001092810080918100826022
:1015D000809381008091810081608093810080915F
:1015E0008000816080938000809191008260809370
:1015F0009100809191008160809391008091900092
:101600008160809390008091C10084608093C100CC
:101610008091C10082608093C1008091C10081608F
:101620008093C1008091C30081608093C30080914A
:10163000C00082608093C0008091C200816080936E
:10164000C20080917A00846080937A0080917A0051
:10165000826080937A0080917A00816080937A0022
:1016600080917A00806880937A001092280310920B
:101670004301109242018091D70081608093D7008E
:1016800080EA8093D80089B5806189BD89B5826080
:1016900089BD09B400FEFDCF61E070E080E090E01C
:1016A0000E9445048091D8008F7C80618093D8008F
:1016B0008091E000807F8093E0008091E1008E7E49
:1016C0008093E1008DE08093E200559A209A8FEF9D
:1016D0009FEF909336078093350760ED77E080E0C9
:1016E00090E00E94450481EC80937C0085B1806F7E
:1016F00085B984B1877E84B984B1876E84B95E9AD6
:101700005F988AB1806D8AB9769A6E9881B3806F3E
:1017100081BB899880B38D7080BB80E58CBD81E0F2
:101720008DBD85E090E00E943F065F9A85E090E0E5
:101730000E943F065E985C98E4E1F7E081E297E062
:1017400024912EBD00000DB407FEFDCF31968E17FB
:101750009F07B1F75C9A81E88093640080916500EF
:101760008160809365000E94570680E80E944C06C5
:101770008823A9F05C9885EA8EBD00000DB407FEB1
:10178000FDCF5C9A2E982F982D98809164008062EE
:101790008093640081E083BF889513BEFCCF84E012
:1017A0000E944C06882309F448C02D9884E80E94C2
:1017B0004C068823E1F00E943D0688EC90E00E94F0
:1017C0003F062F9882E090E00E94BA1A8F3F29F0DE
:1017D0006FEF82E090E00E94C21A84EF91E00E94D5
:1017E0003F062F9A84E80E944C068111FBCF84E1CA
:1017F0000E944C068823E1F00E943D0688EC90E0B0
:101800000E943F062E9882E090E00E94BA1A882338
:1018100029F060E082E090E00E94C21A84EF91E03B
:101820000E943F062E9A84E10E944C068111FBCF54
:1018300088EC90E00E943F06B2CF0E943D0682E015
:1018400090E00E948907882309F48CC23E9A3F9A4F
:1018500081E090E00E948907282F2470922E81FF5A
:1018600012C021112E98E1EF4E2E55245A9408E013
:1018700010E080E40E944C06882309F476C22E9A78
:101880002F9A0E943D0682E390E00E943F060E944C
:1018900044068111F8CF80E180930C01E1E2F7E08A
:1018A000E49190917B008E2F880F880F80729F7D2E
:1018B000892B80937B00E770E064E0937C0080914B
:1018C0007A00806480937A0080917A0086FDFCCF54
:1018D0006091780070917900072E000C880B990BAD
:1018E000611571058105910511F00E94B11A80E71B
:1018F00090E00E94FF1E89879D838C01312C212C52
:1019000041E1442E47E2542E612C712C0E94621A50
:101910002BE030E040E050E00E94D01A65507109A1
:1019200081099109620D731D77FF02C068597E4FCE
:10193000072E000C880B990B0E94C61C25E33AEF7A
:101940004EE85CE30E94E91D4B015C010E94621AB3
:10195000A30192010E94D01A0E94C61C20E030E42C
:101960004CE156E40E941C1C20E030E044EB52E4C1
:101970000E94E91D20E030E044EB52E40E94341B59
:101980006B017C01C501B4010E94171CA7019601DF
:101990000E94E91D69837A838B839C83C501B4010E
:1019A0000E94561EA70196010E94E91D6B017C0151
:1019B0000E94621AA30192010E94D01A0E94C61CC2
:1019C00020E030E44CE156E40E941C1C20E030E0B2
:1019D00040E850E40E94E91D20E030E040E050E49F
:1019E0000E94331B29813A814B815C810E94341B08
:1019F0004B015C010E94621AF80180829182A282EE
:101A0000B382A30192010E94D01A0E94C61C20E05A
:101A100030E44CE156E40E941C1C20E030E040E839
:101A200050E40E94E91D20E030E040E050E40E94D4
:101A3000331BA70196010E94341BD80114966D93A5
:101A40007D938D939C931797B9E12B0E311C085F02
:101A50001F4FEEE52E16E1E03E0609F057CFF9855F
:101A6000F0939C012D8120939D0110925A021092B7
:101A7000590235E0232E312C0EE010E00E94621A4C
:101A80002EE030E040E050E00E94D01A40919C01EE
:101A900050919D015E834D83FB0183E0EE0FFF1F9C
:101AA0008A95E1F7E40FF51F20813181428153814E
:101AB0002D8B3E8B4F8B588F2481358146815781EA
:101AC00029833A834B835C83CB010196B8010E9442
:101AD000D11E23E0880F991F2A95E1F74D815E8181
:101AE000480F591F5E834D832D893E894F89588D3C
:101AF000AD81BE816D917D918D919C910E94331B32
:101B00002B013C0129813A814B815C81ED81FE8171
:101B100064817581868197810E94331B6B017C01F2
:101B2000A30192010E94B31B6D837E838F839887EC
:101B30000E94621A20E137E240E050E00E94D01A91
:101B40000E94C61C20E030E44CE156E40E941C1CBC
:101B50004B015C018091590290915A024EE0489FDE
:101B60009001499F300D1124255A3D4F3A8729870E
:101B7000A5019401C301B2010E94E91D2D893E898E
:101B80004F89588D0E94341B20E030E040E853E438
:101B90000E94341BA985BA856D937D938D939C9388
:101BA0001397A5019401C701B6010E94E91D29817F
:101BB0003A814B815C810E94341B20E030E040E898
:101BC00053E40E94341BE985FA8564837583868318
:101BD00097832BED3FE049EC5FE36D817E818F8140
:101BE00098850E94341BA985BA8518966D937D93BC
:101BF0008D939C931B970E94621AE0915902F09179
:101C00005A02FA83E9834EE04E9F90014F9F300DB8
:101C10001124D901A55ABD4F7D0128E730E040E0ED
:101C200050E00E94D01AF7017587648729813A81B4
:101C30002F5F3F4F30935A022093590231E0231A0D
:101C4000310809F01BCF83E592E049EA51E05E8B51
:101C50004D8BAD89BE891C925196BE8BAD8B8A1778
:101C60009B07B9F70E94621AC12C12E0D12EE12C19
:101C7000F12CA70196010E94D01A0E94C61C609305
:101C80009E0170939F018093A0019093A1010E94F7
:101C9000621AA70196010E94D01A0E94C61C609386
:101CA000A2017093A3018093A4019093A5010E94C7
:101CB000621A22E030E040E050E00E94D01A7093B7
:101CC000A7016093A60180E090E0A0E8B3E48093D0
:101CD000020390930303A0930403B093050380933E
:101CE000FE029093FF02A0930003B09301031092B1
:101CF0000E0310920F031092100310921103109212
:101D00000A0310920B0310920C0310920D03109211
:101D10000603109207031092080310920903109211
:101D2000A1021092B2021092C3021092D402109239
:101D3000E5028FB7F894409113035091140360911A
:101D40001503709116038FBF10914601112309F4FA
:101D5000D3C01092460180E090E0892B51F30E949D
:101D60000000E7CF3E983F9873CD992031F034E0E2
:101D70004316510411F42E9A2F9881E00E94C20359
:101D8000920157FE04C022273327241935092770F2
:101D90003327C20157FC079673E0959587957A958E
:101DA000E1F757FE05C00197A801421B530B9A01AA
:101DB000AC015695542F442757954795475D5C4F86
:101DC000B0E0A0E03801621A730A8E3F6FEF960709
:101DD00009F43BC06A01E4E9CE0ED11C7A0170E03F
:101DE00060E0FD01EC59F94F5F018F3F980779F0F2
:101DF000F501E60FF71FE491F0E01F01022E01C08C
:101E0000220C0A94EAF7F70184882828248A2115ED
:101E1000310581F0F501E60FF71FE491F0E01F01B5
:101E2000062C02C0359427940A94E2F7F6018080CC
:101E3000282820826F5F7F4FFFEFCF1ADF0AEFEF76
:101E4000EE1AFE0A6835710581F60196A85ABF4F51
:101E500040585F4FA03BB10509F0B7CF0E9457062D
:101E60008FE090E00E943F06FFEF4F1A5F0A29E1E2
:101E70004216510409F0FDCC992011F02F9A2D98AB
:101E800080E991E00E943F060E943D0681E090E0DB
:101E90000E94890780FFF7CC8AE090E00E948907C2
:101EA0009FEF980F9E3F08F0EECC22E330E0309396
:101EB00054022093530228E330E0309356022093DB
:101EC00055024BE050E05A834983682F89E797E039
:101ED0000E94220789819A810E948907A981BA817B
:101EE0001196BA83A983519781F70E94570688EE0D
:101EF00093E00E943F06C7CC80914701B42FB81BE6
:101F00008B2F90910C01B91748F48F5F891708F057
:101F100022CF81E083BF889513BE1DCF81E08093DF
:101F200046014093470180914401909145010196FB
:101F30009093450180934401E0915802E987E09332
:101F400057020E9444068D8380935802E9E2F3E031
:101F500011111FEF00241193119311931193039406
:101F6000D1F710925602109255021092540210921C
:101F7000530280E20E944C068823B1F02DEC3CEC29
:101F80004CEC5DE360910E0370910F0380911003A0
:101F9000909111030E94331B60930E0370930F0303
:101FA000809310039093110380E40E944C068823D1
:101FB000B1F02DEC3CEC4CEC5DE360910E037091C4
:101FC0000F0380911003909111030E94341B6093C2
:101FD0000E0370930F03809310039093110388E016
:101FE0000E944C0620910E0330910F034091100384
:101FF000509111032DAB3EAB4FAB58AF882309F482
:1020000046C08090060390900703A0900803B0900C
:1020100009032BED3FE049EC5FE36DA97EA98FA991
:1020200098AD0E94331B6B017C010E94171C2DECA4
:102030003CEC4CEC5DE30E94E91D9B01AC0160911E
:102040000A0370910B0380910C0390910D030E9481
:10205000341B60930A0370930B0380930C039093DB
:102060000D03C701B6010E94561E2DEC3CEC4CEC52
:102070005DE30E94E91DA50194010E94341B609359
:10208000060370930703809308039093090340901D
:102090000A0350900B0360900C0370900D03209185
:1020A0000203309103034091040350910503C301DF
:1020B000B2010E94341B4B015C018092020390929A
:1020C0000303A0920403B09205038091060390914C
:1020D0000703A0910803B091090389839A83AB8316
:1020E000BC832091FE023091FF0240910003509189
:1020F0000103BC01CD010E94341B6B017C01C09225
:10210000FE02D092FF02E0920003F092010324EA63
:1021100030E74DE75FE3C301B2010E94E91D609320
:102120000A0370930B0380930C0390930D0324EA2E
:1021300030E74DE75FE369817A818B819C810E9462
:10214000E91D60930603709307038093080390933F
:10215000090320E030E0A901C501B4010E94121C6E
:1021600087FF08C010920203109203031092040329
:102170001092050320E030E040E054E46091020357
:102180007091030380910403909105030E94DC1D6C
:10219000181664F480E090E0A0E0B4E480930203B9
:1021A00090930303A0930403B093050320E030E071
:1021B000A901C701B6010E94121C87FF08C0109236
:1021C000FE021092FF02109200031092010320E021
:1021D00030E040E054E46091FE027091FF02809193
:1021E0000003909101030E94DC1D181664F480E046
:1021F00090E0A0E0B4E48093FE029093FF02A093ED
:102200000003B09301032091020330910303409136
:1022100004035091050329A33AA34BA35CA320E038
:1022200030E040E852E469A17AA18BA19CA10E9410
:10223000331B4B015C018092FA029092FB02A09248
:10224000FC02B092FD028091FE029091FF02A091EB
:102250000003B09101038DA39EA3AFA3B8A720E014
:1022600030E040E052E4BC01CD010E94331B6B0121
:102270007C01C092F602D092F702E092F802F0924E
:10228000F90220E030E0A901C501B4010E94121C4E
:1022900087FF08C01092FA021092FB021092FC0213
:1022A0001092FD0220E030E040EC53E46091FA022D
:1022B0007091FB028091FC029091FD020E94DC1D56
:1022C000181664F480E090E0A0ECB3E48093FA0286
:1022D0009093FB02A093FC02B093FD0220E030E05B
:1022E000A901C701B6010E94121C87FF08C0109205
:1022F000F6021092F7021092F8021092F90220E012
:1023000030E040EE53E46091F6027091F702809164
:10231000F8029091F9020E94DC1D181664F480E026
:1023200090E0A0EEB3E48093F6029093F702A093BE
:10233000F802B093F902998592FD46C0AD81A2FFE3
:1023400043C0E1EAF2E090E080E020812111CAC1BF
:1023500021E1289FF001299FF00D1124EF55FD4F39
:10236000FA83E98381E0808329A13AA14BA15CA192
:1023700021833283438354832DA13EA14FA158A5CD
:1023800025833683478350872BED3FE049EC5FE39D
:102390006DA97EA98FA998AD0E94331B6B017C01AA
:1023A0000E94171CE981FA8161877287838794876D
:1023B000C701B6010E94561EA981BA811D966D9370
:1023C0007D938D939C935097E1EAF2E0FA8FE98F29
:1023D000FA83E983A981BA818C91882309F453C0D7
:1023E00019962D913D914D915C911C9711966D918F
:1023F0007D918D919C9114970E94341B4B015C013F
:10240000E981FA8181829282A382B4822585368510
:102410004785508965817681878190850E94341B2C
:102420006B017C01A981BA811596CD92DD92ED9266
:10243000FC92189720E030E0A901C501B4010E9488
:10244000121C87FD1DC020E030E040E054E4C501CF
:10245000B4010E94DC1D18169CF020E030E0A901B8
:10246000C701B6010E94121C87FD0AC020E030E0BF
:1024700040E054E4C701B6010E94DC1D18161CF4AC
:10248000E981FA81108229813A812F5E3F4F3A8398
:102490002983265F324009F09DCF81EA92E09A833A
:1024A0008983BEE03B2EA981BA818C91882309F4EF
:1024B00054C019962D913D914D915C911C971196A8
:1024C0006D917D918D919C9114970E94341B4B01CD
:1024D0005C01E981FA8181829282A382B48225859E
:1024E00036854785508965817681878190850E94F0
:1024F000341B6B017C01A981BA811596CD92DD92C6
:10250000ED92FC92189720E030E0A901C501B401DA
:102510000E94121C87FD1EC020E030E040E054E421
:10252000C501B4010E94DC1D1816A4F020E030E0C3
:10253000A901C701B6010E94121C87FD0BC020E053
:1025400030E040E054E4C701B6010E94DC1D1816DB
:102550000CF0CFC0E981FA81108229813A812F5E87
:102560003F4F3A832983265F324009F09CCF809108
:10257000590290915A029AAF89AFABE5B2E0BE8F93
:10258000AD8F8D011E821D82E9ADFAAD2D813E8198
:102590002E173F070CF026C1D8011C968D919C91F7
:1025A0001D970197181619060CF417C1E8E7F0E01B
:1025B0001D96FC93EE931C97E9EAF1E0312C212C57
:1025C0008081811100C1D8011496CD90DD90ED90ED
:1025D000FC9017972D913D914D915C91B1E1B29D89
:1025E000F001B39DF00D1124E755FE4F61E06083CB
:1025F0002183328343835483C582D682E782F08667
:1026000069A17AA18BA19CA10E94331B2B013C01E3
:10261000A70196016DA17EA18FA198A50E94331BF1
:102620004B015C01A3019201C301B2010E94E91DAB
:102630006B017C01A5019401C501B4010E94E91D53
:102640009B01AC01C701B6010E94341B0E94641EAD
:102650006B017C012FE632E143E85AE30E94121C31
:1026600087FF08C0AFE6CA2EA2E1DA2EA3E8EA2E61
:10267000AAE3FA2EA1E1A29DC001A39D900D112411
:1026800087559E4F9A878987A7019601C301B2019A
:102690000E941C1C20E030E040E05FE30E94E91D46
:1026A000E985FA856187728783879487A7019601F8
:1026B000C501B4010E941C1C20E030E040E05FE353
:1026C0000E94E91DA985BA851D966D937D938D9312
:1026D0009C935097ED81FE813196FE83ED83025FDE
:1026E0001F4F52CF019671968530910509F02DCE7E
:1026F0006BCE2BE532E03A87298710E000E0A98510
:10270000BA852D913D914D915C91C501B4010E9416
:10271000331B2B013C01E985FA85248135814681F3
:102720005781C701B6010E94331B6D837E838F835F
:102730009887A3019201C301B2010E94E91D2B01F8
:102740003C012D813E814F815885CA01B9010E940B
:10275000E91D9B01AC01C301B2010E94341B20E0C2
:1027600030E040EB51E40E94121C87FF20C0A98199
:10277000BA811C928091590290915A0201979093CC
:102780005A0280935902309ED001319EB00D11241F
:10279000A55ABD4F389EF001399EF00D1124E55A1F
:1027A000FD4F832D01900D928A95E1F7D6CE0F5FF4
:1027B0001F4FE985FA853E96FA87E98705301105AE
:1027C00009F09DCFCACEBFEF2B1A3B0A71962AE0C3
:1027D0002216310409F0F4CE7DCF1D969C938E9382
:1027E0001C9778CF1091A80111116BC029EA31E034
:1027F0003E832D83AD81BE810C91002309F454C02A
:1028000019962D913D914D915C911C9711966D916A
:102810007D918D919C9114970E94341B4B015C011A
:10282000ED81FE8181829282A382B48225853685E4
:102830004785508965817681878190850E94341B08
:102840006B017C01AD81BE811596CD92DD92ED923A
:10285000FC92189720E030E0A901C501B4010E9464
:10286000121C87FD1EC020E030E040E054E4C501AA
:10287000B4010E94DC1D1816A4F020E030E0A9018C
:10288000C701B6010E94121C87FD0BC020E030E09A
:1028900040E054E4C701B6010E94DC1D18160CF09C
:1028A000DCC0ED81FE811082ED81FE817196FE8398
:1028B000ED832D893E892E173F0709F09BCF10939A
:1028C000A8011A861986C0909E01D0909F01E090C1
:1028D000A001F090A1018090A2019090A301A0908E
:1028E000A401B090A5018091FA029091FB02A09101
:1028F000FC02B091FD028D839E83AF83B887209147
:10290000F6023091F7024091F8025091F9022D87BA
:102910003E874F87588B49855A854130510509F4C8
:10292000D1C020E030E040E05FE3BC01CD010E9477
:10293000E91D9B01AC01C701B6010E94331B0E9437
:102940008E1C6B011B0120E030E040E05FE36D85F1
:102950007E858F8598890E94E91D9B01AC01C50188
:10296000B4010E94331B0E948E1C3B01DA8AC98A83
:1029700050E8C516D10408F0FCC177FDFFC16034F2
:1029800071050CF000C24091A6015091A701FA0117
:10299000FF27FE87ED87440F4F5F6E1B7F0BC6013D
:1029A0000E94FC06EE24E394F12C2D853E85E21A6C
:1029B000F30AD12CC12CC21AD30ACC0CDD1C098518
:1029C0001A8544244394512C41E050E05A874987AA
:1029D0008D859E85081719070CF075CFF7FC08C088
:1029E00001979E878D8792E0C90ED11CEC0CFD1CCF
:1029F0000F5F1F4FA2E04A0E511CE40CF51C8D85A1
:102A0000880F8F5F8D83482F5301ED85FE85AE1AA9
:102A1000BF0AB50189899A89800F911F0E94FC061F
:102A20004301801A910A442DB4018D859E85820D43
:102A3000931D0E94FC064D81B50189899A89801BEE
:102A4000910B0E94FC06442DB401C1012D853E85E9
:102A5000821B930B0E94FC06BBCF29A13AA14BA17C
:102A60005CA1C501B4010E94331B4B015C012DA187
:102A70003EA14FA158A5C701B6010E94331B6B01AF
:102A80007C01A5019401C501B4010E94E91D4B011F
:102A90005C01A7019601C701B6010E94E91D9B01D7
:102AA000AC01C501B4010E94341B20E030E048ECC9
:102AB00051E40E94121C87FFF7CEAD81BE811C92AB
:102AC000102FF2CE49EA51E05A874987A985BA8585
:102AD0008C91882311F12D853E854F855889159657
:102AE0006D917D918D919C9118970E94331B0E944E
:102AF0008E1C6B012D813E814F815885E985FA85B9
:102B000061817281838194810E94331B0E948E1C9B
:102B1000CB0141E0B6010E945A0629853A852F5E15
:102B20003F4F3A8729874D895E894217530771F6CF
:102B300080919C0190919D019A8789876C0190E713
:102B4000C90ED11C04E611E060E8E62E61E0F62E25
:102B500020E030E040E853E4A985BA856D917D918D
:102B60008D919C910E94341B2D813E814F8158850F
:102B70000E94331B0E948E1CF701619371937F01A9
:102B800020E030E040E853E4A985BA8514966D91C1
:102B90007D918D919C9117970E94341B2D853E85C8
:102BA0004F8558890E94331B0E948E1CF801619347
:102BB00071938F0129853A85285F3F4F3A8729878E
:102BC0002C153D0529F66090640170906501E6E6DC
:102BD000F1E040E851E0230181919191861597053C
:102BE0000CF43C01481659060CF42C014E175F07F3
:102BF00099F777FE02C0712C612C30E44316510422
:102C00001CF05FE3452E512C461457040CF427C1E9
:102C100040E851E05A87498784E691E09A8B898B96
:102C2000F12CE12C312C212CAFEF2A1A3A0AE98938
:102C3000FA8921913191FA8BE98B3AAB29ABC10129
:102C40006EE070E00E94D11E880F991FFC01EC59C4
:102C5000FE4F00811181A985BA858D909D90BA871C
:102C6000A98780589E4FFC01A080B18002171307EE
:102C700054F09A2D8B2D5401892E982E902F812F50
:102C8000890199AB8AAB601671060CF454C029A96E
:102C90003AA9621673060CF04EC0A7014F5F5F4F52
:102CA0005EA74DA7EE0CFF1CC701885B9E4F9AA73D
:102CB00089A7B301601B710B072E000C880B990BC1
:102CC0000E94C61C6B017C0169A97AA9601B710B6B
:102CD000072E000C880B990B0E94C61C9B01AC01AF
:102CE000C701B6010E941C1C6B017C01B4016A196A
:102CF0007B09072E000C880B990B0E94C61C9B01B8
:102D0000AC01C701B6010E94E91D6B017C01B50150
:102D1000BB0C880B990B0E94C61C9B01AC01C70120
:102D2000B6010E94341B0E948E1CA9A5BAA56D9302
:102D30007C93EDA4FEA49EE02916310409F074CF23
:102D4000B2E0EB16F1040CF486C0E8E4F1E0FA8797
:102D5000E98790E080E08701015011098017910711
:102D600054F50196DF019C012E153F0589F432963A
:102D7000F5CF89EA91E09A878987A8CEA9EAB1E0E0
:102D8000BA87A987A3CEE9EAF1E0FA87E9879ECE60
:102D900012966D917C91139740815181641775074C
:102DA00034F47183608313965C934E9312972F5F74
:102DB0003F4F1296D9CF730183E0F594E7948A953B
:102DC000E1F7F694FE2CEE24F794E794C3018770A4
:102DD000992761E001C0660F8A95EAF750E040E06C
:102DE000A985BA8512968D919C91139797FD29C05C
:102DF0002D913C912038310524F537FF02C030E099
:102E000020E0722F8038910514F08FE790E08F5FFB
:102E1000871B820F932F911D009799F081389105A0
:102E200014F080E890E0871B2E0D3F1DF901E75D4F
:102E3000FC4F815030F09191DF011197962B9C93BC
:102E4000F8CF4E5F5F4FE985FA853496FA87E987B8
:102E5000401751072CF2FFEF6F1A7F0AD5CE61960B
:102E60001FAE1EAE619761962EAD3FAD619749AD25
:102E70005AAD241735070CF0A4C12BED3FE049EC07
:102E80005FE3AD8DBE8D18966D917D918D919C9176
:102E90001B970E94331B4B015C010E94171C6B01A6
:102EA0007C01C501B4010E94561E4B015C0120E06B
:102EB00030E040E850E40E94E91D6DA77EA78FA78F
:102EC00098AB20E030E040E850ECC701B6010E942A
:102ED000E91D69A77AA78BA79CA72D813E814F8109
:102EE0005885ED8DFE8D60817181828193810E9474
:102EF000331B2B013C0120E030E0A901C701B601E2
:102F00000E94E91D2DA53EA54FA558A90E94341B7E
:102F10009B01AC01C301B2010E94341B69877A870F
:102F20008B879C872D853E854F855889AD8DBE8DBD
:102F300014966D917D918D919C9117970E94331BF2
:102F40002B013C0120E030E0A901C501B4010E9441
:102F5000E91D29A53AA54BA55CA50E94341B9B0140
:102F6000AC01C301B2010E94341B698B7A8B8B8B3D
:102F70009C8B20E030E040E050ECC701B6010E949D
:102F8000E91D6BAF7CAF8DAF9EAF20E030E040E835
:102F900050ECC501B4010E94E91D69AB7AAB8BAB63
:102FA0009CAB20E030E040E050ECC501B4010E9451
:102FB000E91D23966CAF7DAF8EAF9FAF2397A7011E
:102FC0009601C701B6010E94341B2B013C01A501EB
:102FD0009401C501B4010E94341B4B015C0120E047
:102FE00030E040E850E4C701B6010E94E91D6B01E2
:102FF0007C0129A93AA94BA95CA96BAD7CAD8DAD2B
:103000009EAD0E94331B29853A854B855C850E94C5
:10301000341B0E948E1C27966CAF7DAF8EAF9FAF86
:10302000279723962CAD3DAD4EAD5FAD239769A597
:103030007AA58BA59CA50E94341B29893A894B89C6
:103040005C890E94341B0E948E1C2B966CAF7DAF56
:103050008EAF9FAF2B9729A93AA94BA95CA9C301B1
:10306000B2010E94331B29853A854B855C850E94FD
:10307000341B0E948E1C69AB7AAB8BAB9CABA50159
:10308000940169A57AA58BA59CA50E94341B29896A
:103090003A894B895C890E94341B0E948E1C69A767
:1030A0007AA78BA79CA72DA53EA54FA558A9C3011C
:1030B000B2010E94331B29853A854B855C850E94AD
:1030C000341B0E948E1C2F966CAF7DAF8EAF9FAFCE
:1030D0002F97A7019601C501B4010E94341B2989CD
:1030E0003A894B895C890E94341B0E948E1C2B01FB
:1030F0002DA53EA54FA558A96BAD7CAD8DAD9EAD60
:103100000E94331B29853A854B855C850E94341BC0
:103110000E948E1C69877A878B879C87A7019601FE
:1031200023966CAD7DAD8EAD9FAD23970E94341B71
:1031300029893A894B895C890E94341B0E948E1C24
:103140004B0129A53AA549A95AA929966EAD7FAD8B
:10315000299725968EAD9FAD25970E9478069201FE
:103160002D964EAD5FAD2D9769A57AA589A99AA92F
:103170000E947806940149855A85B2012D968EAD3C
:103180009FAD2D970E94780629962EAD3FAD2997C9
:1031900025964EAD5FAD2597B40189859A850E942D
:1031A00078066196EEADFFAD619731966196FFAFFF
:1031B000EEAF61972D8D3E8D225F3F4F3E8F2D8F5D
:1031C00052CEA98DBA8D8C91882311F12D853E8523
:1031D0004F85588915966D917D918D919C91189789
:1031E0000E94331B0E948E1C6B012D813E814F81FA
:1031F0005885E98DFA8D61817281838194810E9465
:10320000331B0E948E1CCB0141E0B6010E945A067E
:10321000298D3A8D2F5E3F4F3A8F298F49815A81F0
:103220004217530771F62D813E814F81588569A160
:103230007AA18BA19CA10E94331B69837A838B8323
:103240009C832D853E854F8558896DA17EA18FA1D8
:1032500098A50E94331B6D837E838F8398876DA909
:103260007EA98FA998AD0E94171C4B015C016DA926
:103270007EA98FA998AD0E94561E6B017C0120E0AB
:1032800030E040E850E40E94E91D6D877E878F871B
:10329000988B20E030E040E850E4C501B4010E9482
:1032A000E91D698F7A8F8B8F9C8F20E030E0A90118
:1032B000C501B4010E94E91D2B013C0120E030E072
:1032C00040E850ECC701B6010E94E91D9B01AC012A
:1032D000C301B2010E94331B29813A814B815C8179
:1032E0000E94341B0E948E1C6D8F7E8F8F8F98A33F
:1032F00020E030E0A901C701B6010E94E91D2B01C1
:103300003C0120E030E040E850ECC501B4010E94EF
:10331000E91D9B01AC01C301B2010E94341B2D8148
:103320003E814F8158850E94341B0E948E1C69A3E8
:103330007AA38BA39CA320E030E040E450ECC501CD
:10334000B4010E94E91D2D853E854F8558890E9454
:10335000331B29813A814B815C810E94341B0E947E
:103360008E1C6DA37EA38FA398A720E030E040E4DD
:1033700050ECC701B6010E94E91D298D3A8D4B8D95
:103380005C8D0E94341B2D813E814F8158850E94A7
:10339000341B0E948E1C2B0120E030E040E450E4FE
:1033A000C501B4010E94E91D2D853E854F855889D0
:1033B0000E94331B29813A814B815C810E94341B1E
:1033C0000E948E1C4B0120E030E040E450E4C70135
:1033D000B6010E94E91D298D3A8D4B8D5C8D0E94AE
:1033E000341B2D813E814F8158850E94341B0E94E1
:1033F0008E1C6B0192014DA15EA169A17AA18D8DF8
:103400009E8D0E9478069601A401B2018DA19EA115
:103410000E94780629A13AA14D8D5E8DB601C401A6
:103420000E9478060E9457060C94AB0E8F929F92D2
:10343000AF92BF92CF92DF92EF92FF92CF93DF9342
:10344000EC01688179818A819B8161157105810513
:10345000910521F464E279ED8BE597E02DE133EFFE
:1034600041E050E00E94D01A49015A019B01AC0191
:10347000A7EAB1E40E94EF1A6B017C01ACEEB4EF55
:10348000A50194010E94FD1AC60ED71EE81EF91E62
:10349000F7FE06C081E0C81AD108E10880E8F80A02
:1034A000C882D982EA82FB82C701B6019F77DF9189
:1034B000CF91FF90EF90DF90CF90BF90AF909F9013
:1034C0008F9008958F929F92AF92BF92CF92DF928A
:1034D000EF92FF9260910D0170910E0180910F01AA
:1034E00090911001611571058105910521F464E247
:1034F00079ED8BE597E02DE133EF41E050E00E945C
:10350000D01A49015A019B01AC01A7EAB1E40E941B
:10351000EF1A6B017C01ACEEB4EFA50194010E949F
:10352000FD1AC60ED71EE81EF91EF7FE06C081E082
:10353000C81AD108E10880E8F80AC0920D01D092BB
:103540000E01E0920F01F0921001C701B6019F77C2
:10355000FF90EF90DF90CF90BF90AF909F908F90B3
:10356000089560930D0170930E0180930F01909365
:1035700010010895F999FECF92BD81BDF89A99275F
:1035800080B50895262FF999FECF1FBA92BD81BD4F
:1035900020BD0FB6F894FA9AF99A0FBE01960895D5
:1035A000052E97FB1EF400940E94E71A57FD07D0E2
:1035B0000E94021B07FC03D04EF40C94E71A5095AE
:1035C0004095309521953F4F4F4F5F4F089590950F
:1035D0008095709561957F4F8F4F9F4F08950E9402
:1035E000241BA59F900DB49F900DA49F800D911D4D
:1035F00011240895B7FF0C94EF1A0E94EF1A821B52
:10360000930B0895A1E21A2EAA1BBB1BFD010DC04E
:10361000AA1FBB1FEE1FFF1FA217B307E407F50782
:1036200020F0A21BB30BE40BF50B661F771F881F5E
:10363000991F1A9469F760957095809590959B01F4
:10364000AC01BD01CF010895A29FB001B39FC0019D
:10365000A39F700D811D1124911DB29F700D811DBE
:103660001124911D08955058BB27AA270E944B1B77
:103670000C948E1D0E94551D38F00E945C1D20F098
:1036800039F49F3F19F426F40C942B1D0EF4E095A9
:10369000E7FB0C94251DE92F0E94B31D58F3BA17C0
:1036A000620773078407950720F079F4A6F50C9458
:1036B000D51D0EF4E0950B2EBA2FA02D0B01B901EC
:1036C00090010C01CA01A0011124FF27591B99F098
:1036D000593F50F4503E68F11A16F040A22F232FA4
:1036E000342F4427585FF3CF469537952795A795F4
:1036F000F0405395C9F77EF41F16BA0B620B730B9B
:10370000840BBAF09150A1F0FF0FBB1F661F771F0B
:10371000881FC2F70EC0BA0F621F731F841F48F4C0
:10372000879577956795B795F7959E3F08F0B0CF49
:103730009395880F08F09927EE0F97958795089530
:103740000E94551D60F080E891E009F49EEF0E9410
:103750005C1D28F040E851E071F45EEF0CC00C9461
:103760002B1D0C94D51DE92FE0780E94B31D40F36A
:10377000092E052AB1F3261737074807590738F0ED
:103780000E2E07F8E02569F0E025E0640AC0EF633B
:1037900007F8009407FADB01B9019D01DC01CA01B9
:1037A000AD01EF930E94331C0E948E1D0E94E31B0B
:1037B0005F91552339F02BED3FE049E450FD49EC92
:1037C0000C94341B0895DF93DD27B92FBF7740E8B1
:1037D0005FE31616170648075B0718F4D92F0E94F7
:1037E000E11D9F938F937F936F930E94A41EECEA39
:1037F000F0E00E942E1D0E948E1D2F913F914F914F
:103800005F910E94FC1DDD2351F09058A2EA2AED41
:103810003FE049EC5FE3D0785D270E944B1BDF91CE
:103820000C948E1D0E94011D08F481E008950E94F1
:10383000651DE3950C949F1D0E94301C0C948E1DF9
:103840000E945C1D58F00E94551D40F029F45F3F16
:1038500029F00C94251D51110C94D61D0C942B1D90
:103860000E94B31D68F39923B1F3552391F3951B7F
:10387000550BBB27AA2762177307840738F09F5F91
:103880005F4F220F331F441FAA1FA9F335D00E2EFE
:103890003AF0E0E832D091505040E695001CCAF76B
:1038A0002BD0FE2F29D0660F771F881FBB1F26172E
:1038B00037074807AB07B0E809F0BB0B802DBF0105
:1038C000FF2793585F4F3AF09E3F510578F00C94D4
:1038D000251D0C94D61D5F3FE4F3983ED4F38695E6
:1038E00077956795B795F7959F5FC9F7880F911DF5
:1038F0009695879597F90895E1E0660F771F881FE1
:10390000BB1F621773078407BA0720F0621B730B93
:10391000840BBA0BEE1F88F7E09508950E94951C62
:103920006894B1110C94D61D08950E94BB1D88F0B7
:103930009F5798F0B92F9927B751B0F0E1F0660F73
:10394000771F881F991F1AF0BA95C9F714C0B130B4
:1039500091F00E94D51DB1E008950C94D51D672FFC
:10396000782F8827B85F39F0B93FCCF386957795E3
:103970006795B395D9F73EF49095809570956195CC
:103980007F4F8F4F9F4F0895E89409C097FB3EF4F7
:1039900090958095709561957F4F8F4F9F4F99239C
:1039A000A9F0F92F96E9BB279395F695879577951A
:1039B0006795B795F111F8CFFAF4BB0F11F460FFDA
:1039C0001BC06F5F7F4F8F4F9F4F16C0882311F032
:1039D00096E911C0772321F09EE8872F762F05C046
:1039E000662371F096E8862F70E060E02AF09A95E1
:1039F000660F771F881FDAF7880F9695879597F9D6
:103A00000895990F0008550FAA0BE0E8FEEF16166F
:103A10001706E807F907C0F012161306E407F507C2
:103A200098F0621B730B840B950B39F40A2661F036
:103A3000232B242B252B21F408950A2609F4A140D9
:103A4000A6958FEF811D811D089597F99F6780E8E6
:103A500070E060E008959FEF80EC0895DF93CF93CE
:103A60001F930F93FF92EF92DF927B018C0168947A
:103A700006C0DA2EEF010E94FC1DFE01E894A5911C
:103A80002591359145915591A6F3EF010E944B1B6D
:103A9000FE019701A801DA9469F7DF90EF90FF909B
:103AA0000F911F91CF91DF91089500240A9416166B
:103AB000170618060906089500240A94121613061C
:103AC0001406050608950C942B1D0E94BB1DD8F307
:103AD000E894E0E0BB279F57F0F02AED3FE049EC87
:103AE00006C0EE0FBB0F661F771F881F28F0B23A83
:103AF00062077307840728F0B25A620B730B840BBA
:103B0000E3959A9572F7803830F49A95BB0F661F4B
:103B1000771F881FD2F790480C94AA1E092E039491
:103B2000000C11F4882352F0BB0F40F4BF2B11F4AA
:103B300060FF04C06F5F7F4F8F4F9F4F0895EF93DB
:103B4000E0FF07C0A2EA2AED3FE049EC5FEB0E94EC
:103B50004B1B0E948E1D0F90039401FC9058E9EDC1
:103B6000F0E00C94BD1E57FD9058440F551F59F0BE
:103B70005F3F71F04795880F97FB991F61F09F3F5A
:103B800079F087950895121613061406551FF2CF83
:103B90004695F1DF08C0161617061806991FF1CFD3
:103BA00086957105610508940895E894BB276627FA
:103BB0007727CB0197F908950E94011D08F48FEF34
:103BC00008959B01AC0160E070E080E89FE30C94F5
:103BD0001C1C0E94FC1D0C948E1D0E94551D38F06B
:103BE0000E945C1D20F0952311F00C94251D0C946F
:103BF0002B1D11240C94D61D0E94B31D70F3959FAC
:103C0000C1F3950F50E0551F629FF001729FBB27D3
:103C1000F00DB11D639FAA27F00DB11DAA1F649F6F
:103C20006627B00DA11D661F829F2227B00DA11D22
:103C3000621F739FB00DA11D621F839FA00D611DA8
:103C4000221F749F3327A00D611D231F849F600DC9
:103C5000211D822F762F6A2F11249F5750409AF0F2
:103C6000F1F088234AF0EE0FFF1FBB1F661F771F7E
:103C7000881F91505040A9F79E3F510580F00C9449
:103C8000251D0C94D61D5F3FE4F3983ED4F3869532
:103C900077956795B795F795E7959F5FC1F7FE2BE9
:103CA000880F911D9695879597F908959F930E9487
:103CB000651D0F9007FCEE5F0C949F1D19F416F420
:103CC0000C942B1D0C94A81E0E94BB1DB8F39923C5
:103CD000C9F3B6F39F57550B87FF0E94B61E002409
:103CE000A0E640EA900180585695979528F4805CAC
:103CF000660F771F881F20F026173707480730F414
:103D0000621B730B840B202931294A2BA69517942B
:103D10000794202531254A2758F7660F771F881FFB
:103D200020F026173707480730F4620B730B840B1B
:103D3000200D311D411DA09581F7B901842F9158A7
:103D4000880F9695879508959B01AC010C94E91D09
:103D50009F3F31F0915020F4879577956795B795FF
:103D6000880F911D9695879597F908959150504029
:103D7000660F771F881FD2F708959F938F937F93C5
:103D80006F93FF93EF939B01AC010E94E91DEF91AC
:103D9000FF910E942E1D2F913F914F915F910C94A6
:103DA000E91D97FB072E16F4009407D077FD09D084
:103DB0000E94E51E07FC05D03EF4909581959F4F2B
:103DC0000895709561957F4F0895AA1BBB1B51E123
:103DD00007C0AA1FBB1FA617B70710F0A61BB70B7B
:103DE000881F991F5A95A9F780959095BC01CD0120
:103DF0000895EE0FFF1F0590F491E02D09940F93A5
:103E00001F93CF93DF938230910510F482E090E00E
:103E1000E0917F07F091800730E020E0B0E0A0E083
:103E2000309799F42115310509F44AC0281B390B44
:103E300024303105D8F58A819B816115710589F19E
:103E4000FB0193838283FE0111C040815181028175
:103E5000138148175907E0F04817590799F410974C
:103E600061F012960C93129713961C933296CF0121
:103E7000DF91CF911F910F91089500937F071093C9
:103E80008007F4CF2115310551F04217530738F060
:103E9000A901DB019A01BD01DF01F801C1CFEF01EA
:103EA000F9CF9093800780937F07CDCFFE01E20F7B
:103EB000F31F819391932250310939832883D7CFFF
:103EC00020917D0730917E07232B41F4209113012F
:103ED0003091140130937E0720937D0720911101CA
:103EE000309112012115310541F42DB73EB74091B3
:103EF000150150911601241B350BE0917D07F091BF
:103F00007E07E217F307A0F42E1B3F0B2817390793
:103F100078F0AC014E5F5F4F2417350748F04E0F25
:103F20005F1F50937E0740937D07819391939FCFAE
:103F3000F0E0E0E09CCFCF93DF930097E9F0FC0145
:103F4000329713821282A0917F07B0918007ED0112
:103F500030E020E01097A1F420813181820F931F7F
:103F600020917D0730917E072817390709F061C03D
:103F7000F0937E07E0937D07DF91CF910895EA01EA
:103F8000CE17DF07E8F54A815B819E014115510597
:103F9000B1F7E901FB83EA8349915991C40FD51F19
:103FA000EC17FD0761F4808191810296840F951FC3
:103FB000E90199838883828193819B838A83F0E0DE
:103FC000E0E012968D919C9113970097B9F52D9191
:103FD0003C911197CD010296820F931F20917D078E
:103FE00030917E072817390739F6309751F510922E
:103FF000800710927F07B0937E07A0937D07BCCF08
:10400000D383C28340815181840F951FC817D9077C
:1040100061F44E5F5F4F88819981480F591F51832A
:1040200040838A819B81938382832115310509F026
:10403000B0CFF0938007E0937F079ECFFD01DC01B6
:0C404000C0CF13821282D7CFF894FFCFBC
:10404C00FFFFFFFF00E10000000000001001000076
:10405C000000008107800000C1808100000000008A
:10406C000000BC053705DD05D2052306E105FF057B
:0C407C000000000022070A0586078507E7
:00000001FF
