:100000000C9498030C94C0030C94C0030C94C0038C
:100010000C94C0030C94C0030C94C0030C94C00354
:100020000C94C0030C94C0030C94D5070C944408A2
:100030000C94C0030C94C0030C94C0030C94C00334
:100040000C94C0030C94C0030C94C0030C94C00324
:100050000C94C0030C94C0030C94C0030C948B0745
:100060000C94C0030C94C0030C94C0030C94C00304
:100070000C94C0030C94C0030C94C0030C94C003F4
:100080000C94C0030C94C0030C94C0030C94C003E4
:100090000C94C0030C94C0030C94C0030C94C003D4
:1000A0000C94C0030C94C0030C94C003084AD73BC3
:1000B0003BCE016E84BCBFFDC12F3D6C74319ABD37
:1000C00056833DDA3D00C77F11BED9E4BB4C3E915B
:1000D0006BAAAABE000000803F05A84CCDB2D44E4A
:1000E000B93836A9020C50B9918688083CA6AAAA4C
:1000F0002ABE000000803F0000000000003E5B4F71
:100100005B3E3E6B4F6B3E1C3E7C3E1C183C7E3C77
:10011000181C577D571C1C5E7F5E1C00183C180085
:10012000FFE7C3E7FF0018241800FFE7DBE7FF3015
:10013000483A060E2629792926407F050507407F83
:1001400005253F5A3CE73C5A7F3E1C1C08081C1CF6
:100150003E7F14227F22145F5F005F5F06097F01EC
:100160007F006689956A606060606094A2FFA294D7
:1001700008047E040810207E201008082A1C0808A5
:100180001C2A08081E101010100C1E0C1E0C3038F3
:100190003E3830060E3E0E06000000000000005FF4
:1001A00000000007000700147F147F14242A7F2A10
:1001B00012231308646236495620500008070300D2
:1001C000001C2241000041221C002A1C7F1C2A081E
:1001D000083E080800807030000808080808000081
:1001E00060600020100804023E5149453E00427FF5
:1001F000400072494949462141494D331814127F44
:100200001027454545393C4A4949314121110907E3
:100210003649494936464949291E00001400000064
:100220004034000000081422411414141414004136
:1002300022140802015909063E415D594E7C1211F3
:10024000127C7F494949363E414141227F4141412B
:100250003E7F494949417F090909013E41415173A6
:100260007F0808087F00417F41002040413F017F17
:10027000081422417F404040407F021C027F7F04DF
:1002800008107F3E4141413E7F090909063E415128
:10029000215E7F09192946264949493203017F0118
:1002A000033F4040403F1F2040201F3F4038403F19
:1002B000631408146303047804036159494D43002F
:1002C0007F4141410204081020004141417F040266
:1002D00001020440404040400003070800205454FD
:1002E00078407F28444438384444442838444428DB
:1002F0007F385454541800087E090218A4A49C782E
:100300007F0804047800447D40002040403D007F89
:100310001028440000417F40007C047804787C0869
:100320000404783844444438FC182424181824243D
:1003300018FC7C08040408485454542404043F4422
:10034000243C4040207C1C2040201C3C4030403C51
:1003500044281028444C9090907C4464544C4400B1
:100360000836410000007700000041360800020115
:100370000204023C2623263C1EA1A161123A404001
:10038000207A38545455592155557941215454787F
:1003900041215554784020545579400C1E52721218
:1003A00039555555593954545459395554545800A0
:1003B00000457C410002457D420001457C40F0291A
:1003C0002429F0F0282528F07C5455450020545469
:1003D0007C547C0A097F49324949493232484848AD
:1003E00032324A4848303A4141217A3A42402078F4
:1003F000009DA0A07D39444444393D4040403D3CEF
:1004000024FF2424487E4943662B2FFC2F2BFF0911
:1004100029F620C0887E0903205454794100004405
:100420007D413048484A32384040227A007A0A0AF0
:10043000727D0D19317D2629292F28262929292663
:1004400030484D4020380808080808080808382FA8
:1004500010C8ACBA2F102834FA00007B0000081432
:100460002A142222142A14089500220095AA005565
:1004700000AAAA55AA55AA000000FF00101010FFFC
:1004800000141414FF001010FF00FF1010F010F003
:10049000141414FC001414F700FF0000FF00FF14F4
:1004A00014F404FC141417101F10101F101F141440
:1004B000141F00101010F0000000001F101010108A
:1004C0001F10101010F010000000FF10101010107E
:1004D00010101010FF10000000FF140000FF00FFBC
:1004E00000001F10170000FC04F414141710171458
:1004F00014F404F40000FF00F7141414141414147A
:10050000F700F7141414171410101F101F141414EC
:10051000F4141010F010F000001F101F0000001F56
:1005200014000000FC140000F010F01010FF10FF89
:10053000141414FF141010101F00000000F010FF1E
:10054000FFFFFFFFF0F0F0F0F0FFFFFF0000000002
:1005500000FFFF0F0F0F0F0F38444438447C2A2A46
:100560003E147E02020606027E027E026355494167
:10057000633844443C04407E201E2006027E020272
:1005800099A5E7A5991C2A492A1C4C7201724C3086
:100590004A4D4D303048784830BC625A463D3E495D
:1005A0004949007E0101017E2A2A2A2A2A44445F01
:1005B000444440514A444040444A51400000FF01F5
:1005C00003E080FF000008086B6B08361236243603
:1005D000060F090F06000018180000001010003068
:1005E00040FF0101001F01011E00191D1712003CF0
:1005F0003C3C3C0000000000080B0002020200002E
:100600000904000001020200000524001001052475
:1006100001010104240206052406000107058103E7
:1006200010004009040100020A0000000705020250
:100630004000000705830240000004030904120182
:100640000002EF0201404123368000010102030154
:1006500041726475696E6F204C4C43004172647541
:10066000626F7900F0F89C8E8783878E9CF8F0008B
:1006700000FEFF0303030303070EFCF80000FEFF68
:100680000303030303070EFCF80000FFFF00000054
:1006900000000000FFFF0000FEFF8383838383C709
:1006A000EE7C380000F8FC0E07030303070EFCF88D
:1006B00000003F7FE0C08080C0E07F3FFFFF01017E
:1006C0000101010101FFFF0000FFFF0C0C0C0C1CDD
:1006D0003E77E3C100007FFFC0C0C0C0C0E0703FF4
:1006E0001F00001F3F70E0C0C0C0E0703F1F00004F
:1006F0007FFFC1C1C1C1C1E3773E1C00001F3F7035
:10070000E0C0C0C0E0703F1F000000000001FFFF1C
:1007100001000000D5F08D14A1C881CFD9F1AF2020
:1007200000070605040100080A0B0C0D0900A90AC0
:1007300011241FBECFEFDAE0DEBFCDBF11E0A0E095
:10074000B1E0EEE7FEE302C005900D92A234B107DE
:10075000D9F727E0A2E4B1E001C01D92A233B207AD
:10076000E1F713E0C8E9D3E004C02197FE010E943D
:10077000121EC739D107C9F70E94C60A0C943D1F43
:100780000C940000EAEDF2E0A0E0B8E000800EBCBE
:100790008111012C1197A0FDFDCF0192B9F70DB485
:1007A0000895FC018091D902882311F13FB7F89494
:1007B00082E08093E9002091F200822F90E01816E9
:1007C000190614F481E090E0882339F0289844E673
:1007D0004093D8024091F1004083222339F02091C8
:1007E000F200211103C02BE62093E8003FBF0895DB
:1007F0008FEF9FEF08952FB7F89483E08093E9007F
:100800009091E800892F807295FF04C09091F200CA
:1008100080E4891B2FBF08958091D00281110DC003
:1008200082E08093CC0284E08093CD021092CF02CC
:100830001092CE0281E08093D0028CEC92E0089579
:100840003FB7F8948091C8029091C902A091CA0262
:10085000B091CB0226B5A89B05C02F3F19F0019699
:10086000A11DB11D3FBFBA2FA92F982F8827BC010A
:10087000CD01620F711D811D911D42E0660F771F32
:10088000881F991F4A95D1F708958F929F92AF9232
:10089000BF92CF92DF92EF92FF926B017C010E9498
:1008A00020044B015C01C114D104E104F104B9F04E
:1008B0000E942004681979098A099B09683E7340DF
:1008C0008105910580F321E0C21AD108E108F10801
:1008D00088EE880E83E0981EA11CB11CE4CFFF9027
:1008E000EF90DF90CF90BF90AF909F908F90089542
:1008F00040914401509145012091420130914301C2
:1009000042175307B4F49091E8009570E1F3909189
:10091000E80092FD19C08093F1008091440190910C
:10092000450101968F739927892B19F48EEF8093D7
:10093000E800809144019091450101969093450112
:100940008093440181E0089580E00895DF92EF9262
:10095000FF920F931F93CF93DF93D82E8A01EB0161
:100960007B01E40EF51ECE15DF0559F0D7FE12C04F
:10097000FE0184910E94780421968111F4CF0FEF3B
:100980001FEFC801DF91CF911F910F91FF90EF9062
:10099000DF9008958881EECF0F931F93CF93DF935D
:1009A0001F92CDB7DEB782E0898342E450E068EF62
:1009B00075E080E80E94A6040E940C04DC011296F7
:1009C0000D911C910115110589F0D801ED91FC9153
:1009D0000280F381E02DBE016F5F7F4FC801099552
:1009E00097FD04C0F80100851185ECCF89810F9037
:1009F000DF91CF911F910F910895615030F02091B8
:100A0000F100FC0120830196F8CF289884E68093BA
:100A1000D8020895AF92BF92CF92DF92EF92FF92E9
:100A20000F931F93CF93DF936C017B018B01040F16
:100A3000151FEB015E01AE18BF08C017D10759F0B2
:100A40006991D601ED91FC910190F081E02DC601F4
:100A50000995892B79F7C501DF91CF911F910F91EE
:100A6000FF90EF90DF90CF90BF90AF9008958F925E
:100A70009F92AF92BF92CF92DF92EF92FF920F932D
:100A80001F93CF93DF936C017B018A0180910B014F
:100A9000882309F45CC08091D902882309F457C0E7
:100AA0008091480180FF05C08091E00082608093C2
:100AB000E000E801B12C8AEFA82E93E0892E2AE30A
:100AC000922E209711F4BB20D9F10E94FB038111D3
:100AD0000AC0AA94AA20D9F161E070E080E090E019
:100AE0000E944504EECF8C171D0611F00CF08C2FE0
:100AF0009FB7F8948092E9002091E80025FD02C09C
:100B00009FBFDFCF282F30E0C21BD30BF7018150EE
:100B100020F041914093F100FACFE20EF31EBB208A
:100B200021F09092E800B12CEBCF8091E80085FD98
:100B3000E7CF9092E800BB24B394209709F3F3CF5A
:100B40005D9884E680934701101611063CF081E021
:100B500090E0F6019383828310E000E0C801DF910A
:100B6000CF911F910F91FF90EF90DF90CF90BF90AA
:100B7000AF909F908F900895CF93DF931F92CDB742
:100B8000DEB76983DC01ED91FC910280F381E02DF9
:100B900041E050E0BE016F5F7F4F09950F90DF91FC
:100BA000CF91089583E08093E9008091F20088233B
:100BB00019F08AE38093E80008950E94FB0390E017
:100BC0000895CF93DF931F92CDB7DEB7FC018485E4
:100BD000958597FD08C02FEF3FEF358724870F904D
:100BE000DF91CF910895CE0101960E94D103019724
:100BF00019F4898190E0F3CF8FEF9FEFF0CF0F933F
:100C00001F93CF93DF931F92CDB7DEB78C01FC010A
:100C10008485958597FF0BC0CE0101960E94D10374
:100C2000019771F4898190E0F80195878487F80134
:100C3000848595850F90DF91CF911F910F91089535
:100C40008FEF9FEFF1CFFC018485958597FD0BC059
:100C50009FB7F89482E08093E9008091F2009FBFF3
:100C600090E0019608959FB7F89482E08093E900A0
:100C70008091F2009FBF90E008952D9A0895BC01E5
:100C800090E080E00C9445048FB18095807F669B56
:100C900088601C9B84600895CF93C82F0E944406EF
:100CA000982F9C2381E09C1380E0CF91089580E0F1
:100CB0000C94C20380389105B8F460347105A0F437
:100CC00020E191E061FD94E060FD990F62FD929555
:100CD000687F269FD0011124A80FA652BD4F8C918A
:100CE00040FF03C0892B8C93089590958923FBCFF7
:100CF0002F923F924F925F926F927F928F929F922C
:100D0000AF92BF92CF92DF92EF92FF920F931F9319
:100D1000CF93DF93EC018B017A016901C61AD70AE0
:100D2000D7FE03C0D194C194D10847018C1A9D0A03
:100D300097FE03C09194819491088C149D0454F4FF
:100D40009E2D8F2D7901292F382F9C2F8D2FE80173
:100D5000092F182FEC16FD0654F4902F812F8901CE
:100D6000292F382F9C2F8D2FE701E92EF82E170100
:100D70002C1A3D0A2901401A510A57FE03C051940A
:100D800041945108310137FE03C08FEF681A780A89
:100D9000759467948FEF021713070CF481E0A82E67
:100DA000880FBB08EC16FD06A4F041E0BE01C801A7
:100DB0008C149D0414F0B801CE010E945A066418E8
:100DC000750877FE04C00A0D1B1D620C731C21966A
:100DD000E9CFDF91CF911F910F91FF90EF90DF90BE
:100DE000CF90BF90AF909F908F907F906F905F90CB
:100DF0004F903F902F900895EF92FF920F931F9383
:100E0000CF93DF937C018B01040F111DEB0177FF62
:100E100002C0D0E0C0E0C8010134110514F080E444
:100E200090E0C817D9073CF441E0BE01C7010E9419
:100E30005A062196F0CFDF91CF911F910F91FF902D
:100E4000EF9008958F929F92AF92BF92CF92DF92D0
:100E5000EF92FF920F931F93CF93DF936D3089F042
:100E6000C0900402D09005026A30D1F410920302BF
:100E70001092020288E0C80ED11CD0920502C092E6
:100E8000040281E090E0DF91CF911F910F91FF90DC
:100E9000EF90DF90CF90BF90AF909F908F9008958C
:100EA0000091020210910302E5E06E9FE00111241F
:100EB000C850DF4F4801F12CF5E0E12CFF1629F076
:100EC000CE010196FE01E490EC01B12CA12C4E2D37
:100ED0004170B6016A0D7B1DC4010E945A06E6945A
:100EE000FFEFAF1ABF0A88E0A816B10481F7F394A8
:100EF000EFEF8E1A9E0AF6E0FF12DECF0A5F1F4F59
:100F00001093030200930202BCCF089590E080E0AA
:100F100008950C94D3191F920F920FB60F921124BB
:100F20002F933F938F939F93AF93BF938091C4026E
:100F30009091C502A091C602B091C7023091C30240
:100F400023E0230F2D3758F50196A11DB11D2093E5
:100F5000C3028093C4029093C502A093C602B093CB
:100F6000C7028091C8029091C902A091CA02B091B3
:100F7000CB020196A11DB11D8093C8029093C902B6
:100F8000A093CA02B093CB02BF91AF919F918F9172
:100F90003F912F910F900FBE0F901F90189526E84C
:100FA000230F0296A11DB11DD2CF1F920F920FB633
:100FB0000F9211248F939F938091E1009091E10013
:100FC000937F9093E10083FF0FC01092E90091E0BE
:100FD0009093EB001092EC0092E39093ED0010924E
:100FE000D90298E09093F00082FF22C093E09093A2
:100FF000E9009091F200992319F09AE39093E800A8
:1010000090914701992341F090914701915090931D
:101010004701911101C05D9A9091D802992341F046
:101020009091D80291509093D802911101C0289AC2
:1010300084FF18C08091E2008E7E81608093E20080
:101040008091E1008F7E8093E100809148018E7E47
:101050008061809348019F918F910F900FBE0F90F8
:101060001F90189580FFF7CF8091E2008E7E8061FF
:101070008093E2008091E1008E7E8093E100809178
:1010800048018E7E8160E5CF1F920F920FB60F92BE
:101090001124CF92DF92EF92FF920F931F932F9321
:1010A0003F934F935F936F937F938F939F93AF93F0
:1010B000BF93EF93FF93CF93DF93CDB7DEB76C97DA
:1010C000DEBFCDBF1092E9008091E80083FF25C00C
:1010D00068E0CE0145960E94FD0482EF8093E8000F
:1010E0008D8987FF39C09091E80090FFFCCF982F41
:1010F000907609F034C19E894F89588D2F89F88CDC
:10110000911131C0803861F5809149018093F100DF
:101110001092F1008EEF8093E8006C960FB6F89471
:10112000DEBF0FBECDBFDF91CF91FF91EF91BF9199
:10113000AF919F918F917F916F915F914F913F916F
:101140002F911F910F91FF90EF90DF90CF900F9014
:101150000FBE0F901F9018959EEF9093E800C7CF99
:101160001092F100D5CF913059F48111D3CF413095
:10117000510581F6809149018D7F80934901CACF45
:10118000933049F48111C6CF4130510519F6809151
:1011900049018260F2CF953041F48091E80080FFF0
:1011A000FCCF20682093E300B5CF963009F0A9C0AA
:1011B0000B8D1C8D22E01092E900109245011092D7
:1011C0004401F2122EC010924301109242010E947B
:1011D000CC041F8299E09983FA8291E09E8390EA81
:1011E00098879AEF99872091440130914501275FB4
:1011F0003F4F3C832B838D831092E9001092450171
:1012000010924401109343010093420149E050E0E1
:10121000BE016F5F7F4F80E00E94A6040E94CC0455
:1012200079CF10934301009342010E940C04DC012A
:1012300012960D911C910115110509F451C1D801A7
:10124000ED91FC910480F581E02DBE016B5E7F4F36
:10125000C8010995009709F03EC1F8010085118584
:10126000EACFF3E0FF120EC08F89882309F440C053
:10127000823061F440E867E08CE596E00E94760AEF
:10128000811148CF81E28093EB0047CF813029F470
:1012900040E86BE080E596E0F1CF833099F70E945B
:1012A0000C04DC011296ED90FC908E010F5F1F4F35
:1012B0006801E114F10479F0D701ED91FC91068009
:1012C000F781E02DB801C7010995080F111DF7013D
:1012D000E084F184EECFD8011C92F6010190002049
:1012E000E9F73197BF016C197D0940E0C601C6CF0F
:1012F0006AE376E0FB01449150E080E80E94A60496
:1013000009CF973009F4BECF983021F481E0809363
:10131000F10000CF993009F0FDCE837009F0B2CF13
:10132000E8E1F1E081E031E096E32191222371F0E0
:101330008093E9003093EB00DF0111972C9120930B
:10134000EC009093ED008F5F873079F78EE7809304
:10135000EA001092EA008F898093D902DBCE8B8D50
:101360009C8D1092E90010924501109244019093D7
:10137000430180934201898D811192C08E899D899C
:10138000913A49F4813209F07DCF47E050E064E0C2
:1013900071E080E0B3CF913209F074CF833269F409
:1013A0008F89988DB0E0A0E08093000190930101B7
:1013B000A0930201B0930301ADCE803269F4809115
:1013C000E80082FFFCCF67E084E091E00E94FD042A
:1013D0008BEF8093E8009ECE823209F09BCE8F89FE
:1013E00080930B01EEEFFFE7859194918B3F9C4D2D
:1013F00051F1E0E0F8E08091040190910501A091A5
:101400000601B0910701803B9440A105B105F1F4BC
:1014100080910B0180FD1AC0EE3F8AE0F80789F544
:1014200087E797E7918380838091600080934601EE
:1014300088E19BE00FB6F894A895809360000FBEFA
:101440009093600067CEEEEFFAE0D5CF8081918176
:101450008737974709F05ECEA89580916000886134
:10146000809360008091460180936000EE3F2AE007
:10147000F20789F08091FE0A9091FF0A91838083A0
:1014800049CE808191818737980751F29093FF0A66
:101490008093FE0AC5CF1092FF0A1092FE0A3ACE40
:1014A0000E940C04DC0112960D911C91011511058E
:1014B00009F4E8CED801ED91FC910190F081E02D86
:1014C000BE016B5E7F4FC8010995811123CEF801E3
:1014D00000851185EBCF181619060CF41BCED2CE61
:1014E000F1E0FF12BECE6EE376E004CFEF92FF9202
:1014F0000F931F93CF93DF93F82E192FE62E042F0F
:1015000081E0860F880F0E94780483E00E947804AF
:10151000CF2DD12FEC0EFD2EF11CCE15DF05B9F02D
:1015200007FF13C0FE0184910E947804182F80E009
:101530000E947804812321968111EFCFDF91CF9112
:101540001F910F91FF90EF9008958881EDCF81E07A
:10155000F5CFEAEDF6E01382128288EE93E0A0E088
:10156000B0E084839583A683B78382E291E0918380
:1015700080838FEF9FEF95878487EAE2F7E01382FD
:10158000128284E391E0918380830895CF93DF9367
:10159000CDB7DEB7EE970FB6F894DEBF0FBECDBF66
:1015A000789484B5826084BD84B5816084BD85B53E
:1015B000826085BD85B5816085BD80916E0081604A
:1015C00080936E00109281008091810082608093F0
:1015D00081008091810081608093810080918000F2
:1015E000816080938000809191008260809391005F
:1015F0008091910081608093910080919000816042
:10160000809390008091C10084608093C10080919C
:10161000C10082608093C1008091C100816080938D
:10162000C1008091C30081608093C3008091C0009D
:1016300082608093C0008091C20081608093C2006C
:1016400080917A00846080937A0080917A00826031
:1016500080937A0080917A00816080937A008091F3
:101660007A00806880937A001092D9021092490122
:10167000109248018091D70081608093D70080EA62
:101680008093D80089B5806189BD89B5826089BDA4
:1016900009B400FEFDCF61E070E080E090E00E94C0
:1016A00045048091D8008F7C80618093D800809120
:1016B000E000807F8093E0008091E1008E7E809347
:1016C000E1008DE08093E200559A209A8FEF9FEF22
:1016D0009093E7068093E60660ED77E080E090E087
:1016E0000E94450481EC80937C0085B1806F85B9B0
:1016F00084B1877E84B984B1876E84B95E9A5F981D
:101700008AB1806D8AB9769A6E9881B3806F81BBF9
:10171000899880B38D7080BB80E58CBD81E08DBDE4
:1017200085E090E00E943F065F9A85E090E00E948D
:101730003F065E985C98E4E1F7E081E297E024914F
:101740002EBD00000DB407FEFDCF31968E179F070A
:10175000B1F75C9A81E880936400809165008160B4
:10176000809365000E94570680E80E944C068823FB
:10177000A9F05C9885EA8EBD00000DB407FEFDCF90
:101780005C9A2E982F982D988091640080628093A7
:10179000640081E083BF889513BEFCCF84E00E9483
:1017A0004C06882309F448C02D9884E80E944C0612
:1017B0008823E1F00E943D0688EC90E00E943F06FD
:1017C0002F9882E090E00E94D3198F3F29F06FEFAD
:1017D00082E090E00E94DB1984EF91E00E943F06D6
:1017E0002F9A84E80E944C068111FBCF84E10E946D
:1017F0004C068823E1F00E943D0688EC90E00E94B0
:101800003F062E9882E090E00E94D319882329F0A9
:1018100060E082E090E00E94DB1984EF91E00E949A
:101820003F062E9A84E10E944C068111FBCF88EC82
:1018300090E00E943F06B2CF0E943D0682E090E019
:101840000E948907882309F488C23E9A3F9A81E062
:1018500090E00E948907282F2470722E81FF15C006
:1018600021112E9861EF262E33243A9408E010E0DF
:101870007CE6E72EF12C80E40E944C06882309F4D4
:101880006FC22E9A2F9A0E943D0682E390E00E943A
:101890003F060E9444068111F8CF80E180930C013D
:1018A000E1E2F7E0E49190917B008E2F880F880FA2
:1018B00080729F7D892B80937B00E770E064E093CA
:1018C0007C0080917A00806480937A0080917A0015
:1018D00086FDFCCF6091780070917900072E000C96
:1018E000880B990B611571058105910511F00E9416
:1018F000CA1980E790E00E94181E898799838C019D
:10190000312C212C81E1482E87E2582E612C712C3C
:101910000E947B192BE030E040E050E00E94E91982
:101920006550710981099109620D731D77FF02C02D
:1019300068597E4F072E000C880B990B0E94DF1B05
:1019400025E33AEF4EE85CE30E94021D4B015C0187
:101950000E947B19A30192010E94E9190E94DF1BDA
:1019600020E030E44CE156E40E94351B20E030E0FA
:1019700044EB52E40E94021D20E030E044EB52E4CC
:101980000E944D1A6B017C01C501B4010E94301BFD
:10199000A70196010E94021D6D837E838F83988725
:1019A000C501B4010E946F1DA70196010E94021D8E
:1019B0006B017C010E947B19A30192010E94E9192D
:1019C0000E94DF1B20E030E44CE156E40E94351B0E
:1019D00020E030E040E850E40E94021D20E030E0CA
:1019E00040E050E40E944C1A2D813E814F81588581
:1019F0000E944D1A4B015C010E947B19F801808204
:101A00009182A282B382A30192010E94E9190E94ED
:101A1000DF1B20E030E44CE156E40E94351B20E05F
:101A200030E040E850E40E94021D20E030E040E059
:101A300050E40E944C1AA70196010E944D1AD80149
:101A400014966D937D938D939C931797B9E12B0E0C
:101A5000311C085F1F4FEEE52E16E1E03E0609F04F
:101A600057CFF985F093080229812093090210923B
:101A70000B0210920A0215E0212E312C0EE010E02C
:101A80000E947B192EE030E040E050E00E94E9190E
:101A900040910802509109025A874987FB01A3E04F
:101AA000EE0FFF1FAA95E1F7E40FF51F20813181AA
:101AB0004281538129833A834B835C83248135811E
:101AC000468157812D833E834F835887CB010196F2
:101AD000B8010E94EA1DB3E0880F991FBA95E1F79B
:101AE00049855A85480F591F5A87498729813A8164
:101AF0004B815C81A985BA856D917D918D919C9179
:101B00000E944C1A2B013C012D813E814F8158854A
:101B1000E985FA8564817581868197810E944C1AD6
:101B20006B017C01A30192010E94CC1A69877A871C
:101B30008B879C870E947B1920E137E240E050E0D0
:101B40000E94E9190E94DF1B20E030E44CE156E4DA
:101B50000E94351B4B015C0180910A0290910B029F
:101B60004EE0489F9001499F300D1124245F3D4F66
:101B70003E872D87A5019401C301B2010E94021D79
:101B800029813A814B815C810E944D1A20E030E02E
:101B900040E853E40E944D1AAD85BE856D937D9358
:101BA0008D939C931397A5019401C701B6010E94E0
:101BB000021D2D813E814F8158850E944D1A20E0E3
:101BC00030E040E853E40E944D1AED85FE856483C1
:101BD0007583868397832BED3FE049EC5FE369854E
:101BE0007A858B859C850E944D1AAD85BE85189699
:101BF0006D937D938D939C931B970E947B19E0912D
:101C00000A02F0910B02FA83E9834EE04E9F9001A5
:101C10004F9F300D1124D901A45FBD4F7D0128E7EE
:101C200030E040E050E00E94E919F70175876487D1
:101C300029813A812F5F3F4F30930B0220930A0294
:101C400031E0231A310809F01BCFE8E5F1E01082FA
:101C5000719642E0E230F407D1F70E947B19C12C63
:101C600052E0D52EE12CF12CA70196010E94E91932
:101C70000E94DF1B60934E0170934F0180935001CF
:101C8000909351010E947B19A70196010E94E919C6
:101C90000E94DF1B609352017093530180935401A3
:101CA000909355010E947B1922E030E040E050E023
:101CB0000E94E919709357016093560180E090E00B
:101CC000A0E8B3E48093B3029093B402A093B5026A
:101CD000B093B6028093AF029093B002A093B1028A
:101CE000B093B2021092BF021092C0021092C102D1
:101CF0001092C2021092BB021092BC021092BD025E
:101D00001092BE021092B7021092B8021092B9025D
:101D10001092BA0210925202109263021092740250
:101D200010928502109296028FB7F8944091C402E7
:101D30005091C5026091C6027091C7028FBF109189
:101D40004C01112309F4DEC010924C0180E090E0B8
:101D5000892B51F30E940000E7CF3E983F9877CD42
:101D6000772031F034E02316310411F42E9A2F98A5
:101D700081E00E94C203910137FE04C0222733276D
:101D80002219330927703327C10137FC079653E026
:101D9000959587955A95E1F737FE05C00197A801FB
:101DA000421B530B9A01BC017695762F66277795D7
:101DB000679566527D4FB0E0A0E02801421A530AB1
:101DC0008E3F5FEF950709F446C048E550E0FD01FE
:101DD000E454F94F5F014B01F0E88F0E911C8F3FE7
:101DE0009807C9F0F501E41BF50B64906701C41A6C
:101DF000D50AC60ED71EE62DF0E0022E02C0EE0F69
:101E0000FF1F0A94E2F7FE83ED83F6016080FD81F7
:101E10006F2AF601608221153105C9F0F501E41B36
:101E2000F50B64906701C41AD50AC80CD91CE62DBD
:101E3000F0E0042C02C0F595E7950A94E2F7FE83E2
:101E4000ED83F6016080FD816F2AF60160824150CA
:101E5000510909F0C4CF0196A85ABF4F60587F4F6F
:101E6000A03BB10509F0ACCF0E9457068FE090E08F
:101E70000E943F06FFEF2F1A3F0A29E12216310484
:101E800009F0F9CC772011F02F9A2D9880E991E094
:101E90000E943F060E943D0681E090E00E94890773
:101EA00080FFF3CC8AE090E00E9489079FEF980FB3
:101EB0009E3F08F0EACC22E330E030930302209307
:101EC000020228E330E030930502209304024BE045
:101ED00050E05A834983682F8AE297E00E942207E4
:101EE00089819A810E948907A981BA811196BA8352
:101EF000A983519781F70E94570688EE93E00E94CC
:101F00003F06C3CC80914D01942F981B892F90914F
:101F10000C01891748F48F5F891708F017CF81E00B
:101F200083BF889513BE12CF81E080934C0140930C
:101F30004D0180914A0190914B01019690934B0184
:101F400080934A01A0910702A98BA09306020E94E8
:101F500044068D8780930702EAEDF2E011111FEF2E
:101F6000002411931193119311930394D1F71092BC
:101F7000050210920402109203021092020280E203
:101F80000E944C068823B1F02DEC3CEC4CEC5DE358
:101F90006091BF027091C0028091C1029091C20213
:101FA0000E944C1A6093BF027093C0028093C102DA
:101FB0009093C20280E40E944C068823B1F02DEC7D
:101FC0003CEC4CEC5DE36091BF027091C0028091EB
:101FD000C1029091C2020E944D1A6093BF02709399
:101FE000C0028093C1029093C20288E00E944C0616
:101FF000882309F44AC08090B7029090B802A0905C
:10200000B902B090BA022BED3FE049EC5FE360917A
:10201000BF027091C0028091C1029091C2020E94E1
:102020004C1A6B017C010E94301B2DEC3CEC4CECFB
:102030005DE30E94021D9B01AC016091BB027091A7
:10204000BC028091BD029091BE020E944D1A609325
:10205000BB027093BC028093BD029093BE02C70185
:10206000B6010E946F1D2DEC3CEC4CEC5DE30E9430
:10207000021DA50194010E944D1A6093B70270934E
:10208000B8028093B9029093BA024090BB0250907C
:10209000BC026090BD027090BE022091B3023091EC
:1020A000B4024091B5025091B602C301B2010E9440
:1020B0004D1A4B015C018092B3029092B402A0923F
:1020C000B502B092B6022091B7023091B8024091A9
:1020D000B9025091BA022D833E834F8358872091D5
:1020E000AF023091B0024091B1025091B2026D81C5
:1020F0007E818F8198850E944D1A6B017C01C09270
:10210000AF02D092B002E092B102F092B20224EAA1
:1021100030E74DE75FE3C301B2010E94021D609307
:10212000BB027093BC028093BD029093BE0224EA6E
:1021300030E74DE75FE36D817E818F8198850E9456
:10214000021D6093B7027093B8028093B902909316
:10215000BA0220E030E0A901C501B4010E942B1BA6
:1021600087FF08C01092B3021092B4021092B50219
:102170001092B60220E030E040E054E46091B302F7
:102180007091B4028091B5029091B6020E94F51C44
:10219000181664F480E090E0A0E0B4E48093B30209
:1021A0009093B402A093B502B093B60220E030E061
:1021B000A901C701B6010E942B1B87FF08C010921E
:1021C000AF021092B0021092B1021092B20220E05F
:1021D00030E040E054E46091AF027091B002809131
:1021E000B1029091B2020E94F51C181664F480E0CE
:1021F00090E0A0E0B4E48093AF029093B002A0938B
:10220000B102B093B2028091B3029091B402A09156
:10221000B502B091B60289839A83AB83BC8320E078
:1022200030E040E852E4BC01CD010E944C1A4B0161
:102230005C018092AB029092AC02A092AD02B0928F
:10224000AE022091AF023091B0024091B1025091A4
:10225000B20229873A874B875C8720E030E040E074
:1022600052E469857A858B859C850E944C1A6B01A6
:102270007C01C092A702D092A802E092A902F0923B
:10228000AA0220E030E0A901C501B4010E942B1B85
:1022900087FF08C01092AB021092AC021092AD0200
:1022A0001092AE0220E030E040EC53E46091AB02CB
:1022B0007091AC028091AD029091AE020E94F51C2B
:1022C000181664F480E090E0A0ECB3E48093AB02D5
:1022D0009093AC02A093AD02B093AE0220E030E048
:1022E000A901C701B6010E942B1B87FF08C01092ED
:1022F000A7021092A8021092A9021092AA0220E04E
:1023000030E040EE53E46091A7027091A802809102
:10231000A9029091AA020E94F51C181664F480E0AC
:1023200090E0A0EEB3E48093A7029093A802A0935C
:10233000A902B093AA02398932FD4EC04D8542FFF1
:102340004BC0E2E5F2E050E040E020812111C8C13D
:102350006091BF027091C0028091C1029091C2024F
:10236000E1E1E49FD001E59FB00D1124AE5ABD4FCD
:10237000BE83AD8321E02C9329813A814B815C811E
:1023800011962D933D934D935C93149729853A852F
:102390004B855C8515962D933D934D935C931897D3
:1023A0002BED3FE049EC5FE30E944C1A6B017C018E
:1023B0000E94301BED81FE8161877287838794873D
:1023C000C701B6010E946F1DAD81BE811D966D9340
:1023D0007D938D939C935097E2E5F2E0FA8FE98F1D
:1023E0008F01D8018C91882309F450C019962D9142
:1023F0003D914D915C911C9711966D917D918D91C0
:102400009C9114970E944D1A4B015C01F801818246
:102410009282A382B482258536854785508965815D
:102420007681878190850E944D1A6B017C01D801CD
:102430001596CD92DD92ED92FC92189720E030E057
:10244000A901C501B4010E942B1B87FD1DC020E01E
:1024500030E040E054E4C501B4010E94F51C1816B8
:102460009CF020E030E0A901C701B6010E942B1BBF
:1024700087FD0AC020E030E040E054E4C701B60127
:102480000E94F51C181614F4F80110820F5E1F4FFD
:1024900027EA32E02017310709F0A3CF42E552E0E6
:1024A0005E834D83AD81BE818C91882309F454C035
:1024B00019962D913D914D915C911C9711966D91BE
:1024C0007D918D919C9114970E944D1A4B015C0156
:1024D000ED81FE8181829282A382B4822585368538
:1024E0004785508965817681878190850E944D1A44
:1024F0006B017C01AD81BE811596CD92DD92ED928E
:10250000FC92189720E030E0A901C501B4010E94B7
:102510002B1B87FD1EC020E030E040E054E4C501E5
:10252000B4010E94F51C1816A4F020E030E0A901C7
:10253000C701B6010E942B1B87FD0BC020E030E0D5
:1025400040E054E4C701B6010E94F51C18160CF0D7
:10255000CFC0ED81FE8110828D819E8141969E8348
:102560008D838017910709F09DCFA0910A02B09149
:102570000B02BA8BA98BECE0F2E0FE8BED8B8F01A6
:102580001E861D8629893A894D855E854217530727
:102590000CF02CC1D8011C968D919C911D97019730
:1025A000181619060CF41DC1E8E7F0E01D96FC931F
:1025B000EE931C97E8E5F1E0312C212C808181110C
:1025C00006C1D8011496CD90DD90ED90FC90179740
:1025D0002D913D914D915C91B1E1B29DF001B39D82
:1025E000F00D1124E85AFE4F81E08083218332836D
:1025F00043835483C582D682E782F08669817A81DB
:102600008B819C810E944C1A2B013C01A7019601F1
:1026100069857A858B859C850E944C1A4B015C01EB
:10262000A3019201C301B2010E94021D6B017C0152
:10263000A5019401C501B4010E94021D9B01AC01DA
:10264000C701B6010E944D1A0E947D1D6B017C01DD
:102650002FE632E143E85AE30E942B1B87FF08C0B4
:102660004FE6C42E42E1D42E43E8E42E4AE3F42E92
:10267000E1E1E29DD001E39DB00D1124A85ABE4FC7
:10268000BE8FAD8FA7019601C301B2010E94351B19
:1026900020E030E040E05FE30E94021DAD8DBE8D82
:1026A00019966D937D938D939C931C97A70196012A
:1026B000C501B4010E94351B20E030E040E05FE33B
:1026C0000E94021DED8DFE8D658776878787908B32
:1026D000ED85FE853196FE87ED87025F1F4F52CF55
:1026E0004F5F5F4F71964530510509F02ECE74CE85
:1026F0002CE032E03E872D87312C212CAD85BE8524
:102700002D913D914D915C91C501B4010E944C1AEF
:102710002B013C01ED85FE85248135814681578161
:10272000C701B6010E944C1A6D8B7E8B8F8B988FE0
:10273000A3019201C301B2010E94021D2B013C01C1
:102740002D893E894F89588DCA01B9010E94021D09
:102750009B01AC01C301B2010E944D1A20E030E0A0
:1027600040EB51E40E942B1B87FF22C0AD81BE814C
:102770001C9280910A0290910B02019790930B0298
:1027800080930A02EEE0E29DD001E39DB00D11249A
:10279000A45FBD4F2EE0289FF001299FF00D11246A
:1027A000E45FFD4F8EE001900D928A95E1F7D4CE63
:1027B0003FEF231A330A4D855E85425F5F4F5E8788
:1027C0004D8755E02516310409F098CFC5CE2FEF7F
:1027D000221A320A71963AE02316310409F0EECE3D
:1027E00077CF1D969C938E931C9772CF38E5232E3E
:1027F00031E0332ED1018C91882309F469C04090D7
:10280000B3025090B4026090B5027090B60220916D
:10281000AF023091B0024091B1025091B2022983CF
:102820003A834B835C8319962D913D914D915C9138
:102830001C9711966D917D918D919C9114970E949A
:102840004D1A4B015C01D10111968D929D92AD9272
:10285000BC9214971D962D913D914D915C9150978E
:1028600015966D917D918D919C9118970E944D1AAE
:102870006B017C01F101C582D682E782F08620E0FF
:1028800030E0A901C501B4010E942B1B87FD1EC0C9
:1028900020E030E040E054E4C501B4010E94F51CA2
:1028A0001816A4F020E030E0A901C701B6010E948B
:1028B0002B1B87FD0BC020E030E040E054E4C70153
:1028C000B6010E94F51C18160CF0DAC0D1011C925A
:1028D000F1E12F0E311C22E0221622E0320609F02F
:1028E00089CF1E861D86C0904E01D0904F01E0908A
:1028F0005001F09051018090520190905301A090AE
:102900005401B09055018091AB029091AC02A0911E
:10291000AD02B091AE0289839A83AB83BC832091D0
:10292000A7023091A8024091A9025091AA022987DA
:102930003A874B875C874D855E854130510509F4A8
:10294000D8C020E030E040E05FE3BC01CD010E9450
:10295000021D9B01AC01C701B6010E944C1A0E94E6
:10296000A71B6B012B0120E030E040E05FE36985AD
:102970007A858B859C850E94021D9B01AC01C50157
:10298000B4010E944C1A0E94A71B3B01DA8AC98A33
:1029900050E8C516D10408F012C377FD15C36034A2
:1029A00071050CF016C34091560150915701FA0180
:1029B000FF27FE8FED8F440F4F5F6E1B7F0BC6010D
:1029C0000E94FC06EE24E394F12C2D8D3E8DE21A3C
:1029D000F30AD12CC12CC21AD30ACC0CDD1C0D85F4
:1029E0001E85AA24A394B12C41E050E05E874D8758
:1029F0008D8D9E8D081719070CF075CFF7FC08C058
:102A000001979E8F8D8F92E0C90ED11CEC0CFD1C9E
:102A10000F5F1F4FA2E0AA0EB11CEA0CFB1C8D8DAC
:102A2000880F8F5F8987482FF3012D8D3E8DE21B24
:102A3000F30BFA83E983BF0189899A89800F911F7B
:102A40000E94FC064301801A910A4A2DB4018D8D23
:102A50009E8D840D951D0E94FC06498569817A81B1
:102A600089899A89801B910B0E94FC064A2DB4012A
:102A7000C201AD8DBE8D8A1B9B0B0E94FC06B8CF98
:102A8000A3019201C501B4010E944C1A4B015C01E3
:102A900029813A814B815C81C701B6010E944C1AA1
:102AA0006B017C01A5019401C501B4010E94021DC6
:102AB0004B015C01A7019601C701B6010E94021DEE
:102AC0009B01AC01C501B4010E944D1A20E030E029
:102AD00048EC51E40E942B1B87FFFACE44E050E003
:102AE0006CE371E08AE297E00E940A05F10110822E
:102AF000EFCEE8E5F1E0FE87ED87AD85BE858C91F0
:102B0000882311F129853A854B855C8515966D9151
:102B10007D918D919C9118970E944C1A0E94A71B41
:102B20006B0129813A814B815C81ED85FE85618154
:102B30007281838194810E944C1A0E94A71BCB0151
:102B400041E0B6010E945A062D853E852F5E3F4F1B
:102B50003E872D872216330681F62090080230909A
:102B6000090220E030E040E853E4D1016D917D910D
:102B70008D919C910E944D1A29813A814B815C81F3
:102B80000E944C1A0E94A71B3B0120E030E040E865
:102B900053E4F10164817581868197810E944D1A09
:102BA00029853A854B855C850E944C1A0E94A71B9B
:102BB0008B013E862D862101F8E64F0E511C20E048
:102BC00030E040E853E4AD85BE8518966D917D9167
:102BD0008D919C911B970E944D1A29813A814B81BE
:102BE0005C810E944C1A0E94A71B6B0120E030E020
:102BF00040E853E4ED85FE85648575858685978577
:102C00000E944D1A29853A854B855C850E944C1A95
:102C10000E94A71B4B019B01A601B801C3010E94A2
:102C200078062D853E85285F3F4F3E872D873601EC
:102C300084014216530619F620E030E040E853E4E0
:102C4000D10114966D917D918D919C9117970E9461
:102C50004D1A29853A854B855C850E944C1A0E9445
:102C6000A71B2B0120E030E040E853E4F101608134
:102C70007181828193810E944D1A29813A814B8111
:102C80005C810E944C1A0E94A71B9201AB01B40107
:102C9000C6010E9478061EAE1DAE80910A02909178
:102CA0000B022DAD3EAD281739070CF097C12BED67
:102CB0003FE049EC5FE3AD89BE8918966D917D9147
:102CC0008D919C911B970E944C1A4B015C010E94B4
:102CD000301B6B017C01C501B4010E946F1D4B01CB
:102CE0005C0120E030E040E850E40E94021D6DA34A
:102CF0007EA38FA398A720E030E040E850ECC70106
:102D0000B6010E94021D6D8F7E8F8F8F98A329813F
:102D10003A814B815C81ED89FE896081718182817C
:102D200093810E944C1A2B013C0120E030E0A90164
:102D3000C701B6010E94021D2DA13EA14FA158A5B9
:102D40000E944D1A9B01AC01C301B2010E944D1AB1
:102D50006D877E878F87988B29853A854B855C8523
:102D6000AD89BE8914966D917D918D919C91179737
:102D70000E944C1A2B013C0120E030E0A901C50162
:102D8000B4010E94021D2D8D3E8D4F8D58A10E94D1
:102D90004D1A9B01AC01C301B2010E944D1A698B0F
:102DA0007A8B8B8B9C8B20E030E040E050ECC701AD
:102DB000B6010E94021D69A77AA78BA79CA720E0F5
:102DC00030E040E850ECC501B4010E94021D69A347
:102DD0007AA38BA39CA320E030E040E050ECC50137
:102DE000B4010E94021D6DA77EA78FA798ABA70113
:102DF0009601C701B6010E944D1A2B013C01A501A5
:102E00009401C501B4010E944D1A4B015C0120E000
:102E100030E040E850E4C701B6010E94021D6B019A
:102E20007C0129A13AA14BA15CA169A57AA58BA53A
:102E30009CA50E944C1A2D853E854F8558890E947D
:102E40004D1A0E94A71B69AB7AAB8BAB9CAB2DA52F
:102E50003EA54FA558A96D8D7E8D8F8D98A10E949E
:102E60004D1A29893A894B895C890E944D1A0E9422
:102E7000A71B6DAB7EAB8FAB98AF29A13AA14BA13D
:102E80005CA1C301B2010E944C1A2D853E854F857D
:102E900058890E944D1A0E94A71B69A37AA38BA38D
:102EA0009CA3A50194016D8D7E8D8F8D98A10E94AC
:102EB0004D1A29893A894B895C890E944D1A0E94D2
:102EC000A71B6D8F7E8F8F8F98A32DA13EA14FA141
:102ED00058A5C301B2010E944C1A2D853E854F852D
:102EE00058890E944D1A0E94A71B69AF7AAF8BAF19
:102EF0009CAFA7019601C501B4010E944D1A298912
:102F00003A894B895C890E944D1A0E94A71B2B01AC
:102F10002DA13EA14FA158A569A57AA58BA59CA579
:102F20000E944C1A2D853E854F8558890E944D1A66
:102F30000E94A71B6D877E878F87988BA7019601BC
:102F40006DA57EA58FA598A90E944D1A29893A8959
:102F50004B895C890E944D1A0E94A71B4B012D8D45
:102F60003E8D49A15AA16DA97EA989A99AA90E945D
:102F70007806920149AD5AAD6D8D7E8D89A19AA1D9
:102F80000E94780694014D855E85B20189AD9AADA7
:102F90000E9478062DA93EA949A95AA9B4018D8598
:102FA0009E850E947806EDADFEAD3196FEAFEDAF89
:102FB0002D893E89225F3F4F3E8B2D8B6ECE28E5BB
:102FC00031E03E872D8799CD48E551E05E874D87FA
:102FD00094CD88E591E09E878D878FCDA98DBA8DA0
:102FE0008C91882311F129853A854B855C8515964E
:102FF0006D917D918D919C9118970E944C1A0E9421
:10300000A71B6B0129813A814B815C81E98DFA8D87
:1030100061817281838194810E944C1A0E94A71B56
:10302000CB0141E0B6010E945A06298D3A8D2F5EF0
:103030003F4F3A8F298F4D815E812417350771F6F6
:1030400029813A814B815C816091B3027091B40215
:103050008091B5029091B6020E944C1A6D837E83D6
:103060008F83988729853A854B855C856091AF026F
:103070007091B0028091B1029091B2020E944C1AFC
:1030800069837A838B839C83C090BF02D090C002F7
:10309000E090C102F090C202C701B6010E94301B4D
:1030A0004B015C01C701B6010E946F1D6B017C01E1
:1030B00020E030E040E850E40E94021D69877A87F2
:1030C0008B879C8720E030E040E850E4C501B401E4
:1030D0000E94021D698F7A8F8B8F9C8F20E030E0D9
:1030E000A901C501B4010E94021D2B013C0120E091
:1030F00030E040E850ECC701B6010E94021D9B0180
:10310000AC01C301B2010E944C1A2D813E814F8156
:1031100058850E944D1A0E94A71B6D8B7E8B8F8B4A
:10312000988F20E030E0A901C701B6010E94021D7E
:103130002B013C0120E030E040E850ECC501B40137
:103140000E94021D9B01AC01C301B2010E944D1AF5
:1031500029813A814B815C810E944D1A0E94A71BF4
:103160006D877E878F87988B20E030E040E450ECBD
:10317000C501B4010E94021D29853A854B855C85F5
:103180000E944C1A2D813E814F8158850E944D1A14
:103190000E94A71B698B7A8B8B8B9C8B20E030E085
:1031A00040E450ECC701B6010E94021D298D3A8D02
:1031B0004B8D5C8D0E944D1A29813A814B815C8137
:1031C0000E944D1A0E94A71B2B0120E030E040E432
:1031D00050E4C501B4010E94021D29853A854B8542
:1031E0005C850E944C1A2D813E814F8158850E943A
:1031F0004D1A0E94A71B4B0120E030E040E450E450
:10320000C701B6010E94021D298D3A8D4B8D5C8D40
:103210000E944D1A29813A814B815C810E944D1A8E
:103220000E94A71B6B01920149895A896D857E8591
:103230008D899E890E9478069601A401B201898930
:103240009A890E9478062D853E854D895E89B60152
:10325000C4010E9478060E9457060C94A60E8F9215
:103260009F92AF92BF92CF92DF92EF92FF92CF9355
:10327000DF93EC01688179818A819B8161157105F9
:103280008105910521F464E279ED8BE597E02DE16C
:1032900033EF41E050E00E94E91949015A019B01D6
:1032A000AC01A7EAB1E40E94081A6B017C01ACEE04
:1032B000B4EFA50194010E94161AC60ED71EE81E8F
:1032C000F91EF7FE06C081E0C81AD108E10880E8BF
:1032D000F80AC882D982EA82FB82C701B6019F77C9
:1032E000DF91CF91FF90EF90DF90CF90BF90AF90A4
:1032F0009F908F9008958F929F92AF92BF92CF929E
:10330000DF92EF92FF9260910D0170910E0180911A
:103310000F0190911001611571058105910521F44E
:1033200064E279ED8BE597E02DE133EF41E050E089
:103330000E94E91949015A019B01AC01A7EAB1E4D5
:103340000E94081A6B017C01ACEEB4EFA501940158
:103350000E94161AC60ED71EE81EF91EF7FE06C0FA
:1033600081E0C81AD108E10880E8F80AC0920D018E
:10337000D0920E01E0920F01F0921001C701B60148
:103380009F77FF90EF90DF90CF90BF90AF909F908E
:103390008F90089560930D0170930E0180930F013B
:1033A000909310010895F999FECF92BD81BDF89ACE
:1033B000992780B50895262FF999FECF1FBA92BD9F
:1033C00081BD20BD0FB6F894FA9AF99A0FBE019606
:1033D0000895052E97FB1EF400940E94001A57FDD5
:1033E00007D00E941B1A07FC03D04EF40C94001A5D
:1033F00050954095309521953F4F4F4F5F4F089521
:1034000090958095709561957F4F8F4F9F4F089550
:103410000E943D1AA59F900DB49F900DA49F800D12
:10342000911D11240895B7FF0C94081A0E94081AE0
:10343000821B930B0895A1E21A2EAA1BBB1BFD0150
:103440000DC0AA1FBB1FEE1FFF1FA217B307E40783
:10345000F50720F0A21BB30BE40BF50B661F771FDB
:10346000881F991F1A9469F76095709580959095BB
:103470009B01AC01BD01CF010895A29FB001B39F94
:10348000C001A39F700D811D1124911DB29F700D6D
:10349000811D1124911D08955058BB27AA270E9411
:1034A000641A0C94A71C0E946E1C38F00E94751CB4
:1034B00020F039F49F3F19F426F40C94441C0EF4C8
:1034C000E095E7FB0C943E1CE92F0E94CC1C58F3BE
:1034D000BA17620773078407950720F079F4A6F5F9
:1034E0000C94EE1C0EF4E0950B2EBA2FA02D0B01C0
:1034F000B90190010C01CA01A0011124FF27591B39
:1035000099F0593F50F4503E68F11A16F040A22F3E
:10351000232F342F4427585FF3CF469537952795AF
:10352000A795F0405395C9F77EF41F16BA0B620BAE
:10353000730B840BBAF09150A1F0FF0FBB1F661FF5
:10354000771F881FC2F70EC0BA0F621F731F841F38
:1035500048F4879577956795B795F7959E3F08F05E
:10356000B0CF9395880F08F09927EE0F9795879520
:1035700008950E946E1C60F080E891E009F49EEFCF
:103580000E94751C28F040E851E071F45EEF0CC019
:103590000C94441C0C94EE1CE92FE0780E94CC1C87
:1035A00040F3092E052AB1F32617370748075907B4
:1035B00038F00E2E07F8E02569F0E025E0640AC037
:1035C000EF6307F8009407FADB01B9019D01DC0104
:1035D000CA01AD01EF930E944C1B0E94A71C0E94E0
:1035E000FC1A5F91552339F02BED3FE049E450FD83
:1035F00049EC0C944D1A0895DF93DD27B92FBF775E
:1036000040E85FE31616170648075B0718F4D92F42
:103610000E94FA1C9F938F937F936F930E94BD1D0E
:10362000ECEAF0E00E94471C0E94A71C2F913F91FA
:103630004F915F910E94151DDD2351F09058A2EA31
:103640002AED3FE049EC5FE3D0785D270E94641AE1
:10365000DF910C94A71C0E941A1C08F481E00895C5
:103660000E947E1CE3950C94B81C0E94491B0C948C
:10367000A71C0E94751C58F00E946E1C40F029F493
:103680005F3F29F00C943E1C51110C94EF1C0C94DC
:10369000441C0E94CC1C68F39923B1F3552391F389
:1036A000951B550BBB27AA2762177307840738F0B1
:1036B0009F5F5F4F220F331F441FAA1FA9F335D00E
:1036C0000E2E3AF0E0E832D091505040E695001CC2
:1036D000CAF72BD0FE2F29D0660F771F881FBB1F7C
:1036E000261737074807AB07B0E809F0BB0B802D5A
:1036F000BF01FF2793585F4F3AF09E3F510578F086
:103700000C943E1C0C94EF1C5F3FE4F3983ED4F302
:10371000869577956795B795F7959F5FC9F7880F59
:10372000911D9695879597F90895E1E0660F771FAB
:10373000881FBB1F621773078407BA0720F0621B3C
:10374000730B840BBA0BEE1F88F7E09508950E9467
:10375000AE1B6894B1110C94EF1C08950E94D41C08
:1037600088F09F5798F0B92F9927B751B0F0E1F042
:10377000660F771F881F991F1AF0BA95C9F714C0F2
:10378000B13091F00E94EE1CB1E008950C94EE1C53
:10379000672F782F8827B85F39F0B93FCCF386952B
:1037A00077956795B395D9F73EF490958095709588
:1037B00061957F4F8F4F9F4F0895E89409C097FB05
:1037C0003EF490958095709561957F4F8F4F9F4FF8
:1037D0009923A9F0F92F96E9BB279395F69587953C
:1037E00077956795B795F111F8CFFAF4BB0F11F4FF
:1037F00060FF1BC06F5F7F4F8F4F9F4F16C08823A6
:1038000011F096E911C0772321F09EE8872F762FDB
:1038100005C0662371F096E8862F70E060E02AF01C
:103820009A95660F771F881FDAF7880F9695879508
:1038300097F90895990F0008550FAA0BE0E8FEEFDD
:1038400016161706E807F907C0F012161306E40764
:10385000F50798F0621B730B840B950B39F40A265D
:1038600061F0232B242B252B21F408950A2609F43B
:10387000A140A6958FEF811D811D089597F99F673F
:1038800080E870E060E008959FEF80EC0895DF939A
:10389000CF931F930F93FF92EF92DF927B018C01E6
:1038A000689406C0DA2EEF010E94151DFE01E8940F
:1038B000A5912591359145915591A6F3EF010E946F
:1038C000641AFE019701A801DA9469F7DF90EF907E
:1038D000FF900F911F91CF91DF91089500240A94DA
:1038E0001616170618060906089500240A941216DB
:1038F00013061406050608950C94441C0E94D41C5B
:10390000D8F3E894E0E0BB279F57F0F02AED3FE0C2
:1039100049EC06C0EE0FBB0F661F771F881F28F00B
:10392000B23A62077307840728F0B25A620B730B2E
:10393000840BE3959A9572F7803830F49A95BB0F13
:10394000661F771F881FD2F790480C94C31D092E5D
:103950000394000C11F4882352F0BB0F40F4BF2BEA
:1039600011F460FF04C06F5F7F4F8F4F9F4F08952A
:10397000EF93E0FF07C0A2EA2AED3FE049EC5FEBDE
:103980000E94641A0E94A71C0F90039401FC905897
:10399000E9EDF0E00C94D61D57FD9058440F551FEB
:1039A00059F05F3F71F04795880F97FB991F61F0C1
:1039B0009F3F79F087950895121613061406551F38
:1039C000F2CF4695F1DF08C0161617061806991FA4
:1039D000F1CF86957105610508940895E894BB2799
:1039E00066277727CB0197F908950E941A1C08F4DF
:1039F0008FEF08959B01AC0160E070E080E89FE3E9
:103A00000C94351B0E94151D0C94A71C0E946E1C63
:103A100038F00E94751C20F0952311F00C943E1C88
:103A20000C94441C11240C94EF1C0E94CC1C70F3C9
:103A3000959FC1F3950F50E0551F629FF001729F53
:103A4000BB27F00DB11D639FAA27F00DB11DAA1F62
:103A5000649F6627B00DA11D661F829F2227B00DAF
:103A6000A11D621F739FB00DA11D621F839FA00D3A
:103A7000611D221F749F3327A00D611D231F849F8A
:103A8000600D211D822F762F6A2F11249F575040E1
:103A90009AF0F1F088234AF0EE0FFF1FBB1F661F5C
:103AA000771F881F91505040A9F79E3F510580F025
:103AB0000C943E1C0C94EF1C5F3FE4F3983ED4F34F
:103AC000869577956795B795F795E7959F5FC1F7C9
:103AD000FE2B880F911D9695879597F908959F93D2
:103AE0000E947E1C0F9007FCEE5F0C94B81C19F42A
:103AF00016F40C94441C0C94C11D0E94D41CB8F301
:103B00009923C9F3B6F39F57550B87FF0E94CF1D2A
:103B10000024A0E640EA900180585695979528F435
:103B2000805C660F771F881F20F02617370748072D
:103B300030F4621B730B840B202931294A2BA69584
:103B400017940794202531254A2758F7660F771FC9
:103B5000881F20F026173707480730F4620B730BD5
:103B6000840B200D311D411DA09581F7B901842FD3
:103B70009158880F9695879508959B01AC010C94F8
:103B8000021D9F3F31F0915020F4879577956795FE
:103B9000B795880F911D9695879597F9089591503F
:103BA0005040660F771F881FD2F708959F938F9319
:103BB0007F936F93FF93EF939B01AC010E94021DD3
:103BC000EF91FF910E94471C2F913F914F915F9180
:103BD0000C94021D97FB072E16F4009407D077FD76
:103BE00009D00E94FE1D07FC05D03EF490958195FA
:103BF0009F4F0895709561957F4F0895AA1BBB1B39
:103C000051E107C0AA1FBB1FA617B70710F0A61BDC
:103C1000B70B881F991F5A95A9F780959095BC01FD
:103C2000CD010895EE0FFF1F0590F491E02D09944A
:103C30000F931F93CF93DF938230910510F482E0AE
:103C400090E0E0913007F091310730E020E0B0E003
:103C5000A0E0309799F42115310509F44AC0281BDA
:103C6000390B24303105D8F58A819B8161157105A6
:103C700089F1FB0193838283FE0111C04081518150
:103C80000281138148175907E0F04817590799F442
:103C9000109761F012960C93129713961C9332961C
:103CA000CF01DF91CF911F910F91089500933007BD
:103CB00010933107F4CF2115310551F04217530706
:103CC00038F0A901DB019A01BD01DF01F801C1CF84
:103CD000EF01F9CF9093310780933007CDCFFE01EC
:103CE000E20FF31F81939193225031093983288386
:103CF000D7CF20912E0730912F07232B41F420910D
:103D000013013091140130932F0720932E07209137
:103D10001101309112012115310541F42DB73EB743
:103D20004091150150911601241B350BE0912E078F
:103D3000F0912F07E217F307A0F42E1B3F0B281773
:103D4000390778F0AC014E5F5F4F2417350748F014
:103D50004E0F5F1F50932F0740932E07819391932F
:103D60009FCFF0E0E0E09CCFCF93DF930097E9F0A6
:103D7000FC01329713821282A0913007B091310773
:103D8000ED0130E020E01097A1F420813181820F15
:103D9000931F20912E0730912F072817390709F01C
:103DA00061C0F0932F07E0932E07DF91CF91089524
:103DB000EA01CE17DF07E8F54A815B819E014115D4
:103DC0005105B1F7E901FB83EA8349915991C40F89
:103DD000D51FEC17FD0761F4808191810296840F55
:103DE000951FE90199838883828193819B838A83CC
:103DF000F0E0E0E012968D919C9113970097B9F551
:103E00002D913C911197CD010296820F931F209125
:103E10002E0730912F072817390739F6309751F5BB
:103E20001092310710923007B0932F07A0932E07FE
:103E3000BCCFD383C28340815181840F951FC817A3
:103E4000D90761F44E5F5F4F88819981480F591FF0
:103E5000518340838A819B8193838283211531051D
:103E600009F0B0CFF0933107E09330079ECFFD010A
:0E3E7000DC01C0CF13821282D7CFF894FFCFAF
:103E7E00FFFFFFFF00E10000000000001001000046
:103E8E000000003207800000C180810000000000A9
:103E9E000000BC053705DD05D2052306E105FF054B
:103EAE000000000022070A0586078507486974216D
:023EBE00000002
:00000001FF
