:100000000C9498030C94C0030C94C0030C94C0038C
:100010000C94C0030C94C0030C94C0030C94C00354
:100020000C94C0030C94C0030C9459080C94C80899
:100030000C94C0030C94C0030C94C0030C94C00334
:100040000C94C0030C94C0030C94C0030C94C00324
:100050000C94C0030C94C0030C94C0030C940F08C0
:100060000C94C0030C94C0030C94C0030C94C00304
:100070000C94C0030C94C0030C94C0030C94C003F4
:100080000C94C0030C94C0030C94C0030C94C003E4
:100090000C94C0030C94C0030C94C0030C94C003D4
:1000A0000C94C0030C94C0030C94C003084AD73BC3
:1000B0003BCE016E84BCBFFDC12F3D6C74319ABD37
:1000C00056833DDA3D00C77F11BED9E4BB4C3E915B
:1000D0006BAAAABE000000803F05A84CCDB2D44E4A
:1000E000B93836A9020C50B9918688083CA6AAAA4C
:1000F0002ABE000000803F0000000000003E5B4F71
:100100005B3E3E6B4F6B3E1C3E7C3E1C183C7E3C77
:10011000181C577D571C1C5E7F5E1C00183C180085
:10012000FFE7C3E7FF0018241800FFE7DBE7FF3015
:10013000483A060E2629792926407F050507407F83
:1001400005253F5A3CE73C5A7F3E1C1C08081C1CF6
:100150003E7F14227F22145F5F005F5F06097F01EC
:100160007F006689956A606060606094A2FFA294D7
:1001700008047E040810207E201008082A1C0808A5
:100180001C2A08081E101010100C1E0C1E0C3038F3
:100190003E3830060E3E0E06000000000000005FF4
:1001A00000000007000700147F147F14242A7F2A10
:1001B00012231308646236495620500008070300D2
:1001C000001C2241000041221C002A1C7F1C2A081E
:1001D000083E080800807030000808080808000081
:1001E00060600020100804023E5149453E00427FF5
:1001F000400072494949462141494D331814127F44
:100200001027454545393C4A4949314121110907E3
:100210003649494936464949291E00001400000064
:100220004034000000081422411414141414004136
:1002300022140802015909063E415D594E7C1211F3
:10024000127C7F494949363E414141227F4141412B
:100250003E7F494949417F090909013E41415173A6
:100260007F0808087F00417F41002040413F017F17
:10027000081422417F404040407F021C027F7F04DF
:1002800008107F3E4141413E7F090909063E415128
:10029000215E7F09192946264949493203017F0118
:1002A000033F4040403F1F2040201F3F4038403F19
:1002B000631408146303047804036159494D43002F
:1002C0007F4141410204081020004141417F040266
:1002D00001020440404040400003070800205454FD
:1002E00078407F28444438384444442838444428DB
:1002F0007F385454541800087E090218A4A49C782E
:100300007F0804047800447D40002040403D007F89
:100310001028440000417F40007C047804787C0869
:100320000404783844444438FC182424181824243D
:1003300018FC7C08040408485454542404043F4422
:10034000243C4040207C1C2040201C3C4030403C51
:1003500044281028444C9090907C4464544C4400B1
:100360000836410000007700000041360800020115
:100370000204023C2623263C1EA1A161123A404001
:10038000207A38545455592155557941215454787F
:1003900041215554784020545579400C1E52721218
:1003A00039555555593954545459395554545800A0
:1003B00000457C410002457D420001457C40F0291A
:1003C0002429F0F0282528F07C5455450020545469
:1003D0007C547C0A097F49324949493232484848AD
:1003E00032324A4848303A4141217A3A42402078F4
:1003F000009DA0A07D39444444393D4040403D3CEF
:1004000024FF2424487E4943662B2FFC2F2BFF0911
:1004100029F620C0887E0903205454794100004405
:100420007D413048484A32384040227A007A0A0AF0
:10043000727D0D19317D2629292F28262929292663
:1004400030484D4020380808080808080808382FA8
:1004500010C8ACBA2F102834FA00007B0000081432
:100460002A142222142A14089500220095AA005565
:1004700000AAAA55AA55AA000000FF00101010FFFC
:1004800000141414FF001010FF00FF1010F010F003
:10049000141414FC001414F700FF0000FF00FF14F4
:1004A00014F404FC141417101F10101F101F141440
:1004B000141F00101010F0000000001F101010108A
:1004C0001F10101010F010000000FF10101010107E
:1004D00010101010FF10000000FF140000FF00FFBC
:1004E00000001F10170000FC04F414141710171458
:1004F00014F404F40000FF00F7141414141414147A
:10050000F700F7141414171410101F101F141414EC
:10051000F4141010F010F000001F101F0000001F56
:1005200014000000FC140000F010F01010FF10FF89
:10053000141414FF141010101F00000000F010FF1E
:10054000FFFFFFFFF0F0F0F0F0FFFFFF0000000002
:1005500000FFFF0F0F0F0F0F38444438447C2A2A46
:100560003E147E02020606027E027E026355494167
:10057000633844443C04407E201E2006027E020272
:1005800099A5E7A5991C2A492A1C4C7201724C3086
:100590004A4D4D303048784830BC625A463D3E495D
:1005A0004949007E0101017E2A2A2A2A2A44445F01
:1005B000444440514A444040444A51400000FF01F5
:1005C00003E080FF000008086B6B08361236243603
:1005D000060F090F06000018180000001010003068
:1005E00040FF0101001F01011E00191D1712003CF0
:1005F0003C3C3C0000000000080B0002020200002E
:100600000904000001020200000524001001052475
:1006100001010104240206052406000107058103E7
:1006200010004009040100020A0000000705020250
:100630004000000705830240000004030904120182
:100640000002EF0201404123368000010102030154
:1006500041726475696E6F204C4C43004172647541
:10066000626F7900F0F89C8E8783878E9CF8F0008B
:1006700000FEFF0303030303070EFCF80000FEFF68
:100680000303030303070EFCF80000FFFF00000054
:1006900000000000FFFF0000FEFF8383838383C709
:1006A000EE7C380000F8FC0E07030303070EFCF88D
:1006B00000003F7FE0C08080C0E07F3FFFFF01017E
:1006C0000101010101FFFF0000FFFF0C0C0C0C1CDD
:1006D0003E77E3C100007FFFC0C0C0C0C0E0703FF4
:1006E0001F00001F3F70E0C0C0C0E0703F1F00004F
:1006F0007FFFC1C1C1C1C1E3773E1C00001F3F7035
:10070000E0C0C0C0E0703F1F000000000001FFFF1C
:1007100001000000D5F08D14A1C881CFD9F1AF2020
:1007200000070605040100080A0B0C0D09002D0B3B
:1007300011241FBECFEFDAE0DEBFCDBF11E0A0E095
:10074000B1E0EAE7FBE302C005900D92AC33B107DC
:10075000D9F726E0ACE3B1E001C01D92A23AB2079E
:10076000E1F713E0C8E9D3E004C02197FE010E943D
:10077000901CC739D107C9F70E944A0B0C94BB1DC6
:100780000C940000EAE4F2E0A0E0B8E000800EBCC7
:100790008111012C1197A0FDFDCF0192B9F70DB485
:1007A0000895FC0180914902882311F13FB7F89424
:1007B00082E08093E9002091F200822F90E01816E9
:1007C000190614F481E090E0882339F0289844E673
:1007D000409348024091F1004083222339F0209158
:1007E000F200211103C02BE62093E8003FBF0895DB
:1007F0008FEF9FEF08952FB7F89483E08093E9007F
:100800009091E800892F807295FF04C09091F200CA
:1008100080E4891B2FBF08958091400281110DC093
:1008200082E080933C0284E080933D0210923F027C
:1008300010923E0281E0809340028CE392E00895A2
:100840003FB7F8948091380290913902A0913A0212
:10085000B0913B0226B5A89B05C02F3F19F0019629
:10086000A11DB11D3FBFBA2FA92F982F8827BC010A
:10087000CD01620F711D811D911D42E0660F771F32
:10088000881F991F4A95D1F708958F929F92AF9232
:10089000BF92CF92DF92EF92FF926B017C010E9498
:1008A00020044B015C01C114D104E104F104B9F04E
:1008B0000E942004681979098A099B09683E7340DF
:1008C0008105910580F321E0C21AD108E108F10801
:1008D00088EE880E83E0981EA11CB11CE4CFFF9027
:1008E000EF90DF90CF90BF90AF909F908F90089542
:1008F00040913E0150913F0120913C0130913D01DA
:1009000042175307B4F49091E8009570E1F3909189
:10091000E80092FD19C08093F10080913E01909112
:100920003F0101968F739927892B19F48EEF8093DD
:10093000E80080913E0190913F01019690933F0124
:1009400080933E0181E0089580E00895DF92EF9268
:10095000FF920F931F93CF93DF93D82E8A01EB0161
:100960007B01E40EF51ECE15DF0559F0D7FE12C04F
:10097000FE0184910E94780421968111F4CF0FEF3B
:100980001FEFC801DF91CF911F910F91FF90EF9062
:10099000DF9008958881EECF0F931F93CF93DF935D
:1009A0001F92CDB7DEB782E0898342E450E068EF62
:1009B00075E080E80E94A6040E940C04DC011296F7
:1009C0000D911C910115110589F0D801ED91FC9153
:1009D0000280F381E02DBE016F5F7F4FC801099552
:1009E00097FD04C0F80100851185ECCF89810F9037
:1009F000DF91CF911F910F910895615030F02091B8
:100A0000F100FC0120830196F8CF289884E68093BA
:100A100048020895AF92BF92CF92DF92EF92FF9279
:100A20000F931F93CF93DF936C017B018B01040F16
:100A3000151FEB015E01AE18BF08C017D10759F0B2
:100A40006991D601ED91FC910190F081E02DC601F4
:100A50000995892B79F7C501DF91CF911F910F91EE
:100A6000FF90EF90DF90CF90BF90AF9008958F925E
:100A70009F92AF92BF92CF92DF92EF92FF920F932D
:100A80001F93CF93DF936C017B018A0180910B014F
:100A9000882309F45CC080914902882309F457C077
:100AA0008091420180FF05C08091E00082608093C8
:100AB000E000E801B12C8AEFA82E93E0892E2AE30A
:100AC000922E209711F4BB20D9F10E94FB038111D3
:100AD0000AC0AA94AA20D9F161E070E080E090E019
:100AE0000E944504EECF8C171D0611F00CF08C2FE0
:100AF0009FB7F8948092E9002091E80025FD02C09C
:100B00009FBFDFCF282F30E0C21BD30BF7018150EE
:100B100020F041914093F100FACFE20EF31EBB208A
:100B200021F09092E800B12CEBCF8091E80085FD98
:100B3000E7CF9092E800BB24B394209709F3F3CF5A
:100B40005D9884E680934101101611063CF081E027
:100B500090E0F6019383828310E000E0C801DF910A
:100B6000CF911F910F91FF90EF90DF90CF90BF90AA
:100B7000AF909F908F900895CF93DF931F92CDB742
:100B8000DEB76983DC01ED91FC910280F381E02DF9
:100B900041E050E0BE016F5F7F4F09950F90DF91FC
:100BA000CF91089583E08093E9008091F20088233B
:100BB00019F08AE38093E80008950E94FB0390E017
:100BC0000895CF93DF931F92CDB7DEB7FC018485E4
:100BD000958597FD08C02FEF3FEF358724870F904D
:100BE000DF91CF910895CE0101960E94D103019724
:100BF00019F4898190E0F3CF8FEF9FEFF0CF0F933F
:100C00001F93CF93DF931F92CDB7DEB78C01FC010A
:100C10008485958597FF0BC0CE0101960E94D10374
:100C2000019771F4898190E0F80195878487F80134
:100C3000848595850F90DF91CF911F910F91089535
:100C40008FEF9FEFF1CFFC018485958597FD0BC059
:100C50009FB7F89482E08093E9008091F2009FBFF3
:100C600090E0019608959FB7F89482E08093E900A0
:100C70008091F2009FBF90E008952D9A0895BC01E5
:100C800090E080E00C9445048FB18095807F669B56
:100C900088601C9B84600895CF93C82F0E944406EF
:100CA000982F9C2381E09C1380E0CF91089580E0F1
:100CB0000C94C20380389105B8F460347105A0F437
:100CC00020E191E061FD94E060FD990F62FD929555
:100CD000687F269FD0011124A80FA65BBD4F8C9181
:100CE00040FF03C0892B8C93089590958923FBCFF7
:100CF0002F923F924F925F926F927F928F929F922C
:100D0000AF92BF92CF92DF92EF92FF920F931F9319
:100D1000CF93DF93EC018B017A016901C61AD70AE0
:100D2000D7FE03C0D194C194D10847018C1A9D0A03
:100D300097FE03C09194819491088C149D0454F4FF
:100D40009E2D8F2D7901292F382F9C2F8D2FE80173
:100D5000092F182FEC16FD0654F4902F812F8901CE
:100D6000292F382F9C2F8D2FE701E92EF82E170100
:100D70002C1A3D0A2901401A510A57FE03C051940A
:100D800041945108310137FE03C08FEF681A780A89
:100D9000759467948FEF021713070CF481E0A82E67
:100DA000880FBB08EC16FD06A4F041E0BE01C801A7
:100DB0008C149D0414F0B801CE010E945A066418E8
:100DC000750877FE04C00A0D1B1D620C731C21966A
:100DD000E9CFDF91CF911F910F91FF90EF90DF90BE
:100DE000CF90BF90AF909F908F907F906F905F90CB
:100DF0004F903F902F900895EF92FF920F931F9383
:100E0000CF93DF937C018B01040F111DEB0177FF62
:100E100002C0D0E0C0E0C8010134110514F080E444
:100E200090E0C817D9073CF441E0BE01C7010E9419
:100E30005A062196F0CFDF91CF911F910F91FF902D
:100E4000EF9008952F923F924F925F926F927F9210
:100E50008F929F92AF92BF92CF92DF92EF92FF92CA
:100E60000F931F93CF93DF9300D01F92CDB7DEB7C0
:100E70005C011B01242F30E03B832A8301E010E05A
:100E8000021B130B2901519441945108440C551C29
:100E9000F12CE12CCC24C394D12C8A819B81E816BF
:100EA000F906F4F517FD08C001979B838A8392E049
:100EB000490E511C040D151D2FEFE21AF20A32E003
:100EC000C30ED11C0C0D1D1D8A81880F8F5F898375
:100ED000482F31018A819B81681A790AB301C501C3
:100EE0008E0D9F1D0E94FC0641018E189F084C2DFF
:100EF000B4018A819B818A0D9B1D0E94FC06498159
:100F0000B301C5018E199F090E94FC064C2DB40146
:100F1000C5012A813B81821B930B0E94FC06BDCF39
:100F20000F900F900F90DF91CF911F910F91FF9035
:100F3000EF90DF90CF90BF90AF909F908F907F9079
:100F40006F905F904F903F902F9008958F929F9257
:100F5000AF92BF92CF92DF92EF92FF920F931F93C7
:100F6000CF93DF936D3089F0C0907C01D0907D01EC
:100F70006A30D1F410927B0110927A0188E0C80E99
:100F8000D11CD0927D01C0927C0181E090E0DF9184
:100F9000CF911F910F91FF90EF90DF90CF90BF9076
:100FA000AF909F908F90089500917A0110917B01EE
:100FB000E5E06E9FE0011124C850DF4F4801F12C9D
:100FC000F5E0E12CFF1629F0CE010196FE01E49038
:100FD000EC01B12CA12C4E2D4170B6016A0D7B1D88
:100FE000C4010E945A06E694FFEFAF1ABF0A88E0D8
:100FF000A816B10481F7F394EFEF8E1A9E0AF6E07B
:10100000FF12DECF0A5F1F4F10937B0100937A011E
:10101000BCCF089590E080E008950C949E181F9234
:101020000F920FB60F9211242F933F938F939F939C
:10103000AF93BF938091340290913502A091360214
:10104000B09137023091330223E0230F2D3758F54A
:101050000196A11DB11D2093330280933402909319
:101060003502A0933602B0933702809138029091F6
:101070003902A0913A02B0913B020196A11DB11D27
:101080008093380290933902A0933A02B0933B02C6
:10109000BF91AF919F918F913F912F910F900FBE74
:1010A0000F901F90189526E8230F0296A11DB11DE1
:1010B000D2CF1F920F920FB60F9211248F939F934E
:1010C0008091E1009091E100937F9093E10083FF94
:1010D0000FC01092E90091E09093EB001092EC00A9
:1010E00092E39093ED001092490298E09093F00003
:1010F00082FF22C093E09093E9009091F20099233F
:1011000019F09AE39093E80090914101992341F0FE
:1011100090914101915090934101911101C05D9ACC
:1011200090914802992341F09091480291509093F8
:101130004802911101C0289A84FF18C08091E200F2
:101140008E7E81608093E2008091E1008F7E8093AB
:10115000E100809142018E7E8061809342019F91E7
:101160008F910F900FBE0F901F90189580FFF7CFB3
:101170008091E2008E7E80618093E2008091E100A8
:101180008E7E8093E100809142018E7E8160E5CF6A
:101190001F920F920FB60F921124CF92DF92EF920F
:1011A000FF920F931F932F933F934F935F936F93F0
:1011B0007F938F939F93AF93BF93EF93FF93CF93BF
:1011C000DF93CDB7DEB76C97DEBFCDBF1092E900DD
:1011D0008091E80083FF25C068E0CE0145960E941B
:1011E000FD0482EF8093E8008D8987FF39C09091DC
:1011F000E80090FFFCCF982F907609F034C19E89CB
:101200004F89588D2F89F88C911131C0803861F544
:10121000809143018093F1001092F1008EEF809352
:10122000E8006C960FB6F894DEBF0FBECDBFDF911D
:10123000CF91FF91EF91BF91AF919F918F917F914E
:101240006F915F914F913F912F911F910F91FF905F
:10125000EF90DF90CF900F900FBE0F901F901895DA
:101260009EEF9093E800C7CF1092F100D5CF913058
:1012700059F48111D3CF4130510581F6809143015A
:101280008D7F80934301CACF933049F48111C6CF3B
:101290004130510519F6809143018260F2CF9530BB
:1012A00041F48091E80080FFFCCF20682093E300A8
:1012B000B5CF963009F0A9C00B8D1C8D22E010929D
:1012C000E90010923F0110923E01F2122EC01092DE
:1012D0003D0110923C010E94CC041F8299E0998349
:1012E000FA8291E09E8390EA98879AEF99872091FD
:1012F0003E0130913F01275F3F4F3C832B838D831D
:101300001092E90010923F0110923E0110933D01AE
:1013100000933C0149E050E0BE016F5F7F4F80E0E9
:101320000E94A6040E94CC0479CF10933D01009343
:101330003C010E940C04DC0112960D911C910115D8
:10134000110509F451C1D801ED91FC910480F5819A
:10135000E02DBE016B5E7F4FC8010995009709F033
:101360003EC1F80100851185EACFF3E0FF120EC0FF
:101370008F89882309F440C0823061F440E867E037
:101380008CE596E00E94FA0A811148CF81E28093B1
:10139000EB0047CF813029F440E86BE080E596E030
:1013A000F1CF833099F70E940C04DC011296ED9086
:1013B000FC908E010F5F1F4F6801E114F10479F07A
:1013C000D701ED91FC910680F781E02DB801C701AE
:1013D0000995080F111DF701E084F184EECFD801C3
:1013E0001C92F60101900020E9F73197BF016C19BA
:1013F0007D0940E0C601C6CF6AE376E0FB01449177
:1014000050E080E80E94A60409CF973009F4BECFCF
:10141000983021F481E08093F10000CF993009F0F9
:10142000FDCE837009F0B2CFE8E1F1E081E031E078
:1014300096E32191222371F08093E9003093EB0031
:10144000DF0111972C912093EC009093ED008F5FBA
:10145000873079F78EE78093EA001092EA008F894F
:1014600080934902DBCE8B8D9C8D1092E900109207
:101470003F0110923E0190933D0180933C01898D84
:10148000811192C08E899D89913A49F4813209F087
:101490007DCF47E050E064E071E080E0B3CF91326F
:1014A00009F074CF833269F48F89988DB0E0A0E0A1
:1014B0008093000190930101A0930201B093030176
:1014C000ADCE803269F48091E80082FFFCCF67E006
:1014D00084E091E00E94FD048BEF8093E8009ECEB3
:1014E000823209F09BCE8F8980930B01EEEFFFE7EC
:1014F000859194918B3F9C4D51F1E0E0F8E0809113
:10150000040190910501A0910601B0910701803B73
:101510009440A105B105F1F480910B0180FD1AC042
:10152000EE3F8AE0F80789F587E797E791838083A4
:10153000809160008093400188E19BE00FB6F894B1
:10154000A895809360000FBE9093600067CEEEEF89
:10155000FAE0D5CF808191818737974709F05ECE39
:10156000A89580916000886180936000809140011F
:1015700080936000EE3F2AE0F20789F08091FE0A36
:101580009091FF0A9183808349CE80819181873732
:10159000980751F29093FF0A8093FE0AC5CF1092EC
:1015A000FF0A1092FE0A3ACE0E940C04DC01129649
:1015B0000D911C910115110509F4E8CED801ED91AA
:1015C000FC910190F081E02DBE016B5E7F4FC80160
:1015D0000995811123CEF80100851185EBCF1816EE
:1015E00019060CF41BCED2CEF1E0FF12BECE6EE394
:1015F00076E004CFEF92FF920F931F93CF93DF9388
:10160000F82E192FE62E042F81E0860F880F0E94F6
:10161000780483E00E947804CF2DD12FEC0EFD2EAC
:10162000F11CCE15DF05B9F007FF13C0FE01849150
:101630000E947804182F80E00E947804812321966C
:101640008111EFCFDF91CF911F910F91FF90EF901C
:1016500008958881EDCF81E0F5CFEAE4F6E01382CA
:10166000128288EE93E0A0E0B0E084839583A683A5
:10167000B78382E291E0918380838FEF9FEF95871C
:101680008487EAE9F6E01382128284E391E0918391
:1016900080830895CF93DF93CDB7DEB7C854D109C7
:1016A0000FB6F894DEBF0FBECDBF789484B58260CC
:1016B00084BD84B5816084BD85B5826085BD85B5F6
:1016C000816085BD80916E00816080936E00109274
:1016D00081008091810082608093810080918100EF
:1016E0008160809381008091800081608093800080
:1016F000809191008260809391008091910081603F
:1017000080939100809190008160809390008091FF
:10171000C10084608093C1008091C1008260809389
:10172000C1008091C10081608093C1008091C3009D
:1017300081608093C3008091C00082608093C0006C
:101740008091C20081608093C20080917A008460A1
:1017500080937A0080917A00826080937A008091F1
:101760007A00816080937A0080917A00806880930B
:101770007A00109249021092430110924201809126
:10178000D70081608093D70080EA8093D80089B524
:10179000806189BD89B5826089BD09B400FEFDCF35
:1017A00061E070E080E090E00E9445048091D80004
:1017B0008F7C80618093D8008091E000807F80934F
:1017C000E0008091E1008E7E8093E1008DE08093C7
:1017D000E200559A209A8FEF9FEF909357068093DF
:1017E000560660ED77E080E090E00E94450481ECD1
:1017F00080937C0085B1806F85B984B1877E84B980
:1018000084B1876E84B95E9A5F988AB1806D8AB917
:10181000769A6E9881B3806F81BB899880B38D7002
:1018200080BB80E58CBD81E08DBD85E090E00E94AD
:101830003F065F9A85E090E00E943F065E985C98C4
:10184000E4E1F7E084918EBD00000DB407FEFDCF0A
:10185000319627E0E132F207A9F75C9A81E880939C
:101860006400809165008160809365000E94570646
:1018700080E80E944C068823A9F05C9885EA8EBD1A
:1018800000000DB407FEFDCF5C9A2E982F982D987E
:101890008091640080628093640081E083BF8895BA
:1018A00013BEFCCF84E00E944C06882309F448C094
:1018B0002D9884E80E944C068823E1F00E943D06A2
:1018C00088EC90E00E943F062F9882E090E00E9412
:1018D0009E188F3F29F06FEF82E090E00E94A618DB
:1018E00084EF91E00E943F062F9A84E80E944C0604
:1018F0008111FBCF84E10E944C068823E1F00E9415
:101900003D0688EC90E00E943F062E9882E090E031
:101910000E949E18882329F060E082E090E00E94F7
:10192000A61884EF91E00E943F062E9A84E10E945F
:101930004C068111FBCF88EC90E00E943F06B2CFAD
:101940000E943D0682E090E00E940D08882309F481
:101950001BC13E9A3F9A81E090E00E940D08382F0B
:101960003470732E81FF12C031112E9811EF212E89
:1019700033243A9408E010E080E40E944C06882367
:1019800009F405C12E9A2F9A0E943D0682E390E049
:101990000E943F060E9444068111F8CF88E08093A0
:1019A0000C01E1E2F7E0E49190917B008E2F880F2B
:1019B000880F80729F7D892B80937B00E770E064A5
:1019C000E0937C0080917A00806480937A0080911B
:1019D0007A0086FDFCCF6091780070917900072E27
:1019E000000C880B990B611571058105910511F0AB
:1019F0000E9495188EE090E0909381018093800181
:101A000080E790E00E94961C89839D838C011E864E
:101A10001D86312C212CE1E14E2EE7E25E2E612C59
:101A2000712C8091800190918101281639060CF06B
:101A300089C10E9446182BE030E040E050E00E944F
:101A4000B4186550710981099109ED85FE856E0F05
:101A50007F1F77FF6FC168597E4F072E000C880BE0
:101A6000990B0E94AA1A25E33AEF4EE85CE30E9424
:101A7000CD1B4B015C010E944618A30192010E94FC
:101A8000B4180E94AA1A20E030E44CE156E40E9407
:101A9000001A20E030E044EB52E40E94CD1B20E02D
:101AA00030E044EB52E40E9418196B017C01C5013F
:101AB000B4010E94FB19A70196010E94CD1B698702
:101AC0007A878B879C87C501B4010E943A1CA701C5
:101AD00096010E94CD1B6B017C010E944618A30158
:101AE00092010E94B4180E94AA1A20E030E44CE14E
:101AF00056E40E94001A20E030E040E850E40E94E2
:101B0000CD1B20E030E040E050E40E941719298509
:101B10003A854B855C850E9418194B015C010E9437
:101B20004618D8018D929D92AD92BC921397A30155
:101B300092010E94B4180E94AA1A20E030E44CE1FD
:101B400056E40E94001A20E030E040E850E40E9491
:101B5000CD1B20E030E040E050E40E941719A701BF
:101B600096010E941819F801648375838683978310
:101B7000FFEF2F1A3F0A085F1F4F2D853E85275E16
:101B80003F4F3E872D874DCF3E983F98E4CE77203C
:101B900031F044E02416310411F42E9A2F9881E09C
:101BA0000E94C203910137FE04C022273327221965
:101BB000330927703327C10137FC0796B3E09595A9
:101BC0008795BA95E1F737FE05C00197D801A21BAA
:101BD000B30B9D01BC017695762F662777956795A7
:101BE000F12CE12C2801421A530A8E3FBFEF9B07CC
:101BF00009F447C0E8E5EE9D5001EF9DB00C1124BB
:101C0000DB01A65BBD4F50E040E0F501EC59F94F18
:101C10005F01FB01E653FD4F4F018F3F980781F0B5
:101C2000F501E40FF51FE491022E01C0EE0F0A94B6
:101C3000EAF75496FC915497EF2B5496EC935497F3
:101C400021153105C1F0F501E40FF51F6490640121
:101C5000C40ED51EE62DF0E0042C02C0F595E795E4
:101C60000A94E2F7FE83ED83F601F489F9876D802B
:101C70006F2AF601648A4F5F5F4F11964835510510
:101C800061F6019660587F4FEA94EF2809F04EC044
:101C90000E9457068FE090E00E943F062FEF221A25
:101CA000320A39E12316310409F066CE772011F0AB
:101CB0002F9A2D9880E991E00E943F060E943D06F0
:101CC00081E090E00E940D0880FF60CE8AE090E005
:101CD0000E940D089FEF980F9E3F08F057CE22E319
:101CE00030E030937B0120937A0128E330E0309399
:101CF0007D0120937C014BE050E05A834983682F9B
:101D00008AE996E00E94A60789819A810E940D08BF
:101D1000A981BA811196BA83A983519781F70E944C
:101D2000570688EE93E00E943F0630CEEE24E394FF
:101D3000F12C5BCF6836F1E07F070CF48ECE68564D
:101D400071408BCE6980609282016D8060928301C8
:101D5000109285011092840175E0272E312CC090DD
:101D60008001D09081010D2C000CEE08FF0860E08E
:101D700070E0CB011C141D041E041F0434F40E94E7
:101D80004618A70196010E94B41820918201309153
:101D900083013A872987FB0153E0EE0FFF1F5A9515
:101DA000E1F7E20FF31F20813181428153812D83BE
:101DB0003E834F835887248135814681578129830B
:101DC0003A834B835C83CB01019620918001309153
:101DD0008101B9010E94681C63E0880F991F6A9510
:101DE000E1F749855A85480F591F5A8749872D8140
:101DF0003E814F815885A985BA856D917D918D91E0
:101E00009C910E9417192B013C0129813A814B8139
:101E10005C81E985FA8564817581868197810E945C
:101E200017196B017C01A30192010E949719698720
:101E30007A878B879C870E94461820E137E240E032
:101E400050E00E94B4180E94AA1A20E030E44CE14D
:101E500056E40E94001A4B015C010091840110912C
:101E600085014CE0409F9001419F300D11242A577D
:101E70003E4F3E872D87AC019B01C301B2010E94FA
:101E8000CD1B2D813E814F8158850E94181920E07D
:101E900030E040E853E40E941819AD85BE856D938B
:101EA0007D938D939C931397A5019401C701B6016F
:101EB0000E94CD1B29813A814B815C810E941819B7
:101EC00020E030E040E853E40E941819ED85FE85DB
:101ED00064837583868397832BED3FE049EC5FE352
:101EE00069857A858B859C850E941819AD85BE858C
:101EF00018966D937D938D939C931B970F5F1F4F47
:101F00001093850100938401B1E02B1A310809F088
:101F100026CFE8E4F1E0FE8BED8BC12C32E0D32E2E
:101F2000E12CF12C42E0842E912CA12CB12C0E94AA
:101F30004618A70196010E94B4180E94AA1AAD89FA
:101F4000BE896D937D938D939C9313970E94461841
:101F5000A70196010E94B4180E94AA1AED89FE8971
:101F600064837583868397830E944618A501940134
:101F70000E94B418AD89BE8919967C936E93189708
:101F80001A96BE8BAD8BAA57B14089F680E090E0DF
:101F9000A0E8B3E48093230290932402A093250247
:101FA000B093260280931F0290932002A0932102F7
:101FB000B093220210922F0210923002109231023E
:101FC0001092320210922B0210922C0210922D02CB
:101FD00010922E02109227021092280210922902CB
:101FE00010922A021092C2011092D3011092E401C1
:101FF0001092F501109206028FB7F89440913402C6
:102000005091350260913602709137028FBF109166
:102010004601112349F01092460180E090E0892B9F
:1020200059F30E940000E8CF80914701F42FF81B7C
:102030008F2F90910C01F91748F48F5F891768F77B
:102040006624639463BE889513BEE7CF21E0209396
:1020500046014093470180914401909145010196CA
:10206000909345018093440160907F01698660925E
:102070007E010E9444068D8380937F01EAE4F2E0B2
:1020800011111FEF002411931193119311930394D5
:10209000D1F710927D0110927C0110927B01109279
:1020A0007A0180E20E944C068823B1F02DEC3CECD2
:1020B0004CE45DE360912F02709130028091310217
:1020C000909132020E94171960932F027093300290
:1020D000809331029093320280E40E944C06882360
:1020E000B1F02DEC3CEC4CE45DE360912F0270917B
:1020F000300280913102909132020E94181960934F
:102100002F0270933002809331029093320288E064
:102110000E944C0620912F023091300240913102F2
:10212000509132022F8B388F498F5A8F882309F4B0
:1021300046C08090270290902802A0902902B0907B
:102140002A022BED3FE049EC5FE36F89788D898DA2
:102150009A8D0E9417196B017C010E94FB192DECCE
:102160003CEC4CEC5DE30E94CD1B9B01AC0160910B
:102170002B0270912C0280912D0290912E020E94D0
:10218000181960932B0270932C0280932D02909368
:102190002E02C701B6010E943A1C2DEC3CEC4CEC1F
:1021A0005DE30E94CD1BA50194010E941819609364
:1021B0002702709328028093290290932A0240906C
:1021C0002B0250902C0260902D0270902E022091D4
:1021D0002302309124024091250250912602C3012E
:1021E000B2010E9418194B015C0180922302909267
:1021F0002402A0922502B09226028091270290919B
:102200002802A0912902B0912A0289839A83AB8384
:10221000BC8320911F0230912002409121025091F5
:102220002202BC01CD010E9418196B017C01C092F1
:102230001F02D0922002E0922102F092220224EAB0
:1022400030E74DE75FE3C301B2010E94CD1B60930D
:102250002B0270932C0280932D0290932E0224EA7D
:1022600030E74DE75FE369817A818B819C810E9431
:10227000CD1B6093270270932802809329029093CC
:102280002A0220E030E0A901C501B4010E94F6193C
:1022900087FF08C010922302109224021092250298
:1022A0001092260220E030E040E054E460912302E6
:1022B0007091240280912502909126020E94C01BF9
:1022C000181664F480E090E0A0E0B4E48093230268
:1022D00090932402A0932502B093260220E030E0E0
:1022E000A901C701B6010E94F61987FF08C0109224
:1022F0001F0210922002109221021092220220E06E
:1023000030E040E054E460911F027091200280911F
:102310002102909122020E94C01B181664F480E0F2
:1023200090E0A0E0B4E480931F0290932002A09379
:102330002102B09322022091230230912402409185
:102340002502509126022FA338A749A75AA720E0BB
:1023500030E040E852E46FA178A589A59AA50E94D3
:1023600017194B015C0180921B0290921C02A092F3
:102370001D02B0921E0280911F0290912002A09136
:102380002102B09122028BA79CA7ADA7BEA720E097
:1023900030E040E052E4BC01CD010E9417196B010E
:1023A0007C01C0921702D0921802E0921902F092BA
:1023B0001A0220E030E0A901C501B4010E94F6191B
:1023C00087FF08C010921B0210921C0210921D027F
:1023D00010921E0220E030E040EC53E460911B02BA
:1023E00070911C0280911D0290911E020E94C01BE0
:1023F000181664F480E090E0A0ECB3E480931B0234
:1024000090931C02A0931D02B0931E0220E030E0C6
:10241000A901C701B6010E94F61987FF08C01092F2
:102420001702109218021092190210921A0220E05C
:1024300030E040EE53E460911702709118028091F1
:10244000190290911A020E94C01B181664F480E0D1
:1024500090E0A0EEB3E48093170290931802A0934B
:102460001902B0931A02698462FC4BC06D8062FE4F
:1024700048C0E2ECF1E090E080E020812111C9C188
:1024800041E1489F9001499F300D11242E533E4F4A
:102490003A832983E1E0D901EC932FA138A549A51E
:1024A0005AA511962D933D934D935C9314972BA5AC
:1024B0003CA54DA55EA515962D933D934D935C933C
:1024C00018972BED3FE049EC5FE36F89788D898D9C
:1024D0009A8D0E9417196B017C010E94FB19E981FA
:1024E000FA816187728783879487C701B6010E944A
:1024F0003A1CA981BA811D966D937D938D939C930F
:102500005097E2ECF1E0FA8BE98B8F01D8018C91C6
:10251000882309F450C019962D913D914D915C91FD
:102520001C9711966D917D918D919C9114970E94AD
:1025300018194B015C01F80181829282A382B48256
:102540002585368547855089658176818781908587
:102550000E9418196B017C01D8011596CD92DD926D
:10256000ED92FC92189720E030E0A901C501B4017A
:102570000E94F61987FD1DC020E030E040E054E4E1
:10258000C501B4010E94C01B18169CF020E030E089
:10259000A901C701B6010E94F61987FD0AC020E013
:1025A00030E040E054E4C701B6010E94C01B181699
:1025B00014F4F80110820F5E1F4FF2E007311F077D
:1025C00009F0A4CF22EC31E03A832983A981BA81B2
:1025D0008C91882309F454C019962D913D914D9109
:1025E0005C911C9711966D917D918D919C911497A2
:1025F0000E9418194B015C01E981FA818182928263
:10260000A382B48225853685478550896581768188
:10261000878190850E9418196B017C01A981BA817C
:102620001596CD92DD92ED92FC92189720E030E065
:10263000A901C501B4010E94F61987FD1EC020E062
:1026400030E040E054E4C501B4010E94C01B1816FC
:10265000A4F020E030E0A901C701B6010E94F619FC
:1026600087FD0BC020E030E040E054E4C701B60134
:102670000E94C01B18160CF0D3C0E981FA811082A9
:1026800089819A8141969A8389830817190709F0ED
:102690009DCF08E411E020911B0230911C02409173
:1026A0001D0250911E022D833E834F83588720E0E8
:1026B00030E040E05FE36D817E818F8198850E94EC
:1026C000CD1B9B01AC01D8016D917D918D919C91A9
:1026D0000E9417190E94721A6B0120911702309103
:1026E00018024091190250911A0229873A874B87A4
:1026F0005C876038710588F520E030E040E05FE3FA
:1027000069857A858B859C850E94CD1B9B01AC01D8
:10271000D80114966D917D918D919C9117970E948F
:1027200017190E94721A4B0160347105B0F4F80158
:102730000084F185E02DFE87ED874E2F440F4F5F1B
:10274000CF019927B401681B790BC6010E94FC06D2
:102750004D85B401C6010E942207065F1F4F2D89D7
:102760003E892017310709F096CF409082015090A2
:1027700083014114510409F45EC15E864D865C8E6E
:102780004B8E10E000E02090800130908101021516
:1027900013050CF0B5C020E030E040E853E4AB8D09
:1027A000BC8D6D917D918D919C910E9418192D8108
:1027B0003E814F8158850E9417190E94721A6B0141
:1027C00020E030E040E853E4EB8DFC8D64817581BE
:1027D000868197810E94181929853A854B855C85E9
:1027E0000E9417190E94721A4B016150710943E04F
:1027F000C6010E94FC0641E0B401C6010E94220706
:102800000F5F1F4F2B8D3C8D285F3F4F3C8F2B8FD1
:10281000BACF019671968530910509F02ECE71CE12
:1028200026E831E03A872987312C212CA985BA8501
:102830002D913D914D915C91C501B4010E941719F4
:102840002B013C01E985FA85248135814681578138
:10285000C701B6010E9417196D837E838F83988705
:10286000A3019201C301B2010E94CD1B2B013C01C7
:102870002D813E814F815885CA01B9010E94CD1B2F
:102880009B01AC01C301B2010E94181920E030E0A5
:1028900040EB51E40E94F61987FF23C0A981BA8159
:1028A0001C928091840190918501019790938501FC
:1028B00080938401ECE0E29DD001E39DB00D1124F2
:1028C000AA57BE4F2CE0622E689EF001699EF00D63
:1028D0001124EA57FE4F8CE001900D928A95E1F7A2
:1028E000CFCE2FEF221A320A49855A85445F5F4FB7
:1028F0005A87498755E02516310409F097CFC0CE95
:10290000121413040CF097C020E030E040E853E4C8
:10291000D2016D917D918D919C910E9418192D810C
:102920003E814F8158850E9417190E94721A3B01FF
:1029300020E030E040E853E4F20164817581868153
:1029400097810E94181929853A854B855C850E94DC
:1029500017190E94721A7C8F6B8F01E010E02D8591
:102960003E85285F3F4F3E872D8720E030E040E8DE
:1029700053E42016310699F1AD85BE856D917D91A8
:102980008D919C910E9418192D813E814F8158850F
:102990000E9417190E94721A6B0120E030E040E893
:1029A00053E4ED85FE8564817581868197810E945F
:1029B000181929853A854B855C850E9417190E9454
:1029C000721A4B019B01A6016B8D7C8DC3010E9485
:1029D00078060F5F1F4F9C8E8B8E3601C0CFD201C1
:1029E00014966D917D918D919C9117970E94181965
:1029F00029853A854B855C850E9417190E94721AB9
:102A00006B0120E030E040E853E4F2016081718125
:102A1000828193810E9418192D813E814F815885B2
:102A20000E9417190E94721A9601AB016B8D7C8D62
:102A3000C3010E94780626E831E029963FAF2EAF09
:102A4000299710E000E0809184019091850108179A
:102A500019070CF09AC12BED3FE049EC5FE3299692
:102A6000AEADBFAD299718966D917D918D919C91DA
:102A70001B970E9417194B015C010E94FB196B0107
:102A80007C01C501B4010E943A1C4B015C0120E0AD
:102A900030E040E850E40E94CD1B6FA778AB89ABD3
:102AA0009AAB20E030E040E850ECC701B6010E944C
:102AB000CD1B6F8F78A389A39AA32D813E814F816F
:102AC00058852996EEADFFAD29976081718182818D
:102AD00093810E9417192B013C0120E030E0A901ED
:102AE000C701B6010E94CD1B2FA538A949A95AA933
:102AF0000E9418199B01AC01C301B2010E94181970
:102B00006D877E878F87988B29853A854B855C8575
:102B10002996AEADBFAD299714966D917D918D919B
:102B20009C9117970E9417192B013C0120E030E07F
:102B3000A901C501B4010E94CD1B2F8D38A149A167
:102B40005AA10E9418199B01AC01C301B2010E9455
:102B500018196B8F7C8F8D8F9E8F20E030E040E0C6
:102B600050ECC701B6010E94CD1B6BAB7CAB8DABAB
:102B70009EAB20E030E040E850ECC501B4010E947B
:102B8000CD1B6BA37CA38DA39EA320E030E040E08F
:102B900050ECC501B4010E94CD1B6FAB78AF89AF7B
:102BA0009AAFA7019601C701B6010E9418192B011F
:102BB0003C01A5019401C501B4010E9418194B0103
:102BC0005C0120E030E040E850E4C701B6010E941B
:102BD000CD1B6B017C012BA13CA14DA15EA16BA97A
:102BE0007CA98DA99EA90E9417192D853E854F8528
:102BF00058890E9418190E94721A6BAF7CAF8DAF72
:102C00009EAF2FA938AD49AD5AAD6F8D78A189A17E
:102C10009AA10E9418192B8D3C8D4D8D5E8D0E94BE
:102C200018190E94721A23966CAF7DAF8EAF9FAFBA
:102C300023972BA13CA14DA15EA1C301B2010E942B
:102C400017192D853E854F8558890E9418190E94B5
:102C5000721A6BA37CA38DA39EA3A50194016F8D13
:102C600078A189A19AA10E9418192B8D3C8D4D8DB8
:102C70005E8D0E9418190E94721A6F8F78A389A323
:102C80009AA32FA538A949A95AA9C301B2010E9444
:102C900017192D853E854F8558890E9418190E9465
:102CA000721A27966CAF7DAF8EAF9FAF2797A701A3
:102CB0009601C501B4010E9418192B8D3C8D4D8DD4
:102CC0005E8D0E9418190E94721A2B012FA538A937
:102CD00049A95AA96BA97CA98DA99EA90E94171977
:102CE0002D853E854F8558890E9418190E94721AB9
:102CF0006D877E878F87988BA70196016FA978AD26
:102D000089AD9AAD0E9418192B8D3C8D4D8D5E8D2D
:102D10000E9418190E94721A4B012F8D38A14BA1E5
:102D20005CA121966EAD7FAD21978BAD9CAD0E94CD
:102D30007806920125964EAD5FAD25976F8D78A1EF
:102D40008BA19CA10E94780694014D855E85B201FD
:102D500025968EAD9FAD25970E94780621962EADC3
:102D60003FAD21974BAD5CADB4018D859E850E9432
:102D700078060F5F1F4F2996EEADFFAD29973C9661
:102D80002996FFAFEEAF29975ECEA989BA898C91BB
:102D9000882311F129853A854B855C8515966D91BF
:102DA0007D918D919C9118970E9417190E94721A1B
:102DB0006B012D813E814F815885E989FA896181B6
:102DC0007281838194810E9417190E94721ACB012B
:102DD00041E0B6010E945A0629893A892F5E3F4F89
:102DE0003A8B298B49815A814217530771F62D81FD
:102DF0003E814F8158856FA178A589A59AA50E942B
:102E0000171969837A838B839C8329853A854B853F
:102E10005C856BA57CA58DA59EA50E9417196D8369
:102E20007E838F8398876F89788D898D9A8D0E9494
:102E3000FB194B015C016F89788D898D9A8D0E94F9
:102E40003A1C6B017C0120E030E040E850E40E9435
:102E5000CD1B69877A878B879C8720E030E040E82C
:102E600050E4C501B4010E94CD1B698B7A8B8B8B1A
:102E70009C8B20E030E0A901C501B4010E94CD1B6C
:102E80002B013C0120E030E040E850ECC701B601E6
:102E90000E94CD1B9B01AC01C301B2010E94171916
:102EA00029813A814B815C810E9418190E94721A13
:102EB0006F8B788F898F9A8F20E030E0A901C7014E
:102EC000B6010E94CD1B2B013C0120E030E040E820
:102ED00050ECC501B4010E94CD1B9B01AC01C301A4
:102EE000B2010E9418192D813E814F8158850E94A0
:102EF00018190E94721A6D877E878F87988B20E041
:102F000030E040E450ECC501B4010E94CD1B29859E
:102F10003A854B855C850E94171929813A814B813E
:102F20005C810E9418190E94721A6B8F7C8F8D8FA2
:102F30009E8F20E030E040E450ECC701B6010E94D3
:102F4000CD1B29893A894B895C890E9418192D81EA
:102F50003E814F8158850E9418190E94721A2B01D8
:102F600020E030E040E450E4C501B4010E94CD1BF4
:102F700029853A854B855C850E94171929813A81FC
:102F80004B815C810E9418190E94721A4B0120E04B
:102F900030E040E450E4C701B6010E94CD1B29890E
:102FA0003A894B895C890E9418192D813E814F8195
:102FB00058850E9418190E94721A6B0192014B8D5C
:102FC0005C8D6D857E858F89988D0E94780696012F
:102FD000A401B2018B8D9C8D0E9478062D853E85C3
:102FE0004F89588DB601C4010E9478060E94570689
:102FF0000C940D108F929F92AF92BF92CF92DF925E
:10300000EF92FF92CF93DF93EC01688179818A81FF
:103010009B81611571058105910521F464E279EDCB
:103020008BE597E02DE133EF41E050E00E94B418CA
:1030300049015A019B01AC01A7EAB1E40E94D318EF
:103040006B017C01ACEEB4EFA50194010E94E11884
:10305000C60ED71EE81EF91EF7FE06C081E0C81A8C
:10306000D108E10880E8F80AC882D982EA82FB82A6
:10307000C701B6019F77DF91CF91FF90EF90DF906E
:10308000CF90BF90AF909F908F9008958F929F9216
:10309000AF92BF92CF92DF92EF92FF9260910D01BB
:1030A00070910E0180910F019091100161157105D1
:1030B0008105910521F464E279ED8BE597E02DE13E
:1030C00033EF41E050E00E94B41849015A019B01DE
:1030D000AC01A7EAB1E40E94D3186B017C01ACEE0D
:1030E000B4EFA50194010E94E118C60ED71EE81E98
:1030F000F91EF7FE06C081E0C81AD108E10880E891
:10310000F80AC0920D01D0920E01E0920F01F092E8
:103110001001C701B6019F77FF90EF90DF90CF902D
:10312000BF90AF909F908F90089560930D01709322
:103130000E0180930F01909310010895F999FECF2D
:1031400092BD81BDF89A992780B50895262FF999E7
:10315000FECF1FBA92BD81BD20BD0FB6F894FA9A7A
:10316000F99A0FBE01960895052E97FB1EF4009460
:103170000E94CB1857FD07D00E94E61807FC03D029
:103180004EF40C94CB1850954095309521953F4FB7
:103190004F4F5F4F089590958095709561957F4F43
:1031A0008F4F9F4F08950E940819A59F900DB49FBF
:1031B000900DA49F800D911D11240895B7FF0C94CC
:1031C000D3180E94D318821B930B0895A1E21A2EE4
:1031D000AA1BBB1BFD010DC0AA1FBB1FEE1FFF1FBB
:1031E000A217B307E407F50720F0A21BB30BE40B0B
:1031F000F50B661F771F881F991F1A9469F7609552
:103200007095809590959B01AC01BD01CF0108950B
:10321000A29FB001B39FC001A39F700D811D112417
:10322000911DB29F700D811D1124911D089550585C
:10323000BB27AA270E942F190C94721B0E94391BCE
:1032400038F00E94401B20F039F49F3F19F426F417
:103250000C940F1B0EF4E095E7FB0C94091BE92F6F
:103260000E94971B58F3BA176207730784079507E4
:1032700020F079F4A6F50C94B91B0EF4E0950B2E12
:10328000BA2FA02D0B01B90190010C01CA01A001B8
:103290001124FF27591B99F0593F50F4503E68F113
:1032A0001A16F040A22F232F342F4427585FF3CF54
:1032B000469537952795A795F0405395C9F77EF425
:1032C0001F16BA0B620B730B840BBAF09150A1F06E
:1032D000FF0FBB1F661F771F881FC2F70EC0BA0FF4
:1032E000621F731F841F48F4879577956795B7957C
:1032F000F7959E3F08F0B0CF9395880F08F0992777
:10330000EE0F9795879508950E94391B60F080E82D
:1033100091E009F49EEF0E94401B28F040E851E044
:1033200071F45EEF0CC00C940F1B0C94B91BE92FC9
:10333000E0780E94971B40F3092E052AB1F3261767
:1033400037074807590738F00E2E07F8E02569F0CF
:10335000E025E0640AC0EF6307F8009407FADB0198
:10336000B9019D01DC01CA01AD01EF930E94171A5A
:103370000E94721B0E94C7195F91552339F02BEDF3
:103380003FE049E450FD49EC0C9418190895DF938F
:10339000DD27B92FBF7740E85FE316161706480709
:1033A0005B0718F4D92F0E94C51B9F938F937F93BF
:1033B0006F930E94421CECEAF0E00E94121B0E94F4
:1033C000721B2F913F914F915F910E94E01BDD2373
:1033D00051F09058A2EA2AED3FE049EC5FE3D07843
:1033E0005D270E942F19DF910C94721B0E94E51A31
:1033F00008F481E008950E94491BE3950C94831B17
:103400000E94141A0C94721B0E94401B58F00E94D8
:10341000391B40F029F45F3F29F00C94091B51112E
:103420000C94BA1B0C940F1B0E94971B68F39923F2
:10343000B1F3552391F3951B550BBB27AA276217B0
:103440007307840738F09F5F5F4F220F331F441FBD
:10345000AA1FA9F335D00E2E3AF0E0E832D09150F1
:103460005040E695001CCAF72BD0FE2F29D0660FDE
:10347000771F881FBB1F261737074807AB07B0E821
:1034800009F0BB0B802DBF01FF2793585F4F3AF027
:103490009E3F510578F00C94091B0C94BA1B5F3FBA
:1034A000E4F3983ED4F3869577956795B795F795AD
:1034B0009F5FC9F7880F911D9695879597F9089595
:1034C000E1E0660F771F881FBB1F62177307840731
:1034D000BA0720F0621B730B840BBA0BEE1F88F740
:1034E000E09508950E94791A6894B1110C94BA1B62
:1034F00008950E949F1B88F09F5798F0B92F992735
:10350000B751B0F0E1F0660F771F881F991F1AF0CE
:10351000BA95C9F714C0B13091F00E94B91BB1E05F
:1035200008950C94B91B672F782F8827B85F39F05E
:10353000B93FCCF3869577956795B395D9F73EF467
:1035400090958095709561957F4F8F4F9F4F08950F
:10355000E89409C097FB3EF490958095709561952D
:103560007F4F8F4F9F4F9923A9F0F92F96E9BB27E3
:103570009395F695879577956795B795F111F8CF5F
:10358000FAF4BB0F11F460FF1BC06F5F7F4F8F4FCA
:103590009F4F16C0882311F096E911C0772321F0C0
:1035A0009EE8872F762F05C0662371F096E8862F58
:1035B00070E060E02AF09A95660F771F881FDAF7AF
:1035C000880F9695879597F90895990F0008550FDC
:1035D000AA0BE0E8FEEF16161706E807F907C0F099
:1035E00012161306E407F50798F0621B730B840BA1
:1035F000950B39F40A2661F0232B242B252B21F47B
:1036000008950A2609F4A140A6958FEF811D811D1A
:10361000089597F99F6780E870E060E008959FEF54
:1036200080EC0895DF93CF931F930F93FF92EF9257
:10363000DF927B018C01689406C0DA2EEF010E94B4
:10364000E01BFE01E894A591259135914591559196
:10365000A6F3EF010E942F19FE019701A801DA9449
:1036600069F7DF90EF90FF900F911F91CF91DF915D
:10367000089500240A9416161706180609060895D8
:1036800000240A94121613061406050608950C94D5
:103690000F1B0E949F1BD8F3E894E0E0BB279F57C5
:1036A000F0F02AED3FE049EC06C0EE0FBB0F661FBD
:1036B000771F881F28F0B23A62077307840728F043
:1036C000B25A620B730B840BE3959A9572F78038AC
:1036D00030F49A95BB0F661F771F881FD2F790486A
:1036E0000C94481C092E0394000C11F4882352F00A
:1036F000BB0F40F4BF2B11F460FF04C06F5F7F4F1E
:103700008F4F9F4F0895EF93E0FF07C0A2EA2AED85
:103710003FE049EC5FEB0E942F190E94721B0F9053
:10372000039401FC9058E9EDF0E00C94541C57FD13
:103730009058440F551F59F05F3F71F04795880F1F
:1037400097FB991F61F09F3F79F0879508951216B6
:1037500013061406551FF2CF4695F1DF08C0161662
:1037600017061806991FF1CF869571056105089413
:103770000895E894BB2766277727CB0197F908952A
:103780000E94E51A08F48FEF08959B01AC0160E0F8
:1037900070E080E89FE30C94001A0E94E01B0C94F8
:1037A000721B0E94391B38F00E94401B20F09523A9
:1037B00011F00C94091B0C940F1B11240C94BA1BD0
:1037C0000E94971B70F3959FC1F3950F50E0551F12
:1037D000629FF001729FBB27F00DB11D639FAA2766
:1037E000F00DB11DAA1F649F6627B00DA11D661FB5
:1037F000829F2227B00DA11D621F739FB00DA11DD6
:10380000621F839FA00D611D221F749F3327A00D8F
:10381000611D231F849F600D211D822F762F6A2F2B
:1038200011249F5750409AF0F1F088234AF0EE0F90
:10383000FF1FBB1F661F771F881F91505040A9F7BD
:103840009E3F510580F00C94091B0C94BA1B5F3FFE
:10385000E4F3983ED4F3869577956795B795F795F9
:10386000E7959F5FC1F7FE2B880F911D9695879571
:1038700097F908959F930E94491B0F9007FCEE5FF4
:103880000C94831B9B01AC010C94CD1B9F3F31F02A
:10389000915020F4879577956795B795880F911D7E
:1038A0009695879597F908959F938F937F936F933C
:1038B000FF93EF939B01AC010E94CD1BEF91FF9111
:1038C0000E94121B2F913F914F915F910C94CD1B41
:1038D00097FB072E16F4009407D077FD09D00E94BD
:1038E0007C1C07FC05D03EF4909581959F4F089570
:1038F000709561957F4F0895AA1BBB1B51E107C0CE
:10390000AA1FBB1FA617B70710F0A61BB70B881F6F
:10391000991F5A95A9F780959095BC01CD010895FE
:10392000EE0FFF1F0590F491E02D09940F931F9364
:10393000CF93DF938230910510F482E090E0E09124
:10394000A006F091A10630E020E0B0E0A0E03097C2
:1039500099F42115310509F44AC0281B390B24308C
:103960003105D8F58A819B816115710589F1FB01CB
:1039700093838283FE0111C04081518102811381B2
:1039800048175907E0F04817590799F4109761F064
:1039900012960C93129713961C933296CF01DF91D7
:1039A000CF911F910F9108950093A0061093A10647
:1039B000F4CF2115310551F04217530738F0A90112
:1039C000DB019A01BD01DF01F801C1CFEF01F9CFA1
:1039D0009093A1068093A006CDCFFE01E20FF31FC6
:1039E000819391932250310939832883D7CF209135
:1039F0009E0630919F06232B41F4209113013091B4
:103A0000140130939F0620939E062091110130915E
:103A100012012115310541F42DB73EB74091150132
:103A200050911601241B350BE0919E06F0919F06E4
:103A3000E217F307A0F42E1B3F0B2817390778F085
:103A4000AC014E5F5F4F2417350748F04E0F5F1FE4
:103A500050939F0640939E06819391939FCFF0E0F1
:103A6000E0E09CCFCF93DF930097E9F0FC01329721
:103A700013821282A091A006B091A106ED0130E060
:103A800020E01097A1F420813181820F931F2091B3
:103A90009E0630919F062817390709F061C0F09300
:103AA0009F06E0939E06DF91CF910895EA01CE171D
:103AB000DF07E8F54A815B819E0141155105B1F7A9
:103AC000E901FB83EA8349915991C40FD51FEC1793
:103AD000FD0761F4808191810296840F951FE901B1
:103AE00099838883828193819B838A83F0E0E0E0DD
:103AF00012968D919C9113970097B9F52D913C9159
:103B00001197CD010296820F931F20919E0630914E
:103B10009F062817390739F6309751F51092A106FC
:103B20001092A006B0939F06A0939E06BCCFD383AD
:103B3000C28340815181840F951FC817D90761F452
:103B40004E5F5F4F88819981480F591F5183408391
:103B50008A819B81938382832115310509F0B0CF3F
:103B6000F093A106E093A0069ECFFD01DC01C0CF3B
:0A3B700013821282D7CFF894FFCF22
:103B7A00FFFFFFFF00E1000000000000100100004D
:103B8A00000000A206800000C18081000000000041
:103B9A000000BC053705DD05D2052306E105FF0552
:0C3BAA0000000000A6070A050A08090830
:00000001FF
