:100000000C9498030C94C0030C94C0030C94C0038C
:100010000C94C0030C94C0030C94C0030C94C00354
:100020000C94C0030C94C0030C94D5070C944408A2
:100030000C94C0030C94C0030C94C0030C94C00334
:100040000C94C0030C94C0030C94C0030C94C00324
:100050000C94C0030C94C0030C94C0030C948B0745
:100060000C94C0030C94C0030C94C0030C94C00304
:100070000C94C0030C94C0030C94C0030C94C003F4
:100080000C94C0030C94C0030C94C0030C94C003E4
:100090000C94C0030C94C0030C94C0030C94C003D4
:1000A0000C94C0030C94C0030C94C003084AD73BC3
:1000B0003BCE016E84BCBFFDC12F3D6C74319ABD37
:1000C00056833DDA3D00C77F11BED9E4BB4C3E915B
:1000D0006BAAAABE000000803F05A84CCDB2D44E4A
:1000E000B93836A9020C50B9918688083CA6AAAA4C
:1000F0002ABE000000803F0000000000003E5B4F71
:100100005B3E3E6B4F6B3E1C3E7C3E1C183C7E3C77
:10011000181C577D571C1C5E7F5E1C00183C180085
:10012000FFE7C3E7FF0018241800FFE7DBE7FF3015
:10013000483A060E2629792926407F050507407F83
:1001400005253F5A3CE73C5A7F3E1C1C08081C1CF6
:100150003E7F14227F22145F5F005F5F06097F01EC
:100160007F006689956A606060606094A2FFA294D7
:1001700008047E040810207E201008082A1C0808A5
:100180001C2A08081E101010100C1E0C1E0C3038F3
:100190003E3830060E3E0E06000000000000005FF4
:1001A00000000007000700147F147F14242A7F2A10
:1001B00012231308646236495620500008070300D2
:1001C000001C2241000041221C002A1C7F1C2A081E
:1001D000083E080800807030000808080808000081
:1001E00060600020100804023E5149453E00427FF5
:1001F000400072494949462141494D331814127F44
:100200001027454545393C4A4949314121110907E3
:100210003649494936464949291E00001400000064
:100220004034000000081422411414141414004136
:1002300022140802015909063E415D594E7C1211F3
:10024000127C7F494949363E414141227F4141412B
:100250003E7F494949417F090909013E41415173A6
:100260007F0808087F00417F41002040413F017F17
:10027000081422417F404040407F021C027F7F04DF
:1002800008107F3E4141413E7F090909063E415128
:10029000215E7F09192946264949493203017F0118
:1002A000033F4040403F1F2040201F3F4038403F19
:1002B000631408146303047804036159494D43002F
:1002C0007F4141410204081020004141417F040266
:1002D00001020440404040400003070800205454FD
:1002E00078407F28444438384444442838444428DB
:1002F0007F385454541800087E090218A4A49C782E
:100300007F0804047800447D40002040403D007F89
:100310001028440000417F40007C047804787C0869
:100320000404783844444438FC182424181824243D
:1003300018FC7C08040408485454542404043F4422
:10034000243C4040207C1C2040201C3C4030403C51
:1003500044281028444C9090907C4464544C4400B1
:100360000836410000007700000041360800020115
:100370000204023C2623263C1EA1A161123A404001
:10038000207A38545455592155557941215454787F
:1003900041215554784020545579400C1E52721218
:1003A00039555555593954545459395554545800A0
:1003B00000457C410002457D420001457C40F0291A
:1003C0002429F0F0282528F07C5455450020545469
:1003D0007C547C0A097F49324949493232484848AD
:1003E00032324A4848303A4141217A3A42402078F4
:1003F000009DA0A07D39444444393D4040403D3CEF
:1004000024FF2424487E4943662B2FFC2F2BFF0911
:1004100029F620C0887E0903205454794100004405
:100420007D413048484A32384040227A007A0A0AF0
:10043000727D0D19317D2629292F28262929292663
:1004400030484D4020380808080808080808382FA8
:1004500010C8ACBA2F102834FA00007B0000081432
:100460002A142222142A14089500220095AA005565
:1004700000AAAA55AA55AA000000FF00101010FFFC
:1004800000141414FF001010FF00FF1010F010F003
:10049000141414FC001414F700FF0000FF00FF14F4
:1004A00014F404FC141417101F10101F101F141440
:1004B000141F00101010F0000000001F101010108A
:1004C0001F10101010F010000000FF10101010107E
:1004D00010101010FF10000000FF140000FF00FFBC
:1004E00000001F10170000FC04F414141710171458
:1004F00014F404F40000FF00F7141414141414147A
:10050000F700F7141414171410101F101F141414EC
:10051000F4141010F010F000001F101F0000001F56
:1005200014000000FC140000F010F01010FF10FF89
:10053000141414FF141010101F00000000F010FF1E
:10054000FFFFFFFFF0F0F0F0F0FFFFFF0000000002
:1005500000FFFF0F0F0F0F0F38444438447C2A2A46
:100560003E147E02020606027E027E026355494167
:10057000633844443C04407E201E2006027E020272
:1005800099A5E7A5991C2A492A1C4C7201724C3086
:100590004A4D4D303048784830BC625A463D3E495D
:1005A0004949007E0101017E2A2A2A2A2A44445F01
:1005B000444440514A444040444A51400000FF01F5
:1005C00003E080FF000008086B6B08361236243603
:1005D000060F090F06000018180000001010003068
:1005E00040FF0101001F01011E00191D1712003CF0
:1005F0003C3C3C0000000000080B0002020200002E
:100600000904000001020200000524001001052475
:1006100001010104240206052406000107058103E7
:1006200010004009040100020A0000000705020250
:100630004000000705830240000004030904120182
:100640000002EF0201404123368000010102030154
:1006500041726475696E6F204C4C43004172647541
:10066000626F7900F0F89C8E8783878E9CF8F0008B
:1006700000FEFF0303030303070EFCF80000FEFF68
:100680000303030303070EFCF80000FFFF00000054
:1006900000000000FFFF0000FEFF8383838383C709
:1006A000EE7C380000F8FC0E07030303070EFCF88D
:1006B00000003F7FE0C08080C0E07F3FFFFF01017E
:1006C0000101010101FFFF0000FFFF0C0C0C0C1CDD
:1006D0003E77E3C100007FFFC0C0C0C0C0E0703FF4
:1006E0001F00001F3F70E0C0C0C0E0703F1F00004F
:1006F0007FFFC1C1C1C1C1E3773E1C00001F3F7035
:10070000E0C0C0C0E0703F1F000000000001FFFF1C
:1007100001000000D5F08D14A1C881CFD9F1AF2020
:1007200000070605040100080A0B0C0D0900A90AC0
:1007300011241FBECFEFDAE0DEBFCDBF11E0A0E095
:10074000B1E0E8E8FEE302C005900D92AC33B107DA
:10075000D9F727E0ACE3B1E001C01D92AD32B2079A
:10076000E1F713E0C8E9D3E004C02197FE010E943D
:10077000171EC739D107C9F70E94C60A0C94421F39
:100780000C940000E5EDF2E0A0E0B8E000800EBCC3
:100790008111012C1197A0FDFDCF0192B9F70DB485
:1007A0000895FC018091D402882311F13FB7F89499
:1007B00082E08093E9002091F200822F90E01816E9
:1007C000190614F481E090E0882339F0289844E673
:1007D0004093D3024091F1004083222339F02091CD
:1007E000F200211103C02BE62093E8003FBF0895DB
:1007F0008FEF9FEF08952FB7F89483E08093E9007F
:100800009091E800892F807295FF04C09091F200CA
:1008100080E4891B2FBF08958091CB0281110DC008
:1008200082E08093C70284E08093C8021092CA02DB
:100830001092C90281E08093CB0287EC92E0089588
:100840003FB7F8948091C3029091C402A091C50271
:10085000B091C60226B5A89B05C02F3F19F001969E
:10086000A11DB11D3FBFBA2FA92F982F8827BC010A
:10087000CD01620F711D811D911D42E0660F771F32
:10088000881F991F4A95D1F708958F929F92AF9232
:10089000BF92CF92DF92EF92FF926B017C010E9498
:1008A00020044B015C01C114D104E104F104B9F04E
:1008B0000E942004681979098A099B09683E7340DF
:1008C0008105910580F321E0C21AD108E108F10801
:1008D00088EE880E83E0981EA11CB11CE4CFFF9027
:1008E000EF90DF90CF90BF90AF909F908F90089542
:1008F00040913E0150913F0120913C0130913D01DA
:1009000042175307B4F49091E8009570E1F3909189
:10091000E80092FD19C08093F10080913E01909112
:100920003F0101968F739927892B19F48EEF8093DD
:10093000E80080913E0190913F01019690933F0124
:1009400080933E0181E0089580E00895DF92EF9268
:10095000FF920F931F93CF93DF93D82E8A01EB0161
:100960007B01E40EF51ECE15DF0559F0D7FE12C04F
:10097000FE0184910E94780421968111F4CF0FEF3B
:100980001FEFC801DF91CF911F910F91FF90EF9062
:10099000DF9008958881EECF0F931F93CF93DF935D
:1009A0001F92CDB7DEB782E0898342E450E068EF62
:1009B00075E080E80E94A6040E940C04DC011296F7
:1009C0000D911C910115110589F0D801ED91FC9153
:1009D0000280F381E02DBE016F5F7F4FC801099552
:1009E00097FD04C0F80100851185ECCF89810F9037
:1009F000DF91CF911F910F910895615030F02091B8
:100A0000F100FC0120830196F8CF289884E68093BA
:100A1000D3020895AF92BF92CF92DF92EF92FF92EE
:100A20000F931F93CF93DF936C017B018B01040F16
:100A3000151FEB015E01AE18BF08C017D10759F0B2
:100A40006991D601ED91FC910190F081E02DC601F4
:100A50000995892B79F7C501DF91CF911F910F91EE
:100A6000FF90EF90DF90CF90BF90AF9008958F925E
:100A70009F92AF92BF92CF92DF92EF92FF920F932D
:100A80001F93CF93DF936C017B018A0180910B014F
:100A9000882309F45CC08091D402882309F457C0EC
:100AA0008091420180FF05C08091E00082608093C8
:100AB000E000E801B12C8AEFA82E93E0892E2AE30A
:100AC000922E209711F4BB20D9F10E94FB038111D3
:100AD0000AC0AA94AA20D9F161E070E080E090E019
:100AE0000E944504EECF8C171D0611F00CF08C2FE0
:100AF0009FB7F8948092E9002091E80025FD02C09C
:100B00009FBFDFCF282F30E0C21BD30BF7018150EE
:100B100020F041914093F100FACFE20EF31EBB208A
:100B200021F09092E800B12CEBCF8091E80085FD98
:100B3000E7CF9092E800BB24B394209709F3F3CF5A
:100B40005D9884E680934101101611063CF081E027
:100B500090E0F6019383828310E000E0C801DF910A
:100B6000CF911F910F91FF90EF90DF90CF90BF90AA
:100B7000AF909F908F900895CF93DF931F92CDB742
:100B8000DEB76983DC01ED91FC910280F381E02DF9
:100B900041E050E0BE016F5F7F4F09950F90DF91FC
:100BA000CF91089583E08093E9008091F20088233B
:100BB00019F08AE38093E80008950E94FB0390E017
:100BC0000895CF93DF931F92CDB7DEB7FC018485E4
:100BD000958597FD08C02FEF3FEF358724870F904D
:100BE000DF91CF910895CE0101960E94D103019724
:100BF00019F4898190E0F3CF8FEF9FEFF0CF0F933F
:100C00001F93CF93DF931F92CDB7DEB78C01FC010A
:100C10008485958597FF0BC0CE0101960E94D10374
:100C2000019771F4898190E0F80195878487F80134
:100C3000848595850F90DF91CF911F910F91089535
:100C40008FEF9FEFF1CFFC018485958597FD0BC059
:100C50009FB7F89482E08093E9008091F2009FBFF3
:100C600090E0019608959FB7F89482E08093E900A0
:100C70008091F2009FBF90E008952D9A0895BC01E5
:100C800090E080E00C9445048FB18095807F669B56
:100C900088601C9B84600895CF93C82F0E944406EF
:100CA000982F9C2381E09C1380E0CF91089580E0F1
:100CB0000C94C20380389105B8F460347105A0F437
:100CC00020E191E061FD94E060FD990F62FD929555
:100CD000687F269FD0011124A80FAB52BD4F8C9185
:100CE00040FF03C0892B8C93089590958923FBCFF7
:100CF0002F923F924F925F926F927F928F929F922C
:100D0000AF92BF92CF92DF92EF92FF920F931F9319
:100D1000CF93DF93EC018B017A016901C61AD70AE0
:100D2000D7FE03C0D194C194D10847018C1A9D0A03
:100D300097FE03C09194819491088C149D0454F4FF
:100D40009E2D8F2D7901292F382F9C2F8D2FE80173
:100D5000092F182FEC16FD0654F4902F812F8901CE
:100D6000292F382F9C2F8D2FE701E92EF82E170100
:100D70002C1A3D0A2901401A510A57FE03C051940A
:100D800041945108310137FE03C08FEF681A780A89
:100D9000759467948FEF021713070CF481E0A82E67
:100DA000880FBB08EC16FD06A4F041E0BE01C801A7
:100DB0008C149D0414F0B801CE010E945A066418E8
:100DC000750877FE04C00A0D1B1D620C731C21966A
:100DD000E9CFDF91CF911F910F91FF90EF90DF90BE
:100DE000CF90BF90AF909F908F907F906F905F90CB
:100DF0004F903F902F900895EF92FF920F931F9383
:100E0000CF93DF937C018B01040F111DEB0177FF62
:100E100002C0D0E0C0E0C8010134110514F080E444
:100E200090E0C817D9073CF441E0BE01C7010E9419
:100E30005A062196F0CFDF91CF911F910F91FF902D
:100E4000EF9008958F929F92AF92BF92CF92DF92D0
:100E5000EF92FF920F931F93CF93DF936D3089F042
:100E6000C090FF01D09000026A30D1F41092FE01D0
:100E70001092FD0188E0C80ED11CD0920002C092F1
:100E8000FF0181E090E0DF91CF911F910F91FF90E2
:100E9000EF90DF90CF90BF90AF909F908F9008958C
:100EA0000091FD011091FE01E5E06E9FE00111242B
:100EB000C850DF4F4801F12CF5E0E12CFF1629F076
:100EC000CE010196FE01E490EC01B12CA12C4E2D37
:100ED0004170B6016A0D7B1DC4010E945A06E6945A
:100EE000FFEFAF1ABF0A88E0A816B10481F7F394A8
:100EF000EFEF8E1A9E0AF6E0FF12DECF0A5F1F4F59
:100F00001093FE010093FD01BCCF089590E080E0B6
:100F100008950C94D8191F920F920FB60F921124B6
:100F20002F933F938F939F93AF93BF938091BF0273
:100F30009091C002A091C102B091C2023091BE0254
:100F400023E0230F2D3758F50196A11DB11D2093E5
:100F5000BE028093BF029093C002A093C102B093DF
:100F6000C2028091C3029091C402A091C502B091C7
:100F7000C6020196A11DB11D8093C3029093C402C5
:100F8000A093C502B093C602BF91AF919F918F917C
:100F90003F912F910F900FBE0F901F90189526E84C
:100FA000230F0296A11DB11DD2CF1F920F920FB633
:100FB0000F9211248F939F938091E1009091E10013
:100FC000937F9093E10083FF0FC01092E90091E0BE
:100FD0009093EB001092EC0092E39093ED0010924E
:100FE000D40298E09093F00082FF22C093E09093A7
:100FF000E9009091F200992319F09AE39093E800A8
:1010000090914101992341F0909141019150909329
:101010004101911101C05D9A9091D302992341F051
:101020009091D30291509093D302911101C0289ACC
:1010300084FF18C08091E2008E7E81608093E20080
:101040008091E1008F7E8093E100809142018E7E4D
:101050008061809342019F918F910F900FBE0F90FE
:101060001F90189580FFF7CF8091E2008E7E8061FF
:101070008093E2008091E1008E7E8093E100809178
:1010800042018E7E8160E5CF1F920F920FB60F92C4
:101090001124CF92DF92EF92FF920F931F932F9321
:1010A0003F934F935F936F937F938F939F93AF93F0
:1010B000BF93EF93FF93CF93DF93CDB7DEB76C97DA
:1010C000DEBFCDBF1092E9008091E80083FF25C00C
:1010D00068E0CE0145960E94FD0482EF8093E8000F
:1010E0008D8987FF39C09091E80090FFFCCF982F41
:1010F000907609F034C19E894F89588D2F89F88CDC
:10110000911131C0803861F5809143018093F100E5
:101110001092F1008EEF8093E8006C960FB6F89471
:10112000DEBF0FBECDBFDF91CF91FF91EF91BF9199
:10113000AF919F918F917F916F915F914F913F916F
:101140002F911F910F91FF90EF90DF90CF900F9014
:101150000FBE0F901F9018959EEF9093E800C7CF99
:101160001092F100D5CF913059F48111D3CF413095
:10117000510581F6809143018D7F80934301CACF51
:10118000933049F48111C6CF4130510519F6809151
:1011900043018260F2CF953041F48091E80080FFF6
:1011A000FCCF20682093E300B5CF963009F0A9C0AA
:1011B0000B8D1C8D22E01092E90010923F011092DD
:1011C0003E01F2122EC010923D0110923C010E948D
:1011D000CC041F8299E09983FA8291E09E8390EA81
:1011E00098879AEF998720913E0130913F01275FC0
:1011F0003F4F3C832B838D831092E90010923F0177
:1012000010923E0110933D0100933C0149E050E0F3
:10121000BE016F5F7F4F80E00E94A6040E94CC0455
:1012200079CF10933D0100933C010E940C04DC0136
:1012300012960D911C910115110509F451C1D801A7
:10124000ED91FC910480F581E02DBE016B5E7F4F36
:10125000C8010995009709F03EC1F8010085118584
:10126000EACFF3E0FF120EC08F89882309F440C053
:10127000823061F440E867E08CE596E00E94760AEF
:10128000811148CF81E28093EB0047CF813029F470
:1012900040E86BE080E596E0F1CF833099F70E945B
:1012A0000C04DC011296ED90FC908E010F5F1F4F35
:1012B0006801E114F10479F0D701ED91FC91068009
:1012C000F781E02DB801C7010995080F111DF7013D
:1012D000E084F184EECFD8011C92F6010190002049
:1012E000E9F73197BF016C197D0940E0C601C6CF0F
:1012F0006AE376E0FB01449150E080E80E94A60496
:1013000009CF973009F4BECF983021F481E0809363
:10131000F10000CF993009F0FDCE837009F0B2CF13
:10132000E8E1F1E081E031E096E32191222371F0E0
:101330008093E9003093EB00DF0111972C9120930B
:10134000EC009093ED008F5F873079F78EE7809304
:10135000EA001092EA008F898093D402DBCE8B8D55
:101360009C8D1092E90010923F0110923E019093E3
:101370003D0180933C01898D811192C08E899D89A8
:10138000913A49F4813209F07DCF47E050E064E0C2
:1013900071E080E0B3CF913209F074CF833269F409
:1013A0008F89988DB0E0A0E08093000190930101B7
:1013B000A0930201B0930301ADCE803269F4809115
:1013C000E80082FFFCCF67E084E091E00E94FD042A
:1013D0008BEF8093E8009ECE823209F09BCE8F89FE
:1013E00080930B01EEEFFFE7859194918B3F9C4D2D
:1013F00051F1E0E0F8E08091040190910501A091A5
:101400000601B0910701803B9440A105B105F1F4BC
:1014100080910B0180FD1AC0EE3F8AE0F80789F544
:1014200087E797E7918380838091600080934001F4
:1014300088E19BE00FB6F894A895809360000FBEFA
:101440009093600067CEEEEFFAE0D5CF8081918176
:101450008737974709F05ECEA89580916000886134
:10146000809360008091400180936000EE3F2AE00D
:10147000F20789F08091FE0A9091FF0A91838083A0
:1014800049CE808191818737980751F29093FF0A66
:101490008093FE0AC5CF1092FF0A1092FE0A3ACE40
:1014A0000E940C04DC0112960D911C91011511058E
:1014B00009F4E8CED801ED91FC910190F081E02D86
:1014C000BE016B5E7F4FC8010995811123CEF801E3
:1014D00000851185EBCF181619060CF41BCED2CE61
:1014E000F1E0FF12BECE6EE376E004CFEF92FF9202
:1014F0000F931F93CF93DF93F82E192FE62E042F0F
:1015000081E0860F880F0E94780483E00E947804AF
:10151000CF2DD12FEC0EFD2EF11CCE15DF05B9F02D
:1015200007FF13C0FE0184910E947804182F80E009
:101530000E947804812321968111EFCFDF91CF9112
:101540001F910F91FF90EF9008958881EDCF81E07A
:10155000F5CFE5EDF6E01382128288EE93E0A0E08D
:10156000B0E084839583A683B78382E291E0918380
:1015700080838FEF9FEF95878487E5E2F7E0138202
:10158000128284E391E0918380830895CF93DF9367
:10159000CDB7DEB7CE54D1090FB6F894DEBF0FBE7B
:1015A000CDBF789484B5826084BD84B5816084BDEC
:1015B00085B5826085BD85B5816085BD80916E00F1
:1015C000816080936E001092810080918100826022
:1015D000809381008091810081608093810080915F
:1015E0008000816080938000809191008260809370
:1015F0009100809191008160809391008091900092
:101600008160809390008091C10084608093C100CC
:101610008091C10082608093C1008091C10081608F
:101620008093C1008091C30081608093C30080914A
:10163000C00082608093C0008091C200816080936E
:10164000C20080917A00846080937A0080917A0051
:10165000826080937A0080917A00816080937A0022
:1016600080917A00806880937A001092D402109260
:101670004301109242018091D70081608093D7008E
:1016800080EA8093D80089B5806189BD89B5826080
:1016900089BD09B400FEFDCF61E070E080E090E01C
:1016A0000E9445048091D8008F7C80618093D8008F
:1016B0008091E000807F8093E0008091E1008E7E49
:1016C0008093E1008DE08093E200559A209A8FEF9D
:1016D0009FEF9093E2068093E10660ED77E080E073
:1016E00090E00E94450481EC80937C0085B1806F7E
:1016F00085B984B1877E84B984B1876E84B95E9AD6
:101700005F988AB1806D8AB9769A6E9881B3806F3E
:1017100081BB899880B38D7080BB80E58CBD81E0F2
:101720008DBD85E090E00E943F065F9A85E090E0E5
:101730000E943F065E985C98E4E1F7E081E297E062
:1017400024912EBD00000DB407FEFDCF31968E17FB
:101750009F07B1F75C9A81E88093640080916500EF
:101760008160809365000E94570680E80E944C06C5
:101770008823A9F05C9885EA8EBD00000DB407FEB1
:10178000FDCF5C9A2E982F982D98809164008062EE
:101790008093640081E083BF889513BEFCCF84E012
:1017A0000E944C06882309F448C02D9884E80E94C2
:1017B0004C068823E1F00E943D0688EC90E00E94F0
:1017C0003F062F9882E090E00E94D8198F3F29F0C1
:1017D0006FEF82E090E00E94E01984EF91E00E94B8
:1017E0003F062F9A84E80E944C068111FBCF84E1CA
:1017F0000E944C068823E1F00E943D0688EC90E0B0
:101800000E943F062E9882E090E00E94D81988231B
:1018100029F060E082E090E00E94E01984EF91E01E
:101820000E943F062E9A84E10E944C068111FBCF54
:1018300088EC90E00E943F06B2CF0E943D0682E015
:1018400090E00E948907882309F48DC23E9A3F9A4E
:1018500081E090E00E948907282F2470722E81FF7A
:1018600015C021112E9861EF262E33243A9408E0FA
:1018700010E07CE6E72EF12C80E40E944C068823E1
:1018800009F474C22E9A2F9A0E943D0682E390E0DA
:101890000E943F060E9444068111F8CF80E18093A8
:1018A0000C01E1E2F7E0E49190917B008E2F880F2C
:1018B000880F80729F7D892B80937B00E770E064A6
:1018C000E0937C0080917A00806480937A0080911C
:1018D0007A0086FDFCCF6091780070917900072E28
:1018E000000C880B990B611571058105910511F0AC
:1018F0000E94CF1980E790E00E941D1E89879D837A
:101900008C01312C212C81E1482E87E2582E612C4C
:10191000712C0E9480192BE030E040E050E00E94E2
:10192000EE196550710981099109620D731D77FFE8
:1019300002C068597E4F072E000C880B990B0E943D
:10194000E41B25E33AEF4EE85CE30E94071D4B01E0
:101950005C010E948019A30192010E94EE190E946D
:10196000E41B20E030E44CE156E40E943A1B20E006
:1019700030E044EB52E40E94071D20E030E044EBED
:1019800052E40E94521A6B017C01C501B4010E940D
:10199000351BA70196010E94071D69837A838B83FB
:1019A0009C83C501B4010E94741DA70196010E9489
:1019B000071D6B017C010E948019A30192010E9406
:1019C000EE190E94E41B20E030E44CE156E40E9452
:1019D0003A1B20E030E040E850E40E94071D20E080
:1019E00030E040E050E40E94511A29813A814B8155
:1019F0005C810E94521A4B015C010E948019F8011F
:101A000080829182A282B382A30192010E94EE1988
:101A10000E94E41B20E030E44CE156E40E943A1BB3
:101A200020E030E040E850E40E94071D20E030E074
:101A300040E050E40E94511AA70196010E94521AF8
:101A4000D80114966D937D938D939C931797B9E16C
:101A50002B0E311C085F1F4FEEE52E16E1E03E060F
:101A600009F057CFF985F09303022D8120930402EA
:101A7000109206021092050215E0212E312C0EE084
:101A800010E00E9480192EE030E040E050E00E941B
:101A9000EE1940910302509104025A874987FB01D5
:101AA000A3E0EE0FFF1FAA95E1F7E40FF51F2081D9
:101AB0003181428153812D833E834F835887248116
:101AC00035814681578129833A834B835C83CB01DF
:101AD0000196B8010E94EF1DB3E0880F991FBA95D7
:101AE000E1F749855A85480F591F5A8749872D8143
:101AF0003E814F815885A985BA856D917D918D91E3
:101B00009C910E94511A2B013C0129813A814B8101
:101B10005C81E985FA8564817581868197810E945F
:101B2000511A6B017C01A30192010E94D11A6987AD
:101B30007A878B879C870E94801920E137E240E0FA
:101B400050E00E94EE190E94E41B20E030E44CE1DA
:101B500056E40E943A1B4B015C0180910502909172
:101B600006024EE0489F9001499F300D1124295FE5
:101B70003D4F3E872D87A5019401C301B2010E940C
:101B8000071D2D813E814F8158850E94521A20E009
:101B900030E040E853E40E94521AAD85BE856D9353
:101BA0007D938D939C931397A5019401C701B60172
:101BB0000E94071D29813A814B815C810E94521A43
:101BC00020E030E040E853E40E94521AED85FE85A3
:101BD00064837583868397832BED3FE049EC5FE355
:101BE00069857A858B859C850E94521AAD85BE8554
:101BF00018966D937D938D939C931B970E948019EB
:101C0000E0910502F0910602FA83E9834EE04E9FCF
:101C100090014F9F300D1124D901A95FBD4F7D0167
:101C200028E730E040E050E00E94EE19F7017587A8
:101C3000648729813A812F5F3F4F309306022093BA
:101C4000050231E0231A310809F01BCF43E551E0CA
:101C50005EA34DA3ADA1BEA11C925196BEA3ADA3A0
:101C6000AD5FB140B9F70E948019C12C42E0D42E7B
:101C7000E12CF12CA70196010E94EE190E94E41BB1
:101C8000609348017093490180934A0190934B01FE
:101C90000E948019A70196010E94EE190E94E41B80
:101CA00060934C0170934D0180934E0190934F01CE
:101CB0000E94801922E030E040E050E00E94EE19DE
:101CC000709351016093500180E090E0A0E8B3E48C
:101CD0008093AE029093AF02A093B002B093B10292
:101CE0008093AA029093AB02A093AC02B093AD0292
:101CF0001092BA021092BB021092BC021092BD0266
:101D00001092B6021092B7021092B8021092B90265
:101D10001092B2021092B3021092B4021092B50265
:101D200010924D0210925E0210926F021092800289
:101D3000109291028FB7F8944091BF025091C00267
:101D40006091C1027091C2028FBF109146011123B0
:101D500009F4DEC01092460180E090E0892B51F337
:101D60000E940000E7CF3E983F9872CD772031F077
:101D700034E02316310411F42E9A2F9881E00E944A
:101D8000C203910137FE04C02227332722193309E9
:101D900027703327C10137FC079653E09595879547
:101DA0005A95E1F737FE05C00197A801421B530B76
:101DB0009A01BC017695762F6627779567956B52C9
:101DC0007D4FB0E0A0E02801421A530A8E3F5FEF3A
:101DD000950709F446C048E550E0FD01E454F94F89
:101DE0005F014B01F0E88F0E911C8F3F9807C9F0FF
:101DF000F501E41BF50B64906701C41AD50AC60E01
:101E0000D71EE62DF0E0022E02C0EE0FFF1F0A944F
:101E1000E2F7FE83ED83F6016080FD816F2AF60113
:101E2000608221153105C9F0F501E41BF50B6490C2
:101E30006701C41AD50AC80CD91CE62DF0E0042CA1
:101E400002C0F595E7950A94E2F7FE83ED83F6016B
:101E50006080FD816F2AF60160824150510909F0CE
:101E6000C4CF0196A85ABF4F60587F4FA03BB10521
:101E700009F0ACCF0E9457068FE090E00E943F0629
:101E8000FFEF2F1A3F0A29E12216310409F0F4CCA2
:101E9000772011F02F9A2D9880E991E00E943F065B
:101EA0000E943D0681E090E00E94890780FFEECC11
:101EB0008AE090E00E9489079FEF980F9E3F08F00C
:101EC000E5CC22E330E03093FE012093FD0128E3CE
:101ED00030E0309300022093FF014BE050E05A8342
:101EE0004983682F85E297E00E94220789819A81C1
:101EF0000E948907A981BA811196BA83A983519753
:101F000081F70E94570688EE93E00E943F06BECC00
:101F100080914701F42FF81B8F2F90910C01F91736
:101F200048F48F5F891708F017CF81E083BF889549
:101F300013BE12CF81E08093460140934701809108
:101F4000440190914501019690934501809344018D
:101F5000209102022987209301020E9444068D836A
:101F600080930202E5EDF2E011111FEF00241193BE
:101F70001193119311930394D1F7109200021092D0
:101F8000FF011092FE011092FD0180E20E944C06BA
:101F90008823B1F02DEC3CEC4CEC5DE36091BA028F
:101FA0007091BB028091BC029091BD020E94511AB7
:101FB0006093BA027093BB028093BC029093BD02FF
:101FC00080E40E944C068823B1F02DEC3CEC4CECF4
:101FD0005DE36091BA027091BB028091BC02909166
:101FE000BD020E94521A6093BA027093BB028093A2
:101FF000BC029093BD0288E00E944C062091BA0278
:102000003091BB024091BC025091BD022FA738AB6A
:1020100049AB5AAB882309F446C08090B202909035
:10202000B302A090B402B090B5022BED3FE049ECB2
:102030005FE36FA578A989A99AA90E94511A6B013B
:102040007C010E94351B2DEC3CEC4CEC5DE30E94C6
:10205000071D9B01AC016091B6027091B70280919F
:10206000B8029091B9020E94521A6093B60270931E
:10207000B7028093B8029093B902C701B6010E94DB
:10208000741D2DEC3CEC4CEC5DE30E94071DA5019A
:1020900094010E94521A6093B2027093B30280932B
:1020A000B4029093B5024090B6025090B70260908F
:1020B000B8027090B9022091AE023091AF02409107
:1020C000B0025091B102C301B2010E94521A698359
:1020D0007A838B839C836093AE027093AF0280936C
:1020E000B0029093B1028090B2029090B302A0909F
:1020F000B402B090B5022091AA023091AB02409197
:10210000AC025091AD02C501B4010E94521A6B019C
:102110007C01C092AA02D092AB02E092AC02F09293
:10212000AD0224EA30E74DE75FE3C301B2010E944C
:10213000071D6093B6027093B7028093B802909324
:10214000B90224EA30E74DE75FE3C501B4010E941C
:10215000071D6093B2027093B3028093B402909310
:10216000B50220E030E0A90169817A818B819C81F0
:102170000E94301B87FF08C01092AE021092AF027F
:102180001092B0021092B10220E030E040E054E43E
:102190006091AE027091AF028091B0029091B10255
:1021A0000E94FA1C181664F480E090E0A0E0B4E409
:1021B0008093AE029093AF02A093B002B093B102AD
:1021C00020E030E0A901C701B6010E94301B87FF63
:1021D00008C01092AA021092AB021092AC021092A8
:1021E000AD0220E030E040E054E46091AA0270913A
:1021F000AB028091AC029091AD020E94FA1C1816BD
:1022000064F480E090E0A0E0B4E48093AA029093AC
:10221000AB02A093AC02B093AD028091AE0290915C
:10222000AF02A091B002B091B102898F9A8FAB8FAB
:10223000BC8F20E030E040E852E4BC01CD010E94B8
:10224000511A4B015C018092A6029092A702A092C3
:10225000A802B092A9022091AA023091AB0240914B
:10226000AC025091AD022D8F3E8F4F8F58A320E0CE
:1022700030E040E052E46D8D7E8D8F8D98A10E94FC
:10228000511A6B017C01C092A202D092A302E0928B
:10229000A402F092A50220E030E0A901C501B4013A
:1022A0000E94301B87FF08C01092A6021092A7025E
:1022B0001092A8021092A90220E030E040EC53E412
:1022C0006091A6027091A7028091A8029091A90244
:1022D0000E94FA1C181664F480E090E0A0ECB3E4CD
:1022E0008093A6029093A702A093A802B093A9029C
:1022F00020E030E0A901C701B6010E94301B87FF32
:1023000008C01092A2021092A3021092A40210928E
:10231000A50220E030E040EE53E46091A20270910B
:10232000A3028091A4029091A5020E94FA1C1816A3
:1023300064F480E090E0A0EEB3E48093A202909376
:10234000A302A093A402B093A502398532FD4AC02E
:102350004D8142FF47C0EDE4F2E090E080E0208153
:102360002111C5C1E1E1E89FD001E99FB00D112421
:10237000A35BBD4FBA83A98381E08C93298D3A8DED
:102380004B8D5C8D11962D933D934D935C931497DB
:102390002D8D3E8D4F8D58A115962D933D934D93C8
:1023A0005C9318972BED3FE049EC5FE36FA578A9AC
:1023B00089A99AA90E94511A6B017C010E94351BC0
:1023C000E981FA816187728783879487C701B601A3
:1023D0000E94741DA981BA811D966D937D938D9382
:1023E0009C935097EDE4F2E0FA8BE98B1F01D10149
:1023F0008C91882309F450C019962D913D914D91EF
:102400005C911C9711966D917D918D919C91149783
:102410000E94521A4B015C01F10181829282A382D7
:10242000B482258536854785508965817681878187
:1024300090850E94521A6B017C01D1011596CD92B4
:10244000DD92ED92FC92189720E030E0A901C501E1
:10245000B4010E94301B87FD1DC020E030E040E049
:1024600054E4C501B4010E94FA1C18169CF020E047
:1024700030E0A901C701B6010E94301B87FD0AC0E8
:1024800020E030E040E054E4C701B6010E94FA1CAD
:10249000181614F4F1011082F1E12F0E311C22EA1A
:1024A00032E02215330509F0A2CF4DE452E05A8301
:1024B0004983A981BA818C91882309F454C0199663
:1024C0002D913D914D915C911C9711966D917D914F
:1024D0008D919C9114970E94521A4B015C01E981E5
:1024E000FA8181829282A382B482258536854785CE
:1024F000508965817681878190850E94521A6B018F
:102500007C01A981BA811596CD92DD92ED92FC9263
:10251000189720E030E0A901C501B4010E94301BEA
:1025200087FD1EC020E030E040E054E4C501B40166
:102530000E94FA1C1816A4F020E030E0A901C7019F
:10254000B6010E94301B87FD0BC020E030E040E068
:1025500054E4C701B6010E94FA1C18160CF0CEC054
:10256000E981FA81108289819A8141969A838983CF
:102570008215930509F09DCFA0910502B091060246
:10258000B8AFAFABE7E0F2E0FE8BED8B8F011E82C0
:102590001D822FA938AD4D815E81421753070CF083
:1025A00029C1D8011C968D919C911D9701971816F1
:1025B00019060CF41AC1E8E7F0E01D96FC93EE93BF
:1025C0001C97E3E5F1E0312C212C8081811103C1BE
:1025D000D8011496CD90DD90ED90FC9017972D9139
:1025E0003D914D915C91B1E1B29DF001B39DF00D33
:1025F0001124ED5AFE4F81E080832183328343838F
:102600005483C582D682E782F086698D7A8D8B8D60
:102610009C8D0E94511A2B013C01A70196016D8DE2
:102620007E8D8F8D98A10E94511A4B015C01A301F0
:102630009201C301B2010E94071D6B017C01A5013B
:102640009401C501B4010E94071D9B01AC01C701A3
:10265000B6010E94521A0E94821D6B017C012FE676
:1026600032E143E85AE30E94301B87FF08C03FE68F
:10267000C32E32E1D32E33E8E32E3AE3F32EE1E129
:10268000E29DD001E39DB00D1124AD5ABE4FBA8733
:10269000A987A7019601C301B2010E943A1B20E05D
:1026A00030E040E05FE30E94071DA985BA851996D6
:1026B0006D937D938D939C931C97A7019601C50103
:1026C000B4010E943A1B20E030E040E05FE30E944A
:1026D000071DE985FA85658776878787908BED8169
:1026E000FE813196FE83ED83025F1F4F52CF01962C
:1026F00071968530910509F032CE74CE27E032E034
:102700003A87298710E000E0A985BA852D913D918F
:102710004D915C91C501B4010E94511A2B013C01FD
:10272000E985FA852481358146815781C701B60143
:102730000E94511A6D837E838F839887A301920133
:10274000C301B2010E94071D2B013C012D813E8176
:102750004F815885CA01B9010E94071D9B01AC0138
:10276000C301B2010E94521A20E030E040EB51E474
:102770000E94301B87FF22C0A981BA811C928091E0
:10278000050290910602019790930602809305023C
:10279000EEE0E09FD001E19FB00D1124A95FBD4F95
:1027A0002EE0289FF001299FF00D1124E95FFD4FD5
:1027B0008EE001900D928A95E1F7D5CE0F5F1F4F05
:1027C00049855A85425F5F4F5A8749870530110511
:1027D00009F09ACFC8CE2FEF221A320A71963AE04A
:1027E0002316310409F0F1CE7ACF1D969C938E9377
:1027F0001C9775CF1091520111116BC023E531E088
:102800003E832D83AD81BE810C91002309F454C019
:1028100019962D913D914D915C911C9711966D915A
:102820007D918D919C9114970E94521A4B015C01ED
:10283000ED81FE8181829282A382B48225853685D4
:102840004785508965817681878190850E94521ADB
:102850006B017C01AD81BE811596CD92DD92ED922A
:10286000FC92189720E030E0A901C501B4010E9454
:10287000301B87FD1EC020E030E040E054E4C5017D
:10288000B4010E94FA1C1816A4F020E030E0A9015F
:10289000C701B6010E94301B87FD0BC020E030E06D
:1028A00040E054E4C701B6010E94FA1C18160CF06F
:1028B000DCC0ED81FE811082ED81FE817196FE8388
:1028C000ED832DA13EA12E173F0709F09BCF10935A
:1028D00052011E861D86C0904801D0904901E090AB
:1028E0004A01F0904B0180904C0190904D01A090D6
:1028F0004E01B0904F018091A6029091A702A09145
:10290000A802B091A9028D839E83AF83B8872091DE
:10291000A2023091A3024091A4025091A5022987FE
:102920003A874B875C874D855E854130510509F4B8
:10293000D1C020E030E040E05FE3BC01CD010E9467
:10294000071D9B01AC01C701B6010E94511A0E94EC
:10295000AC1B6B011B0120E030E040E05FE36985C8
:102960007A858B859C850E94071D9B01AC01C50162
:10297000B4010E94511A0E94AC1B3B01DAA2C9A209
:1029800050E8C516D10408F02BC377FD2EC3603480
:1029900071050CF02FC34091500150915101FA0183
:1029A000FF27FA87E987440F4F5F6E1B7F0BC60135
:1029B0000E94FC06EE24E394F12C29853A85E21A64
:1029C000F30AD12CC12CC21AD30ACC0CDD1C0D8504
:1029D0001E8544244394512C41E050E05E874D878E
:1029E00089859A85081719070CF075CFF7FC08C080
:1029F00001979A87898792E0C90ED11CEC0CFD1CC7
:102A00000F5F1F4FA2E04A0E511CE40CF51C898594
:102A1000880F8F5F8D83482F5301E985FA85AE1AA1
:102A2000BF0AB50189A19AA1800F911F0E94FC06DF
:102A30004301801A910A442DB40189859A85820D3B
:102A4000931D0E94FC064D81B50189A19AA1801BAE
:102A5000910B0E94FC06442DB401C10129853A85E1
:102A6000821B930B0E94FC06BBCF298D3A8D4B8DA8
:102A70005C8DC501B4010E94511A4B015C012D8D82
:102A80003E8D4F8D58A1C701B6010E94511A6B01AE
:102A90007C01A5019401C501B4010E94071D4B01F1
:102AA0005C01A7019601C701B6010E94071D9B01A9
:102AB000AC01C501B4010E94521A20E030E048EC9C
:102AC00051E40E94301B87FFF7CEAD81BE811C927E
:102AD000102FF2CE43E551E05E874D87AD85BE8570
:102AE0008C91882311F129853A854B855C85159653
:102AF0006D917D918D919C9118970E94511A0E9421
:102B0000AC1B6B012D813E814F815885ED85FE8583
:102B100061817281838194810E94511A0E94AC1B51
:102B2000CB0141E0B6010E945A062D853E852F5EFD
:102B30003F4F3E872D874DA15EA14217530771F687
:102B4000209003023090040220E030E040E853E49B
:102B5000D1016D917D918D919C910E94521A2D8190
:102B60003E814F8158850E94511A0E94AC1B3B0147
:102B700020E030E040E853E4F10164817581868112
:102B800097810E94521A29853A854B855C850E945F
:102B9000511A0E94AC1B8B013E862D862101F8E65E
:102BA0004F0E511C20E030E040E853E4AD85BE8577
:102BB00018966D917D918D919C911B970E94521A50
:102BC0002D813E814F8158850E94511A0E94AC1B75
:102BD0006B0120E030E040E853E4ED85FE8564853C
:102BE0007585868597850E94521A29853A854B8579
:102BF0005C850E94511A0E94AC1B4B019B01A601EF
:102C0000B801C3010E9478062D853E85285F3F4F9D
:102C10003E872D87360184014216530619F620E0BF
:102C200030E040E853E4D10114966D917D918D918F
:102C30009C9117970E94521A29853A854B855C858D
:102C40000E94511A0E94AC1B2B0120E030E040E8AA
:102C500053E4F10160817181828193810E94521A53
:102C60002D813E814F8158850E94511A0E94AC1BD4
:102C70009201AB01B401C6010E9478062F961FAEE7
:102C80001EAE2F972F962EAD3FAD2F974FA958AD63
:102C9000241735070CF0B3C12BED3FE049EC5FE39F
:102CA000AD89BE8918966D917D918D919C911B97F0
:102CB0000E94511A4B015C010E94351B6B017C0183
:102CC000C501B4010E94741D4B015C0120E030E09D
:102CD00040E850E40E94071D6BAB7CAB8DAB9EAB14
:102CE00020E030E040E850ECC701B6010E94071D2B
:102CF0006FA378A789A79AA72D813E814F81588518
:102D0000ED89FE8960817181828193810E94511ACF
:102D10002B013C0120E030E0A901C701B6010E946F
:102D2000071D2BA93CA94DA95EA90E94521A9B011F
:102D3000AC01C301B2010E94521A6D877E878F8752
:102D4000988B29853A854B855C85AD89BE8914961B
:102D50006D917D918D919C9117970E94511A2B0135
:102D60003C0120E030E0A901C501B4010E94071D2B
:102D70002FA138A549A55AA50E94521A9B01AC0162
:102D8000C301B2010E94521A69A37AA38BA39CA328
:102D900020E030E040E050ECC701B6010E94071D82
:102DA00069AF7AAF8BAF9CAF20E030E040E850ECE9
:102DB000C501B4010E94071D6BA77CA78DA79EA724
:102DC00020E030E040E050ECC501B4010E94071D56
:102DD00021966CAF7DAF8EAF9FAF2197A701960173
:102DE000C701B6010E94521A2B013C01A5019401B2
:102DF000C501B4010E94521A4B015C0120E030E091
:102E000040E850E4C701B6010E94071D6B017C0138
:102E10002BA53CA54DA55EA569AD7AAD8BAD9CAD4E
:102E20000E94511A2D853E854F8558890E94521A5D
:102E30000E94AC1B25966CAF7DAF8EAF9FAF2597E0
:102E400021962CAD3DAD4EAD5FAD21976FA178A51C
:102E500089A59AA50E94521A29A13AA14BA15CA169
:102E60000E94521A0E94AC1B29966CAF7DAF8EAFA8
:102E70009FAF29972BA53CA54DA55EA5C301B20127
:102E80000E94511A2D853E854F8558890E94521AFD
:102E90000E94AC1B6BA77CA78DA79EA7A5019401E0
:102EA0006FA178A589A59AA50E94521A29A13AA1D5
:102EB0004BA15CA10E94521A0E94AC1B6FA378A781
:102EC00089A79AA72BA93CA94DA95EA9C301B20164
:102ED0000E94511A2D853E854F8558890E94521AAD
:102EE0000E94AC1B2D966CAF7DAF8EAF9FAF2D9720
:102EF000A7019601C501B4010E94521A29A13AA165
:102F00004BA15CA10E94521A0E94AC1B2B012BA961
:102F10003CA94DA95EA969AD7AAD8BAD9CAD0E946F
:102F2000511A2D853E854F8558890E94521A0E945C
:102F3000AC1B6D877E878F87988BA70196012196A2
:102F40006CAD7DAD8EAD9FAD21970E94521A29A127
:102F50003AA14BA15CA10E94521A0E94AC1B4B01EA
:102F60002FA138A54BA55CA527966EAD7FAD279701
:102F700023968EAD9FAD23970E94780692012B96E3
:102F80004EAD5FAD2B976FA178A58BA59CA50E9438
:102F9000780694014D855E85B2012B968EAD9FAD6E
:102FA0002B970E94780627962EAD3FAD2797239644
:102FB0004EAD5FAD2397B4018D859E850E94780646
:102FC0002F96EEADFFAD2F9731962F96FFAFEEAF58
:102FD0002F972D893E89225F3F4F3E8B2D8B52CEFE
:102FE00083E591E09E878D8779CDA3E5B1E0BE872B
:102FF000AD8774CDE3E5F1E0FE87ED876FCDA9895C
:10300000BA898C91882311F129853A854B855C8595
:1030100015966D917D918D919C9118970E94511AF2
:103020000E94AC1B6B012D813E814F815885E9893F
:10303000FA8961817281838194810E94511A0E9470
:10304000AC1BCB0141E0B6010E945A0629893A899E
:103050002F5E3F4F3A8B298B49815A8124173507C0
:1030600071F62D813E814F815885698D7A8D8B8DCA
:103070009C8D0E94511A69837A838B839C83298556
:103080003A854B855C856D8D7E8D8F8D98A10E94D4
:10309000511A6D837E838F8398876FA578A989A93C
:1030A0009AA90E94351B4B015C016FA578A989A9DB
:1030B0009AA90E94741D6B017C0120E030E040E879
:1030C00050E40E94071D69877A878B879C8720E0E0
:1030D00030E040E850E4C501B4010E94071D698B4F
:1030E0007A8B8B8B9C8B20E030E0A901C501B40169
:1030F0000E94071D2B013C0120E030E040E850EC2D
:10310000C701B6010E94071D9B01AC01C301B201BA
:103110000E94511A29813A814B815C810E94521A86
:103120000E94AC1B6D8B7E8B8F8B988F20E030E0E4
:10313000A901C701B6010E94071D2B013C0120E037
:1031400030E040E850ECC501B4010E94071D9B012E
:10315000AC01C301B2010E94521A2D813E814F8100
:1031600058850E94521A0E94AC1B698F7A8F8B8FF0
:103170009C8F20E030E040E450ECC501B4010E9497
:10318000071D29853A854B855C850E94511A298146
:103190003A814B815C810E94521A0E94AC1B6D8F58
:1031A0007E8F8F8F98A320E030E040E450ECC70181
:1031B000B6010E94071D29893A894B895C890E94C2
:1031C000521A2D813E814F8158850E94521A0E94C9
:1031D000AC1B2B0120E030E040E450E4C501B40119
:1031E0000E94071D29853A854B855C850E94511AEE
:1031F00029813A814B815C810E94521A0E94AC1B4A
:103200004B0120E030E040E450E4C701B6010E94E9
:10321000071D29893A894B895C890E94521A2D81A0
:103220003E814F8158850E94521A0E94AC1B6B014F
:1032300092014D8D5E8D698D7A8D8D899E890E945A
:1032400078069601A401B2018D8D9E8D0E947806AC
:10325000298D3A8D4D895E89B601C4010E94780698
:103260000E9457060C94AC0E8F929F92AF92BF9221
:10327000CF92DF92EF92FF92CF93DF93EC016881C0
:1032800079818A819B81611571058105910521F400
:1032900064E279ED8BE597E02DE133EF41E050E01A
:1032A0000E94EE1949015A019B01AC01A7EAB1E461
:1032B0000E940D1A6B017C01ACEEB4EFA5019401E4
:1032C0000E941B1AC60ED71EE81EF91EF7FE06C086
:1032D00081E0C81AD108E10880E8F80AC882D982DA
:1032E000EA82FB82C701B6019F77DF91CF91FF9001
:1032F000EF90DF90CF90BF90AF909F908F90089508
:103300008F929F92AF92BF92CF92DF92EF92FF92F5
:1033100060910D0170910E0180910F01909110014B
:10332000611571058105910521F464E279ED8BE564
:1033300097E02DE133EF41E050E00E94EE194901A2
:103340005A019B01AC01A7EAB1E40E940D1A6B017E
:103350007C01ACEEB4EFA50194010E941B1AC60ECD
:10336000D71EE81EF91EF7FE06C081E0C81AD10874
:10337000E10880E8F80AC0920D01D0920E01E092B7
:103380000F01F0921001C701B6019F77FF90EF90F7
:10339000DF90CF90BF90AF909F908F9008956093F3
:1033A0000D0170930E0180930F0190931001089509
:1033B000F999FECF92BD81BDF89A992780B50895FD
:1033C000262FF999FECF1FBA92BD81BD20BD0FB641
:1033D000F894FA9AF99A0FBE01960895052E97FB74
:1033E0001EF400940E94051A57FD07D00E94201A6F
:1033F00007FC03D04EF40C94051A50954095309577
:1034000021953F4F4F4F5F4F089590958095709550
:1034100061957F4F8F4F9F4F08950E94421AA59F3D
:10342000900DB49F900DA49F800D911D11240895BF
:10343000B7FF0C940D1A0E940D1A821B930B08956E
:10344000A1E21A2EAA1BBB1BFD010DC0AA1FBB1FA8
:10345000EE1FFF1FA217B307E407F50720F0A21B1A
:10346000B30BE40BF50B661F771F881F991F1A9487
:1034700069F760957095809590959B01AC01BD01B1
:10348000CF010895A29FB001B39FC001A39F700D0B
:10349000811D1124911DB29F700D811D1124911D5C
:1034A00008955058BB27AA270E94691A0C94AC1C97
:1034B0000E94731C38F00E947A1C20F039F49F3F60
:1034C00019F426F40C94491C0EF4E095E7FB0C94D7
:1034D000431CE92F0E94D11C58F3BA1762077307E7
:1034E0008407950720F079F4A6F50C94F31C0EF4EC
:1034F000E0950B2EBA2FA02D0B01B90190010C0104
:10350000CA01A0011124FF27591B99F0593F50F41B
:10351000503E68F11A16F040A22F232F342F442773
:10352000585FF3CF469537952795A795F04053956B
:10353000C9F77EF41F16BA0B620B730B840BBAF03B
:103540009150A1F0FF0FBB1F661F771F881FC2F7A6
:103550000EC0BA0F621F731F841F48F487957795BA
:103560006795B795F7959E3F08F0B0CF9395880F74
:1035700008F09927EE0F9795879508950E94731C80
:1035800060F080E891E009F49EEF0E947A1C28F038
:1035900040E851E071F45EEF0CC00C94491C0C94AF
:1035A000F31CE92FE0780E94D11C40F3092E052A74
:1035B000B1F3261737074807590738F00E2E07F8DA
:1035C000E02569F0E025E0640AC0EF6307F80094A5
:1035D00007FADB01B9019D01DC01CA01AD01EF93DE
:1035E0000E94511B0E94AC1C0E94011B5F9155233D
:1035F00039F02BED3FE049E450FD49EC0C94521AB0
:103600000895DF93DD27B92FBF7740E85FE31616F3
:10361000170648075B0718F4D92F0E94FF1C9F93D9
:103620008F937F936F930E94C21DECEAF0E00E949B
:103630004C1C0E94AC1C2F913F914F915F910E94B6
:103640001A1DDD2351F09058A2EA2AED3FE049EC23
:103650005FE3D0785D270E94691ADF910C94AC1C5F
:103660000E941F1C08F481E008950E94831CE395CA
:103670000C94BD1C0E944E1B0C94AC1C0E947A1C26
:1036800058F00E94731C40F029F45F3F29F00C941D
:10369000431C51110C94F41C0C94491C0E94D11C25
:1036A00068F39923B1F3552391F3951B550BBB2771
:1036B000AA2762177307840738F09F5F5F4F220FB6
:1036C000331F441FAA1FA9F335D00E2E3AF0E0E8AD
:1036D00032D091505040E695001CCAF72BD0FE2FF7
:1036E00029D0660F771F881FBB1F2617370748078B
:1036F000AB07B0E809F0BB0B802DBF01FF27935843
:103700005F4F3AF09E3F510578F00C94431C0C94A7
:10371000F41C5F3FE4F3983ED4F386957795679564
:10372000B795F7959F5FC9F7880F911D9695879577
:1037300097F90895E1E0660F771F881FBB1F621796
:1037400073078407BA0720F0621B730B840BBA0B54
:10375000EE1F88F7E09508950E94B31B6894B1119D
:103760000C94F41C08950E94D91C88F09F5798F07F
:10377000B92F9927B751B0F0E1F0660F771F881F76
:10378000991F1AF0BA95C9F714C0B13091F00E9490
:10379000F31CB1E008950C94F31C672F782F882751
:1037A000B85F39F0B93FCCF3869577956795B395B7
:1037B000D9F73EF490958095709561957F4F8F4F26
:1037C0009F4F0895E89409C097FB3EF4909580952B
:1037D000709561957F4F8F4F9F4F9923A9F0F92FD7
:1037E00096E9BB279395F695879577956795B79555
:1037F000F111F8CFFAF4BB0F11F460FF1BC06F5F3B
:103800007F4F8F4F9F4F16C0882311F096E911C04C
:10381000772321F09EE8872F762F05C0662371F06D
:1038200096E8862F70E060E02AF09A95660F771F81
:10383000881FDAF7880F9695879597F90895990F5D
:103840000008550FAA0BE0E8FEEF16161706E8076A
:10385000F907C0F012161306E407F50798F0621B8B
:10386000730B840B950B39F40A2661F0232B242B60
:10387000252B21F408950A2609F4A140A6958FEF7F
:10388000811D811D089597F99F6780E870E060E0D1
:1038900008959FEF80EC0895DF93CF931F930F93CC
:1038A000FF92EF92DF927B018C01689406C0DA2EC2
:1038B000EF010E941A1DFE01E894A5912591359112
:1038C00045915591A6F3EF010E94691AFE019701F7
:1038D000A801DA9469F7DF90EF90FF900F911F91A4
:1038E000CF91DF91089500240A9416161706180642
:1038F0000906089500240A941216130614060506F4
:1039000008950C94491C0E94D91CD8F3E894E0E077
:10391000BB279F57F0F02AED3FE049EC06C0EE0FC1
:10392000BB0F661F771F881F28F0B23A6207730724
:10393000840728F0B25A620B730B840BE3959A95B7
:1039400072F7803830F49A95BB0F661F771F881F77
:10395000D2F790480C94C81D092E0394000C11F462
:10396000882352F0BB0F40F4BF2B11F460FF04C05A
:103970006F5F7F4F8F4F9F4F0895EF93E0FF07C01A
:10398000A2EA2AED3FE049EC5FEB0E94691A0E942F
:10399000AC1C0F90039401FC9058E9EDF0E00C94FE
:1039A000DB1D57FD9058440F551F59F05F3F71F0D4
:1039B0004795880F97FB991F61F09F3F79F0879596
:1039C0000895121613061406551FF2CF4695F1DF1F
:1039D00008C0161617061806991FF1CF86957105AF
:1039E000610508940895E894BB2766277727CB01E3
:1039F00097F908950E941F1C08F48FEF08959B010A
:103A0000AC0160E070E080E89FE30C943A1B0E94F8
:103A10001A1D0C94AC1C0E94731C38F00E947A1C76
:103A200020F0952311F00C94431C0C94491C112494
:103A30000C94F41C0E94D11C70F3959FC1F3950F58
:103A400050E0551F629FF001729FBB27F00DB11D22
:103A5000639FAA27F00DB11DAA1F649F6627B00DB2
:103A6000A11D661F829F2227B00DA11D621F739F9B
:103A7000B00DA11D621F839FA00D611D221F749FA9
:103A80003327A00D611D231F849F600D211D822FF0
:103A9000762F6A2F11249F5750409AF0F1F0882317
:103AA0004AF0EE0FFF1FBB1F661F771F881F915044
:103AB0005040A9F79E3F510580F00C94431C0C9494
:103AC000F41C5F3FE4F3983ED4F3869577956795B1
:103AD000B795F795E7959F5FC1F7FE2B880F911D6E
:103AE0009695879597F908959F930E94831C0F9050
:103AF00007FCEE5F0C94BD1C19F416F40C94491CE1
:103B00000C94C61D0E94D91CB8F39923C9F3B6F3CF
:103B10009F57550B87FF0E94D41D0024A0E640EA62
:103B2000900180585695979528F4805C660F771F12
:103B3000881F20F026173707480730F4621B730BE5
:103B4000840B202931294A2BA69517940794202508
:103B500031254A2758F7660F771F881F20F0261750
:103B60003707480730F4620B730B840B200D311DAF
:103B7000411DA09581F7B901842F9158880F969522
:103B8000879508959B01AC010C94071D9F3F31F070
:103B9000915020F4879577956795B795880F911D7B
:103BA0009695879597F9089591505040660F771F25
:103BB000881FD2F708959F938F937F936F93FF93FE
:103BC000EF939B01AC010E94071DEF91FF910E94B2
:103BD0004C1C2F913F914F915F910C94071D97FBC7
:103BE000072E16F4009407D077FD09D00E94031E1B
:103BF00007FC05D03EF4909581959F4F08957095F0
:103C000061957F4F0895AA1BBB1B51E107C0AA1FF6
:103C1000BB1FA617B70710F0A61BB70B881F991F6D
:103C20005A95A9F780959095BC01CD010895EE0FA6
:103C3000FF1F0590F491E02D09940F931F93CF93EC
:103C4000DF938230910510F482E090E0E0912B0741
:103C5000F0912C0730E020E0B0E0A0E0309799F43C
:103C60002115310509F44AC0281B390B24303105D0
:103C7000D8F58A819B816115710589F1FB019383D8
:103C80008283FE0111C04081518102811381481756
:103C90005907E0F04817590799F4109761F0129608
:103CA0000C93129713961C933296CF01DF91CF910C
:103CB0001F910F91089500932B0710932C07F4CFB9
:103CC0002115310551F04217530738F0A901DB01E6
:103CD0009A01BD01DF01F801C1CFEF01F9CF909347
:103CE0002C0780932B07CDCFFE01E20FF31F8193AA
:103CF00091932250310939832883D7CF2091290706
:103D000030912A07232B41F42091130130911401A3
:103D100030932A0720932907209111013091120135
:103D20002115310541F42DB73EB740911501509151
:103D30001601241B350BE0912907F0912A07E217A1
:103D4000F307A0F42E1B3F0B2817390778F0AC01BE
:103D50004E5F5F4F2417350748F04E0F5F1F50939B
:103D60002A0740932907819391939FCFF0E0E0E0E9
:103D70009CCFCF93DF930097E9F0FC013297138239
:103D80001282A0912B07B0912C07ED0130E020E0CA
:103D90001097A1F420813181820F931F2091290770
:103DA00030912A072817390709F061C0F0932A07D4
:103DB000E0932907DF91CF910895EA01CE17DF073D
:103DC000E8F54A815B819E0141155105B1F7E90192
:103DD000FB83EA8349915991C40FD51FEC17FD0766
:103DE00061F4808191810296840F951FE901998386
:103DF0008883828193819B838A83F0E0E0E012963E
:103E00008D919C9113970097B9F52D913C91119745
:103E1000CD010296820F931F2091290730912A0726
:103E20002817390739F6309751F510922C07109260
:103E30002B07B0932A07A0932907BCCFD383C28353
:103E400040815181840F951FC817D90761F44E5FD7
:103E50005F4F88819981480F591F518340838A8120
:103E60009B81938382832115310509F0B0CFF093B4
:103E70002C07E0932B079ECFFD01DC01C0CF1382FE
:083E80001282D7CFF894FFCFA6
:103E8800FFFFFFFF00E1000000000000100100003C
:103E98000000002D07800000C180810000000000A4
:103EA8000000BC053705DD05D2052306E105FF0541
:0C3EB8000000000022070A0586078507AD
:00000001FF
