:100000000C94F3030C941B040C941B040C941B041D
:100010000C941B040C941B040C941B040C941B04E4
:100020000C941B040C941B040C946A190C94D9199D
:100030000C941B040C941B040C941B040C941B04C4
:100040000C941B040C941B040C941B040C941B04B4
:100050000C941B040C941B040C941B040C9420198A
:100060000C941B040C941B040C941B040C941B0494
:100070000C941B040C941B040C941B040C941B0484
:100080000C941B040C941B040C941B040C941B0474
:100090000C941B040C941B040C941B040C941B0464
:1000A0000C941B040C941B040C941B04084AD73BAF
:1000B0003BCE016E84BCBFFDC12F3D6C74319ABD37
:1000C00056833DDA3D00C77F11BED9E4BB4C3E915B
:1000D0006BAAAABE000000803F05A84CCDB2D44E4A
:1000E000B93836A9020C50B9918688083CA6AAAA4C
:1000F0002ABE000000803F0003081F051F1F151BBC
:100100001F11111F110E1F15111F05011F111D1F9A
:10011000041F001F0010101F1F041B1F10101F06BC
:100120001F1F011F1F111F1F05071F311F1F051B49
:1001300017151D011F011F101F0F100F1F0C1F1B74
:10014000041B071C071915130C121E1F120C1E127C
:10015000120C121F0C1A14041F052E2A1E1F021C3B
:10016000001D00201D001F041A011F001E041E1E7A
:10017000021E1E121E3E120C0C123E1E020614120D
:100180000A020F121E101E0E100E1E081E1A041A4E
:100190002E281E1A12161F111F001F001D151711E1
:1001A000151F07041F17151D1F151D01011F1F1502
:1001B0001F17151F00170000100000000000003E70
:1001C0005B4F5B3E3E6B4F6B3E1C3E7C3E1C183CC7
:1001D0007E3C181C577D571C1C5E7F5E1C00183C23
:1001E0001800FFE7C3E7FF0018241800FFE7DBE76C
:1001F000FF30483A060E2629792926407F05050753
:10020000407F05253F5A3CE73C5A7F3E1C1C0808AE
:100210001C1C3E7F14227F22145F5F005F5F060973
:100220007F017F006689956A606060606094A2FFCC
:10023000A29408047E040810207E201008082A1CBE
:1002400008081C2A08081E101010100C1E0C1E0C8A
:1002500030383E3830060E3E0E060000000000002A
:10026000005F00000007000700147F147F14242A99
:100270007F2A12231308646236495620500008076B
:100280000300001C2241000041221C002A1C7F1C8C
:100290002A08083E0808008070300008080808088E
:1002A000000060600020100804023E5149453E00F5
:1002B000427F400072494949462141494D33181453
:1002C000127F1027454545393C4A494931412111A2
:1002D00009073649494936464949291E0000140094
:1002E00000004034000000081422411414141414B7
:1002F000004122140802015909063E415D594E7C15
:100300001211127C7F494949363E414141227F41C9
:1003100041413E7F494949417F090909013E414127
:1003200051737F0808087F00417F41002040413F12
:10033000017F081422417F404040407F021C027F21
:100340007F0408107F3E4141413E7F090909063E76
:100350004151215E7F091929462649494932030145
:100360007F01033F4040403F1F2040201F3F403857
:10037000403F631408146303047804036159494D32
:1003800043007F4141410204081020004141417F68
:1003900004020102044040404040000307080020DE
:1003A000545478407F2844443838444444283844DE
:1003B00044287F385454541800087E090218A4A415
:1003C0009C787F0804047800447D40002040403D34
:1003D000007F1028440000417F40007C04780478AE
:1003E0007C080404783844444438FC182424181841
:1003F000242418FC7C08040408485454542404049D
:100400003F44243C4040207C1C2040201C3C403089
:10041000403C44281028444C9090907C4464544CB8
:100420004400083641000000770000004136080013
:1004300002010204023C2623263C1EA1A161123ABD
:100440004040207A3854545559215555794121540A
:10045000547841215554784020545579400C1E520F
:1004600072123955555559395454545939555454B3
:10047000580000457C410002457D420001457C401A
:10048000F0292429F0F0282528F07C545545002037
:1004900054547C547C0A097F4932494949323248D4
:1004A000484832324A4848303A4141217A3A42403B
:1004B0002078009DA0A07D39444444393D4040400F
:1004C0003D3C24FF2424487E4943662B2FFC2F2BE0
:1004D000FF0929F620C0887E090320545479410081
:1004E00000447D413048484A32384040227A007A00
:1004F0000A0A727D0D19317D2629292F28262929DE
:10050000292630484D4020380808080808080808FF
:10051000382F10C8ACBA2F102834FA00007B000026
:1005200008142A142222142A14089500220095AADD
:10053000005500AAAA55AA55AA000000FF001010F5
:1005400010FF00141414FF001010FF00FF1010F033
:1005500010F0141414FC001414F700FF0000FF0046
:10056000FF1414F404FC141417101F10101F101F94
:100570001414141F00101010F0000000001F1010C1
:1005800010101F10101010F010000000FF101010BD
:10059000101010101010FF10000000FF140000FFDA
:1005A00000FF00001F10170000FC04F414141710C3
:1005B000171414F404F40000FF00F71414141414B6
:1005C0001414F700F7141414171410101F101F142C
:1005D0001414F4141010F010F000001F101F00008D
:1005E000001F14000000FC140000F010F01010FFB9
:1005F00010FF141414FF141010101F00000000F05E
:1006000010FFFFFFFFFFF0F0F0F0F0FFFFFF000032
:10061000000000FFFF0F0F0F0F0F38444438447CD9
:100620002A2A3E147E02020606027E027E026355DC
:100630004941633844443C04407E201E2006027E2B
:10064000020299A5E7A5991C2A492A1C4C7201723D
:100650004C304A4D4D303048784830BC625A463DA7
:100660003E494949007E0101017E2A2A2A2A2A445C
:10067000445F444440514A444040444A5140000091
:10068000FF0103E080FF000008086B6B083612369C
:100690002436060F090F060000181800000010107D
:1006A000003040FF0101001F01011E00191D17123B
:1006B000003C3C3C3C0000000000080B0002020231
:1006C00000000904000001020200000524001001DE
:1006D0000524010101042402060524060001070582
:1006E000810310004009040100020A000000070510
:1006F00002024000000705830240000004030904D1
:1007000012010002EF020140412336800001010284
:10071000030141726475696E6F204C4C4300417255
:100720006475626F7900F0F89C8E8783878E9CF8E1
:10073000F00000FEFF0303030303070EFCF80000B4
:10074000FEFF0303030303070EFCF80000FFFF0096
:10075000000000000000FFFF0000FEFF8383838392
:1007600083C7EE7C380000F8FC0E07030303070E76
:10077000FCF800003F7FE0C08080C0E07F3FFFFFCB
:1007800001010101010101FFFF0000FFFF0C0C0C42
:100790000C1C3E77E3C100007FFFC0C0C0C0C0E0BA
:1007A000703F1F00001F3F70E0C0C0C0E0703F1FDF
:1007B00000007FFFC1C1C1C1C1E3773E1C00001F23
:1007C0003F70E0C0C0C0E0703F1F000000000001AB
:1007D000FFFF01000000D5F08D14A1C881CFD9F131
:1007E000AF2000003E1C11241FBECFEFDAE0DEBFB9
:1007F000CDBF11E0A0E0B1E0EAE6F6E602C0059068
:100800000D92AE3AB107D9F72AE0AEEAB1E001C0E5
:100810001D92AA3DB207E1F713E0C3EFD3E004C095
:100820002197FE010E940832C23FD107C9F70E94FA
:10083000A71C0C9433330C940000480F592F511D02
:100840001416150684F5803891056CF597FF02C0E3
:1008500090E080E04138510514F040E850E0481B3A
:10086000FB01E770FF2721E001C0220FEA95EAF7BC
:1008700077FF02C0695F7F4FFB0133E0F595E79595
:100880003A95E1F7F695FE2FEE27F795E795E80FF5
:10089000F91FE05CFA4F415030F08191DF01119770
:1008A000822B8C93F8CF0895E0E4F5E0A0E0B8E067
:1008B00000800EBC8111012C1197A0FDFDCF01928B
:1008C000B9F70DB40895FC0180918304882311F1D8
:1008D0003FB7F89482E08093E9002091F200822FE4
:1008E00090E01816190614F481E090E0882339F09E
:1008F000289844E6409382044091F10040832223EB
:1009000039F02091F200211103C02BE62093E8007A
:100910003FBF08958FEF9FEF08952FB7F89483E0BE
:100920008093E9009091E800892F807295FF04C0C0
:100930009091F20080E4891B2FBF089580917A0482
:1009400081110DC082E08093760484E08093770467
:10095000109279041092780481E080937A0486E7FB
:1009600094E008953FB7F8948091720490917304D5
:10097000A0917404B091750426B5A89B05C02F3FC3
:1009800019F00196A11DB11D3FBFBA2FA92F982FB5
:100990008827BC01CD01620F711D811D911D42E0B0
:1009A000660F771F881F991F4A95D1F708958F9278
:1009B0009F92AF92BF92CF92DF92EF92FF926B0124
:1009C0007C010E94B2044B015C01C114D104E1041A
:1009D000F104B9F00E94B204681979098A099B09E7
:1009E000683E73408105910580F321E0C21AD10869
:1009F000E108F10888EE880E83E0981EA11CB11C66
:100A0000E4CFFF90EF90DF90CF90BF90AF909F909A
:100A10008F9008954091B0015091B1012091AE01A5
:100A20003091AF0142175307B4F49091E8009570EC
:100A3000E1F39091E80092FD19C08093F10080915C
:100A4000B0019091B10101968F739927892B19F408
:100A50008EEF8093E8008091B0019091B1010196F2
:100A60009093B1018093B00181E0089580E00895F2
:100A7000DF92EF92FF920F931F93CF93DF93D82EC5
:100A80008A01EB017B01E40EF51ECE15DF0559F05E
:100A9000D7FE12C0FE0184910E940A0521968111A1
:100AA000F4CF0FEF1FEFC801DF91CF911F910F918E
:100AB000FF90EF90DF9008958881EECF0F931F9302
:100AC000CF93DF931F92CDB7DEB782E0898342E4F4
:100AD00050E06AEB76E080E80E9438050E949E04B0
:100AE000DC0112960D911C910115110589F0D801B8
:100AF000ED91FC910280F381E02DBE016F5F7F4F8D
:100B0000C801099597FD04C0F80100851185ECCF57
:100B100089810F90DF91CF911F910F9108956150BE
:100B200030F02091F100FC0120830196F8CF289845
:100B300084E6809382040895AF92BF92CF92DF92B1
:100B4000EF92FF920F931F93CF93DF936C017B0182
:100B50008B01040F151FEB015E01AE18BF08C01713
:100B6000D10759F06991D601ED91FC910190F08186
:100B7000E02DC6010995892B79F7C501DF91CF9149
:100B80001F910F91FF90EF90DF90CF90BF90AF90AB
:100B900008958F929F92AF92BF92CF92DF92EF9281
:100BA000FF920F931F93CF93DF936C017B018A0118
:100BB00080910B01882309F45CC080918304882311
:100BC00009F457C08091B40180FF05C08091E00016
:100BD00082608093E000E801B12C8AEFA82E93E0B8
:100BE000892E2AE3922E209711F4BB20D9F10E947E
:100BF0008D0481110AC0AA94AA20D9F161E070E0A5
:100C000080E090E00E94D704EECF8C171D0611F013
:100C10000CF08C2F9FB7F8948092E9002091E800A7
:100C200025FD02C09FBFDFCF282F30E0C21BD30BB2
:100C3000F701815020F041914093F100FACFE20E8C
:100C4000F31EBB2021F09092E800B12CEBCF8091F5
:100C5000E80085FDE7CF9092E800BB24B39420978D
:100C600009F3F3CF5D9884E68093B3011016110663
:100C70003CF081E090E0F6019383828310E000E095
:100C8000C801DF91CF911F910F91FF90EF90DF90FE
:100C9000CF90BF90AF909F908F900895CF93DF93A8
:100CA0001F92CDB7DEB76983DC01ED91FC91028024
:100CB000F381E02D41E050E0BE016F5F7F4F099569
:100CC0000F90DF91CF91089583E08093E9008091A8
:100CD000F200882319F08AE38093E80008950E94C7
:100CE0008D0490E00895CF93DF931F92CDB7DEB7C8
:100CF000FC018485958597FD08C02FEF3FEF358770
:100D000024870F90DF91CF910895CE0101960E9424
:100D10006304019719F4898190E0F3CF8FEF9FEF7F
:100D2000F0CF0F931F93CF93DF931F92CDB7DEB712
:100D30008C01FC018485958597FF0BC0CE0101963F
:100D40000E946304019771F4898190E0F80195870E
:100D50008487F801848595850F90DF91CF911F914D
:100D60000F9108958FEF9FEFF1CFFC01848595855A
:100D700097FD0BC09FB7F89482E08093E9008091C3
:100D8000F2009FBF90E0019608959FB7F89482E02B
:100D90008093E9008091F2009FBF90E008954F9208
:100DA0005F926F927F928F929F92AF92BF92CF92FB
:100DB000DF92EF92FF920F931F93CF93DF934C013B
:100DC0005901FC2DC02FD0E0CE01880D991D1816B9
:100DD00019060CF067C09B012E0D311D121613066B
:100DE0000CF060C0603471050CF05CC04115510519
:100DF00009F458C0262F2770F22EDB0177FD1796D5
:100E000033E0B595A7953A95E1F73A2F77FF04C0FF
:100E1000FF2011F03FEF3A0F66277727681979090D
:100E200097FC02C070E060E0803891050CF44BC084
:100E300090E89819961BA32F032E000CBB0B1A2FBA
:100E400010953F3F0CF010E021E08E2D877009F4E3
:100E500020E0E694E694E694E20EAE0DB11D1997FB
:100E60001CF028E0E22EE31AE11A310F20E83203E9
:100E7000D0011124A80DB91DA60FB71F019F600D49
:100E8000711D1124460F571F0F2D0F2C000C110B35
:100E9000F33009F41CC1C8F4F13009F4D0C0F230C9
:100EA00009F47CC0DF91CF911F910F91FF90EF90DB
:100EB000DF90CF90BF90AF909F908F907F906F907A
:100EC0005F904F900895902FB5CFFA3FB1F1232F47
:100ED0002E0DFB3F39F7321729F3BD01605C7A4FC5
:100EE000D12CC12CC91608F0A4C0FA01EC0DFD1DCF
:100EF000E491F0E04F01002E02C0880C991C0A9486
:100F0000E2F737FD06C0FB018081E82CE0948E21DA
:100F10008083FF2061F0373054F45B01F0E8AF0EBE
:100F2000B11CE92CE094F50180818E218083FFEFD4
:100F3000CF1ADF0A6F5F7F4FD5CF232F2E0D3217C9
:100F400009F4B0CFBD01605C7A4FD12CC12CC91619
:100F500008F069C0FA01EC0DFD1DE491F0E04F01CD
:100F6000002E02C0880C991C0A94E2F737FD04C0D9
:100F7000FB01808188298083FF2051F0373044F4C1
:100F80005B01F0E8AF0EB11CF501808189298083F7
:100F9000FFEFCF1ADF0A6F5F7F4FD9CF6FEF70E09F
:100FA0000F2C02C0660F771F0A94E2F760957095C8
:100FB000772E232F2E0D321709F474CFFD01E05C3C
:100FC000FA4F6F01B12CA12CA91638F5FA01EA0DE0
:100FD000FB1DE491F0E02F01002E02C0440C551CD3
:100FE0000A94E2F737FD05C0F60180818623842943
:100FF0008083FF2059F037304CF44601F0E88F0E23
:10100000911CF4018081872185298083FFEFAF1A2D
:10101000BF0A8FEFC81AD80AD7CF3F5F4C0F5D1FAA
:10102000A058BF4FC8CF3F5F4C0F5D1FA058BF4FA8
:1010300086CF3F5F4C0F5D1FA058BF4F4CCF6A0D4E
:101040007B1D232F2E0D321709F42CCFFD01E05C00
:10105000FA4F6F01B12CA12CA91688F5FB01EA0DFE
:10106000FB1D8490912C002E02C0880C991C0A94C0
:10107000E2F780949094FA01EA0DFB1D6490712CC4
:10108000002E02C0660C771C0A94E2F737FD05C0FB
:10109000F6018081882186298083FF2049F037303E
:1010A0003CF4F601E058FF4F808189218729808335
:1010B000FFEFAF1ABF0A8FEFC81AD80ACDCF3F5F34
:1010C0004C0F5D1F6C0F7D1FA058BF4FBCCFC92EAA
:1010D000D12CFA01E60FF71FA05CBA4F00E810E030
:1010E0000C191D09CC19DD09BE01660F771F41E0FF
:1010F00050E06A010F2C01C0CC0C0A94EAF7592F7A
:101100002E2D792ECF93DF93ED01EF96EF96229659
:101110008590A590FF2059F08C9C4001AC9C50011B
:1011200037302CF4E880B094EB20E928E99233239F
:101130003AF0EC90A094EA20E828ED920C94A108F3
:1011400011965A9529F72A9551F0572D3395112468
:10115000E60FF11DA00FB11DC00FD11DD9CFDF913A
:10116000CF9111249FCE2D9A0895BC0190E080E08C
:101170000C94D7048FB18095807F669B88601C9B00
:101180008460089580E0E0E4F5E081118FEF0024B1
:1011900081938193819381930394D1F71092B70146
:1011A0001092B6011092BD011092BC010895CF9328
:1011B000C82F0E94BA08982F9C2381E09C1380E0DE
:1011C000CF91089580E00C94540480389105B8F4D0
:1011D00060347105A0F420E191E061FD94E060FDD0
:1011E000990F62FD9295687F269FD0011124A80F68
:1011F000A05CBA4F8C9140FF03C0892B8C9308955B
:1012000090958923FBCF2F923F924F925F926F92DE
:101210007F928F929F92AF92BF92CF92DF92EF9286
:10122000FF920F931F93CF93DF93EC018B017A0111
:101230006901C61AD70AD7FE03C0D194C194D10858
:1012400047018C1A9D0A97FE03C0919481949108DE
:101250008C149D0454F49E2D8F2D7901292F382F45
:101260009C2F8D2FE801092F182FEC16FD0654F442
:10127000902F812F8901292F382F9C2F8D2FE70147
:10128000E92EF82E17012C1A3D0A2901401A510A9D
:1012900057FE03C0519441945108310137FE03C0F9
:1012A0008FEF681A780A759467948FEF0217130707
:1012B0000CF481E0A82E880FBB08EC16FD06A4F004
:1012C00041E0BE01C8018C149D0414F0B801CE01A8
:1012D0000E94E5086418750877FE04C00A0D1B1DFE
:1012E000620C731C2196E9CFDF91CF911F910F9172
:1012F000FF90EF90DF90CF90BF90AF909F908F9036
:101300007F906F905F904F903F902F900895EF9255
:10131000FF920F931F93CF93DF937C018B01040FF8
:10132000111DEB0177FF02C0D0E0C0E0C80101341D
:10133000110514F080E490E0C817D9073CF441E0AF
:10134000BE01C7010E94E5082196F0CFDF91CF9141
:101350001F910F91FF90EF9008952F923F924F921F
:101360005F926F927F928F929F92AF92BF92CF9235
:10137000DF92EF92FF920F931F93CF93DF9300D0F2
:101380001F92CDB7DEB76C015B01242F30E03B83A9
:101390002A83440F4F5F621B730B0E94870901E091
:1013A00010E08A819B81081B190B1C013194219448
:1013B0003108220C331CF12CE12C66246394712C2F
:1013C0002A813B81E216F3060CF03FC017FD09C0ED
:1013D000215031093B832A8332E0230E311C020D58
:1013E000131D8FEFE81AF80A92E0690E711C060DC2
:1013F000171D8A81880F8F5F8983482F25012A81D5
:101400003B81421A530AB201C7018C0D9D1D0E94F7
:10141000870945018E189F08462DB4018A819B815A
:101420008C0D9D1D0E9487094981B201C6018E194C
:101430009F090E948709462DB401C6012A813B817C
:10144000821B930B0E948709BBCF0F900F900F90C8
:10145000DF91CF911F910F91FF90EF90DF90CF9090
:10146000BF90AF909F908F907F906F905F904F90C4
:101470003F902F9008958F929F92AF92BF92CF92FC
:10148000DF92EF92FF920F931F93CF93DF936D3014
:1014900089F0C090B601D090B7016A30D1F41092B3
:1014A000BD011092BC0188E0C80ED11CD092B701DA
:1014B000C092B60181E090E0DF91CF911F910F9132
:1014C000FF90EF90DF90CF90BF90AF909F908F9064
:1014D00008950091BC011091BD01E5E06E9FE0010F
:1014E0001124C654DE4F4801F12CF5E0E12CFF1623
:1014F00029F0CE010196FE01E490EC01B12CA12C63
:101500004E2D4170B6016A0D7B1DC4010E94E50895
:10151000E694FFEFAF1ABF0A88E0A816B10481F77E
:10152000F394EFEF8E1A9E0AF6E0FF12DECF0A5F09
:101530001F4F1093BD010093BC01BCCF80E090E031
:10154000A0E8B3E480935D0490935E04A0935F04ED
:10155000B093600480E090E0A0E2B2E4809359048C
:1015600090935A04A0935B04B0935C0410926904B6
:1015700010926A0410926B0410926C04109265042D
:10158000109266041092670410926804109261042D
:1015900010926204109263041092640408954F92B2
:1015A0005F926F927F928F929F92AF92BF92CF92F3
:1015B000DF92EF92FF920F931F93CF93DF93CDB7FC
:1015C000DEB764970FB6F894DEBF0FBECDBF2B0118
:1015D0003C01298B3A8B4B8B5C8BE982FA820B8323
:1015E0001C83AD82BE82CF82D8862BA93CA94DA98F
:1015F0005EA96BA57CA58DA59EA50E942E2E6B01D4
:101600007C012FA538A949A95AA969817A818B81C2
:101610009C810E942E2E69877A878B879C872FA1B9
:1016200038A549A55AA56FA578A989A99AA90E94A4
:101630002E2E6D877E878F87988B2BA93CA94DA96D
:101640005EA96D817E818F8198850E942E2E2D85C9
:101650003E854F8558890E94E4304B015C01298505
:101660003A854B855C85C701B6010E94E4309B0139
:10167000AC01C501B4010E942F2E69837A838B834C
:101680009C8320E030E0A9010E940D2F882309F4FB
:101690009DC02FA538A949A95AA9C301B2010E942A
:1016A0002E2E4B015C012BA93CA94DA95EA969898D
:1016B0007A898B899C890E942E2E2B013C01A501E1
:1016C0009401C701B6010E94E4306B017C01A301C3
:1016D00092016D857E858F8598890E94E4309B01FB
:1016E000AC01C701B6010E942F2E29813A814B819E
:1016F0005C810E94172F6B017C0120E030E0A90182
:101700000E94D73087FD62C020E030E040E85FE310
:10171000C701B6010E940D2F18160CF457C02D8179
:101720003E814F8158856BA97CA98DA99EA90E94F5
:101730002E2EA50194010E94E4304B015C01A3010F
:10174000920169857A858B859C850E94E4309B0196
:10175000AC01C501B4010E942F2E29813A814B8131
:101760005C810E94172F4B015C0120E030E0A90151
:101770000E94D73087FD2AC020E030E040E85FE3D8
:10178000C501B4010E940D2F181604F1A70196019E
:1017900060E070E080E89FE30E942E2EA501940196
:1017A0000E942E2E6B017C0120E030E0A9010E94F6
:1017B000D73087FD0BC011E020E030E040E85FE368
:1017C000C701B6010E940D2F18160CF410E0812FEE
:1017D00064960FB6F894DEBF0FBECDBFDF91CF91F8
:1017E0001F910F91FF90EF90DF90CF90BF90AF903F
:1017F0009F908F907F906F905F904F900895CF92C1
:10180000EF920F93CF93DF93EC018E816A3069F4EE
:101810009D819C836985860F8E8381E090E0DF91B6
:10182000CF910F91EF90CF9008956A3378F46033A1
:1018300008F051C0613209F450C09FE36E3291F05C
:1018400098859D5F8C81890F8C83E7CF6134C0F3CD
:101850006B3530F09FE9960F9A3190F799EB01C004
:101860009FEB960F61E0680F062E000C770BAC81A2
:101870000A2E000CBB0BE8EFF0E029EF30E08F817F
:10188000813069F50491F901E4904AEF50E0992321
:10189000D1F041E050E08E2D877011F450E040E02F
:1018A0002E2D269526952695240F352F311D029F26
:1018B000F001039FF00D11249E9FA0019F9F500DEA
:1018C000112446505F4F9AEFC92E30E020E0CD0141
:1018D0000E94CF06B5CF94E0C4CF9EE3C3CF04915E
:1018E000F901E4904AEF50E09923D1F041E050E053
:1018F0008E2D877011F450E040E02E2D2695269510
:101900002695240F352F311D029FF001039FF00D06
:1019100011249E9FA0019F9F500D112446505F4FA0
:101920008BEFC82ED2CF089590E080E008952F92DB
:101930003F924F925F926F927F928F929F92AF925F
:10194000BF92CF92DF92EF92FF920F931F93CF93AC
:10195000DF93CDB7DEB7E1970FB6F894DEBF0FBEC9
:10196000CDBF89AB788F6F8B298F3A8F4B8F5C8F70
:10197000ED8EFE8E0F8F18A328960EAD1FAD289703
:101980002A966EAC7FAC2A972C964EAC5FAC2C9707
:101990002E962EAC3FAC2E9760962EAD3FAD609745
:1019A0003A832983C601B5010E94122F6B837C8381
:1019B0008D839E83C601B5010E9451316F83788764
:1019C00089879A87B401990C880B990B0E94C12FC3
:1019D0004B015C01B801110F880B990B0E94C12FBC
:1019E0006B017C01B301770C880B990B0E94C12F0E
:1019F00069A37AA38BA39CA3B201550C880B990B06
:101A00000E94C12F6DA37EA38FA398A7B101330CB1
:101A1000880B990B0E94C12F69A77AA78BA79CA757
:101A200029813A81B901330F880B990B0E94C12F8C
:101A30006DA77EA78FA798AB2B813C814D815E81DE
:101A4000C501B4010E94E4302B013C012F8138858F
:101A500049855A85C701B6010E94E4309B01AC015B
:101A6000C301B2010E942E2E298D3A8D4B8D5C8DC3
:101A70000E942F2E0E94892F6F87788B898B9A8BDB
:101A80008F8598899A8389832F81388549855A85DE
:101A9000C501B4010E94E4304B015C012B813C8103
:101AA0004D815E81C701B6010E94E4309B01AC010B
:101AB000C501B4010E942F2E2D8D3E8D4F8D58A152
:101AC0000E942F2E0E94892F6B8B7C8B8D8B9E8B7F
:101AD0002B883C882B813C814D815E8169A17AA154
:101AE0008BA19CA10E94E4306B017C012F81388581
:101AF00049855A856DA17EA18FA198A50E94E430E9
:101B00009B01AC01C701B6010E942E2E298D3A8D92
:101B10004B8D5C8D0E942F2E0E94892F6B877C87B6
:101B20008D879E876B847C842F81388549855A8573
:101B300069A17AA18BA19CA10E94E4306B017C0178
:101B40002B813C814D815E816DA17EA18FA198A5E5
:101B50000E94E4309B01AC01C701B6010E942F2E08
:101B60002D8D3E8D4F8D58A10E942F2E0E94892FC2
:101B70006B012B012B813C814D815E8169A57AA58A
:101B80008BA59CA50E94E4304B015C012F81388518
:101B900049855A856DA57EA58FA598A90E94E43038
:101BA0009B01AC01C501B4010E942E2E298D3A8DF6
:101BB0004B8D5C8D0E942F2E0E94892F4B018B0133
:101BC0002F81388549855A8569A57AA58BA59CA55D
:101BD0000E94E4306F83788789879A872B813C81C4
:101BE0004D815E816DA57EA58FA598A90E94E430E8
:101BF0009B01AC016F81788589859A850E942F2E83
:101C00002D8D3E8D4F8D58A10E942F2E0E94892F21
:101C10006F83788789879A872F8138853C832B83C8
:101C20008F89988D0797B1F199A9911137C03F8994
:101C300030FF09C096014B855C856B897C898F8557
:101C400098890E9403098F8981FF08C02F813885F8
:101C5000A401B6018B859C850E9403099F8992FD92
:101C60003FC1E1960FB6F894DEBF0FBECDBFDF9146
:101C7000CF911F910F91FF90EF90DF90CF90BF9089
:101C8000AF909F908F907F906F905F904F903F901C
:101C90002F90089529A9222309F411C14214530455
:101CA0000CF03FC18B819C81821593050CF452C1CD
:101CB000922D832D1201492E582E99818A817A8284
:101CC0006982692E782E2B813C8122163306D1F54C
:101CD00089819A816816790634F499818A817A8299
:101CE0006982692E782E29813A810217130734F010
:101CF000601671060CF4380109811A8130E423164C
:101D0000310408F0AECF41E0460D401BB101C801DF
:101D1000E1960FB6F894DEBF0FBECDBFDF91CF9135
:101D20001F910F91FF90EF90DF90CF90BF90AF90F9
:101D30009F908F907F906F905F904F903F902F90EB
:101D40000C941D04902F812F09811A8199838A8315
:101D50009B818C813C822B82292E382E9301201B63
:101D6000310B3C8B2B8BC2012B813C81821B930B53
:101D700098878F8389809A80801A910AC101821B7B
:101D8000930B9C878B8729813A81261937093A83DF
:101D90002983C10184199509988F8F8B42145304AC
:101DA00009F444C0920121503109388B2F87EB8010
:101DB000FC80D12CC12CB12CA12C8F8598898E153B
:101DC0009F05BCF1C5016F8178850E94D1319B01CF
:101DD000200F311FC6016B857C850E94D131600FB9
:101DE000711F8B899C89A80EB91EC80CD91C62175B
:101DF00073071CF4922F9B01692F90E4E916F104FC
:101E000038F46F5F462F421BB701C9010E941D04C1
:101E10002FEFE21AF20AD1CF6F8478888B859C85E8
:101E20009A83898316014B885C8898CF588A4F869D
:101E3000BECFC7018419950929813A81829F60012B
:101E4000839FD00C929FD00C1124C7012B813C8121
:101E5000821B930B889D5001899DB00C989DB00CFE
:101E600011242E143F040CF4FCCEC6016F89788D2A
:101E70000E94D1319B01260D371DC5016B857C85E4
:101E80000E94D131600F711F89819A81C80ED91EBD
:101E9000A80CB91C621773071CF4922F9B01692FC1
:101EA00090E4E916F10438F46F5F462F421BB70146
:101EB000C9010E941D042FEFE21AF20AD2CF960147
:101EC0004B855C856B897C898F8598890E94030985
:101ED0002F813885A401B6018B859C850E9403095A
:101EE0002B893C894F8558896F817885C401E1969B
:101EF0000FB6F894DEBF0FBECDBFDF91CF911F911B
:101F00000F91FF90EF90DF90CF90BF90AF909F9098
:101F10008F907F906F905F904F903F902F900C9498
:101F200003092B813C81241535050CF0CCCE2B8187
:101F30003C81221533050CF46FCF0B851C856F8413
:101F400078889A8289824B885C882F803884DC82EA
:101F5000CB82AECE8B819C81841595050CF4FECE90
:101F60000B851C853401DC82CB824F805884F6CEF1
:101F70004F925F926F927F928F929F92AF92BF9299
:101F8000CF92DF92EF92FF920F931F93CF93DF9345
:101F9000CDB7DEB7A8970FB6F894DEBF0FBECDBFA2
:101FA000698F7A8F8B8F9C8F2D8F3E8F4F8F58A389
:101FB000C801B7012BAD3CAD4DAD5EAD298B3A8B61
:101FC0004B8B5C8B20E030E040E05FE30E94E4302C
:101FD00069877A878B879C8720E030E040E05FE369
:101FE000C601B5010E94E4306D877E878F87988B8C
:101FF00049845A846B847C8477FA709477F870945F
:10200000DC01CB01B05889839A83AB83BC83698997
:102010007A898B899C890E94122F6D837E838F839E
:10202000988769897A898B899C890E9451316B01D3
:102030007C012D813E814F815885C301B2010E94F0
:10204000E430698B7A8B8B8B9C8BA701960169811D
:102050007A818B819C810E94E4306D8B7E8B8F8B8B
:10206000988FA7019601C301B2010E94E43069A3D1
:102070007AA38BA39CA32D813E814F8158856981D2
:102080007A818B819C810E94E43069837A838B837F
:102090009C832D813E814F81588569857A858B850A
:1020A0009C850E94E4302B013C01A70196016985C3
:1020B0007A858B859C850E94E4304B015C01A701E9
:1020C00096016D857E858F8598890E94E4306B012D
:1020D0007C012D813E814F8158856D857E858F8560
:1020E00098890E94E4306D837E838F8398872D8941
:1020F0003E894F89588D69897A898B899C890E948C
:102100002E2E298D3A8D4B8D5C8D0E942F2E0E9494
:10211000892F69877A878B879C8729813A814B81B0
:102120005C8169A17AA18BA19CA10E942F2E2D8D8B
:102130003E8D4F8D58A10E942F2E0E94892F6D87B2
:102140007E878F87988B2D893E894F89588DC30153
:10215000B2010E942E2E298D3A8D4B8D5C8D0E94EE
:102160002F2E0E94892F6D8B7E8B8F8B988FA501D0
:10217000940169817A818B819C810E942F2E2D8D03
:102180003E8D4F8D58A10E942F2E0E94892F69836A
:102190007A838B839C83A7019601C301B2010E94BD
:1021A0002E2E298D3A8D4B8D5C8D0E942F2E0E94F4
:1021B000892F6DA37EA38FA398A72D813E814F8188
:1021C0005885C501B4010E942F2E2D8D3E8D4F8D57
:1021D00058A10E942F2E0E94892F4B01A701960122
:1021E00069897A898B899C890E942E2E298D3A8D46
:1021F0004B8D5C8D0E942F2E0E94892F6B012D81AB
:102200003E814F81588569A17AA18BA19CA10E9432
:102210002F2E2D8D3E8D4F8D58A10E942F2E0E9466
:10222000892F2B0129813A814D895E896D857E85B3
:1022300089859A850E94030994014DA15EA1698157
:102240007A818D899E890E9403099201A601B401B9
:102250008DA19EA10E9403092D853E8549855A8541
:10226000B201C601A8960FB6F894DEBF0FBECDBF6F
:10227000DF91CF911F910F91FF90EF90DF90CF9062
:10228000BF90AF909F908F907F906F905F904F9096
:102290000C940309CF92DF92EF92FF926B017C01C5
:1022A000C114D104E104F10441F00E945D2DA701A5
:1022B00096010E94CB2D6B017C01C701B601FF90F6
:1022C000EF90DF90CF9008952F923F924F925F92C0
:1022D0006F927F928F929F92AF92BF92CF92DF9236
:1022E000EF92FF920F931F93CF93DF9300D000D014
:1022F00000D0CDB7DEB780E790E00E940E329E831B
:102300008D838C011C01712C612C6BE070E080E0EE
:1023100090E00E944A116550710981099109660D8A
:10232000771D77FFF4C068597E4F072E000C880B8D
:10233000990B0E94C12F25E33AEF4EE85CE30E941F
:10234000E4304B015C0161E177E280E090E00E94C3
:102350004A110E94C12F20E030E44CE156E40E9473
:10236000172F20E030E040EA51E40E94E43020E002
:1023700030E040E251E40E942F2E6B017C01C50148
:10238000B4010E94122FA70196010E94E4306983D4
:102390007A838B839C83C501B4010E945131A701CC
:1023A00096010E94E4306B017C0161E177E280E0FC
:1023B00090E00E944A110E94C12F20E030E44CE1DD
:1023C00056E40E94172F20E030E040E850E40E94DD
:1023D000E43020E030E040E050E40E942E2E2981DD
:1023E0003A814B815C810E942F2E4B015C0161E19F
:1023F00077E280E090E00E944A11F10180829182B0
:10240000A282B3820E94C12F20E030E44CE156E466
:102410000E94172F20E030E040E850E40E94E430B2
:1024200020E030E040E050E40E942E2EA70196010B
:102430000E942F2EF1016483758386839783F9E1CF
:102440006F0E711C88E0280E311CEEE56E16E1E07F
:102450007E0609F05ACFAD80BE80F0E7AF0EB11C0A
:10246000C12CD12C760126013701F8012081318160
:1024700042815381C301B2010E942F2E2B013C01E6
:10248000F8012481358146815781C701B6010E9438
:102490002F2E6B017C01085F1F4FA016B10629F794
:1024A00020E030E040E651E4C301B2010E94172F62
:1024B0000E94892F70933F0560933E0520E030E035
:1024C00040E651E4C701B6010E94172F0E94892FF0
:1024D00070933D0560933C058D819E8126960FB6D5
:1024E000F894DEBF0FBECDBFDF91CF911F910F914A
:1024F000FF90EF90DF90CF90BF90AF909F908F9024
:102500007F906F905F904F903F902F900895683626
:1025100081E078070CF409CF6856714006CFCF935D
:10252000DF9360E072E080E090E00E944A11C6EF25
:10253000D3E00E94C12F688379838A839B8360E004
:1025400072E080E090E00E944A110E94C12F6C83EB
:102550007D838E839F8362E070E080E090E00E9444
:102560004A1179876887DF91CF9108952F923F9222
:102570004F925F926F927F928F929F92AF92BF9293
:10258000CF92DF92EF92FF920F931F93CF93DF933F
:10259000CDB7DEB72E970FB6F894DEBF0FBECDBF16
:1025A00010923B0510923A0503E010E06EE070E0F7
:1025B00080E090E00E944A11209138053091390561
:1025C0003A872987FB0183E0EE0FFF1F8A95E1F729
:1025D000E20FF31F208131814281538129833A83A5
:1025E0004B835C8324813581468157812D833E83D3
:1025F0004F835887CB0101966EE070E00E94D13185
:1026000023E0880F991F2A95E1F749855A85480FDD
:10261000591F5A87498729813A814B815C81E98515
:10262000FA8560817181828193810E942E2E2B0117
:102630003C012D813E814F815885E985FA85648171
:102640007581868197810E942E2E6B017C01A301EA
:1026500092010E94AE2E69877A878B879C870E94A1
:102660005D2D20E137E240E050E00E94CB2D0E943A
:10267000C12F20E030E44CE156E40E94172F4B01BB
:102680005C0120903A0530903B054EE0429D900160
:10269000439D300D11242256354F3E872D87AC01C6
:1026A0009B01C301B2010E94E43029813A814B8130
:1026B0005C810E942F2E20E030E040E853E40E942D
:1026C0002F2EED85FE856083718382839383A50120
:1026D0009401C701B6010E94E4302D813E814F81F3
:1026E00058850E942F2E20E030E040E853E40E94FD
:1026F0002F2EED85FE8564837583868397832BED6E
:102700003FE049EC5FE369857A858B859C850E9473
:102710002F2EED85FE856087718782879387FFEF77
:102720002F1A3F0A30923B0520923A0501501109B9
:1027300009F03CCF2E960FB6F894DEBF0FBECDBF8A
:10274000DF91CF911F910F91FF90EF90DF90CF908D
:10275000BF90AF909F908F907F906F905F904F90C1
:102760003F902F9008950C94B52DFB01019000200F
:10277000E9F73197AF01461B570BDC01ED91FC9156
:102780000280F381E02D09948F929F92AF92BF92C5
:10279000EF92FF920F931F93CF93DF93CDB7DEB7E6
:1027A000A1970FB6F894DEBF0FBECDBF7C01FA0132
:1027B000CB0119A2223008F42AE08E010F5D1F4FD1
:1027C000822E912CB12CA12CBF01A50194010E9455
:1027D000FD2DF901CA016A300CF5605DD8016E93D8
:1027E0008D01232B242B252B79F790E080E0109787
:1027F00021F0BD01C7010E94B513A1960FB6F89450
:10280000DEBF0FBECDBFDF91CF911F910F91FF9023
:10281000EF90BF90AF909F908F900895695CDECF4E
:10282000CF92DF92EF92FF92CF93DF936B017C0107
:102830006DE282ED9AE00E943B0AEC0144275527A5
:10284000BA014C195D096E097F092AE082ED9AE010
:102850000E94C4138C0F9D1FDF91CF91FF90EF90CA
:10286000DF90CF900895AC01990F660B770B77FF3F
:1028700004C0CB01BA010C9410142AE082ED9AE056
:102880000C94C4134F925F926F927F928F929F929B
:10289000AF92BF92CF92DF92EF92FF920F931F936E
:1028A000CF936B017C01742EAC019B010E94A3317C
:1028B0006CE471E0811126C046015701E894B7F835
:1028C0002FEF3FEF4FE75FE7C501B4010E94A3314F
:1028D00081110CC02FEF3FEF4FE75FE7C501B40157
:1028E0000E940D2F60E571E0181664F02FEF3FEFA6
:1028F0004FE75FE4C701B6010E94D7301816ACF469
:1029000064E571E080E499E0CF911F910F91FF9011
:10291000EF90DF90CF90BF90AF909F908F907F907F
:102920006F905F904F900C94B5132FEF3FEF4FE7F0
:102930005FECC701B6010E940D2F87FDE1CF20E0BB
:1029400030E0A901C701B6010E940D2F10E000E0A0
:1029500087FF0AC06DE280E499E00E944E068C0178
:10296000F7FAF094F7F8F094C0E060E070E080E0EF
:102970009FE37C1641F020E030E040E251E40E9409
:10298000172FCF5FF6CFA70196010E942F2E2B01A4
:102990003C010E94902F4B015C012AE0BC01A40184
:1029A00080E499E00E94C4137C01E00EF11ECC2368
:1029B000D1F1C501B4010E94BF2F9B01AC01C3013D
:1029C000B2010E942E2E4B015C016EE280E499E080
:1029D0000E944E06E80EF91EC15028F120E030E0BA
:1029E00040E251E4C501B4010E94E4302B013C01F6
:1029F0000E94902F4B01B12CA12C2AE0B501A4011B
:102A000080E499E00E94C413E80EF91EC501B401E8
:102A10000E94BF2F9B01AC01C301B2010E942E2E68
:102A20004B015C01D9CFC701CF911F910F91FF904E
:102A3000EF90DF90CF90BF90AF909F908F907F905E
:102A40006F905F904F900895CF93DF9342E00E9484
:102A50004214EC0168E571E080E499E00E94B5134E
:102A60008C0F9D1FDF91CF9108950F931F93CF93EC
:102A7000DF93EC010E94B5138C0168E571E0CE0193
:102A80000E94B513800F911FDF91CF911F910F917D
:102A900008952F923F924F925F926F927F928F9202
:102AA0009F92AF92BF92CF92DF92EF92FF920F93DD
:102AB0001F93CF93DF93CDB7DEB7A2970FB6F894ED
:102AC000DEBF0FBECDBF109237051092360535E040
:102AD000232E312C0EE010E06EE070E080E090E0FC
:102AE0000E944A1120913805309139053A8729878B
:102AF000FB0183E0EE0FFF1F8A95E1F7E20FF31F62
:102B000020813181428153812D833E834F835887B9
:102B1000248135814681578129833A834B835C83A5
:102B2000CB010196B8010E94D13123E0880F991F93
:102B30002A95E1F749855A85480F591F5A874987D1
:102B40002D813E814F815885A985BA856D917D91F2
:102B50008D919C910E942E2E2B013C0129813A815E
:102B60004B815C81E985FA856481758186819781D5
:102B70000E942E2E6B017C01A30192010E94AE2EB9
:102B800069877A878B879C870E945D2D20E137E2D9
:102B900040E050E00E94CB2D0E94C12F20E030E4A5
:102BA0004CE156E40E94172F4B015C0180913605E1
:102BB0009091370546E3489F9001499F300D1124BD
:102BC0002057364F3E872D87A5019401C301B201DE
:102BD0000E94E4302D813E814F8158850E942F2E26
:102BE00020E030E040E853E40E942F2EAD85BE8502
:102BF0006D937D938D939C931397A5019401C701C9
:102C0000B6010E94E43029813A814B815C810E94A7
:102C10002F2E20E030E040E853E40E942F2EED8577
:102C2000FE85648375838683978329853A854B85E2
:102C30005C85208B318B428B538B68E770E080E0A2
:102C400090E00E944A112091360530913705B6E395
:102C5000B29FF001B39FF00D1124E057F64F758B32
:102C6000648BC90101969093370580933605E1E0A6
:102C70002E1A310809F030CF20E939E03AA329A310
:102C8000312C212C80913605909137052816390674
:102C90000CF01AC2A9A1BAA114968D919D910D9024
:102CA000BC91A02D8D8F9E8FAF8FB8A320E030E018
:102CB00040E05FE3E9A1FAA1608571858285938593
:102CC0000E94E4304B015C0120E030E040E05FE333
:102CD000A9A1BAA11C966D917D918D919C911F9790
:102CE0000E94E43069837A838B839C83A5019401DD
:102CF00050582D833E834F835887DC01CB01B05859
:102D000089879A87AB87BC87A9A1BAA150964D90B5
:102D10005D906D907C905397C301B2010E94122F79
:102D20006B017C01C301B2010E9451312B013C01B6
:102D3000A70196016D817E818F8198850E94E43084
:102D40006D877E878F87988BA301920169857A852D
:102D50008B859C850E94E430698B7A8B8B8B9C8B56
:102D6000A30192016D817E818F8198850E94E4305C
:102D70006D8B7E8B8F8B988FA701960169857A85E5
:102D80008B859C850E94E4306D837E838F8398873A
:102D9000A7019601C501B4010E94E43069877A87D2
:102DA0008B879C87A3019201C501B4010E94E43086
:102DB000698F7A8F8B8F9C8FA301920169817A81B1
:102DC0008B819C810E94E4304B015C01A70196013C
:102DD00069817A818B819C810E94E43069837A8346
:102DE0008B839C8320E030E0A901C701B6010E94DB
:102DF000E430A50194010E942F2EE9A1FAA12081BF
:102E00003181428153810E942F2E6B017C01A9A147
:102E1000BAA1CD92DD92ED92FC92139720E030E0C2
:102E2000A901C301B2010E94E4302D813E814F818E
:102E300058850E942F2E2D8D3E8D4F8D58A10E94BA
:102E40002F2E2B013C01E9A1FAA144825582668212
:102E5000778229893A894B895C896D857E858F8542
:102E600098890E942E2EA70196010E942F2EA9A1BB
:102E7000BAA156966D937D938D939C9359972D810E
:102E80003E814F8158856D897E898F89988D0E94FA
:102E90002F2EA30192010E942F2EE9A1FAA1628F89
:102EA000738F848F958F29893A894B895C896985CD
:102EB0007A858B859C850E942E2EA70196010E9403
:102EC0002F2EA9A1BAA15E966D937D938D939C93AD
:102ED0009197298D3A8D4B8D5C8D6D817E818F818F
:102EE00098850E942F2EA30192010E942F2EE9A106
:102EF000FAA162A373A384A395A3A5019401698594
:102F00007A858B859C850E942E2EA70196010E94B2
:102F10002F2EA9A1BAA196966D937D938D939C9324
:102F2000999729813A814B815C81698D7A8D8B8D4E
:102F30009C8D0E942F2EA30192010E942F2EE9A1A9
:102F4000FAA162A773A784A795A7A50194016D852F
:102F50007E858F8598890E942E2EA70196010E945A
:102F60002F2EA9A1BAA19E966D937D938D939C93CC
:102F7000D19729813A814B815C816D897E898F89C6
:102F8000988D0E942F2EA30192010E942F2EE9A15D
:102F9000FAA162AB73AB84AB95AB6BE571E080E4F7
:102FA00099E00E94351563E671E080E499E00E94A3
:102FB0003515A9A1BAA16D917D918D919C9142E0A9
:102FC0000E94421468E671E080E499E00E94B51323
:102FD000E9A1FAA164817581868197810E942415F7
:102FE0006CE671E080E499E00E943515A9A1BAA1D0
:102FF00056966D917D918D919C91599742E00E94DA
:10300000421468E671E080E499E00E94B513E9A1FA
:10301000FAA1628D738D848D958D0E942415A9A1CE
:10302000BAA15E966D917D918D919C91919742E0B0
:103030000E94421468E671E080E499E00E94B513B2
:10304000E9A1FAA162A173A184A195A10E9424150E
:10305000A9A1BAA196966D917D918D919C91999718
:1030600042E00E94421468E671E080E499E00E9428
:10307000B513E9A1FAA162A573A584A595A50E943F
:103080002415A9A1BAA19E966D917D918D919C91D7
:10309000D19742E00E94421468E671E080E499E032
:1030A0000E94B513E9A1FAA162A973A984A995A9FF
:1030B0000E942415FFEF2F1A3F0A29A13AA12A5C8A
:1030C0003F4F3AA329A3DECDE4E8F4E010827196E5
:1030D00035E0EE32F307D1F7A2960FB6F894DEBFD3
:1030E0000FBECDBFDF91CF911F910F91FF90EF9059
:1030F000DF90CF90BF90AF909F908F907F906F9018
:103100005F904F903F902F9008950F931F93CF9310
:10311000DF9380910D0190910E0101971816190609
:1031200044F590930E0180930D010E949E0A109227
:103130000004109211041092220410923304109291
:103140004404C0E9D9E010E000E080913605909198
:103150003705081719070CF066C068E770E080E0D3
:1031600090E00E944A117D8B6C8B0F5F1F4FE6969B
:10317000ECCF83E090E090930E0180930D0180E20C
:103180009EE49093100180930F01109258041092C6
:1031900057040E94C2088AE090E09093BD0180939A
:1031A000BC018EE190E09093B7018093B60165E792
:1031B00071E082ED9AE00E94351560E871E082EDE1
:1031C0009AE00E94351561E971E082ED9AE00E9473
:1031D00035150E94E20868EE73E080E090E00E94FE
:1031E000D70480915604809355040E94BA088093B6
:1031F00056040E94BA088823A1F30E94B204611504
:1032000071058105910511F00E94AC2D0E94641199
:1032100090933905809338050E94B6120E94491593
:103220000E948F1282CFE4E8F4E01082719685E06C
:10323000EE32F807D1F7DF91CF911F910F910895EA
:103240001F920F920FB60F9211242F933F938F93DB
:103250009F93AF93BF9380916E0490916F04A09160
:103260007004B091710430916D0423E0230F2D3769
:1032700058F50196A11DB11D20936D0480936E0435
:1032800090936F04A0937004B093710480917204C2
:1032900090917304A0917404B09175040196A11DDE
:1032A000B11D8093720490937304A0937404B0933F
:1032B0007504BF91AF919F918F913F912F910F9086
:1032C0000FBE0F901F90189526E8230F0296A11DA0
:1032D000B11DD2CF1F920F920FB60F9211248F9370
:1032E0009F938091E1009091E100937F9093E100A2
:1032F00083FF0FC01092E90091E09093EB001092D1
:10330000EC0092E39093ED001092830498E0909388
:10331000F00082FF22C093E09093E9009091F200C8
:10332000992319F09AE39093E8009091B3019923BF
:1033300041F09091B30191509093B301911101C06C
:103340005D9A90918204992341F09091820491506A
:1033500090938204911101C0289A84FF18C0809133
:10336000E2008E7E81608093E2008091E1008F7E9A
:103370008093E1008091B4018E7E80618093B401DE
:103380009F918F910F900FBE0F901F90189580FF07
:10339000F7CF8091E2008E7E80618093E200809181
:1033A000E1008E7E8093E1008091B4018E7E816089
:1033B000E5CF1F920F920FB60F921124CF92DF929A
:1033C000EF92FF920F931F932F933F934F935F932F
:1033D0006F937F938F939F93AF93BF93EF93FF93DD
:1033E000CF93DF93CDB7DEB76C97DEBFCDBF109222
:1033F000E9008091E80083FF25C068E0CE01459692
:103400000E948F0582EF8093E8008D8987FF39C085
:103410009091E80090FFFCCF982F907609F034C18E
:103420009E894F89588D2F89F88C911131C0803831
:1034300061F58091B5018093F1001092F1008EEF5B
:103440008093E8006C960FB6F894DEBF0FBECDBF38
:10345000DF91CF91FF91EF91BF91AF919F918F91AC
:103460007F916F915F914F913F912F911F910F919C
:10347000FF90EF90DF90CF900F900FBE0F901F90B6
:1034800018959EEF9093E800C7CF1092F100D5CF2A
:10349000913059F48111D3CF4130510581F680919B
:1034A000B5018D7F8093B501CACF933049F4811166
:1034B000C6CF4130510519F68091B5018260F2CF37
:1034C000953041F48091E80080FFFCCF2068209384
:1034D000E300B5CF963009F0A9C00B8D1C8D22E01A
:1034E0001092E9001092B1011092B001F2122EC0B8
:1034F0001092AF011092AE010E945E051F8299E00A
:103500009983FA8291E09E8390EA98879AEF99874F
:103510002091B0013091B101275F3F4F3C832B8355
:103520008D831092E9001092B1011092B0011093B6
:10353000AF010093AE0149E050E0BE016F5F7F4FE5
:1035400080E00E9438050E945E0579CF1093AF019C
:103550000093AE010E949E04DC0112960D911C9115
:103560000115110509F451C1D801ED91FC910480B8
:10357000F581E02DBE016B5E7F4FC8010995009774
:1035800009F03EC1F80100851185EACFF3E0FF1292
:103590000EC08F89882309F440C0823061F440E86E
:1035A00067E08EE197E00E940B1C811148CF81E219
:1035B0008093EB0047CF813029F440E86BE082E153
:1035C00097E0F1CF833099F70E949E04DC011296B8
:1035D000ED90FC908E010F5F1F4F6801E114F10424
:1035E00079F0D701ED91FC910680F781E02DB801CB
:1035F000C7010995080F111DF701E084F184EECF92
:10360000D8011C92F60101900020E9F73197BF0123
:103610006C197D0940E0C601C6CF6CEF76E0FB0176
:10362000449150E080E80E94380509CF973009F4B2
:10363000BECF983021F481E08093F10000CF993023
:1036400009F0FDCE837009F0B2CFECE1F1E081E04A
:1036500031E096E32191222371F08093E9003093C9
:10366000EB00DF0111972C912093EC009093ED007B
:103670008F5F873079F78EE78093EA001092EA0037
:103680008F8980938304DBCE8B8D9C8D1092E90013
:103690001092B1011092B0019093AF018093AE01EE
:1036A000898D811192C08E899D89913A49F4813228
:1036B00009F07DCF47E050E064E071E080E0B3CFF7
:1036C000913209F074CF833269F48F89988DB0E01C
:1036D000A0E08093000190930101A0930201B093B8
:1036E0000301ADCE803269F48091E80082FFFCCF07
:1036F00067E084E091E00E948F058BEF8093E80003
:103700009ECE823209F09BCE8F8980930B01EEEF23
:10371000FFE7859194918B3F9C4D51F1E0E0F8E0FB
:103720008091040190910501A0910601B0910701DB
:10373000803B9440A105B105F1F480910B0180FD1F
:103740001AC0EE3F8AE0F80789F587E797E791838B
:103750008083809160008093B20188E19BE00FB686
:10376000F894A895809360000FBE9093600067CE98
:10377000EEEFFAE0D5CF808191818737974709F046
:103780005ECEA895809160008861809360008091F2
:10379000B20180936000EE3F2AE0F20789F0809149
:1037A000FE0A9091FF0A9183808349CE80819181A6
:1037B0008737980751F29093FF0A8093FE0AC5CF8E
:1037C0001092FF0A1092FE0A3ACE0E949E04DC017B
:1037D00012960D911C910115110509F4E8CED8013E
:1037E000ED91FC910190F081E02DBE016B5E7F4F69
:1037F000C8010995811123CEF80100851185EBCF11
:10380000181619060CF41BCED2CEF1E0FF12BECE74
:1038100060E077E004CFEF92FF920F931F93CF9376
:10382000DF93F82E192FE62E042F81E0860F880FE4
:103830000E940A0583E00E940A05CF2DD12FEC0ECD
:10384000FD2EF11CCE15DF05B9F007FF13C0FE01F8
:1038500084910E940A05182F80E00E940A058123A6
:1038600021968111EFCFDF91CF911F910F91FF90A2
:10387000EF9008958881EDCF81E0F5CF0F931F93EE
:10388000109243091092420988EE93E0A0E0B0E064
:103890008093440990934509A0934609B093470942
:1038A00086E291E090934109809340098FEF9FEF6A
:1038B00090934D0980934C091092D50A1092D40A26
:1038C00084E491E09093D30A8093D20A1092CB0AB9
:1038D0001092CA0A88E391E09093C90A8093C80ABB
:1038E00088E08093D10A81E08093D00A1092CD0ABB
:1038F0001092CE0A1092CC0A8093CF0A84EC99E001
:103900009093AB0A8093AA0A9093B90A8093B80A5D
:103910009093C70A8093C60AE0E9F9E08EE99AE03D
:1039200000E010E020E830E440E050E060E071E4C6
:103930000087118722873387448755876687778773
:10394000F6968E179F07A1F71F910F910895CF93B9
:10395000DF93CDB7DEB7EA970FB6F894DEBF0FBEA0
:10396000CDBF789484B5826084BD84B5816084BD08
:1039700085B5826085BD85B5816085BD80916E000D
:10398000816080936E00109281008091810082603E
:10399000809381008091810081608093810080917B
:1039A000800081608093800080919100826080938C
:1039B00091008091910081608093910080919000AE
:1039C0008160809390008091C10084608093C100E9
:1039D0008091C10082608093C1008091C1008160AC
:1039E0008093C1008091C30081608093C300809167
:1039F000C00082608093C0008091C200816080938B
:103A0000C20080917A00846080937A0080917A006D
:103A1000826080937A0080917A00816080937A003E
:103A200080917A00806880937A00109283041092CB
:103A3000B5011092B4018091D70081608093D700C6
:103A400080EA8093D80089B5806189BD89B582609C
:103A500089BD09B400FEFDCF61E070E080E090E038
:103A60000E94D7048091D8008F7C80618093D80019
:103A70008091E000807F8093E0008091E1008E7E65
:103A80008093E1008DE08093E200559A209A8FEFB9
:103A90009FEF90934D0980934C0960ED77E080E0B3
:103AA00090E00E94D70481EC80937C0085B1806F08
:103AB00085B984B1877E84B984B1876E84B95E9AF2
:103AC0005F988AB1806D8AB9769A6E9881B3806F5B
:103AD00081BB899880B38D7080BB80E58CBD81E00F
:103AE0008DBD85E090E00E94B5085F9A85E090E08A
:103AF0000E94B5085E985C98E6EDF7E084918EBD73
:103B000000000DB407FEFDCF319627E0E33EF2073B
:103B1000A9F75C9A81E880936400809165008160D8
:103B2000809365000E94E20880E80E94D7088823FD
:103B3000A9F05C9885EA8EBD00000DB407FEFDCFAC
:103B40005C9A2E982F982D988091640080628093C3
:103B5000640081E083BF889513BEFCCF84E00E949F
:103B6000D708882309F448C02D9884E80E94D70814
:103B70008823E1F00E94B30888EC90E00E94B50829
:103B80002F9882E090E00E94B52D8F3F29F06FEFD3
:103B900082E090E00E94BD2D84EF91E00E94B50884
:103BA0002F9A84E80E94D7088111FBCF84E10E94FC
:103BB000D7088823E1F00E94B30888EC90E00E94C7
:103BC000B5082E9882E090E00E94B52D882329F058
:103BD00060E082E090E00E94BD2D84EF91E00E94C1
:103BE000B5082E9A84E10E94D7088111FBCF88EC9A
:103BF00090E00E94B508B2CF0E94B30882E090E046
:103C00000E94B313882309F463C03E9A3F9A81E06F
:103C100090E00E94B313382F3470932E81FF12C0AE
:103C200031112E98F1EF4F2E55245A9408E010E0F0
:103C300080E40E94D708882309F44DC02E9A2F9A59
:103C40000E94B30882E390E00E94B5080E94BA087F
:103C50008111F8CF80E180930C010E94B2046115BC
:103C600071058105910511F00E94AC2D0E9464112F
:103C700090933905809338050E94B6120E94491529
:103C80000E948F120E949E0A10920004109211044A
:103C90001092220410923304109244048FB7F894C7
:103CA00040916E0450916F046091700470917104A2
:103CB0008FBF8091BA0189AB882309F4D1C01092DB
:103CC000BA0180E090E0892B49F30E940000E6CF22
:103CD0003E983F989CCF992031F044E0441651041F
:103CE00011F42E9A2F9881E00E945404920157FEFD
:103CF00004C0222733272419350927703327C2012E
:103D000057FC0796E3E095958795EA95E1F757FE0E
:103D100005C00197D801A21BB30B9D01AC015695BC
:103D2000542F442757954795405C5A4FD12CC12CAE
:103D30003801621A730A8E3FBFEF9B07B1F1DA01B7
:103D4000AC56BF4F7A0170E060E0F601EA5DF84FD3
:103D50005F018F3F980779F0F501E60FF71FE491B7
:103D6000F0E01F01022E01C0220C0A94EAF7F701CD
:103D700084882828248A2115310571F0F501E60F81
:103D8000F71FE491F0E0062C02C0F595E7950A9440
:103D9000E2F7FC91EF2BEC936F5F7F4F1196FFEFF3
:103DA000EF1AFF0A68357105A1F6019668E5C60E9F
:103DB000D11C40585F4FA0EBCA16D10409F0BBCF0D
:103DC0000E94E2088FE090E00E94B508BFEF4B1A16
:103DD0005B0AE9E14E16510409F02ACF992011F04F
:103DE0002F9A2D9880E991E00E94B5080E94B308AF
:103DF00081E090E00E94B31380FF24CF8AE090E03E
:103E00000E94B3139FEF980F9E3F08F01BCF22E351
:103E100030E03093BD012093BC0128E330E03093C3
:103E2000B7012093B6012BE030E03A832983682F55
:103E300082ED9AE00E943B0A89819A810E94B31325
:103E400049815A814F5F5F4F5A8349834131510500
:103E500071F70E94E20888EE93E00E94B508F2CE66
:103E60008091BB01942F981B892F90910C01891789
:103E700048F48F5F891708F024CF81E083BF8895CD
:103E800013BE1FCF81E08093BA014093BB018091A4
:103E9000B8019091B90101969093B9018093B8014E
:103EA000A0915604AD8BA09355040E94BA08898B4B
:103EB000809356040E94C20880E20E94D70888239B
:103EC000B1F02DEC3CEC4CEC5DE360916904709139
:103ED0006A0480916B0490916C040E942E2E609372
:103EE000690470936A0480936B0490936C0480E47B
:103EF0000E94D7088823B1F02DEC3CEC4CEC5DE33C
:103F00006091690470916A0480916B0490916C04D3
:103F10000E942F2E6093690470936A0480936B044F
:103F200090936C0488E00E94D708882309F458C055
:103F300000910F0110911001101611060CF050C0E5
:103F40008090610490906204A0906304B090640437
:103F50002BED3FE049EC5FE36091690470916A04E6
:103F600080916B0490916C040E942E2E6B017C0159
:103F70000E94122F2AE037ED43E25DE30E94E43015
:103F80009B01AC01609165047091660480916704A7
:103F9000909168040E942F2E6093650470936604CC
:103FA0008093670490936804C701B6010E94513161
:103FB0002AE037ED43E25DE30E94E430A50194017D
:103FC0000E942F2E609361047093620480936304B7
:103FD00090936404005111091093100100930F0194
:103FE00020915D0430915E0440915F045091600423
:103FF00029873A874B875C8760913E0570913F0522
:104000007395072E000C880B990B0E94C12F2985F0
:104010003A854B855C850E942E2E4B015C01809178
:10402000590490915A04A0915B04B0915C04898377
:104030009A83AB83BC8360913C0570913D05739579
:10404000072E000C880B990B0E94C12F29813A8101
:104050004B815C810E942E2E6B017C01A501940195
:10406000C501B4010E94E4302B013C01A701960177
:10407000C701B6010E94E4309B01AC01C301B2014B
:104080000E942F2E0E945F312B013C0120E030E086
:10409000A9010E94D730181684F4A3019201C5012A
:1040A000B4010E94172F4B015C01A3019201C701CB
:1040B000B6010E94172F6B017C012FE832EC45E717
:1040C0005CE3C501B4010E94E430209165043091A5
:1040D000660440916704509168040E942F2E6D83FE
:1040E0007E838F8398872FE832EC45E75CE3C70136
:1040F000B6010E94E4302091610430916204409145
:104100006304509164040E942F2E2B013C012D81E9
:104110003E814F81588569857A858B859C850E9473
:104120002F2E4B015C0180925D0490925E04A09260
:104130005F04B0926004A301920169817A818B814E
:104140009C810E942F2E6B017C01C0925904D09259
:104150005A04E0925B04F0925C0424EA30E74DE7F5
:104160005FE36D817E818F8198850E94E43060934A
:10417000650470936604809367049093680424EA4E
:1041800030E74DE75FE3C301B2010E94E430609382
:10419000610470936204809363049093640420E04C
:1041A00030E0A901C501B4010E940D2F87FF08C0AE
:1041B00010925D0410925E0410925F0410926004ED
:1041C00020E030E040E054E460915D0470915E04D2
:1041D00080915F04909160040E94D730181664F4B7
:1041E00080E090E0A0E0B4E480935D0490935E04EE
:1041F000A0935F04B093600420E030E0A901C70100
:10420000B6010E940D2F87FF08C01092590410922A
:104210005A0410925B0410925C0420E030E040E00D
:1042200054E46091590470915A0480915B04909118
:104230005C040E94D730181664F480E090E0A0E09F
:10424000B4E48093590490935A04A0935B04B09310
:104250005C0420915D0430915E0440915F045091B4
:1042600060042D833E834F83588720E030E040E890
:1042700052E46D817E818F8198850E942E2E4B01A4
:104280005C018092320590923305A0923405B09281
:1042900035058091590490915A04A0915B04B09126
:1042A0005C048D879E87AF87B88B20E030E040E0CC
:1042B00052E4BC01CD010E942E2E6B017C01C09204
:1042C0002E05D0922F05E0923005F092310520E0C6
:1042D00030E0A901C501B4010E940D2F87FF08C07D
:1042E0001092320510923305109234051092350564
:1042F00020E030E040EC53E46091320570913305EA
:1043000080913405909135050E94D730181664F4D9
:1043100080E090E0A0ECB3E4809332059093330505
:10432000A0933405B093350520E030E0A901C70122
:10433000B6010E940D2F87FF08C010922E05109223
:104340002F05109230051092310520E030E040EE4C
:1043500053E460912E0570912F0580913005909166
:1043600031050E94D730181664F480E090E0A0EE8A
:10437000B3E480932E0590932F05A0933005B0935E
:1043800031059D8992FD4AC0A989A2FF47C0E0E09E
:10439000F4E050E040E020812111CCC2609169043A
:1043A00070916A0480916B0490916C0421E1249FC8
:1043B000F001259FF00D1124E050FC4FFA83E983B2
:1043C00021E020832D813E814F81588521833283D6
:1043D000438354832D853E854F85588925833683B5
:1043E000478350872BED3FE049EC5FE30E942E2E80
:1043F0006B017C010E94122FE981FA81618772872B
:1044000083879487C701B6010E945131A981BA817F
:104410001D966D937D938D939C935097E0E0F4E00F
:10442000FE8FED8FFA87E987A985BA858C9188235D
:1044300009F432C119962D913D914D915C911C97D3
:1044400011966D917D918D919C9114970E942F2EC4
:104450002B013C01E985FA85418252826382748294
:104460002585368547855089658176818781908548
:104470000E942F2E69837A838B839C83A985BA85BA
:1044800015966D937D938D939C93189720E030E063
:10449000A901C301B2010E940D2F87FD21C020E0B8
:1044A00030E040E054E4C301B2010E94D730181656
:1044B000BCF020E030E0A90169817A818B819C8188
:1044C0000E940D2F87FD0CC020E030E040E054E456
:1044D00069817A818B819C810E94D73018161CF4E7
:1044E000E985FA85108220E939E03AAF29AF912CAD
:1044F000812CA9ADBAAD9A96BC91B98FE9ADFAAD50
:10450000F3A5F9A3A9ADBAAD9C962C909C979D9666
:10451000BC91BDA3E9ADFAADF6A1F9A7A9ADBAADBD
:104520009796BC91BDA7E9ADFAADF0A5FAABA9ADE0
:10453000BAAD99963C9099975A962D913D914D918F
:104540005C915D972D8B3E8B4F8B588F56962D919E
:104550003D914D915C915997298B3A8B4B8B5C8B9C
:10456000BDA1BF932F92E9A1EF93F98DFF933F92E5
:104570002AA92F933DA53F9349A54F93A9ADBAAD65
:1045800095968C9195978F9394968C9194978F9301
:1045900093968C9193978F9392968C9192978F93F9
:1045A00091968C9191978F9390968C9190978F93F1
:1045B0005F968C915F978F935E968C918F93AD8869
:1045C000BE88CF88D88CE988FA880B891C89298114
:1045D0003A814B815C81C301B2010E94CF0A0FB6C0
:1045E000F894DEBF0FBECDBF8BABA9ADBAADD596EB
:1045F0008C91D5978F93D4968C91D4978F93D39693
:104600008C91D3978F93D2968C91D2978F93D1968A
:104610008C91D1978F93D0968C91D0978F939F96B2
:104620008C919F978F939E968C918F93BDA1BF93F2
:104630002F92E9A1EF93F98DFF933F922AA92F932F
:104640003DA53F9349A54F93AD88BE88CF88D88CB0
:10465000E988FA880B891C8929813A814B815C8120
:10466000C301B2010E94CF0A0FB6F894DEBF0FBE9D
:10467000CDBFBBA9B11166C1811164C1EFEF8E1A24
:104680009E0A29AD3AAD2A5C3F4F3AAF29AF35E0DB
:104690008316910409F02DCF49855A854F5E5F4FEF
:1046A0005A87498785E594E08417950709F0BCCEC1
:1046B00080E10E94D708882309F474C180910F011A
:1046C0009091100181979093100180930F0118161B
:1046D00019060CF067C18090690490906A04A0905C
:1046E0006B04B0906C04C501B4010E94122F6B01E1
:1046F0007C01C501B4010E9451314B015C0120E0F5
:1047000030E048EC51E40E94E43069837A838B8383
:104710009C8320E030E040E751ECC701B6010E94E5
:10472000E43029813A814B815C810E942E2E2D81BB
:104730003E814F8158850E942F2E698F7A8F8B8FF3
:104740009C8F20E030E048EC51E4C701B6010E94A4
:10475000E4306D8B7E8B8F8B988F20E030E040E7CC
:1047600051ECC501B4010E94E4302D893E894F8986
:10477000588D0E942F2E2D853E854F8558890E9489
:104780002F2E69A37AA38BA39CA320E030E0A9017C
:10479000C701B6010E94E430698B7A8B8B8B9C8BAE
:1047A00020E030E0A901C501B4010E94E4302B01F2
:1047B0003C01AC019B0169897A898B899C890E94A3
:1047C0002E2E2D813E814F8158850E942F2E6DA364
:1047D00079A78DA79AABA301920169897A898B8900
:1047E0009C890E942F2E2D853E854F8558890E94D9
:1047F0002F2E698B7BAB8CAB9DAB20E030E040E78C
:1048000051E4C701B6010E94E43029813A814B810D
:104810005C810E942E2E2D813E814F8158850E9401
:104820002F2E69837EAB8FAB292E20E030E040E74E
:1048300051E4C501B4010E94E4302D893E894F89BD
:10484000588D0E942F2E2D853E854F8558890E94B8
:104850002F2E2B018D8B98AF712C612C6EE0362E94
:1048600080903A0590903B05681479040CF09AC04A
:10487000369CD001379CB00D1124A256B54FBAAF6B
:10488000A9AF14962D913D914D915C9117976D9123
:104890007D918D919C91B8ADBF93ED89EF935F921F
:1048A0004F922F92FFA9FF93AEA9AF93B981BF9307
:1048B000EDA9EF93FCA9FF93ABA9AF93B989BF937F
:1048C000EAA9EF93FDA5FF93A9A5AF93BDA1BF935F
:1048D000A9A0BAA0CBA0DCA0E98CFA8C0B8D1C8D12
:1048E0000E94CF0A0FB6F894DEBF0FBECDBF88235B
:1048F00009F454C080910F01909110018C53964F90
:104900009093100180930F01F1E08F1A9108389C69
:10491000F001399CF00D1124E256F54F8EE0A9AD5F
:10492000BAAD01900D928A95E1F790923B05809285
:104930003A0596CF4F5F5F4F71964530510509F0AC
:104940002ACD6CCD809157049091580486509F4F8A
:104950009093580480935704A985BA851C9280913E
:10496000360590913705019790933705809336056A
:10497000E6E3E89DD001E99DB00D1124A057B64FA4
:1049800026E3289FF001299FF00D1124E057F64FF0
:1049900086E301900D928A95E1F77ECE2FEF621AA1
:1049A000720A5ECF40913605509137055A8F498F74
:1049B00080E999E09A8389838C011E8A1D8AA98DDA
:1049C000BA8DED89FE89EA17FB070CF0F3C0D80118
:1049D00054968D919C9155970197181619060CF4D1
:1049E000E4C0E8E7F0E05596FC93EE9354971496F4
:1049F0002D913D914D915C911797298B3A8B4B8B63
:104A00005C8BCD90DD90ED90FC902D813E814F81AF
:104A10005885C701B6010E942E2E2B013C012D8521
:104A20003E854F85588969897A898B899C890E943E
:104A30002E2E4B015C01A3019201C301B2010E9421
:104A4000E4302B013C01A5019401C501B4010E9491
:104A5000E4309B01AC01C301B2010E942F2E20E083
:104A600030E041E655E40E940D2F18160CF48BC07F
:104A7000E4E8F4E0312C212C808181118CC0B1E17B
:104A8000B29DF001B39DF00D1124EC57FB4F21E0D6
:104A90002083C182D282E382F48289899A89AB8998
:104AA000BC8985839683A783B087A70196016D8112
:104AB0007E818F8198850E942E2E4B015C01298971
:104AC0003A894B895C896D857E858F8598890E949E
:104AD0002E2E2B013C01A5019401C501B4010E94B9
:104AE000E4306B017C01A3019201C301B2010E9479
:104AF000E4309B01AC01C701B6010E942F2E0E9439
:104B00005F316B017C012FE632E143E85AE30E94FA
:104B10000D2F87FF08C05FE6C52E52E1D52E53E862
:104B2000E52E5AE3F52EE1E1E29DD001E39DB00DC3
:104B30001124AC57BB4FBA8BA98BA7019601C501B5
:104B4000B4010E94172F20E030E040E05FE30E94B4
:104B5000E430A989BA8919966D937D938D939C93BE
:104B60001C97A7019601C301B2010E94172F20E0F4
:104B700030E040E05FE30E94E430E989FA8965872C
:104B800076878787908BED89FE893196FE8BED8B3A
:104B90000A5C1F4F14CF2FEF221A320A71963AE0A7
:104BA0002316310409F068CFEECF55969C938E936F
:104BB0005497E9CF24E834E03AAF29AF8901D8010E
:104BC0008C91882309F469C040905D0450905E0484
:104BD00060905F04709060042091590430915A04F1
:104BE00040915B0450915C042D833E834F83588732
:104BF00019962D913D914D915C911C9711966D9157
:104C00007D918D919C9114970E942F2E4B015C01F8
:104C1000D80111968D929D92AD92BC9214971D96DB
:104C20002D913D914D915C91509715966D917D918F
:104C30008D919C9118970E942F2E6B017C01F80199
:104C4000C582D682E782F08620E030E0A901C50166
:104C5000B4010E940D2F87FD1EC020E030E040E02F
:104C600054E4C501B4010E94D7301816A4F020E026
:104C700030E0A901C701B6010E940D2F87FD0BC0CE
:104C800020E030E040E054E4C701B6010E94D73094
:104C900018160CF071C0D8011C920F5E1F4FF5E082
:104CA0000E321F0709F08BCF312C212CC090F60358
:104CB000D090F703E090F803F090F9038090FA03A6
:104CC0009090FB03A090FC03B090FD03209132056F
:104CD0003091330540913405509135052D833E8345
:104CE0004F83588780912E0590912F05A091300514
:104CF000B09131058D879E87AF87B88B91E02916DB
:104D0000310409F471C020E030E040E05FE36D81E0
:104D10007E818F8198850E94E4309B01AC01C701A0
:104D2000B6010E942E2E0E94892F6B0120E030E0F8
:104D300040E05FE36D857E858F8598890E94E43031
:104D40009B01AC01C501B4010E942E2E0E94892F47
:104D5000A0E8CA16D10408F049C077FD47C0603406
:104D600071050CF043C04091FE03C6010E94AD09DD
:104D700022242394312C9ACF80E10E94D7088111FC
:104D80008CCFA3019201C501B4010E942E2E4B01CC
:104D90005C012D813E814F815885C701B6010E947B
:104DA0002E2E6B017C01A5019401C501B4010E9466
:104DB000E4304B015C01A7019601C701B6010E94D6
:104DC000E4309B01AC01C501B4010E942F2E20E00C
:104DD00030E048EC51E40E940D2F87FF5ECF0E9427
:104DE0008518F801108259CF312C212C809136057D
:104DF00090913705281639060CF0FBC0E981FA813D
:104E0000C080D180E280F3802D813E814F81588522
:104E1000C701B6010E942E2E4B015C01A981BA8107
:104E200014964D905D906D907C9017972D853E85E2
:104E30004F855889C301B2010E942E2E6D8B7E8B47
:104E40008F8B988FE981FA8126893789408D518D22
:104E5000C501B4010E942F2EA70196010E942E2E9B
:104E60000E94892F698B7A8B8B8B9C8BA981BA814D
:104E70005A962D913D914D915C915D976D897E89FA
:104E80008F89988D0E942F2EA30192010E942E2EB1
:104E90000E94892F698F7A8F8B8F9C8FE981FA818D
:104EA000268D378D40A151A1C501B4010E942F2E3E
:104EB000A70196010E942E2E0E94892F69A37AA332
:104EC0008BA39CA3A981BA8192962D913D914D917E
:104ED0005C9195976D897E898F89988D0E942F2E80
:104EE000A30192010E942E2E0E94892F6DA37EA302
:104EF0008FA398A7E981FA8126A137A140A551A5E2
:104F0000C501B4010E942F2EA70196010E942E2EEA
:104F10000E94892F69A77AA78BA79CA7A981BA812C
:104F20009A962D913D914D915C919D976D897E89C9
:104F30008F89988D0E942F2EA30192010E942E2E00
:104F40000E94892F6DA77EA78FA798ABE981FA8170
:104F500026A537A540A951A9C501B4010E942F2E4D
:104F6000A70196010E942E2E0E94892F4B01A98134
:104F7000BA81D2962D913D914D915C91D5976D89D5
:104F80007E898F89988D0E942F2EA30192010E9405
:104F90002E2E0E94892F6B012DA13EA149A15AA15D
:104FA000698D7A8D89899A890E9403092DA53EA56C
:104FB00049A55AA56DA17EA189A19AA10E940309C4
:104FC0009601A4016DA57EA589A59AA50E94030955
:104FD000298D3A8D49895A89B601C4010E94030975
:104FE000BFEF2B1A3B0AE981FA81F696FA83E9832F
:104FF000FDCEA9ADBAAD8C91882311F12D853E85EA
:105000004F85588915966D917D918D919C9118973A
:105010000E942E2E0E94892F6B012D813E814F818F
:105020005885E9ADFAAD61817281838194810E94D6
:105030002E2E0E94892FCB0141E0B6010E94AD09BE
:1050400029AD3AAD2F5E3F4F3AAF29AF0217130794
:1050500081F640913805509139055A83498320E003
:1050600030E040E853E4A981BA816D917D918D9142
:105070009C910E942F2E2D813E814F8158850E9448
:105080002E2E0E94892F3B0120E030E040E853E4BF
:10509000E981FA8164817581868197810E942F2E32
:1050A0002D853E854F8558890E942E2E0E94892F7E
:1050B0008B0129813A813E8B2D8B290138E6430EE5
:1050C000511C49815A815A8B498B20E030E040E8DD
:1050D00053E4A989BA8918966D917D918D919C911F
:1050E0001B970E942F2E2D813E814F8158850E9453
:1050F0002E2E0E94892F6B0120E030E040E853E41F
:10510000E989FA8964857585868597850E942F2EA1
:105110002D853E854F8558890E942E2E0E94892F0D
:105120004B019B01A601B801C3010E940309298913
:105130003A89285F3F4F3A8B298B3601840142160A
:10514000530619F620E030E040E853E4A981BA8123
:1051500014966D917D918D919C9117970E942F2EA1
:105160002D853E854F8558890E942E2E0E94892FBD
:105170002B0120E030E040E853E4E981FA816081CE
:105180007181828193810E942F2E2D813E814F81DA
:1051900058850E942E2E0E94892F9201AB01B401E6
:1051A000C6010E940309E980FA80F0E7EF0EF11CC6
:1051B0000EEB13E03AEDC32E33E0D32E29813A8172
:1051C0003A8B298B20E030E040E853E4A989BA8982
:1051D0006D917D918D919C910E942F2E2D813E810C
:1051E0004F8158850E942E2E0E94892FF6016193CF
:1051F00071936F0120E030E040E853E4A989BA8957
:1052000014966D917D918D919C9117970E942F2EF0
:105210002D853E854F8558890E942E2E0E94892F0C
:10522000F801619371938F0129893A89285F3F4F73
:105230003A8B298BE216F30629F6E090BE03F09034
:10524000BF03E0ECF3E02701819191918E159F055A
:105250000CF47C01481659060CF42C014AED53E07D
:105260004E175F0789F7F7FE02C0F12CE12C50E4DE
:10527000451651041CF02FE3422E512C4E145F04AE
:105280000CF0AFC09EE9292E9AE0392E1A8A198AAD
:1052900080913A0590913B0529893A892817390769
:1052A0000CF06CC12BED3FE049EC5FE3D1011896A7
:1052B0006D917D918D919C911B970E942F2E8B015A
:1052C00089A39DA3382F292F712F832F922F0E94FE
:1052D000122F2B013C0139A12DA1602F712F832F9B
:1052E000922F0E9451316B017C012D853E854F85A7
:1052F0005889F10164817581868197810E942E2EE3
:105300004B015C0120E030E0A901C701B6010E9419
:10531000E430698F7A8F8B8F9C8F20E030E040E003
:1053200050ECC301B2010E94E4309B01AC01698DD5
:105330007A8D8B8D9C8D0E942F2E9B01AC01C50117
:10534000B4010E942F2E698F7A8F8B8F9C8F2D81B5
:105350003E814F815885D1016D917D918D919C91B8
:105360000E942E2E4B015C0120E030E0A901C30118
:10537000B2010E94E4302B013C01A7019601C70154
:10538000B6010E942F2E9B01AC01C301B2010E9405
:105390002F2E9B01AC01C501B4010E942F2EBDA18F
:1053A000BF93E9A1EF931F930F93A12CB12CE0E8D9
:1053B000CE2EE0E4DE2E86017501298D3A8D4B8DCF
:1053C0005C8D0E94B80F29893A892F5F3F4F3A8B35
:1053D000298B3EE0230E311C0F900F900F900F9001
:1053E00057CF0AED802E03E0902E8EEB682E83E0DF
:1053F000782EB12CA12CD12CC12C9FEFC91AD90A1F
:10540000D301ED91FD913D01C6016EE070E00E9477
:10541000D1319C01220F331FA90142545C4FDA01A4
:105420004D915C91B90166527C4FE417F50709F480
:105430003FC0D4012D913C91DB010D90BC91A02D7A
:10544000BA8BA98B4E175F075CF099898A893A8BD2
:10545000298B292F382F942F852FAF01E92FF82F73
:10546000E416F5062CF1EE16FF0614F58501000F83
:10547000111F02541E4F89899A89281B390BD701A5
:10548000A41BB50B0E94E5319F01241B350B032E95
:10549000000C440B550B0E94CB2DE989FA89E20FD1
:1054A000F31FD801ED93FC9395012F5F3F4F5901F6
:1054B00062E0860E911C8EE0C816D10409F09DCFE3
:1054C00032E0A316B1040CF455C0E0ECF1E021E0A9
:1054D00030E040815181C90101978F01D8017E914F
:1054E0006E916D014617570744F4D8016D937C9374
:1054F000019786018F3F980789F7880F991FDC0174
:10550000A054BE4F4D935C932F5F3F4F32962A15A8
:105510003B05F9F6EEEBF1E0FA8BE98B10E000E0E9
:105520006901F1E0CF1AD1080C151D051CF5A989F8
:10553000BA8912964D915C91139757FD13C08D91C6
:105540009C918038910574F497FF02C090E080E050
:105550004038510514F04FE750E04F5F481BB7014A
:105560000E941D040E5F1F4FE989FA893496FA8B59
:10557000E98BDACFFFEFEF1AFF0A80CEAD8DBE8D3B
:105580008C91882311F12D853E854F85588915967C
:105590006D917D918D919C9118970E942E2E0E9465
:1055A000892F6B012D813E814F815885ED8DFE8DB8
:1055B00061817281838194810E942E2E0E94892FA5
:1055C000CB0141E0B6010E94AD092D8D3E8D2F5ECD
:1055D0003F4F3E8F2D8F49855A852417350771F629
:1055E00080915D0490915E04A0915F04B09160048D
:1055F00089A39AA3ABA3BCA32D813E814F8158857B
:10560000BC01CD010E942E2E2B013C01209159049A
:1056100030915A0440915B0450915C042D8F3E8F71
:105620004F8F58A32D853E854F8558896D8D7E8D72
:105630008F8D98A10E942E2E69877A878B879C87F1
:10564000309169043D8340916A044D8720906B043A
:1056500030906C041F921F921F9255E05F931F922F
:105660001F926FEF6F938BEF8F936F938F93912CAC
:10567000812C3D812D85A32EB22EC22CD32CE98402
:10568000FA840B851C85A301920165E070E080E03F
:105690000E94970C1F921F921F921F921F9291E0DF
:1056A0009F93AFEFAF93BBEFBF931F92E3E0EF93F6
:1056B0004DEF842E99249A943D812D85A32EB22EF0
:1056C000C22CD32CE984FA840B851C85A30192019A
:1056D00065E070E080E00E94970C1F921F921F927D
:1056E0001F921F92F1E0FF931F9225E02F931F92CC
:1056F00033E03F9353E0852E912C3D812D85A32EE1
:10570000B22EC22CD32CE984FA840B851C85A3010C
:10571000920165E070E080E00E94970C88E00E94B2
:10572000D7080FB6F894DEBF0FBECDBF882371F146
:1057300080910F0190911001181619063CF51F92E7
:1057400053E05F931F9282E08F931F9287E08F93C5
:105750001F921F921F925F933EEF832E99249A947B
:105760003D812D85A32EB22EC22CD32CE984FA8440
:105770000B851C85A301920163E070E081E00E942B
:10578000970C0FB6F894DEBF0FBECDBF80E10E942C
:10579000D708882309F449C080910F019091100126
:1057A000181619060CF041C01F9289E18F931F92C1
:1057B0009FE09F931F921F921F921F921F928F93A1
:1057C00091EF892E99249A949D819DA3AD85A9A7D7
:1057D000298A398EA92EBA2E6101E984FA840B85B3
:1057E0001C85A301920163E070E080E00E94970CA9
:1057F000B98DBF93E989EF93F9A5FF932DA12F935D
:10580000A12CB12C20E4C22E21E4D22E86017501F8
:1058100029853A854B855C85C301B2010E94B80F8A
:105820000FB6F894DEBF0FBECDBF8DE090E09E8333
:105830008D8310E000E033243394AD89BE89CD9090
:10584000DD90ED90FC90139720E030E040E853E4C9
:1058500014966D917D918D919C9117970E942F2E9A
:105860004B015C01ED81FE8183E0EE0FFF1F8A9505
:10587000E1F729813A81E20FF31F40805180628075
:10588000738020E030E040E853E4648175818681D4
:1058900097810E942F2E69877A878B879C87A50125
:1058A00094016D8D7E8D8F8D98A10E940D2F881F84
:1058B0008827881F8D8329853A854B855C856D8D6A
:1058C0007E8D8F8D98A10E940D2F881F8827881F9D
:1058D0003D81381709F447C020E030E040E853E448
:1058E000C701B6010E942F2E6B017C0120E030E041
:1058F00040E853E4C301B2010E942F2EA701960194
:105900000E942E2E2B013C01A50194016D8D7E8DF0
:105910008F8D98A10E942E2E9B01AC01C301B20174
:105920000E94E4302B013C01A501940169857A8530
:105930008B859C850E942E2E9B01AC01C301B20178
:105940000E94172FA70196010E942F2E9B01AC01E8
:1059500069A17AA18BA19CA10E940D2F87FF03C092
:1059600049A9432549ABC8010196AD89BE8918965E
:10597000BE8BAD8B1E830D838E30910509F042C026
:10598000B9A9BB2341F06CE971E082ED9AE00E9475
:10599000B5130E94851880910D0190910E010E940F
:1059A000331488E190E09093BD018093BC01809115
:1059B0000F01909110011816190634F50E94331446
:1059C00088E590E09093BD018093BC01409157041D
:1059D00050915804052E000C660B770B77FF1BC007
:1059E000CB01BA010E94101468E571E082ED9AE0E3
:1059F0000E94B5131092BD011092BC010E94E208F2
:105A00000C94611E8C0119CF68EA71E082ED9AE076
:105A10000E94B513D5CF2AE082ED9AE00E94C4130C
:105A2000E3CF8F929F92AF92BF92CF92DF92EF928D
:105A3000FF92CF93DF93EC01688179818A819B810A
:105A4000611571058105910521F464E279ED8BE51D
:105A500097E02DE133EF41E050E00E94CB2D49016A
:105A60005A019B01AC01A7EAB1E40E94EA2D6B0147
:105A70007C01ACEEB4EFA50194010E94F82DC60E96
:105A8000D71EE81EF91EF7FE06C081E0C81AD1082D
:105A9000E10880E8F80AC882D982EA82FB82C7015D
:105AA000B6019F77DF91CF91FF90EF90DF90CF907D
:105AB000BF90AF909F908F9008958F929F92AF92DA
:105AC000BF92CF92DF92EF92FF926091110170919D
:105AD00012018091130190911401611571058105E6
