:100000000C94F3030C941B040C941B040C941B041D
:100010000C941B040C941B040C941B040C941B04E4
:100020000C941B040C941B040C94C3120C943213F8
:100030000C941B040C941B040C941B040C941B04C4
:100040000C941B040C941B040C941B040C941B04B4
:100050000C941B040C941B040C941B040C94791238
:100060000C941B040C941B040C941B040C941B0494
:100070000C941B040C941B040C941B040C941B0484
:100080000C941B040C941B040C941B040C941B0474
:100090000C941B040C941B040C941B040C941B0464
:1000A0000C941B040C941B040C941B04084AD73BAF
:1000B0003BCE016E84BCBFFDC12F3D6C74319ABD37
:1000C00056833DDA3D00C77F11BED9E4BB4C3E915B
:1000D0006BAAAABE000000803F05A84CCDB2D44E4A
:1000E000B93836A9020C50B9918688083CA6AAAA4C
:1000F0002ABE000000803F0003081F051F1F151BBC
:100100001F11111F110E1F15111F05011F111D1F9A
:10011000041F001F0010101F1F041B1F10101F06BC
:100120001F1F011F1F111F1F05071F311F1F051B49
:1001300017151D011F011F101F0F100F1F0C1F1B74
:10014000041B071C071915130C121E1F120C1E127C
:10015000120C121F0C1A14041F052E2A1E1F021C3B
:10016000001D00201D001F041A011F001E041E1E7A
:10017000021E1E121E3E120C0C123E1E020614120D
:100180000A020F121E101E0E100E1E081E1A041A4E
:100190002E281E1A12161F111F001F001D151711E1
:1001A000151F07041F17151D1F151D01011F1F1502
:1001B0001F17151F00170000100000000000003E70
:1001C0005B4F5B3E3E6B4F6B3E1C3E7C3E1C183CC7
:1001D0007E3C181C577D571C1C5E7F5E1C00183C23
:1001E0001800FFE7C3E7FF0018241800FFE7DBE76C
:1001F000FF30483A060E2629792926407F05050753
:10020000407F05253F5A3CE73C5A7F3E1C1C0808AE
:100210001C1C3E7F14227F22145F5F005F5F060973
:100220007F017F006689956A606060606094A2FFCC
:10023000A29408047E040810207E201008082A1CBE
:1002400008081C2A08081E101010100C1E0C1E0C8A
:1002500030383E3830060E3E0E060000000000002A
:10026000005F00000007000700147F147F14242A99
:100270007F2A12231308646236495620500008076B
:100280000300001C2241000041221C002A1C7F1C8C
:100290002A08083E0808008070300008080808088E
:1002A000000060600020100804023E5149453E00F5
:1002B000427F400072494949462141494D33181453
:1002C000127F1027454545393C4A494931412111A2
:1002D00009073649494936464949291E0000140094
:1002E00000004034000000081422411414141414B7
:1002F000004122140802015909063E415D594E7C15
:100300001211127C7F494949363E414141227F41C9
:1003100041413E7F494949417F090909013E414127
:1003200051737F0808087F00417F41002040413F12
:10033000017F081422417F404040407F021C027F21
:100340007F0408107F3E4141413E7F090909063E76
:100350004151215E7F091929462649494932030145
:100360007F01033F4040403F1F2040201F3F403857
:10037000403F631408146303047804036159494D32
:1003800043007F4141410204081020004141417F68
:1003900004020102044040404040000307080020DE
:1003A000545478407F2844443838444444283844DE
:1003B00044287F385454541800087E090218A4A415
:1003C0009C787F0804047800447D40002040403D34
:1003D000007F1028440000417F40007C04780478AE
:1003E0007C080404783844444438FC182424181841
:1003F000242418FC7C08040408485454542404049D
:100400003F44243C4040207C1C2040201C3C403089
:10041000403C44281028444C9090907C4464544CB8
:100420004400083641000000770000004136080013
:1004300002010204023C2623263C1EA1A161123ABD
:100440004040207A3854545559215555794121540A
:10045000547841215554784020545579400C1E520F
:1004600072123955555559395454545939555454B3
:10047000580000457C410002457D420001457C401A
:10048000F0292429F0F0282528F07C545545002037
:1004900054547C547C0A097F4932494949323248D4
:1004A000484832324A4848303A4141217A3A42403B
:1004B0002078009DA0A07D39444444393D4040400F
:1004C0003D3C24FF2424487E4943662B2FFC2F2BE0
:1004D000FF0929F620C0887E090320545479410081
:1004E00000447D413048484A32384040227A007A00
:1004F0000A0A727D0D19317D2629292F28262929DE
:10050000292630484D4020380808080808080808FF
:10051000382F10C8ACBA2F102834FA00007B000026
:1005200008142A142222142A14089500220095AADD
:10053000005500AAAA55AA55AA000000FF001010F5
:1005400010FF00141414FF001010FF00FF1010F033
:1005500010F0141414FC001414F700FF0000FF0046
:10056000FF1414F404FC141417101F10101F101F94
:100570001414141F00101010F0000000001F1010C1
:1005800010101F10101010F010000000FF101010BD
:10059000101010101010FF10000000FF140000FFDA
:1005A00000FF00001F10170000FC04F414141710C3
:1005B000171414F404F40000FF00F71414141414B6
:1005C0001414F700F7141414171410101F101F142C
:1005D0001414F4141010F010F000001F101F00008D
:1005E000001F14000000FC140000F010F01010FFB9
:1005F00010FF141414FF141010101F00000000F05E
:1006000010FFFFFFFFFFF0F0F0F0F0FFFFFF000032
:10061000000000FFFF0F0F0F0F0F38444438447CD9
:100620002A2A3E147E02020606027E027E026355DC
:100630004941633844443C04407E201E2006027E2B
:10064000020299A5E7A5991C2A492A1C4C7201723D
:100650004C304A4D4D303048784830BC625A463DA7
:100660003E494949007E0101017E2A2A2A2A2A445C
:10067000445F444440514A444040444A5140000091
:10068000FF0103E080FF000008086B6B083612369C
:100690002436060F090F060000181800000010107D
:1006A000003040FF0101001F01011E00191D17123B
:1006B000003C3C3C3C0000000000080B0002020231
:1006C00000000904000001020200000524001001DE
:1006D0000524010101042402060524060001070582
:1006E000810310004009040100020A000000070510
:1006F00002024000000705830240000004030904D1
:1007000012010002EF020140412336800001010284
:10071000030141726475696E6F204C4C4300417255
:100720006475626F7900F0F89C8E8783878E9CF8E1
:10073000F00000FEFF0303030303070EFCF80000B4
:10074000FEFF0303030303070EFCF80000FFFF0096
:10075000000000000000FFFF0000FEFF8383838392
:1007600083C7EE7C380000F8FC0E07030303070E76
:10077000FCF800003F7FE0C08080C0E07F3FFFFFCB
:1007800001010101010101FFFF0000FFFF0C0C0C42
:100790000C1C3E77E3C100007FFFC0C0C0C0C0E0BA
:1007A000703F1F00001F3F70E0C0C0C0E0703F1FDF
:1007B00000007FFFC1C1C1C1C1E3773E1C00001F23
:1007C0003F70E0C0C0C0E0703F1F000000000001AB
:1007D000FFFF01000000D5F08D14A1C881CFD9F131
:1007E000AF200000971511241FBECFEFDAE0DEBF67
:1007F000CDBF11E0A0E0B1E0EEE0F6E502C005906B
:100800000D92A238B107D9F727E0A2E8B1E001C004
:100810001D92AC3AB207E1F713E0C3EFD3E004C096
:100820002197FE010E94DA29C23FD107C9F70E9431
:10083000CE150C94052B0C940000E6E2F2E0A0E04B
:10084000B8E000800EBC8111012C1197A0FDFDCFF6
:100850000192B9F70DB40895FC0180912502882317
:1008600011F13FB7F89482E08093E9002091F20003
:10087000822F90E01816190614F481E090E0882386
:1008800039F0289844E6409324024091F1004083D7
:10089000222339F02091F200211103C02BE620938E
:1008A000E8003FBF08958FEF9FEF08952FB7F894AA
:1008B00083E08093E9009091E800892F807295FF92
:1008C00004C09091F20080E4891B2FBF08958091AD
:1008D0001C0281110DC082E08093180284E0809395
:1008E000190210921B0210921A0281E080931C02DE
:1008F00088E192E008953FB7F894809114029091B6
:100900001502A0911602B091170226B5A89B05C04A
:100910002F3F19F00196A11DB11D3FBFBA2FA92F7E
:10092000982F8827BC01CD01620F711D811D911D7B
:1009300042E0660F771F881F991F4A95D1F70895E7
:100940008F929F92AF92BF92CF92DF92EF92FF92DF
:100950006B017C010E947B044B015C01C114D1043A
:10096000E104F104B9F00E947B04681979098A094D
:100970009B09683E73408105910580F321E0C21A0E
:10098000D108E108F10888EE880E83E0981EA11CCA
:10099000B11CE4CFFF90EF90DF90CF90BF90AF906D
:1009A0009F908F90089540918401509185012091EE
:1009B00082013091830142175307B4F49091E8000B
:1009C0009570E1F39091E80092FD19C08093F100D9
:1009D000809184019091850101968F739927892BCD
:1009E00019F48EEF8093E800809184019091850145
:1009F0000196909385018093840181E0089580E0C1
:100A00000895DF92EF92FF920F931F93CF93DF939E
:100A1000D82E8A01EB017B01E40EF51ECE15DF0511
:100A200059F0D7FE12C0FE0184910E94D304219692
:100A30008111F4CF0FEF1FEFC801DF91CF911F910C
:100A40000F91FF90EF90DF9008958881EECF0F9384
:100A50001F93CF93DF931F92CDB7DEB782E08983D8
:100A600042E450E06AEB76E080E80E9401050E94D3
:100A70006704DC0112960D911C910115110589F096
:100A8000D801ED91FC910280F381E02DBE016F5FF2
:100A90007F4FC801099597FD04C0F80100851185B5
:100AA000ECCF89810F90DF91CF911F910F91089525
:100AB000615030F02091F100FC0120830196F8CFC5
:100AC000289884E6809324020895AF92BF92CF9233
:100AD000DF92EF92FF920F931F93CF93DF936C01FE
:100AE0007B018B01040F151FEB015E01AE18BF08DF
:100AF000C017D10759F06991D601ED91FC91019091
:100B0000F081E02DC6010995892B79F7C501DF91A8
:100B1000CF911F910F91FF90EF90DF90CF90BF90FA
:100B2000AF9008958F929F92AF92BF92CF92DF9233
:100B3000EF92FF920F931F93CF93DF936C017B0192
:100B40008A0180910B01882309F45CC08091250201
:100B5000882309F457C08091880180FF05C08091E7
:100B6000E00082608093E000E801B12C8AEFA82EBB
:100B700093E0892E2AE3922E209711F4BB20D9F11D
:100B80000E94560481110AC0AA94AA20D9F161E0FA
:100B900070E080E090E00E94A004EECF8C171D066C
:100BA00011F00CF08C2F9FB7F8948092E9002091FF
:100BB000E80025FD02C09FBFDFCF282F30E0C21B19
:100BC000D30BF701815020F041914093F100FACF0F
:100BD000E20EF31EBB2021F09092E800B12CEBCF87
:100BE0008091E80085FDE7CF9092E800BB24B394A4
:100BF000209709F3F3CF5D9884E680938701101660
:100C000011063CF081E090E0F6019383828310E0CE
:100C100000E0C801DF91CF911F910F91FF90EF90FD
:100C2000DF90CF90BF90AF909F908F900895CF931B
:100C3000DF931F92CDB7DEB76983DC01ED91FC91A4
:100C40000280F381E02D41E050E0BE016F5F7F4FF5
:100C500009950F90DF91CF91089583E08093E9008B
:100C60008091F200882319F08AE38093E8000895C8
:100C70000E94560490E00895CF93DF931F92CDB762
:100C8000DEB7FC018485958597FD08C02FEF3FEF07
:100C9000358724870F90DF91CF910895CE0101967B
:100CA0000E942C04019719F4898190E0F3CF8FEF13
:100CB0009FEFF0CF0F931F93CF93DF931F92CDB78A
:100CC000DEB78C01FC018485958597FF0BC0CE01B2
:100CD00001960E942C04019771F4898190E0F8013B
:100CE00095878487F801848595850F90DF91CF9152
:100CF0001F910F9108958FEF9FEFF1CFFC01848535
:100D0000958597FD0BC09FB7F89482E08093E9002A
:100D10008091F2009FBF90E0019608959FB7F894EC
:100D200082E08093E9008091F2009FBF90E00895F7
:100D30004F925F926F927F928F929F92AF92BF92EB
:100D4000CF92DF92EF92FF920F931F93CF93DF9397
:100D50004C015901FC2DC02FD0E0CE01880D991D0A
:100D6000181619060CF067C09B012E0D311D1216C6
:100D700013060CF060C0603471050CF05CC04115C6
:100D8000510509F458C0262F2770F22EDB0177FD9C
:100D9000179633E0B595A7953A95E1F73A2F77FF87
:100DA00004C0FF2011F03FEF3A0F6627772768193C
:100DB000790997FC02C070E060E0803891050CF47E
:100DC0004BC090E89819961BA32F032E000CBB0B69
:100DD0001A2F10953F3F0CF010E021E08E2D877008
:100DE00009F420E0E694E694E694E20EAE0DB11D1F
:100DF00019971CF028E0E22EE31AE11A310F20E8DF
:100E00003203D0011124A80DB91DA60FB71F019FF1
:100E1000600D711D1124460F571F0F2D0F2C000C54
:100E2000110BF33009F41CC1C8F4F13009F4D0C03F
:100E3000F23009F47CC0DF91CF911F910F91FF90A8
:100E4000EF90DF90CF90BF90AF909F908F907F906A
:100E50006F905F904F900895902FB5CFFA3FB1F10A
:100E6000232F2E0DFB3F39F7321729F3BD016A5DA1
:100E70007D4FD12CC12CC91608F0A4C0FA01EC0D8D
:100E8000FD1DE491F0E04F01002E02C0880C991C7A
:100E90000A94E2F737FD06C0FB018081E82CE0945C
:100EA0008E218083FF2061F0373054F45B01F0E83D
:100EB000AF0EB11CE92CE094F50180818E21808376
:100EC000FFEFCF1ADF0A6F5F7F4FD5CF232F2E0D95
:100ED000321709F4B0CFBD016A5D7D4FD12CC12C12
:100EE000C91608F069C0FA01EC0DFD1DE491F0E0AF
:100EF0004F01002E02C0880C991C0A94E2F737FDBE
:100F000004C0FB01808188298083FF2051F03730A5
:100F100044F45B01F0E8AF0EB11CF5018081892932
:100F20008083FFEFCF1ADF0A6F5F7F4FD9CF6FEF5C
:100F300070E00F2C02C0660F771F0A94E2F76095ED
:100F40007095772E232F2E0D321709F474CFFD01E3
:100F5000EA5DFD4F6F01B12CA12CA91638F5FA01FD
:100F6000EA0DFB1DE491F0E02F01002E02C0440CBD
:100F7000551C0A94E2F737FD05C0F60180818623EF
:100F800084298083FF2059F037304CF44601F0E883
:100F90008F0E911CF4018081872185298083FFEFCA
:100FA000AF1ABF0A8FEFC81AD80AD7CF3F5F4C0FCE
:100FB0005D1FA058BF4FC8CF3F5F4C0F5D1FA058AB
:100FC000BF4F86CF3F5F4C0F5D1FA058BF4F4CCF28
:100FD0006A0D7B1D232F2E0D321709F42CCFFD0136
:100FE000EA5DFD4F6F01B12CA12CA91688F5FB011C
:100FF000EA0DFB1D8490912C002E02C0880C991CD8
:101000000A94E2F780949094FA01EA0DFB1D649033
:10101000712C002E02C0660C771C0A94E2F737FD93
:1010200005C0F6018081882186298083FF2049F050
:1010300037303CF4F601E058FF4F80818921872941
:101040008083FFEFAF1ABF0A8FEFC81AD80ACDCF3F
:101050003F5F4C0F5D1F6C0F7D1FA058BF4FBCCF73
:10106000C92ED12CFA01E60FF71FAA5DBD4F00E88B
:1010700010E00C191D09CC19DD09BE01660F771FA0
:1010800041E050E06A010F2C01C0CC0C0A94EAF751
:10109000592F2E2D792ECF93DF93ED01EF96EF96FA
:1010A00022968590A590FF2059F08C9C4001AC9C25
:1010B000500137302CF4E880B094EB20E928E99215
:1010C00033233AF0EC90A094EA20E828ED920C94B7
:1010D0006A0811965A9529F72A9551F0572D33959C
:1010E0001124E60FF11DA00FB11DC00FD11DD9CFE6
:1010F000DF91CF9111249FCE2D9A0895BC0190E0ED
:1011000080E00C94A0048FB18095807F669B8860FE
:101110001C9B8460089580E0E6E2F2E081118FEF8D
:10112000002481938193819381930394D1F710924A
:101130008B0110928A0110929101109290010895F2
:10114000CF93C82F0E948308982F9C2381E09C1383
:1011500080E0CF91089580E00C941D0480389105C3
:10116000B8F460347105A0F420E191E061FD94E0F1
:1011700060FD990F62FD9295687F269FD001112432
:10118000A80FAA5DBD4F8C9140FF03C0892B8C93A3
:10119000089590958923FBCF2F923F924F925F92B3
:1011A0006F927F928F929F92AF92BF92CF92DF9277
:1011B000EF92FF920F931F93CF93DF93EC018B017C
:1011C0007A016901C61AD70AD7FE03C0D194C19427
:1011D000D10847018C1A9D0A97FE03C0919481940F
:1011E00091088C149D0454F49E2D8F2D7901292F84
:1011F000382F9C2F8D2FE801092F182FEC16FD0694
:1012000054F4902F812F8901292F382F9C2F8D2F57
:10121000E701E92EF82E17012C1A3D0A2901401A80
:10122000510A57FE03C0519441945108310137FED1
:1012300003C08FEF681A780A759467948FEF0217CE
:1012400013070CF481E0A82E880FBB08EC16FD06EE
:10125000A4F041E0BE01C8018C149D0414F0B80153
:10126000CE010E94AE086418750877FE04C00A0D0E
:101270001B1D620C731C2196E9CFDF91CF911F914A
:101280000F91FF90EF90DF90CF90BF90AF909F9025
:101290008F907F906F905F904F903F902F90089528
:1012A000EF92FF920F931F93CF93DF937C018B01FB
:1012B000040F111DEB0177FF02C0D0E0C0E0C801B0
:1012C0000134110514F080E490E0C817D9073CF40C
:1012D00041E0BE01C7010E94AE082196F0CFDF9128
:1012E000CF911F910F91FF90EF9008958F929F9251
:1012F000AF92BF92CF92DF92EF92FF920F931F9324
:10130000CF93DF936D3089F0C0908A01D0908B012C
:101310006A30D1F4109291011092900188E0C80EC9
:10132000D11CD0928B01C0928A0181E090E0DF91C4
:10133000CF911F910F91FF90EF90DF90CF90BF90D2
:10134000AF909F908F90089500919001109191011E
:10135000E5E06E9FE0011124C654DE4F4801F12CF8
:10136000F5E0E12CFF1629F0CE010196FE01E49094
:10137000EC01B12CA12C4E2D4170B6016A0D7B1DE4
:10138000C4010E94AE08E694FFEFAF1ABF0A88E0DE
:10139000A816B10481F7F394EFEF8E1A9E0AF6E0D7
:1013A000FF12DECF0A5F1F4F10939101009390014F
:1013B000BCCFCF92EF920F93CF93DF93EC018E814E
:1013C0006A3069F49D819C836985860F8E8381E0F4
:1013D00090E0DF91CF910F91EF90CF9008956A3315
:1013E00078F4603308F051C0613209F450C09FE3D3
:1013F0006E3291F098859D5F8C81890F8C83E7CF49
:101400006134C0F36B3530F09FE9960F9A3190F755
:1014100099EB01C09FEB960F61E0680F062E000C60
:10142000770BAC810A2E000CBB0BE8EFF0E029EF44
:1014300030E08F81813069F50491F901E4904AEF41
:1014400050E09923D1F041E050E08E2D877011F4E7
:1014500050E040E02E2D269526952695240F352F19
:10146000311D029FF001039FF00D11249E9FA001EA
:101470009F9F500D112446505F4F9AEFC92E30E0C8
:1014800020E0CD010E949806B5CF94E0C4CF9EE342
:10149000C3CF0491F901E4904AEF50E09923D1F0D1
:1014A00041E050E08E2D877011F450E040E02E2D89
:1014B000269526952695240F352F311D029FF00184
:1014C000039FF00D11249E9FA0019F9F500D11249A
:1014D00046505F4F8BEFC82ED2CF089590E080E04A
:1014E00008954F925F926F927F928F929F92AF92E8
:1014F000BF92CF92DF92EF92FF920F931F93CF9301
:10150000DF93CDB7DEB7A8970FB6F894DEBF0FBE56
:10151000CDBF6D8B7E8B8F8B988F298F3A8F4B8FA2
:101520005C8FC801B70120E030E040E05FE30E943B
:10153000CA286D837E838F8398872B013C0177FABD
:10154000709477F87094C601B5010E94F8266983FB
:101550007A838B839C83C601B5010E9437296B0176
:101560007C0120E030E040E050EC69817A818B81A1
:101570009C810E94CA286D8F7E8F8F8F98A3A701B0
:101580009601C301B2010E94CA2869877A878B87B6
:101590009C8720E030E040E050ECC701B6010E949B
:1015A000CA2869A37AA38BA39CA329813A814B8182
:1015B0005C81C301B2010E94CA286D877E878F8734
:1015C000988B29813A814B815C81CA01B9010E94C3
:1015D00015262B013C01A7019601C701B6010E9407
:1015E0001526698B7A8B8B8B9C8BA70196016D815D
:1015F0007E818F8198850E94CA286B017C01298198
:101600003A814B815C816D817E818F8198850E94BA
:10161000CA284B015C0129853A854B855C856D8D17
:101620007E8D8F8D98A10E9414262D893E894F8929
:10163000588D0E9415260E946F2769837A838B83B9
:101640009C832D853E854F85588969A17AA18BA100
:101650009CA10E941526298D3A8D4B8D5C8D0E9490
:1016600015260E946F276D837E838F839887298537
:101670003A854B855C85C301B2010E9414262D89F1
:101680003E894F89588D0E9415260E946F276987D1
:101690007A878B879C8729893A894B895C896D85F4
:1016A0007E858F8598890E941526298D3A8D4B8DD0
:1016B0005C8D0E9415260E946F276D877E878F871D
:1016C000988BA7019601C301B2010E9414262D89AF
:1016D0003E894F89588D0E9415260E946F276DA361
:1016E0007EA38FA398A7A501940169897A898B8924
:1016F0009C890E941526298D3A8D4B8D5C8D0E9408
:1017000015260E946F27698B7A8B8B8B9C8BA70188
:1017100096016D8D7E8D8F8D98A10E9414262D8946
:101720003E894F89588D0E9415260E946F276B01B4
:10173000A501940169A17AA18BA19CA10E94152603
:10174000298D3A8D4B8D5C8D0E9415260E946F2746
:101750002B012D853E8549855A856D817E81898144
:101760009A810E94CC0829893A894DA15EA16D8594
:101770007E8589859A850E94CC089201A601698997
:101780007A898DA19EA10E94CC082D813E8149813C
:101790005A81B201C601A8960FB6F894DEBF0FBEFB
:1017A000CDBFDF91CF911F910F91FF90EF90DF9010
:1017B000CF90BF90AF909F908F907F906F905F90F1
:1017C0004F900C94CC082F923F924F925F926F9261
:1017D0007F928F929F92AF92BF92CF92DF92EF92C1
:1017E000FF920F931F93CF93DF93CDB7DEB7A897E8
:1017F0000FB6F894DEBF0FBECDBF1C014D8B5E8BC4
:101800006F8B788F098F1A8F2B8F3C8F0DAD1EAD8C
:1018100021962EAD3FAD21973A87298723968EAD2D
:101820009FAD23979E878D8725962EAD3FAD25973B
:101830003A8B298BC701B6010E94F8262B013C0187
:10184000C701B6010E94372969837A838B839C8301
:10185000B501BB0C880B990B0E94A7276D837E8373
:101860008F839887B401990C880B990B0E94A72746
:101870006B017C01B801110F880B990B0E94A727FF
:101880006D8F7E8F8F8F98A329853A85B901330F8D
:10189000880B990B0E94A72769A37AA38BA39CA30B
:1018A0002D853E85B901330F880B990B0E94A72720
:1018B0006DA37EA38FA398A729893A89B901330F15
:1018C000880B990B0E94A727698B7A8B8B8B9C8B3B
:1018D000A30192016D817E818F8198850E94CA2823
:1018E0004B015C0129813A814B815C81C701B601C2
:1018F0000E94CA289B01AC01C501B4010E941426B4
:101900002D893E894F89588D0E9415260E946F2788
:1019100069877A878B879C8729813A814B815C8193
:101920006D817E818F8198850E94CA284B015C0160
:10193000A3019201C701B6010E94CA289B01AC0114
:10194000C501B4010E941526298D3A8D4B8D5C8D01
:101950000E9415260E946F276D837E838F83988750
:10196000A30192016D8D7E8D8F8D98A10E94CA2852
:101970006B017C0129813A814B815C8169A17AA14B
:101980008BA19CA10E94CA289B01AC01C701B60192
:101990000E9414262D893E894F89588D0E94152654
:1019A0000E946F276D877E878F87988B29813A8168
:1019B0004B815C816D8D7E8D8F8D98A10E94CA2890
:1019C0006B017C01A301920169A17AA18BA19CA169
:1019D0000E94CA289B01AC01C701B6010E941526CE
:1019E000298D3A8D4B8D5C8D0E9415260E946F27A4
:1019F0004B01A30192016DA17EA18FA198A50E9428
:101A0000CA286B017C0129813A814B815C816989FB
:101A10007A898B899C890E94CA289B01AC01C701E5
:101A2000B6010E9414262D893E894F89588D0E9447
:101A300015260E946F276B0129813A814B815C81B9
:101A40006DA17EA18FA198A50E94CA2869837A837F
:101A50008B839C83A301920169897A898B899C89F4
:101A60000E94CA289B01AC0169817A818B819C818B
:101A70000E941526298D3A8D4B8D5C8D0E9415266E
:101A80000E946F272B0137E02316310481F5940162
:101A90004D855E856D817E8189859A850E94CC0801
:101AA0009201A601B4018D859E850E94CC082D81EE
:101AB0003E8149855A85B201C601A8960FB6F894B1
:101AC000DEBF0FBECDBFDF91CF911F910F91FF9071
:101AD000EF90DF90CF90BF90AF909F908F907F90CE
:101AE0006F905F904F903F902F900C94CC0820FE09
:101AF00009C094014D855E856D817E8189859A85B9
:101B00000E94CC0821FE07C09201A601B4018D8578
:101B10009E850E94CC0822FCCACFA8960FB6F894E6
:101B2000DEBF0FBECDBFDF91CF911F910F91FF9010
:101B3000EF90DF90CF90BF90AF909F908F907F906D
:101B40006F905F904F903F902F900895CF92DF92CB
:101B5000EF92FF926B017C01C114D104E104F10406
:101B600041F00E944325A70196010E94B1256B0117
:101B70007C01C701B601FF90EF90DF90CF900895F0
:101B80002F923F924F925F926F927F928F929F928D
:101B9000AF92BF92CF92DF92EF92FF920F931F937B
:101BA000CF93DF9300D000D000D0CDB7DEB780E771
:101BB00090E00E94E0299E838D838C011C01712C92
:101BC000612C6BE070E080E090E00E94A60D655013
:101BD000710981099109660D771D77FFF4C0685975
:101BE0007E4F072E000C880B990B0E94A72725E338
:101BF0003AEF4EE85CE30E94CA284B015C0161E1C8
:101C000077E280E090E00E94A60D0E94A72720E0E6
:101C100030E44CE156E40E94FD2620E030E048E448
:101C200052E40E94CA2820E030E040E252E40E94E0
:101C300015266B017C01C501B4010E94F826A7019D
:101C400096010E94CA2869837A838B839C83C5018D
:101C5000B4010E943729A70196010E94CA286B018E
:101C60007C0161E177E280E090E00E94A60D0E9495
:101C7000A72720E030E44CE156E40E94FD2620E056
:101C800030E040E850E40E94CA2820E030E040E024
:101C900050E40E94142629813A814B815C810E9484
:101CA00015264B015C0161E177E280E090E00E9443
:101CB000A60DF10180829182A282B3820E94A727A1
:101CC00020E030E44CE156E40E94FD2620E030E0C4
:101CD00040E850E40E94CA2820E030E040E050E4B0
:101CE0000E941426A70196010E941526F101648323
:101CF000758386839783F9E16F0E711C88E0280E47
:101D0000311CEEE56E16E1E07E0609F05ACFAD809B
:101D1000BE80F0E7AF0EB11CC12CD12C760126019C
:101D20003701F8012081318142815381C301B20121
:101D30000E9415262B013C01F80124813581468142
:101D40005781C701B6010E9415266B017C01085F0F
:101D50001F4FA016B10629F720E030E040E651E41D
:101D6000C301B2010E94FD260E946F2770931F07D6
:101D700060931E0720E030E040E651E4C701B60161
:101D80000E94FD260E946F2770931D0760931C0719
:101D90008D819E8126960FB6F894DEBF0FBECDBF13
:101DA000DF91CF911F910F91FF90EF90DF90CF9037
:101DB000BF90AF909F908F907F906F905F904F906B
:101DC0003F902F900895683681E078070CF409CF92
:101DD0006856714006CFCF93DF9360E072E080E0F9
:101DE00090E00E94A60DC2E9D1E00E94A727688377
:101DF00079838A839B8360E072E080E090E00E94B8
:101E0000A60D0E94A7276C837D838E839F8362E04B
:101E100070E080E090E00E94A60D79876887DF91EE
:101E2000CF9108952F923F924F925F926F927F923F
:101E30008F929F92AF92BF92CF92DF92EF92FF92DA
:101E40000F931F93CF93DF93CDB7DEB72E970FB6C7
:101E5000F894DEBF0FBECDBF109217071092160781
:101E600035E0232E312C0EE010E06EE070E080E0D3
:101E700090E00E94A60D20911807309119073A872B
:101E80002987FB0183E0EE0FFF1F8A95E1F7E20F40
:101E9000F31F20813181428153812D833E834F8303
:101EA0005887248135814681578129833A834B8322
:101EB0005C83CB010196B8010E94B22923E0880F10
:101EC000991F2A95E1F749855A85480F591F5A8766
:101ED00049872D813E814F815885E985FA8560814A
:101EE0007181828193810E9414262B013C012981FA
:101EF0003A814B815C81E985FA85648175818681AF
:101F000097810E9414266B017C01A30192010E941B
:101F1000942669877A878B879C870E94432520E1D6
:101F200037E240E050E00E94B1250E94A72720E060
:101F300030E44CE156E40E94FD264B015C018091A7
:101F40001607909117074EE0489F9001499F300D6A
:101F500011242053394F3E872D87A5019401C301D9
:101F6000B2010E94CA282D813E814F8158850E946E
:101F7000152620E030E040E853E40E941526ED8568
:101F8000FE856083718382839383A5019401C701D9
:101F9000B6010E94CA2829813A814B815C810E9446
:101FA000152620E030E040E853E40E941526ED8538
:101FB000FE8564837583868397832BED3FE049EC30
:101FC0005FE369857A858B859C850E941526ED8562
:101FD000FE85608771878287938768E770E080E07D
:101FE00090E00E94A60D20911607309117074EE051
:101FF000429FF001439FF00D1124E053F94F758784
:102000006487C9010196909317078093160751E0E2
:10201000251A310809F029CFE6E2F6E01082719620
:1020200086E0E03DF807D1F72E960FB6F894DEBFB4
:102030000FBECDBFDF91CF911F910F91FF90EF9019
:10204000DF90CF90BF90AF909F908F907F906F90D8
:102050005F904F903F902F9008952F923F924F9214
:102060005F926F927F928F929F92AF92BF92CF9228
:10207000DF92EF92FF920F931F93CF93DF93CDB731
:10208000DEB72E970FB6F894DEBF0FBECDBF10920D
:102090001B0710921A0703E010E06EE070E080E08A
:1020A00090E00E94A60D20911807309119073A87F9
:1020B0002987FB0183E0EE0FFF1F8A95E1F7E20F0E
:1020C000F31F208131814281538129833A834B83DD
:1020D0005C8324813581468157812D833E834F83E4
:1020E0005887CB0101966EE070E00E94B22923E090
:1020F000880F991F2A95E1F749855A85480F591F7E
:102100005A87498729813A814B815C81E985FA8523
:1021100060817181828193810E9414262B013C0190
:102120002D813E814F815885E985FA8564817581CD
:10213000868197810E9414266B017C01A301920184
:102140000E94942669877A878B879C870E94432503
:1021500020E137E240E050E00E94B1250E94A7272D
:1021600020E030E44CE156E40E94FD264B015C0186
:1021700020901A0730901B074EE0429D9001439D2E
:10218000300D11242059384F3E872D87AC019B011B
:10219000C301B2010E94CA2829813A814B815C8126
:1021A0000E94152620E030E040E853E40E94152606
:1021B000ED85FE856083718382839383A5019401FD
:1021C000C701B6010E94CA282D813E814F815885E2
:1021D0000E94152620E030E040E853E40E941526D6
:1021E000ED85FE8564837583868397832BED3FE0C1
:1021F00049EC5FE369857A858B859C850E9415266D
:10220000ED85FE856087718782879387FFEF2F1AA0
:102210003F0A30921B0720921A070150110909F05A
:102220003CCF2E960FB6F894DEBF0FBECDBFDF9128
:10223000CF911F910F91FF90EF90DF90CF90BF90C3
:10224000AF909F908F907F906F905F904F903F9056
:102250002F900895FC0101900020E9F73197AF011C
:10226000481B590BBC0184EA97E00C946505CF9399
:10227000DF930E942A11EC018CE491E00E942A1164
:102280008C0F9D1FDF91CF9108958F929F92AF92F7
:10229000BF92CF92DF92EF92FF920F931F93CF9353
:1022A000DF93CDB7DEB7A1970FB6F894DEBF0FBEB0
:1022B000CDBF6C01990FEE08FF08F7FE41C06DE23B
:1022C00084EA97E00E9476098C0122273327A9012E
:1022D0002C193D094E095F0919A2CE0181967C0196
:1022E0009AE0892E912CA12CB12CCA01B901A5012B
:1022F00094010E94E325605DF70162937F0121153F
:1023000031054105510589F790E080E0309719F0DB
:10231000CF010E942A11800F911FA1960FB6F89449
:10232000DEBF0FBECDBFDF91CF911F910F91FF9008
:10233000EF90DF90CF90BF90AF909F908F900895D7
:10234000A701960119A28E010F5D1F4F8AE0C82ECA
:10235000D12CE12CF12CCA01B901A70196010E94F0
:10236000E325605DF80162938F0121153105410578
:10237000510589F790E080E0309779F2CF010E9413
:102380002A11CBCF0F931F93CF93DF9380910D0131
:1023900090910E010197181619060CF496C083E06F
:1023A00090E090930E0180930D0180E197E290936D
:1023B000100180930F010E948B088AE090E09093B7
:1023C0009101809390018EE190E090938B01809336
:1023D0008A018FE491E00E9437118AE591E00E9422
:1023E00037118BE691E00E9437110E94AB08809173
:1023F0009D0180939C010E94830880939D010E940F
:1024000083088823A1F380E090E0A0E8B3E4809300
:10241000FF0190930002A0930102B0930202109278
:10242000FB011092FC011092FD011092FE0110922E
:102430000B0210920C0210920D0210920E021092DA
:102440000702109208021092090210920A021092DA
:1024500003021092040210920502109206020E94DA
:102460007B04611571058105910511F00E9492258B
:102470000E94C00D90931907809318070E942D1099
:102480000E94120F0E94EB0E10929E011092AF015B
:102490001092C0011092D1011092E201C0EDD6E07D
:1024A00010E000E0809116079091170708171907B0
:1024B0008CF468E770E080E090E00E94A60D7D87D4
:1024C0006C870F5F1F4F2E96EDCF90930E01809378
:1024D0000D0199CFE6E2F6E01082719686E0E03DCC
:1024E000F807D1F7DF91CF911F910F9108950C94C8
:1024F0009B251F920F920FB60F9211242F933F939B
:102500008F939F93AF93BF9380911002909111028C
:10251000A0911202B091130230910F0223E0230F19
:102520002D3758F50196A11DB11D20930F02809300
:10253000100290931102A0931202B09313028091A3
:10254000140290911502A0911602B0911702019603
:10255000A11DB11D8093140290931502A093160241
:10256000B0931702BF91AF919F918F913F912F919F
:102570000F900FBE0F901F90189526E8230F02961C
:10258000A11DB11DD2CF1F920F920FB60F92112431
:102590008F939F938091E1009091E100937F9093BE
:1025A000E10083FF0FC01092E90091E09093EB00EF
:1025B0001092EC0092E39093ED001092250298E0C7
:1025C0009093F00082FF22C093E09093E9009091F5
:1025D000F200992319F09AE39093E8009091870113
:1025E000992341F090918701915090938701911127
:1025F00001C05D9A90912402992341F090912402A8
:10260000915090932402911101C0289A84FF18C020
:102610008091E2008E7E81608093E2008091E100F3
:102620008F7E8093E100809188018E7E806180930F
:1026300088019F918F910F900FBE0F901F9018955A
:1026400080FFF7CF8091E2008E7E80618093E20070
:102650008091E1008E7E8093E100809188018E7EE2
:102660008160E5CF1F920F920FB60F921124CF9287
:10267000DF92EF92FF920F931F932F933F934F930D
:102680005F936F937F938F939F93AF93BF93EF93DA
:10269000FF93CF93DF93CDB7DEB76C97DEBFCDBF8F
:1026A0001092E9008091E80083FF25C068E0CE0128
:1026B00045960E94580582EF8093E8008D8987FF38
:1026C00039C09091E80090FFFCCF982F907609F0E8
:1026D00034C19E894F89588D2F89F88C911131C052
:1026E000803861F5809189018093F1001092F100AA
:1026F0008EEF8093E8006C960FB6F894DEBF0FBEA5
:10270000CDBFDF91CF91FF91EF91BF91AF919F919D
:102710008F917F916F915F914F913F912F911F9179
:102720000F91FF90EF90DF90CF900F900FBE0F9022
:102730001F9018959EEF9093E800C7CF1092F1007C
:10274000D5CF913059F48111D3CF4130510581F665
:10275000809189018D7F80938901CACF933049F49C
:102760008111C6CF4130510519F6809189018260EF
:10277000F2CF953041F48091E80080FFFCCF2068D3
:102780002093E300B5CF963009F0A9C00B8D1C8DC6
:1027900022E01092E9001092850110928401F21259
:1027A0002EC010928301109282010E9427051F8281
:1027B00099E09983FA8291E09E8390EA98879AEF54
:1027C00099872091840130918501275F3F4F3C8399
:1027D0002B838D831092E900109285011092840161
:1027E000109383010093820149E050E0BE016F5FC6
:1027F0007F4F80E00E9401050E94270579CF10934A
:102800008301009382010E946704DC0112960D91FE
:102810001C910115110509F451C1D801ED91FC91EC
:102820000480F581E02DBE016B5E7F4FC8010995E4
:10283000009709F03EC1F80100851185EACFF3E069
:10284000FF120EC08F89882309F440C0823061F4E2
:1028500040E867E08EE197E00E946415811148CF5F
:1028600081E28093EB0047CF813029F440E86BE0B0
:1028700082E197E0F1CF833099F70E946704DC0191
:102880001296ED90FC908E010F5F1F4F6801E114CE
:10289000F10479F0D701ED91FC910680F781E02DEC
:1028A000B801C7010995080F111DF701E084F184F3
:1028B000EECFD8011C92F60101900020E9F7319784
:1028C000BF016C197D0940E0C601C6CF6CEF76E010
:1028D000FB01449150E080E80E94010509CF973048
:1028E00009F4BECF983021F481E08093F10000CF4D
:1028F000993009F0FDCE837009F0B2CFECE1F1E040
:1029000081E031E096E32191222371F08093E90088
:102910003093EB00DF0111972C912093EC00909302
:10292000ED008F5F873079F78EE78093EA00109291
:10293000EA008F8980932502DBCE8B8D9C8D1092CF
:10294000E900109285011092840190938301809395
:102950008201898D811192C08E899D89913A49F4B5
:10296000813209F07DCF47E050E064E071E080E023
:10297000B3CF913209F074CF833269F48F89988D87
:10298000B0E0A0E08093000190930101A0930201C8
:10299000B0930301ADCE803269F48091E80082FFEC
:1029A000FCCF67E084E091E00E9458058BEF8093B4
:1029B000E8009ECE823209F09BCE8F8980930B0176
:1029C000EEEFFFE7859194918B3F9C4D51F1E0E054
:1029D000F8E08091040190910501A0910601B09169
:1029E0000701803B9440A105B105F1F480910B01F2
:1029F00080FD1AC0EE3F8AE0F80789F587E797E780
:102A000091838083809160008093860188E19BE0C0
:102A10000FB6F894A895809360000FBE9093600065
:102A200067CEEEEFFAE0D5CF808191818737974767
:102A300009F05ECEA8958091600088618093600067
:102A40008091860180936000EE3F2AE0F20789F0D2
:102A50008091FE0A9091FF0A9183808349CE808104
:102A600091818737980751F29093FF0A8093FE0A6D
:102A7000C5CF1092FF0A1092FE0A3ACE0E94670458
:102A8000DC0112960D911C910115110509F4E8CE97
:102A9000D801ED91FC910190F081E02DBE016B5EBB
:102AA0007F4FC8010995811123CEF801008511855A
:102AB000EBCF181619060CF41BCED2CEF1E0FF12A4
:102AC000BECE60E077E004CFEF92FF920F931F93AA
:102AD000CF93DF93F82E192FE62E042F81E0860F77
:102AE000880F0E94D30483E00E94D304CF2DD12FFE
:102AF000EC0EFD2EF11CCE15DF05B9F007FF13C05B
:102B0000FE0184910E94D304182F80E00E94D30418
:102B1000812321968111EFCFDF91CF911F910F91EA
:102B2000FF90EF9008958881EDCF81E0F5CFE0E24E
:102B3000F7E01382128288EE93E0A0E0B0E0848395
:102B40009583A683B78386E291E0918380838FEF9C
:102B50009FEF95878487E4EAF7E01382128284E48A
:102B600091E091838083EAE9F7E01382128288E39F
:102B700091E09183808388E0818781E0808715825E
:102B8000168214828783E0E7F7E084EC99E095876A
:102B90008487938F828F91A780A70895CF93DF9327
:102BA000CDB7DEB7E7970FB6F894DEBF0FBECDBF47
:102BB000789484B5826084BD84B5816084BD85B518
:102BC000826085BD85B5816085BD80916E00816024
:102BD00080936E00109281008091810082608093CA
:102BE00081008091810081608093810080918000CC
:102BF0008160809380008091910082608093910039
:102C0000809191008160809391008091900081601B
:102C1000809390008091C10084608093C100809176
:102C2000C10082608093C1008091C1008160809367
:102C3000C1008091C30081608093C3008091C00077
:102C400082608093C0008091C20081608093C20046
:102C500080917A00846080937A0080917A0082600B
:102C600080937A0080917A00816080937A008091CD
:102C70007A00806880937A00109225021092890170
:102C8000109288018091D70081608093D70080EAFC
:102C90008093D80089B5806189BD89B5826089BD7E
:102CA00009B400FEFDCF61E070E080E090E00E949A
:102CB000A0048091D8008F7C80618093D80080919F
:102CC000E000807F8093E0008091E1008E7E809321
:102CD000E1008DE08093E200559A209A8FEF9FEFFC
:102CE00090932D0780932C0760ED77E080E090E0D3
:102CF0000E94A00481EC80937C0085B1806F85B92F
:102D000084B1877E84B984B1876E84B95E9A5F98F6
:102D10008AB1806D8AB9769A6E9881B3806F81BBD3
:102D2000899880B38D7080BB80E58CBD81E08DBDBE
:102D300085E090E00E947E085F9A85E090E00E9426
:102D40007E085E985C98E6EDF7E083EE97E02491CC
:102D50002EBD00000DB407FEFDCF31968E179F07E4
:102D6000B1F75C9A81E8809364008091650081608E
:102D7000809365000E94AB0880E80E94A008882329
:102D8000A9F05C9885EA8EBD00000DB407FEFDCF6A
:102D90005C9A2E982F982D98809164008062809381
:102DA000640081E083BF889513BEFCCF84E00E945D
:102DB000A008882309F448C02D9884E80E94A00840
:102DC0008823E1F00E947C0888EC90E00E947E0855
:102DD0002F9882E090E00E949B258F3F29F06FEFB3
:102DE00082E090E00E94A32584EF91E00E947E089B
:102DF0002F9A84E80E94A0088111FBCF84E10E94F1
:102E0000A0088823E1F00E947C0888EC90E00E94F2
:102E10007E082E9882E090E00E949B25882329F06E
:102E200060E082E090E00E94A32584EF91E00E94A0
:102E30007E082E9A84E10E94A0088111FBCF88ECC5
:102E400090E00E947E08B2CF0E947C0882E090E071
:102E50000E947712882309F496C03E9A3F9A81E037
:102E600090E00E947712282F2470722E81FF15C0E7
:102E700021112E9861EF262E33243A9408E010E0B9
:102E80007CE6E72EF12C80E40E94A008882309F458
:102E90007DC02E9A2F9A0E947C0882E390E00E94C7
:102EA0007E080E9483088111F8CF80E180930C0195
:102EB00061E070E080E090E00E94A0040E947B044A
:102EC000611571058105910511F00E9492250E94FE
:102ED000C00D90931907809318070E942D100E942F
:102EE000120F0E94EB0E80E090E0A0E8B3E4809324
:102EF000FF0190930002A0930102B093020210928E
:102F0000FB011092FC011092FD011092FE01109243
:102F10000B0210920C0210920D0210920E021092EF
:102F20000702109208021092090210920A021092EF
:102F300003021092040210920502109206021092EF
:102F40009E011092AF011092C0011092D101109217
:102F5000E2018FB7F89440911002509111026091F4
:102F60001202709113028FBFB0918E01BDA3BB23DB
:102F700009F4DEC010928E0180E090E0892B49F3C5
:102F80000E940000E6CF3E983F9869CF772031F04D
:102F900034E02316310411F42E9A2F9881E00E9418
:102FA0001D04910137FE04C022273327221933095B
:102FB00027703327C10137FC079653E09595879515
:102FC0005A95E1F737FE05C00197A801421B530B44
:102FD0009A01BC017695762F6627779567956A5D8D
:102FE0007D4FB0E0A0E02801421A530A8E3F5FEF08
:102FF000950709F446C048E550E0FD01E258F84F56
:103000005F014B01F0E88F0E911C8F3F9807C9F0CC
:10301000F501E41BF50B64906701C41AD50AC60ECE
:10302000D71EE62DF0E0022E02C0EE0FFF1F0A941D
:10303000E2F7FE83ED83F6016080FD816F2AF601E1
:10304000608221153105C9F0F501E41BF50B649090
:103050006701C41AD50AC80CD91CE62DF0E0042C6F
:1030600002C0F595E7950A94E2F7FE83ED83F60139
:103070006080FD816F2AF60160824150510909F09C
:10308000C4CF0196A85ABF4F60587F4FA03BB105EF
:1030900009F0ACCF0E94AB088FE090E00E947E0860
:1030A000FFEF2F1A3F0A29E12216310409F0EBCE77
:1030B000772011F02F9A2D9880E991E00E947E08E8
:1030C0000E947C0881E090E00E94771280FFE5CEAC
:1030D0008AE090E00E9477129FEF980F9E3F08F0E1
:1030E000DCCE22E330E0309391012093900128E37D
:1030F00030E030938B0120938A014BE050E05A83FB
:103100004983682F84EA97E00E94760989819A8131
:103110000E947712A981BA811196BA83A983519727
:1031200081F70E94AB0888EE93E00E947E08B5CE3E
:1031300080918F01E42FE81B8E2F90910C01E917ED
:1031400048F48F5F891708F017CF81E083BF889517
:1031500013BE12CF81E080938E0140938F01809146
:103160008C0190918D01019690938D0180938C013B
:10317000F0919D01F98BF0939C010E948308898353
:1031800080939D010E948B0880E20E94A008882302
:10319000B1F02DEC3CEC4CEC5DE360910B027091D6
:1031A0000C0280910D0290910E020E9414266093F1
:1031B0000B0270930C0280930D0290930E0280E438
:1031C0000E94A0088823B1F02DEC3CEC4CEC5DE3B0
:1031D00060910B0270910C0280910D0290910E0291
:1031E0000E94152660930B0270930C0280930D02CF
:1031F00090930E0288E00E94A008882309F453C02F
:103200008090030290900402A0900502B090060204
:103210002BED3FE049EC5FE360910B0270910C02F3
:1032200080910D0290910E020E9414266B017C0188
:103230000E94F8262DEC3CEC4CEC5DE30E94CA2881
:103240009B01AC0160910702709108028091090214
:1032500090910A020E94152660930702709308025B
:103260008093090290930A02C701B6010E94372990
:103270002DEC3CEC4CEC5DE30E94CA28A5019401C6
:103280000E94152660930302709304028093050246
:103290009093060280910F019091100101979093F5
:1032A000100180930F012091FF01309100024091A5
:1032B00001025091020229873A874B875C8760910F
:1032C0001E0770911F077395072E000C880B990B32
:1032D0000E94A72729853A854B855C850E94142684
:1032E0004B015C018091FB019091FC01A091FD01DB
:1032F000B091FE018D839E83AF83B88760911C07D8
:1033000070911D077395072E000C880B990B0E9476
:10331000A7272D813E814F8158850E9414266B017D
:103320007C01A5019401C501B4010E94CA282B01AA
:103330003C01A7019601C701B6010E94CA289B0162
:10334000AC01C301B2010E9415260E9445292B0140
:103350003C0120E030E0A9010E94BD28181684F449
:10336000A3019201C501B4010E94FD264B015C013D
:10337000A3019201C701B6010E94FD266B017C01E9
:103380002AE037ED43E25CE3C501B4010E94CA289C
:1033900020910702309108024091090250910A02DF
:1033A0000E9415266D877E878F87988B2AE037EDE0
:1033B00043E25CE3C701B6010E94CA2820910302E0
:1033C0003091040240910502509106020E94152698
:1033D0002B013C012D853E854F85588969857A856D
:1033E0008B859C850E9415264B015C018092FF0114
:1033F00090920002A0920102B0920202A3019201F7
:103400006D817E818F8198850E9415266B017C01DC
:10341000C092FB01D092FC01E092FD01F092FE010E
:1034200024EA30E74DE75FE36D857E858F859889D7
:103430000E94CA28609307027093080280930902D1
:1034400090930A0224EA30E74DE75FE3C301B2013B
:103450000E94CA28609303027093040280930502BD
:103460009093060220E030E0A901C501B4010E945A
:10347000F32687FF08C01092FF01109200021092FD
:1034800001021092020220E030E040E054E460913A
:10349000FF017091000280910102909102020E944E
:1034A000BD28181664F480E090E0A0E0B4E48093B6
:1034B000FF0190930002A0930102B093020220E06A
:1034C00030E0A901C701B6010E94F32687FF08C0BA
:1034D0001092FB011092FC011092FD011092FE016E
:1034E00020E030E040E054E46091FB017091FC0189
:1034F0008091FD019091FE010E94BD28181664F490
:1035000080E090E0A0E0B4E48093FB019093FC01A4
:10351000A093FD01B093FE012091FF0130910002C4
:1035200040910102509102022D833E834F835887C0
:1035300020E030E040E852E46D817E818F81988503
:103540000E9414264B015C018092F7019092F801D1
:10355000A092F901B092FA018091FB019091FC01D7
:10356000A091FD01B091FE018D879E87AF87B88B3A
:1035700020E030E040E052E4BC01CD010E9414267E
:103580006B017C01C092F301D092F401E092F5014D
:10359000F092F60120E030E0A901C501B4010E94DB
:1035A000F32687FF08C01092F7011092F8011092DD
:1035B000F9011092FA0120E030E040EC53E4609110
:1035C000F7017091F8018091F9019091FA010E9440
:1035D000BD28181664F480E090E0A0ECB3E480937A
:1035E000F7019093F801A093F901B093FA0120E05C
:1035F00030E0A901C701B6010E94F32687FF08C089
:103600001092F3011092F4011092F5011092F6015C
:1036100020E030E040EE53E46091F3017091F4015A
:103620008091F5019091F6010E94BD28181664F46E
:1036300080E090E0A0EEB3E48093F3019093F40176
:10364000A093F501B093F601998992FD4AC0A98132
:10365000A2FF47C0EEE9F1E050E040E020812111F7
:10366000D0C160910B0270910C0280910D0290917B
:103670000E0221E1249FF001259FF00D1124E25656
:10368000FE4FFA83E98321E020832D813E814F8123
:10369000588521833283438354832D853E854F850E
:1036A000588925833683478350872BED3FE049ECCB
:1036B0005FE30E9414266B017C010E94F826E981D9
:1036C000FA816187728783879487C701B6010E9458
:1036D0003729A981BA811D966D937D938D939C9313
:1036E0005097EEE9F1E0FE8FED8FFA83E983A9812F
:1036F000BA818C91882309F453C019962D913D917C
:103700004D915C911C9711966D917D918D919C913D
:1037100014970E9415264B015C01E981FA81818290
:103720009282A382B482258536854785508965813A
:103730007681878190850E9415266B017C01A98185
:10374000BA811596CD92DD92ED92FC92189720E009
:1037500030E0A901C501B4010E94F32687FD1DC018
:1037600020E030E040E054E4C501B4010E94BD28EF
:1037700018169CF020E030E0A901C701B6010E94B4
:10378000F32687FD0AC020E030E040E054E4C701A2
:10379000B6010E94BD2818161CF4E981FA81108236
:1037A00029813A812F5E3F4F3A832983235F31403D
:1037B00009F09DCF8EE991E09A878987A985BA851E
:1037C0008C91882309F454C019962D913D914D9107
:1037D0005C911C9711966D917D918D919C911497A0
:1037E0000E9415264B015C01E985FA85818292824F
:1037F000A382B48225853685478550896581768187
:10380000878190850E9415266B017C01A985BA8568
:103810001596CD92DD92ED92FC92189720E030E063
:10382000A901C501B4010E94F32687FD1EC020E056
:1038300030E040E054E4C501B4010E94BD281816F0
:10384000A4F020E030E0A901C701B6010E94F326F0
:1038500087FD0BC020E030E040E054E4C701B60132
:103860000E94BD2818160CF0D4C0E985FA85108294
:1038700089859A8541969A878987835F914009F067
:103880009DCF80E10E94A008811130C1E091160710
:10389000F0911707FA8BE98B20ED36E03E8B2D8BEC
:1038A00089011A82198249895A8989819A818417E2
:1038B00095070CF01BC3D8011C968D919C911D9708
:1038C0000197181619060CF40CC3E8E7F0E01D96F2
:1038D000FC93EE931C97E6E2F6E0312C212C8081DC
:1038E0008111F5C2D8011496CD90DD90ED90FC9039
:1038F00017972D913D914D915C91B1E1B29DF001F1
:10390000B39DF00D1124EA5DF94F81E0808321839E
:10391000328343835483C582D682E782F0866D81E9
:103920007E818F8198850E9414262B013C01A7017E
:1039300096016D857E858F8598890E9414264B019E
:103940005C01A3019201C301B2010E94CA286B016C
:103950007C01A5019401C501B4010E94CA289B0104
:10396000AC01C701B6010E9415260E9445296B01D2
:103970007C012FE632E143E85AE30E94F32687FFF9
:1039800008C09FE6C92E92E1D92E93E8E92E9AE36A
:10399000F92EE1E1E29DD001E39DB00D1124AA5D75
:1039A000B94FBA8FA98FA7019601C301B2010E9436
:1039B000FD2620E030E040E05FE30E94CA28A98DA8
:1039C000BA8D19966D937D938D939C931C97A70147
:1039D0009601C501B4010E94FD2620E030E040E0E0
:1039E0005FE30E94CA28E98DFA8D6587768787870D
:1039F000908BE981FA813196FA83E983025F1F4F48
:103A000052CF4F5F5F4F71964530510509F026CE7A
:103A100068CE20ED36E03A8B298B10E000E0A989D2
:103A2000BA892D913D914D915C91C501B4010E94DF
:103A300014262B013C01E989FA89248135814681CC
:103A40005781C701B6010E94142669837A838B834C
:103A50009C83A3019201C301B2010E94CA282B01D9
:103A60003C0129813A814B815C81CA01B9010E94E4
:103A7000CA289B01AC01C301B2010E94152620E0B7
:103A800030E040EB51E40E94F32687FF22C0A98575
:103A9000BA851C9280911607909117070197909311
:103AA000170780931607EEE0E09FD001E19FB00D6D
:103AB0001124A053B94F2EE0289FF001299FF00D4B
:103AC0001124E053F94F8EE001900D928A95E1F7B1
:103AD000CFCE0F5F1F4F49895A89425F5F4F5A8B84
:103AE000498B0530110509F09ACFC2CE80900B02A8
:103AF00090900C02A0900D02B0900E02C501B4018E
:103B00000E94F8266B017C01C501B4010E9437298F
:103B10004B015C0120E030E048EC51E40E94CA28EF
:103B200069837A838B839C8320E030E040E751EC0B
:103B3000C701B6010E94CA2829813A814B815C8164
:103B40000E9414262D813E814F8158850E941526A2
:103B50006AA77BA78CA79DA720E030E048EC51E442
:103B6000C701B6010E94CA28698B7A8B8B8B9C8B0C
:103B700020E030E040E751ECC501B4010E94CA28C2
:103B800029893A894B895C890E9415262D853E85B5
:103B90004F8558890E941526698F7A8F8B8F9C8F4D
:103BA00020E030E0A901C701B6010E94CA286D8B50
:103BB0007E8B8F8B988F20E030E0A901C501B40186
:103BC0000E94CA282B013C01AC019B016D897E89B2
:103BD0008F89988D0E9414262D813E814F815885B2
:103BE0000E9415266EA77FA788AB99ABA30192010F
:103BF0006D897E898F89988D0E9415262D853E8539
:103C00004F8558890E9415266AAB7BAB8CAB9DAB68
:103C100020E030E040E751E4C701B6010E94CA2825
:103C200029813A814B815C810E9414262D813E813D
:103C30004F8158850E9415266D8B7E8B8F8B988FB8
:103C400020E030E040E751E4C501B4010E94CA28F9
:103C500029893A894B895C890E9415262D853E85E4
:103C60004F8558890E94152669837A838B839C83AC
:103C700010E000E020901A0730901B070215130592
:103C80000CF004CE29813A814B815C816AA97BA921
:103C90008CA99DA90E9414262B013C012D893E89E7
:103CA0004F89588D6AA57BA58CA59DA50E941426D9
:103CB00069A37AA38BA39CA32EA53FA548A959A9C4
:103CC0006D897E898F89988D0E9414264B015C0135
:103CD00029813A814B815C81698D7A8D8B8D9C8D98
:103CE0000E941426A50194010E94CA286B017C0140
:103CF00029A13AA14BA15CA1C301B2010E94CA282B
:103D00009B01AC01C701B6010E941526698B7A8B15
:103D10008B8B9C8B20E030E0A9010E94F326882346
:103D200009F4D2C08EE0809FA001819F500D112424
:103D30004059584F5FAB4EAB2D893E894F89588D06
:103D4000AEA9BFA96D917D918D919C910E94142681
:103D50006B017C0129813A814B815C81EEA9FFA92D
:103D600064817581868197810E9414266EA37FA34A
:103D700088A799A7A7019601C301B2010E94CA288A
:103D80002B013C012EA13FA148A559A5C501B401B5
:103D90000E94CA289B01AC01C301B2010E941526F2
:103DA00029893A894B895C890E94FD264B015C0177
:103DB00020E030E0A9010E94BD2887FD85C020E0F9
:103DC00030E040E85FE3C501B4010E94F326181615
:103DD0000CF47AC0298D3A8D4B8D5C8D69817A8186
:103DE0008B819C810E941426A70196010E94CA28FB
:103DF0006B017C012EA13FA148A559A569A17AA11B
:103E00008BA19CA10E94CA289B01AC01C701B601ED
:103E10000E94152629893A894B895C890E94FD26D2
:103E20006B017C0120E030E0A9010E94BD2887FDE4
:103E30004BC020E030E040E85FE3C701B6010E94DC
:103E4000F32618160CF440C0A501940160E070E060
:103E500080E89FE30E941426A70196010E94142681
:103E60006B017C0120E030E0A9010E94BD2887FDA4
:103E70002BC020E030E040E85FE3C701B6010E94BC
:103E8000F32618160CF180910F01909110018C53BC
:103E9000964F9093100180930F01F1E02F1A310893
:103EA0002EE0229DF001239DF00D1124E059F84FE2
:103EB0008EE0AEA9BFA901900D928A95E1F73092EC
:103EC0001B0720921A07D6CE0F5F1F4FD3CE2FEFBE
:103ED000221A320A71963AE02316310409F0FFCC17
:103EE00088CD1D969C938E931C9783CD26E236E059
:103EF0003A8329831901D1018C91882309F469C07F
:103F00004090FF0150900002609001027090020208
:103F10002091FB013091FC014091FD015091FE0187
:103F20002D833E834F83588719962D913D914D9156
:103F30005C911C9711966D917D918D919C91149738
:103F40000E9415264B015C01D10111968D929D9224
:103F5000AD92BC9214971D962D913D914D915C911F
:103F6000509715966D917D918D919C9118970E9417
:103F700015266B017C01F101C582D682E782F086AD
:103F800020E030E0A901C501B4010E94F32687FDBD
:103F90001EC020E030E040E054E4C501B4010E94BE
:103FA000BD281816A4F020E030E0A901C701B60131
:103FB0000E94F32687FD0BC020E030E040E054E48F
:103FC000C701B6010E94BD2818160CF0DAC0D10155
:103FD0001C92F1E12F0E311C20ED36E02215330545
:103FE00009F089CF1A8A198AC0909201D090930162
:103FF000E0909401F0909501809096019090970147
:10400000A0909801B09099018091F7019091F801EA
:10401000A091F901B091FA018D839E83AF83B88797
:104020002091F3013091F4014091F5015091F60196
:104030002D873E874F87588B49895A8941305105D2
:1040400009F4D2C020E030E040E05FE3BC01CD01E4
:104050000E94CA289B01AC01C701B6010E94142628
:104060000E946F276B012B0120E030E040E05FE30E
:104070006D857E858F8598890E94CA289B01AC0139
:10408000C501B4010E9414260E946F273B01DA8EFD
:10409000C98E50E8C516D10408F0A6C077FDA4C0AB
:1040A000603471050CF0A0C040919A0150919B01C1
:1040B000FA01FF27FAA3E9A3440F4F5F6E1B7F0BA2
:1040C000C6010E945009EE24E394F12C29A13AA1E3
:1040D000E21AF30AD12CC12CC21AD30ACC0CDD1C73
:1040E00009891A89AA24A394B12C41E050E05A8B83
:1040F000498B89A19AA1081719070CF075CFF7FC15
:1041000008C001979AA389A392E0C90ED11CEC0CB8
:10411000FD1C0F5F1F4FA2E0AA0EB11CEA0CFB1C96
:1041200089A1880F8F5F8D87482FF30129A13AA1BC
:10413000E21BF30BFE83ED83BF01898D9A8D800F07
:10414000911F0E9450094301801A910A4A2DB4011F
:1041500089A19AA1840D951D0E9450094D856D81FC
:104160007E81898D9A8D801B910B0E9450094A2D6A
:10417000B401C201A9A1BAA18A1B9B0B0E945009DC
:10418000B8CFA3019201C501B4010E9414264B01CE
:104190005C012D813E814F815885C701B6010E9487
:1041A00014266B017C01A5019401C501B4010E9494
:1041B000CA284B015C01A7019601C701B6010E9404
:1041C000CA289B01AC01C501B4010E94152620E05C
:1041D00030E048EC51E40E94F32687FFFACE0E94BB
:1041E000C211F1011082F5CEE981FA818081882324
:1041F00011F12D853E854F855889658176818781AE
:1042000090850E9414260E946F276B012D813E81AC
:104210004F815885A981BA8111966D917D918D91BB
:104220009C9114970E9414260E946F27CB0141E0B5
:10423000B6010E94AE08E981FA817196FA83E9839A
:104240002E163F0689F6209018073090190720E0B7
:1042500030E040E853E4D1016D917D918D919C91C6
:104260000E9415262D813E814F8158850E9414267B
:104270000E946F273B0120E030E040E853E4F10169
:1042800064817581868197810E9415262D853E85E2
:104290004F8558890E9414260E946F278B013A8A05
:1042A000298A2101F8E64F0E511C3A82298220E02A
:1042B00030E040E853E4A981BA8118966D917D9170
:1042C0008D919C911B970E9415262D813E814F81D7
:1042D00058850E9414260E946F276B0120E030E071
:1042E00040E853E4E981FA81648575858685978580
:1042F0000E9415262D853E854F8558890E941426DB
:104300000E946F274B019B01A601B801C3010E94C7
:10431000CC0829813A81285F3F4F3A8329833601AF
:1043200084014216530619F620E030E040E853E4D9
:10433000D10114966D917D918D919C9117970E945A
:1043400015262D853E854F8558890E9414260E948A
:104350006F272B0120E030E040E853E4F101608159
:104360007181828193810E9415262D813E814F812A
:1043700058850E9414260E946F279201AB01B40158
:10438000C6010E94CC081FA21EA280911607909120
:1043900017072EA13FA1281739070CF4A5C040E745
:1043A00057E05AA349A3912C812C80911A07909130
:1043B0001B07881699060CF035C12BED3FE049EC40
:1043C0005FE3A9A1BAA118966D917D918D919C9101
:1043D0001B970E9415265B016C010E94F8262B0199
:1043E0003C01C601B5010E94372969837A838B831A
:1043F0009C832D853E854F855889E9A1FAA164816A
:104400007581868197810E9414266D8B7E8B8F8BA0
:10441000988F20E030E0A90169817A818B819C81AD
:104420000E94CA28698F7A8F8B8F9C8F20E030E0A2
:1044300040E050ECC301B2010E94CA289B01AC01CC
:10444000698D7A8D8B8D9C8D0E9415269B01AC0108
:104450006D897E898F89988D0E9415266D8B7E8B44
:104460008F8B988F2D813E814F815885A9A1BAA14C
:104470006D917D918D919C910E941426698F7A8F08
:104480008B8F9C8F20E030E0A901C301B2010E9414
:10449000CA282B013C0129813A814B815C81CA01E8
:1044A000B9010E9415269B01AC01C301B2010E9413
:1044B00015269B01AC01698D7A8D8B8D9C8D0E9498
:1044C0001526E12CF12C00E810E42D893E894F8956
:1044D000588D0E94710ABFEF8B1A9B0AE9A1FAA1BD
:1044E0003E96FAA3E9A361CF2BED3FE049EC5FE3F1
:1044F000AD89BE8918966D917D918D919C911B9788
:104500000E9414265B016C010E94F82669837A835D
:104510008B839C83C601B5010E943729698F7A8FEE
:104520008B8F9C8F2D853E854F855889ED89FE891F
:1045300064817581868197810E94142669A37AA37C
:104540008BA39CA320E030E0A901698D7A8D8B8D2F
:104550009C8D0E94CA282B013C0120E030E040E8FD
:1045600050EC69817A818B819C810E94CA289B01D1
:10457000AC01C301B2010E9415269B01AC0169A1E7
:104580007AA18BA19CA10E9415262B013C012D81B3
:104590003E814F815885AD89BE896D917D918D9108
:1045A0009C910E94142669A37AA38BA39CA320E06C
:1045B00030E0A90169817A818B819C810E94CA289F
:1045C00069837A838B839C8320E030E040E850E469
:1045D000698D7A8D8B8D9C8D0E94CA289B01AC01C0
:1045E00069817A818B819C810E9415269B01AC0197
:1045F00069A17AA18BA19CA10E941526E12CF12C26
:1046000000E011E4A30192010E94710AEEA1FFA152
:104610003196FFA3EEA32D893E89225F3F4F3E8B4B
:104620002D8BB3CEAD8DBE8D8C91882311F12D8550
:104630003E854F85588915966D917D918D919C9100
:1046400018970E9414260E946F276B012D813E81CE
:104650004F815885ED8DFE8D6181728183819481BA
:104660000E9414260E946F27CB0141E0B6010E94F0
:10467000AE082D8D3E8D2F5E3F4F3E8F2D8F49858D
:104680005A854217530771F68091FF0190910002FD
:10469000A0910102B09102028D8F9E8FAF8FB8A3BF
:1046A0002D813E814F815885BC01CD010E94142689
:1046B00069877A878B879C872091FB013091FC0169
:1046C0004091FD015091FE0129833A834B835C8325
:1046D0002D853E854F85588969817A818B819C81A2
:1046E0000E9414266D837E838F83988740900B02EF
:1046F00050900C0260900D0270900E021F921F925B
:104700001F9235E03F931F921F924FEF4F935BEF45
:104710005F934BEF842E99249A94B12CA12C7301B2
:1047200062010D811E812F81388549855A856B85EF
:104730007C8585E090E00E94E30B1F921F921F9200
:104740001F921F9281E08F939FEF9F93ABEFAF93E8
:1047500053E0852E912C6DEFA62EBB24BA940D81CB
:104760001E812F81388549855A856B857C8585E03A
:1047700090E00E94E30B1F921F921F921F921F92C4
:10478000B1E0BF931F92E5E0EF9373E0A72EB12C49
:104790000D811E812F81388549855A856B857C85E1
:1047A00085E090E00E94E30B88E00E94A0080FB62D
:1047B000F894DEBF0FBECDBF882301F11F9283E0C6
:1047C0008F931F9282E08F931F9287E08F931F92A7
:1047D0001F923EEFA32EBB24BA940D811E812F8120
:1047E000388549855A856B857C8583E090E00E94F9
:1047F000E30B0FB6F894DEBF0FBECDBF80E10E9481
:10480000A008882321F11F9289E18F931F928FE0E6
:104810008F931F921F921F921F9299E1892E912CC4
:1048200021EFA22EBB24BA94730162010D811E8177
:104830002F81388549855A856B857C8583E090E09A
:104840000E94E30B0FB6F894DEBF0FBECDBFADE004
:10485000B0E0BE83AD8310E000E0E989FA89C08052
:10486000D180E280F38020E030E040E853E46481CE
:104870007581868197810E9415264B015C012D81EF
:104880003E8183E0220F331F8A95E1F7220D331D0D
:104890003E832D83D9014D905D906D907C90139750
:1048A00020E030E040E853E414966D917D918D91C5
:1048B0009C9117970E94152669877A878B879C871A
:1048C000A501940169817A818B819C810E94F326E4
:1048D000881F8827881F8D8329853A854B855C85AD
:1048E00069817A818B819C810E94F326881F8827A9
:1048F000881FBD81B81709F448C020E030E040E8C7
:1049000053E4C701B6010E9415266B017C0120E02B
:1049100030E040E853E4C301B2010E941526A7012C
:1049200096010E9414262B013C01A5019401698186
:104930007A818B819C810E9414269B01AC01C3016A
:10494000B2010E94CA282B013C01A501940169858E
:104950007A858B859C850E9414269B01AC01C3013E
:10496000B2010E94FD26A70196010E9415269B0117
:10497000AC016D8D7E8D8F8D98A10E94F32687FFEF
:1049800004C0EDA1F1E0EF27EDA3C801019629894C
:104990003A89285F3F4F3A8B298B1E830D838E30D7
:1049A000910519F53DA1332331F086E791E00E948E
:1049B0002A110E94C21180910D0190910E010E9456
:1049C000451140E450E05093910140939001809153
:1049D0000F01909110010E944511109291011092C7
:1049E00090010E94AB080C94BC178C0136CF8F92BB
:1049F0009F92AF92BF92CF92DF92EF92FF92CF93AE
:104A0000DF93EC01688179818A819B816115710551
:104A10008105910521F464E279ED8BE597E02DE1C4
:104A200033EF41E050E00E94B12549015A019B015A
:104A3000AC01A7EAB1E40E94D0256B017C01ACEE89
:104A4000B4EFA50194010E94DE25C60ED71EE81E14
:104A5000F91EF7FE06C081E0C81AD108E10880E817
:104A6000F80AC882D982EA82FB82C701B6019F7721
:104A7000DF91CF91FF90EF90DF90CF90BF90AF90FC
:104A80009F908F9008958F929F92AF92BF92CF92F6
:104A9000DF92EF92FF92609111017091120180916B
:104AA000130190911401611571058105910521F49F
:104AB00064E279ED8BE597E02DE133EF41E050E0E2
:104AC0000E94B12549015A019B01AC01A7EAB1E45A
:104AD0000E94D0256B017C01ACEEB4EFA5019401DE
:104AE0000E94DE25C60ED71EE81EF91EF7FE06C080
:104AF00081E0C81AD108E10880E8F80AC0921101E3
:104B0000D0921201E0921301F0921401C701B60194
:104B10009F77FF90EF90DF90CF90BF90AF909F90E6
:104B20008F90089560931101709312018093130187
:104B3000909314010895F999FECF92BD81BDF89A22
:104B4000992780B50895262FF999FECF1FBA92BDF7
:104B500081BD20BD0FB6F894FA9AF99A0FBE01965E
:104B60000895052E97FB1EF400940E94C82557FD5A
:104B700007D00E94E32507FC03D04EF40C94C8250F
:104B800050954095309521953F4F4F4F5F4F089579
:104B900090958095709561957F4F8F4F9F4F0895A9
:104BA0000E940526A59F900DB49F900DA49F800D97
:104BB000911D11240895B7FF0C94D0250E94D02593
:104BC000821B930B0895A1E21A2EAA1BBB1BFD01A9
:104BD0000DC0AA1FBB1FEE1FFF1FA217B307E407DC
:104BE000F50720F0A21BB30BE40BF50B661F771F34
:104BF000881F991F1A9469F7609570958095909514
:104C00009B01AC01BD01CF010895A29FB001B39FEC
:104C1000C001A39F700D811D1124911DB29F700DC5
:104C2000811D1124911D08955058BB27AA270E9469
:104C30002C260C946F280E94362838F00E943D28BC
:104C400020F039F49F3F19F426F40C940C280EF44C
:104C5000E095E7FB0C940628E92F0E94942858F36E
:104C6000BA17620773078407950720F079F4A6F551
:104C70000C94B6280EF4E0950B2EBA2FA02D0B0144
:104C8000B90190010C01CA01A0011124FF27591B91
:104C900099F0593F50F4503E68F11A16F040A22F97
:104CA000232F342F4427585FF3CF46953795279508
:104CB000A795F0405395C9F77EF41F16BA0B620B07
:104CC000730B840BBAF09150A1F0FF0FBB1F661F4E
:104CD000771F881FC2F70EC0BA0F621F731F841F91
:104CE00048F4879577956795B795F7959E3F08F0B7
:104CF000B0CF9395880F08F09927EE0F9795879579
:104D000008950E94362860F080E891E009F49EEF53
:104D10000E943D2828F040E851E071F45EEF0CC09D
:104D20000C940C280C94B628E92FE0780E94942863
:104D300040F3092E052AB1F326173707480759070C
:104D400038F00E2E07F8E02569F0E025E0640AC08F
:104D5000EF6307F8009407FADB01B9019D01DC015C
:104D6000CA01AD01EF930E9414270E946F280E9490
:104D7000C4265F91552339F02BED3FE049E450FD07
:104D800049EC0C9415260895DF93DD27B92FBF77E2
:104D900040E85FE31616170648075B0718F4D92F9B
:104DA0000E94C2289F938F937F936F930E948529BF
:104DB000ECEAF0E00E940F280E946F282F913F91AB
:104DC0004F915F910E94DD28DD2351F09058A2EAB7
:104DD0002AED3FE049EC5FE3D0785D270E942C2666
:104DE000DF910C946F280E94E22708F481E0089577
:104DF0000E944628E3950C9480280E9411270C9469
:104E00006F280E943D2858F00E94362840F029F46F
:104E10005F3F29F00C94062851110C94B7280C948C
:104E20000C280E94942868F39923B1F3552391F339
:104E3000951B550BBB27AA2762177307840738F009
:104E40009F5F5F4F220F331F441FAA1FA9F335D066
:104E50000E2E3AF0E0E832D091505040E695001C1A
:104E6000CAF72BD0FE2F29D0660F771F881FBB1FD4
:104E7000261737074807AB07B0E809F0BB0B802DB2
:104E8000BF01FF2793585F4F3AF09E3F510578F0DE
:104E90000C9406280C94B7285F3FE4F3983ED4F3B3
:104EA000869577956795B795F7959F5FC9F7880FB2
:104EB000911D9695879597F90895E1E0660F771F04
:104EC000881FBB1F621773078407BA0720F0621B95
:104ED000730B840BBA0BEE1F88F7E09508950E94C0
:104EE00076276894B1110C94B72808950E949C28E5
:104EF00088F09F5798F0B92F9927B751B0F0E1F09B
:104F0000660F771F881F991F1AF0BA95C9F714C04A
:104F1000B13091F00E94B628B1E008950C94B62803
:104F2000672F782F8827B85F39F0B93FCCF3869583
:104F300077956795B395D9F73EF4909580957095E0
:104F400061957F4F8F4F9F4F0895E89409C097FB5D
:104F50003EF490958095709561957F4F8F4F9F4F50
:104F60009923A9F0F92F96E9BB279395F695879594
:104F700077956795B795F111F8CFFAF4BB0F11F457
:104F800060FF1BC06F5F7F4F8F4F9F4F16C08823FE
:104F900011F096E911C0772321F09EE8872F762F34
:104FA00005C0662371F096E8862F70E060E02AF075
:104FB0009A95660F771F881FDAF7880F9695879561
:104FC00097F90895990F0008550FAA0BE0E8FEEF36
:104FD00016161706E807F907C0F012161306E407BD
:104FE000F50798F0621B730B840B950B39F40A26B6
:104FF00061F0232B242B252B21F408950A2609F494
:10500000A140A6958FEF811D811D089597F99F6797
:1050100080E870E060E008959FEF80EC0895DF93F2
:10502000CF931F930F93FF92EF92DF927B018C013E
:10503000689406C0DA2EEF010E94DD28FE01E89494
:10504000A5912591359145915591A6F3EF010E94C7
:105050002C26FE019701A801DA9469F7DF90EF9002
:10506000FF900F911F91CF91DF91089500240A9432
:105070001616170618060906089500240A94121633
:1050800013061406050608950C940C280E949C280B
:10509000D8F3E894E0E0BB279F57F0F02AED3FE01B
:1050A00049EC06C0EE0FBB0F661F771F881F28F064
:1050B000B23A62077307840728F0B25A620B730B87
:1050C000840BE3959A9572F7803830F49A95BB0F6C
:1050D000661F771F881FD2F790480C948B29092EE2
:1050E0000394000C11F4882352F0BB0F40F4BF2B43
:1050F00011F460FF04C06F5F7F4F8F4F9F4F089583
:10510000EF93E0FF07C0A2EA2AED3FE049EC5FEB36
:105110000E942C260E946F280F90039401FC905847
:10512000E9EDF0E00C949E2957FD9058440F551F6F
:1051300059F05F3F71F04795880F97FB991F61F019
:105140009F3F79F087950895121613061406551F90
:10515000F2CF4695F1DF08C0161617061806991FFC
:10516000F1CF86957105610508940895E894BB27F1
:1051700066277727CB0197F908950E94E22708F464
:105180008FEF08959B01AC0160E070E080E89FE341
:105190000C94FD260E94DD280C946F280E9436286E
:1051A00038F00E943D2820F0952311F00C94062839
:1051B0000C940C2811240C94B7280E94942870F3A6
:1051C000959FC1F3950F50E0551F629FF001729FAC
:1051D000BB27F00DB11D639FAA27F00DB11DAA1FBB
:1051E000649F6627B00DA11D661F829F2227B00D08
:1051F000A11D621F739FB00DA11D621F839FA00D93
:10520000611D221F749F3327A00D611D231F849FE2
:10521000600D211D822F762F6A2F11249F57504039
:105220009AF0F1F088234AF0EE0FFF1FBB1F661FB4
:10523000771F881F91505040A9F79E3F510580F07D
:105240000C9406280C94B7285F3FE4F3983ED4F3FF
:10525000869577956795B795F795E7959F5FC1F721
:10526000FE2B880F911D9695879597F908959F932A
:105270000E9446280F9007FCEE5F0C94802819F4DA
:1052800016F40C940C280C9489290E949C28B8F3DD
:105290009923C9F3B6F39F57550B87FF0E949729AF
:1052A0000024A0E640EA900180585695979528F48E
:1052B000805C660F771F881F20F026173707480786
:1052C00030F4621B730B840B202931294A2BA695DD
:1052D00017940794202531254A2758F7660F771F22
:1052E000881F20F026173707480730F4620B730B2E
:1052F000840B200D311D411DA09581F7B901842F2C
:105300009158880F9695879508959B01AC010C9450
:10531000CA289F3F31F0915020F487957795679583
:10532000B795880F911D9695879597F90895915097
:105330005040660F771F881FD2F708959F938F9371
:105340007F936F93FF93EF939B01AC010E94CA2858
:10535000EF91FF910E940F282F913F914F915F9104
:105360000C94CA2897FB072E16F4009407D077FDFB
:1053700009D00E94C62907FC05D03EF4909581957E
:105380009F4F0895709561957F4F0895AA1BBB1B91
:1053900051E107C0AA1FBB1FA617B70710F0A61B35
:1053A000B70B881F991F5A95A9F780959095BC0156
:1053B000CD010895EE0FFF1F0590F491E02D0994A3
:1053C0000F931F93CF93DF938230910510F482E007
:1053D00090E0E091AA07F091AB0730E020E0B0E068
:1053E000A0E0309799F42115310509F44AC0281B33
:1053F000390B24303105D8F58A819B8161157105FF
:1054000089F1FB0193838283FE0111C040815181A8
:105410000281138148175907E0F04817590799F49A
:10542000109761F012960C93129713961C93329674
:10543000CF01DF91CF911F910F9108950093AA079B
:105440001093AB07F4CF2115310551F042175307E4
:1054500038F0A901DB019A01BD01DF01F801C1CFDC
:10546000EF01F9CF9093AB078093AA07CDCFFE0150
:10547000E20FF31F819391932250310939832883DE
:10548000D7CF2091A8073091A907232B41F4209171
:105490001701309118013093A9072093A807209194
:1054A0001501309116012115310541F42DB73EB794
:1054B0004091190150911A01241B350BE091A80766
:1054C000F091A907E217F307A0F42E1B3F0B281752
:1054D000390778F0AC014E5F5F4F2417350748F06D
:1054E0004E0F5F1F5093A9074093A8078193919394
:1054F0009FCFF0E0E0E09CCFCF93DF930097E9F0FF
:10550000FC01329713821282A091AA07B091AB07D7
:10551000ED0130E020E01097A1F420813181820F6D
:10552000931F2091A8073091A9072817390709F080
:1055300061C0F093A907E093A807DF91CF91089588
:10554000EA01CE17DF07E8F54A815B819E0141152C
:105550005105B1F7E901FB83EA8349915991C40FE1
:10556000D51FEC17FD0761F4808191810296840FAD
:10557000951FE90199838883828193819B838A8324
:10558000F0E0E0E012968D919C9113970097B9F5A9
:105590002D913C911197CD010296820F931F20917E
:1055A000A8073091A9072817390739F6309751F520
:1055B0001092AB071092AA07B093A907A093A8076F
:1055C000BCCFD383C28340815181840F951FC817FC
:1055D000D90761F44E5F5F4F88819981480F591F49
:1055E000518340838A819B81938382832115310576
:1055F00009F0B0CFF093AB07E093AA079ECFFD016F
:0E560000DC01C0CF13821282D7CFF894FFCF07
:10560E00FFFFFFFF00E1000000000000100300108C
:10561E0027010000000000AC07800000C18081005F
:10562E000000000000001706920538062D067E06C3
:10563E003C065A0600000000D90965056E0A6D0A7F
:10564E0000000000760965056E0A6D0A0D0A004716
:10565E00616D65204F7665722100507265737320FF
:10566E00616E7920627574746F6E00746F2072654E
:10567E0073746172740048495420504C414E455425
:02568E002100F9
:00000001FF
