:100000000C9498030C94C0030C94C0030C94C0038C
:100010000C94C0030C94C0030C94C0030C94C00354
:100020000C94C0030C94C0030C94A10A0C94100B04
:100030000C94C0030C94C0030C94C0030C94C00334
:100040000C94C0030C94C0030C94C0030C94C00324
:100050000C94C0030C94C0030C94C0030C94570A76
:100060000C94C0030C94C0030C94C0030C94C00304
:100070000C94C0030C94C0030C94C0030C94C003F4
:100080000C94C0030C94C0030C94C0030C94C003E4
:100090000C94C0030C94C0030C94C0030C94C003D4
:1000A0000C94C0030C94C0030C94C003084AD73BC3
:1000B0003BCE016E84BCBFFDC12F3D6C74319ABD37
:1000C00056833DDA3D00C77F11BED9E4BB4C3E915B
:1000D0006BAAAABE000000803F05A84CCDB2D44E4A
:1000E000B93836A9020C50B9918688083CA6AAAA4C
:1000F0002ABE000000803F0000000000003E5B4F71
:100100005B3E3E6B4F6B3E1C3E7C3E1C183C7E3C77
:10011000181C577D571C1C5E7F5E1C00183C180085
:10012000FFE7C3E7FF0018241800FFE7DBE7FF3015
:10013000483A060E2629792926407F050507407F83
:1001400005253F5A3CE73C5A7F3E1C1C08081C1CF6
:100150003E7F14227F22145F5F005F5F06097F01EC
:100160007F006689956A606060606094A2FFA294D7
:1001700008047E040810207E201008082A1C0808A5
:100180001C2A08081E101010100C1E0C1E0C3038F3
:100190003E3830060E3E0E06000000000000005FF4
:1001A00000000007000700147F147F14242A7F2A10
:1001B00012231308646236495620500008070300D2
:1001C000001C2241000041221C002A1C7F1C2A081E
:1001D000083E080800807030000808080808000081
:1001E00060600020100804023E5149453E00427FF5
:1001F000400072494949462141494D331814127F44
:100200001027454545393C4A4949314121110907E3
:100210003649494936464949291E00001400000064
:100220004034000000081422411414141414004136
:1002300022140802015909063E415D594E7C1211F3
:10024000127C7F494949363E414141227F4141412B
:100250003E7F494949417F090909013E41415173A6
:100260007F0808087F00417F41002040413F017F17
:10027000081422417F404040407F021C027F7F04DF
:1002800008107F3E4141413E7F090909063E415128
:10029000215E7F09192946264949493203017F0118
:1002A000033F4040403F1F2040201F3F4038403F19
:1002B000631408146303047804036159494D43002F
:1002C0007F4141410204081020004141417F040266
:1002D00001020440404040400003070800205454FD
:1002E00078407F28444438384444442838444428DB
:1002F0007F385454541800087E090218A4A49C782E
:100300007F0804047800447D40002040403D007F89
:100310001028440000417F40007C047804787C0869
:100320000404783844444438FC182424181824243D
:1003300018FC7C08040408485454542404043F4422
:10034000243C4040207C1C2040201C3C4030403C51
:1003500044281028444C9090907C4464544C4400B1
:100360000836410000007700000041360800020115
:100370000204023C2623263C1EA1A161123A404001
:10038000207A38545455592155557941215454787F
:1003900041215554784020545579400C1E52721218
:1003A00039555555593954545459395554545800A0
:1003B00000457C410002457D420001457C40F0291A
:1003C0002429F0F0282528F07C5455450020545469
:1003D0007C547C0A097F49324949493232484848AD
:1003E00032324A4848303A4141217A3A42402078F4
:1003F000009DA0A07D39444444393D4040403D3CEF
:1004000024FF2424487E4943662B2FFC2F2BFF0911
:1004100029F620C0887E0903205454794100004405
:100420007D413048484A32384040227A007A0A0AF0
:10043000727D0D19317D2629292F28262929292663
:1004400030484D4020380808080808080808382FA8
:1004500010C8ACBA2F102834FA00007B0000081432
:100460002A142222142A14089500220095AA005565
:1004700000AAAA55AA55AA000000FF00101010FFFC
:1004800000141414FF001010FF00FF1010F010F003
:10049000141414FC001414F700FF0000FF00FF14F4
:1004A00014F404FC141417101F10101F101F141440
:1004B000141F00101010F0000000001F101010108A
:1004C0001F10101010F010000000FF10101010107E
:1004D00010101010FF10000000FF140000FF00FFBC
:1004E00000001F10170000FC04F414141710171458
:1004F00014F404F40000FF00F7141414141414147A
:10050000F700F7141414171410101F101F141414EC
:10051000F4141010F010F000001F101F0000001F56
:1005200014000000FC140000F010F01010FF10FF89
:10053000141414FF141010101F00000000F010FF1E
:10054000FFFFFFFFF0F0F0F0F0FFFFFF0000000002
:1005500000FFFF0F0F0F0F0F38444438447C2A2A46
:100560003E147E02020606027E027E026355494167
:10057000633844443C04407E201E2006027E020272
:1005800099A5E7A5991C2A492A1C4C7201724C3086
:100590004A4D4D303048784830BC625A463D3E495D
:1005A0004949007E0101017E2A2A2A2A2A44445F01
:1005B000444440514A444040444A51400000FF01F5
:1005C00003E080FF000008086B6B08361236243603
:1005D000060F090F06000018180000001010003068
:1005E00040FF0101001F01011E00191D1712003CF0
:1005F0003C3C3C0000000000080B0002020200002E
:100600000904000001020200000524001001052475
:1006100001010104240206052406000107058103E7
:1006200010004009040100020A0000000705020250
:100630004000000705830240000004030904120182
:100640000002EF0201404123368000010102030154
:1006500041726475696E6F204C4C43004172647541
:10066000626F7900F0F89C8E8783878E9CF8F0008B
:1006700000FEFF0303030303070EFCF80000FEFF68
:100680000303030303070EFCF80000FFFF00000054
:1006900000000000FFFF0000FEFF8383838383C709
:1006A000EE7C380000F8FC0E07030303070EFCF88D
:1006B00000003F7FE0C08080C0E07F3FFFFF01017E
:1006C0000101010101FFFF0000FFFF0C0C0C0C1CDD
:1006D0003E77E3C100007FFFC0C0C0C0C0E0703FF4
:1006E0001F00001F3F70E0C0C0C0E0703F1F00004F
:1006F0007FFFC1C1C1C1C1E3773E1C00001F3F7035
:10070000E0C0C0C0E0703F1F000000000001FFFF1C
:1007100001000000D5F08D14A1C881CFD9F1AF2020
:1007200000070605040100080A0B0C0D0900750DF1
:1007300011241FBECFEFDAE0DEBFCDBF11E0A0E095
:10074000B1E0E2E4F9E302C005900D92AC33B107E9
:10075000D9F728E0ACE3B1E001C01D92AF30B20799
:10076000E1F713E0C8E9D3E004C02197FE010E943D
:10077000741BC739D107C9F70E94920D0C949F1CB6
:100780000C940000E7E7F3E0A0E0B8E000800EBCC6
:100790008111012C1197A0FDFDCF0192B9F70DB485
:1007A0000895FC0180917603882311F13FB7F894F6
:1007B00082E08093E9002091F200822F90E01816E9
:1007C000190614F481E090E0882339F0289844E673
:1007D000409375034091F1004083222339F020912A
:1007E000F200211103C02BE62093E8003FBF0895DB
:1007F0008FEF9FEF08952FB7F89483E08093E9007F
:100800009091E800892F807295FF04C09091F200CA
:1008100080E4891B2FBF089580916D0381110DC065
:1008200082E08093690384E080936A0310926C03F2
:1008300010926B0381E080936D0389E693E0089545
:100840003FB7F8948091650390916603A091670388
:10085000B091680326B5A89B05C02F3F19F00196FB
:10086000A11DB11D3FBFBA2FA92F982F8827BC010A
:10087000CD01620F711D811D911D42E0660F771F32
:10088000881F991F4A95D1F708958F929F92AF9232
:10089000BF92CF92DF92EF92FF926B017C010E9498
:1008A00020044B015C01C114D104E104F104B9F04E
:1008B0000E942004681979098A099B09683E7340DF
:1008C0008105910580F321E0C21AD108E108F10801
:1008D00088EE880E83E0981EA11CB11CE4CFFF9027
:1008E000EF90DF90CF90BF90AF909F908F90089542
:1008F00040913E0150913F0120913C0130913D01DA
:1009000042175307B4F49091E8009570E1F3909189
:10091000E80092FD19C08093F10080913E01909112
:100920003F0101968F739927892B19F48EEF8093DD
:10093000E80080913E0190913F01019690933F0124
:1009400080933E0181E0089580E00895DF92EF9268
:10095000FF920F931F93CF93DF93D82E8A01EB0161
:100960007B01E40EF51ECE15DF0559F0D7FE12C04F
:10097000FE0184910E94780421968111F4CF0FEF3B
:100980001FEFC801DF91CF911F910F91FF90EF9062
:10099000DF9008958881EECF0F931F93CF93DF935D
:1009A0001F92CDB7DEB782E0898342E450E068EF62
:1009B00075E080E80E94A6040E940C04DC011296F7
:1009C0000D911C910115110589F0D801ED91FC9153
:1009D0000280F381E02DBE016F5F7F4FC801099552
:1009E00097FD04C0F80100851185ECCF89810F9037
:1009F000DF91CF911F910F910895615030F02091B8
:100A0000F100FC0120830196F8CF289884E68093BA
:100A100075030895AF92BF92CF92DF92EF92FF924B
:100A20000F931F93CF93DF936C017B018B01040F16
:100A3000151FEB015E01AE18BF08C017D10759F0B2
:100A40006991D601ED91FC910190F081E02DC601F4
:100A50000995892B79F7C501DF91CF911F910F91EE
:100A6000FF90EF90DF90CF90BF90AF9008958F925E
:100A70009F92AF92BF92CF92DF92EF92FF920F932D
:100A80001F93CF93DF936C017B018A0180910B014F
:100A9000882309F45CC080917603882309F457C049
:100AA0008091420180FF05C08091E00082608093C8
:100AB000E000E801B12C8AEFA82E93E0892E2AE30A
:100AC000922E209711F4BB20D9F10E94FB038111D3
:100AD0000AC0AA94AA20D9F161E070E080E090E019
:100AE0000E944504EECF8C171D0611F00CF08C2FE0
:100AF0009FB7F8948092E9002091E80025FD02C09C
:100B00009FBFDFCF282F30E0C21BD30BF7018150EE
:100B100020F041914093F100FACFE20EF31EBB208A
:100B200021F09092E800B12CEBCF8091E80085FD98
:100B3000E7CF9092E800BB24B394209709F3F3CF5A
:100B40005D9884E680934101101611063CF081E027
:100B500090E0F6019383828310E000E0C801DF910A
:100B6000CF911F910F91FF90EF90DF90CF90BF90AA
:100B7000AF909F908F900895CF93DF931F92CDB742
:100B8000DEB76983DC01ED91FC910280F381E02DF9
:100B900041E050E0BE016F5F7F4F09950F90DF91FC
:100BA000CF91089583E08093E9008091F20088233B
:100BB00019F08AE38093E80008950E94FB0390E017
:100BC0000895CF93DF931F92CDB7DEB7FC018485E4
:100BD000958597FD08C02FEF3FEF358724870F904D
:100BE000DF91CF910895CE0101960E94D103019724
:100BF00019F4898190E0F3CF8FEF9FEFF0CF0F933F
:100C00001F93CF93DF931F92CDB7DEB78C01FC010A
:100C10008485958597FF0BC0CE0101960E94D10374
:100C2000019771F4898190E0F80195878487F80134
:100C3000848595850F90DF91CF911F910F91089535
:100C40008FEF9FEFF1CFFC018485958597FD0BC059
:100C50009FB7F89482E08093E9008091F2009FBFF3
:100C600090E0019608959FB7F89482E08093E900A0
:100C70008091F2009FBF90E008952D9A0895BC01E5
:100C800090E080E00C9445048FB18095807F669B56
:100C900088601C9B84600895CF93C82F0E944406EF
:100CA000982F9C2381E09C1380E0CF91089580E0F1
:100CB0000C94C20380389105B8F460347105A0F437
:100CC00020E191E061FD94E060FD990F62FD929555
:100CD000687F269FD0011124A80FA958BC4F8C9182
:100CE00040FF03C0892B8C93089590958923FBCFF7
:100CF0002F923F924F925F926F927F928F929F922C
:100D0000AF92BF92CF92DF92EF92FF920F931F9319
:100D1000CF93DF93EC018B017A016901C61AD70AE0
:100D2000D7FE03C0D194C194D10847018C1A9D0A03
:100D300097FE03C09194819491088C149D0454F4FF
:100D40009E2D8F2D7901292F382F9C2F8D2FE80173
:100D5000092F182FEC16FD0654F4902F812F8901CE
:100D6000292F382F9C2F8D2FE701E92EF82E170100
:100D70002C1A3D0A2901401A510A57FE03C051940A
:100D800041945108310137FE03C08FEF681A780A89
:100D9000759467948FEF021713070CF481E0A82E67
:100DA000880FBB08EC16FD06A4F041E0BE01C801A7
:100DB0008C149D0414F0B801CE010E945A066418E8
:100DC000750877FE04C00A0D1B1D620C731C21966A
:100DD000E9CFDF91CF911F910F91FF90EF90DF90BE
:100DE000CF90BF90AF909F908F907F906F905F90CB
:100DF0004F903F902F900895EF92FF920F931F9383
:100E0000CF93DF937C018B01040F111DEB0177FF62
:100E100002C0D0E0C0E0C8010134110514F080E444
:100E200090E0C817D9073CF441E0BE01C7010E9419
:100E30005A062196F0CFDF91CF911F910F91FF902D
:100E4000EF9008952F923F924F925F926F927F9210
:100E50008F929F92AF92BF92CF92DF92EF92FF92CA
:100E60000F931F93CF93DF9300D01F92CDB7DEB7C0
:100E70005C011B01242F30E03B832A8301E010E05A
:100E8000021B130B2901519441945108440C551C29
:100E9000F12CE12CCC24C394D12C8A819B81E816BF
:100EA000F906F4F517FD08C001979B838A8392E049
:100EB000490E511C040D151D2FEFE21AF20A32E003
:100EC000C30ED11C0C0D1D1D8A81880F8F5F898375
:100ED000482F31018A819B81681A790AB301C501C3
:100EE0008E0D9F1D0E94FC0641018E189F084C2DFF
:100EF000B4018A819B818A0D9B1D0E94FC06498159
:100F0000B301C5018E199F090E94FC064C2DB40146
:100F1000C5012A813B81821B930B0E94FC06BDCF39
:100F20000F900F900F90DF91CF911F910F91FF9035
:100F3000EF90DF90CF90BF90AF909F908F907F9079
:100F40006F905F904F903F902F9008958F929F9257
:100F5000AF92BF92CF92DF92EF92FF920F931F93C7
:100F6000CF93DF936D3089F0C0903E03D0903F0364
:100F70006A30D1F410923D0310923C0388E0C80E11
:100F8000D11CD0923F03C0923E0381E090E0DF91FC
:100F9000CF911F910F91FF90EF90DF90CF90BF9076
:100FA000AF909F908F90089500913C0310913D0366
:100FB000E5E06E9FE0011124C850DF4F4801F12C9D
:100FC000F5E0E12CFF1629F0CE010196FE01E49038
:100FD000EC01B12CA12C4E2D4170B6016A0D7B1D88
:100FE000C4010E945A06E694FFEFAF1ABF0A88E0D8
:100FF000A816B10481F7F394EFEF8E1A9E0AF6E07B
:10100000FF12DECF0A5F1F4F10933D0300933C0396
:10101000BCCF089590E080E008952F923F924F92C8
:101020005F926F927F928F929F92AF92BF92CF9278
:10103000DF92EF92FF920F931F93CF93DF93CDB781
:10104000DEB728970FB6F894DEBF0FBECDBF8EE097
:1010500090E09093B6078093B50780E790E00E94F8
:101060007A1B89839A838C0118861F82312C212C4C
:1010700081E1482E87E2582E612C712C8091B507B2
:101080009091B607281639060CF0B2C00E942A17B4
:101090002BE030E040E050E00E9498176550710965
:1010A000810991092F813885620F731F77FF98C0DE
:1010B00068597E4F072E000C880B990B0E948E19E1
:1010C00025E33AEF4EE85CE30E94B11A4B015C0164
:1010D0000E942A17A30192010E9498170E948E195C
:1010E00020E030E44CE156E40E94E41820E030E0D7
:1010F00044EB52E40E94B11A20E030E044EB52E4A9
:101100000E94FC176B017C01C501B4010E94DF182D
:10111000A70196010E94B11A6B837C838D839E8305
:10112000C501B4010E941E1BA70196010E94B11ABD
:101130006B017C010E942A17A30192010E9498175B
:101140000E948E1920E030E44CE156E40E94E4183D
:1011500020E030E040E850E40E94B11A20E030E0A6
:1011600040E050E40E94FB172B813C814D815E8161
:101170000E94FC174B015C010E942A17F801808233
:101180009182A282B382A30192010E9498170E94C9
:101190008E1920E030E44CE156E40E94E41820E08F
:1011A00030E040E850E40E94B11A20E030E040E036
:1011B00050E40E94FB17A70196010E94FC17F8015A
:1011C0006483758386839783FFEF2F1A3F0A085F36
:1011D0001F4F2F813885275E3F4F38872F834ECF93
:1011E000683631E073070CF465CF6856714062CF02
:1011F00089819A8128960FB6F894DEBF0FBECDBFC5
:10120000DF91CF911F910F91FF90EF90DF90CF90E2
:10121000BF90AF909F908F907F906F905F904F9016
:101220003F902F9008952F923F924F925F926F922E
:101230007F928F929F92AF92BF92CF92DF92EF9266
:10124000FF920F931F93CF93DF93CDB7DEB72C9709
:101250000FB6F894DEBF0FBECDBF07E717E033EB44
:10126000232E37E0332EC090B507D090B6070D2C53
:10127000000CEE08FF0860E070E0CB011C141D04B8
:101280001E041F0434F40E942A17A70196010E942D
:1012900098172091B3073091B4073A872987FB014B
:1012A00083E0EE0FFF1F8A95E1F7E20FF31F208125
:1012B00031814281538129833A834B835C8324812A
:1012C0003581468157812D833E834F835887CB01DB
:1012D00001962091B5073091B607B9010E944C1BC9
:1012E00023E0880F991F2A95E1F749855A85480F11
:1012F000591F5A87498729813A814B815C81A98589
:10130000BA856D917D918D919C910E94FB172B0167
:101310003C012D813E814F815885E985FA856481A4
:101320007581868197810E94FB176B017C01A30167
:1013300092010E947B1869877A878B879C870E941D
:101340002A1720E137E240E050E00E9498170E94FF
:101350008E1920E030E44CE156E40E94E4184B0181
:101360005C01AC019B01C301B2010E94B11A298149
:101370003A814B815C810E94FC1720E030E040E81C
:1013800053E40E94FC17D8016D937D938D939C9339
:101390001397A5019401C701B6010E94B11A2D81CE
:1013A0003E814F8158850E94FC1720E030E040E8E4
:1013B00053E40E94FC17F801648375838683978346
:1013C00029853A854B855C852087318742875387FD
:1013D000045F1F4F2016310609F045CF2C960FB63B
:1013E000F894DEBF0FBECDBFDF91CF911F910F915B
:1013F000FF90EF90DF90CF90BF90AF909F908F9035
:101400007F906F905F904F903F902F9008958F92B4
:101410009F92AF92BF920F931F93CF93DF93CDB75D
:10142000DEB7A1970FB6F894DEBF0FBECDBF19A2ED
:10143000423008F44AE08E010F5D1F4F842E912C3C
:10144000B12CA12CA50194010E94CA17E62FB90165
:10145000CA01EA3044F5E05DD801EE938D01232BFB
:10146000242B252B79F790E080E0109769F0FD019F
:1014700001900020E9F73197AF014A1B5B0BBD01DA
:1014800087E098E00E940A05A1960FB6F894DEBFA7
:101490000FBECDBFDF91CF911F910F91BF90AF9045
:1014A0009F908F900895E95CD7CF0C9482171F927C
:1014B0000F920FB60F9211242F933F938F939F9308
:1014C000AF93BF938091610390916203A0916303F6
:1014D000B09164033091600323E0230F2D3758F55A
:1014E0000196A11DB11D2093600380936103909329
:1014F0006203A0936303B0936403809165039091AA
:101500006603A0916703B09168030196A11DB11D08
:101510008093650390936603A0936703B093680379
:10152000BF91AF919F918F913F912F910F900FBEDF
:101530000F901F90189526E8230F0296A11DB11D4C
:10154000D2CF1F920F920FB60F9211248F939F93B9
:101550008091E1009091E100937F9093E10083FFFF
:101560000FC01092E90091E09093EB001092EC0014
:1015700092E39093ED001092760398E09093F00040
:1015800082FF22C093E09093E9009091F2009923AA
:1015900019F09AE39093E80090914101992341F06A
:1015A00090914101915090934101911101C05D9A38
:1015B00090917503992341F0909175039150909308
:1015C0007503911101C0289A84FF18C08091E20030
:1015D0008E7E81608093E2008091E1008F7E809317
:1015E000E100809142018E7E8061809342019F9153
:1015F0008F910F900FBE0F901F90189580FFF7CF1F
:101600008091E2008E7E80618093E2008091E10013
:101610008E7E8093E100809142018E7E8160E5CFD5
:101620001F920F920FB60F921124CF92DF92EF927A
:10163000FF920F931F932F933F934F935F936F935B
:101640007F938F939F93AF93BF93EF93FF93CF932A
:10165000DF93CDB7DEB76C97DEBFCDBF1092E90048
:101660008091E80083FF25C068E0CE0145960E9486
:10167000FD0482EF8093E8008D8987FF39C0909147
:10168000E80090FFFCCF982F907609F034C19E8936
:101690004F89588D2F89F88C911131C0803861F5B0
:1016A000809143018093F1001092F1008EEF8093BE
:1016B000E8006C960FB6F894DEBF0FBECDBFDF9189
:1016C000CF91FF91EF91BF91AF919F918F917F91BA
:1016D0006F915F914F913F912F911F910F91FF90CB
:1016E000EF90DF90CF900F900FBE0F901F90189546
:1016F0009EEF9093E800C7CF1092F100D5CF9130C4
:1017000059F48111D3CF4130510581F680914301C5
:101710008D7F80934301CACF933049F48111C6CFA6
:101720004130510519F6809143018260F2CF953026
:1017300041F48091E80080FFFCCF20682093E30013
:10174000B5CF963009F0A9C00B8D1C8D22E0109208
:10175000E90010923F0110923E01F2122EC0109249
:101760003D0110923C010E94CC041F8299E09983B4
:10177000FA8291E09E8390EA98879AEF9987209168
:101780003E0130913F01275F3F4F3C832B838D8388
:101790001092E90010923F0110923E0110933D011A
:1017A00000933C0149E050E0BE016F5F7F4F80E055
:1017B0000E94A6040E94CC0479CF10933D010093AF
:1017C0003C010E940C04DC0112960D911C91011544
:1017D000110509F451C1D801ED91FC910480F58106
:1017E000E02DBE016B5E7F4FC8010995009709F09F
:1017F0003EC1F80100851185EACFF3E0FF120EC06B
:101800008F89882309F440C0823061F440E867E0A2
:101810008CE596E00E94420D811148CF81E28093D1
:10182000EB0047CF813029F440E86BE080E596E09B
:10183000F1CF833099F70E940C04DC011296ED90F1
:10184000FC908E010F5F1F4F6801E114F10479F0E5
:10185000D701ED91FC910680F781E02DB801C70119
:101860000995080F111DF701E084F184EECFD8012E
:101870001C92F60101900020E9F73197BF016C1925
:101880007D0940E0C601C6CF6AE376E0FB014491E2
:1018900050E080E80E94A60409CF973009F4BECF3B
:1018A000983021F481E08093F10000CF993009F065
:1018B000FDCE837009F0B2CFE8E1F1E081E031E0E4
:1018C00096E32191222371F08093E9003093EB009D
:1018D000DF0111972C912093EC009093ED008F5F26
:1018E000873079F78EE78093EA001092EA008F89BB
:1018F00080937603DBCE8B8D9C8D1092E900109245
:101900003F0110923E0190933D0180933C01898DEF
:10191000811192C08E899D89913A49F4813209F0F2
:101920007DCF47E050E064E071E080E0B3CF9132DA
:1019300009F074CF833269F48F89988DB0E0A0E00C
:101940008093000190930101A0930201B0930301E1
:10195000ADCE803269F48091E80082FFFCCF67E071
:1019600084E091E00E94FD048BEF8093E8009ECE1E
:10197000823209F09BCE8F8980930B01EEEFFFE757
:10198000859194918B3F9C4D51F1E0E0F8E080917E
:10199000040190910501A0910601B0910701803BDF
:1019A0009440A105B105F1F480910B0180FD1AC0AE
:1019B000EE3F8AE0F80789F587E797E79183808310
:1019C000809160008093400188E19BE00FB6F8941D
:1019D000A895809360000FBE9093600067CEEEEFF5
:1019E000FAE0D5CF808191818737974709F05ECEA5
:1019F000A89580916000886180936000809140018B
:101A000080936000EE3F2AE0F20789F08091FE0AA1
:101A10009091FF0A9183808349CE8081918187379D
:101A2000980751F29093FF0A8093FE0AC5CF109257
:101A3000FF0A1092FE0A3ACE0E940C04DC011296B4
:101A40000D911C910115110509F4E8CED801ED9115
:101A5000FC910190F081E02DBE016B5E7F4FC801CB
:101A60000995811123CEF80100851185EBCF181659
:101A700019060CF41BCED2CEF1E0FF12BECE6EE3FF
:101A800076E004CFEF92FF920F931F93CF93DF93F3
:101A9000F82E192FE62E042F81E0860F880F0E9462
:101AA000780483E00E947804CF2DD12FEC0EFD2E18
:101AB000F11CCE15DF05B9F007FF13C0FE018491BC
:101AC0000E947804182F80E00E94780481232196D8
:101AD0008111EFCFDF91CF911F910F91FF90EF9088
:101AE00008958881EDCF81E0F5CFE7EBF7E0138231
:101AF000128288EE93E0A0E0B0E084839583A68311
:101B0000B78382E291E0918380838FEF9FEF958787
:101B10008487E7E0F8E01382128284E391E0918306
:101B200080830895CF93DF93CDB7DEB7E4970FB6E8
:101B3000F894DEBF0FBECDBF789484B5826084BDBB
:101B400084B5816084BD85B5826085BD85B58160C1
:101B500085BD80916E00816080936E00109281003F
:101B600080918100826080938100809181008160FA
:101B700080938100809180008160809380008091BB
:101B800091008260809391008091910081608093A8
:101B90009100809190008160809390008091C100BD
:101BA00084608093C1008091C10082608093C100F5
:101BB0008091C10081608093C1008091C3008160E9
:101BC0008093C3008091C00082608093C0008091A8
:101BD000C20081608093C20080917A00846080930B
:101BE0007A0080917A00826080937A0080917A00F6
:101BF000816080937A0080917A00806880937A0077
:101C00001092760310924301109242018091D70006
:101C100081608093D70080EA8093D80089B5806185
:101C200089BD89B5826089BD09B400FEFDCF61E040
:101C300070E080E090E00E9445048091D8008F7CA5
:101C400080618093D8008091E000807F8093E000E5
:101C50008091E1008E7E8093E1008DE08093E20030
:101C6000559A209A8FEF9FEF9093C4078093C307F4
:101C700060ED77E080E090E00E94450481EC809385
:101C80007C0085B1806F85B984B1877E84B984B1C9
:101C9000876E84B95E9A5F988AB1806D8AB9769AA8
:101CA0006E9881B3806F81BB899880B38D7080BB43
:101CB00080E58CBD81E08DBD85E090E00E943F060F
:101CC0005F9A85E090E00E943F065E985C98E4E1B0
:101CD000F7E081E297E024912EBD00000DB407FEED
:101CE000FDCF31968E179F07B1F75C9A81E88093FC
:101CF0006400809165008160809365000E945706B2
:101D000080E80E944C068823A9F05C9885EA8EBD85
:101D100000000DB407FEFDCF5C9A2E982F982D98E9
:101D20008091640080628093640081E083BF889525
:101D300013BEFCCF84E00E944C06882309F448C0FF
:101D40002D9884E80E944C068823E1F00E943D060D
:101D500088EC90E00E943F062F9882E090E00E947D
:101D600082178F3F29F06FEF82E090E00E948A1780
:101D700084EF91E00E943F062F9A84E80E944C066F
:101D80008111FBCF84E10E944C068823E1F00E9480
:101D90003D0688EC90E00E943F062E9882E090E09D
:101DA0000E948217882329F060E082E090E00E9480
:101DB0008A1784EF91E00E943F062E9A84E10E94E8
:101DC0004C068111FBCF88EC90E00E943F06B2CF19
:101DD0000E943D0682E090E00E94550A882309F4A3
:101DE000E3C03E9A3F9A81E090E00E94550A282F76
:101DF0002470922E81FF12C021112E98E1EF4E2EF9
:101E000055245A9408E010E080E40E944C06882390
:101E100009F4CDC02E9A2F9A0E943D0682E390E0ED
:101E20000E943F060E9444068111F8CF88E080930B
:101E30000C01E1E2F7E0E49190917B008E2F880F96
:101E4000880F80729F7D892B80937B00E770E06410
:101E5000E0937C0080917A00806480937A00809186
:101E60007A0086FDFCCF6091780070917900072E92
:101E7000000C880B990B611571058105910511F016
:101E80000E9479170E940D089093B4078093B307BE
:101E90000E941309E8E4F1E0FA8BE98BC12C82E09F
:101EA000D82EE12CF12C92E0892E912CA12CB12C72
:101EB0000E942A17A70196010E9498170E948E1966
:101EC000A989BA896D937D938D939C9313970E94F2
:101ED0002A17A70196010E9498170E948E19E98976
:101EE000FA8964837583868397830E942A17A501E4
:101EF00094010E949817A989BA8919967C936E93C8
:101F000018971A96BA8BA98BECE3F3E0EA17FB0754
:101F100079F682E390E0909343038093420380E05C
:101F200090E0A0E8B3E48093500390935103A09312
:101F30005203B093530380934C0390934D03A093AB
:101F40004E03B0934F0310925C0310925D03109206
:101F50005E0310925F03109258031092590310927F
:101F60005A0310925B03109254031092550310927F
:101F70005603109257038FB7F89440916103509124
:101F8000620360916303709164038FBF10914601F7
:101F9000112309F4D3C01092460140E050E0452BD4
:101FA00051F30E940000E7CF3E983F981CCF992044
:101FB00031F034E04316510411F42E9A2F9881E049
:101FC0000E94C203920157FE04C02227332724191E
:101FD000350927703327C20157FC079673E09595A2
:101FE00087957A95E1F757FE05C00197A801421B36
:101FF000530B9A01AC015695542F4427579547959A
:1020000049585C4FB0E0A0E03801621A730A8E3F75
:102010006FEF960709F43BC06A01E4E9CE0ED11CCC
:102020007A0170E060E0FD01EC59F94F5F018F3FEC
:10203000980779F0F501E60FF71FE491F0E01F0132
:10204000022E01C0220C0A94EAF7F701848828289E
:10205000248A2115310581F0F501E60FF71FE4917F
:10206000F0E01F01062C02C0359427940A94E2F791
:10207000F6018080282820826F5F7F4FFFEFCF1A04
:10208000DF0AEFEFEE1AFE0A6835710581F6019658
:10209000A85ABF4F40585F4FA03BB10509F0B7CFDA
:1020A0000E9457068FE090E00E943F06FFEF4F1A14
:1020B0005F0A29E14216510409F0A6CE992011F0D9
:1020C0002F9A2D9880E991E00E943F060E943D06DC
:1020D00081E090E00E94550A80FFA0CE8AE090E067
:1020E0000E94550A9FEF980F9E3F08F097CE22E37B
:1020F00030E030933D0320933C0328E330E03093FD
:102100003F0320933E034BE050E05A834983682FFE
:1021100087E098E00E94A60789819A810E94550A6B
:10212000A981BA811196BA83A983519781F70E9438
:10213000570688EE93E00E943F0670CE80914701DB
:10214000F42FF81B8F2F90910C01F91748F48F5F33
:10215000891708F022CF21E023BF889513BE1DCF39
:1021600031E03093460140934701809144019091C2
:1021700045010196909345018093440140914103AC
:102180004987409340030E9444068D838093410316
:10219000E7E7F3E011111FEF00241193119311935E
:1021A00011930394D1F710923F0310923E031092C3
:1021B0003D0310923C0380E20E944C068823B1F05C
:1021C0002DEC3CEC4CE45DE360915C0370915D03AD
:1021D00080915E0390915F030E94FB1760935C0304
:1021E00070935D0380935E0390935F0380E40E948D
:1021F0004C068823B1F02DEC3CEC4CE45DE360919F
:102200005C0370915D0380915E0390915F030E9477
:10221000FC1760935C0370935D0380935E0390935F
:102220005F0388E00E944C06882309F44AC080902E
:10223000540390905503A0905603B09057032BED94
:102240003FE049EC5FE360915C0370915D03809136
:102250005E0390915F030E94FB176B017C010E945B
:10226000DF182DEC3CEC4CEC5DE30E94B11A9B01B5
:10227000AC01609158037091590380915A03909179
:102280005B030E94FC17609358037093590380937B
:102290005A0390935B03C701B6010E941E1B2DECED
:1022A0003CEC4CEC5DE30E94B11AA50194010E9444
:1022B000FC176093540370935503809356039093D7
:1022C0005703409058035090590360905A03709000
:1022D0005B03209150033091510340915203509180
:1022E0005303C301B2010E94FC174B015C018092B1
:1022F000500390925103A0925203B09253038091E5
:10230000540390915503A0915603B09157038983CC
:102310009A83AB83BC8320914C0330914D03409151
:102320004E0350914F03BC01CD010E94FC176B017D
:102330007C01C0924C03D0924D03E0924E03F09288
:102340004F0324EA30E74DE75FE3C301B2010E9487
:10235000B11A609358037093590380935A03909372
:102360005B0324EA30E74DE75FE369817A818B8183
:102370009C810E94B11A609354037093550380931B
:1023800056039093570320E030E0A901C501B40142
:102390000E94DA1887FF08C0109250031092510370
:1023A000109252031092530320E030E040E054E4D6
:1023B00060915003709151038091520390915303A7
:1023C0000E94A41A181664F480E090E0A0E0B4E43F
:1023D0008093500390935103A0935203B0935303FF
:1023E00020E030E0A901C701B6010E94DA1887FF9A
:1023F00008C010924C0310924D0310924E0310929D
:102400004F0320E030E040E054E460914C037091D1
:102410004D0380914E0390914F030E94A41A181609
:1024200064F480E090E0A0E0B4E480934C039093E7
:102430004D03A0934E03B0934F0320E030E040E8FB
:1024400052E4609150037091510380915203909136
:1024500053030E94FB174B015C018092480390924A
:102460004903A0924A03B0924B0320E030E040E0E1
:1024700052E460914C0370914D0380914E03909112
:102480004F030E94FB176B017C01C0924403D09262
:102490004503E0924603F092470320E030E0A901B3
:1024A000C501B4010E94DA1887FF08C010924803E2
:1024B0001092490310924A0310924B0320E030E03F
:1024C00040EC53E4609148037091490380914A03C2
:1024D00090914B030E94A41A181664F480E090E0D7
:1024E000A0ECB3E48093480390934903A0934A037C
:1024F000B0934B0320E030E0A901C701B6010E9470
:10250000DA1887FF08C01092440310924503109216
:1025100046031092470320E030E040EE53E4609120
:1025200044037091450380914603909147030E94B4
:10253000A41A181664F480E090E0A0EEB3E480934F
:10254000440390934503A0934603B093470308E4E4
:1025500011E020E030E040E05FE3609148037091DB
:10256000490380914A0390914B030E94B11A9B0149
:10257000AC01D8016D917D918D919C910E94FB17CA
:102580000E9456196B016038710588F520E030E033
:1025900040E05FE3609144037091450380914603FE
:1025A000909147030E94B11A9B01AC01F80164812C
:1025B0007581868197810E94FB170E9456192B0115
:1025C00060347105A0F4D8011896AD90BC904A2DE6
:1025D000440F4F5FC5019927B201681B790BC601F3
:1025E0000E94FC064A2DB201C6010E942207065F26
:1025F0001F4FE989FA89E017F10709F0AACFF98599
:10260000F2FD13C02D8122FF10C08091B30790917D
:10261000B407009711F00E94161C0E940D089093B9
:10262000B4078093B3070E9413092090B30730903A
:10263000B4072114310409F4FAC03A8229823A8697
:10264000298610E000E04091B5075091B6075E83FF
:102650004D83C0904803D0904903E0904A03F09026
:102660004B038090440390904503A0904603B090A4
:10267000470304171507D4F520E030E040E853E4A1
:10268000A985BA856D917D918D919C910E94FC17D1
:10269000A70196010E94FB170E9456196B0120E0CA
:1026A00030E040E853E4E985FA85648175818681EC
:1026B00097810E94FC17A50194010E94FB170E94BC
:1026C00056194B016150710943E0C6010E94FC0696
:1026D00041E0B401C6010E9422070F5F1F4F298508
:1026E0003A85285F3F4F3A872987ADCF4D815E817C
:1026F000141615060CF09BC020E030E040E853E4CF
:10270000D1016D917D918D919C910E94FC17A70143
:1027100096010E94FB170E9456198B0120E030E0C1
:1027200040E853E4F10164817581868197810E94BC
:10273000FC17A50194010E94FB170E9456197C8B7F
:102740006B8B21E030E03E872D8749815A81485FBD
:102750005F4F5A8349838D819E81AD85BE8520E080
:1027600030E040E853E48A179B07C9F1E981FA8118
:1027700060817181828193810E94FC17A70196017B
:102780000E94FB170E94561969877A878B879C875E
:1027900020E030E040E853E4A981BA8114966D91BD
:1027A0007D918D919C9117970E94FC17A501940132
:1027B0000E94FB170E9456192B019B0149855A85DF
:1027C0006B897C89C8010E947806ED85FE8531966B
:1027D000FE87ED875C8A4B8A09851A85B6CFD101C1
:1027E00014966D917D918D919C9117970E94FC1785
:1027F000A50194010E94FB170E9456194B0120E08D
:1028000030E040E853E4F10160817181828193817D
:102810000E94FC17A70196010E94FB170E945619FF
:102820009401AB016B897C89C8010E94780627E777
:1028300037E03CAB2BAB8091480390914903A091CA
:102840004A03B0914B038B8B9C8BAD8BBE8B20913D
:1028500044033091450340914603509147032F8B29
:10286000388F498F5A8FABA9BCA918968D909D902F
:10287000AD90BC901B97C501B4010E94DF186B019D
:102880007C01C501B4010E941E1B4B015C0120E0CC
:1028900030E040E850E40E94B11A6D877E878F8750
:1028A000988B20E030E040E850ECC701B6010E9470
:1028B000B11A69877A878B879C872B893C894D89D8
:1028C0005E89EBA9FCA960817181828193810E945C
:1028D000FB172B013C0120E030E0A901C701B60144
:1028E0000E94B11A2D853E854F8558890E94FC179C
:1028F0009B01AC01C301B2010E94FC1769837A837A
:102900008B839C832F89388D498D5A8DABA9BCA9A7
:1029100014966D917D918D919C9117970E94FB1754
:102920002B013C0120E030E0A901C501B4010E9467
:10293000B11A29853A854B855C850E94FC179B015D
:10294000AC01C301B2010E94FC176D837E838F83AB
:10295000988720E030E040E050ECC701B6010E94CB
:10296000B11A6B8F7C8F8D8F9E8F20E030E040E816
:1029700050ECC501B4010E94B11A6F8F78A389A3EE
:102980009AA320E030E040E050ECC501B4010E9481
:10299000B11A6BA37CA38DA39EA3A7019601C701C7
:1029A000B6010E94FC172B013C01A5019401C50151
:1029B000B4010E94FC174B015C0120E030E040E8CC
:1029C00050E4C701B6010E94B11A6B017C012F8D42
:1029D00038A149A15AA16B8D7C8D8D8D9E8D0E9451
:1029E000FB1729813A814B815C810E94FC170E9470
:1029F00056196FA378A789A79AA72BA13CA14DA12F
:102A00005EA169857A858B859C850E94FC172D8146
:102A10003E814F8158850E94FC170E9456196BA772
:102A20007CA78DA79EA72F8D38A149A15AA1C301CC
:102A3000B2010E94FB1729813A814B815C810E947F
:102A4000FC170E9456196F8F78A389A39AA3A5013A
:102A5000940169857A858B859C850E94FC172D8160
:102A60003E814F8158850E94FC170E945619698744
:102A70007A878B879C872D853E854F855889C30132
:102A8000B2010E94FB1729813A814B815C810E942F
:102A9000FC170E9456196FA778AB89AB9AABA701B8
:102AA0009601C501B4010E94FC172D813E814F8122
:102AB00058850E94FC170E9456192B012D853E85D2
:102AC0004F8558896B8D7C8D8D8D9E8D0E94FB1757
:102AD00029813A814B815C810E94FC170E94561922
:102AE00069837A838B839C83A70196016BA17CA168
:102AF0008DA19EA10E94FC172D813E814F8158859A
:102B00000E94FC170E9456194B0129853A854F8D6A
:102B100058A16BA57CA58FA198A50E94780692016B
:102B20004FA558A969857A858F8D98A10E9478064E
:102B3000940149815A81B2018FA598A90E94780613
:102B40002BA53CA54FA158A5B40189819A810E946B
:102B50007806EBA9FCA93C96FCABEBAB23EB37E08A
:102B60002E173F0709F067CE2B893C894D895E8976
:102B700060915003709151038091520390915303DF
:102B80000E94FB1769837A838B839C832F89388DFE
:102B9000498D5A8D60914C0370914D0380914E0385
:102BA00090914F030E94FB176D837E838F839887DC
:102BB000C0905C03D0905D03E0905E03F0905F03F3
:102BC000C701B6010E94DF184B015C01C701B601C5
:102BD0000E941E1B6B017C0120E030E040E850E4C5
:102BE0000E94B11A6D877E878F87988B20E030E036
:102BF00040E850E4C501B4010E94B11A69877A87A0
:102C00008B879C8720E030E0A901C501B4010E94B8
:102C1000B11A2B013C0120E030E040E850ECC70144
:102C2000B6010E94B11A9B01AC01C301B2010E941E
:102C3000FB1729813A814B815C810E94FC170E941D
:102C400056196B8B7C8B8D8B9E8B20E030E0A9011D
:102C5000C701B6010E94B11A2B013C0120E030E00F
:102C600040E850ECC501B4010E94B11A9B01AC01CF
:102C7000C301B2010E94FC172D813E814F8158850E
:102C80000E94FC170E9456196F8B788F898F9A8F3C
:102C900020E030E040E450ECC501B4010E94B11ADC
:102CA0002D853E854F8558890E94FB1729813A81E1
:102CB0004B815C810E94FC170E9456196B8F7C8FA0
:102CC0008D8F9E8F20E030E040E450ECC701B601CC
:102CD0000E94B11A29853A854B855C850E94FC17B4
:102CE0002D813E814F8158850E94FC170E94561904
:102CF0002B0120E030E040E450E4C501B4010E9423
:102D0000B11A2D853E854F8558890E94FB17298170
:102D10003A814B815C810E94FC170E9456194B013D
:102D200020E030E040E450E4C701B6010E94B11A4F
:102D300029853A854B855C850E94FC172D813E8153
:102D40004F8158850E94FC170E9456196B01920111
:102D50004B8D5C8D6F89788D8B899C890E9478065C
:102D60009601A401B2018B8D9C8D0E9478062F895B
:102D7000388D4B895C89B601C4010E947806C090E9
:102D80004203D09043030D2C000CEE08FF084AE0EC
:102D9000C701B601F7FE0DC06DE287E098E00E9422
:102DA000A60766277727CB016C197D098E099F0935
:102DB0004AE00E94070A0E945706EFC88F929F922E
:102DC000AF92BF92CF92DF92EF92FF92CF93DF93B9
:102DD000EC01688179818A819B816115710581058A
:102DE000910521F464E279ED8BE597E02DE133EF75
:102DF00041E050E00E94981749015A019B01AC0143
:102E0000A7EAB1E40E94B7176B017C01ACEEB4EF06
:102E1000A50194010E94C517C60ED71EE81EF91E13
:102E2000F7FE06C081E0C81AD108E10880E8F80A78
:102E3000C882D982EA82FB82C701B6019F77DF91FF
:102E4000CF91FF90EF90DF90CF90BF90AF909F9089
:102E50008F9008958F929F92AF92BF92CF92DF9200
:102E6000EF92FF9260910D0170910E0180910F0120
:102E700090911001611571058105910521F464E2BD
:102E800079ED8BE597E02DE133EF41E050E00E94D2
:102E9000981749015A019B01AC01A7EAB1E40E94CD
:102EA000B7176B017C01ACEEB4EFA50194010E9451
:102EB000C517C60ED71EE81EF91EF7FE06C081E034
:102EC000C81AD108E10880E8F80AC0920D01D09232
:102ED0000E01E0920F01F0921001C701B6019F7739
:102EE000FF90EF90DF90CF90BF90AF909F908F902A
:102EF000089560930D0170930E0180930F019093DC
:102F000010010895F999FECF92BD81BDF89A9927D5
:102F100080B50895262FF999FECF1FBA92BD81BDC5
:102F200020BD0FB6F894FA9AF99A0FBE019608954B
:102F3000052E97FB1EF400940E94AF1757FD07D093
:102F40000E94CA1707FC03D04EF40C94AF1750959B
:102F50004095309521953F4F4F4F5F4F0895909585
:102F60008095709561957F4F8F4F9F4F08950E9478
:102F7000EC17A59F900DB49F900DA49F800D911DFF
:102F800011240895B7FF0C94B7170E94B717821B3E
:102F9000930B0895A1E21A2EAA1BBB1BFD010DC0C5
:102FA000AA1FBB1FEE1FFF1FA217B307E407F507F9
:102FB00020F0A21BB30BE40BF50B661F771F881FD5
:102FC000991F1A9469F760957095809590959B016B
:102FD000AC01BD01CF010895A29FB001B39FC00114
:102FE000A39F700D811D1124911DB29F700D811D35
:102FF0001124911D08955058BB27AA270E94131829
:103000000C94561A0E941D1A38F00E94241A20F0BF
:1030100039F49F3F19F426F40C94F3190EF4E0955B
:10302000E7FB0C94ED19E92F0E947B1A58F3BA17AD
:10303000620773078407950720F079F4A6F50C94CE
:103040009D1A0EF4E0950B2EBA2FA02D0B01B9019D
:1030500090010C01CA01A0011124FF27591B99F00E
:10306000593F50F4503E68F11A16F040A22F232F1A
:10307000342F4427585FF3CF469537952795A7956A
:10308000F0405395C9F77EF41F16BA0B620B730B11
:10309000840BBAF09150A1F0FF0FBB1F661F771F82
:1030A000881FC2F70EC0BA0F621F731F841F48F437
:1030B000879577956795B795F7959E3F08F0B0CFC0
:1030C0009395880F08F09927EE0F979587950895A7
:1030D0000E941D1A60F080E891E009F49EEF0E94C2
:1030E000241A28F040E851E071F45EEF0CC00C9413
:1030F000F3190C949D1AE92FE0780E947B1A40F393
:10310000092E052AB1F3261737074807590738F063
:103110000E2E07F8E02569F0E025E0640AC0EF63B1
:1031200007F8009407FADB01B9019D01DC01CA012F
:10313000AD01EF930E94FB180E94561A0E94AB1833
:103140005F91552339F02BED3FE049E450FD49EC08
:103150000C94FC170895DF93DD27B92FBF7740E863
:103160005FE31616170648075B0718F4D92F0E946D
:10317000A91A9F938F937F936F930E94261BECEA6B
:10318000F0E00E94F6190E94561A2F913F914F913C
:103190005F910E94C41ADD2351F09058A2EA2AEDF3
:1031A0003FE049EC5FE3D0785D270E941318DF9180
:1031B0000C94561A0E94C91908F481E008950E94DF
:1031C0002D1AE3950C94671A0E94F8180C94561A5D
:1031D0000E94241A58F00E941D1A40F029F45F3F03
:1031E00029F00C94ED1951110C949E1A0C94F319BA
:1031F0000E947B1A68F39923B1F3552391F3951B31
:10320000550BBB27AA2762177307840738F09F5F07
:103210005F4F220F331F441FAA1FA9F335D00E2E74
:103220003AF0E0E832D091505040E695001CCAF7E1
:103230002BD0FE2F29D0660F771F881FBB1F2617A4
:1032400037074807AB07B0E809F0BB0B802DBF017B
:10325000FF2793585F4F3AF09E3F510578F00C944A
:10326000ED190C949E1A5F3FE4F3983ED4F38695D3
:1032700077956795B795F7959F5FC9F7880F911D6B
:103280009695879597F90895E1E0660F771F881F57
:10329000BB1F621773078407BA0720F0621B730B0A
:1032A000840BBA0BEE1F88F7E09508950E945D1914
:1032B0006894B1110C949E1A08950E94831A88F0A4
:1032C0009F5798F0B92F9927B751B0F0E1F0660FEA
:1032D000771F881F991F1AF0BA95C9F714C0B1302B
:1032E00091F00E949D1AB1E008950C949D1A672FE9
:1032F000782F8827B85F39F0B93FCCF3869577955A
:103300006795B395D9F73EF4909580957095619542
:103310007F4F8F4F9F4F0895E89409C097FB3EF46D
:1033200090958095709561957F4F8F4F9F4F992312
:10333000A9F0F92F96E9BB279395F6958795779590
:103340006795B795F111F8CFFAF4BB0F11F460FF50
:103350001BC06F5F7F4F8F4F9F4F16C0882311F0A8
:1033600096E911C0772321F09EE8872F762F05C0BC
:10337000662371F096E8862F70E060E02AF09A9557
:10338000660F771F881FDAF7880F9695879597F94C
:103390000895990F0008550FAA0BE0E8FEEF1616E6
:1033A0001706E807F907C0F012161306E407F50739
:1033B00098F0621B730B840B950B39F40A2661F0AD
:1033C000232B242B252B21F408950A2609F4A14050
:1033D000A6958FEF811D811D089597F99F6780E85D
:1033E00070E060E008959FEF80EC0895DF93CF9345
:1033F0001F930F93FF92EF92DF927B018C016894F1
:1034000006C0DA2EEF010E94C41AFE01E894A591CD
:103410002591359145915591A6F3EF010E9413181E
:10342000FE019701A801DA9469F7DF90EF90FF9011
:103430000F911F91CF91DF91089500240A941616E1
:10344000170618060906089500240A941216130692
:103450001406050608950C94F3190E94831AD8F3F4
:10346000E894E0E0BB279F57F0F02AED3FE049ECFD
:1034700006C0EE0FBB0F661F771F881F28F0B23AF9
:1034800062077307840728F0B25A620B730B840B30
:10349000E3959A9572F7803830F49A95BB0F661FC2
:1034A000771F881FD2F790480C942C1B092E039489
:1034B000000C11F4882352F0BB0F40F4BF2B11F421
:1034C00060FF04C06F5F7F4F8F4F9F4F0895EF9352
:1034D000E0FF07C0A2EA2AED3FE049EC5FEB0E9463
:1034E00013180E94561A0F90039401FC9058E9EDAE
:1034F000F0E00C94381B57FD9058440F551F59F0BD
:103500005F3F71F04795880F97FB991F61F09F3FD0
:1035100079F087950895121613061406551FF2CFF9
:103520004695F1DF08C0161617061806991FF1CF49
:1035300086957105610508940895E894BB27662770
:103540007727CB0197F908950E94C91908F48FEFE6
:1035500008959B01AC0160E070E080E89FE30C946B
:10356000E4180E94C41A0C94561A0E941D1A38F0CE
:103570000E94241A20F0952311F00C94ED190C945C
:10358000F31911240C949E1A0E947B1A70F3959FD4
:10359000C1F3950F50E0551F629FF001729FBB274A
:1035A000F00DB11D639FAA27F00DB11DAA1F649FE6
:1035B0006627B00DA11D661F829F2227B00DA11D99
:1035C000621F739FB00DA11D621F839FA00D611D1F
:1035D000221F749F3327A00D611D231F849F600D40
:1035E000211D822F762F6A2F11249F5750409AF069
:1035F000F1F088234AF0EE0FFF1FBB1F661F771FF5
:10360000881F91505040A9F79E3F510580F00C94BF
:10361000ED190C949E1A5F3FE4F3983ED4F386951F
:1036200077956795B795F795E7959F5FC1F7FE2B5F
:10363000880F911D9695879597F908959F930E94FD
:103640002D1A0F9007FCEE5F0C94671A9B01AC01DA
:103650000C94B11A9F3F31F0915020F487957795E3
:103660006795B795880F911D9695879597F9089559
:103670009F938F937F936F93FF93EF939B01AC0185
:103680000E94B11AEF91FF910E94F6192F913F917C
:103690004F915F910C94B11A97FB072E16F400948A
:1036A00007D077FD09D00E94601B07FC05D03EF4CF
:1036B000909581959F4F0895709561957F4F0895DE
:1036C000AA1BBB1B51E107C0AA1FBB1FA617B70748
:1036D00010F0A61BB70B881F991F5A95A9F7809564
:1036E0009095BC01CD010895EE0FFF1F0590F49158
:1036F000E02D09940F931F93CF93DF9382309105B0
:1037000010F482E090E0E0910D08F0910E0830E0B6
:1037100020E0B0E0A0E0309799F42115310509F4DC
:103720004AC0281B390B24303105D8F58A819B818A
:103730006115710589F1FB0193838283FE0111C03C
:10374000408151810281138148175907E0F04817E1
:10375000590799F4109761F012960C9312971396EB
:103760001C933296CF01DF91CF911F910F91089555
:1037700000930D0810930E08F4CF2115310551F078
:103780004217530738F0A901DB019A01BD01DF019F
:10379000F801C1CFEF01F9CF90930E0880930D0887
:1037A000CDCFFE01E20FF31F819391932250310997
:1037B00039832883D7CF20910B0830910C08232B15
:1037C00041F4209113013091140130930C0820939F
:1037D0000B0820911101309112012115310541F49E
:1037E0002DB73EB74091150150911601241B350BA2
:1037F000E0910B08F0910C08E217F307A0F42E1BE0
:103800003F0B2817390778F0AC014E5F5F4F241744
:10381000350748F04E0F5F1F50930C0840930B087C
:10382000819391939FCFF0E0E0E09CCFCF93DF9323
:103830000097E9F0FC01329713821282A0910D08E3
:10384000B0910E08ED0130E020E01097A1F4208146
:103850003181820F931F20910B0830910C0828179B
:10386000390709F061C0F0930C08E0930B08DF9171
:10387000CF910895EA01CE17DF07E8F54A815B8111
:103880009E0141155105B1F7E901FB83EA83499196
:103890005991C40FD51FEC17FD0761F48081918108
:1038A0000296840F951FE901998388838281938111
:1038B0009B838A83F0E0E0E012968D919C911397B0
:1038C0000097B9F52D913C911197CD010296820F89
:1038D000931F20910B0830910C082817390739F6EF
:1038E000309751F510920E0810920D08B0930C0805
:1038F000A0930B08BCCFD383C28340815181840F36
:10390000951FC817D90761F44E5F5F4F8881998171
:10391000480F591F518340838A819B8193838283FF
:103920002115310509F0B0CFF0930E08E0930D0892
:103930009ECFFD01DC01C0CF13821282D7CFF89455
:02394000FFCFB7
:10394200FFFFFFFF00E10000000000001001000087
:103952000000000F08800000C1808100000000000C
:103962000000BC053705DD05D2052306E105FF058C
:0C39720000000000A6070A050A0809086A
:00000001FF
