:100000000C94B4040C94DC040C94DC040C94DC0418
:100010000C94DC040C94DC040C94DC040C94DC04E0
:100020000C94DC040C94DC040C94C5180C94341966
:100030000C94DC040C94DC040C94DC040C94DC04C0
:100040000C94DC040C94DC040C94DC040C94DC04B0
:100050000C94DC040C94DC040C94DC040C94661BFF
:100060000C94DC040C94DC040C94DC040C94DC0490
:100070000C94DC040C94DC040C94DC040C94DC0480
:100080000C94DC040C94DC040C94DC040C94DC0470
:100090000C94DC040C94DC040C94DC040C94DC0460
:1000A0000C94DC040C94DC040C94DC04084AD73B6C
:1000B0003BCE016E84BCBFFDC12F3D6C74319ABD37
:1000C00056833DDA3D00C77F11BED9E4BB4C3E915B
:1000D0006BAAAABE000000803F05A84CCDB2D44E4A
:1000E000B93836A9020C50B9918688083CA6AAAA4C
:1000F0002ABE000000803F0003081F051F1F151BBC
:100100001F11111F110E1F15111F05011F111D1F9A
:10011000041F001F0010101F1F041B1F10101F06BC
:100120001F1F011F1F111F1F05071F311F1F051B49
:1001300017151D011F011F101F0F100F1F0C1F1B74
:10014000041B071C071915130C121E1F120C1E127C
:10015000120C121F0C1A14041F052E2A1E1F021C3B
:10016000001D00201D001F041A011F001E041E1E7A
:10017000021E1E121E3E120C0C123E1E020614120D
:100180000A020F121E101E0E100E1E081E1A041A4E
:100190002E281E1A12161F111F001F001D151711E1
:1001A000151F07041F17151D1F151D01011F1F1502
:1001B0001F17151F00170000100000000000003E70
:1001C0005B4F5B3E3E6B4F6B3E1C3E7C3E1C183CC7
:1001D0007E3C181C577D571C1C5E7F5E1C00183C23
:1001E0001800FFE7C3E7FF0018241800FFE7DBE76C
:1001F000FF30483A060E2629792926407F05050753
:10020000407F05253F5A3CE73C5A7F3E1C1C0808AE
:100210001C1C3E7F14227F22145F5F005F5F060973
:100220007F017F006689956A606060606094A2FFCC
:10023000A29408047E040810207E201008082A1CBE
:1002400008081C2A08081E101010100C1E0C1E0C8A
:1002500030383E3830060E3E0E060000000000002A
:10026000005F00000007000700147F147F14242A99
:100270007F2A12231308646236495620500008076B
:100280000300001C2241000041221C002A1C7F1C8C
:100290002A08083E0808008070300008080808088E
:1002A000000060600020100804023E5149453E00F5
:1002B000427F400072494949462141494D33181453
:1002C000127F1027454545393C4A494931412111A2
:1002D00009073649494936464949291E0000140094
:1002E00000004034000000081422411414141414B7
:1002F000004122140802015909063E415D594E7C15
:100300001211127C7F494949363E414141227F41C9
:1003100041413E7F494949417F090909013E414127
:1003200051737F0808087F00417F41002040413F12
:10033000017F081422417F404040407F021C027F21
:100340007F0408107F3E4141413E7F090909063E76
:100350004151215E7F091929462649494932030145
:100360007F01033F4040403F1F2040201F3F403857
:10037000403F631408146303047804036159494D32
:1003800043007F4141410204081020004141417F68
:1003900004020102044040404040000307080020DE
:1003A000545478407F2844443838444444283844DE
:1003B00044287F385454541800087E090218A4A415
:1003C0009C787F0804047800447D40002040403D34
:1003D000007F1028440000417F40007C04780478AE
:1003E0007C080404783844444438FC182424181841
:1003F000242418FC7C08040408485454542404049D
:100400003F44243C4040207C1C2040201C3C403089
:10041000403C44281028444C9090907C4464544CB8
:100420004400083641000000770000004136080013
:1004300002010204023C2623263C1EA1A161123ABD
:100440004040207A3854545559215555794121540A
:10045000547841215554784020545579400C1E520F
:1004600072123955555559395454545939555454B3
:10047000580000457C410002457D420001457C401A
:10048000F0292429F0F0282528F07C545545002037
:1004900054547C547C0A097F4932494949323248D4
:1004A000484832324A4848303A4141217A3A42403B
:1004B0002078009DA0A07D39444444393D4040400F
:1004C0003D3C24FF2424487E4943662B2FFC2F2BE0
:1004D000FF0929F620C0887E090320545479410081
:1004E00000447D413048484A32384040227A007A00
:1004F0000A0A727D0D19317D2629292F28262929DE
:10050000292630484D4020380808080808080808FF
:10051000382F10C8ACBA2F102834FA00007B000026
:1005200008142A142222142A14089500220095AADD
:10053000005500AAAA55AA55AA000000FF001010F5
:1005400010FF00141414FF001010FF00FF1010F033
:1005500010F0141414FC001414F700FF0000FF0046
:10056000FF1414F404FC141417101F10101F101F94
:100570001414141F00101010F0000000001F1010C1
:1005800010101F10101010F010000000FF101010BD
:10059000101010101010FF10000000FF140000FFDA
:1005A00000FF00001F10170000FC04F414141710C3
:1005B000171414F404F40000FF00F71414141414B6
:1005C0001414F700F7141414171410101F101F142C
:1005D0001414F4141010F010F000001F101F00008D
:1005E000001F14000000FC140000F010F01010FFB9
:1005F00010FF141414FF141010101F00000000F05E
:1006000010FFFFFFFFFFF0F0F0F0F0FFFFFF000032
:10061000000000FFFF0F0F0F0F0F38444438447CD9
:100620002A2A3E147E02020606027E027E026355DC
:100630004941633844443C04407E201E2006027E2B
:10064000020299A5E7A5991C2A492A1C4C7201723D
:100650004C304A4D4D303048784830BC625A463DA7
:100660003E494949007E0101017E2A2A2A2A2A445C
:10067000445F444440514A444040444A5140000091
:10068000FF0103E080FF000008086B6B083612369C
:100690002436060F090F060000181800000010107D
:1006A000003040FF0101001F01011E00191D17123B
:1006B000003C3C3C3C0000000000F0F89C8E87832E
:1006C000878E9CF8F00000FEFF0303030303070E70
:1006D000FCF80000FEFF0303030303070EFCF80011
:1006E00000FFFF00000000000000FFFF0000FEFF11
:1006F0008383838383C7EE7C380000F8FC0E0703F6
:100700000303070EFCF800003F7FE0C08080C0E0DC
:100710007F3FFFFF01010101010101FFFF0000FF19
:10072000FF0C0C0C0C1C3E77E3C100007FFFC0C027
:10073000C0C0C0E0703F1F00001F3F70E0C0C0C0DD
:10074000E0703F1F00007FFFC1C1C1C1C1E3773E20
:100750001C00001F3F70E0C0C0C0E0703F1F0000E1
:1007600000000001FFFF01000000D5F08D14A1C8BA
:1007700081CFD9F1AF20004823000000F0F0101025
:10078000101010F0000000C0C0404040C0C0000089
:1007900000FCFC4040404040C00000000000DCDCA9
:1007A0000000000000004040F0F040000000404029
:1007B0004040404040C0C000000000FCFC00000081
:1007C000000000001F1F10101010101F0000001F5D
:1007D0001F00000000000000001F1F10101010106C
:1007E0001F00000000001F1F0000000000000000AC
:1007F0001F1F100000001E1E12121212121F1F00D7
:100800000000001F1F00000000000000FC000000AE
:100810000000FC0000000000FC0000909090909010
:1008200090F000000000F0F0101010300000000008
:1008300000F01010101010FF000000F09090909049
:1008400090F00000000000F80808080808F8000010
:100850000000000007040404040407040404040462
:100860000700000704040404040700000000070751
:100870000000000000000000000704040404040756
:100880000000000704040404040400000000000742
:100890000000000000070000000000000000000051
:1008A0000000000000000000000000000000000048
:1008B0000000000000000000000000000000000038
:1008C0000000000000000000000000000000000028
:1008D0000000000000000000000000000000000018
:1008E000000507605C435C60454D50545900484921
:1008F0005420504C414E45542100080B0002020286
:10090000000009040000010202000005240010019B
:10091000052401010104240206052406000107053F
:10092000810310004009040100020A0000000705CD
:10093000020240000007058302400000040309048E
:1009400012010002EF020140412336800001010242
:10095000030141726475696E6F204C4C4300417213
:100960006475626F7900E31B11241FBECFEFDAE0DC
:10097000DEBFCDBF12E0A0E0B1E0E6E6F3E602C0E4
:1009800005900D92A633B107D9F729E0A6E3B2E0AE
:1009900001C01D92AB3EB207E1F714E0C4EBD4E016
:1009A00004C02197FE010E94AB31C33BD107C9F7B8
:1009B0000E944E1C0C94B1310C9400002F923F9277
:1009C0004F925F926F927F928F929F92AF92BF925F
:1009D000CF92DF92EF92FF920F931F93CF93DF930B
:1009E00000D000D01F92CDB7DEB769017A010E9416
:1009F000402F7B836A83C701B6010E94402F3B01D1
:100A000007E717E019829DE0E92EF12C512C412CCB
:100A1000F80180809180A280B38064817581868195
:100A200097810E94402F9B0128533F4F3D832C8389
:100A3000F70183E0EE0FFF1F8A95E1F7E958F84FC1
:100A4000C080D180E280F380648175818681978146
:100A50000E94402F1B0138EC230E311C91E0EC81E9
:100A6000FD816E167F060CF090E081E06214730445
:100A70000CF080E0981771F1C501B4010E94402F7D
:100A80005B01F8ECAF0EB11CC701B6010E94402F0C
:100A900068537F4F6A197B0993018C819D81281BC4
:100AA000390B629FC001639F900D729F900D1124BE
:100AB000B101EC81FD816E1B7F0B0E948331A60E7C
:100AC000B71E2A813B812A153B0524F4398181E038
:100AD00038273983C2010196085F1F4F72018E309B
:100AE0009105C9F489810F900F900F900F900F908E
:100AF000DF91CF911F910F91FF90EF90DF90CF90FA
:100B0000BF90AF909F908F907F906F905F904F902D
:100B10003F902F9008952C017BCF480F592F511DE6
:100B20001416150684F5803891056CF597FF02C000
:100B300090E080E04138510514F040E850E0481B57
:100B4000FB01E770FF2721E001C0220FEA95EAF7D9
:100B500077FF02C0695F7F4FFB0133E0F595E795B2
:100B60003A95E1F7F695FE2FEE27F795E795E80F12
:100B7000F91FE358FD4F415030F08191DF0111978B
:100B8000822B8C93F8CF08952F923F924F925F92D1
:100B90006F927F928F929F92AF92BF92CF92DF928D
:100BA000EF92FF920F931F93CF93DF93CDB7DEB7F2
:100BB0002E970FB6F894DEBF0FBECDBF6B015E87D8
:100BC0004D875901261737070CF003C1E616F706C3
:100BD0000CF416C13C2D2D2D6501A32EB22E382FFD
:100BE000292F8D859E853D872E87CE14DF04D1F574
:100BF0002D853E852817390734F4382F292F8D8508
:100C00009E853D872E870817190744F04D855E8520
:100C10004017510714F41E870D878C0150E4C51648
:100C2000D10408F0FDC04D854F5F401BB601C801DF
:100C30002E960FB6F894DEBF0FBECDBFDF91CF91D9
:100C40001F910F91FF90EF90DF90CF90BF90AF90EA
:100C50009F908F907F906F905F904F903F902F90DC
:100C60000C948D05302F212F8C01832F922F3E2D38
:100C70002F2D7601C32ED22E2D853E85201B310BC4
:100C800038872F83A5014E195F095A8749873C0190
:100C9000601A710A96012E193F093A832983AC0123
:100CA0002D853E85421B530B5C834B83A6014A195D
:100CB0005B095C874B87CA14DB0409F442C0C50199
:100CC00001979E838D834701512C412C312C212C7F
:100CD0002D813E8128153905BCF1C10169857A85D0
:100CE0000E9483319B01200F311FC20169817A81EB
:100CF0000E948331600F711F4F815885240E351E6D
:100D0000460C571C621773071CF4922F9B01692F26
:100D100050E48516910438F46F5F462F421BB401EE
:100D2000C9010E948D058FEF881A980AD1CF3D85A1
:100D30002E859E878D87832F922F3C2D2D2D65012B
:100D40006CC0DE82CD82BFCFC4018A199B092B8182
:100D50003C81829F5001839FB00C929FB00C112464
:100D6000C4018E199F09869D7001879DF00C969D88
:100D7000F00C1124C814D9040CF452C0C5016B85C1
:100D80007C850E9483312D853E85260F371FC70144
:100D900069817A810E948331600F711F4B815C8170
:100DA000A40EB51EE60CF71C621773071CF4922FF5
:100DB0009B01692F50E48516910438F46F5F462F2C
:100DC000421BB401C9010E948D058FEF881A980A51
:100DD000D1CFE216F3060CF008CFE616F7060CF4B6
:100DE000A6CF302F212F0D851E859E878D87832FBF
:100DF000922F3A2D2B2D5B016701E32EF22EEACEC6
:100E0000E216F3060CF438CF302F212F0D851E8506
:100E10003D872E873E2D2F2D7501A32EB22E2CCF70
:100E20002E960FB6F894DEBF0FBECDBFDF91CF91E7
:100E30001F910F91FF90EF90DF90CF90BF90AF90F8
:100E40009F908F907F906F905F904F903F902F90EA
:100E50000895EDE7F2E0A0E0B8E000800EBC81115B
:100E6000012C1197A0FDFDCF0192B9F70DB40895A3
:100E7000FC0180917C02882311F13FB7F89482E055
:100E80008093E9002091F200822F90E01816190655
:100E900014F481E090E0882339F0289844E64093E8
:100EA0007B024091F1004083222339F02091F2002F
:100EB000211103C02BE62093E8003FBF08958FEF78
:100EC0009FEF08952FB7F89483E08093E900909105
:100ED000E800892F807295FF04C09091F20080E4B1
:100EE000891B2FBF08958091730281110DC082E08C
:100EF00080936F0284E080937002109272021092CD
:100F0000710281E0809373028FE692E00895CF939F
:100F1000DF931F92CDB7DEB76983DC01ED91FC91C1
:100F20000280F381E02D41E050E0BE016F5F7F4F12
:100F300009950F90DF91CF91089583E08093E900A8
:100F40008091F200882319F08AE38093E8000895E5
:100F50000E94620790E00895CF93DF931F92CDB770
:100F6000DEB7FC018485958597FD08C02FEF3FEF24
:100F7000358724870F90DF91CF910895CE01019698
:100F80000E943807019719F4898190E0F3CF8FEF21
:100F90009FEFF0CF0F931F93CF93DF931F92CDB7A7
:100FA000DEB78C01FC018485958597FF0BC0CE01CF
:100FB00001960E943807019771F4898190E0F80149
:100FC00095878487F801848595850F90DF91CF916F
:100FD0001F910F9108958FEF9FEFF1CFFC01848552
:100FE000958597FD0BC09FB7F89482E08093E90048
:100FF0008091F2009FBF90E0019608959FB7F8940A
:1010000082E08093E9008091F2009FBF90E0089514
:101010004091690250916A02209167023091680202
:1010200042175307B4F49091E8009570E1F3909162
:10103000E80092FD19C08093F100809169029091BF
:101040006A0201968F739927892B19F48EEF80938A
:10105000E8008091690290916A02019690936A0279
:101060008093690281E0089580E00895DF92EF9215
:10107000FF920F931F93CF93DF93D82E8A01EB013A
:101080007B01E40EF51ECE15DF0559F0D7FE12C028
:10109000FE0184910E94080821968111F4CF0FEF80
:1010A0001FEFC801DF91CF911F910F91FF90EF903B
:1010B000DF9008958881EECF0F931F93CF93DF9336
:1010C0001F92CDB7DEB782E0898342E450E06AEF39
:1010D00078E080E80E9436080E947307DC011296CF
:1010E0000D911C910115110589F0D801ED91FC912C
:1010F0000280F381E02DBE016F5F7F4FC80109952B
:1011000097FD04C0F80100851185ECCF89810F900F
:10111000DF91CF911F910F910895615030F0209190
:10112000F100FC0120830196F8CF289884E6809393
:101130007B0208953FB7F894809163029091640216
:10114000A0916502B091660226B5A89B05C02F3F0D
:1011500019F00196A11DB11D3FBFBA2FA92F982FDD
:101160008827BC01CD01620F711D811D911D42E0D8
:10117000660F771F881F991F4A95D1F708958F92A0
:101180009F92AF92BF92CF92DF92EF92FF926B014C
:101190007C010E949A084B015C01C114D104E10456
:1011A000F104B9F00E949A08681979098A099B0923
:1011B000683E73408105910580F321E0C21AD10891
:1011C000E108F10888EE880E83E0981EA11CB11C8E
:1011D000E4CFFF90EF90DF90CF90BF90AF909F90C3
:1011E0008F9008958F929F92AF92BF92CF92DF928D
:1011F000EF92FF920F931F93CF93DF936C017B01CC
:101200008A0180911001882309F45CC080917C02DE
:10121000882309F457C080916E0280FF05C0809139
:10122000E00082608093E000E801B12C8AEFA82EF4
:1012300093E0892E2AE3922E209711F4BB20D9F156
:101240000E94620781110AC0AA94AA20D9F161E024
:1012500070E080E090E00E94BF08EECF8C171D0682
:1012600011F00CF08C2F9FB7F8948092E900209138
:10127000E80025FD02C09FBFDFCF282F30E0C21B52
:10128000D30BF701815020F041914093F100FACF48
:10129000E20EF31EBB2021F09092E800B12CEBCFC0
:1012A0008091E80085FDE7CF9092E800BB24B394DD
:1012B000209709F3F3CF5D9884E680936D021016B2
:1012C00011063CF081E090E0F6019383828310E008
:1012D00000E0C801DF91CF911F910F91FF90EF9037
:1012E000DF90CF90BF90AF909F908F900895AF9276
:1012F000BF92CF92DF92EF92FF920F931F93CF9303
:10130000DF936C017B018B01040F151FEB015E0164
:10131000AE18BF08C017D10759F06991D601ED91F9
:10132000FC910190F081E02DC6010995892B79F798
:10133000C501DF91CF911F910F91FF90EF90DF904A
:10134000CF90BF90AF9008954F925F926F927F922F
:101350008F929F92AF92BF92CF92DF92EF92FF92C5
:101360000F931F93CF93DF934C015901FC2DC02F96
:10137000D0E0CE01880D991D181619060CF06CC02E
:1013800020E8821691040CF067C09B012E0D311DE0
:10139000121613060CF060C0603471050CF05CC0CE
:1013A0004115510509F458C0E62FE770FE2EDB0108
:1013B00077FD179633E0B595A7953A95E1F73A2F63
:1013C00077FF04C0FF2011F03FEF3A0F6627772721
:1013D0006819790997FC02C070E060E080389105D7
:1013E0000CF44BC090E89819961BA32F032E000C09
:1013F000BB0B1A2F10953F3F0CF010E021E08E2D13
:10140000877009F420E0E694E694E694E20EAE0DCF
:10141000B11D19971CF028E0E22EE31AE11A310FF2
:1014200020E83203D0011124A80DB91DA60FB71F63
:10143000019F600D711D1124460F571F0F2D0F2C9A
:10144000000C110BF33009F41CC1C8F4F13009F49D
:10145000D0C0F23009F47CC0DF91CF911F910F9181
:10146000FF90EF90DF90CF90BF90AF909F908F90C4
:101470007F906F905F904F900895902FB5CFFA3F77
:10148000B1F1232F2E0DFB3F39F7321729F3BD01A0
:1014900063587D4FD12CC12CC91608F0A4C0FA01A5
:1014A000EC0DFD1DE491F0E04F01002E02C0880C10
:1014B000991C0A94E2F737FD06C0FB018081E82CF5
:1014C000E0948E218083FF2061F0373054F45B017B
:1014D000F0E8AF0EB11CE92CE094F50180818E217B
:1014E0008083FFEFCF1ADF0A6F5F7F4FD5CF232FA7
:1014F0002E0D321709F4B0CFBD0163587D4FD12CAA
:10150000C12CC91608F069C0FA01EC0DFD1DE4916B
:10151000F0E04F01002E02C0880C991C0A94E2F7FB
:1015200037FD04C0FB01808188298083FF2051F0B2
:10153000373044F45B01F0E8AF0EB11CF501808157
:1015400089298083FFEFCF1ADF0A6F5F7F4FD9CFE2
:101550006FEF70E00F2C02C0660F771F0A94E2F75E
:1015600060957095772E232F2E0D321709F474CFC6
:10157000FD01E358FD4F6F01B12CA12CA91638F5E0
:10158000FA01EA0DFB1DE491F0E02F01002E02C0EC
:10159000440C551C0A94E2F737FD05C0F601808122
:1015A000862384298083FF2059F037304CF446018C
:1015B000F0E88F0E911CF4018081872185298083BA
:1015C000FFEFAF1ABF0A8FEFC81AD80AD7CF3F5F15
:1015D0004C0F5D1FA058BF4FC8CF3F5F4C0F5D1F22
:1015E000A058BF4F86CF3F5F4C0F5D1FA058BF4F25
:1015F0004CCF6A0D7B1D232F2E0D321709F42CCFF3
:10160000FD01E358FD4F6F01B12CA12CA91688F5FF
:10161000FB01EA0DFB1D8490912C002E02C0880C6A
:10162000991C0A94E2F780949094FA01EA0DFB1D4C
:101630006490712C002E02C0660C771C0A94E2F7AD
:1016400037FD05C0F6018081882186298083FF202F
:1016500049F037303CF4F601E058FF4F8081892192
:1016600087298083FFEFAF1ABF0A8FEFC81AD80A05
:10167000CDCF3F5F4C0F5D1F6C0F7D1FA058BF4F3C
:10168000BCCFC92ED12CFA01E60FF71FA358BD4FCE
:1016900000E810E00C191D09CC19DD09BE01660F28
:1016A000771F41E050E06A010F2C01C0CC0C0A9476
:1016B000EAF7592F2E2D792ECF93DF93ED01EF9678
:1016C000EF9622968590A590FF2059F08C9C4001C2
:1016D000AC9C500137302CF4E880B094EB20E92822
:1016E000E99233233AF0EC90A094EA20E828ED92B6
:1016F0000C947B0B11965A9529F72A9551F0572D8A
:1017000033951124E60FF11DA00FB11DC00FD11D9F
:10171000D9CFDF91CF9111249FCE2D9A0895BC018E
:1017200090E080E00C94BF088FB18095807F669B2D
:1017300088601C9B8460089580E0EDE7F2E08111F1
:101740008FEF002481938193819381930394D1F748
:1017500010923D0210923C0210923F0210923E0203
:10176000089580914402809345020E94940B8093D7
:1017700044020895CF93C82F0E94940B982F9C2366
:1017800081E09C1380E0CF91089580E00C942907BC
:1017900080389105B8F460347105A0F420E191E03F
:1017A00061FD94E060FD990F62FD9295687F269F30
:1017B000D0011124A80FA358BD4F8C9140FF03C046
:1017C000892B8C93089590958923FBCF2F923F927C
:1017D0004F925F926F927F928F929F92AF92BF9241
:1017E000CF92DF92EF92FF920F931F93CF93DF93ED
:1017F000EC018B017A016901C61AD70AD7FE03C032
:10180000D194C194D10847018C1A9D0A97FE03C058
:101810009194819491088C149D0454F49E2D8F2DE5
:101820007901292F382F9C2F8D2FE801092F182F90
:10183000EC16FD0654F4902F812F8901292F382FA3
:101840009C2F8D2FE701E92EF82E17012C1A3D0A47
:101850002901401A510A57FE03C05194419451087E
:10186000310137FE03C08FEF681A780A75946794C8
:101870008FEF021713070CF481E0A82E880FBB0826
:10188000EC16FD06A4F041E0BE01C8018C149D04D5
:1018900014F0B801CE010E94C80B6418750877FED9
:1018A00004C00A0D1B1D620C731C2196E9CFDF9149
:1018B000CF911F910F91FF90EF90DF90CF90BF904D
:1018C000AF909F908F907F906F905F904F903F90E0
:1018D0002F900895EF92FF920F931F93CF93DF9372
:1018E0007C018B01040F111DEB0177FF02C0D0E0DA
:1018F000C0E0C8010134110514F080E490E0C8177D
:10190000D9073CF441E0BE01C7010E94C80B2196F3
:10191000F0CFDF91CF911F910F91FF90EF9008953D
:101920002F923F924F925F926F927F928F929F92EF
:10193000AF92BF92CF92DF92EF92FF920F931F93DD
:10194000CF93DF9300D01F92CDB7DEB76C015B0160
:10195000242F30E03B832A83440F4F5F621B730BBD
:101960000E946A0C01E010E08A819B81081B190B20
:101970001C01319421943108220C331C6624639499
:10198000712CF12CE12C17FD0BC02A813B812150D9
:1019900031093B832A8332E0230E311C020D131DD3
:1019A0008FEFE81AF80A92E0690E711C060D171DF8
:1019B0008A81880F8F5F8983482F25012A813B8187
:1019C000421A530AB201C7018C0D9D1D0E946A0C78
:1019D00045018E189F08462DB4018A819B818C0D8C
:1019E0009D1D0E946A0C4981B201C6018E199F0992
:1019F0000E946A0C462DB401C6012A813B81821BDC
:101A0000930B0E946A0C8A819B81E816F9060CF4FC
:101A1000BACF0F900F900F90DF91CF911F910F9140
:101A2000FF90EF90DF90CF90BF90AF909F908F90FE
:101A30007F906F905F904F903F902F9008958F927E
:101A40009F92AF92BF92CF92DF92EF92FF920F934D
:101A50001F93CF93DF936D3089F0C0903C02D090FC
:101A60003D026A30D1F410923F0210923E0288E0AB
:101A7000C80ED11CD0923D02C0923C0281E090E0A1
:101A8000DF91CF911F910F91FF90EF90DF90CF905A
:101A9000BF90AF909F908F90089500913E0210915B
:101AA0003F02E5E06E9FE0011124C654DE4F48017D
:101AB000F12CF5E0E12CFF1629F0CE010196FE0194
:101AC000E490EC01B12CA12C4E2D4170B6016A0DB1
:101AD0007B1DC4010E94C80BE694FFEFAF1ABF0A3A
:101AE00088E0A816B10481F7F394EFEF8E1A9E0AEE
:101AF000F6E0FF12DECF0A5F1F4F10933F02009304
:101B00003E02BCCF0F931F93CF93DF938C01D0E0A5
:101B1000C0E0F801EC0FFD1F6491662341F087EEF1
:101B200099E00E941F0D892B11F02196F2CFCE0172
:101B3000DF91CF911F910F910895809115019091A0
:101B40001601A0911701B091180180934C02909357
:101B50004D02A0934E02B0934F02809111019091DB
:101B60001201A0911301B091140180934802909347
:101B70004902A0934A02B0934B021092580210926D
:101B8000590210925A0210925B0210925402109263
:101B90005502109256021092570210925002109263
:101BA0005102109252021092530208954F925F9286
:101BB0006F927F928F929F92AF92BF92DF92EF923D
:101BC000FF920F931F93CF93DF93C6E3D2E0F12CE4
:101BD000E12C10E000E08AE0D82E80913A0290914A
:101BE0003B02E816F9060CF048C020E030E048E47B
:101BF00053E4688179818A819B810E94E52D2B01C4
:101C00003C0120E030E048E453E46C817D818E812A
:101C10009F810E94E52D4B015C01A3019201C3014C
:101C2000B2010E949B302B013C01A5019401C5012A
:101C3000B4010E949B309B01AC01C301B2010E9420
:101C4000E62D20E038EC4FEA56E40E948E3087FD06
:101C50000FC0D09ED001D19EB00D1124AA5CBD4F03
:101C6000FE018D2D01900D928A95E1F70F5F1F4FB8
:101C70008FEFE81AF80A2A96B0CF10933B02009330
:101C80003A02DF91CF911F910F91FF90EF90DF907B
:101C9000BF90AF909F908F907F906F905F904F908C
:101CA00008952F923F924F925F926F927F928F9200
:101CB0009F92AF92BF92CF92DF92EF92FF920F93DB
:101CC0001F93CF93DF93CDB7DEB763970FB6F8942A
:101CD000DEBF0FBECDBF9F838E8379876887CA0121
:101CE000B9010E94402F6B01C801B7010E94402F2B
:101CF0001B018E809F8021E0821A9108088519853A
:101D00001B8A1A8A1982C601DD0CAA0BBB0B8E87AF
:101D10009F87A88BB98BD801CD90DD90ED90FC907A
:101D2000139714966D917D918D919C9117970E94B8
:101D3000402F6A837B838C839D83AA80BB8083E052
:101D4000880C991C8A95E1F7E885F985E80DF91D5D
:101D50004080518062807380648175818681978123
:101D60000E94402F6A877B878C879D878A859B8509
:101D700021E02A143B040CF020E031E0281639065B
:101D80000CF030E0231709F453C0C701B6010E94DC
:101D9000402F6B016E857F85888999890E94782FF5
:101DA0004B015C01C301B2010E94402F6C197D09F7
:101DB0009101EA81FB812E1B3F0B629FC001639F53
:101DC000900D729F900D1124BC01990F880B990BF7
:101DD0000E94782F2B013C016A857B852A813B81FB
:101DE000621B730B072E000C880B990B0E94782F37
:101DF0009B01AC01C301B2010E94CE2E2B013C011C
:101E0000B601DD0C880B990B0E94782F9B01AC0169
:101E1000C301B2010E94E62D9B01AC01C501B401D2
:101E20000E94C42E87FF04C0398181E0382739839E
:101E30008A899B890196085F1F4F8A889B88AE819B
:101E4000BF81A817B907D1F4898163960FB6F894BA
:101E5000DEBF0FBECDBFDF91CF911F910F91FF90DD
:101E6000EF90DF90CF90BF90AF909F908F907F903A
:101E70006F905F904F903F902F9008959B8B8A8B2F
:101E80004ACFCF92EF920F93CF93DF93EC018E81E5
:101E90006A3069F49D819C836985860F8E8381E019
:101EA00090E0DF91CF910F91EF90CF9008956A333A
:101EB00078F4603308F051C0613209F450C09FE3F8
:101EC0006E3291F098859D5F8C81890F8C83E7CF6E
:101ED0006134C0F36B3530F09FE9960F9A3190F77B
:101EE00099EB01C09FEB960F61E0680F062E000C86
:101EF000770BAC810A2E000CBB0BE8EFF0E029EF6A
:101F000030E08F81813069F50491F901E4904AEF66
:101F100050E09923D1F041E050E08E2D877011F40C
:101F200050E040E02E2D269526952695240F352F3E
:101F3000311D029FF001039FF00D11249E9FA0010F
:101F40009F9F500D112446505F4F9AEFC92E30E0ED
:101F500020E0CD010E94A409B5CF94E0C4CF9EE358
:101F6000C3CF0491F901E4904AEF50E09923D1F0F6
:101F700041E050E08E2D877011F450E040E02E2DAE
:101F8000269526952695240F352F311D029FF001A9
:101F9000039FF00D11249E9FA0019F9F500D1124BF
:101FA00046505F4F8BEFC82ED2CF089590E080E06F
:101FB00008952F923F924F925F926F927F928F92ED
:101FC0009F92AF92BF92CF92DF92EF92FF920F93C8
:101FD0001F93CF93DF93CDB7DEB7A9970FB6F894D1
:101FE000DEBF0FBECDBF89A71B012D8B3E8B4F8B54
:101FF000588FE98EFA8E0B8F1C8FEEACFFAC2296B9
:102000006EAC7FAC229724964EAC5FAC249726969C
:102010000EAD1FAD269728962EAD3FAD28973A837B
:102020002983C601B5010E94C92E6D837E838F83EB
:102030009887C601B5010E94083169877A878B8726
:102040009C87B401990C880B990B0E94782F4B0147
:102050005C01B701FF0C880B990B0E94782F6B0174
:102060007C01B301770C880B990B0E94782F6D8F40
:102070007E8F8F8F98A3B201550C880B990B0E940D
:10208000782F2B013C01B801110F880B990B0E948E
:10209000782F69A37AA38BA39CA329813A81B901E4
:1020A000330F880B990B0E94782F6DA37EA38FA30B
:1020B00098A72D813E814F815885C501B4010E94AA
:1020C0009B3069837A838B839C8329853A854B85F2
:1020D0005C85C701B6010E949B309B01AC01698100
:1020E0007A818B819C810E94E52D2D893E894F89C3
:1020F000588D0E94E62D0E94402F69837A838B833E
:102100009C8329853A854B855C85C501B4010E9475
:102110009B304B015C012D813E814F815885C70169
:10212000B6010E949B309B01AC01C501B4010E9425
:10213000E62D298D3A8D4B8D5C8D0E94E62D0E94F7
:10214000402F6D877E878F87988B2D813E814F81B1
:1021500058856D8D7E8D8F8D98A10E949B306B016F
:102160007C0129853A854B855C85C301B2010E94BB
:102170009B309B01AC01C701B6010E94E52D2D8962
:102180003E894F89588D0E94E62D0E94402F698B11
:102190007A8B8B8B9C8B29853A854B855C856D8DE5
:1021A0007E8D8F8D98A10E949B306B017C012D81CB
:1021B0003E814F815885C301B2010E949B309B0133
:1021C000AC01C701B6010E94E62D298D3A8D4B8DD9
:1021D0005C8D0E94E62D0E94402F2B012D813E81B7
:1021E0004F81588569A17AA18BA19CA10E949B3047
:1021F0006B017C0129853A854B855C856DA17EA1AB
:102200008FA198A50E949B309B01AC01C701B6012C
:102210000E94E52D2D893E894F89588D0E94E62D1B
:102220000E94402F4B0129853A854B855C8569A129
:102230007AA18BA19CA10E949B306B017C012D8116
:102240003E814F8158856DA17EA18FA198A50E94E6
:102250009B309B01AC01C701B6010E94E62D298D80
:102260003A8D4B8D5C8D0E94E62D0E94402F6B01B4
:1022700037E023163104D1F089A581111AC020FE60
:1022800009C0920149895A896D857E8589819A8123
:102290000E94E60B21FE07C09601A401B2018989C4
:1022A0009A890E94E60B22FE0FC037C099A5992398
:1022B00021F176018401920149895A896D857E85D3
:1022C00089819A810E94C405A9960FB6F894DEBF51
:1022D0000FBECDBFDF91CF911F910F91FF90EF9077
:1022E000DF90CF90BF90AF909F908F907F906F9036
:1022F0005F904F903F902F900895920149895A899D
:102300006D857E8589819A810E94E60B9601A401E4
:10231000B20189899A890E94E60B2D853E85498103
:102320005A81B601C401A9960FB6F894DEBF0FBE5C
:10233000CDBFDF91CF911F910F91FF90EF90DF9074
:10234000CF90BF90AF909F908F907F906F905F9055
:102350004F903F902F900C94E60B2F923F924F920C
:102360005F926F927F928F929F92AF92BF92CF9225
:10237000DF92EF92FF920F931F93CF93DF93CDB72E
:10238000DEB72C970FB6F894DEBF0FBECDBF10920C
:1023900076071092750723E0222E312C0E94142D0F
:1023A0002EE030E040E050E00E94822DFB0183E00F
:1023B000EE0FFF1F8A95E1F7E958F84F2081318130
:1023C0004281538129833A834B835C832481358105
:1023D0004681578129873A874B875C87CB010196D5
:1023E0006EE070E00E948331AC0193E0440F551F12
:1023F0009A95E1F74958584F5E834D8329813A8178
:102400004B815C81AD81BE816D917D918D919C915F
:102410000E94E52D4B015C0129853A854B855C8541
:10242000ED81FE8164817581868197810E94E52D11
:102430006B017C01A50194010E94652E2BED3FE00C
:1024400049EC5FE30E94E62D6D837E838F8398873E
:102450000E94142D20E137E240E050E00E94822DDE
:102460000E94782F20E030E44CE156E40E94CE2E0A
:102470002B013C01AC019B01C501B4010E949B30C2
:1024800029813A814B815C810E94E62D20E030E079
:1024900048E453E40E94E62D4B015C01A301920144
:1024A000C701B6010E949B3029853A854B855C8522
:1024B0000E94E62D20E030E048E453E40E94E62D3F
:1024C00069837A838B839C836D817E818F819885DC
:1024D0000E94C92E2B013C016D817E818F819885E0
:1024E0000E9408316B017C010091750710917607FD
:1024F0004EE0409F9001419F300D11242D54364FE6
:102500003A87298720E030E040E450E4C301B2017B
:102510000E949B30A50194010E94E62DA985BA85F1
:102520006D937D938D939C93139720E030E040E46E
:1025300050E4C701B6010E949B3029813A814B814A
:102540005C810E94E62DE985FA8564837583868324
:1025500097832D813E814F8158852087318742871F
:1025600053870F5F1F4F1093760700937507B1E0F5
:102570002B1A310809F012CF2C960FB6F894DEBF53
:102580000FBECDBFDF91CF911F910F91FF90EF90C4
:10259000DF90CF90BF90AF909F908F907F906F9083
:1025A0005F904F903F902F9008952F923F924F92BF
:1025B0005F926F927F928F929F92AF92BF92CF92D3
:1025C000DF92EF92FF920F931F93CF93DF93CDB7DC
:1025D000DEB7A2970FB6F894DEBF0FBECDBF109244
:1025E00074071092730725E0222E312C0E94142DBF
:1025F0002EE030E040E050E00E94822DFB0183E0BD
:10260000EE0FFF1F8A95E1F7E958F84F20813181DD
:102610004281538129833A834B835C8324813581B2
:10262000468157812D833E834F835887CB01019686
:102630006EE070E00E948331AC0193E0440F551FBF
:102640009A95E1F74958584F5A87498729813A8125
:102650004B815C81A985BA856D917D918D919C910D
:102660000E94E52D2B013C012D813E814F81588533
:10267000E985FA8564817581868197810E94E52DBF
:102680006B017C01A30192010E94652E69877A8704
:102690008B879C870E94142D20E137E240E050E0B8
:1026A0000E94822D0E94782F20E030E44CE156E415
:1026B0000E94CE2E4B015C018091730790917407AC
:1026C0004EE2489F9001499F300D11242357394F06
:1026D0003E872D87A5019401C301B2010E949B3062
:1026E00029813A814B815C810E94E62D20E030E017
:1026F00048E453E40E94E62DAD85BE856D937D933D
:102700008D939C931397A5019401C701B6010E9474
:102710009B302D813E814F8158850E94E62D20E01F
:1027200030E048E453E40E94E62DED85FE856483A5
:1027300075838683978329853A854B855C852087B9
:102740003187428753870E94142D0091730710919F
:1027500074072EE2209FF001219FF00D1124E35712
:10276000F94FFA83E9832AE530E040E050E00E9427
:10277000822DA981BA811D967C936E931C970F5F61
:102780001F4F1093740700937307B1E02B1A3108A1
:1027900009F02CCFEDE8F6E0FAA3E9A3312C212CC7
:1027A000201631060CF061C1A9A1BAA114962D9191
:1027B0003D914D915C9117972D8F3E8F4F8F58A370
:1027C0001896CD90DD90ED90FC901B97C701B60157
:1027D0000E94C92E4B015C01C701B6010E9408315D
:1027E0006B017C0120E030E040EC5FEBC501B401FF
:1027F0000E949B306D837E838F83988720E030E03A
:1028000040E450ECC701B6010E949B3069877A878B
:102810008B879C8720E030E040EC5FEBC701B6017E
:102820000E949B306D877E878F87988B20E030E0F9
:1028300040E450ECC501B4010E949B3069837A8367
:102840008B839C8320E030E040EC5FE3C501B40162
:102850000E949B30698B7A8B8B8B9C8B20E030E0C5
:1028600040EC5FE3C701B6010E949B306D8B7E8B0D
:102870008F8B988F20E030E040E450E4C701B60130
:102880000E949B302B013C0120E030E040E450E40A
:10289000C501B4010E949B30698F7A8F8B8F9C8F0A
:1028A00020E030E0A901C501B4010E949B30A301E2
:1028B00092010E94E62DE9A1FAA120813181428195
:1028C00053810E94E62D4B015C01A9A1BAA18D9212
:1028D0009D92AD92BC92139720E030E0A901C70110
:1028E000B6010E949B3029813A814B815C810E9414
:1028F000E62D2D8D3E8D4F8D58A10E94E62D6B014A
:102900007C01E9A1FAA1C482D582E682F7822985F9
:102910003A854B855C856D817E818F8198850E948B
:10292000E52DA50194010E94E62DA9A1BAA11E964C
:102930006D937D938D939C93519729813A814B811F
:102940005C816D857E858F8598890E94E62DA70123
:1029500096010E94E62DE9A1FAA1628B738B848B0C
:10296000958B29853A854B855C8569897A898B8920
:102970009C890E94E52DA50194010E94E62DA9A144
:10298000BAA156966D937D938D939C9359972D89FB
:102990003E894F89588D69817A818B819C810E9403
:1029A000E62DA70196010E94E62DE9A1FAA1628F0A
:1029B000738F848F958FA301920169897A898B899E
:1029C0009C890E94E52DA50194010E94E62DA9A1F4
:1029D000BAA15E966D937D938D939C939197298D6B
:1029E0003A8D4B8D5C8D6D897E898F89988D0E9483
:1029F000E62DA70196010E94E62DE9A1FAA162A3A6
:102A000073A384A395A3A30192016D817E818F811D
:102A100098850E94E52DA50194010E94E62DA9A1AB
:102A2000BAA196966D937D938D939C939997298DDA
:102A30003A8D4B8D5C8D6D857E858F8598890E9442
:102A4000E62DA70196010E94E62DE9A1FAA162A751
:102A500073A784A795A7FFEF2F1A3F0A29A13AA1D0
:102A6000225D3F4F3AA329A39BCEE6E9F8E083EB32
:102A700099E0108273968E179F07D9F7A2960FB62A
:102A8000F894DEBF0FBECDBFDF91CF911F910F91A4
:102A9000FF90EF90DF90CF90BF90AF909F908F907E
:102AA0007F906F905F904F903F902F900895CF92BE
:102AB000DF92EF92FF920F931F93CF93DF931092C9
:102AC000370810924A0810925D0810927008109210
:102AD0008308CDE8D6E010E000E08AE5C82ED12CCE
:102AE000E12CF12C80917307909174070817190756
:102AF00064F40E94142DA70196010E94822D7D8707
:102B00006C870F5F1F4FAE96EDCFE6E9F8E01082BD
:102B1000739689E0E33BF807D1F7DF91CF911F91DE
:102B20000F91FF90EF90DF90CF9008958F929F923A
:102B3000AF92BF92CF92DF92EF92FF926B017C0136
:102B4000CA01B901A70196010E94E52D4B015C0164
:102B50000E94142D21E137E240E050E00E94822DD6
:102B60000E94782F20E030E44CE156E40E94CE2E03
:102B7000A50194010E949B30A70196010E94E62DB9
:102B8000FF90EF90DF90CF90BF90AF909F908F908D
:102B900008952F923F924F925F926F927F928F9201
:102BA0009F92AF92BF92CF92DF92EF92FF920F93DC
:102BB0001F93CF93DF93CDB7DEB72A970FB6F89464
:102BC000DEBF0FBECDBF0E949A0861157105810559
:102BD000910511F00E94632D87E797E09A87898716
:102BE0001C0110E000E01D821E8298EC9F83E3E44C
:102BF000E887412C512C80EF682E81E4782E0E94CA
:102C0000142D2BE030E040E050E00E94822D655012
:102C10007109810991095801A60EB71EB7FE04C0BB
:102C2000F8E9AF1AFEEFBF0A20E030E040E85FE3CA
:102C300060E070E0CB010E9496152AE939E949E984
:102C40005EE30E94E62D6B017C0120E030E040E86D
:102C50005FE30E948E3018160CF45FC1C0928106AB
:102C6000D0928206E0928306F09284062DEC3CEC32
:102C70004CE45FE360E070E0CB010E9496152DEC20
:102C80003CEC4CE45EE30E94E62D6B017C0120E00D
:102C900030E040E85FE30E948E3018160CF44AC121
:102CA000C0921901D0921A01E0921B01F0921C010E
:102CB00020918106309182064091830650918406CE
:102CC00060E070E080E89FE30E94E52D6B017C01ED
:102CD000A301920160E070E086E193E40E94E52D9B
:102CE0009B01AC01C701B6010E949B309B01AC0166
:102CF000C301B2010E94E62D2B013C01C0901901D5
:102D0000D0901A01E0901B01F0901C01B501BB0CA2
:102D1000880B990B0E94782F25E33AEF4EE85CE38D
:102D20000E949B304B015C0120E030E046E153E41F
:102D3000C701B6010E949B3069837A838B839C8391
:102D4000A7019601C301B2010E949B3029813A81FB
:102D50004B815C810E9496156B017C01C501B40119
:102D60000E94C92E9B01AC01C701B6010E949B3095
:102D700069837A838B839C83C501B4010E940831E7
:102D80009B01AC01C701B6010E949B306B017C0125
:102D900020E030E040E050E460E070E080E090EC63
:102DA0000E94961529813A814B815C810E94E62D13
:102DB0004B015C0120E030E040E050E460E070E076
:102DC00080E090EC0E949615A70196010E94E62DE6
:102DD0006B017C012D813E814F8158850E94C42E5C
:102DE00087FF2AC020E030E048E453E4C501B40185
:102DF0000E94E62D609315017093160180931701D0
:102E00009093180120E030E048E453E4B601C70194
:102E10000E94E62D20E030E040EA51E40E94E52DDA
:102E20006093110170931201809313019093140128
:102E3000CD82DE82EF82F886F10180829182A282C9
:102E4000B382C601D70184839583A683B783075EC7
:102E50001F4FF8E02F0E311C0E3581E0180709F0E6
:102E6000CECE07EE17E0C12CD12C760146015701DA
:102E7000E985FA852081318142815381C501B40100
:102E80000E94E62D4B015C01E985FA85248135819C
:102E900046815781C701B6010E94E62D6B017C0176
:102EA00089859A8508969A8789870817190701F7EF
:102EB00020E030E040E651E4C501B4010E94CE2E8E
:102EC0000E94402F7093800660937F0620E030E0E0
:102ED00040E651E4C701B6010E94CE2E0E94402F69
:102EE00070937E0660937D062A960FB6F894DEBF37
:102EF0000FBECDBFDF91CF911F910F91FF90EF904B
:102F0000DF90CF90BF90AF909F908F907F906F9009
:102F10005F904F903F902F90089580E090E0A0E860
:102F2000BFE38093810690938206A0938306B093BB
:102F300084069CCE80E090E0A0E8BFE38093190176
:102F400090931A01A0931B01B0931C01B1CEFB0119
:102F500001900020E9F73197AF01461B570BDC01C8
:102F6000ED91FC910280F381E02D09948F929F9264
:102F7000AF92BF920F931F93CF93DF93CDB7DEB77E
:102F8000A1970FB6F894DEBF0FBECDBF19A2423095
:102F900008F44AE08E010F5D1F4F842E912CB12C56
:102FA000A12CA50194010E94B42DE62FB901CA01FC
:102FB000EA3004F5E05DD801EE938D01232B242B3C
:102FC000252B79F790E080E0109729F0BD0187EE7E
:102FD00099E00E94A717A1960FB6F894DEBF0FBE26
:102FE000CDBFDF91CF911F910F91BF90AF909F9078
:102FF0008F900895E95CDFCFCF92DF92EF92FF923E
:10300000CF93DF936B017C016DE287EE99E00E9424
:103010001F0DEC0166277727CB016C197D098E09FE
:103020009F094AE00E94B6178C0F9D1FDF91CF9138
:10303000FF90EF90DF90CF900895CF93DF93BC0186
:10304000990F880B990B97FF0EC00E94FC17EC019B
:1030500062E571E087EE99E00E94A7178C0F9D1F33
:10306000DF91CF9108954AE00E94B617F0CF0F93F9
:103070001F93CF93DF93EC010E94A7178C0162E5A9
:1030800071E0CE010E94A717800F911FDF91CF91B1
:103090001F910F9108958091010190910201019774
:1030A0009093020180930101181619060CF463C075
:1030B0000E949C0B10923F0210923E0210923D0221
:1030C00010923C0265E571E087EE99E00E943718A6
:1030D00060E671E087EE99E00E9437188091460221
:1030E000909147020E941D180E94C50B68EE73E084
:1030F00080E090E00E94BF0883E090E0909302019E
:103100008093010180E29EE4909304018093030187
:10311000109247021092460262E571E087EE99E054
:103120000E94A7176EE671E087EE99E00E943718BB
:103130006FE771E087EE99E00E9437180E94C50B97
:103140000E94B10B0E94940B8823D1F30E949A082D
:10315000611571058105910511F00E94632D0E9492
:10316000C9150E94AD110E94D51210923B02109217
:103170003A020E94D60D10925D0210925C020E94EB
:103180009D0D0C9457150C946C2D1F920F920FB639
:103190000F9211248F939F938091E1009091E10011
:1031A000937F9093E10083FF0FC01092E90091E0BC
:1031B0009093EB001092EC0092E39093ED0010924C
:1031C0007C0298E09093F00082FF22C093E09093FD
:1031D000E9009091F200992319F09AE39093E800A6
:1031E00090916D02992341F090916D0291509093CE
:1031F0006D02911101C05D9A90917B02992341F07B
:1032000090917B02915090937B02911101C0289A7A
:1032100084FF18C08091E2008E7E81608093E2007E
:103220008091E1008F7E8093E10080916E028E7E1E
:10323000806180936E029F918F910F900FBE0F90CF
:103240001F90189580FFF7CF8091E2008E7E8061FD
:103250008093E2008091E1008E7E8093E100809176
:103260006E028E7E8160E5CF1F920F920FB60F9295
:103270001124CF92DF92EF92FF920F931F932F931F
:103280003F934F935F936F937F938F939F93AF93EE
:10329000BF93EF93FF93CF93DF93CDB7DEB76C97D8
:1032A000DEBFCDBF1092E9008091E80083FF25C00A
:1032B00068E0CE0145960E948D0882EF8093E80079
:1032C0008D8987FF39C09091E80090FFFCCF982F3F
:1032D000907609F034C19E894F89588D2F89F88CDA
:1032E000911131C0803861F580916C028093F100BA
:1032F0001092F1008EEF8093E8006C960FB6F89470
:10330000DEBF0FBECDBFDF91CF91FF91EF91BF9197
:10331000AF919F918F917F916F915F914F913F916D
:103320002F911F910F91FF90EF90DF90CF900F9012
:103330000FBE0F901F9018959EEF9093E800C7CF97
:103340001092F100D5CF913059F48111D3CF413093
:10335000510581F680916C028D7F80936C02CACFFB
:10336000933049F48111C6CF4130510519F680914F
:103370006C028260F2CF953041F48091E80080FFCA
:10338000FCCF20682093E300B5CF963009F0A9C0A8
:103390000B8D1C8D22E01092E90010926A021092AF
:1033A0006902F2122EC010926802109267020E9407
:1033B0005C081F8299E09983FA8291E09E8390EAEB
:1033C00098879AEF99872091690230916A02275F66
:1033D0003F4F3C832B838D831092E90010926A0249
:1033E00010926902109368020093670249E050E06E
:1033F000BE016F5F7F4F80E00E9436080E945C082C
:1034000079CF10936802009367020E947307DC0172
:1034100012960D911C910115110509F451C1D801A5
:10342000ED91FC910480F581E02DBE016B5E7F4F34
:10343000C8010995009709F03EC1F8010085118582
:10344000EACFF3E0FF120EC08F89882309F440C051
:10345000823061F440E867E08EE599E00E94B01B9D
:10346000811148CF81E28093EB0047CF813029F46E
:1034700040E86BE082E599E0F1CF833099F70E9454
:103480007307DC011296ED90FC908E010F5F1F4FC9
:103490006801E114F10479F0D701ED91FC91068007
:1034A000F781E02DB801C7010995080F111DF7013B
:1034B000E084F184EECFD8011C92F6010190002047
:1034C000E9F73197BF016C197D0940E0C601C6CF0D
:1034D0006CE379E0FB01449150E080E80E943608FB
:1034E00009CF973009F4BECF983021F481E0809362
:1034F000F10000CF993009F0FDCE837009F0B2CF12
:10350000E2E2F1E081E031E096E32191222371F0E3
:103510008093E9003093EB00DF0111972C91209309
:10352000EC009093ED008F5F873079F78EE7809302
:10353000EA001092EA008F8980937C02DBCE8B8DAB
:103540009C8D1092E90010926A0210926902909389
:10355000680280936702898D811192C08E899D894E
:10356000913A49F4813209F07DCF47E050E069E0BB
:1035700071E080E0B3CF913209F074CF833269F407
:103580008F89988DB0E0A0E08093050190930601AB
:10359000A0930701B0930801ADCE803269F4809109
:1035A000E80082FFFCCF67E089E091E00E948D088F
:1035B0008BEF8093E8009ECE823209F09BCE8F89FC
:1035C00080931001EEEFFFE7859194918B3F9C4D26
:1035D00051F1E0E0F8E08091090190910A01A09199
:1035E0000B01B0910C01803B9440A105B105F1F4B1
:1035F0008091100180FD1AC0EE3F8AE0F80789F53E
:1036000087E797E7918380838091600080936B02C6
:1036100088E19BE00FB6F894A895809360000FBEF8
:103620009093600067CEEEEFFAE0D5CF8081918174
:103630008737974709F05ECEA89580916000886132
:103640008093600080916B0280936000EE3F2AE0DF
:10365000F20789F08091FE0A9091FF0A918380839E
:1036600049CE808191818737980751F29093FF0A64
:103670008093FE0AC5CF1092FF0A1092FE0A3ACE3E
:103680000E947307DC0112960D911C910115110522
:1036900009F4E8CED801ED91FC910190F081E02D84
:1036A000BE016B5E7F4FC8010995811123CEF801E1
:1036B00000851185EBCF181619060CF41BCED2CE5F
:1036C000F1E0FF12BECE60E479E004CF1F920F92CA
:1036D0000FB60F9211242F933F938F939F93AF9325
:1036E000BF9380915F0290916002A0916102B091BE
:1036F000620230915E0223E0230F2D3758F50196C8
:10370000A11DB11D20935E0280935F029093600221
:10371000A0936102B093620280916302909164026F
:10372000A0916502B09166020196A11DB11D809322
:10373000630290936402A0936502B0936602BF9106
:10374000AF919F918F913F912F910F900FBE0F904E
:103750001F90189526E8230F0296A11DB11DD2CF08
:10376000EF92FF920F931F93CF93DF93F82E192FB1
:10377000E62E042F81E0860F880F0E94080883E060
:103780000E940808CF2DD12FEC0EFD2EF11CCE1576
:10379000DF05B9F007FF13C0FE0184910E940808FD
:1037A000182F80E00E940808812321968111EFCF15
:1037B000DF91CF911F910F91FF90EF900895888135
:1037C000EDCF81E0F5CF1092EA071092E90788EE7D
:1037D00093E0A0E0B0E08093EB079093EC07A09318
:1037E000ED07B093EE078CE291E09093E8078093A9
:1037F000E7078FEF9FEF9093F4078093F307109202
:10380000EA091092E9098AE491E09093E80980932B
:10381000E7091092E0091092DF098EE391E090939E
:10382000DE098093DD0988E08093E60981E08093DA
:10383000E5091092E2091092E3091092E1098093E0
:10384000E40984EC99E09093C0098093BF099093B8
:10385000CE098093CD099093DC098093DB09E6E9DA
:10386000F8E083EB99E0128A118A73968E179F070E
:10387000D1F7109249081092480810925C081092F3
:103880005B0810926F0810926E08109282081092D6
:10389000810810929508109294080895CF93DF93B1
:1038A000CDB7DEB7CC54D1090FB6F894DEBF0FBE4A
:1038B000CDBF789484B5826084BD84B5816084BDB9
:1038C00085B5826085BD85B5816085BD80916E00BE
:1038D000816080936E0010928100809181008260EF
:1038E000809381008091810081608093810080912C
:1038F000800081608093800080919100826080933D
:10390000910080919100816080939100809190005E
:103910008160809390008091C10084608093C10099
:103920008091C10082608093C1008091C10081605C
:103930008093C1008091C30081608093C300809117
:10394000C00082608093C0008091C200816080933B
:10395000C20080917A00846080937A0080917A001E
:10396000826080937A0080917A00816080937A00EF
:1039700080917A00806880937A0010927C02109285
:103980006C0210926E028091D70081608093D70004
:1039900080EA8093D80089B5806189BD89B582604D
:1039A00089BD09B400FEFDCF61E070E080E090E0E9
:1039B0000E94BF088091D8008F7C80618093D800DE
:1039C0008091E000807F8093E0008091E1008E7E16
:1039D0008093E1008DE08093E200559A209A81EC7B
:1039E00080937C0085B1806F85B984B1877E84B96E
:1039F00084B1876E84B95E9A5F988AB1806D8AB906
:103A0000769A6E9881B3806F81BB899880B38D70F0
:103A100080BB80E58CBD81E08DBD85E090E00E949B
:103A20008F0B5F9A85E090E00E948F0B5E985C9808
:103A3000EAE6F7E084918EBD00000DB407FEFDCFED
:103A4000319627E0E737F207A9F75C9A81E880937F
:103A50006400809165008160809365000E94C50BC1
:103A600080E80E94BA0B8823A9F05C9885EA8EBD95
:103A700000000DB407FEFDCF5C9A2E982F982D986C
:103A80008091640080628093640081E083BF8895A8
:103A900013BEFCCF84E00E94BA0B882309F448C00F
:103AA0002D9884E80E94BA0B8823E1F00E948D0BC8
:103AB00088EC90E00E948F0B2F9882E090E00E94AB
:103AC0006C2D8F3F29F06FEF82E090E00E94742D03
:103AD00084EF91E00E948F0B2F9A84E80E94BA0B2A
:103AE0008111FBCF84E10E94BA0B8823E1F00E9490
:103AF0008D0B88EC90E00E948F0B2E9882E090E076
:103B00000E946C2D882329F060E082E090E00E9402
:103B1000742D84EF91E00E948F0B2E9A84E10E9415
:103B2000BA0B8111FBCF88EC90E00E948F0BB2CFD3
:103B30000E948D0B82E090E00E94C318882309F454
:103B400071C13E9A3F9A81E090E00E94C318382FDD
:103B50003470532E81FF14C031112E9801EF1FEFE6
:103B600068E0A62EB12C7CE6E72EF12C80E40E94C2
:103B7000BA0B882309F459C12E9A2F9A0E948D0BF3
:103B800082E390E00E948F0B0E94940B8111F8CF8A
:103B900080E1809300010E949C0B6AE871E08DED4A
:103BA00099E00E94371844E061E070E083E490E01F
:103BB0000E948D0544E066E070E083E490E00E949E
:103BC0008D0546E061E070E083E490E00E946A0CBD
:103BD00046E061E070E086E490E00E946A0C69EAE9
:103BE00071E08DED99E00E94371843E06BE070E0E2
:103BF00089E390E00E94900CE7E7F7E00491E8E7A2
:103C0000F7E0E490BAEFCB2E30E020E049E757E050
:103C100060E170E090E080E00E94A40989E6809372
:103C2000E2098093E10989E18093E30965EC71E0A1
:103C30008DED99E00E94371844E06CE170E08AE570
:103C400090E00E94900C2CE130E046E650E06CE100
:103C500070E081E690E00E94E60B80E68093E20946
:103C60008093E10983E28093E3096BEC71E08DEDD1
:103C700099E00E94371844E066E270E080E590E049
:103C80000E94900C26E230E04DE550E066E270E0E4
:103C900088E590E00E94E60B8DE28093E209809334
:103CA000E10981E38093E30962ED71E08DED99E034
:103CB0000E94371824E330E049E250E064E370E00A
:103CC00084E290E00E94E60B84E28093E209809314
:103CD000E10989E38093E30967EE71E08DED99E0F6
:103CE0000E9437182CE330E040E250E06CE370E0D3
:103CF0008BE190E00E94E60B07E010E047E060E314
:103D000070E0C8010E946A0C0F5F1F4F0E30110552
:103D1000A9F7A3E3EA2EF12C00E110E026E330E05E
:103D20004DE050E060E370E08DE090E00E94C4055B
:103D300047E069E370E0C8010E946A0C0F5F1F4F03
:103D400007311105A9F7F6E3EF2EF12C03E110E09E
:103D500029E330E046E150E069E370E080E190E083
:103D60000E94C40509E110E047E060E370E0C8018B
:103D70000E946A0C0F5F1F4F00321105A9F7E3E3A1
:103D8000EE2EF12C06E110E026E330E049E150E0B0
:103D900060E370E089E190E00E94C4050E94C50BD9
:103DA0000E94B10B0E94940B8823D1F30E949A08C1
:103DB000611571058105910511F00E94632D0E9426
:103DC000C9150E94AD110E94D51210923B021092AB
:103DD0003A020E94D60D0E949D0D10923708109253
:103DE0004A0810925D0810927008109283080E9491
:103DF0009A088FB7F89440915F02509160026091E9
:103E00006102709162028FBF80913802882309F4A9
:103E1000D6C01092380280E090E0892B41F30E94D6
:103E20000000E5CF3E983F988ECE552029F0043013
:103E3000110511F42E9A2F9881E00E94290798010C
:103E400017FF04C022273327201B310B277033278D
:103E5000C80117FD079653E0959587955A95E1F7A8
:103E600017FF05C00197A501421B530B9A01BC0126
:103E70007695762F66277795679563587D4FB0E0E6
:103E8000A0E01501221A330A8E3F5FEF950709F46F
:103E900046C048E550E0FD01EE5EF84F4F013B01A2
:103EA000F0E86F0E711C8F3F9807C9F0F401E41B16
:103EB000F50B44906701C41AD50AC60ED71EE42D2F
:103EC000F0E0022E02C0EE0FFF1F0A94E2F7FAA301
:103ED000E9A3F6014080F9A14F2AF601408221159D
:103EE0003105C9F0F401E41BF50B44906701C41AD5
:103EF000D50AC60CD71CE42DF0E0022C02C0F595C3
:103F0000E7950A94E2F7FAA3E9A3F6014080F9A144
:103F10004F2AF60140824150510909F0C4CF019661
:103F2000A85ABF4F60587F4FA03BB10509F0ACCFF6
:103F30000E94C50B8FE090E00E948F0B0F5F1F4F18
:103F40000931110509F012CE552011F02F9A2D9844
:103F500080E991E00E948F0B0E948D0B81E090E040
:103F60000E94C31880FF0CCE8AE090E00E94C31824
:103F70009FEF980F9E3F08F003CE22E330E030938E
:103F80003F0220933E0228E330E030933D0220932D
:103F90003C020BE010E0682F87EE99E00E941F0DB5
:103FA000C8010E94C3180F5F1F4F0131110599F717
:103FB0000E94C50B88EE93E00E948F0BE1CD8091AB
:103FC0003902F42FF81B8F2F90910001F91748F454
:103FD0008F5F891708F01FCF81E083BF889513BEDC
:103FE0001ACF81E0809338024093390280913602E3
:103FF00090913702019690933702809336020E9487
:104000009A080E94B10B0E949A080E949A080E9486
:104010009C0B0E949A0880915C0290915D029C0129
:104020002F5F3F4F23963FAF2EAF239730935D0214
:1040300020935C020E949A0880E20E94BA0B8823B7
:10404000B1F02DEC3CEC4CEC5DE3609158027091CA
:10405000590280915A0290915B020E94E52D609373
:1040600058027093590280935A0290935B0280E445
:104070000E94BA0B8823B1F02DEC3CEC4CEC5DE3D4
:10408000609158027091590280915A0290915B029E
:104090000E94E62D609358027093590280935A0251
:1040A00090935B0288E00E94BA0B882309F458C001
:1040B0000091030110910401101611060CF050C07C
:1040C0008090500290905102A0905202B090530202
:1040D0002BED3FE049EC5FE360915802709159028B
:1040E00080915A0290915B020E94E52D6B017C0148
:1040F0000E94C92E2AE037ED43EA5CE30E949B3020
:104100009B01AC016091540270915502809156025E
:10411000909157020E94E62D6093540270935502CD
:104120008093560290935702C701B6010E9408314E
:104130002AE037ED43EA5CE30E949B30A50194013D
:104140000E94E62D609350027093510280935202B8
:10415000909353020051110910930401009303013D
:104160000E949A080E949A0880914C0290914D02F8
:10417000A0914E02B0914F0289A39AA3ABA3BCA316
:1041800060917F067091800668537F4F072E000C68
:10419000880B990B0E94782F29A13AA14BA15CA111
:1041A0000E94E52D4B015C012091480230914902AB
:1041B00040914A0250914B022DA33EA34FA358A712
:1041C00060917D0670917E0668537F4F072E000C2C
:1041D000880B990B0E94782F2DA13EA14FA158A5C5
:1041E0000E94E52D6B017C01A5019401C501B4017C
:1041F0000E949B302B013C01A7019601C701B6012B
:104200000E949B309B01AC01C301B2010E94E62DCC
:104210000E9416312B013C0120E030E0A9010E94F0
:104220008E30181684F4A3019201C501B4010E94D6
:10423000CE2E4B015C01A3019201C701B6010E9481
:10424000CE2E6B017C012AE037ED43EA5BE3C5012A
:10425000B4010E949B30209154023091550240914C
:104260005602509157020E94E62D69A77AA78BA7A4
:104270009CA72AE037ED43EA5BE3C701B6010E9441
:104280009B30209150023091510240915202509146
:1042900053020E94E62D2B013C010E949A080E94C5
:1042A0009A0829A53AA54BA55CA569A17AA18BA17D
:1042B0009CA10E94E62D4B015C0180924C029092E1
:1042C0004D02A0924E02B0924F02A30192016DA145
:1042D0007EA18FA198A50E94E62D6B017C01C09262
:1042E0004802D0924902E0924A02F0924B0224E640
:1042F0003BE34FE75FE369A57AA58BA59CA50E94E8
:104300009B306093540270935502809356029093B1
:10431000570224E63BE34FE75FE3C301B2010E948B
:104320009B3060935002709351028093520290939D
:1043300053020E949A080E949A0820E030E0A901E6
:10434000C501B4010E94C42E87FF08C010924C0220
:1043500010924D0210924E0210924F0220E030E077
:1043600048EC53E460914C0270914D0280914E02F2
:1043700090914F020E948E30181664F480E090E015
:10438000A8ECB3E480934C0290934D02A0934E02AC
:10439000B0934F0220E030E0A901C701B6010E94AE
:1043A000C42E87FF08C01092480210924902109252
:1043B0004A0210924B0220E030E048EC53E4609156
:1043C00048027091490280914A0290914B020E94EA
:1043D0008E30181664F480E090E0A8ECB3E480938B
:1043E000480290934902A0934A02B0934B020E9464
:1043F0009A080E949A0880914C0290914D02A091D7
:104400004E02B0914F028DA39EA3AFA3B8A720E0A8
:1044100030E040E852E4BC01CD010E94E52D4B01A3
:104420005C018092890690928A06A0928B06B092D7
:104430008C06209148023091490240914A025091E5
:104440004B0229A73AA74BA75CA720E030E040E049
:1044500052E469A57AA58BA59CA50E94E52D6B0168
:104460007C01C0928506D0928606E0928706F09283
:10447000880620E030E0A901C501B4010E94C42EE5
:1044800087FF08C01092890610928A0610928B0648
:1044900010928C0620E030E048E853E460918906F1
:1044A00070918A0680918B0690918C060E948E30C6
:1044B000181664F480E090E0A8E8B3E480938906DD
:1044C00090938A06A0938B06B0938C0620E030E090
:1044D000A901C701B6010E94C42E87FF08C010922F
:1044E000850610928606109287061092880620E0B4
:1044F00030E048EA53E46091850670918606809129
:104500008706909188060E948E30181664F480E029
:1045100090E0A8EAB3E48093850690938606A09382
:104520008706B09388060E949A088091450282FD12
:1045300050C08091440282FF4CC00E949A08E7E379
:10454000F8E050E040E020812111E4C2609158027F
:104550007091590280915A0290915B0223E1249F4D
:104560008001259F100D1124095C174F21E0D8010F
:104570002C932DA13EA14FA158A511962D933D93AB
:104580004D935C93149729A53AA54BA55CA5159668
:104590002D933D934D935C9318972BED3FE049ECA1
:1045A0005FE30E94E52D6B017C010E94C92EF8019A
:1045B0006187728783879487C701B6010E9408319B
:1045C000D8011D966D937D938D939C9350970E9477
:1045D0009A080E949A08E7E3F8E0FAAFE9AF6F01A2
:1045E000D6018C91882309F430C151968D919C910C
:1045F0005297019652969C938E93519719962D91AE
:104600003D914D915C911C9711966D917D918D918D
:104610009C9114970E94E62DF60161837283838337
:104620009483258536854785508965817681878184
:1046300090850E94E62DD60115966D937D938D93FE
:104640009C9318977DE8272E76E0372E0E949A08D3
:104650006093400270934102809342029093430220
:10466000F601E580F6800781108521813281438142
:104670005481D1019A968D919D910D90BC91A02D60
:1046800089A39AA3ABA3BCA3D10196968D919D91CA
:104690000D90BC91A02D8DA79EA7AFA7B8ABD1015F
:1046A00092968D919D910D90BC91A02D89AB9AAB66
:1046B000ABABBCABD1015E968D919D910D90BC9141
:1046C000A02D8DAB9EABAFABB8AFD1015A968D91FB
:1046D0009D910D90BC91A02D29968CAF9DAFAEAF52
:1046E000BFAF2997F10186889788A08CB18C42884A
:1046F00053886488758886859785A089B189898360
:104700009A83AB83BC834D825E826F827886898672
:104710009A86AB86BC8629968CAD9DADAEADBFADFD
:1047200029978D879E87AF87B88B8DA99EA9AFA942
:10473000B8AD898B9A8BAB8BBC8B89A99AA9ABA995
:10474000BCA98D8B9E8BAF8BB88F8DA59EA5AFA579
:10475000B8A9898F9A8FAB8FBC8F89A19AA1ABA181
:10476000BCA18D8F9E8FAF8FB8A3BE016F5F7F4FAF
:1047700084E090E00E94510E882319F18091460256
:104780009091470286509F4F909347028093460234
:10479000D6011C92809173079091740701979093B2
:1047A000740780937307BEE2B89FF001B99FF00DC4
:1047B0001124E357F94FD1018EE201900D928A95B1
:1047C000E1F70E949A08EEE22E0E311CF3E72F1655
:1047D000F7E03F0609F03ACFD60111968D909D90F3
:1047E000AD90BC90149720E030E0A901C501B40160
:1047F0000E94C42E87FD23C020E030E048EC53E443
:10480000C501B4010E948E301816CCF0F6018580E7
:104810009680A780B08420E030E0A901C501B401F2
:104820000E94C42E87FD0BC020E030E048EC53E42A
:10483000C501B4010E948E3018160CF073C1D60168
:104840001C9252961C921E925197B3E1CB0ED11C32
:10485000E6E9CE16E8E0DE0609F0C2CE0E949A082C
:1048600080E10E94BA0B882309F494C10E949A083F
:1048700080910301909104018197909304018093AA
:104880000301181619060CF083C18090580290900D
:104890005902A0905A02B0905B02C501B4010E9477
:1048A000C92E6B017C01C501B4010E94083169A3C6
:1048B0007AA38BA39CA320E030E048EC51E40E9453
:1048C0009B306DA77EA78FA798AB20E030E040E734
:1048D00051ECC701B6010E949B302DA53EA54FA506
:1048E00058A90E94E52D2DA13EA14FA158A50E94D7
:1048F000E62D6DAB7EAB8FAB98AF20E030E048EC9F
:1049000051E4C701B6010E949B3069AB7AAB8BAB17
:104910009CAB20E030E040E751EC69A17AA18BA18B
:104920009CA10E949B3029A93AA94BA95CA90E948D
:10493000E62D29A53AA54BA55CA50E94E62D21965A
:104940006CAF7DAF8EAF9FAF219720E030E0A90123
:10495000C701B6010E949B304B015C0120E030E0B2
:10496000A90169A17AA18BA19CA10E949B302B0176
:104970003C01AC019B01C501B4010E94E52D2DA1B4
:104980003EA14FA158A50E94E62D29966CAF7DAFA0
:104990008EAF9FAF2997A3019201C501B4010E9478
:1049A000E62D29A53AA54BA55CA50E94E62D2B0175
:1049B0003C0120E030E040E751E4C701B6010E942D
:1049C0009B302DA53EA54FA558A90E94E52D2DA1F0
:1049D0003EA14FA158A50E94E62D4B015C0120E0AD
:1049E00030E040E751E469A17AA18BA19CA10E942B
:1049F0009B3029A93AA94BA95CA90E94E62D29A5BB
:104A00003AA54BA55CA50E94E62D6DA77EA78FA7B2
:104A100098AB312C212CC0907507D09076072C14C0
:104A20003D040CF0B5C0FEE0F29DC001F39D900D79
:104A300011249C012D54364F3AA329A3D901149671
:104A4000ED90FD900D911C9117972D913D914D91F9
:104A50005C918DA99EA9AFA9B8AD89839A83AB83D8
:104A6000BC8321968CAD9DADAEADBFAD21978D833E
:104A70009E83AF83B88729968CAD9DADAEADBFAD9B
:104A8000299789879A87AB87BC874D865E866F8614
:104A9000788A898A9A8AAB8ABC8A8DA59EA5AFA599
:104AA000B8A98D8B9E8BAF8BB88FBE016F5F7F4F88
:104AB00083E090E00E94510E882309F465C0809144
:104AC0000301909104018C53964F909304018093BD
:104AD000030180914602909147028C599F4F909319
:104AE00047028093460291E0C91AD108AEE0AC9D1E
:104AF000F001AD9DF00D1124ED54F64F8EE0A9A10B
:104B0000BAA101900D928A95E1F7D0927607C092F2
:104B1000750781CF4F5F5F4F73964530510509F0A0
:104B200012CD55CDF60161897289072E000C880BD4
:104B3000990B0E94782F20E030E040EF52E40E9471
:104B40008E3018160CF47BCE0E949A0860934002B7
:104B5000709341028093420290934302F6012581B3
:104B600036814781508561817281838194810E9461
:104B7000DE04882331F0D6011C9252961C921E92BC
:104B800051970E949A0861CEBFEF2B1A3B0A43CF80
:104B90000E949A080E949A08E0917307F0917407A6
:104BA000FEABEDAB2DE836E03AA329A389011EA6A2
:104BB0001DA64DA95EA98DA59EA5841795070CF08D
:104BC000F9C0D8011C968D919C911D9701971816DC
:104BD00019060CF4EAC0EAE5F0E01D96FC93EE93AA
:104BE0001C9714962D913D914D915C91179729AB8F
:104BF0003AAB4BAB5CABCD90DD90ED90FC902DA132
:104C00003EA14FA158A5C701B6010E94E52D2B0179
:104C10003C0129A53AA54BA55CA569A97AA98BA950
:104C20009CA90E94E52D4B015C01A3019201C301E7
:104C3000B2010E949B302B013C01A5019401C501EA
:104C4000B4010E949B309B01AC01C301B2010E94E0
:104C5000E62D20E030E041E655E40E94C42E18160F
:104C60000CF491C02396EEADFFAD2397E53BF10523
:104C70000CF489C0E6E9F8E0312C212C8081811107
:104C80008AC023E1229DF001239DF00D1124EA56F4
:104C9000F74F31E03083C182D282E382F48289A966
:104CA0009AA9ABA9BCA985839683A783B087A701DE
:104CB00096016DA17EA18FA198A50E94E52D4B01C3
:104CC0005C0129A93AA94BA95CA969A57AA58BA57C
:104CD0009CA50E94E52D2B013C01A5019401C50175
:104CE000B4010E949B306B017C01A3019201C301BE
:104CF000B2010E949B309B01AC01C701B6010E942A
:104D0000E62D0E9416316B017C012FE632E143E86B
:104D10005AE30E94C42E87FF08C06FE6C62E62E1E8
:104D2000D62E63E8E62E6AE3F62EA3E1A29DC0012B
:104D3000A39D900D1124FC01EA56F74F1F01A70116
:104D40009601C501B4010E94CE2E20E030E040E083
:104D50005FE30E949B30D10119966D937D938D93F3
:104D60009C931C97A7019601C301B2010E94CE2E0D
:104D700020E030E040E05FE30E949B30F101658776
:104D800076878787908BEDA5FEA53196FEA7EDA7C8
:104D9000025D1F4F0ECF2FEF221A320A73963FE0AB
:104DA0002316310409F06ACFEECF1D969C938E93A3
:104DB0001C97E9CF0E949A080E949A0856E9252E6E
:104DC00058E0352E8101D8018C91882309F47AC0EE
:104DD00019962D913D914D915C911C9711966D9175
:104DE0007D918D919C9114970E94E62DF80161832D
:104DF00072838383948325853685478550896581B1
:104E00007681878190850E94E62DD80115966D9355
:104E10007D938D939C9318970E949A08609340020B
:104E2000709341028093420290934302F8012581DE
:104E300036814781508561817281838194810E948E
:104E4000DE04882331F0D8011C9252961C921E92E7
:104E500051970E949A08F801C180D280E380F480C3
:104E600020E030E0A901C701B6010E94C42E87FDF1
:104E700025C020E030E048EC53E4C701B6010E94B1
:104E80008E301816DCF0D8011596CD90DD90ED909F
:104E9000FC90189720E030E0A901C701B6010E94FC
:104EA000C42E87FD0BC020E030E048EC53E4C7017E
:104EB000B6010E948E3018160CF036C1F80110822F
:104EC000128A118A0D5E1F4F23EB39E0201731073C
:104ED00009F079CF0E949A080E949A081AA619A68A
:104EE0008090890690908A06A0908B06B0908C06E0
:104EF000C0908506D0908606E0908706F0908806E0
:104F0000809173079091740749A55AA548175907CE
:104F10000CF061C1A9A1BAA18D919D910D90BC9198
:104F2000A02D8DA39EA3AFA3B8A7A5019401BC019A
:104F3000CD010E94E52D4B015C01E9A1FAA144805D
:104F4000558066807780A7019601C301B2010E9457
:104F5000E52D6B017C01A9A1BAA11E962D913D9171
:104F60004D915C915197C501B4010E94E62D2DA190
:104F70003EA14FA158A50E94E52D0E94402F6DA78C
:104F80007EA78FA798ABE9A1FAA12289338944892A
:104F90005589C701B6010E94E62DA30192010E9426
:104FA000E52D0E94402F69AB7AAB8BAB9CABA9A1DE
:104FB000BAA156962D913D914D915C915997C5019D
:104FC000B4010E94E62D2DA13EA14FA158A50E943B
:104FD000E52D0E94402F25966CAF7DAF8EAF9FAF21
:104FE0002597E9A1FAA1228D338D448D558DC701F6
:104FF000B6010E94E62DA30192010E94E52D0E94B8
:10500000402F6DAB7EAB8FAB98AFA9A1BAA15E96D6
:105010002D913D914D915C919197C501B4010E94F4
:10502000E62D2DA13EA14FA158A50E94E52D0E947D
:10503000402F21966CAF7DAF8EAF9FAF2197E9A136
:10504000FAA122A133A144A155A1C701B6010E9432
:10505000E62DA30192010E94E52D0E94402F299682
:105060006CAF7DAF8EAF9FAF2997A9A1BAA19696DD
:105070002D913D914D915C919997C501B4010E948C
:10508000E62D2DA13EA14FA158A50E94E52D0E941D
:10509000402F4B01E9A1FAA122A533A544A555A5AE
:1050A000C701B6010E94E62DA30192010E94E52DE1
:1050B0000E94402F6B012DA93EA923964EAD5FADF6
:1050C000239769A97AA98DA59EA50E94E60B27962C
:1050D0002EAD3FAD27974DAD5EAD6DA97EA9239650
:1050E0008EAD9FAD23970E94E60B9601A4012796F3
:1050F0006EAD7FAD27978DAD9EAD0E94E60B29A9C1
:105100003AA94DA55EA5B601C4010E94E60B29A5EA
:105110003AA52F5F3F4F3AA729A749A15AA1425D5F
:105120005F4F5AA349A3DCCED80151968D919C9133
:105130005297893791052CF01C9252961C921E9220
:10514000519780E10E94BA0B8111BCCE20914C0294
:1051500030914D0240914E0250914F02F801618111
:105160007281838194810E94E52D4B015C01209125
:1051700048023091490240914A0250914B02D801B5
:1051800015966D917D918D919C9118970E94E52DBA
:105190006B017C01A5019401C501B4010E949B3003
:1051A0004B015C01A7019601C701B6010E949B302B
:1051B0009B01AC01C501B4010E94E62D20E030E066
:1051C00040E151E40E94C42E87FF7CCE0E944B1820
:1051D000F801108277CE0E949A080E949A08D101A5
:1051E0008C918823E9F0A701960115966D917D9128
:1051F0008D919C9118970E94E52D0E94402F2B01C4
:10520000A5019401F10161817281838194810E94E1
:10521000E52D0E94402FCB0141E0B2010E94900C8D
:10522000F3E12F0E311C02151305C9F60E949A08EE
:105230000E949A0820E030E048E453E46091770748
:10524000709178078091790790917A070E94E62DF6
:10525000A50194010E94E52D0E94402F2B0120E022
:1052600030E048E453E460917B0770917C078091C3
:105270007D0790917E070E94E62DA70196010E946E
:10528000E52D0E94402F3B0107E717E020E030E0CA
:1052900048E453E4D80118966D917D918D919C91CD
:1052A0001B970E94E62DA50194010E94E52D0E9406
:1052B000402F69A37AA38BA39CA320E030E048E4AD
:1052C00053E4F80164857585868597850E94E62DEF
:1052D000A70196010E94E52D0E94402F6DA37EA399
:1052E0008FA398A72DA13EA149A15AA1B301C20144
:1052F0000E94E60B085F1F4F49A05AA06DA07EA038
:10530000F7E00F3D1F0711F620E030E048E453E4DA
:1053100060917B0770917C0780917D0790917E075B
:105320000E94E62DA70196010E94E52D0E94402FC4
:105330002B0120E030E048E453E46091770770915E
:1053400078078091790790917A070E94E62DA50150
:1053500094010E94E52D0E94402F9201AB016DA1A6
:105360007EA189A19AA10E94E60B0E949A080E9440
:105370009A0843EB242E49E0342E10E000E080919F
:105380007507909176070817190724F5A70196016C
:10539000D10114966D917D918D919C9117970E94EA
:1053A000E52D0E94402F2B01A5019401F1016081A0
:1053B0007181828193810E94E52D0E94402FCB0153
:1053C00043E0B2010E94900C0F5F1F4FFEE02F0ED2
:1053D000311CD5CF0E949A080E949A08A9ADBAAD97
:1053E0008C918823F1F0A701960115966D917D911E
:1053F0008D919C9118970E94E52D0E94402F2B01C2
:10540000A5019401E9ADFAAD618172818381948136
:105410000E94E52D0E94402FCB0141E0B2010E9485
:10542000900C29AD3AAD2D5E3F4F3AAF29AF2659CA
:105430003840A1F60E949A0880914C0290914D024A
:10544000A0914E02B0914F0289AF9AAFABAFBCAF03
:10545000A5019401BC01CD010E94E52D69A37AA3A9
:105460008BA39CA3209148023091490240914A02AB
:1054700050914B022DA73EA74FA758ABA70196010D
:105480006DA57EA58FA598A90E94E52D2B013C0155
:105490000E949A088091580290915902A0915A0254
:1054A000B0915B028DA39EA3AFA3B8A71F9232E079
:1054B000332E3F921F923F921F923F928FEF8F9316
:1054C0009EEF9F938F938CEF8F93912C812CADA0A7
:1054D000BEA0CFA0D8A48301720129A13AA14BA1FB
:1054E0005CA167E070E080E00E94D90F88E00E9434
:1054F000BA0B0FB6F894DEBF0FBECDBF882349F1BB
:1055000080910301909104011816190614F51F9259
:1055100083E08F931F923F921F9297E09F931F9279
:105520001F921F928F932EEF822E99249A94ADA0F2
:10553000BEA0CFA0D8A429A13AA14BA15CA163E051
:1055400070E081E00E94D90F0FB6F894DEBF0FBE65
:10555000CDBF80E10E94BA0B882309F438C1809145
:10556000030190910401181619060CF030C11F9226
:1055700089E18F931F929FE09F931F921F921F922A
:105580001F921F928F9391EF892E99249A94ADA028
:10559000BEA0CFA0D8A48301720129A13AA14BA13A
:1055A0005CA163E070E080E00E94D90F6DA17EA154
:1055B0008FA198A50E94C92E69A77AA78BA79CA73F
:1055C0006DA17EA18FA198A50E9408314B015C01BD
:1055D00020E030E040EC50EC69A57AA58BA59CA5B5
:1055E0000E949B306B017C0120E030E040EC50ECED
:1055F000C501B4010E949B306DA37EA38FA398A721
:1056000020E030E040EC50E469A57AA58BA59CA58C
:105610000E949B3069A77AA78BA79CA720E030E067
:1056200040EC50E4C501B4010E949B304B015C0189
:105630002DA13EA14FA158A5C701B6010E94E52D9D
:1056400029A13AA14BA15CA10E94E62D0E94402F06
:1056500069AB7AAB8BAB9CAB2DA13EA14FA158A5FA
:10566000C701B6010E94E62DA30192010E94E62D1A
:105670000E94402F25966CAF7DAF8EAF9FAF2597D0
:105680002DA13EA14FA158A569A57AA58BA59CA5E2
:105690000E94E52D29A13AA14BA15CA10E94E62D13
:1056A0000E94402F6DAB7EAB8FAB98AFA5019401EC
:1056B000C701B6010E94E62DA30192010E94E62DCA
:1056C0000E94402F21966CAF7DAF8EAF9FAF219788
:1056D000A501940169A57AA58BA59CA50E94E52D3D
:1056E00029A13AA14BA15CA10E94E62D0E94402F66
:1056F00029966CAF7DAF8EAF9FAF2997A50194011E
:1057000069A57AA58BA59CA50E94E62DA30192010F
:105710000E94E62D0E94402F2D966CAF7DAF8EAF7C
:105720009FAF2D97A5019401C701B6010E94E52DF9
:1057300029A13AA14BA15CA10E94E62D0E94402F15
:105740006B0129A53AA54BA55CA56DA17EA18FA1F2
:1057500098A50E94E62DA30192010E94E62D0E94C9
:10576000402F4B012DAD3EAD4DA95EA923966EADE8
:105770007FAD239789A99AA90E94E60B2B962EAD9F
:105780003FAD2B9727964EAD5FAD27976DAD7EADA4
:105790008DA99EA90E94E60B9401A6012B966EADE1
:1057A0007FAD2B9727968EAD9FAD27970E94E60B76
:1057B00023962EAD3FAD239749A95AA9B401C6013E
:1057C0000E94E60B0FB6F894DEBF0FBECDBF0E945D
:1057D0009A080E949A082DA53EA54FA558A969AD23
:1057E0007AAD8BAD9CAD0E94DE04182F0E949A0802
:1057F000112351F08EEE98E00E94820D0E949A08CB
:105800000E944B180E949A08B12CA12C912C812C3B
:10581000809101019091020188169906C4F4E1EE8D
:10582000F8E00491E2EEF8E0E4908AEFC82E30E070
:1058300020E043EE58E070E060E0C5010E94A4095A
:10584000FFEF8F1A9F0A26E0A20EB11CE1CF44E2BF
:1058500050E050933F0240933E02609103017091EB
:105860000401161617060CF08EC0072E000C880BCC
:10587000990B4AE00E94B61788E590E090933F02AA
:1058800080933E0280914602909147020E941D182B
:1058900010923F0210923E020E949A080E94C50B8D
:1058A0000E949A080E949A08809173079091740749
:1058B000181619060CF463C080917507909176074D
:1058C000181619060CF45BC00E949C0B10923F0244
:1058D00010923E0210923D0210923C026FEF71E076
:1058E00087EE99E00E94371862E172E087EE99E056
:1058F0000E94371880914602909147020E941D181D
:105900000E94C50B68EE73E080E090E00E94BF0843
:1059100062E571E087EE99E00E94A7176EE671E0FC
:1059200087EE99E00E94371862E272E087EE99E014
:105930000E9437180E94C50B0E94B10B0E94940B65
:105940008823D1F30E949A0861157105810591059C
:1059500011F00E94632D0E94C9150E94AD110E9492
:10596000D51210923B0210923A020E94D60D10926C
:105970005D0210925C020E949D0D0E9457150E94CC
:105980009A080C940B1F88EE98E00E94820D74CF49
:105990008F929F92AF92BF92CF92DF92EF92FF923F
:1059A000CF93DF93EC01688179818A819B816115B6
:1059B00071058105910521F464E279ED8BE597E0AD
:1059C0002DE133EF41E050E00E94822D49015A0160
:1059D0009B01AC01A7EAB1E40E94A12D6B017C01FF
:1059E000ACEEB4EFA50194010E94AF2DC60ED71EF8
:1059F000E81EF91EF7FE06C081E0C81AD108E108CA
:105A000080E8F80AC882D982EA82FB82C701B6011F
:105A10009F77DF91CF91FF90EF90DF90CF90BF9075
:105A2000AF909F908F9008958F929F92AF92BF9268
:105A3000CF92DF92EF92FF9260911D0170911E0153
:105A400080911F01909120016115710581059105DB
:105A500021F464E279ED8BE597E02DE133EF41E04D
:105A600050E00E94822D49015A019B01AC01A7EA36
:105A7000B1E40E94A12D6B017C01ACEEB4EFA50155
:105A800094010E94AF2DC60ED71EE81EF91EF7FE28
:105A900006C081E0C81AD108E10880E8F80AC0927F
:105AA0001D01D0921E01E0921F01F0922001C7015A
:105AB000B6019F77FF90EF90DF90CF90BF90AF90AF
:105AC0009F908F90089560931D0170931E018093A5
:105AD0001F01909320010895F999FECF92BD81BDD9
