:100000000C94F9030C9421040C9421040C94210405
:100010000C9421040C9421040C9421040C942104CC
:100020000C9421040C9421040C940B0F0C947A0F63
:100030000C9421040C9421040C9421040C942104AC
:100040000C9421040C9421040C9421040C9421049C
:100050000C9421040C9421040C9421040C94C10EE2
:100060000C9421040C9421040C9421040C9421047C
:100070000C9421040C9421040C9421040C9421046C
:100080000C9421040C9421040C9421040C9421045C
:100090000C9421040C9421040C9421040C9421044C
:1000A0000C9421040C9421040C942104084AD73B9D
:1000B0003BCE016E84BCBFFDC12F3D6C74319ABD37
:1000C00056833DDA3D00C77F11BED9E4BB4C3E915B
:1000D0006BAAAABE000000803F05A84CCDB2D44E4A
:1000E000B93836A9020C50B9918688083CA6AAAA4C
:1000F0002ABE000000803F0003081F051F1F151BBC
:100100001F11111F110E1F15111F05011F111D1F9A
:10011000041F001F0010101F1F041B1F10101F06BC
:100120001F1F011F1F111F1F05071F311F1F051B49
:1001300017151D011F011F101F0F100F1F0C1F1B74
:10014000041B071C071915130C121E1F120C1E127C
:10015000120C121F0C1A14041F052E2A1E1F021C3B
:10016000001D00201D001F041A011F001E041E1E7A
:10017000021E1E121E3E120C0C123E1E020614120D
:100180000A020F121E101E0E100E1E081E1A041A4E
:100190002E281E1A12161F111F001F001D151711E1
:1001A000151F07041F17151D1F151D01011F1F1502
:1001B0001F17151F00170000100000000000003E70
:1001C0005B4F5B3E3E6B4F6B3E1C3E7C3E1C183CC7
:1001D0007E3C181C577D571C1C5E7F5E1C00183C23
:1001E0001800FFE7C3E7FF0018241800FFE7DBE76C
:1001F000FF30483A060E2629792926407F05050753
:10020000407F05253F5A3CE73C5A7F3E1C1C0808AE
:100210001C1C3E7F14227F22145F5F005F5F060973
:100220007F017F006689956A606060606094A2FFCC
:10023000A29408047E040810207E201008082A1CBE
:1002400008081C2A08081E101010100C1E0C1E0C8A
:1002500030383E3830060E3E0E060000000000002A
:10026000005F00000007000700147F147F14242A99
:100270007F2A12231308646236495620500008076B
:100280000300001C2241000041221C002A1C7F1C8C
:100290002A08083E0808008070300008080808088E
:1002A000000060600020100804023E5149453E00F5
:1002B000427F400072494949462141494D33181453
:1002C000127F1027454545393C4A494931412111A2
:1002D00009073649494936464949291E0000140094
:1002E00000004034000000081422411414141414B7
:1002F000004122140802015909063E415D594E7C15
:100300001211127C7F494949363E414141227F41C9
:1003100041413E7F494949417F090909013E414127
:1003200051737F0808087F00417F41002040413F12
:10033000017F081422417F404040407F021C027F21
:100340007F0408107F3E4141413E7F090909063E76
:100350004151215E7F091929462649494932030145
:100360007F01033F4040403F1F2040201F3F403857
:10037000403F631408146303047804036159494D32
:1003800043007F4141410204081020004141417F68
:1003900004020102044040404040000307080020DE
:1003A000545478407F2844443838444444283844DE
:1003B00044287F385454541800087E090218A4A415
:1003C0009C787F0804047800447D40002040403D34
:1003D000007F1028440000417F40007C04780478AE
:1003E0007C080404783844444438FC182424181841
:1003F000242418FC7C08040408485454542404049D
:100400003F44243C4040207C1C2040201C3C403089
:10041000403C44281028444C9090907C4464544CB8
:100420004400083641000000770000004136080013
:1004300002010204023C2623263C1EA1A161123ABD
:100440004040207A3854545559215555794121540A
:10045000547841215554784020545579400C1E520F
:1004600072123955555559395454545939555454B3
:10047000580000457C410002457D420001457C401A
:10048000F0292429F0F0282528F07C545545002037
:1004900054547C547C0A097F4932494949323248D4
:1004A000484832324A4848303A4141217A3A42403B
:1004B0002078009DA0A07D39444444393D4040400F
:1004C0003D3C24FF2424487E4943662B2FFC2F2BE0
:1004D000FF0929F620C0887E090320545479410081
:1004E00000447D413048484A32384040227A007A00
:1004F0000A0A727D0D19317D2629292F28262929DE
:10050000292630484D4020380808080808080808FF
:10051000382F10C8ACBA2F102834FA00007B000026
:1005200008142A142222142A14089500220095AADD
:10053000005500AAAA55AA55AA000000FF001010F5
:1005400010FF00141414FF001010FF00FF1010F033
:1005500010F0141414FC001414F700FF0000FF0046
:10056000FF1414F404FC141417101F10101F101F94
:100570001414141F00101010F0000000001F1010C1
:1005800010101F10101010F010000000FF101010BD
:10059000101010101010FF10000000FF140000FFDA
:1005A00000FF00001F10170000FC04F414141710C3
:1005B000171414F404F40000FF00F71414141414B6
:1005C0001414F700F7141414171410101F101F142C
:1005D0001414F4141010F010F000001F101F00008D
:1005E000001F14000000FC140000F010F01010FFB9
:1005F00010FF141414FF141010101F00000000F05E
:1006000010FFFFFFFFFFF0F0F0F0F0FFFFFF000032
:10061000000000FFFF0F0F0F0F0F38444438447CD9
:100620002A2A3E147E02020606027E027E026355DC
:100630004941633844443C04407E201E2006027E2B
:10064000020299A5E7A5991C2A492A1C4C7201723D
:100650004C304A4D4D303048784830BC625A463DA7
:100660003E494949007E0101017E2A2A2A2A2A445C
:10067000445F444440514A444040444A5140000091
:10068000FF0103E080FF000008086B6B083612369C
:100690002436060F090F060000181800000010107D
:1006A000003040FF0101001F01011E00191D17123B
:1006B000003C3C3C3C0000000000080B0002020231
:1006C00000000904000001020200000524001001DE
:1006D0000524010101042402060524060001070582
:1006E000810310004009040100020A000000070510
:1006F00002024000000705830240000004030904D1
:1007000012010002EF020140412336800001010284
:10071000030141726475696E6F204C4C4300417255
:100720006475626F7900F0F89C8E8783878E9CF8E1
:10073000F00000FEFF0303030303070EFCF80000B4
:10074000FEFF0303030303070EFCF80000FFFF0096
:10075000000000000000FFFF0000FEFF8383838392
:1007600083C7EE7C380000F8FC0E07030303070E76
:10077000FCF800003F7FE0C08080C0E07F3FFFFFCB
:1007800001010101010101FFFF0000FFFF0C0C0C42
:100790000C1C3E77E3C100007FFFC0C0C0C0C0E0BA
:1007A000703F1F00001F3F70E0C0C0C0E0703F1FDF
:1007B00000007FFFC1C1C1C1C1E3773E1C00001F23
:1007C0003F70E0C0C0C0E0703F1F000000000001AB
:1007D000FFFF01000000D5F08D14A1C881CFD9F131
:1007E000AF2000070605040100080A0B0C0D0900E4
:1007F000DF1111241FBECFEFDAE0DEBFCDBF11E065
:10080000A0E0B1E0E8EDF4E502C005900D92A63657
:10081000B107D9F727E0A6E6B1E001C01D92A039E3
:10082000B207E1F713E0C9EFD3E004C02197FE015E
:100830000E943F29C83FD107C9F70E9416120C94A5
:100840006A2A0C940000E4E0F3E0A0E0B8E0008045
:100850000EBC8111012C1197A0FDFDCF0192B9F7BB
:100860000DB40895FC0180910303882311F13FB773
:10087000F89482E08093E9002091F200822F90E0CA
:100880001816190614F481E090E0882339F02898AE
:1008900044E6409302034091F1004083222339F063
:1008A0002091F200211103C02BE62093E8003FBF06
:1008B00008958FEF9FEF08952FB7F89483E080930A
:1008C000E9009091E800892F807295FF04C0909113
:1008D000F20080E4891B2FBF08958091FA028111F4
:1008E0000DC082E08093F60284E08093F7021092BC
:1008F000F9021092F80281E08093FA0286EF92E00A
:1009000008953FB7F8948091F2029091F302A0917C
:10091000F402B091F50226B5A89B05C02F3F19F04F
:100920000196A11DB11D3FBFBA2FA92F982F88276F
:10093000BC01CD01620F711D811D911D42E0660F4A
:10094000771F881F991F4A95D1F708958F929F921C
:10095000AF92BF92CF92DF92EF92FF926B017C0138
:100960000E9481044B015C01C114D104E104F10433
:10097000B9F00E948104681979098A099B09683EC7
:1009800073408105910580F321E0C21AD108E10886
:10099000F10888EE880E83E0981EA11CB11CE4CFFC
:1009A000FF90EF90DF90CF90BF90AF909F908F908F
:1009B000089540916801509169012091660130913C
:1009C000670142175307B4F49091E8009570E1F382
:1009D0009091E80092FD19C08093F1008091680128
:1009E0009091690101968F739927892B19F48EEFE5
:1009F0008093E8008091680190916901019690933D
:100A000069018093680181E0089580E00895DF9294
:100A1000EF92FF920F931F93CF93DF93D82E8A010B
:100A2000EB017B01E40EF51ECE15DF0559F0D7FE74
:100A300012C0FE0184910E94D90421968111F4CF45
:100A40000FEF1FEFC801DF91CF911F910F91FF9022
:100A5000EF90DF9008958881EECF0F931F93CF938F
:100A6000DF931F92CDB7DEB782E0898342E450E086
:100A70006AEB76E080E80E9407050E946D04DC01C5
:100A800012960D911C910115110589F0D801ED9177
:100A9000FC910280F381E02DBE016F5F7F4FC801A2
:100AA000099597FD04C0F80100851185ECCF898177
:100AB0000F90DF91CF911F910F910895615030F009
:100AC0002091F100FC0120830196F8CF289884E65C
:100AD000809302030895AF92BF92CF92DF92EF927C
:100AE000FF920F931F93CF93DF936C017B018B01D8
:100AF000040F151FEB015E01AE18BF08C017D10728
:100B000059F06991D601ED91FC910190F081E02DB1
:100B1000C6010995892B79F7C501DF91CF911F9106
:100B20000F91FF90EF90DF90CF90BF90AF9008951E
:100B30008F929F92AF92BF92CF92DF92EF92FF92ED
:100B40000F931F93CF93DF936C017B018A018091F8
:100B50000B01882309F45CC080910303882309F406
:100B600057C080916C0180FF05C08091E0008260D9
:100B70008093E000E801B12C8AEFA82E93E0892E43
:100B80002AE3922E209711F4BB20D9F10E945C0435
:100B900081110AC0AA94AA20D9F161E070E080E036
:100BA00090E00E94A604EECF8C171D0611F00CF009
:100BB0008C2F9FB7F8948092E9002091E80025FDE2
:100BC00002C09FBFDFCF282F30E0C21BD30BF7013D
:100BD000815020F041914093F100FACFE20EF31ED4
:100BE000BB2021F09092E800B12CEBCF8091E8007F
:100BF00085FDE7CF9092E800BB24B394209709F3DA
:100C0000F3CF5D9884E680936B01101611063CF0DB
:100C100081E090E0F6019383828310E000E0C80158
:100C2000DF91CF911F910F91FF90EF90DF90CF90C8
:100C3000BF90AF909F908F900895CF93DF931F92B6
:100C4000CDB7DEB76983DC01ED91FC910280F381C1
:100C5000E02D41E050E0BE016F5F7F4F09950F909E
:100C6000DF91CF91089583E08093E9008091F200B5
:100C7000882319F08AE38093E80008950E945C04B9
:100C800090E00895CF93DF931F92CDB7DEB7FC01BC
:100C90008485958597FD08C02FEF3FEF3587248722
:100CA0000F90DF91CF910895CE0101960E943204FA
:100CB000019719F4898190E0F3CF8FEF9FEFF0CF88
:100CC0000F931F93CF93DF931F92CDB7DEB78C01A5
:100CD000FC018485958597FF0BC0CE0101960E948B
:100CE0003204019771F4898190E0F8019587848737
:100CF000F801848595850F90DF91CF911F910F9119
:100D000008958FEF9FEFF1CFFC018485958597FDC6
:100D10000BC09FB7F89482E08093E9008091F200C5
:100D20009FBF90E0019608959FB7F89482E080936A
:100D3000E9008091F2009FBF90E008954F925F928A
:100D40006F927F928F929F92AF92BF92CF92DF92DB
:100D5000EF92FF920F931F93CF93DF934C015901B2
:100D6000FC2DC02FD0E0CE01880D991D1816190654
:100D70000CF067C09B012E0D311D121613060CF0EE
:100D800060C0603471050CF05CC04115510509F478
:100D900058C0262F2770F22EDB0177FD179633E01F
:100DA000B595A7953A95E1F73A2F77FF04C0FF2054
:100DB00011F03FEF3A0F662777276819790997FCFA
:100DC00002C070E060E0803891050CF44BC090E800
:100DD0009819961BA32F032E000CBB0B1A2F1095EE
:100DE0003F3F0CF010E021E08E2D877009F420E0E9
:100DF000E694E694E694E20EAE0DB11D19971CF050
:100E000028E0E22EE31AE11A310F20E83203D00184
:100E10001124A80DB91DA60FB71F019F600D711DEC
:100E20001124460F571F0F2D0F2C000C110BF33000
:100E300009F41CC1C8F4F13009F4D0C0F23009F44F
:100E40007CC0DF91CF911F910F91FF90EF90DF90C9
:100E5000CF90BF90AF909F908F907F906F905F905A
:100E60004F900895902FB5CFFA3FB1F1232F2E0D5B
:100E7000FB3F39F7321729F3BD016C5F7C4FD12C52
:100E8000C12CC91608F0A4C0FA01EC0DFD1DE491B7
:100E9000F0E04F01002E02C0880C991C0A94E2F782
:100EA00037FD06C0FB018081E82CE0948E21808311
:100EB000FF2061F0373054F45B01F0E8AF0EB11C55
:100EC000E92CE094F50180818E218083FFEFCF1A19
:100ED000DF0A6F5F7F4FD5CF232F2E0D321709F416
:100EE000B0CFBD016C5F7C4FD12CC12CC91608F06E
:100EF00069C0FA01EC0DFD1DE491F0E04F01002EF8
:100F000002C0880C991C0A94E2F737FD04C0FB016B
:100F1000808188298083FF2051F0373044F45B01C1
:100F2000F0E8AF0EB11CF501808189298083FFEFC5
:100F3000CF1ADF0A6F5F7F4FD9CF6FEF70E00F2CB2
:100F400002C0660F771F0A94E2F760957095772EBE
:100F5000232F2E0D321709F474CFFD01EC5FFC4FE7
:100F60006F01B12CA12CA91638F5FA01EA0DFB1D71
:100F7000E491F0E02F01002E02C0440C551C0A94AD
:100F8000E2F737FD05C0F60180818623842980833E
:100F9000FF2059F037304CF44601F0E88F0E911CD9
:100FA000F4018081872185298083FFEFAF1ABF0A72
:100FB0008FEFC81AD80AD7CF3F5F4C0F5D1FA058DC
:100FC000BF4FC8CF3F5F4C0F5D1FA058BF4F86CFAC
:100FD0003F5F4C0F5D1FA058BF4F4CCF6A0D7B1D6C
:100FE000232F2E0D321709F42CCFFD01EC5FFC4F9F
:100FF0006F01B12CA12CA91688F5FB01EA0DFB1D90
:101000008490912C002E02C0880C991C0A94E2F75F
:1010100080949094FA01EA0DFB1D6490712C002ECF
:1010200002C0660C771C0A94E2F737FD05C0F60192
:101030008081882186298083FF2049F037303CF465
:10104000F601E058FF4F8081892187298083FFEFD7
:10105000AF1ABF0A8FEFC81AD80ACDCF3F5F4C0F27
:101060005D1F6C0F7D1FA058BF4FBCCFC92ED12C68
:10107000FA01E60FF71FAC5FBC4F00E810E00C1957
:101080001D09CC19DD09BE01660F771F41E050E054
:101090006A010F2C01C0CC0C0A94EAF7592F2E2DAF
:1010A000792ECF93DF93ED01EF96EF962296859000
:1010B000A590FF2059F08C9C4001AC9C500137302A
:1010C0002CF4E880B094EB20E928E99233233AF03D
:1010D000EC90A094EA20E828ED920C947008119608
:1010E0005A9529F72A9551F0572D33951124E60F7B
:1010F000F11DA00FB11DC00FD11DD9CFDF91CF9130
:1011000011249FCE2D9A0895BC0190E080E00C94AC
:10111000A6048FB18095807F669B88601C9B84604D
:10112000089580E0E4E0F3E081118FEF00248193E3
:101130008193819381930394D1F710926F01109260
:101140006E0110927501109274010895CF93C82F0B
:101150000E948908982F9C2381E09C1380E0CF9106
:10116000089580E00C94230480389105B8F460342D
:101170007105A0F420E191E061FD94E060FD990F1C
:1011800062FD9295687F269FD0011124A80FAC5F65
:10119000BC4F8C9140FF03C0892B8C930895909590
:1011A0008923FBCF2F923F924F925F926F927F9253
:1011B0008F929F92AF92BF92CF92DF92EF92FF9267
:1011C0000F931F93CF93DF93EC018B017A01690199
:1011D000C61AD70AD7FE03C0D194C194D1084701DB
:1011E0008C1A9D0A97FE03C09194819491088C14E7
:1011F0009D0454F49E2D8F2D7901292F382F9C2F7B
:101200008D2FE801092F182FEC16FD0654F4902FAE
:10121000812F8901292F382F9C2F8D2FE701E92E4F
:10122000F82E17012C1A3D0A2901401A510A57FEBF
:1012300003C0519441945108310137FE03C08FEF30
:10124000681A780A759467948FEF021713070CF4E5
:1012500081E0A82E880FBB08EC16FD06A4F041E043
:10126000BE01C8018C149D0414F0B801CE010E9487
:10127000B4086418750877FE04C00A0D1B1D620CC3
:10128000731C2196E9CFDF91CF911F910F91FF90B1
:10129000EF90DF90CF90BF90AF909F908F907F9016
:1012A0006F905F904F903F902F900895EF92FF9234
:1012B0000F931F93CF93DF937C018B01040F111DBC
:1012C000EB0177FF02C0D0E0C0E0C8010134110596
:1012D00014F080E490E0C817D9073CF441E0BE0167
:1012E000C7010E94B4082196F0CFDF91CF911F91E2
:1012F0000F91FF90EF9008958F929F92AF92BF92BF
:10130000CF92DF92EF92FF920F931F93CF93DF93D1
:101310006D3089F0C0906E01D0906F016A30D1F4C9
:10132000109275011092740188E0C80ED11CD09201
:101330006F01C0926E0181E090E0DF91CF911F912B
:101340000F91FF90EF90DF90CF90BF90AF909F9064
:101350008F9008950091740110917501E5E06E9FE2
:10136000E0011124C654DE4F4801F12CF5E0E12CD8
:10137000FF1629F0CE010196FE01E490EC01B12C9C
:10138000A12C4E2D4170B6016A0D7B1DC4010E9437
:10139000B408E694FFEFAF1ABF0A88E0A816B104BC
:1013A00081F7F394EFEF8E1A9E0AF6E0FF12DECF7C
:1013B0000A5F1F4F1093750100937401BCCFCF9249
:1013C000EF920F93CF93DF93EC018E816A3069F433
:1013D0009D819C836985860F8E8381E090E0DF91FB
:1013E000CF910F91EF90CF9008956A3378F46033E6
:1013F00008F051C0613209F450C09FE36E3291F0A1
:1014000098859D5F8C81890F8C83E7CF6134C0F311
:101410006B3530F09FE9960F9A3190F799EB01C048
:101420009FEB960F61E0680F062E000C770BAC81E6
:101430000A2E000CBB0BE8EFF0E029EF30E08F81C3
:10144000813069F50491F901E4904AEF50E0992365
:10145000D1F041E050E08E2D877011F450E040E073
:101460002E2D269526952695240F352F311D029F6A
:10147000F001039FF00D11249E9FA0019F9F500D2E
:10148000112446505F4F9AEFC92E30E020E0CD0185
:101490000E949E06B5CF94E0C4CF9EE3C3CF0491D3
:1014A000F901E4904AEF50E09923D1F041E050E097
:1014B0008E2D877011F450E040E02E2D2695269554
:1014C0002695240F352F311D029FF001039FF00D4B
:1014D00011249E9FA0019F9F500D112446505F4FE5
:1014E0008BEFC82ED2CF089590E080E008954F9200
:1014F0005F926F927F928F929F92AF92BF92CF92A4
:10150000DF92EF92FF920F931F93CF93DF93CDB7AC
:10151000DEB7A8970FB6F894DEBF0FBECDBF6D8BB8
:101520007E8B8F8B988F298F3A8F4B8F5C8FC80162
:10153000B70120E030E040E05FE30E942F286D8398
:101540007E838F8398872B013C0177FA709477F81C
:101550007094C601B5010E945D2669837A838B83EE
:101560009C83C601B5010E949C286B017C0120E090
:1015700030E040E050EC69817A818B819C810E944F
:101580002F286D8F7E8F8F8F98A3A7019601C3019F
:10159000B2010E942F2869877A878B879C8720E079
:1015A00030E040E050ECC701B6010E942F2869A34B
:1015B0007AA38BA39CA329813A814B815C81C301CF
:1015C000B2010E942F286D877E878F87988B298193
:1015D0003A814B815C81CA01B9010E947A252B01B5
:1015E0003C01A7019601C701B6010E947A25698BCB
:1015F0007A8B8B8B9C8BA70196016D817E818F816D
:1016000098850E942F286B017C0129813A814B81AA
:101610005C816D817E818F8198850E942F284B018E
:101620005C0129853A854B855C856D8D7E8D8F8D1E
:1016300098A10E9479252D893E894F89588D0E9455
:101640007A250E94D42669837A838B839C832D8597
:101650003E854F85588969A17AA18BA19CA10E94E2
:101660007A25298D3A8D4B8D5C8D0E947A250E94BA
:10167000D4266D837E838F83988729853A854B8511
:101680005C85C301B2010E9479252D893E894F896D
:10169000588D0E947A250E94D42669877A878B8785
:1016A0009C8729893A894B895C896D857E858F85E0
:1016B00098890E947A25298D3A8D4B8D5C8D0E94E8
:1016C0007A250E94D4266D877E878F87988BA70105
:1016D0009601C301B2010E9479252D893E894F8967
:1016E000588D0E947A250E94D4266DA37EA38FA3D5
:1016F00098A7A501940169897A898B899C890E94A0
:101700007A25298D3A8D4B8D5C8D0E947A250E9419
:10171000D426698B7A8B8B8B9C8BA70196016D8D60
:101720007E8D8F8D98A10E9479252D893E894F89C4
:10173000588D0E947A250E94D4266B01A501940140
:1017400069A17AA18BA19CA10E947A25298D3A8D4D
:101750004B8D5C8D0E947A250E94D4262B012D850D
:101760003E8549855A856D817E8189819A810E9455
:10177000D20829893A894DA15EA16D857E8589852A
:101780009A850E94D2089201A60169897A898DA161
:101790009EA10E94D2082D813E8149815A81B201C9
:1017A000C601A8960FB6F894DEBF0FBECDBFDF917D
:1017B000CF911F910F91FF90EF90DF90CF90BF904E
:1017C000AF909F908F907F906F905F904F900C9410
:1017D000D2082F923F924F925F926F927F928F9298
:1017E0009F92AF92BF92CF92DF92EF92FF920F93B0
:1017F0001F93CF93DF93CDB7DEB7A9970FB6F894B9
:10180000DEBF0FBECDBF898F498B5A8B6B8B7C8B14
:101810000D8B1E8B2F8B388F0EAD1FAD22962EACED
:101820003FAC229724962EAD3FAD24973A87298767
:1018300026968EAD9FAD26979E878D87C701B601F0
:101840000E945D262B013C01C701B6010E949C2825
:1018500069837A838B839C83B501BB0C880B990BBE
:101860000E940C276D837E838F839887B401990C27
:10187000880B990B0E940C276B017C01B801110F9A
:10188000880B990B0E940C276A8F7B8F8C8F9D8F02
:10189000B101330C880B990B0E940C276E8F7F8F40
:1018A00088A399A329853A85B901330F880B990B31
:1018B0000E940C2769877A878B879C872D853E85B8
:1018C000B901330F880B990B0E940C276D877E8717
:1018D0008F87988BA30192016D817E818F8198857E
:1018E0000E942F284B015C0129813A814B815C8148
:1018F000C701B6010E942F289B01AC01C501B401AC
:101900000E94792529893A894B895C890E947A2528
:101910000E94D4266AA37BA38CA39DA329813A812C
:101920004B815C816D817E818F8198850E942F28FB
:101930004B015C01A3019201C701B6010E942F284F
:101940009B01AC01C501B4010E947A252D893E8915
:101950004F89588D0E947A250E94D4266D837E83FC
:101960008F839887A30192016A8D7B8D8C8D9D8DCD
:101970000E942F286B017C0129813A814B815C8177
:101980006E8D7F8D88A199A10E942F289B01AC01AB
:10199000C701B6010E94792529893A894B895C895A
:1019A0000E947A250E94D4266EA37FA388A799A7B8
:1019B00029813A814B815C816A8D7B8D8C8D9D8DD7
:1019C0000E942F286B017C01A30192016E8D7F8DF7
:1019D00088A199A10E942F289B01AC01C701B601E3
:1019E0000E947A252D893E894F89588D0E947A253B
:1019F0000E94D4264B01A301920169857A858B85CB
:101A00009C850E942F286B017C0129813A814B81A2
:101A10005C816D857E858F8598890E942F289B012A
:101A2000AC01C701B6010E94792529893A894B8901
:101A30005C890E947A250E94D4266B0129813A8113
:101A40004B815C8169857A858B859C850E942F28D6
:101A500069837A838B839C83A30192016D857E8544
:101A60008F8598890E942F289B01AC0169817A811A
:101A70008B819C810E947A252D893E894F89588DC2
:101A80000E947A250E94D4262B01398D30FF09C08F
:101A900094014EA15FA16D817E818AA19BA10E94CC
:101AA000D208898D81FF07C09201A601B4018EA1E1
:101AB0009FA10E94D208998D92FF20C02D813E8166
:101AC0004AA15BA1B201C601A9960FB6F894DEBF88
:101AD0000FBECDBFDF91CF911F910F91FF90EF907F
:101AE000DF90CF90BF90AF909F908F907F906F903E
:101AF0005F904F903F902F900C94D208A9960FB60C
:101B0000F894DEBF0FBECDBFDF91CF911F910F9133
:101B1000FF90EF90DF90CF90BF90AF909F908F900D
:101B20007F906F905F904F903F902F900895FC01B1
:101B300001900020E9F73197AF01481B590BBC0118
:101B400088E897E00C946B058F929F92AF92BF92BA
:101B50000F931F93CF93DF93CDB7DEB7A1970FB647
:101B6000F894DEBF0FBECDBF19A2423008F44AE0A0
:101B70008E010F5D1F4F842E912CB12CA12CA5013D
:101B800094010E944825E62FB901CA01EA30F4F415
:101B9000E05DD801EE938D01232B242B252B79F7C3
:101BA00090E080E0109719F0CD010E94970DA1966A
:101BB0000FB6F894DEBF0FBECDBFDF91CF911F915E
:101BC0000F91BF90AF909F908F900895E95CE1CF07
:101BD000CF92DF92EF92FF92CF93DF936C01990F38
:101BE000EE08FF08F7FE19C06DE288E897E00E9452
:101BF0007C09EC0166277727CB016C197D098E09DA
:101C00009F094AE00E94A40D8C0F9D1FDF91CF9188
:101C1000FF90EF90DF90CF9008954AE0C701B601A2
:101C2000DF91CF91FF90EF90DF90CF900C94A40DB7
:101C3000CF92DF92EF92FF926B017C01C114D1042D
:101C4000E104F10441F00E94A824A70196010E943A
:101C500016256B017C01C701B601FF90EF90DF9064
:101C6000CF9008950F931F93CF93DF9380910D0131
:101C700090910E010197181619060CF051C090931F
:101C80000E0180930D0180E090E0A0E8B3E4809322
:101C9000D9029093DA02A093DB02B093DC02109297
:101CA000D5021092D6021092D7021092D80210924A
:101CB000E9021092EA021092EB021092EC021092EA
:101CC000E5021092E6021092E7021092E8021092EA
:101CD000E1021092E2021092E3021092E4021092EA
:101CE00078021092890210929A021092AB0210921E
:101CF000BC02C2E3D2E010E000E08091300290919B
:101D00003102081719076CF568E770E080E090E091
:101D10000E94180E7D876C870F5F1F4F2E96EDCFA8
:101D200083E090E090930E0180930D010E94910852
:101D30008AE090E090937501809374018EE190E0C9
:101D400090936F0180936E018CE491E00E94970D57
:101D50000E94B10868E873E180E090E00E94A60468
:101D600092CFE0E8F1E08AE292E0108271968E175D
:101D70009F07D9F7DF91CF911F910F9108950C9490
:101D800000251F920F920FB60F9211242F933F93AD
:101D90008F939F93AF93BF938091EE029091EF0248
:101DA000A091F002B091F1023091ED0223E0230FF7
:101DB0002D3758F50196A11DB11D2093ED0280939A
:101DC000EE029093EF02A093F002B093F1028091A3
:101DD000F2029091F302A091F402B091F502019603
:101DE000A11DB11D8093F2029093F302A093F4021F
:101DF000B093F502BF91AF919F918F913F912F9139
:101E00000F900FBE0F901F90189526E8230F029693
:101E1000A11DB11DD2CF1F920F920FB60F921124A8
:101E20008F939F938091E1009091E100937F909335
:101E3000E10083FF0FC01092E90091E09093EB0066
:101E40001092EC0092E39093ED001092030398E05F
:101E50009093F00082FF22C093E09093E90090916C
:101E6000F200992319F09AE39093E80090916B01A6
:101E7000992341F090916B01915090936B019111D6
:101E800001C05D9A90910203992341F09091020361
:101E9000915090930203911101C0289A84FF18C0B9
:101EA0008091E2008E7E81608093E2008091E1006B
:101EB0008F7E8093E10080916C018E7E80618093A3
:101EC0006C019F918F910F900FBE0F901F901895EE
:101ED00080FFF7CF8091E2008E7E80618093E200E8
:101EE0008091E1008E7E8093E10080916C018E7E76
:101EF0008160E5CF1F920F920FB60F921124CF92FF
:101F0000DF92EF92FF920F931F932F933F934F9384
:101F10005F936F937F938F939F93AF93BF93EF9351
:101F2000FF93CF93DF93CDB7DEB76C97DEBFCDBF06
:101F30001092E9008091E80083FF25C068E0CE019F
:101F400045960E945E0582EF8093E8008D8987FFA9
:101F500039C09091E80090FFFCCF982F907609F05F
:101F600034C19E894F89588D2F89F88C911131C0C9
:101F7000803861F580916D018093F1001092F1003D
:101F80008EEF8093E8006C960FB6F894DEBF0FBE1C
:101F9000CDBFDF91CF91FF91EF91BF91AF919F9115
:101FA0008F917F916F915F914F913F912F911F91F1
:101FB0000F91FF90EF90DF90CF900F900FBE0F909A
:101FC0001F9018959EEF9093E800C7CF1092F100F4
:101FD000D5CF913059F48111D3CF4130510581F6DD
:101FE00080916D018D7F80936D01CACF933049F44C
:101FF0008111C6CF4130510519F680916D01826083
:10200000F2CF953041F48091E80080FFFCCF20684A
:102010002093E300B5CF963009F0A9C00B8D1C8D3D
:1020200022E01092E9001092690110926801F21208
:102030002EC010926701109266010E942D051F822A
:1020400099E09983FA8291E09E8390EA98879AEFCB
:1020500099872091680130916901275F3F4F3C8348
:102060002B838D831092E900109269011092680110
:10207000109367010093660149E050E0BE016F5F75
:102080007F4F80E00E9407050E942D0579CF1093B5
:102090006701009366010E946D04DC0112960D91A8
:1020A0001C910115110509F451C1D801ED91FC9164
:1020B0000480F581E02DBE016B5E7F4FC80109955C
:1020C000009709F03EC1F80100851185EACFF3E0E1
:1020D000FF120EC08F89882309F440C0823061F45A
:1020E00040E867E08EE197E00E94AC11811148CF93
:1020F00081E28093EB0047CF813029F440E86BE028
:1021000082E197E0F1CF833099F70E946D04DC0102
:102110001296ED90FC908E010F5F1F4F6801E11445
:10212000F10479F0D701ED91FC910680F781E02D63
:10213000B801C7010995080F111DF701E084F1846A
:10214000EECFD8011C92F60101900020E9F73197FB
:10215000BF016C197D0940E0C601C6CF6CEF76E087
:10216000FB01449150E080E80E94070509CF9730B9
:1021700009F4BECF983021F481E08093F10000CFC4
:10218000993009F0FDCE837009F0B2CFECE1F1E0B7
:1021900081E031E096E32191222371F08093E90000
:1021A0003093EB00DF0111972C912093EC0090937A
:1021B000ED008F5F873079F78EE78093EA00109209
:1021C000EA008F8980930303DBCE8B8D9C8D109268
:1021D000E900109269011092680190936701809361
:1021E0006601898D811192C08E899D89913A49F449
:1021F000813209F07DCF47E050E064E071E080E09B
:10220000B3CF913209F074CF833269F48F89988DFE
:10221000B0E0A0E08093000190930101A09302013F
:10222000B0930301ADCE803269F48091E80082FF63
:10223000FCCF67E084E091E00E945E058BEF809325
:10224000E8009ECE823209F09BCE8F8980930B01ED
:10225000EEEFFFE7859194918B3F9C4D51F1E0E0CB
:10226000F8E08091040190910501A0910601B091E0
:102270000701803B9440A105B105F1F480910B0169
:1022800080FD1AC0EE3F8AE0F80789F587E797E7F7
:10229000918380838091600080936A0188E19BE054
:1022A0000FB6F894A895809360000FBE90936000DD
:1022B00067CEEEEFFAE0D5CF8081918187379747DF
:1022C00009F05ECEA89580916000886180936000DF
:1022D00080916A0180936000EE3F2AE0F20789F066
:1022E0008091FE0A9091FF0A9183808349CE80817C
:1022F00091818737980751F29093FF0A8093FE0AE5
:10230000C5CF1092FF0A1092FE0A3ACE0E946D04C9
:10231000DC0112960D911C910115110509F4E8CE0E
:10232000D801ED91FC910190F081E02DBE016B5E32
:102330007F4FC8010995811123CEF80100851185D1
:10234000EBCF181619060CF41BCED2CEF1E0FF121B
:10235000BECE60E077E004CFEF92FF920F931F9321
:10236000CF93DF93F82E192FE62E042F81E0860FEE
:10237000880F0E94D90483E00E94D904CF2DD12F69
:10238000EC0EFD2EF11CCE15DF05B9F007FF13C0D2
:10239000FE0184910E94D904182F80E00E94D90484
:1023A000812321968111EFCFDF91CF911F910F9162
:1023B000FF90EF9008958881EDCF81E0F5CFE4E0C4
:1023C000F7E01382128288EE93E0A0E0B0E084830D
:1023D0009583A683B78386E291E0918380838FEF14
:1023E0009FEF95878487E8E8F7E01382128284E400
:1023F00091E091838083EEE7F7E01382128288E315
:1024000091E09183808388E0818781E080871582D5
:10241000168214828783E4E5F7E084EC99E09587DF
:102420008487938F828F91A780A70895CF93DF939E
:10243000CDB7DEB7E7970FB6F894DEBF0FBECDBFBE
:10244000789484B5826084BD84B5816084BD85B58F
:10245000826085BD85B5816085BD80916E0081609B
:1024600080936E0010928100809181008260809341
:102470008100809181008160809381008091800043
:1024800081608093800080919100826080939100B0
:102490008091910081608093910080919000816093
:1024A000809390008091C10084608093C1008091EE
:1024B000C10082608093C1008091C10081608093DF
:1024C000C1008091C30081608093C3008091C000EF
:1024D00082608093C0008091C20081608093C200BE
:1024E00080917A00846080937A0080917A00826083
:1024F00080937A0080917A00816080937A00809145
:102500007A00806880937A001092030310926D0124
:1025100010926C018091D70081608093D70080EA8F
:102520008093D80089B5806189BD89B5826089BDF5
:1025300009B400FEFDCF61E070E080E090E00E9411
:10254000A6048091D8008F7C80618093D800809110
:10255000E000807F8093E0008091E1008E7E809398
:10256000E1008DE08093E200559A209A8FEF9FEF73
:10257000909311078093100760ED77E080E090E082
:102580000E94A60481EC80937C0085B1806F85B9A0
:1025900084B1877E84B984B1876E84B95E9A5F986E
:1025A0008AB1806D8AB9769A6E9881B3806F81BB4B
:1025B000899880B38D7080BB80E58CBD81E08DBD36
:1025C00085E090E00E9484085F9A85E090E00E9498
:1025D00084085E985C98E6EDF7E084918EBD00007B
:1025E0000DB407FEFDCF319627E0E33EF207A9F7D1
:1025F0005C9A81E88093640080916500816080939B
:1026000065000E94B10880E80E94A6088823A9F00E
:102610005C9885EA8EBD00000DB407FEFDCF5C9A84
:102620002E982F982D98809164008062809364008A
:1026300081E083BF889513BEFCCF84E00E94A6088A
:10264000882309F448C02D9884E80E94A6088823AE
:10265000E1F00E94820888EC90E00E9484082F98A4
:1026600082E090E00E9400258F3F29F06FEF82E02A
:1026700090E00E94082584EF91E00E9484082F9A40
:1026800084E80E94A6088111FBCF84E10E94A6087D
:102690008823E1F00E94820888EC90E00E94840880
:1026A0002E9882E090E00E940025882329F060E0C7
:1026B00082E090E00E94082584EF91E00E94840867
:1026C0002E9A84E10E94A6088111FBCF88EC90E04D
:1026D0000E948408B2CF0E94820882E090E00E94AB
:1026E000BF0E882309F4A4C33E9A3F9A81E090E08C
:1026F0000E94BF0E382F3470732E81FF15C0311128
:102700002E9861EF262E33243A9408E010E07CE600
:10271000E72EF12C80E40E94A608882309F48BC3DD
:102720002E9A2F9A0E94820882E390E00E948408E9
:102730000E9489088111F8CF80E180930C0165E047
:1027400070E080E090E00E94A6040E948104611580
:1027500071058105910511F00E94F7240E94810402
:102760004AE00E94A40D87E591E00E94970D0E9427
:10277000B10868E873E180E090E00E94A604E3EE0F
:10278000F7E0E49190917B008E2F880F880F807284
:102790009F7D892B80937B00E770E064E0937C0051
:1027A00080917A00806480937A0080917A0086FD1F
:1027B000FCCF6091780070917900072E000C880B97
:1027C000990B611571058105910511F00E94F7249F
:1027D00080E790E00E9445298C019A8389831C013F
:1027E000712C612C6BE070E080E090E00E94180E8C
:1027F0006550710981099109660D771D77FFEDC359
:1028000068597E4F072E000C880B990B0E940C27ED
:1028100025E33AEF4EE85CE30E942F284B015C0170
:1028200061E177E280E090E00E94180E0E940C27A0
:1028300020E030E44CE156E40E94622620E030E0E3
:1028400044EB52E40E942F2820E030E044EB52E4B5
:102850000E947A256B017C01C501B4010E945D26AE
:10286000A70196010E942F286D837E838F8398870E
:10287000C501B4010E949C28A70196010E942F283F
:102880006B017C0161E177E280E090E00E94180E2C
:102890000E940C2720E030E44CE156E40E946226BE
:1028A00020E030E040E850E40E942F2820E030E0B3
:1028B00040E050E40E9479252D813E814F8158856A
:1028C0000E947A254B015C0161E177E280E090E0B3
:1028D0000E94180EF10180829182A282B3820E942E
:1028E0000C2720E030E44CE156E40E94622620E010
:1028F00030E040E850E40E942F2820E030E040E043
:1029000050E40E947925A70196010E947A25D10101
:1029100014966D937D938D939C931797B9E16B0EED
:10292000711CE8E02E0E311CFEE56F16F1E07F060B
:1029300009F058CF580120E7A20EB11CC12CD12CB0
:10294000760126013701A981BA812D913D914D91E2
:102950005C91C301B2010E947A252B013C01E981FF
:10296000FA812481358146815781C701B6010E94D1
:102970007A256B017C0129813A81285F3F4F3A8398
:102980002983A216B306F9F620E030E040E651E4D0
:10299000C301B2010E9462260E94D4267093E00215
:1029A0006093DF0220E030E040E651E4C701B60169
:1029B0000E9462260E94D4267093DE026093DD029C
:1029C00010932F0200932E0210922B0210922A02D3
:1029D00003E010E06EE070E080E090E00E94180EEE
:1029E00040912E0250912F025A874987FB01A3E0A4
:1029F000EE0FFF1FAA95E1F7E40FF51F208131814B
:102A00004281538129833A834B835C8324813581BE
:102A1000468157812D833E834F835887CB01019692
:102A20006EE070E00E941729B3E0880F991FBA95F5
:102A3000E1F749855A85480F591F5A8749872981E7
:102A40003A814B815C81A985BA856D917D918D918B
:102A50009C910E9479252B013C012D813E814F8163
:102A60005885E985FA8564817581868197810E9400
:102A700079256B017C01A30192010E94F9256987E8
:102A80007A878B879C870E94A82420E137E240E068
:102A900050E00E9416250E940C2720E030E44CE113
:102AA00056E40E9462264B015C0120902A0230907D
:102AB0002B024EE0429D9001439D300D11242C5A73
:102AC000384F3E872D87AC019B01C301B2010E94A4
:102AD0002F2829813A814B815C810E947A2520E050
:102AE00030E040E853E40E947A25AD85BE856D93C1
:102AF0007D938D939C931397A5019401C701B60113
:102B00000E942F282D813E814F8158850E947A2571
:102B100020E030E040E853E40E947A25ED85FE8510
:102B200064837583868397832BED3FE049EC5FE3F5
:102B300069857A858B859C850E947A25AD85BE85C1
:102B400018966D937D938D939C931B97BFEF2B1AD3
:102B50003B0A30922B0220922A020150110909F0FF
:102B600039CF109231021092300255E0252E312CCF
:102B70000EE010E06EE070E080E090E00E94180E41
:102B8000E0912E02F0912F02FA87E987FB0133E0F2
:102B9000EE0FFF1F3A95E1F729853A85E20FF31F03
:102BA00020813181428153812D833E834F83588719
:102BB000248135814681578129833A834B835C8305
:102BC000CB010196B8010E94172943E0880F991F95
:102BD0004A95E1F749855A85480F591F5A87498711
:102BE0002D813E814F815885A985BA856D917D9152
:102BF0008D919C910E9479252B013C0129813A817C
:102C00004B815C81E985FA85648175818681978134
:102C10000E9479256B017C01A30192010E94F92594
:102C200069877A878B879C870E94A82420E137E2F6
:102C300040E050E00E9416250E940C2720E030E47E
:102C40004CE156E40E9462264B015C018091300207
:102C5000909131024EE0489F9001499F300D112420
:102C60002E5C3D4F3E872D87A5019401C301B20123
:102C70000E942F282D813E814F8158850E947A2500
:102C800020E030E040E853E40E947A25AD85BE851F
:102C90006D937D938D939C931397A5019401C70128
:102CA000B6010E942F2829813A814B815C810E94C4
:102CB0007A2520E030E040E853E40E947A25ED8553
:102CC000FE8564837583868397832BED3FE049EC13
:102CD0005FE369857A858B859C850E947A25AD8521
:102CE000BE8518966D937D938D939C931B9768E793
:102CF00070E080E090E00E94180E20913002309148
:102D00003102BEE0B29FF001B39FF00D1124EE5CE2
:102D1000FD4F75876487C9010196909331028093B6
:102D20003002E1E02E1A310809F024CFE0E8F1E0AA
:102D30001082719622E0EA32F207D1F760E072E089
:102D400080E090E00E94180E0E940C2760937601AC
:102D500070937701809378019093790160E072E03D
:102D600080E090E00E94180E0E940C2760937A0188
:102D700070937B0180937C0190937D0162E070E011
:102D800080E090E00E94180E70937F0160937E01B6
:102D900080E090E0A0E8B3E48093D9029093DA0257
:102DA000A093DB02B093DC021092D5021092D602FF
:102DB0001092D7021092D8021092E9021092EA0201
:102DC0001092EB021092EC021092E5021092E602D1
:102DD0001092E7021092E8021092E1021092E202D1
:102DE0001092E3021092E40210927802109289028B
:102DF00010929A021092AB021092BC028FB7F89414
:102E00004091EE025091EF026091F0027091F10258
:102E10008FBF309172013DA3332309F4E6C01092B5
:102E2000720180E090E0892B49F30E940000E6CF18
:102E30003E983F985BCC772031F044E02416310473
:102E400011F42E9A2F9881E00E942304910137FEFD
:102E500004C0222733272219330927703327C101E1
:102E600037FC079653E0959587955A95E1F737FE1D
:102E700005C00197D801A21BB30B9D01BC0176953B
:102E8000762F6627779567956C5F7C4FB0E0A0E062
:102E90002801421A530A8E3FEFEF9E0709F446C0FD
:102EA00048E550E0FD01E258F84F5F014B01F0E8C2
:102EB0008F0E911C8F3F9807C9F0F501E41BF50BAD
:102EC00064906701C41AD50AC60ED71EE62DF0E03D
:102ED000022E02C0EE0FFF1F0A94E2F7FE83ED837D
:102EE000F6016080FD816F2AF601608221153105AF
:102EF000C9F0F501E41BF50B64906701C41AD50A0B
:102F0000C80CD91CE62DF0E0042C02C0F595E7951D
:102F10000A94E2F7FE83ED83F6016080FD816F2A5B
:102F2000F60160824150510909F0C4CF0196A85AB8
:102F3000BF4F60587F4FA03BB10509F0ACCF0E9456
:102F4000B1088FE090E00E948408FFEF2F1A3F0A3B
:102F500029E12216310409F0DDCB772011F02F9AF8
:102F60002D9880E991E00E9484080E94820881E007
:102F700090E00E94BF0E80FFD7CB8AE090E00E94D5
:102F8000BF0E9FEF980F9E3F08F0CECB22E330E0BC
:102F9000309375012093740128E330E030936F0182
:102FA00020936E014BE050E05A834983682F88E8F4
:102FB00097E00E947C0989819A810E94BF0EA981B5
:102FC000BA811196BA83A983519781F70E94B108FB
:102FD00088EE93E00E948408A7CB6836B1E07B07B7
:102FE0000CF410CC685671400DCC80917301942F75
:102FF000981B892F90910C01891748F48F5F8917CE
:1030000008F00FCF81E083BF889513BE0ACF81E01F
:1030100080937201409373018091700190917101CE
:1030200001969093710180937001A0912D02A98B5C
:10303000A0932C020E9489088D8780932D020E9404
:10304000910880E20E94A6088823B1F02DEC3CECA8
:103050004CEC5DE36091E9027091EA028091EB0231
:103060009091EC020E9479256093E9027093EA0244
:103070008093EB029093EC0280E40E94A6088823E0
:10308000B1F02DEC3CEC4CEC5DE36091E902709109
:10309000EA028091EB029091EC020E947A25609303
:1030A000E9027093EA028093EB029093EC0288E0CD
:1030B0000E94A608882309F453C08090E1029090F2
:1030C000E202A090E302B090E4022BED3FE049EC75
:1030D0005FE36091E9027091EA028091EB029091C6
:1030E000EC020E9479256B017C010E945D262DEC8B
:1030F0003CEC4CEC5DE30E942F289B01AC016091FD
:10310000E5027091E6028091E7029091E8020E9448
:103110007A256093E5027093E6028093E70290932C
:10312000E802C701B6010E949C282DEC3CEC4CEC57
:103130005DE30E942F28A50194010E947A256093E7
:10314000E1027093E2028093E3029093E4028091A3
:103150000F019091100101979093100180930F013E
:103160002091D9023091DA024091DB025091DC02C9
:103170002D833E834F8358876091DF027091E00278
:103180007395072E000C880B990B0E940C272D813C
:103190003E814F8158850E9479254B015C018091C9
:1031A000D5029091D602A091D702B091D80289831E
:1031B0009A83AB83BC836091DD027091DE027395CC
:1031C000072E000C880B990B0E940C2729813A814D
:1031D0004B815C810E9479256B017C01A5019401E2
:1031E000C501B4010E942F282B013C01A7019601C3
:1031F000C701B6010E942F289B01AC01C301B20197
:103200000E947A250E94AA282B013C0120E030E090
:10321000A9010E942228181684F4A3019201C50175
:10322000B4010E9462264B015C01A3019201C70117
:10323000B6010E9462266B017C012AE037ED43E271
:103240005CE3C501B4010E942F282091E502309172
:10325000E6024091E7025091E8020E947A256987D0
:103260007A878B879C872AE037ED43E25CE3C701CE
:10327000B6010E942F282091E1023091E202409194
:10328000E3025091E4020E947A252B013C0129853A
:103290003A854B855C856D817E818F8198850E9402
:1032A0007A254B015C018092D9029092DA02A092B9
:1032B000DB02B092DC02A301920169817A818B81E9
:1032C0009C810E947A256B017C01C092D502D0922C
:1032D000D602E092D702F092D80224EA30E74DE716
:1032E0005FE369857A858B859C850E942F28609392
:1032F000E5027093E6028093E7029093E80224EAE5
:1033000030E74DE75FE3C301B2010E942F286093CD
:10331000E1027093E2028093E3029093E40220E0E2
:1033200030E0A901C501B4010E94582687FF08C0FA
:103330001092D9021092DA021092DB021092DC0293
:1033400020E030E040E054E46091D9027091DA026C
:103350008091DB029091DC020E942228181664F40E
:1033600080E090E0A0E0B4E48093D9029093DA0288
:10337000A093DB02B093DC0220E030E0A901C7019A
:10338000B6010E94582687FF08C01092D5021092FD
:10339000D6021092D7021092D80220E030E040E02E
:1033A00054E46091D5027091D6028091D702909139
:1033B000D8020E942228181664F480E090E0A0E071
:1033C000B4E48093D5029093D602A093D702B09331
:1033D000D8022091D9023091DA024091DB0250915B
:1033E000DC0229833A834B835C8320E030E040E8B1
:1033F00052E469817A818B819C810E9479254B01FD
:103400005C018092D1029092D202A092D302B0923B
:10341000D4028091D5029091D602A091D702B091AA
:10342000D80289879A87AB87BC8720E030E040E0EC
:1034300052E4BC01CD010E9479256B017C01C09250
:10344000CD02D092CE02E092CF02F092D00220E0E4
:1034500030E0A901C501B4010E94582687FF08C0C9
:103460001092D1021092D2021092D3021092D40282
:1034700020E030E040EC53E46091D1027091D20240
:103480008091D3029091D4020E942228181664F4ED
:1034900080E090E0A0ECB3E48093D1029093D2025C
:1034A000A093D302B093D40220E030E0A901C70179
:1034B000B6010E94582687FF08C01092CD021092D4
:1034C000CE021092CF021092D00220E030E040EE07
:1034D00053E46091CD027091CE028091CF02909121
:1034E000D0020E942228181664F480E090E0A0EE3A
:1034F000B3E48093CD029093CE02A093CF02B09319
:10350000D002998992FD4AC0AD85A2FF47C0E8E785
:10351000F2E050E040E020812111C6C16091E90253
:103520007091EA028091EB029091EC0221E1249FDC
:10353000F001259FF00D1124E858FD4FFE83ED8327
:1035400021E0208329813A814B815C812183328370
:103550004383548329853A854B855C85258336834F
:10356000478350872BED3FE049EC5FE30E947925CC
:103570006B017C010E945D26ED81FE81618772876F
:1035800083879487C701B6010E949C28AD81BE81C4
:103590001D966D937D938D939C935097E8E7F2E091
:1035A000FE8FED8F1F01D1018C91882309F450C04B
:1035B00019962D913D914D915C911C9711966D91AD
:1035C0007D918D919C9114970E947A254B015C010D
:1035D000F10181829282A382B48225853685478556
:1035E000508965817681878190850E947A256B015B
:1035F0007C01D1011596CD92DD92ED92FC92189747
:1036000020E030E0A901C501B4010E94582687FDE1
:103610001DC020E030E040E054E4C501B4010E9448
:10362000222818169CF020E030E0A901C701B6015D
:103630000E94582687FD0AC020E030E040E054E4B4
:10364000C701B6010E942228181614F4F101108255
:10365000F1E12F0E311C2DEC32E02215330509F07B
:10366000A2CF48E752E05E834D83AD81BE818C914D
:10367000882309F454C019962D913D914D915C9188
:103680001C9711966D917D918D919C9114970E943C
:103690007A254B015C01ED81FE8181829282A382B9
:1036A000B4822585368547855089658176818781F5
:1036B00090850E947A256B017C01AD81BE811596B3
:1036C000CD92DD92ED92FC92189720E030E0A901B6
:1036D000C501B4010E94582687FD1EC020E030E0DD
:1036E00040E054E4C501B4010E9422281816A4F059
:1036F00020E030E0A901C701B6010E94582687FDED
:103700000BC020E030E040E054E4C701B6010E9465
:10371000222818160CF0D0C0ED81FE8110828D8118
:103720009E8141969E838D838215930509F09DCFDE
:1037300080E10E94A60881112CC1A0913002B091B5
:103740003102BA8BA98BE2E3F2E0FE87ED878F01AD
:103750001E8A1D8A89899A89AD89BE89A817B907E9
:103760000CF014C3F8018485958501971816190685
:103770000CF409C328E730E035872487E0E8F1E05E
:10378000312C212C80818111F4C2D8011496CD9066
:10379000DD90ED90FC9017972D913D914D915C91AE
:1037A000B1E1B29DF001B39DF00D1124E058FE4F40
:1037B00081E080832183328343835483C582D68210
:1037C000E782F08669817A818B819C810E947925CC
:1037D0002B013C01A701960169857A858B859C8523
:1037E0000E9479254B015C01A3019201C301B20142
:1037F0000E942F286B017C01A5019401C501B40131
:103800000E942F289B01AC01C701B6010E947A25B6
:103810000E94AA286B017C012FE632E143E85AE3BB
:103820000E94582687FF08C02FE6C22E22E1D22E22
:1038300023E8E22E2AE3F22EE1E1E29DD001E39DAE
:10384000B00D1124A058BE4FBA8FA98FA7019601C1
:10385000C301B2010E94622620E030E040E05FE355
:103860000E942F28A98DBA8D19966D937D938D9303
:103870009C931C97A7019601C501B4010E94622682
:1038800020E030E040E05FE30E942F28E98DFA8DD0
:10389000658776878787908BED89FE893196FE8BC9
:1038A000ED8B025F1F4F56CF4F5F5F4F71964530D4
:1038B000510509F030CE72CE22E332E03A8B298BEB
:1038C00010E000E0A989BA892D913D914D915C915C
:1038D000C501B4010E9479252B013C01E989FA89CF
:1038E0002481358146815781C701B6010E9479251F
:1038F0006D877E878F87988BA3019201C301B201E8
:103900000E942F282B013C012D853E854F8558892B
:10391000CA01B9010E942F289B01AC01C301B20169
:103920000E947A2520E030E040EB51E40E945826C6
:1039300087FF22C0AD81BE811C92809130029091A0
:10394000310201979093310280933002EEE0E09FC4
:10395000D001E19FB00D1124AE5CBD4F2EE0289F39
:10396000F001299FF00D1124EE5CFD4F8EE00190D7
:103970000D928A95E1F7D3CE0F5F1F4F49895A897F
:10398000425F5F4F5A8B498B0530110509F09ACF82
:10399000C6CE8090E9029090EA02A090EB02B0902F
:1039A000EC02C501B4010E945D266B017C01C501DA
:1039B000B4010E949C284B015C0120E030E048ECFF
:1039C00051E40E942F286D877E878F87988B20E097
:1039D00030E040E751ECC701B6010E942F282D8549
:1039E0003E854F8558890E94792529813A814B81EE
:1039F0005C810E947A256AA77BA78CA79DA720E0FF
:103A000030E048EC51E4C701B6010E942F28698BD1
:103A10007A8B8B8B9C8B20E030E040E751ECC5012A
:103A2000B4010E942F2829893A894B895C890E9418
:103A30007A2529853A854B855C850E947A25698F90
:103A40007A8F8B8F9C8F20E030E0A901C701B601EF
:103A50000E942F286D8B7E8B8F8B988F20E030E01B
:103A6000A901C501B4010E942F282B013C01AC0122
:103A70009B016D897E898F89988D0E947925298186
:103A80003A814B815C810E947A256EA77FA788AB23
:103A900099ABA30192016D897E898F89988D0E94CF
:103AA0007A2529853A854B855C850E947A256AAB03
:103AB0007BAB8CAB9DAB20E030E040E751E4C7012D
:103AC000B6010E942F282D853E854F8558890E947A
:103AD000792529813A814B815C810E947A256D8B01
:103AE0007E8B8F8B988F20E030E040E751E4C5015A
:103AF000B4010E942F2829893A894B895C890E9448
:103B00007A2529853A854B855C850E947A256D87C3
:103B10007E878F87988B24E537E03FAB2EAB10E094
:103B200000E020902A0230902B02021513050CF0C1
:103B300004CE2D853E854F8558896AA97BA98CA91D
:103B40009DA90E9479252B013C012D893E894F8931
:103B5000588D6AA57BA58CA59DA50E94792569A392
:103B60007AA38BA39CA32EA53FA548A959A96D892B
:103B70007E898F89988D0E9479254B015C012D8566
:103B80003E854F855889698D7A8D8B8D9C8D0E94DD
:103B90007925A50194010E942F286B017C0129A1A0
:103BA0003AA14BA15CA1C301B2010E942F289B0145
:103BB000AC01C701B6010E947A25698B7A8B8B8B89
:103BC0009C8B20E030E0A9010E945826882309F44C
:103BD000C7C02D893E894F89588DAEA9BFA96D9167
:103BE0007D918D919C910E9479256B017C012D85A1
:103BF0003E854F855889EEA9FFA96481758186812C
:103C000097810E9479256EA37FA388A799A7A70112
:103C10009601C301B2010E942F282B013C012EA165
:103C20003FA148A559A5C501B4010E942F289B01B9
:103C3000AC01C301B2010E947A2529893A894B89D6
:103C40005C890E9462264B015C0120E030E0A90102
:103C50000E94222887FD84C020E030E040E85FE336
:103C6000C501B4010E94582618160CF479C0298D9C
:103C70003A8D4B8D5C8D6D857E858F8598890E94F0
:103C80007925A70196010E942F286B017C012EA1A6
:103C90003FA148A559A569A17AA18BA19CA10E9429
:103CA0002F289B01AC01C701B6010E947A25298902
:103CB0003A894B895C890E9462266B017C0120E075
:103CC00030E0A9010E94222887FD4AC020E030E0B0
:103CD00040E85FE3C701B6010E94582618160CF4AD
:103CE0003FC0A501940160E070E080E89FE30E947E
:103CF0007925A70196010E9479256B017C0120E0BE
:103D000030E0A9010E94222887FD2AC020E030E08F
:103D100040E85FE3C701B6010E945826181604F177
:103D200080910F01909110018C53964F9093100148
:103D300080930F01F1E02F1A31082EE0229DF0014F
:103D4000239DF00D1124EC5AF84FAEA9BFA98EE0C7
:103D500001900D928A95E1F730922B0220922A026F
:103D60000F5F1F4F4EA95FA9425F5F4F5FAB4EAB26
:103D7000D8CE2FEF221A320A71963AE02316310478
:103D800009F000CD89CD9587848786CD90E8292ECE
:103D900091E0392ED1018C91882309F469C04090BB
:103DA000D9025090DA026090DB027090DC02209120
:103DB000D5023091D6024091D7025091D802298382
:103DC0003A834B835C8319962D913D914D915C9183
:103DD0001C9711966D917D918D919C9114970E94E5
:103DE0007A254B015C01D10111968D929D92AD9285
:103DF000BC9214971D962D913D914D915C915097D9
:103E000015966D917D918D919C9118970E947A25C0
:103E10006B017C01F101C582D682E782F08620E049
:103E200030E0A901C501B4010E94582687FD1EC0DB
:103E300020E030E040E054E4C501B4010E942228B3
:103E40001816A4F020E030E0A901C701B6010E94D5
:103E5000582687FD0BC020E030E040E054E4C70165
:103E6000B6010E94222818160CF0DBC0D1011C926A
:103E7000F1E12F0E311C2AE2221622E0320609F06F
:103E800089CF1A8A198AC0907601D0907701E09084
:103E90007801F090790180907A0190907B01A09058
:103EA0007C01B0907D018091D1029091D202A091CD
:103EB000D302B091D40289839A83AB83BC832091CF
:103EC000CD023091CE024091CF025091D00229878D
:103ED0003A874B875C8749895A894130510509F4F3
:103EE000D3C020E030E040E05FE3BC01CD010E94A0
:103EF0002F289B01AC01C701B6010E9479250E94C1
:103F0000D4266B017E8B6D8B20E030E040E05FE3D8
:103F100069857A858B859C850E942F289B01AC0141
:103F2000C501B4010E9479250E94D4263B01DA8E96
:103F3000C98ED601A038B10508F02CC277FD2FC27A
:103F4000603471050CF030C240917E0150917F01C8
:103F5000FA01FF27FA87E987440F4F5F6E1B7F0B3B
:103F6000C6010E945609EE24E394F12C29853A8576
:103F7000E21AF30AD12CC12CC21AD30ACC0CDD1CD4
:103F800009891A8944244394512C41E050E05A8B0A
:103F9000498B89859A85081719070CF074CFF7FCAF
:103FA00008C001979A87898792E0C90ED11CEC0C52
:103FB000FD1C0F5F1F4FA2E04A0E511CE40CF51CC4
:103FC0008985880F8F5F8983482F5301E985FA859A
:103FD000AE1ABF0AB501898D9A8D800F911F0E947C
:103FE00056094301801A910A442DB4018D899E8996
:103FF00029853A85820F931F0E9456094981B50190
:10400000898D9A8D801B910B0E945609442DB40115
:104010008D899E89A985BA858A1B9B0B0E945609AA
:10402000B8CFA3019201C501B4010E9479254B01CB
:104030005C0129813A814B815C81C701B6010E94F4
:1040400079256B017C01A5019401C501B4010E9491
:104050002F284B015C01A7019601C701B6010E9400
:104060002F289B01AC01C501B4010E947A2520E0F4
:1040700030E048EC51E40E94582687FFF9CE0E94B8
:10408000320EF1011082F4CEE0E8F1E0FA8BE98B18
:10409000A989BA898C91882311F129853A854B85A4
:1040A0005C8515966D917D918D919C9118970E94DC
:1040B00079250E94D4266B0129813A814B815C814C
:1040C000E989FA8961817281838194810E947925CD
:1040D0000E94D426CB0141E0B6010E94B408298990
:1040E0003A892F5E3F4F3A8B298B2216330681F691
:1040F00020902E0230902F0220E030E040E853E480
:10410000D1016D917D918D919C910E947A2529819B
:104110003A814B815C810E9479250E94D4263B0123
:1041200020E030E040E853E4F1016481758186814C
:1041300097810E947A2529853A854B855C850E9466
:1041400079250E94D4268B013E8A2D8A2101F8E62A
:104150004F0E511C3A8A298A20E030E040E853E4AF
:10416000A989BA8918966D917D918D919C911B9723
:104170000E947A2529813A814B815C810E947925B0
:104180000E94D4266B0120E030E040E853E4E98946
:10419000FA8964857585868597850E947A252985A3
:1041A0003A854B855C850E9479250E94D4264B0177
:1041B0009B01A601B801C3010E94D20829893A894E
:1041C000285F3F4F3A8B298B3601840142165306F4
:1041D00019F620E030E040E853E4D10114966D91E7
:1041E0007D918D919C9117970E947A2529853A851A
:1041F0004B855C850E9479250E94D4262B0120E006
:1042000030E040E853E4F101608171818281938163
:104210000E947A2529813A814B815C810E9479250F
:104220000E94D4269201AB01B401C6010E94D208BB
:104230001FA21EA280903002909031022EA13FA1B9
:10424000281539050CF4B5C044E557E05FA34EA32B
:104250001E861D864D855E85481559050CF047C1A3
:104260002BED3FE049EC5FE3AEA1BFA118966D9145
:104270007D918D919C911B970E947A255B016C0129
:104280000E945D262B013C01C601B5010E949C28BD
:10429000698B7A8B8B8B9C8B29853A854B855C85CA
:1042A000EEA1FFA164817581868197810E947925A5
:1042B000698F7A8F8B8F9C8F20E030E0A90169890C
:1042C0007A898B899C890E942F2869A37AA38BA362
:1042D0009CA320E030E040E050ECC301B2010E941A
:1042E0002F289B01AC0169A17AA18BA19CA10E94FE
:1042F0007A259B01AC01698D7A8D8B8D9C8D0E94F6
:104300007A25698F7A8F8B8F9C8F29813A814B8197
:104310005C81AEA1BFA16D917D918D919C910E9418
:10432000792569A37AA38BA39CA320E030E0A9019F
:10433000C301B2010E942F282B013C0129893A892F
:104340004B895C89CA01B9010E947A259B01AC01A5
:10435000C301B2010E947A259B01AC0169A17AA137
:104360008BA19CA10E947A25E12CF12C00E810E49D
:10437000298D3A8D4B8D5C8D0E94770AED85FE85E7
:104380003196FE87ED872EA13FA1225F3F4F3FA3CD
:104390002EA360CF20E831E03A8B298B79CE40E81C
:1043A00051E05A8B498B74CE80E891E09A8B898BCF
:1043B0006FCE2BED3FE049EC5FE3AD85BE851896EF
:1043C0006D917D918D919C911B970E9479255B0148
:1043D0006C010E945D26698B7A8B8B8B9C8BC6014E
:1043E000B5010E949C28698F7A8F8B8F9C8F2985BD
:1043F0003A854B855C85ED85FE8564817581868176
:1044000097810E94792569A37AA38BA39CA320E0BE
:1044100030E0A901698D7A8D8B8D9C8D0E942F28AB
:104420002B013C0120E030E040E850EC69897A89BA
:104430008B899C890E942F289B01AC01C301B2018A
:104440000E947A259B01AC0169A17AA18BA19CA154
:104450000E947A252B013C0129813A814B815C81A4
:10446000AD85BE856D917D918D919C910E94792540
:1044700069A37AA38BA39CA320E030E0A9016989FA
:104480007A898B899C890E942F28698B7A8B8B8BE8
:104490009C8B20E030E040E850E4698D7A8D8B8D74
:1044A0009C8D0E942F289B01AC0169897A898B8998
:1044B0009C890E947A259B01AC0169A17AA18BA1FC
:1044C0009CA10E947A25E12CF12C00E011E4A301CB
:1044D00092010E94770AEEA1FFA13196FFA3EEA3FD
:1044E0002D853E85225F3F4F3E872D87A3CEAD8D24
:1044F000BE8D8C91882311F129853A854B855C8589
:1045000015966D917D918D919C9118970E947925BA
:104510000E94D4266B0129813A814B815C81ED8D0B
:10452000FE8D61817281838194810E9479250E9430
:10453000D426CB0141E0B6010E94B4082D8D3E8DFA
:104540002F5E3F4F3E8F2D8F4D815E814217530767
:1045500071F68091D9029091DA02A091DB02B091BC
:10456000DC028D879E87AF87B88B29813A814B818A
:104570005C81BC01CD010E9479256D837E838F8390
:1045800098872091D5023091D6024091D702509160
:10459000D8022D8F3E8F4F8F58A329853A854B85A2
:1045A0005C856D8D7E8D8F8D98A10E9479256983A4
:1045B0007A838B839C834090E9025090EA0260905A
:1045C000EB027090EC021F921F921F9235E03F9316
:1045D0001F921F924FEF4F935BEF5F934BEF842E31
:1045E00099249A94B12CA12C7301620109811A813A
:1045F0002B813C814D815E816F81788585E090E0E3
:104600000E94E90B1F921F921F921F921F9281E03E
:104610008F939FEF9F93ABEFAF9353E0852E912C39
:104620006DEFA62EBB24BA9409811A812B813C819F
:104630004D815E816F81788585E090E00E94E90B75
:104640001F921F921F921F921F92B1E0BF931F9261
:10465000E5E0EF9373E0A72EB12C09811A812B813D
:104660003C814D815E816F81788585E090E00E947C
:10467000E90B88E00E94A6080FB6F894DEBF0FBED3
:10468000CDBF882301F11F9283E08F931F9282E0B8
:104690008F931F9287E08F931F921F923EEFA32E5E
:1046A000BB24BA9409811A812B813C814D815E81A2
:1046B0006F81788583E090E00E94E90B0FB6F89453
:1046C000DEBF0FBECDBF80E10E94A608882321F186
:1046D0001F9289E18F931F928FE08F931F921F92F9
:1046E0001F921F9299E1892E912C21EFA22EBB24BB
:1046F000BA947301620109811A812B813C814D8139
:104700005E816F81788583E090E00E94E90B0FB6AF
:10471000F894DEBF0FBECDBFADE0B0E0BA83A98391
:1047200010E000E0ED89FE89C080D180E280F38056
:1047300020E030E040E853E4648175818681978110
:104740000E947A254B015C0129813A8183E0220F86
:10475000331F8A95E1F7220D331D3A832983D9014E
:104760004D905D906D907C90139720E030E040E894
:1047700053E414966D917D918D919C9117970E94B1
:104780007A256D837E838F839887A50194016D8D33
:104790007E8D8F8D98A10E945826881F8827881F9C
:1047A00089832D813E814F8158856D8D7E8D8F8DC2
:1047B00098A10E945826881F8827881FB981B8179A
:1047C00009F448C020E030E040E853E4C701B601F6
:1047D0000E947A256B017C0120E030E040E853E440
:1047E000C301B2010E947A25A70196010E94792592
:1047F0002B013C01A50194016D8D7E8D8F8D98A1BB
:104800000E9479259B01AC01C301B2010E942F28AF
:104810002B013C01A50194016D817E818F819885DA
:104820000E9479259B01AC01C301B2010E9462265E
:10483000A70196010E947A259B01AC016D857E85BA
:104840008F8598890E94582687FF04C0EDA1F1E06A
:10485000EF27EDA3C80101962D893E89285F3F4FC0
:104860003E8B2D8B1A8309838E30910519F53DA15E
:10487000332331F08AE591E00E94970D0E94320EB9
:1048800080910D0190910E010E94E80D40E450E0EE
:10489000509375014093740180910F019091100124
:1048A0000E94E80D10927501109274010E94B108E7
:1048B0000C9411178C0136CF8F929F92AF92BF92BA
:1048C000CF92DF92EF92FF92CF93DF93EC0168815A
:1048D00079818A819B81611571058105910521F49A
:1048E00064E279ED8BE597E02DE133EF41E050E0B4
:1048F0000E94162549015A019B01AC01A7EAB1E4C7
:104900000E9435256B017C01ACEEB4EFA50194014A
:104910000E944325C60ED71EE81EF91EF7FE06C0EC
:1049200081E0C81AD108E10880E8F80AC882D98273
:10493000EA82FB82C701B6019F77DF91CF91FF909A
:10494000EF90DF90CF90BF90AF909F908F900895A1
:104950008F929F92AF92BF92CF92DF92EF92FF928F
:1049600060911101709112018091130190911401D5
:10497000611571058105910521F464E279ED8BE5FE
:1049800097E02DE133EF41E050E00E941625490108
:104990005A019B01AC01A7EAB1E40E9435256B01E5
:1049A0007C01ACEEB4EFA50194010E944325C60E34
:1049B000D71EE81EF91EF7FE06C081E0C81AD1080E
:1049C000E10880E8F80AC0921101D0921201E09249
:1049D0001301F0921401C701B6019F77FF90EF9089
:1049E000DF90CF90BF90AF909F908F90089560938D
:1049F0001101709312018093130190931401089593
:104A0000F999FECF92BD81BDF89A992780B5089596
:104A1000262FF999FECF1FBA92BD81BD20BD0FB6DA
:104A2000F894FA9AF99A0FBE01960895052E97FB0D
:104A30001EF400940E942D2557FD07D00E944825A2
:104A400007FC03D04EF40C942D25509540953095DD
:104A500021953F4F4F4F5F4F0895909580957095EA
:104A600061957F4F8F4F9F4F08950E946A25A59FA4
:104A7000900DB49F900DA49F800D911D1124089559
:104A8000B7FF0C9435250E943525821B930B0895A2
:104A9000A1E21A2EAA1BBB1BFD010DC0AA1FBB1F42
:104AA000EE1FFF1FA217B307E407F50720F0A21BB4
:104AB000B30BE40BF50B661F771F881F991F1A9421
:104AC00069F760957095809590959B01AC01BD014B
:104AD000CF010895A29FB001B39FC001A39F700DA5
:104AE000811D1124911DB29F700D811D1124911DF6
:104AF00008955058BB27AA270E9491250C94D427CB
:104B00000E949B2738F00E94A22720F039F49F3F93
:104B100019F426F40C9471270EF4E095E7FB0C943D
:104B20006B27E92F0E94F92758F3BA17620773071A
:104B30008407950720F079F4A6F50C941B280EF451
:104B4000E0950B2EBA2FA02D0B01B90190010C019D
:104B5000CA01A0011124FF27591B99F0593F50F4B5
:104B6000503E68F11A16F040A22F232F342F44270D
:104B7000585FF3CF469537952795A795F040539505
:104B8000C9F77EF41F16BA0B620B730B840BBAF0D5
:104B90009150A1F0FF0FBB1F661F771F881FC2F740
:104BA0000EC0BA0F621F731F841F48F48795779554
:104BB0006795B795F7959E3F08F0B0CF9395880F0E
:104BC00008F09927EE0F9795879508950E949B27E7
:104BD00060F080E891E009F49EEF0E94A22728F09F
:104BE00040E851E071F45EEF0CC00C9471270C9416
:104BF0001B28E92FE0780E94F92740F3092E052AA7
:104C0000B1F3261737074807590738F00E2E07F873
:104C1000E02569F0E025E0640AC0EF6307F800943E
:104C200007FADB01B9019D01DC01CA01AD01EF9377
:104C30000E9479260E94D4270E9429265F9155233D
:104C400039F02BED3FE049E450FD49EC0C947A2516
:104C50000895DF93DD27B92FBF7740E85FE316168D
:104C6000170648075B0718F4D92F0E9427289F933F
:104C70008F937F936F930E94EA28ECEAF0E00E9402
:104C800074270E94D4272F913F914F915F910E94EA
:104C90004228DD2351F09058A2EA2AED3FE049EC8A
:104CA0005FE3D0785D270E949125DF910C94D42793
:104CB0000E94472708F481E008950E94AB27E395FE
:104CC0000C94E5270E9476260C94D4270E94A227F4
:104CD00058F00E949B2740F029F45F3F29F00C9484
:104CE0006B2751110C941C280C9471270E94F927F2
:104CF00068F39923B1F3552391F3951B550BBB270B
:104D0000AA2762177307840738F09F5F5F4F220F4F
:104D1000331F441FAA1FA9F335D00E2E3AF0E0E846
:104D200032D091505040E695001CCAF72BD0FE2F90
:104D300029D0660F771F881FBB1F26173707480724
:104D4000AB07B0E809F0BB0B802DBF01FF279358DC
:104D50005F4F3AF09E3F510578F00C946B270C940E
:104D60001C285F3FE4F3983ED4F3869577956795CA
:104D7000B795F7959F5FC9F7880F911D9695879511
:104D800097F90895E1E0660F771F881FBB1F621730
:104D900073078407BA0720F0621B730B840BBA0BEE
:104DA000EE1F88F7E09508950E94DB266894B11104
:104DB0000C941C2808950E94012888F09F5798F0B1
:104DC000B92F9927B751B0F0E1F0660F771F881F10
:104DD000991F1AF0BA95C9F714C0B13091F00E942A
:104DE0001B28B1E008950C941B28672F782F882783
:104DF000B85F39F0B93FCCF3869577956795B39551
:104E0000D9F73EF490958095709561957F4F8F4FBF
:104E10009F4F0895E89409C097FB3EF490958095C4
:104E2000709561957F4F8F4F9F4F9923A9F0F92F70
:104E300096E9BB279395F695879577956795B795EE
:104E4000F111F8CFFAF4BB0F11F460FF1BC06F5FD4
:104E50007F4F8F4F9F4F16C0882311F096E911C0E6
:104E6000772321F09EE8872F762F05C0662371F007
:104E700096E8862F70E060E02AF09A95660F771F1B
:104E8000881FDAF7880F9695879597F90895990FF7
:104E90000008550FAA0BE0E8FEEF16161706E80704
:104EA000F907C0F012161306E407F50798F0621B25
:104EB000730B840B950B39F40A2661F0232B242BFA
:104EC000252B21F408950A2609F4A140A6958FEF19
:104ED000811D811D089597F99F6780E870E060E06B
:104EE00008959FEF80EC0895DF93CF931F930F9366
:104EF000FF92EF92DF927B018C01689406C0DA2E5C
:104F0000EF010E944228FE01E894A5912591359178
:104F100045915591A6F3EF010E949125FE0197015D
:104F2000A801DA9469F7DF90EF90FF900F911F913D
:104F3000CF91DF91089500240A94161617061806DB
:104F40000906089500240A9412161306140605068D
:104F500008950C9471270E940128D8F3E894E0E0AA
:104F6000BB279F57F0F02AED3FE049EC06C0EE0F5B
:104F7000BB0F661F771F881F28F0B23A62077307BE
:104F8000840728F0B25A620B730B840BE3959A9551
:104F900072F7803830F49A95BB0F661F771F881F11
:104FA000D2F790480C94F028092E0394000C11F4C9
:104FB000882352F0BB0F40F4BF2B11F460FF04C0F4
:104FC0006F5F7F4F8F4F9F4F0895EF93E0FF07C0B4
:104FD000A2EA2AED3FE049EC5FEB0E9491250E9496
:104FE000D4270F90039401FC9058E9EDF0E00C9465
:104FF000032957FD9058440F551F59F05F3F71F03A
:105000004795880F97FB991F61F09F3F79F087952F
:105010000895121613061406551FF2CF4695F1DFB8
:1050200008C0161617061806991FF1CF8695710548
:10503000610508940895E894BB2766277727CB017C
:1050400097F908950E94472708F48FEF08959B0170
:10505000AC0160E070E080E89FE30C9462260E945F
:1050600042280C94D4270E949B2738F00E94A22744
:1050700020F0952311F00C946B270C9471271124C8
:105080000C941C280E94F92770F3959FC1F3950F8B
:1050900050E0551F629FF001729FBB27F00DB11DBC
:1050A000639FAA27F00DB11DAA1F649F6627B00D4C
:1050B000A11D661F829F2227B00DA11D621F739F35
:1050C000B00DA11D621F839FA00D611D221F749F43
:1050D0003327A00D611D231F849F600D211D822F8A
:1050E000762F6A2F11249F5750409AF0F1F08823B1
:1050F0004AF0EE0FFF1FBB1F661F771F881F9150DE
:105100005040A9F79E3F510580F00C946B270C94FA
:105110001C285F3FE4F3983ED4F386957795679516
:10512000B795F795E7959F5FC1F7FE2B880F911D07
:105130009695879597F908959F930E94AB270F90B6
:1051400007FCEE5F0C94E52719F416F40C94712714
:105150000C94EE280E940128B8F39923C9F3B6F302
:105160009F57550B87FF0E94FC280024A0E640EAC9
:10517000900180585695979528F4805C660F771FAC
:10518000881F20F026173707480730F4621B730B7F
:10519000840B202931294A2BA695179407942025A2
:1051A00031254A2758F7660F771F881F20F02617EA
:1051B0003707480730F4620B730B840B200D311D49
:1051C000411DA09581F7B901842F9158880F9695BC
:1051D000879508959B01AC010C942F289F3F31F0D7
:1051E000915020F4879577956795B795880F911D15
:1051F0009695879597F9089591505040660F771FBF
:10520000881FD2F708959F938F937F936F93FF9397
:10521000EF939B01AC010E942F28EF91FF910E9418
:1052200074272F913F914F915F910C942F2897FBFA
:10523000072E16F4009407D077FD09D00E942B2981
:1052400007FC05D03EF4909581959F4F0895709589
:1052500061957F4F0895AA1BBB1B51E107C0AA1F90
:10526000BB1FA617B70710F0A61BB70B881F991F07
:105270005A95A9F780959095BC01CD010895EE0F40
:10528000FF1F0590F491E02D09940F931F93CF9386
:10529000DF938230910510F482E090E0E0918E0778
:1052A000F0918F0730E020E0B0E0A0E0309799F473
:1052B0002115310509F44AC0281B390B243031056A
:1052C000D8F58A819B816115710589F1FB01938372
:1052D0008283FE0111C040815181028113814817F0
:1052E0005907E0F04817590799F4109761F01296A2
:1052F0000C93129713961C933296CF01DF91CF91A6
:105300001F910F91089500938E0710938F07F4CF8C
:105310002115310551F04217530738F0A901DB017F
:105320009A01BD01DF01F801C1CFEF01F9CF9093E0
:105330008F0780938E07CDCFFE01E20FF31F81937D
:1053400091932250310939832883D7CF20918C073C
:1053500030918D07232B41F42091170130911801D2
:1053600030938D0720938C07209115013091160101
:105370002115310541F42DB73EB7409119015091E7
:105380001A01241B350BE0918C07F0918D07E21771
:10539000F307A0F42E1B3F0B2817390778F0AC0158
:1053A0004E5F5F4F2417350748F04E0F5F1F509335
:1053B0008D0740938C07819391939FCFF0E0E0E0BD
:1053C0009CCFCF93DF930097E9F0FC0132971382D3
:1053D0001282A0918E07B0918F07ED0130E020E09E
:1053E0001097A1F420813181820F931F20918C07A7
:1053F00030918D072817390709F061C0F0938D07A8
:10540000E0938C07DF91CF910895EA01CE17DF0773
:10541000E8F54A815B819E0141155105B1F7E9012B
:10542000FB83EA8349915991C40FD51FEC17FD07FF
:1054300061F4808191810296840F951FE90199831F
:105440008883828193819B838A83F0E0E0E01296D7
:105450008D919C9113970097B9F52D913C911197DF
:10546000CD010296820F931F20918C0730918D07FA
:105470002817390739F6309751F510928F07109297
:105480008E07B0938D07A0938C07BCCFD383C283C4
:1054900040815181840F951FC817D90761F44E5F71
:1054A0005F4F88819981480F591F518340838A81BA
:1054B0009B81938382832115310509F0B0CFF0934E
:1054C0008F07E0938E079ECFFD01DC01C0CF1382D2
:0854D0001282D7CFF894FFCF40
:1054D800FFFFFFFF00E100000000000010030010C4
:1054E800270100000000009007800000C1808100B3
:1054F8000000000000001D0698053E0633068406DD
:105508004206600600000000DF096B05740A730A92
:10551800000000007C096B05740A730A47616D6519
:10552800204F76657221000D0A0048495420504CDE
:06553800414E4554210024
:00000001FF
