:100000000C94F3030C941B040C941B040C941B041D
:100010000C941B040C941B040C941B040C941B04E4
:100020000C941B040C941B040C949C170C940B183C
:100030000C941B040C941B040C941B040C941B04C4
:100040000C941B040C941B040C941B040C941B04B4
:100050000C941B040C941B040C941B040C9452175A
:100060000C941B040C941B040C941B040C941B0494
:100070000C941B040C941B040C941B040C941B0484
:100080000C941B040C941B040C941B040C941B0474
:100090000C941B040C941B040C941B040C941B0464
:1000A0000C941B040C941B040C941B04084AD73BAF
:1000B0003BCE016E84BCBFFDC12F3D6C74319ABD37
:1000C00056833DDA3D00C77F11BED9E4BB4C3E915B
:1000D0006BAAAABE000000803F05A84CCDB2D44E4A
:1000E000B93836A9020C50B9918688083CA6AAAA4C
:1000F0002ABE000000803F0003081F051F1F151BBC
:100100001F11111F110E1F15111F05011F111D1F9A
:10011000041F001F0010101F1F041B1F10101F06BC
:100120001F1F011F1F111F1F05071F311F1F051B49
:1001300017151D011F011F101F0F100F1F0C1F1B74
:10014000041B071C071915130C121E1F120C1E127C
:10015000120C121F0C1A14041F052E2A1E1F021C3B
:10016000001D00201D001F041A011F001E041E1E7A
:10017000021E1E121E3E120C0C123E1E020614120D
:100180000A020F121E101E0E100E1E081E1A041A4E
:100190002E281E1A12161F111F001F001D151711E1
:1001A000151F07041F17151D1F151D01011F1F1502
:1001B0001F17151F00170000100000000000003E70
:1001C0005B4F5B3E3E6B4F6B3E1C3E7C3E1C183CC7
:1001D0007E3C181C577D571C1C5E7F5E1C00183C23
:1001E0001800FFE7C3E7FF0018241800FFE7DBE76C
:1001F000FF30483A060E2629792926407F05050753
:10020000407F05253F5A3CE73C5A7F3E1C1C0808AE
:100210001C1C3E7F14227F22145F5F005F5F060973
:100220007F017F006689956A606060606094A2FFCC
:10023000A29408047E040810207E201008082A1CBE
:1002400008081C2A08081E101010100C1E0C1E0C8A
:1002500030383E3830060E3E0E060000000000002A
:10026000005F00000007000700147F147F14242A99
:100270007F2A12231308646236495620500008076B
:100280000300001C2241000041221C002A1C7F1C8C
:100290002A08083E0808008070300008080808088E
:1002A000000060600020100804023E5149453E00F5
:1002B000427F400072494949462141494D33181453
:1002C000127F1027454545393C4A494931412111A2
:1002D00009073649494936464949291E0000140094
:1002E00000004034000000081422411414141414B7
:1002F000004122140802015909063E415D594E7C15
:100300001211127C7F494949363E414141227F41C9
:1003100041413E7F494949417F090909013E414127
:1003200051737F0808087F00417F41002040413F12
:10033000017F081422417F404040407F021C027F21
:100340007F0408107F3E4141413E7F090909063E76
:100350004151215E7F091929462649494932030145
:100360007F01033F4040403F1F2040201F3F403857
:10037000403F631408146303047804036159494D32
:1003800043007F4141410204081020004141417F68
:1003900004020102044040404040000307080020DE
:1003A000545478407F2844443838444444283844DE
:1003B00044287F385454541800087E090218A4A415
:1003C0009C787F0804047800447D40002040403D34
:1003D000007F1028440000417F40007C04780478AE
:1003E0007C080404783844444438FC182424181841
:1003F000242418FC7C08040408485454542404049D
:100400003F44243C4040207C1C2040201C3C403089
:10041000403C44281028444C9090907C4464544CB8
:100420004400083641000000770000004136080013
:1004300002010204023C2623263C1EA1A161123ABD
:100440004040207A3854545559215555794121540A
:10045000547841215554784020545579400C1E520F
:1004600072123955555559395454545939555454B3
:10047000580000457C410002457D420001457C401A
:10048000F0292429F0F0282528F07C545545002037
:1004900054547C547C0A097F4932494949323248D4
:1004A000484832324A4848303A4141217A3A42403B
:1004B0002078009DA0A07D39444444393D4040400F
:1004C0003D3C24FF2424487E4943662B2FFC2F2BE0
:1004D000FF0929F620C0887E090320545479410081
:1004E00000447D413048484A32384040227A007A00
:1004F0000A0A727D0D19317D2629292F28262929DE
:10050000292630484D4020380808080808080808FF
:10051000382F10C8ACBA2F102834FA00007B000026
:1005200008142A142222142A14089500220095AADD
:10053000005500AAAA55AA55AA000000FF001010F5
:1005400010FF00141414FF001010FF00FF1010F033
:1005500010F0141414FC001414F700FF0000FF0046
:10056000FF1414F404FC141417101F10101F101F94
:100570001414141F00101010F0000000001F1010C1
:1005800010101F10101010F010000000FF101010BD
:10059000101010101010FF10000000FF140000FFDA
:1005A00000FF00001F10170000FC04F414141710C3
:1005B000171414F404F40000FF00F71414141414B6
:1005C0001414F700F7141414171410101F101F142C
:1005D0001414F4141010F010F000001F101F00008D
:1005E000001F14000000FC140000F010F01010FFB9
:1005F00010FF141414FF141010101F00000000F05E
:1006000010FFFFFFFFFFF0F0F0F0F0FFFFFF000032
:10061000000000FFFF0F0F0F0F0F38444438447CD9
:100620002A2A3E147E02020606027E027E026355DC
:100630004941633844443C04407E201E2006027E2B
:10064000020299A5E7A5991C2A492A1C4C7201723D
:100650004C304A4D4D303048784830BC625A463DA7
:100660003E494949007E0101017E2A2A2A2A2A445C
:10067000445F444440514A444040444A5140000091
:10068000FF0103E080FF000008086B6B083612369C
:100690002436060F090F060000181800000010107D
:1006A000003040FF0101001F01011E00191D17123B
:1006B000003C3C3C3C0000000000080B0002020231
:1006C00000000904000001020200000524001001DE
:1006D0000524010101042402060524060001070582
:1006E000810310004009040100020A000000070510
:1006F00002024000000705830240000004030904D1
:1007000012010002EF020140412336800001010284
:10071000030141726475696E6F204C4C4300417255
:100720006475626F7900F0F89C8E8783878E9CF8E1
:10073000F00000FEFF0303030303070EFCF80000B4
:10074000FEFF0303030303070EFCF80000FFFF0096
:10075000000000000000FFFF0000FEFF8383838392
:1007600083C7EE7C380000F8FC0E07030303070E76
:10077000FCF800003F7FE0C08080C0E07F3FFFFFCB
:1007800001010101010101FFFF0000FFFF0C0C0C42
:100790000C1C3E77E3C100007FFFC0C0C0C0C0E0BA
:1007A000703F1F00001F3F70E0C0C0C0E0703F1FDF
:1007B00000007FFFC1C1C1C1C1E3773E1C00001F23
:1007C0003F70E0C0C0C0E0703F1F000000000001AB
:1007D000FFFF01000000D5F08D14A1C881CFD9F131
:1007E000AF200000701A11241FBECFEFDAE0DEBF89
:1007F000CDBF11E0A0E0B1E0EAE4FFE502C0059062
:100800000D92A838B107D9F728E0A8E8B1E001C0F7
:100810001D92A435B207E1F713E0C3EFD3E004C0A3
:100820002197FE010E94782EC23FD107C9F70E948E
:10083000A71A0C94A32F0C940000480F592F511D98
:100840001416150684F5803891056CF597FF02C0E3
:1008500090E080E04138510514F040E850E0481B3A
:10086000FB01E770FF2721E001C0220FEA95EAF7BC
:1008700077FF02C0695F7F4FFB0133E0F595E79595
:100880003A95E1F7F695FE2FEE27F795E795E80FF5
:10089000F91FEA5DFD4F415030F08191DF01119762
:1008A000822B8C93F8CF0895E6E2F2E0A0E0B8E066
:1008B00000800EBC8111012C1197A0FDFDCF01928B
:1008C000B9F70DB40895FC0180912502882311F138
:1008D0003FB7F89482E08093E9002091F200822FE4
:1008E00090E01816190614F481E090E0882339F09E
:1008F000289844E6409324024091F100408322234B
:1009000039F02091F200211103C02BE62093E8007A
:100910003FBF08958FEF9FEF08952FB7F89483E0BE
:100920008093E9009091E800892F807295FF04C0C0
:100930009091F20080E4891B2FBF089580911C02E2
:1009400081110DC082E08093180284E08093190227
:1009500010921B0210921A0281E080931C0288E11F
:1009600092E008953FB7F894809114029091150297
:10097000A0911602B091170226B5A89B05C02F3F83
:1009800019F00196A11DB11D3FBFBA2FA92F982FB5
:100990008827BC01CD01620F711D811D911D42E0B0
:1009A000660F771F881F991F4A95D1F708958F9278
:1009B0009F92AF92BF92CF92DF92EF92FF926B0124
:1009C0007C010E94B2044B015C01C114D104E1041A
:1009D000F104B9F00E94B204681979098A099B09E7
:1009E000683E73408105910580F321E0C21AD10869
:1009F000E108F10888EE880E83E0981EA11CB11C66
:100A0000E4CFFF90EF90DF90CF90BF90AF909F909A
:100A10008F90089540918A0150918B012091880117
:100A20003091890142175307B4F49091E800957012
:100A3000E1F39091E80092FD19C08093F10080915C
:100A40008A0190918B0101968F739927892B19F454
:100A50008EEF8093E80080918A0190918B0101963E
:100A600090938B0180938A0181E0089580E008953E
:100A7000DF92EF92FF920F931F93CF93DF93D82EC5
:100A80008A01EB017B01E40EF51ECE15DF0559F05E
:100A9000D7FE12C0FE0184910E940A0521968111A1
:100AA000F4CF0FEF1FEFC801DF91CF911F910F918E
:100AB000FF90EF90DF9008958881EECF0F931F9302
:100AC000CF93DF931F92CDB7DEB782E0898342E4F4
:100AD00050E06AEB76E080E80E9438050E949E04B0
:100AE000DC0112960D911C910115110589F0D801B8
:100AF000ED91FC910280F381E02DBE016F5F7F4F8D
:100B0000C801099597FD04C0F80100851185ECCF57
:100B100089810F90DF91CF911F910F9108956150BE
:100B200030F02091F100FC0120830196F8CF289845
:100B300084E6809324020895AF92BF92CF92DF9211
:100B4000EF92FF920F931F93CF93DF936C017B0182
:100B50008B01040F151FEB015E01AE18BF08C01713
:100B6000D10759F06991D601ED91FC910190F08186
:100B7000E02DC6010995892B79F7C501DF91CF9149
:100B80001F910F91FF90EF90DF90CF90BF90AF90AB
:100B900008958F929F92AF92BF92CF92DF92EF9281
:100BA000FF920F931F93CF93DF936C017B018A0118
:100BB00080910B01882309F45CC080912502882371
:100BC00009F457C080918E0180FF05C08091E0003C
:100BD00082608093E000E801B12C8AEFA82E93E0B8
:100BE000892E2AE3922E209711F4BB20D9F10E947E
:100BF0008D0481110AC0AA94AA20D9F161E070E0A5
:100C000080E090E00E94D704EECF8C171D0611F013
:100C10000CF08C2F9FB7F8948092E9002091E800A7
:100C200025FD02C09FBFDFCF282F30E0C21BD30BB2
:100C3000F701815020F041914093F100FACFE20E8C
:100C4000F31EBB2021F09092E800B12CEBCF8091F5
:100C5000E80085FDE7CF9092E800BB24B39420978D
:100C600009F3F3CF5D9884E680938D011016110689
:100C70003CF081E090E0F6019383828310E000E095
:100C8000C801DF91CF911F910F91FF90EF90DF90FE
:100C9000CF90BF90AF909F908F900895CF93DF93A8
:100CA0001F92CDB7DEB76983DC01ED91FC91028024
:100CB000F381E02D41E050E0BE016F5F7F4F099569
:100CC0000F90DF91CF91089583E08093E9008091A8
:100CD000F200882319F08AE38093E80008950E94C7
:100CE0008D0490E00895CF93DF931F92CDB7DEB7C8
:100CF000FC018485958597FD08C02FEF3FEF358770
:100D000024870F90DF91CF910895CE0101960E9424
:100D10006304019719F4898190E0F3CF8FEF9FEF7F
:100D2000F0CF0F931F93CF93DF931F92CDB7DEB712
:100D30008C01FC018485958597FF0BC0CE0101963F
:100D40000E946304019771F4898190E0F80195870E
:100D50008487F801848595850F90DF91CF911F914D
:100D60000F9108958FEF9FEFF1CFFC01848595855A
:100D700097FD0BC09FB7F89482E08093E9008091C3
:100D8000F2009FBF90E0019608959FB7F89482E02B
:100D90008093E9008091F2009FBF90E008954F9208
:100DA0005F926F927F928F929F92AF92BF92CF92FB
:100DB000DF92EF92FF920F931F93CF93DF934C013B
:100DC0005901FC2DC02FD0E0CE01880D991D1816B9
:100DD00019060CF067C09B012E0D311D121613066B
:100DE0000CF060C0603471050CF05CC04115510519
:100DF00009F458C0262F2770F22EDB0177FD1796D5
:100E000033E0B595A7953A95E1F73A2F77FF04C0FF
:100E1000FF2011F03FEF3A0F66277727681979090D
:100E200097FC02C070E060E0803891050CF44BC084
:100E300090E89819961BA32F032E000CBB0B1A2FBA
:100E400010953F3F0CF010E021E08E2D877009F4E3
:100E500020E0E694E694E694E20EAE0DB11D1997FB
:100E60001CF028E0E22EE31AE11A310F20E83203E9
:100E7000D0011124A80DB91DA60FB71F019F600D49
:100E8000711D1124460F571F0F2D0F2C000C110B35
:100E9000F33009F41CC1C8F4F13009F4D0C0F230C9
:100EA00009F47CC0DF91CF911F910F91FF90EF90DB
:100EB000DF90CF90BF90AF909F908F907F906F907A
:100EC0005F904F900895902FB5CFFA3FB1F1232F47
:100ED0002E0DFB3F39F7321729F3BD016A5D7D4FB7
:100EE000D12CC12CC91608F0A4C0FA01EC0DFD1DCF
:100EF000E491F0E04F01002E02C0880C991C0A9486
:100F0000E2F737FD06C0FB018081E82CE0948E21DA
:100F10008083FF2061F0373054F45B01F0E8AF0EBE
:100F2000B11CE92CE094F50180818E218083FFEFD4
:100F3000CF1ADF0A6F5F7F4FD5CF232F2E0D3217C9
:100F400009F4B0CFBD016A5D7D4FD12CC12CC9160B
:100F500008F069C0FA01EC0DFD1DE491F0E04F01CD
:100F6000002E02C0880C991C0A94E2F737FD04C0D9
:100F7000FB01808188298083FF2051F0373044F4C1
:100F80005B01F0E8AF0EB11CF501808189298083F7
:100F9000FFEFCF1ADF0A6F5F7F4FD9CF6FEF70E09F
:100FA0000F2C02C0660F771F0A94E2F760957095C8
:100FB000772E232F2E0D321709F474CFFD01EA5D31
:100FC000FD4F6F01B12CA12CA91638F5FA01EA0DDD
:100FD000FB1DE491F0E02F01002E02C0440C551CD3
:100FE0000A94E2F737FD05C0F60180818623842943
:100FF0008083FF2059F037304CF44601F0E88F0E23
:10100000911CF4018081872185298083FFEFAF1A2D
:10101000BF0A8FEFC81AD80AD7CF3F5F4C0F5D1FAA
:10102000A058BF4FC8CF3F5F4C0F5D1FA058BF4FA8
:1010300086CF3F5F4C0F5D1FA058BF4F4CCF6A0D4E
:101040007B1D232F2E0D321709F42CCFFD01EA5DF5
:10105000FD4F6F01B12CA12CA91688F5FB01EA0DFB
:10106000FB1D8490912C002E02C0880C991C0A94C0
:10107000E2F780949094FA01EA0DFB1D6490712CC4
:10108000002E02C0660C771C0A94E2F737FD05C0FB
:10109000F6018081882186298083FF2049F037303E
:1010A0003CF4F601E058FF4F808189218729808335
:1010B000FFEFAF1ABF0A8FEFC81AD80ACDCF3F5F34
:1010C0004C0F5D1F6C0F7D1FA058BF4FBCCFC92EAA
:1010D000D12CFA01E60FF71FAA5DBD4F00E810E022
:1010E0000C191D09CC19DD09BE01660F771F41E0FF
:1010F00050E06A010F2C01C0CC0C0A94EAF7592F7A
:101100002E2D792ECF93DF93ED01EF96EF96229659
:101110008590A590FF2059F08C9C4001AC9C50011B
:1011200037302CF4E880B094EB20E928E99233239F
:101130003AF0EC90A094EA20E828ED920C94A108F3
:1011400011965A9529F72A9551F0572D3395112468
:10115000E60FF11DA00FB11DC00FD11DD9CFDF913A
:10116000CF9111249FCE2D9A0895BC0190E080E08C
:101170000C94D7048FB18095807F669B88601C9B00
:101180008460089580E0E6E2F2E081118FEF0024B0
:1011900081938193819381930394D1F7109291016C
:1011A0001092900110929701109296010895CF939A
:1011B000C82F0E94BA08982F9C2381E09C1380E0DE
:1011C000CF91089580E00C94540480389105B8F4D0
:1011D00060347105A0F420E191E061FD94E060FDD0
:1011E000990F62FD9295687F269FD0011124A80F68
:1011F000AA5DBD4F8C9140FF03C0892B8C9308954D
:1012000090958923FBCF2F923F924F925F926F92DE
:101210007F928F929F92AF92BF92CF92DF92EF9286
:10122000FF920F931F93CF93DF93EC018B017A0111
:101230006901C61AD70AD7FE03C0D194C194D10858
:1012400047018C1A9D0A97FE03C0919481949108DE
:101250008C149D0454F49E2D8F2D7901292F382F45
:101260009C2F8D2FE801092F182FEC16FD0654F442
:10127000902F812F8901292F382F9C2F8D2FE70147
:10128000E92EF82E17012C1A3D0A2901401A510A9D
:1012900057FE03C0519441945108310137FE03C0F9
:1012A0008FEF681A780A759467948FEF0217130707
:1012B0000CF481E0A82E880FBB08EC16FD06A4F004
:1012C00041E0BE01C8018C149D0414F0B801CE01A8
:1012D0000E94E5086418750877FE04C00A0D1B1DFE
:1012E000620C731C2196E9CFDF91CF911F910F9172
:1012F000FF90EF90DF90CF90BF90AF909F908F9036
:101300007F906F905F904F903F902F900895EF9255
:10131000FF920F931F93CF93DF937C018B01040FF8
:10132000111DEB0177FF02C0D0E0C0E0C80101341D
:10133000110514F080E490E0C817D9073CF441E0AF
:10134000BE01C7010E94E5082196F0CFDF91CF9141
:101350001F910F91FF90EF9008952F923F924F921F
:101360005F926F927F928F929F92AF92BF92CF9235
:10137000DF92EF92FF920F931F93CF93DF9300D0F2
:101380001F92CDB7DEB76C015B01242F30E03B83A9
:101390002A83440F4F5F621B730B0E94870901E091
:1013A00010E08A819B81081B190B1C013194219448
:1013B0003108220C331CF12CE12C66246394712C2F
:1013C0002A813B81E216F3060CF03FC017FD09C0ED
:1013D000215031093B832A8332E0230E311C020D58
:1013E000131D8FEFE81AF80A92E0690E711C060DC2
:1013F000171D8A81880F8F5F8983482F25012A81D5
:101400003B81421A530AB201C7018C0D9D1D0E94F7
:10141000870945018E189F08462DB4018A819B815A
:101420008C0D9D1D0E9487094981B201C6018E194C
:101430009F090E948709462DB401C6012A813B817C
:10144000821B930B0E948709BBCF0F900F900F90C8
:10145000DF91CF911F910F91FF90EF90DF90CF9090
:10146000BF90AF909F908F907F906F905F904F90C4
:101470003F902F9008958F929F92AF92BF92CF92FC
:10148000DF92EF92FF920F931F93CF93DF936D3014
:1014900089F0C0909001D09091016A30D1F41092FF
:1014A00097011092960188E0C80ED11CD09291014C
:1014B000C092900181E090E0DF91CF911F910F9158
:1014C000FF90EF90DF90CF90BF90AF909F908F9064
:1014D00008950091960110919701E5E06E9FE0015B
:1014E0001124C654DE4F4801F12CF5E0E12CFF1623
:1014F00029F0CE010196FE01E490EC01B12CA12C63
:101500004E2D4170B6016A0D7B1DC4010E94E50895
:10151000E694FFEFAF1ABF0A88E0A816B10481F77E
:10152000F394EFEF8E1A9E0AF6E0FF12DECF0A5F09
:101530001F4F1093970100939601BCCF80E090E07D
:10154000A0E8B3E48093FF0190930002A09301020E
:10155000B093020280E090E0A2EAB2E48093FB0143
:101560009093FC01A093FD01B093FE0110920B0239
:1015700010920C0210920D0210920E0210920702AD
:10158000109208021092090210920A0210920302AD
:1015900010920402109205021092060208954F92D2
:1015A0005F926F927F928F929F92AF92BF92CF92F3
:1015B000DF92EF92FF920F931F93CF93DF93CDB7FC
:1015C000DEB764970FB6F894DEBF0FBECDBF2B0118
:1015D0003C01298B3A8B4B8B5C8BE982FA820B8323
:1015E0001C83AD82BE82CF82D8862BA93CA94DA98F
:1015F0005EA96BA57CA58DA59EA50E94B22A6B0154
:101600007C012FA538A949A95AA969817A818B81C2
:101610009C810E94B22A69877A878B879C872FA139
:1016200038A549A55AA56FA578A989A99AA90E94A4
:10163000B22A6D877E878F87988B2BA93CA94DA9ED
:101640005EA96D817E818F8198850E94B22A2D8549
:101650003E854F8558890E94682D4B015C01298584
:101660003A854B855C85C701B6010E94682D9B01B8
:10167000AC01C501B4010E94B32A69837A838B83CC
:101680009C8320E030E0A9010E94912B882309F47B
:101690009DC02FA538A949A95AA9C301B2010E942A
:1016A000B22A4B015C012BA93CA94DA95EA969890D
:1016B0007A898B899C890E94B22A2B013C01A50161
:1016C0009401C701B6010E94682D6B017C01A30142
:1016D00092016D857E858F8598890E94682D9B017A
:1016E000AC01C701B6010E94B32A29813A814B811E
:1016F0005C810E949B2B6B017C0120E030E0A90102
:101700000E945B2D87FD62C020E030E040E85FE38F
:10171000C701B6010E94912B18160CF457C02D81F9
:101720003E814F8158856BA97CA98DA99EA90E94F5
:10173000B22AA50194010E94682D4B015C01A3010E
:10174000920169857A858B859C850E94682D9B0115
:10175000AC01C501B4010E94B32A29813A814B81B1
:101760005C810E949B2B4B015C0120E030E0A901D1
:101770000E945B2D87FD2AC020E030E040E85FE357
:10178000C501B4010E94912B181604F1A70196011E
:1017900060E070E080E89FE30E94B22AA501940116
:1017A0000E94B22A6B017C0120E030E0A9010E9476
:1017B0005B2D87FD0BC011E020E030E040E85FE3E7
:1017C000C701B6010E94912B18160CF410E0812F6E
:1017D00064960FB6F894DEBF0FBECDBFDF91CF91F8
:1017E0001F910F91FF90EF90DF90CF90BF90AF903F
:1017F0009F908F907F906F905F904F900895CF92C1
:10180000EF920F93CF93DF93EC018E816A3069F4EE
:101810009D819C836985860F8E8381E090E0DF91B6
:10182000CF910F91EF90CF9008956A3378F46033A1
:1018300008F051C0613209F450C09FE36E3291F05C
:1018400098859D5F8C81890F8C83E7CF6134C0F3CD
:101850006B3530F09FE9960F9A3190F799EB01C004
:101860009FEB960F61E0680F062E000C770BAC81A2
:101870000A2E000CBB0BE8EFF0E029EF30E08F817F
:10188000813069F50491F901E4904AEF50E0992321
:10189000D1F041E050E08E2D877011F450E040E02F
:1018A0002E2D269526952695240F352F311D029F26
:1018B000F001039FF00D11249E9FA0019F9F500DEA
:1018C000112446505F4F9AEFC92E30E020E0CD0141
:1018D0000E94CF06B5CF94E0C4CF9EE3C3CF04915E
:1018E000F901E4904AEF50E09923D1F041E050E053
:1018F0008E2D877011F450E040E02E2D2695269510
:101900002695240F352F311D029FF001039FF00D06
:1019100011249E9FA0019F9F500D112446505F4FA0
:101920008BEFC82ED2CF089590E080E008952F92DB
:101930003F924F925F926F927F928F929F92AF925F
:10194000BF92CF92DF92EF92FF920F931F93CF93AC
:10195000DF93CDB7DEB7E1970FB6F894DEBF0FBEC9
:10196000CDBF89AB788F6F8B298F3A8F4B8F5C8F70
:10197000ED8EFE8E0F8F18A328960EAD1FAD289703
:101980002A966EAC7FAC2A972C964EAC5FAC2C9707
:101990002E962EAC3FAC2E9760962EAD3FAD609745
:1019A0003A832983C601B5010E94962B6B837C8301
:1019B0008D839E83C601B5010E94D52D6F837887E4
:1019C00089879A87B401990C880B990B0E94452C42
:1019D0004B015C01B801110F880B990B0E94452C3B
:1019E0006B017C01B301770C880B990B0E94452C8D
:1019F00069A37AA38BA39CA3B201550C880B990B06
:101A00000E94452C6DA37EA38FA398A7B101330C30
:101A1000880B990B0E94452C69A77AA78BA79CA7D6
:101A200029813A81B901330F880B990B0E94452C0B
:101A30006DA77EA78FA798AB2B813C814D815E81DE
:101A4000C501B4010E94682D2B013C012F8138850E
:101A500049855A85C701B6010E94682D9B01AC01DA
:101A6000C301B2010E94B22A298D3A8D4B8D5C8D43
:101A70000E94B32A0E940D2C6F87788B898B9A8BDA
:101A80008F8598899A8389832F81388549855A85DE
:101A9000C501B4010E94682D4B015C012B813C8182
:101AA0004D815E81C701B6010E94682D9B01AC018A
:101AB000C501B4010E94B32A2D8D3E8D4F8D58A1D2
:101AC0000E94B32A0E940D2C6B8B7C8B8D8B9E8B7E
:101AD0002B883C882B813C814D815E8169A17AA154
:101AE0008BA19CA10E94682D6B017C012F81388500
:101AF00049855A856DA17EA18FA198A50E94682D68
:101B00009B01AC01C701B6010E94B22A298D3A8D12
:101B10004B8D5C8D0E94B32A0E940D2C6B877C87B5
:101B20008D879E876B847C842F81388549855A8573
:101B300069A17AA18BA19CA10E94682D6B017C01F7
:101B40002B813C814D815E816DA17EA18FA198A5E5
:101B50000E94682D9B01AC01C701B6010E94B32A07
:101B60002D8D3E8D4F8D58A10E94B32A0E940D2CC1
:101B70006B012B012B813C814D815E8169A57AA58A
:101B80008BA59CA50E94682D4B015C012F81388597
:101B900049855A856DA57EA58FA598A90E94682DB7
:101BA0009B01AC01C501B4010E94B22A298D3A8D76
:101BB0004B8D5C8D0E94B32A0E940D2C4B018B0132
:101BC0002F81388549855A8569A57AA58BA59CA55D
:101BD0000E94682D6F83788789879A872B813C8143
:101BE0004D815E816DA57EA58FA598A90E94682D67
:101BF0009B01AC016F81788589859A850E94B32A03
:101C00002D8D3E8D4F8D58A10E94B32A0E940D2C20
:101C10006F83788789879A872F8138853C832B83C8
:101C20008F89988D0797B1F199A9911137C03F8994
:101C300030FF09C096014B855C856B897C898F8557
:101C400098890E9403098F8981FF08C02F813885F8
:101C5000A401B6018B859C850E9403099F8992FD92
:101C60003FC1E1960FB6F894DEBF0FBECDBFDF9146
:101C7000CF911F910F91FF90EF90DF90CF90BF9089
:101C8000AF909F908F907F906F905F904F903F901C
:101C90002F90089529A9222309F411C14214530455
:101CA0000CF03FC18B819C81821593050CF452C1CD
:101CB000922D832D1201492E582E99818A817A8284
:101CC0006982692E782E2B813C8122163306D1F54C
:101CD00089819A816816790634F499818A817A8299
:101CE0006982692E782E29813A810217130734F010
:101CF000601671060CF4380109811A8130E423164C
:101D0000310408F0AECF41E0460D401BB101C801DF
:101D1000E1960FB6F894DEBF0FBECDBFDF91CF9135
:101D20001F910F91FF90EF90DF90CF90BF90AF90F9
:101D30009F908F907F906F905F904F903F902F90EB
:101D40000C941D04902F812F09811A8199838A8315
:101D50009B818C813C822B82292E382E9301201B63
:101D6000310B3C8B2B8BC2012B813C81821B930B53
:101D700098878F8389809A80801A910AC101821B7B
:101D8000930B9C878B8729813A81261937093A83DF
:101D90002983C10184199509988F8F8B42145304AC
:101DA00009F444C0920121503109388B2F87EB8010
:101DB000FC80D12CC12CB12CA12C8F8598898E153B
:101DC0009F05BCF1C5016F8178850E94502E9B0153
:101DD000200F311FC6016B857C850E94502E600F3D
:101DE000711F8B899C89A80EB91EC80CD91C62175B
:101DF00073071CF4922F9B01692F90E4E916F104FC
:101E000038F46F5F462F421BB701C9010E941D04C1
:101E10002FEFE21AF20AD1CF6F8478888B859C85E8
:101E20009A83898316014B885C8898CF588A4F869D
:101E3000BECFC7018419950929813A81829F60012B
:101E4000839FD00C929FD00C1124C7012B813C8121
:101E5000821B930B889D5001899DB00C989DB00CFE
:101E600011242E143F040CF4FCCEC6016F89788D2A
:101E70000E94502E9B01260D371DC5016B857C8568
:101E80000E94502E600F711F89819A81C80ED91E41
:101E9000A80CB91C621773071CF4922F9B01692FC1
:101EA00090E4E916F10438F46F5F462F421BB70146
:101EB000C9010E941D042FEFE21AF20AD2CF960147
:101EC0004B855C856B897C898F8598890E94030985
:101ED0002F813885A401B6018B859C850E9403095A
:101EE0002B893C894F8558896F817885C401E1969B
:101EF0000FB6F894DEBF0FBECDBFDF91CF911F911B
:101F00000F91FF90EF90DF90CF90BF90AF909F9098
:101F10008F907F906F905F904F903F902F900C9498
:101F200003092B813C81241535050CF0CCCE2B8187
:101F30003C81221533050CF46FCF0B851C856F8413
:101F400078889A8289824B885C882F803884DC82EA
:101F5000CB82AECE8B819C81841595050CF4FECE90
:101F60000B851C853401DC82CB824F805884F6CEF1
:101F70004F925F926F927F928F929F92AF92BF9299
:101F8000CF92DF92EF92FF920F931F93CF93DF9345
:101F9000CDB7DEB7A8970FB6F894DEBF0FBECDBFA2
:101FA000698F7A8F8B8F9C8F2D8F3E8F4F8F58A389
:101FB000C801B7012BAD3CAD4DAD5EAD298B3A8B61
:101FC0004B8B5C8B20E030E040E05FE30E94682DAB
:101FD00069877A878B879C8720E030E040E05FE369
:101FE000C601B5010E94682D6D877E878F87988B0B
:101FF00049845A846B847C8477FA709477F870945F
:10200000DC01CB01B05889839A83AB83BC83698997
:102010007A898B899C890E94962B6D837E838F831E
:10202000988769897A898B899C890E94D52D6B0153
:102030007C012D813E814F815885C301B2010E94F0
:10204000682D698B7A8B8B8B9C8BA701960169819C
:102050007A818B819C810E94682D6D8B7E8B8F8B0A
:10206000988FA7019601C301B2010E94682D69A350
:102070007AA38BA39CA32D813E814F8158856981D2
:102080007A818B819C810E94682D69837A838B83FE
:102090009C832D813E814F81588569857A858B850A
:1020A0009C850E94682D2B013C01A7019601698542
:1020B0007A858B859C850E94682D4B015C01A70168
:1020C00096016D857E858F8598890E94682D6B01AC
:1020D0007C012D813E814F8158856D857E858F8560
:1020E00098890E94682D6D837E838F8398872D89C0
:1020F0003E894F89588D69897A898B899C890E948C
:10210000B22A298D3A8D4B8D5C8D0E94B32A0E9494
:102110000D2C69877A878B879C8729813A814B812F
:102120005C8169A17AA18BA19CA10E94B32A2D8D0B
:102130003E8D4F8D58A10E94B32A0E940D2C6D87B1
:102140007E878F87988B2D893E894F89588DC30153
:10215000B2010E94B22A298D3A8D4B8D5C8D0E946E
:10216000B32A0E940D2C6D8B7E8B8F8B988FA501CF
:10217000940169817A818B819C810E94B32A2D8D83
:102180003E8D4F8D58A10E94B32A0E940D2C698369
:102190007A838B839C83A7019601C301B2010E94BD
:1021A000B22A298D3A8D4B8D5C8D0E94B32A0E94F4
:1021B0000D2C6DA37EA38FA398A72D813E814F8107
:1021C0005885C501B4010E94B32A2D8D3E8D4F8DD7
:1021D00058A10E94B32A0E940D2C4B01A701960121
:1021E00069897A898B899C890E94B22A298D3A8DC6
:1021F0004B8D5C8D0E94B32A0E940D2C6B012D81AA
:102200003E814F81588569A17AA18BA19CA10E9432
:10221000B32A2D8D3E8D4F8D58A10E94B32A0E9466
:102220000D2C2B0129813A814D895E896D857E8532
:1022300089859A850E94030994014DA15EA1698157
:102240007A818D899E890E9403099201A601B401B9
:102250008DA19EA10E9403092D853E8549855A8541
:10226000B201C601A8960FB6F894DEBF0FBECDBF6F
:10227000DF91CF911F910F91FF90EF90DF90CF9062
:10228000BF90AF909F908F907F906F905F904F9096
:102290000C940309CF92DF92EF92FF926B017C01C5
:1022A000C114D104E104F10441F00E94E129A70125
:1022B00096010E944F2A6B017C01C701B601FF9075
:1022C000EF90DF90CF9008952F923F924F925F92C0
:1022D0006F927F928F929F92AF92BF92CF92DF9236
:1022E000EF92FF920F931F93CF93DF9300D000D014
:1022F00000D0CDB7DEB780E790E00E947E2E9E83AF
:102300008D838C011C01712C612C6BE070E080E0EE
:1023100090E00E944A116550710981099109660D8A
:10232000771D77FFF4C068597E4F072E000C880B8D
:10233000990B0E94452C25E33AEF4EE85CE30E949E
:10234000682D4B015C0161E177E280E090E00E9442
:102350004A110E94452C20E030E44CE156E40E94F2
:102360009B2B20E030E04CED52E40E94682D20E0F1
:1023700030E040E252E40E94B32A6B017C01C501C7
:10238000B4010E94962BA70196010E94682D6983D3
:102390007A838B839C83C501B4010E94D52DA7014C
:1023A00096010E94682D6B017C0161E177E280E07B
:1023B00090E00E944A110E94452C20E030E44CE15C
:1023C00056E40E949B2B20E030E040E850E40E945D
:1023D000682D20E030E040E050E40E94B22A2981DC
:1023E0003A814B815C810E94B32A4B015C0161E11F
:1023F00077E280E090E00E944A11F10180829182B0
:10240000A282B3820E94452C20E030E44CE156E4E5
:102410000E949B2B20E030E040E850E40E94682DB1
:1024200020E030E040E050E40E94B22AA70196018B
:102430000E94B32AF1016483758386839783F9E14F
:102440006F0E711C88E0280E311CEEE56E16E1E07F
:102450007E0609F05ACFAD80BE80F0E7AF0EB11C0A
:10246000C12CD12C760126013701F8012081318160
:1024700042815381C301B2010E94B32A2B013C0166
:10248000F8012481358146815781C701B6010E9438
:10249000B32A6B017C01085F1F4FA016B10629F714
:1024A00020E030E040E651E4C301B2010E949B2BE2
:1024B0000E940D2C7093C7076093C60720E030E0A0
:1024C00040E651E4C701B6010E949B2B0E940D2CEF
:1024D0007093C5076093C4078D819E8126960FB6C1
:1024E000F894DEBF0FBECDBFDF91CF911F910F914A
:1024F000FF90EF90DF90CF90BF90AF909F908F9024
:102500007F906F905F904F903F902F900895683626
:1025100081E078070CF409CF6856714006CFCF935D
:10252000DF9360E072E080E090E00E944A11C8E929
:10253000D1E00E94452C688379838A839B8360E085
:1025400072E080E090E00E944A110E94452C6C836A
:102550007D838E839F8362E070E080E090E00E9444
:102560004A1179876887DF91CF9108952F923F9222
:102570004F925F926F927F928F929F92AF92BF9293
:10258000CF92DF92EF92FF920F931F93CF93DF933F
:10259000CDB7DEB7A2970FB6F894DEBF0FBECDBFA2
:1025A0001092BF071092BE0735E0232E312C6EE04B
:1025B00070E080E090E00E944A112091C0073091C5
:1025C000C1073A872987FB0183E0EE0FFF1F8A9539
:1025D000E1F7E20FF31F20813181428153812D8386
:1025E0003E834F83588724813581468157812983D3
:1025F0003A834B835C83CB0101966EE070E00E94CE
:10260000502E23E0880F991F2A95E1F749855A85B6
:10261000480F591F5A8749872D813E814F81588520
:10262000A985BA856D917D918D919C910E94B22A68
:102630002B013C0129813A814B815C81E985FA8536
:1026400064817581868197810E94B22A6B017C0129
:10265000A30192010E94322B69877A878B879C871E
:102660000E94E12920E137E240E050E00E944F2A39
:102670000E94452C20E030E44CE156E40E949B2B64
:102680004B015C018091BE079091BF074EE2489FCD
:102690009001499F300D11242852394F3E872D87D4
:1026A000A5019401C301B2010E94682D2D813E81D4
:1026B0004F8158850E94B32A20E030E040E853E47F
:1026C0000E94B32AAD85BE856D937D938D939C93B7
:1026D0001397A5019401C701B6010E94682D2981B5
:1026E0003A814B815C810E94B32A20E030E040E8CF
:1026F00053E40E94B32AED85FE8564837583868347
:10270000978329853A854B855C8520873187428769
:10271000538768E770E080E090E00E944A110091E2
:10272000BE071091BF07BEE2B09FF001B19FF00D50
:102730001124E852F94F758764870F5F1F4F10937C
:10274000BF070093BE07E1E02E1A310809F02FCF32
:1027500028ED36E03AA329A3312C212C201631068E
:102760000CF061C1A9A1BAA114968D919D910D9013
:10277000BC91A02D8D8F9E8FAF8FB8A3E9A1FAA138
:10278000C084D184E284F384C701B6010E94962BF1
:102790004B015C01C701B6010E94D52D6B017C0184
:1027A00020E030E040EC5FEBC501B4010E94682DF1
:1027B0006D837E838F83988720E030E040E450EC87
:1027C000C701B6010E94682D69877A878B879C872D
:1027D00020E030E040EC5FEBC701B6010E94682DBD
:1027E0006D877E878F87988B20E030E040E450EC47
:1027F000C501B4010E94682D69837A838B839C8311
:1028000020E030E040EC5FE3C501B4010E94682D98
:10281000698B7A8B8B8B9C8B20E030E040EC5FE304
:10282000C701B6010E94682D6D8B7E8B8F8B988FB0
:1028300020E030E040E450E4C701B6010E94682D7A
:102840002B013C0120E030E040E450E4C501B4013C
:102850000E94682D698F7A8F8B8F9C8F20E030E0EB
:10286000A901C501B4010E94682DA30192010E9433
:10287000B32AA9A1BAA12D913D914D915C910E94DD
:10288000B32A4B015C01E9A1FAA180829182A28264
:10289000B38220E030E0A901C701B6010E94682D93
:1028A00029813A814B815C810E94B32A2D8D3E8D16
:1028B0004F8D58A10E94B32A6B017C01A9A1BAA136
:1028C0001496CD92DD92ED92FC92179729853A8568
:1028D0004B855C856D817E818F8198850E94B22AAF
:1028E000A50194010E94B32AE9A1FAA1668777871E
:1028F000808B918B29813A814B815C816D857E85AE
:102900008F8598890E94B32AA70196010E94B32A55
:10291000A9A1BAA152966D937D938D939C935597DF
:1029200029853A854B855C8569897A898B899C895B
:102930000E94B22AA50194010E94B32AE9A1FAA13A
:10294000668B778B808F918F2D893E894F89588D2B
:1029500069817A818B819C810E94B32AA7019601AB
:102960000E94B32AA9A1BAA15A966D937D938D9323
:102970009C935D97A301920169897A898B899C89CF
:102980000E94B22AA50194010E94B32AE9A1FAA1EA
:10299000668F778F80A391A3298D3A8D4B8D5C8DA7
:1029A0006D897E898F89988D0E94B32AA70196012F
:1029B0000E94B32AA9A1BAA192966D937D938D939B
:1029C0009C939597A30192016D817E818F8198855B
:1029D0000E94B22AA50194010E94B32AE9A1FAA19A
:1029E00066A377A380A791A7298D3A8D4B8D5C8D27
:1029F0006D857E858F8598890E94B32AA7019601EF
:102A00000E94B32AA9A1BAA19A966D937D938D9342
:102A10009C939D97BFEF2B1A3B0AE9A1FAA1BE96A2
:102A2000FAA3E9A39BCEE6E2F6E01082719626E0D7
:102A3000E03DF207D1F7A2960FB6F894DEBF0FBEC5
:102A4000CDBFDF91CF911F910F91FF90EF90DF905D
:102A5000CF90BF90AF909F908F907F906F905F903E
:102A60004F903F902F9008952F923F924F925F92F8
:102A70006F927F928F929F92AF92BF92CF92DF928E
:102A8000EF92FF920F931F93CF93DF93CDB7DEB7F3
:102A90002E970FB6F894DEBF0FBECDBF1092C307BE
:102AA0001092C20703E010E06EE070E080E090E07A
:102AB0000E944A112091C0073091C1073A872987A7
:102AC000FB0183E0EE0FFF1F8A95E1F7E20FF31F92
:102AD000208131814281538129833A834B835C83F6
:102AE00024813581468157812D833E834F835887CA
:102AF000CB0101966EE070E00E94502E23E0880F1B
:102B0000991F2A95E1F749855A85480F591F5A8719
:102B1000498729813A814B815C81E985FA85608109
:102B20007181828193810E94B22A2B013C012D8107
:102B30003E814F815885E985FA856481758186815A
:102B400097810E94B22A6B017C01A30192010E942D
:102B5000322B69877A878B879C870E94E12920E145
:102B600037E240E050E00E944F2A0E94452C20E0CE
:102B700030E44CE156E40E949B2B4B015C01209019
:102B8000C2073090C3074EE0429D9001439D300D37
:102B90001124285E374F3E872D87AC019B01C3016E
:102BA000B2010E94682D29813A814B815C810E948B
:102BB000B32A20E030E040E853E40E94B32AED85D8
:102BC000FE856083718382839383A5019401C7018D
:102BD000B6010E94682D2D813E814F8158850E944B
:102BE000B32A20E030E040E853E40E94B32AED85A8
:102BF000FE8564837583868397832BED3FE049ECE4
:102C00005FE369857A858B859C850E94B32AED8573
:102C1000FE856087718782879387FFEF2F1A3F0AAF
:102C20003092C3072092C2070150110909F03CCF2E
:102C30002E960FB6F894DEBF0FBECDBFDF91CF91B9
:102C40001F910F91FF90EF90DF90CF90BF90AF90CA
:102C50009F908F907F906F905F904F903F902F90BC
:102C60000895FC0101900020E9F73197AF01481B5E
:102C7000590BBC018CE498E00C949C058F929F92B8
:102C8000AF92BF920F931F93CF93DF93CDB7DEB771
:102C9000A1970FB6F894DEBF0FBECDBF19A2423088
:102CA00008F44AE08E010F5D1F4F842E912CB12C49
:102CB000A12CA50194010E94812AE62FB901CA0125
:102CC000EA30F4F4E05DD801EE938D01232B242B40
:102CD000252B79F790E080E0109719F0CD010E9444
:102CE0003116A1960FB6F894DEBF0FBECDBFDF91AF
:102CF000CF911F910F91BF90AF909F908F900895AB
:102D0000E95CE1CFCF92DF92EF92FF92CF93DF9316
:102D10006B017C016DE28CE498E00E943B0AEC01BF
:102D200066277727CB016C197D098E099F094AE038
:102D30000E943E168C0F9D1FDF91CF91FF90EF9068
:102D4000DF90CF900895CF93DF930E943116EC016E
:102D50008CE491E00E9431168C0F9D1FDF91CF9182
:102D60000895BC01990F880B990B97FD0C9482165E
:102D70004AE00C943E160F931F93CF93DF938091FC
:102D80000D0190910E0101971816190644F59093C4
:102D90000E0180930D010E949E0A1092A2011092D2
:102DA000B3011092C4011092D5011092E601C8ED52
:102DB000D6E010E000E08091BE079091BF070817B1
:102DC00019070CF060C068E770E080E090E00E94B6
:102DD0004A117D876C870F5F1F4FAE96ECCF83E063
:102DE00090E090930E0180930D0180E29EE4909319
:102DF000100180930F011092FA011092F9010E94C4
:102E0000C2088AE090E090939701809396018EE14A
:102E100090E090939101809390018FE491E00E9463
:102E2000A3168AE591E00E94A3168BE691E00E942A
:102E3000A3160E94E20868EE73E080E090E00E9432
:102E4000D7048091F8018093F7010E94BA0880931B
:102E5000F8010E94BA088823A1F30E94B204611508
:102E600071058105910511F00E94302A0E946411BC
:102E70009093C1078093C0070E9434150E94B61238
:102E80000E948F1288CFE6E2F6E01082719686E00B
:102E9000E03DF807D1F7DF91CF911F910F91089591
:102EA0000C94392A1F920F920FB60F9211242F9370
:102EB0003F938F939F93AF93BF9380911002909114
:102EC0001102A0911202B091130230910F0223E07F
:102ED000230F2D3758F50196A11DB11D20930F0228
:102EE0008093100290931102A0931202B0931302E8
:102EF0008091140290911502A0911602B0911702D0
:102F00000196A11DB11D8093140290931502A09308
:102F10001602B0931702BF91AF919F918F913F918D
:102F20002F910F900FBE0F901F90189526E8230F3A
:102F30000296A11DB11DD2CF1F920F920FB60F9214
:102F400011248F939F938091E1009091E100937FF2
:102F50009093E10083FF0FC01092E90091E09093FD
:102F6000EB001092EC0092E39093ED00109225029A
:102F700098E09093F00082FF22C093E09093E900E4
:102F80009091F200992319F09AE39093E8009091C0
:102F90008D01992341F090918D01915090938D0175
:102FA000911101C05D9A90912402992341F0909172
:102FB0002402915090932402911101C0289A84FF19
:102FC00018C08091E2008E7E81608093E200809143
:102FD000E1008F7E8093E10080918E018E7E806182
:102FE00080938E019F918F910F900FBE0F901F9035
:102FF000189580FFF7CF8091E2008E7E80618093EC
:10300000E2008091E1008E7E8093E10080918E014C
:103010008E7E8160E5CF1F920F920FB60F92112422
:10302000CF92DF92EF92FF920F931F932F933F93D4
:103030004F935F936F937F938F939F93AF93BF93C0
:10304000EF93FF93CF93DF93CDB7DEB76C97DEBFDF
:10305000CDBF1092E9008091E80083FF25C068E0B1
:10306000CE0145960E948F0582EF8093E8008D89FE
:1030700087FF39C09091E80090FFFCCF982F9076A1
:1030800009F034C19E894F89588D2F89F88C911190
:1030900031C0803861F580918F018093F1001092EA
:1030A000F1008EEF8093E8006C960FB6F894DEBFC7
:1030B0000FBECDBFDF91CF91FF91EF91BF91AF9147
:1030C0009F918F917F916F915F914F913F912F9140
:1030D0001F910F91FF90EF90DF90CF900F900FBE58
:1030E0000F901F9018959EEF9093E800C7CF109215
:1030F000F100D5CF913059F48111D3CF4130510532
:1031000081F680918F018D7F80938F01CACF93309C
:1031100049F48111C6CF4130510519F680918F01D4
:103120008260F2CF953041F48091E80080FFFCCFBF
:1031300020682093E300B5CF963009F0A9C00B8D2D
:103140001C8D22E01092E90010928B0110928A01EE
:10315000F2122EC010928901109288010E945E0521
:103160001F8299E09983FA8291E09E8390EA988782
:103170009AEF998720918A0130918B01275F3F4F09
:103180003C832B838D831092E90010928B01109267
:103190008A01109389010093880149E050E0BE0143
:1031A0006F5F7F4F80E00E9438050E945E0579CFF7
:1031B00010938901009388010E949E04DC011296FD
:1031C0000D911C910115110509F451C1D801ED9122
:1031D000FC910480F581E02DBE016B5E7F4FC8013C
:1031E0000995009709F03EC1F80100851185EACFE5
:1031F000F3E0FF120EC08F89882309F440C08230AB
:1032000061F440E867E08EE197E00E943D1A811189
:1032100048CF81E28093EB0047CF813029F440E82A
:103220006BE082E197E0F1CF833099F70E949E0432
:10323000DC011296ED90FC908E010F5F1F4F68012C
:10324000E114F10479F0D701ED91FC910680F7814A
:10325000E02DB801C7010995080F111DF701E084A1
:10326000F184EECFD8011C92F60101900020E9F71D
:103270003197BF016C197D0940E0C601C6CF6CEFE4
:1032800076E0FB01449150E080E80E94380509CFC8
:10329000973009F4BECF983021F481E08093F1009B
:1032A00000CF993009F0FDCE837009F0B2CFECE188
:1032B000F1E081E031E096E32191222371F08093E7
:1032C000E9003093EB00DF0111972C912093EC0083
:1032D0009093ED008F5F873079F78EE78093EA0057
:1032E0001092EA008F8980932502DBCE8B8D9C8D16
:1032F0001092E90010928B0110928A01909389013B
:1033000080938801898D811192C08E899D89913A1F
:1033100049F4813209F07DCF47E050E064E071E08C
:1033200080E0B3CF913209F074CF833269F48F8992
:10333000988DB0E0A0E08093000190930101A093EC
:103340000201B0930301ADCE803269F48091E800B0
:1033500082FFFCCF67E084E091E00E948F058BEF55
:103360008093E8009ECE823209F09BCE8F898093B5
:103370000B01EEEFFFE7859194918B3F9C4D51F14E
:10338000E0E0F8E08091040190910501A091060130
:10339000B0910701803B9440A105B105F1F4809103
:1033A0000B0180FD1AC0EE3F8AE0F80789F587E738
:1033B00097E7918380838091600080938C0188E1FE
:1033C0009BE00FB6F894A895809360000FBE909391
:1033D000600067CEEEEFFAE0D5CF8081918187372C
:1033E000974709F05ECEA895809160008861809330
:1033F000600080918C0180936000EE3F2AE0F2072C
:1034000089F08091FE0A9091FF0A9183808349CED2
:10341000808191818737980751F29093FF0A8093BA
:10342000FE0AC5CF1092FF0A1092FE0A3ACE0E9401
:103430009E04DC0112960D911C910115110509F4F1
:10344000E8CED801ED91FC910190F081E02DBE0114
:103450006B5E7F4FC8010995811123CEF80100856D
:103460001185EBCF181619060CF41BCED2CEF1E065
:10347000FF12BECE60E077E004CFEF92FF920F9391
:103480001F93CF93DF93F82E192FE62E042F81E0A0
:10349000860F880F0E940A0583E00E940A05CF2D3F
:1034A000D12FEC0EFD2EF11CCE15DF05B9F007FF74
:1034B00013C0FE0184910E940A05182F80E00E942B
:1034C0000A05812321968111EFCFDF91CF911F91C2
:1034D0000F91FF90EF9008958881EDCF81E0F5CFB7
:1034E000E8ECF7E01382128288EE93E0A0E0B0E00F
:1034F00084839583A683B78386E291E0918380835A
:103500008FEF9FEF95878487ECE4F8E013821282B7
:1035100084E491E091838083E2E4F8E013821282F4
:1035200088E391E09183808388E0818781E08087D0
:103530001582168214828783E8E1F8E084EC99E032
:1035400095878487938F828F91A780A70895CF93C3
:10355000DF93CDB7DEB7E8970FB6F894DEBF0FBEA6
:10356000CDBF789484B5826084BD84B5816084BD0C
:1035700085B5826085BD85B5816085BD80916E0011
:10358000816080936E001092810080918100826042
:10359000809381008091810081608093810080917F
:1035A0008000816080938000809191008260809390
:1035B00091008091910081608093910080919000B2
:1035C0008160809390008091C10084608093C100ED
:1035D0008091C10082608093C1008091C1008160B0
:1035E0008093C1008091C30081608093C30080916B
:1035F000C00082608093C0008091C200816080938F
:10360000C20080917A00846080937A0080917A0071
:10361000826080937A0080917A00816080937A0042
:1036200080917A00806880937A001092250210922F
:103630008F0110928E018091D70081608093D70016
:1036400080EA8093D80089B5806189BD89B58260A0
:1036500089BD09B400FEFDCF61E070E080E090E03C
:103660000E94D7048091D8008F7C80618093D8001D
:103670008091E000807F8093E0008091E1008E7E69
:103680008093E1008DE08093E200559A209A8FEFBD
:103690009FEF9093D5078093D40760ED77E080E0AB
:1036A00090E00E94D70481EC80937C0085B1806F0C
:1036B00085B984B1877E84B984B1876E84B95E9AF6
:1036C0005F988AB1806D8AB9769A6E9881B3806F5F
:1036D00081BB899880B38D7080BB80E58CBD81E013
:1036E0008DBD85E090E00E94B5085F9A85E090E08E
:1036F0000E94B5085E985C98E6EDF7E083EE97E0EF
:1037000024912EBD00000DB407FEFDCF31968E171B
:103710009F07B1F75C9A81E880936400809165000F
:103720008160809365000E94E20880E80E94D708CB
:103730008823A9F05C9885EA8EBD00000DB407FED1
:10374000FDCF5C9A2E982F982D988091640080620E
:103750008093640081E083BF889513BEFCCF84E032
:103760000E94D708882309F448C02D9884E80E9455
:10377000D7088823E1F00E94B30888EC90E00E940B
:10378000B5082F9882E090E00E94392A8F3F29F0F7
:103790006FEF82E090E00E94412A84EF91E00E9466
:1037A000B5082F9A84E80E94D7088111FBCF84E1E5
:1037B0000E94D7088823E1F00E94B30888EC90E0CB
:1037C0000E94B5082E9882E090E00E94392A882352
:1037D00029F060E082E090E00E94412A84EF91E0CD
:1037E0000E94B5082E9A84E10E94D7088111FBCF70
:1037F00088EC90E00E94B508B2CF0E94B30882E046
:1038000090E00E945017882309F466C03E9A3F9AC0
:1038100081E090E00E945017282F2470722E81FFC3
:1038200015C021112E98A1EF2A2E33243A9408E0D6
:1038300010E0BCE6EB2EF12C80E40E94D708882330
:1038400009F44DC02E9A2F9A0E94B30882E390E0AB
:103850000E94B5080E94BA088111F8CF80E18093D8
:103860000C010E94B204611571058105910511F0EA
:103870000E94302A0E9464119093C1078093C00770
:103880000E9434150E94B6120E948F120E949E0A56
:103890001092A2011092B3011092C4011092D501AE
:1038A0001092E6018FB7F8944091100250911102E6
:1038B00060911202709113028FBFB0919401BFA763
:1038C000BB2309F4DEC01092940140E050E0452B88
:1038D00049F30E940000E6CF3E983F9899CF7720A9
:1038E00031F034E02316310411F42E9A2F9881E040
:1038F0000E945404910137FE04C022273327221965
:10390000330927703327C10137FC0796F3E09595FB
:103910008795FA95E1F737FE05C00197A801421B8C
:10392000530B9A01BC017695762F6627779567959C
:103930006A5D7D4FB0E0A0E02801421A530A8E3F35
:103940005FEF950709F446C048E550E0FD01E258F5
:10395000F84F5F014B01F0E88F0E911C8F3F9807E5
:10396000C9F0F501E41BF50B64906701C41AD50A90
:10397000C60ED71EE62DF0E0022E02C0EE0FFF1F8E
:103980000A94E2F7FE83ED83F6016080FD816F2AE1
:10399000F601608221153105C9F0F501E41BF50B34
:1039A00064906701C41AD50AC80CD91CE62DF0E052
:1039B000042C02C0F595E7950A94E2F7FE83ED83A7
:1039C000F6016080FD816F2AF60160824150510945
:1039D00009F0C4CF0196A85ABF4F60587F4FA03B53
:1039E000B10509F0ACCF0E94E2088FE090E00E94A0
:1039F000B508FFEF2F1A3F0A29E12216310409F01A
:103A00001BCF772011F02F9A2D9880E991E00E942A
:103A1000B5080E94B30881E090E00E94501780FF33
:103A200015CF8AE090E00E9450179FEF980F9E3FBD
:103A300008F00CCF22E330E03093970120939601F9
:103A400028E330E030939101209390014BE050E067
:103A50005A834983682F8CE498E00E943B0A89814D
:103A60009A810E945017A981BA811196BA83A983BD
:103A7000519781F70E94E20888EE93E00E94B50812
:103A8000E5CE80919501E42FE81B8E2F90910C01DB
:103A9000E91748F48F5F891708F017CF81E083BFDB
:103AA000889513BE12CF81E08093940140939501D5
:103AB000809192019091930101969093930180934C
:103AC0009201F091F801FD8BF093F7010E94BA0882
:103AD000898B8093F8010E94C20880E20E94D70877
:103AE0008823B1F02DEC3CEC4CEC5DE360910B02D3
:103AF00070910C0280910D0290910E020E94B22AE8
:103B000060930B0270930C0280930D0290930E024F
:103B100080E40E94D7088823B1F02DEC3CEC4CECFB
:103B20005DE360910B0270910C0280910D02909107
:103B30000E020E94B32A60930B0270930C028093D2
:103B40000D0290930E0288E00E94D708882309F4A2
:103B500058C000910F0110911001101611060CF0C1
:103B600050C08090030290900402A0900502B09093
:103B700006022BED3FE049EC5FE360910B02709190
:103B80000C0280910D0290910E020E94B22A6B01EC
:103B90007C010E94962B2AE037ED43EA5CE30E9409
:103BA000682D9B01AC016091070270910802809121
:103BB000090290910A020E94B32A6093070270934F
:103BC00008028093090290930A02C701B6010E947D
:103BD000D52D2AE037ED43EA5CE30E94682DA5016C
:103BE00094010E94B32A60930302709304028093AD
:103BF00005029093060200511109109310010093E1
:103C00000F012091FF01309100024091010250917B
:103C1000020229873A874B875C876091C6077091BB
:103C2000C7077395072E000C880B990B0E94452C33
:103C300029853A854B855C850E94B22A4B015C013F
:103C40008091FB019091FC01A091FD01B091FE01DA
:103C500089839A83AB83BC836091C4077091C50745
:103C60007395072E000C880B990B0E94452C298117
:103C70003A814B815C810E94B22A6B017C01A501D3
:103C80009401C501B4010E94682D2B013C01A701DC
:103C90009601C701B6010E94682D9B01AC01C301CA
:103CA000B2010E94B32A0E94E32D2B013C0120E0C7
:103CB00030E0A9010E945B2D181684F4A301920143
:103CC000C501B4010E949B2B4B015C01A301920131
:103CD000C701B6010E949B2B6B017C012AE037EDE6
:103CE00043EA5BE3C501B4010E94682D20910702FD
:103CF000309108024091090250910A020E94B32AB1
:103D00006D837E838F8398872AE037ED43EA5BE3F8
:103D1000C701B6010E94682D209103023091040270
:103D200040910502509106020E94B32A2B013C01EA
:103D30002D813E814F81588569857A858B859C854B
:103D40000E94B32A4B015C018092FF019092000215
:103D5000A0920102B0920202A301920169817A81CC
:103D60008B819C810E94B32A6B017C01C092FB0174
:103D7000D092FC01E092FD01F092FE0124E63BE3CB
:103D80004FE75FE36D817E818F8198850E94682D6A
:103D900060930702709308028093090290930A02CD
:103DA00024E63BE34FE75FE3C301B2010E94682DC5
:103DB00060930302709304028093050290930602BD
:103DC00020E030E0A901C501B4010E94912B87FFDA
:103DD00008C01092FF01109200021092010210928E
:103DE000020220E030E040E054E46091FF01709175
:103DF000000280910102909102020E945B2D181630
:103E000064F480E090E0A0E0B4E48093FF0190933C
:103E10000002A0930102B093020220E030E0A90169
:103E2000C701B6010E94912B87FF08C01092FB01C9
:103E30001092FC011092FD011092FE0120E030E092
:103E400040E054E46091FB017091FC018091FD0120
:103E50009091FE010E945B2D181664F480E090E0C2
:103E6000A0E0B4E48093FB019093FC01A093FD01DA
:103E7000B093FE012091FF013091000240910102B8
:103E8000509102022D833E834F83588720E030E01B
:103E900040E852E46D817E818F8198850E94B22A2C
:103EA0004B015C018092D4069092D506A092D60672
:103EB000B092D7068091FB019091FC01A091FD0189
:103EC000B091FE018D879E87AF87B88B20E030E0F0
:103ED00040E052E4BC01CD010E94B22A6B017C019A
:103EE000C092D006D092D106E092D206F092D306CC
:103EF00020E030E0A901C501B4010E94912B87FFA9
:103F000008C01092D4061092D5061092D6061092D0
:103F1000D70620E030E040EC53E46091D406709185
:103F2000D5068091D6069091D7060E945B2D181673
:103F300064F480E090E0A0ECB3E48093D406909326
:103F4000D506A093D606B093D70620E030E0A901AD
:103F5000C701B6010E94912B87FF08C01092D006BE
:103F60001092D1061092D2061092D30620E030E0D3
:103F700040EE53E46091D0067091D1068091D20654
:103F80009091D3060E945B2D181664F480E090E0B7
:103F9000A0EEB3E48093D0069093D106A093D2060E
:103FA000B093D3069D8992FD4AC0A989A2FF47C05C
:103FB000E2EAF1E050E040E02081211187C2609107
:103FC0000B0270910C0280910D0290910E0221E182
:103FD000249FF001259FF00D1124EE55FE4FFA832A
:103FE000E98321E020832D813E814F815885218303
:103FF0003283438354832D853E854F85588925839D
:104000003683478350872BED3FE049EC5FE30E9406
:10401000B22A6B017C010E94962BE981FA816187AB
:10402000728783879487C701B6010E94D52DA98125
:10403000BA811D966D937D938D939C935097E2EA80
:10404000F1E0FE8FED8FFA87E987A985BA858C911B
:10405000882309F432C119962D913D914D915C91BF
:104060001C9711966D917D918D919C9114970E9452
:10407000B32A2B013C01E985FA8541825282638291
:10408000748225853685478550896581768187814B
:1040900090850E94B32A69837A838B839C83A98548
:1040A000BA8515966D937D938D939C93189720E018
:1040B00030E0A901C301B2010E94912B87FD21C00C
:1040C00020E030E040E054E4C301B2010E945B2DE7
:1040D0001816BCF020E030E0A90169817A818B815B
:1040E0009C810E94912B87FD0CC020E030E040E0D5
:1040F00054E469817A818B819C810E945B2D181622
:104100001CF4E985FA85108228ED36E038AF2FAB34
:10411000912C812CAFA9B8AD9296BC91B98FEFA923
:10412000F8ADF3A1FF8FAFA9B8AD94962C909497FA
:104130009596BC91BBA3EFA9F8ADF68DFFA3AFA9EF
:10414000B8AD5F96BC91BBA7EFA9F8ADF0A1F8ABF5
:10415000AFA9B8AD91963C90919752962D913D9113
:104160004D915C9155972D8B3E8B4F8B588F1E96A2
:104170002D913D914D915C915197298B3A8B4B8BB1
:104180005C8BBBA1BF932F92EF8DEF93F98DFF93C3
:104190003F9228A92F933BA53F934FA14F93AFA9DF
:1041A000B8AD5D968C915D978F935C968C915C9782
:1041B0008F935B968C915B978F935A968C915A97BD
:1041C0008F9359968C9159978F9358968C915897B5
:1041D0008F9357968C9157978F9356968C918F9378
:1041E000AD88BE88CF88D88CE988FA880B891C896D
:1041F00029813A814B815C81C301B2010E94CF0ABF
:104200000FB6F894DEBF0FBECDBF89ABAFA9B8AD76
:104210009D968C919D978F939C968C919C978F9354
:104220009B968C919B978F939A968C919A978F934C
:1042300099968C9199978F9398968C9198978F9344
:1042400097968C9197978F9396968C918F93BBA10D
:10425000BF932F92EF8DEF93F98DFF933F9228A993
:104260002F933BA53F934FA14F93AD88BE88CF8836
:10427000D88CE988FA880B891C8929813A814B817D
:104280005C81C301B2010E94CF0A0FB6F894DEBF71
:104290000FBECDBFB9A9B11121C181111FC1EFEF6F
:1042A0008E1A9E0A2FA938AD225D3F4F38AF2FAB33
:1042B00035E08316910409F02DCF49855A854F5E6C
:1042C0005F4F5A874987475F514009F0BECE80E172
:1042D0000E94D70881112EC1A091BE07B091BF07DF
:1042E000BA8BA98BE8EDF6E0FA83E9838F01312CD4
:1042F000212C49895A89241635060CF06AC2D80146
:104300001C968D919C911D970197181619060CF417
:104310005BC2E8E7F0E01D96FC93EE931C971496C1
:104320002D913D914D915C9117972D8B3E8B4F8B2D
:10433000588FCD90DD90ED90FC902D813E814F8186
:104340005885C701B6010E94B22A2B013C012D8578
:104350003E854F8558896D897E898F89988D0E9409
:10436000B22A4B015C01A3019201C301B2010E9478
:10437000682D2B013C01A5019401C501B4010E94E7
:10438000682D9B01AC01C301B2010E94B32A20E059
:1043900030E041E655E40E94912B18160CF490C0D1
:1043A000E6E2F6E01A8E198E8081811101C241E1A8
:1043B000298D3A8D429FF001439FF00D1124EA5D53
:1043C000F94F51E05083C182D282E382F4828D8919
:1043D0009E89AF89B88D85839683A783B087A7010F
:1043E00096016D817E818F8198850E94B22A4B0152
:1043F0005C012D893E894F89588D6D857E858F851D
:1044000098890E94B22A2B013C01A5019401C501A3
:10441000B4010E94682D6B017C01A3019201C301CC
:10442000B2010E94682D9B01AC01C701B6010E9438
:10443000B32A0E94E32D6B017C012FE632E143E8B1
:104440005AE30E94912B87FF08C07FE6C72E72E1D6
:10445000D72E73E8E72E7AE3F72EE1E1A98DBA8D26
:10446000EA9FC001EB9F900D11249C012A5D394FFA
:104470003E8B2D8BA7019601C501B4010E949B2B99
:1044800020E030E040E05FE30E94682DAD89BE8906
:1044900019966D937D938D939C931C97A70196011C
:1044A000C301B2010E949B2B20E030E040E05FE3BB
:1044B0000E94682DED89FE89658776878787908BB6
:1044C000BFEF2B1A3B0A025D1F4F13CF4F5F5F4FA9
:1044D00071964530510509F06FCDB1CD8091F9014C
:1044E0009091FA0186509F4F9093FA018093F901C1
:1044F000A985BA851C928091BE079091BF0701974C
:104500009093BF078093BE07EEE2E89DD001E99D3E
:10451000B00D1124A852B94F2EE2289FF001299F17
:10452000F00D1124E852F94F8EE201900D928A9518
:10453000E1F7C3CE80910F01909110018197909384
:10454000100180930F01181619060CF0C5CE80904B
:104550000B0290900C02A0900D02B0900E02C501CB
:10456000B4010E94962B6B017C01C501B4010E942D
:10457000D52D4B015C0120E030E048EC51E40E9475
:10458000682D69837A838B839C8320E030E040E749
:1045900051ECC701B6010E94682D29813A814B81F7
:1045A0005C810E94B22A2D813E814F8158850E94F4
:1045B000B32A698F7A8F8B8F9C8F20E030E048EC94
:1045C00051E4C701B6010E94682D6D8B7E8B8F8BE5
:1045D000988F20E030E040E751ECC501B4010E9423
:1045E000682D2D893E894F89588D0E94B32A2D85CB
:1045F0003E854F8558890E94B32A6F8F78A389A37F
:104600009AA320E030E0A901C701B6010E94682DFD
:10461000698B7A8B8B8B9C8B20E030E0A901C501E4
:10462000B4010E94682D2B013C01AC019B016989FA
:104630007A898B899C890E94B22A2D813E814F8183
:1046400058850E94B32A6BA37FA38BA798ABA301C5
:10465000920169897A898B899C890E94B32A2D8568
:104660003E854F8558890E94B32A698B79AB8AAB06
:104670009BAB20E030E040E751E4C701B6010E9467
:10468000682D29813A814B815C810E94B22A2D815B
:104690003E814F8158850E94B32A69837CAB8DABE4
:1046A0009EAB20E030E040E751E4C501B4010E9438
:1046B000682D2D893E894F89588D0E94B32A2D85FA
:1046C0003E854F8558890E94B32A2B013C01312C2D
:1046D000212C8090C2079090C307281439040CF055
:1046E000FBCD4EE0429D9001439D300D1124285E8C
:1046F000374F3E8B2D8BD90114962D913D914D91C5
:104700005C9117976D917D918D919C917F926F92A5
:104710005F924F92BEA9BF93EDA9EF93FCA9FF93BF
:10472000A981AF93BBA9BF93EAA9EF93F9A9FF931E
:10473000A989AF93B8A9BF93EBA5EF93FFA1FF930E
:10474000ABA1AF93AF8CB8A0C9A0DAA0E98CFA8C6A
:104750000B8D1C8D0E94CF0A0FB6F894DEBF0FBEE2
:10476000CDBF882309F180910F01909110018C53E6
:10477000964F9093100180930F01F1E08F1A9108EA
:104780002EE0289DF001299DF00D1124E85EF74FE1
:104790008EE0AD89BE8901900D928A95E1F79092E5
:1047A000C3078092C20795CF3FEF231A330A91CFF8
:1047B000298D3A8D2F5F3F4F3A8F298F71962A307E
:1047C000310509F0F1CD7CCE1D969C938E931C97FC
:1047D00077CEE6E2F6E0F8AFEFAB8F01D8018C912F
:1047E000882309F469C04090FF0150900002609056
:1047F0000102709002022091FB013091FC01409176
:10480000FD015091FE012D833E834F8358871996F9
:104810002D913D914D915C911C9711966D917D91DB
:104820008D919C9114970E94B32A4B015C01D80191
:1048300011968D929D92AD92BC9214971D962D91DA
:104840003D914D915C91509715966D917D918D9113
:104850009C9118970E94B32A6B017C01F801C582D4
:10486000D682E782F08620E030E0A901C501B401DC
:104870000E94912B87FD1EC020E030E040E054E410
:10488000C501B4010E945B2D1816A4F020E030E0B1
:10489000A901C701B6010E94912B87FD0BC020E042
:1048A00030E040E054E4C701B6010E945B2D1816C9
:1048B0000CF070C0D8011C920F5E1F4F20ED36E047
:1048C0002017310709F08ACF312C212CC090980194
:1048D000D0909901E0909A01F0909B0180909C010A
:1048E00090909D01A0909E01B0909F018091D40670
:1048F0009091D506A091D606B091D7068D839E8360
:10490000AF83B8872091D0063091D1064091D2066E
:104910005091D3062D873E874F87588B31E0231661
:10492000310409F46FC020E030E040E05FE3BC01F7
:10493000CD010E94682D9B01AC01C701B6010E9408
:10494000B22A0E940D2C6B0120E030E040E05FE3D2
:104950006D857E858F8598890E94682D9B01AC01AD
:10496000C501B4010E94B22A0E940D2C40E8C41671
:10497000D10408F049C077FD47C0603471050CF0E0
:1049800043C04091A001C6010E94AD092224239496
:10499000312C9CCF80E10E94D70881118DCFA301DB
:1049A0009201C501B4010E94B22A4B015C012D8124
:1049B0003E814F815885C701B6010E94B22A6B0122
:1049C0007C01A5019401C501B4010E94682D4B0131
:1049D0005C01A7019601C701B6010E94682D9B01E9
:1049E000AC01C501B4010E94B32A20E030E048ECDC
:1049F00051E40E94912B87FF5FCF0E94BB16F80104
:104A000010825ACF312C212C8091BE079091BF0784
:104A1000281639060CF0FAC0A981BA81CD90DD9034
:104A2000ED90FC902D813E814F815885C701B601E4
:104A30000E94B22A4B015C01E981FA8144805580D1
:104A4000668077802D853E854F855889C301B201E8
:104A50000E94B22A6D8B7E8B8F8B988FA981BA8131
:104A60001E962D913D914D915C915197C501B401D8
:104A70000E94B32AA70196010E94B22A0E940D2C1F
:104A8000698B7A8B8B8B9C8BE981FA8122893389A4
:104A9000448955896D897E898F89988D0E94B32AB2
:104AA000A30192010E94B22A0E940D2C698F7A8F75
:104AB0008B8F9C8FA981BA8156962D913D914D91F6
:104AC0005C915997C501B4010E94B32AA7019601D0
:104AD0000E94B22A0E940D2C6F8F78A389A39AA3FB
:104AE000E981FA81228D338D448D558D6D897E89C2
:104AF0008F89988D0E94B32AA30192010E94B22A45
:104B00000E940D2C6BA37CA38DA39EA3A981BA81C7
:104B10005E962D913D914D915C919197C501B401A7
:104B20000E94B32AA70196010E94B22A0E940D2C6E
:104B30006FA378A789A79AA7E981FA8122A133A157
:104B400044A155A16D897E898F89988D0E94B32AD1
:104B5000A30192010E94B22A0E940D2C6BA77CA790
:104B60008DA79EA7A981BA8196962D913D914D91D1
:104B70005C919997C501B4010E94B32AA7019601DF
:104B80000E94B22A0E940D2C4B01E981FA8122A5D4
:104B900033A544A555A56D897E898F89988D0E947E
:104BA000B32AA30192010E94B22A0E940D2C6B012C
:104BB0002BA13CA14F8D58A1698D7A8D89899A8945
:104BC0000E9403092BA53CA54FA158A56BA17CA170
:104BD0008F8D98A10E9403099601A4016BA57CA565
:104BE0008FA198A50E940309298D3A8D49895A8978
:104BF000B601C4010E940309FFEF2F1A3F0A298161
:104C00003A81225D3F4F3A832983FECEAFA9B8ADEA
:104C10008C91882311F12D853E854F8558891596F5
:104C20006D917D918D919C9118970E94B22A0E945E
:104C30000D2C6B012D813E814F815885EFA9F8AD78
:104C400061817281838194810E94B22A0E940D2C1D
:104C5000CB0141E0B6010E94AD092FA938AD2F5E0E
:104C60003F4F38AF2FAB0217130781F64091C007B3
:104C70005091C1075A83498320E030E040E853E473
:104C8000A981BA816D917D918D919C910E94B32AE9
:104C90002D813E814F8158850E94B22A0E940D2CA1
:104CA0003B0120E030E040E853E4E981FA8164818F
:104CB0007581868197810E94B32A2D853E854F8517
:104CC00058890E94B22A0E940D2C8B0129813A81B9
:104CD0003E8B2D8B290138E6430E511C49815A81A8
:104CE0005A8B498B20E030E040E853E4A989BA8927
:104CF00018966D917D918D919C911B970E94B32A7E
:104D00002D813E814F8158850E94B22A0E940D2C30
:104D10006B0120E030E040E853E4E989FA896485DA
:104D20007585868597850E94B32A2D853E854F859A
:104D300058890E94B22A0E940D2C4B019B01A601AA
:104D4000B801C3010E94030929893A89285F3F4FAE
:104D50003A8B298B360184014216530619F620E05E
:104D600030E040E853E4A981BA8114966D917D91B9
:104D70008D919C9117970E94B32A2D853E854F8572
:104D800058890E94B22A0E940D2C2B0120E030E0AD
:104D900040E853E4E981FA816081718182819381E5
:104DA0000E94B32A2D813E814F8158850E94B22AEC
:104DB0000E940D2C9201AB01B401C6010E940309AF
:104DC00058E1252E58E0352E1A8A198A8091C2079B
:104DD0009091C30729893A89281739070CF09FC099
:104DE0002BED3FE049EC5FE3D10118966D917D9189
:104DF0008D919C911B970E94B32A8B018F8F9BA34F
:104E0000382F292F712F832F922F0E94962B2B0141
:104E10003C013F8D2BA1602F712F832F922F0E9479
:104E2000D52D6B017C012D853E854F855889F1017B
:104E300064817581868197810E94B22A4B015C0151
:104E400020E030E0A901C701B6010E94682D698FFA
:104E50007A8F8B8F9C8F20E030E040E050ECC301D4
:104E6000B2010E94682D9B01AC01698D7A8D8B8DFA
:104E70009C8D0E94B32A9B01AC01C501B4010E9424
:104E8000B32A698F7A8F8B8F9C8F2D813E814F81C2
:104E90005885D1016D917D918D919C910E94B22A8E
:104EA0004B015C0120E030E0A901C301B2010E9486
:104EB000682D2B013C01A7019601C701B6010E9494
:104EC000B32A9B01AC01C301B2010E94B32A9B012A
:104ED000AC01C501B4010E94B32ABBA1BF93EF8D01
:104EE000EF931F930F93A12CB12C40E8C42E40E404
:104EF000D42E86017501298D3A8D4B8D5C8D0E94D3
:104F0000B80F29893A892F5F3F4F3A8B298B3EE0B2
:104F1000230E311C0F900F900F900F9057CFAD8D37
:104F2000BE8D8C91882311F12D853E854F85588942
:104F300015966D917D918D919C9118970E94B22A42
:104F40000E940D2C6B012D813E814F815885ED8D86
:104F5000FE8D61817281838194810E94B22A0E94B8
:104F60000D2CCB0141E0B6010E94AD092D8D3E8D87
:104F70002F5E3F4F3E8F2D8F49855A85421753072D
:104F800071F68091FF0190910002A0910102B09111
:104F900002028F8F98A3A9A3BAA32D813E814F81CE
:104FA0005885BC01CD010E94B22A2B013C01209101
:104FB000FB013091FC014091FD015091FE012987D8
:104FC0003A874B875C872D853E854F855889698553
:104FD0007A858B859C850E94B22A6D837E838F8320
:104FE000988730910B023D8720900C0230900D0283
:104FF00040910E024FA31F9252E05F931F925F9366
:105000001F925F938FEF8F939EEF9F938F938CEF01
:105010008F93912C812C3D858FA1A32EB22CC32C74
:10502000D82EED80FE800F811885A301920167E0E4
:1050300070E080E00E94970C88E00E94D7080FB6CD
:10504000F894DEBF0FBECDBF882371F180910F01B0
:1050500090911001181619063CF51F9283E08F936A
:105060001F92B2E0BF931F9297E09F931F921F92EF
:105070001F928F933EEF832E99249A943D858FA1A2
:10508000A32EB22CC32CD82EED80FE800F81188564
:10509000A301920163E070E081E00E94970C0FB6DB
:1050A000F894DEBF0FBECDBF80E10E94D7088823F1
:1050B00009F44AC080910F01909110011816190649
:1050C0000CF042C01F9289E18F931F929FE09F9343
:1050D0001F921F921F921F921F928F9391EF892E02
:1050E00099249A94FD85FBA32D8E398A2FA1298FAF
:1050F000AF2EB22CC32CD22EED80FE800F811885EE
:10510000A301920163E070E080E00E94970C398D6A
:105110003F9349894F935D8D5F938BA18F93A12C12
:10512000B12C20E4C22E21E4D22E860175012D81FE
:105130003E814F815885C301B2010E94B80F0FB65E
:10514000F894DEBF0FBECDBFEDE0F0E0FE83ED834F
:1051500010E000E033243394AD89BE89CD90DD901A
:10516000ED90FC90139720E030E040E853E4149673
:105170006D917D918D919C9117970E94B32A4B015F
:105180005C01ED81FE8183E0EE0FFF1F8A95E1F760
:1051900029813A81E20FF31F408051806280738041
:1051A00020E030E040E853E4648175818681978196
:1051B0000E94B32A6D837E838F839887A501940113
:1051C00069857A858B859C850E94912B881F88270D
:1051D000881F8D872D813E814F81588569857A850D
:1051E0008B859C850E94912B881F8827881F3D8571
:1051F000381709F447C020E030E040E853E4C70125
:10520000B6010E94B32A6B017C0120E030E040E847
:1052100053E4C301B2010E94B32AA70196010E9480
:10522000B22A2B013C01A501940169857A858B8501
:105230009C850E94B22A9B01AC01C301B2010E946D
:10524000682D2B013C01A50194016D817E818F8128
:1052500098850E94B22A9B01AC01C301B2010E9451
:105260009B2BA70196010E94B32A9B01AC016F8D75
:1052700078A189A19AA10E94912B87FF03C04FA515
:1052800043254FA7C8010196AD89BE891896BE8BEC
:10529000AD8B1E830D838E309105E1F5BFA5BB2339
:1052A00031F086E791E00E9431160E94BB16809192
:1052B0000D0190910E010E94B116E8E1F0E0F0932B
:1052C0009701E093960180910F01909110011816BB
:1052D000190614F50E94B11628E530E030939701C5
:1052E000209396016091F9017091FA01072E000C4C
:1052F000880B990B97FF15C00E9482168CE491E0F1
:105300000E94311610929701109296010E94E208B5
:105310000C94651C8C0120CF82E891E00E9431162C
:10532000DBCF4AE00E943E16E9CF8F929F92AF9268
:10533000BF92CF92DF92EF92FF92CF93DF93EC0177
:10534000688179818A819B8161157105810591054B
:1053500021F464E279ED8BE597E02DE133EF41E054
:1053600050E00E944F2A49015A019B01AC01A7EA73
:10537000B1E40E946E2A6B017C01ACEEB4EFA50192
:1053800094010E947C2AC60ED71EE81EF91EF7FE65
:1053900006C081E0C81AD108E10880E8F80AC8828E
:1053A000D982EA82FB82C701B6019F77DF91CF9154
:1053B000FF90EF90DF90CF90BF90AF909F908F9035
:1053C00008958F929F92AF92BF92CF92DF92EF9209
:1053D000FF926091110170911201809113019091DF
:1053E0001401611571058105910521F464E279EDDF
:1053F0008BE597E02DE133EF41E050E00E944F2A2A
:1054000049015A019B01AC01A7EAB1E40E946E2A4E
:105410006B017C01ACEEB4EFA50194010E947C2AE3
:10542000C60ED71EE81EF91EF7FE06C081E0C81A98
:10543000D108E10880E8F80AC0921101D092120167
:10544000E0921301F0921401C701B6019F77FF901B
:10545000EF90DF90CF90BF90AF909F908F90089586
:1054600060931101709312018093130190931401C2
:105470000895F999FECF92BD81BDF89A992780B51C
:105480000895262FF999FECF1FBA92BD81BD20BD88
:105490000FB6F894FA9AF99A0FBE01960895052E60
:1054A00097FB1EF400940E94662A57FD07D00E94C5
:1054B000812A07FC03D04EF40C94662A509540953F
:1054C000309521953F4F4F4F5F4F089590958095B0
:1054D000709561957F4F8F4F9F4F08950E94A32A2B
:1054E000A59F900DB49F900DA49F800D911D112438
:1054F0000895B7FF0C946E2A0E946E2A821B930BAC
:105500000895A1E21A2EAA1BBB1BFD010DC0AA1F04
:10551000BB1FEE1FFF1FA217B307E407F50720F01C
:10552000A21BB30BE40BF50B661F771F881F991F97
:105530001A9469F760957095809590959B01AC01E0
:10554000BD01CF010895A29FB001B39FC001A39FE9
:10555000700D811D1124911DB29F700D811D1124AC
:10556000911D08955058BB27AA270E94CA2A0C945F
:105570000D2D0E94D42C38F00E94DB2C20F039F441
:105580009F3F19F426F40C94AA2C0EF4E095E7FB47
:105590000C94A42CE92F0E94322D58F3BA176207FD
:1055A00073078407950720F079F4A6F50C94542D21
:1055B0000EF4E0950B2EBA2FA02D0B01B90190012E
:1055C0000C01CA01A0011124FF27591B99F0593F72
:1055D00050F4503E68F11A16F040A22F232F342FBA
:1055E0004427585FF3CF469537952795A795F04008
:1055F0005395C9F77EF41F16BA0B620B730B840B1D
:10560000BAF09150A1F0FF0FBB1F661F771F881FD4
:10561000C2F70EC0BA0F621F731F841F48F487952C
:1056200077956795B795F7959E3F08F0B0CF93951E
:10563000880F08F09927EE0F9795879508950E9497
:10564000D42C60F080E891E009F49EEF0E94DB2CFE
:1056500028F040E851E071F45EEF0CC00C94AA2CE5
:105660000C94542DE92FE0780E94322D40F3092E3E
:10567000052AB1F3261737074807590738F00E2EC9
:1056800007F8E02569F0E025E0640AC0EF6307F859
:10569000009407FADB01B9019D01DC01CA01AD01EB
:1056A000EF930E94B22B0E940D2D0E94622B5F91FE
:1056B000552339F02BED3FE049E450FD49EC0C94C3
:1056C000B32A0895DF93DD27B92FBF7740E85FE362
:1056D0001616170648075B0718F4D92F0E94602D8D
:1056E0009F938F937F936F930E94232EECEAF0E0B9
:1056F0000E94AD2C0E940D2D2F913F914F915F91F3
:105700000E947B2DDD2351F09058A2EA2AED3FE064
:1057100049EC5FE3D0785D270E94CA2ADF910C94A0
:105720000D2D0E94802C08F481E008950E94E42C45
:10573000E3950C941E2D0E94AF2B0C940D2D0E940E
:10574000DB2C58F00E94D42C40F029F45F3F29F064
:105750000C94A42C51110C94552D0C94AA2C0E943D
:10576000322D68F39923B1F3552391F3951B550B13
:10577000BB27AA2762177307840738F09F5F5F4F24
:10578000220F331F441FAA1FA9F335D00E2E3AF063
:10579000E0E832D091505040E695001CCAF72BD07B
:1057A000FE2F29D0660F771F881FBB1F26173707CC
:1057B0004807AB07B0E809F0BB0B802DBF01FF27FE
:1057C00093585F4F3AF09E3F510578F00C94A42C0B
:1057D0000C94552D5F3FE4F3983ED4F3869577956E
:1057E0006795B795F7959F5FC9F7880F911D9695B7
:1057F000879597F90895E1E0660F771F881FBB1F13
:10580000621773078407BA0720F0621B730B840BBF
:10581000BA0BEE1F88F7E09508950E94142C689447
:10582000B1110C94552D08950E943A2D88F09F5780
:1058300098F0B92F9927B751B0F0E1F0660F771FB4
:10584000881F991F1AF0BA95C9F714C0B13091F0AA
:105850000E94542DB1E008950C94542D672F782F99
:105860008827B85F39F0B93FCCF38695779567956F
:10587000B395D9F73EF490958095709561957F4FDB
:105880008F4F9F4F0895E89409C097FB3EF4909581
:105890008095709561957F4F8F4F9F4F9923A9F009
:1058A000F92F96E9BB279395F69587957795679598
:1058B000B795F111F8CFFAF4BB0F11F460FF1BC0DC
:1058C0006F5F7F4F8F4F9F4F16C0882311F096E96F
:1058D00011C0772321F09EE8872F762F05C066231D
:1058E00071F096E8862F70E060E02AF09A95660FD6
:1058F000771F881FDAF7880F9695879597F908958F
:10590000990F0008550FAA0BE0E8FEEF16161706D0
:10591000E807F907C0F012161306E407F50798F038
:10592000621B730B840B950B39F40A2661F0232B51
:10593000242B252B21F408950A2609F4A140A695CD
:105940008FEF811D811D089597F99F6780E870E0B2
:1059500060E008959FEF80EC0895DF93CF931F934D
:105960000F93FF92EF92DF927B018C01689406C047
:10597000DA2EEF010E947B2DFE01E894A59125917E
:10598000359145915591A6F3EF010E94CA2AFE0177
:105990009701A801DA9469F7DF90EF90FF900F91DB
:1059A0001F91CF91DF91089500240A9416161706CF
:1059B00018060906089500240A9412161306140600
:1059C000050608950C94AA2C0E943A2DD8F3E89469
:1059D000E0E0BB279F57F0F02AED3FE049EC06C01E
:1059E000EE0FBB0F661F771F881F28F0B23A6207C1
:1059F0007307840728F0B25A620B730B840BE3958C
:105A00009A9572F7803830F49A95BB0F661F771F0E
:105A1000881FD2F790480C94292E092E0394000C6D
:105A200011F4882352F0BB0F40F4BF2B11F460FF38
:105A300004C06F5F7F4F8F4F9F4F0895EF93E0FF3C
:105A400007C0A2EA2AED3FE049EC5FEB0E94CA2AB8
:105A50000E940D2D0F90039401FC9058E9EDF0E0A9
:105A60000C943C2E57FD9058440F551F59F05F3F42
:105A700071F04795880F97FB991F61F09F3F79F070
:105A800087950895121613061406551FF2CF4695F2
:105A9000F1DF08C0161617061806991FF1CF869574
:105AA0007105610508940895E894BB276627772758
:105AB000CB0197F908950E94802C08F48FEF089588
:105AC0009B01AC0160E070E080E89FE30C949B2BAD
:105AD0000E947B2D0C940D2D0E94D42C38F00E9436
