:100000000C9481030C94A9030C94A9030C94A903E8
:100010000C94A9030C94A9030C94A9030C94A903B0
:100020000C94A9030C94A9030C944C090C94BB09DF
:100030000C94A9030C94A9030C94A9030C94A90390
:100040000C94A9030C94A9030C94A9030C94A90380
:100050000C94A9030C94A9030C94A9030C94ED0B24
:100060000C94A9030C94A9030C94A9030C94A90360
:100070000C94A9030C94A9030C94A9030C94A90350
:100080000C94A9030C94A9030C94A9030C94A90340
:100090000C94A9030C94A9030C94A9030C94A90330
:1000A0000C94A9030C94A9030C94A90305A84CCDA6
:1000B000B2D44EB93836A9020C50B9918688083CA2
:1000C000A6AAAA2ABE000000803F00000000003E51
:1000D0005B4F5B3E3E6B4F6B3E1C3E7C3E1C183CB8
:1000E0007E3C181C577D571C1C5E7F5E1C00183C14
:1000F0001800FFE7C3E7FF0018241800FFE7DBE75D
:10010000FF30483A060E2629792926407F05050743
:10011000407F05253F5A3CE73C5A7F3E1C1C08089F
:100120001C1C3E7F14227F22145F5F005F5F060964
:100130007F017F006689956A606060606094A2FFBD
:10014000A29408047E040810207E201008082A1CAF
:1001500008081C2A08081E101010100C1E0C1E0C7B
:1001600030383E3830060E3E0E060000000000001B
:10017000005F00000007000700147F147F14242A8A
:100180007F2A12231308646236495620500008075C
:100190000300001C2241000041221C002A1C7F1C7D
:1001A0002A08083E0808008070300008080808087F
:1001B000000060600020100804023E5149453E00E6
:1001C000427F400072494949462141494D33181444
:1001D000127F1027454545393C4A49493141211193
:1001E00009073649494936464949291E0000140085
:1001F00000004034000000081422411414141414A8
:10020000004122140802015909063E415D594E7C05
:100210001211127C7F494949363E414141227F41BA
:1002200041413E7F494949417F090909013E414118
:1002300051737F0808087F00417F41002040413F03
:10024000017F081422417F404040407F021C027F12
:100250007F0408107F3E4141413E7F090909063E67
:100260004151215E7F091929462649494932030136
:100270007F01033F4040403F1F2040201F3F403848
:10028000403F631408146303047804036159494D23
:1002900043007F4141410204081020004141417F59
:1002A00004020102044040404040000307080020CF
:1002B000545478407F2844443838444444283844CF
:1002C00044287F385454541800087E090218A4A406
:1002D0009C787F0804047800447D40002040403D25
:1002E000007F1028440000417F40007C047804789F
:1002F0007C080404783844444438FC182424181832
:10030000242418FC7C08040408485454542404048D
:100310003F44243C4040207C1C2040201C3C40307A
:10032000403C44281028444C9090907C4464544CA9
:100330004400083641000000770000004136080004
:1003400002010204023C2623263C1EA1A161123AAE
:100350004040207A385454555921555579412154FB
:10036000547841215554784020545579400C1E5200
:1003700072123955555559395454545939555454A4
:10038000580000457C410002457D420001457C400B
:10039000F0292429F0F0282528F07C545545002028
:1003A00054547C547C0A097F4932494949323248C5
:1003B000484832324A4848303A4141217A3A42402C
:1003C0002078009DA0A07D39444444393D40404000
:1003D0003D3C24FF2424487E4943662B2FFC2F2BD1
:1003E000FF0929F620C0887E090320545479410072
:1003F00000447D413048484A32384040227A007AF1
:100400000A0A727D0D19317D2629292F28262929CE
:10041000292630484D4020380808080808080808F0
:10042000382F10C8ACBA2F102834FA00007B000017
:1004300008142A142222142A14089500220095AACE
:10044000005500AAAA55AA55AA000000FF001010E6
:1004500010FF00141414FF001010FF00FF1010F024
:1004600010F0141414FC001414F700FF0000FF0037
:10047000FF1414F404FC141417101F10101F101F85
:100480001414141F00101010F0000000001F1010B2
:1004900010101F10101010F010000000FF101010AE
:1004A000101010101010FF10000000FF140000FFCB
:1004B00000FF00001F10170000FC04F414141710B4
:1004C000171414F404F40000FF00F71414141414A7
:1004D0001414F700F7141414171410101F101F141D
:1004E0001414F4141010F010F000001F101F00007E
:1004F000001F14000000FC140000F010F01010FFAA
:1005000010FF141414FF141010101F00000000F04E
:1005100010FFFFFFFFFFF0F0F0F0F0FFFFFF000023
:10052000000000FFFF0F0F0F0F0F38444438447CCA
:100530002A2A3E147E02020606027E027E026355CD
:100540004941633844443C04407E201E2006027E1C
:10055000020299A5E7A5991C2A492A1C4C7201722E
:100560004C304A4D4D303048784830BC625A463D98
:100570003E494949007E0101017E2A2A2A2A2A444D
:10058000445F444440514A444040444A5140000082
:10059000FF0103E080FF000008086B6B083612368D
:1005A0002436060F090F060000181800000010106E
:1005B000003040FF0101001F01011E00191D17122C
:1005C000003C3C3C3C0000000000F0F89C8E87831F
:1005D000878E9CF8F00000FEFF0303030303070E61
:1005E000FCF80000FEFF0303030303070EFCF80002
:1005F00000FFFF00000000000000FFFF0000FEFF02
:100600008383838383C7EE7C380000F8FC0E0703E6
:100610000303070EFCF800003F7FE0C08080C0E0CD
:100620007F3FFFFF01010101010101FFFF0000FF0A
:10063000FF0C0C0C0C1C3E77E3C100007FFFC0C018
:10064000C0C0C0E0703F1F00001F3F70E0C0C0C0CE
:10065000E0703F1F00007FFFC1C1C1C1C1E3773E11
:100660001C00001F3F70E0C0C0C0E0703F1F0000D2
:1006700000000001FFFF01000000D5F08D14A1C8AB
:1006800081CFD9F1AF2000070605040100080A0B4D
:100690000C0D09080B000202020000090400000111
:1006A00002020000052400100105240101010424B8
:1006B0000206052406000107058103100040090415
:1006C0000100020A000000070502024000000705C1
:1006D00083024000000403090412010002EF02013A
:1006E00040412336800001010203014172647569B3
:1006F0006E6F204C4C430041726475626F7900004C
:100700006A0C11241FBECFEFDAE0DEBFCDBF11E0CF
:10071000A0E0B1E0E8E9F2E302C005900D92AC334D
:10072000B107D9F729E0ACE3B1E001C01D92A73CC5
:10073000B207E1F713E0C1E8D3E004C02197FE015E
:100740000E941F18C038D107C9F70E94870C0C946B
:100750004A190C940000EDE6F5E0A0E0B8E0008056
:100760000EBC8111012C1197A0FDFDCF0192B9F7AC
:100770000DB40895FC0180916C05882311F13FB7F9
:10078000F89482E08093E9002091F200822F90E0BB
:100790001816190614F481E090E0882339F028989F
:1007A00044E640936B054091F1004083222339F0E9
:1007B0002091F200211103C02BE62093E8003FBFF7
:1007C00008958FEF9FEF08952FB7F89483E08093FB
:1007D000E9009091E800892F807295FF04C0909104
:1007E000F20080E4891B2FBF089580916305811179
:1007F0000DC082E080935F0584E0809360051092D5
:1008000062051092610581E0809363058FE595E0B4
:100810000895CF93DF931F92CDB7DEB76983DC01D4
:10082000ED91FC910280F381E02D41E050E0BE01AA
:100830006F5F7F4F09950F90DF91CF91089583E00F
:100840008093E9008091F200882319F08AE3809375
:10085000E80008950E94E40390E00895CF93DF93A9
:100860001F92CDB7DEB7FC018485958597FD08C042
:100870002FEF3FEF358724870F90DF91CF910895B9
:10088000CE0101960E94BA03019719F4898190E084
:10089000F3CF8FEF9FEFF0CF0F931F93CF93DF93A3
:1008A0001F92CDB7DEB78C01FC018485958597FF3B
:1008B0000BC0CE0101960E94BA03019771F48981A1
:1008C00090E0F80195878487F801848595850F90DD
:1008D000DF91CF911F910F9108958FEF9FEFF1CF8F
:1008E000FC018485958597FD0BC09FB7F89482E045
:1008F0008093E9008091F2009FBF90E001960895F7
:100900009FB7F89482E08093E9008091F2009FBF46
:1009100090E008954091590550915A05209157054E
:100920003091580542175307B4F49091E800957040
:10093000E1F39091E80092FD19C08093F10080915D
:10094000590590915A0501968F739927892B19F4AF
:100950008EEF8093E8008091590590915A05019699
:1009600090935A058093590581E0089580E0089599
:10097000DF92EF92FF920F931F93CF93DF93D82EC6
:100980008A01EB017B01E40EF51ECE15DF0559F05F
:10099000D7FE12C0FE0184910E948A042196811123
:1009A000F4CF0FEF1FEFC801DF91CF911F910F918F
:1009B000FF90EF90DF9008958881EECF0F931F9303
:1009C000CF93DF931F92CDB7DEB782E0898342E4F5
:1009D00050E063E976E080E80E94B8040E94F503E5
:1009E000DC0112960D911C910115110589F0D801B9
:1009F000ED91FC910280F381E02DBE016F5F7F4F8E
:100A0000C801099597FD04C0F80100851185ECCF58
:100A100089810F90DF91CF911F910F9108956150BF
:100A200030F02091F100FC0120830196F8CF289846
:100A300084E680936B0508953FB7F8948091530541
:100A400090915405A0915505B091560526B5A89BE7
:100A500005C02F3F19F00196A11DB11D3FBFBA2F50
:100A6000A92F982F8827BC01CD01620F711D811D10
:100A7000911D42E0660F771F881F991F4A95D1F795
:100A800008958F929F92AF92BF92CF92DF92EF9292
:100A9000FF926B017C010E941C054B015C01C1149B
:100AA000D104E104F104B9F00E941C056819790928
:100AB0008A099B09683E73408105910580F321E016
:100AC000C21AD108E108F10888EE880E83E0981E6A
:100AD000A11CB11CE4CFFF90EF90DF90CF90BF90AE
:100AE000AF909F908F9008958F929F92AF92BF92F8
:100AF000CF92DF92EF92FF920F931F93CF93DF93EA
:100B00006C017B018A0180910C01882309F45CC08F
:100B100080916C05882309F457C080915E0580FFA1
:100B200005C08091E00082608093E000E801B12C74
:100B30008AEFA82E93E0892E2AE3922E209711F4B3
:100B4000BB20D9F10E94E40381110AC0AA94AA2013
:100B5000D9F161E070E080E090E00E944105EECFC5
:100B60008C171D0611F00CF08C2F9FB7F894809213
:100B7000E9002091E80025FD02C09FBFDFCF282FAC
:100B800030E0C21BD30BF701815020F0419140931C
:100B9000F100FACFE20EF31EBB2021F09092E800A4
:100BA000B12CEBCF8091E80085FDE7CF9092E80073
:100BB000BB24B394209709F3F3CF5D9884E6809328
:100BC0005D05101611063CF081E090E0F60193837C
:100BD000828310E000E0C801DF91CF911F910F9157
:100BE000FF90EF90DF90CF90BF90AF909F908F904D
:100BF0000895AF92BF92CF92DF92EF92FF920F9340
:100C00001F93CF93DF936C017B018B01040F151FA2
:100C1000EB015E01AE18BF08C017D10759F069910A
:100C2000D601ED91FC910190F081E02DC60109956E
:100C3000892B79F7C501DF91CF911F910F91FF901B
:100C4000EF90DF90CF90BF90AF9008952D9A0895C8
:100C5000BC0190E080E00C9441058FB18095807FCD
:100C6000669B88601C9B84600895CF93C82F0E9468
:100C70002D06982F9C2381E09C1380E0CF9108954E
:100C800080E00C94AB0380389105B8F460347105B2
:100C9000A0F420E191E061FD94E060FD990F62FD18
:100CA0009295687F269FD0011124A80FA359BA4FAF
:100CB0008C9140FF03C0892B8C93089590958923D4
:100CC000FBCF2F923F924F925F926F927F928F92C3
:100CD0009F92AF92BF92CF92DF92EF92FF920F93CB
:100CE0001F93CF93DF93EC018B017A016901C61A40
:100CF000D70AD7FE03C0D194C194D10847018C1AFA
:100D00009D0A97FE03C09194819491088C149D04D0
:100D100054F49E2D8F2D7901292F382F9C2F8D2F44
:100D2000E801092F182FEC16FD0654F4902F812F9F
:100D30008901292F382F9C2F8D2FE701E92EF82EBE
:100D400017012C1A3D0A2901401A510A57FE03C007
:100D5000519441945108310137FE03C08FEF681A56
:100D6000780A759467948FEF021713070CF481E0EB
:100D7000A82E880FBB08EC16FD06A4F041E0BE01CA
:100D8000C8018C149D0414F0B801CE010E944306E2
:100D90006418750877FE04C00A0D1B1D620C731CD5
:100DA0002196E9CFDF91CF911F910F91FF90EF90A6
:100DB000DF90CF90BF90AF909F908F907F906F907B
:100DC0005F904F903F902F900895EF92FF920F9376
:100DD0001F93CF93DF937C018B01040F111DEB0157
:100DE00077FF02C0D0E0C0E0C8010134110514F063
:100DF00080E490E0C817D9073CF441E0BE01C70188
:100E00000E9443062196F0CFDF91CF911F910F9161
:100E1000FF90EF9008952F923F924F925F926F92C2
:100E20007F928F929F92AF92BF92CF92DF92EF927A
:100E3000FF920F931F93CF93DF9300D01F92CDB7F4
:100E4000DEB75C011B01242F30E03B832A8301E0E5
:100E500010E0021B130B2901519441945108440CDA
:100E6000551CF12CE12CCC24C394D12C8A819B817C
:100E7000E816F906F4F517FD08C001979B838A83ED
:100E800092E0490E511C040D151D2FEFE21AF20AD3
:100E900032E0C30ED11C0C0D1D1D8A81880F8F5F9F
:100EA0008983482F31018A819B81681A790AB301AD
:100EB000C5018E0D9F1D0E94E50641018E189F08F9
:100EC0004C2DB4018A819B818A0D9B1D0E94E506F1
:100ED0004981B301C5018E199F090E94E5064C2D79
:100EE000B401C5012A813B81821B930B0E94E50658
:100EF000BDCF0F900F900F90DF91CF911F910F9169
:100F0000FF90EF90DF90CF90BF90AF909F908F9029
:100F10007F906F905F904F903F902F9008958F92A9
:100F20009F92AF92BF92CF92DF92EF92FF920F9378
:100F30001F93CF93DF936D3089F0C0902A05D09036
:100F40002B056A30D1F4109229051092280588E00B
:100F5000C80ED11CD0922B05C0922A0581E090E0EA
:100F6000DF91CF911F910F91FF90EF90DF90CF9085
:100F7000BF90AF909F908F90089500912805109199
:100F80002905E5E06E9FE0011124C653DF4F4801BB
:100F9000F12CF5E0E12CFF1629F0CE010196FE01BF
:100FA000E490EC01B12CA12C4E2D4170B6016A0DDC
:100FB0007B1DC4010E944306E694FFEFAF1ABF0AEF
:100FC00088E0A816B10481F7F394EFEF8E1A9E0A19
:100FD000F6E0FF12DECF0A5F1F4F10932905009342
:100FE0002805BCCF089590E080E008952F923F92AD
:100FF0004F925F926F927F928F929F92AF92BF9229
:10100000CF92DF92EF92FF920F931F93CF93DF93D4
:10101000CDB7DEB728970FB6F894DEBF0FBECDBFB1
:101020008EE090E090936E0980936D0980E790E0E8
:101030000E94251889839A838C0118861F82312C7F
:10104000212C81E1482E87E2582E612C712C809151
:101050006D0990916E09281639060CF0B2C00E94F5
:101060007B142BE030E040E050E00E94E914655032
:101070007109810991092F813885620F731F77FFEC
:1010800098C068597E4F072E000C880B990B0E9460
:101090006D1625E33AEF4EE85CE30E9461174B01C1
:1010A0005C010E947B14A30192010E94E9140E943A
:1010B0006D1620E030E44CE156E40E94C31520E0B8
:1010C00030E040EA52E40E94611720E030E040E75F
:1010D00052E40E944D156B017C01C501B4010E94D0
:1010E000BE15A70196010E9461176B837C838D83D7
:1010F0009E83C501B4010E94CE17A70196010E94EC
:1011000061176B017C010E947B14A30192010E9474
:10111000E9140E946D1620E030E44CE156E40E9490
:10112000C31520E030E040E850E40E94611720E061
:1011300030E040E050E40E944C152B813C814D8111
:101140005E810E944D154B015C010E947B14F801E9
:1011500080829182A282B382A30192010E94E9144B
:101160000E946D1620E030E44CE156E40E94C31565
:1011700020E030E040E850E40E94611720E030E0D9
:1011800040E050E40E944C15A70196010E944D15C5
:10119000F8016483758386839783FFEF2F1A3F0AD4
:1011A000085F1F4F2F813885275E3F4F38872F8379
:1011B0004ECF683631E073070CF465CF6856714046
:1011C00062CF89819A8128960FB6F894DEBF0FBE50
:1011D000CDBFDF91CF911F910F91FF90EF90DF90E6
:1011E000CF90BF90AF909F908F907F906F905F90C7
:1011F0004F903F902F9008958F929F92AF92BF9201
:101200000F931F93CF93DF93CDB7DEB7A1970FB6A0
:10121000F894DEBF0FBECDBF19A2423008F44AE0F9
:101220008E010F5D1F4F842E912CB12CA12CA50196
:1012300094010E941B15E62FB901CA01EA3044F55A
:10124000E05DD801EE938D01232B242B252B79F71C
:1012500090E080E0109769F0FD0101900020E9F72F
:101260003197AF014A1B5B0BBD018FEB99E00E94E8
:10127000F905A1960FB6F894DEBF0FBECDBFDF9182
:10128000CF911F910F91BF90AF909F908F90089535
:10129000E95CD7CF0C94D3141F920F920FB60F9224
:1012A00011248F939F938091E1009091E100937FAF
:1012B0009093E10083FF0FC01092E90091E09093BA
:1012C000EB001092EC0092E39093ED0010926C050D
:1012D00098E09093F00082FF22C093E09093E900A1
:1012E0009091F200992319F09AE39093E80090917D
:1012F0005D05992341F090915D05915090935D05B6
:10130000911101C05D9A90916B05992341F09091E4
:101310006B05915090936B05911101C0289A84FF41
:1013200018C08091E2008E7E81608093E2008091FF
:10133000E1008F7E8093E10080915E058E7E80616A
:1013400080935E059F918F910F900FBE0F901F901D
:10135000189580FFF7CF8091E2008E7E80618093A8
:10136000E2008091E1008E7E8093E10080915E0535
:101370008E7E8160E5CF1F920F920FB60F921124DF
:10138000CF92DF92EF92FF920F931F932F933F9391
:101390004F935F936F937F938F939F93AF93BF937D
:1013A000EF93FF93CF93DF93CDB7DEB76C97DEBF9C
:1013B000CDBF1092E9008091E80083FF25C068E06E
:1013C000CE0145960E940F0582EF8093E8008D893B
:1013D00087FF39C09091E80090FFFCCF982F90765E
:1013E00009F034C19E894F89588D2F89F88C91114D
:1013F00031C0803861F580915C058093F1001092D6
:10140000F1008EEF8093E8006C960FB6F894DEBF83
:101410000FBECDBFDF91CF91FF91EF91BF91AF9103
:101420009F918F917F916F915F914F913F912F91FC
:101430001F910F91FF90EF90DF90CF900F900FBE14
:101440000F901F9018959EEF9093E800C7CF1092D1
:10145000F100D5CF913059F48111D3CF41305105EE
:1014600081F680915C058D7F80935C05CACF9330B7
:1014700049F48111C6CF4130510519F680915C05C0
:101480008260F2CF953041F48091E80080FFFCCF7C
:1014900020682093E300B5CF963009F0A9C00B8DEA
:1014A0001C8D22E01092E90010925A051092590505
:1014B000F2122EC010925805109257050E94DE04B9
:1014C0001F8299E09983FA8291E09E8390EA98873F
:1014D0009AEF99872091590530915A05275F3F4F20
:1014E0003C832B838D831092E90010925A05109251
:1014F0005905109358050093570549E050E0BE0187
:101500006F5F7F4F80E00E94B8040E94DE0479CFB5
:1015100010935805009357050E94F503DC011296BD
:101520000D911C910115110509F451C1D801ED91DE
:10153000FC910480F581E02DBE016B5E7F4FC801F8
:101540000995009709F03EC1F80100851185EACFA1
:10155000F3E0FF120EC08F89882309F440C0823067
:1015600061F440E867E087EF96E00E94370C811154
:1015700048CF81E28093EB0047CF813029F440E8E7
:101580006BE08BEE96E0F1CF833099F70E94F50384
:10159000DC011296ED90FC908E010F5F1F4F6801E9
:1015A000E114F10479F0D701ED91FC910680F78107
:1015B000E02DB801C7010995080F111DF701E0845E
:1015C000F184EECFD8011C92F60101900020E9F7DA
:1015D0003197BF016C197D0940E0C601C6CF65EDAA
:1015E00076E0FB01449150E080E80E94B80409CF06
:1015F000973009F4BECF983021F481E08093F10058
:1016000000CF993009F0FDCE837009F0B2CFE8E148
:10161000F1E081E031E096E32191222371F08093A3
:10162000E9003093EB00DF0111972C912093EC003F
:101630009093ED008F5F873079F78EE78093EA0013
:101640001092EA008F8980936C05DBCE8B8D9C8D88
:101650001092E90010925A0510925905909358057E
:1016600080935705898D811192C08E899D89913A09
:1016700049F4813209F07DCF47E050E065E071E048
:1016800080E0B3CF913209F074CF833269F48F894F
:10169000988DB0E0A0E08093010190930201A093A7
:1016A0000301B0930401ADCE803269F48091E8006B
:1016B00082FFFCCF67E085E091E00E940F058BEF91
:1016C0008093E8009ECE823209F09BCE8F89809372
:1016D0000C01EEEFFFE7859194918B3F9C4D51F10A
:1016E000E0E0F8E08091050190910601A0910701EA
:1016F000B0910801803B9440A105B105F1F48091BF
:101700000C0180FD1AC0EE3F8AE0F80789F587E7F3
:1017100097E7918380838091600080935B0588E1E7
:101720009BE00FB6F894A895809360000FBE90934D
:10173000600067CEEEEFFAE0D5CF808191818737E8
:10174000974709F05ECEA8958091600088618093EC
:10175000600080915B0580936000EE3F2AE0F20715
:1017600089F08091FE0A9091FF0A9183808349CE8F
:10177000808191818737980751F29093FF0A809377
:10178000FE0AC5CF1092FF0A1092FE0A3ACE0E94BE
:10179000F503DC0112960D911C910115110509F458
:1017A000E8CED801ED91FC910190F081E02DBE01D1
:1017B0006B5E7F4FC8010995811123CEF80100852A
:1017C0001185EBCF181619060CF41BCED2CEF1E022
:1017D000FF12BECE69ED76E004CF1F920F920FB6D6
:1017E0000F9211242F933F938F939F93AF93BF93A7
:1017F00080914F0590915005A0915105B0915205EF
:1018000030914E0523E0230F2D3758F50196A11D89
:10181000B11D20934E0580934F0590935005A093E2
:101820005105B09352058091530590915405A091B4
:101830005505B09156050196A11DB11D8093530524
:1018400090935405A0935505B0935605BF91AF9161
:101850009F918F913F912F910F900FBE0F901F90EE
:10186000189526E8230F0296A11DB11DD2CFEF9245
:10187000FF920F931F93CF93DF93F82E192FE62E2D
:10188000042F81E0860F880F0E948A0483E00E9463
:101890008A04CF2DD12FEC0EFD2EF11CCE15DF05C5
:1018A000B9F007FF13C0FE0184910E948A04182F2B
:1018B00080E00E948A04812321968111EFCFDF917D
:1018C000CF911F910F91FF90EF9008958881EDCFF8
:1018D00081E0F5CFEFE6F9E01382128288EE93E023
:1018E000A0E0B0E084839583A683B78382E291E091
:1018F000918380838FEF9FEF95878487EFEBF9E0EB
:101900001382128284E391E0918380830895CF93C0
:10191000DF93CDB7DEB76E970FB6F894DEBF0FBE7C
:10192000CDBF789484B5826084BD84B5816084BD68
:1019300085B5826085BD85B5816085BD80916E006D
:10194000816080936E00109281008091810082609E
:1019500080938100809181008160809381008091DB
:1019600080008160809380008091910082608093EC
:10197000910080919100816080939100809190000E
:101980008160809390008091C10084608093C10049
:101990008091C10082608093C1008091C10081600C
:1019A0008093C1008091C30081608093C3008091C7
:1019B000C00082608093C0008091C20081608093EB
:1019C000C20080917A00846080937A0080917A00CE
:1019D000826080937A0080917A00816080937A009F
:1019E00080917A00806880937A0010926C05109242
:1019F0005C0510925E058091D70081608093D700CE
:101A000080EA8093D80089B5806189BD89B58260FC
:101A100089BD09B400FEFDCF61E070E080E090E098
:101A20000E9441058091D8008F7C80618093D8000E
:101A30008091E000807F8093E0008091E1008E7EC5
:101A40008093E1008DE08093E200559A209A81EC2A
:101A500080937C0085B1806F85B984B1877E84B91D
:101A600084B1876E84B95E9A5F988AB1806D8AB9B5
:101A7000769A6E9881B3806F81BB899880B38D70A0
:101A800080BB80E58CBD81E08DBD85E090E00E944B
:101A900028065F9A85E090E00E9428065E985C9890
:101AA000EAE7F6E087E896E024912EBD00000DB449
:101AB00007FEFDCF31968E179F07B1F75C9A81E83C
:101AC00080936400809165008160809365000E942E
:101AD000400680E80E9435068823A9F05C9885EAD4
:101AE0008EBD00000DB407FEFDCF5C9A2E982F9896
:101AF0002D988091640080628093640081E083BFB0
:101B0000889513BEFCCF84E00E943506882309F433
:101B100048C02D9884E80E9435068823E1F00E9491
:101B2000260688EC90E00E9428062F9882E090E03C
:101B30000E94D3148F3F29F06FEF82E090E00E9463
:101B4000DB1484EF91E00E9428062F9A84E80E941B
:101B500035068111FBCF84E10E9435068823E1F030
:101B60000E94260688EC90E00E9428062E9882E0CB
:101B700090E00E94D314882329F060E082E090E096
:101B80000E94DB1484EF91E00E9428062E9A84E1E3
:101B90000E9435068111FBCF88EC90E00E94280658
:101BA000B2CF0E94260682E090E00E944A09882374
:101BB00009F4DFC03E9A3F9A81E090E00E944A0912
:101BC000282F2470922E81FF12C021112E98E1EF50
:101BD0004E2E55245A9408E010E080E40E94350609
:101BE000882309F4C9C02E9A2F9A0E94260682E300
:101BF00090E00E9428060E942D068111F8CF88E00F
:101C000080930001E7E8F6E0E49190917B008E2F4D
:101C1000880F880F80729F7D892B80937B00E770EF
:101C2000E064E0937C0080917A00806480937A0085
:101C300080917A0086FDFCCF6091780070917900E8
:101C4000072E000C880B990B611571058105910514
:101C500011F00E94CA140E94F607909331058093F8
:101C6000300580E491E09E838D83C12C82E0D82EE4
:101C7000E12CF12C92E0892E912CA12CB12C0E9408
:101C80007B14A70196010E94E9140E946D16AD8194
:101C9000BE816D937D938D939C9313970E947B14CB
:101CA000A70196010E94E9140E946D16ED81FE8144
:101CB00064837583868397830E947B14A5019401B6
:101CC0000E94E914AD81BE8119967C936E9318979A
:101CD0001A96BE83AD83A852B54089F684E690E09B
:101CE00090932F0580932E0580E090E0A0E8B3E468
:101CF00080933E0590933F05A0934005B093410526
:101D000080933A0590933B05A0933C05B0933D0525
:101D100010924A0510924B0510924C0510924D05F9
:101D200010924605109247051092480510924905F9
:101D300010924205109243051092440510924505F9
:101D40008FB7F89440914F0550915005609151051F
:101D5000709152058FBF10913E01112309F4D6C036
:101D600010923E0120E030E0232B51F30E9400004E
:101D7000E7CF3E983F9820CF992031F034E04316CA
:101D8000510411F42E9A2F9881E00E94AB03920126
:101D900057FE04C02227332724193509277033271B
:101DA000C20157FC079673E0959587957A95E1F700
:101DB00057FE05C00197A801421B530B9A01AC01C5
:101DC0005695542F44275795479543595A4FD12C30
:101DD000C12C3801621A730A8E3F6FEF960709F41F
:101DE0003AC07A01A4E9EA0EF11CDA0170E060E081
:101DF000F601E653FA4F5F018F3F980781F0F50136
:101E0000E60FF71FE491022E01C0EE0F0A94EAF7E5
:101E10005496FC915497EF2B5496EC9354972115BC
:101E2000310581F0F501E60FF71FE491F0E01F01A5
:101E3000062C02C0359427940A94E2F7F7018080BB
:101E4000282820826F5F7F4FFFEFEF1AFF0A11965D
:101E50006835710589F6019668E5C60ED11C4058B3
:101E60005F4FA0EBCA16D10409F0B6CF0E9440061E
:101E70008FE090E00E942806BFEF4B1A5B0AE9E171
:101E80004E16510409F0A9CE992011F02F9A2D98E1
:101E900080E991E00E9428060E94260681E090E0F9
:101EA0000E944A0980FFA3CE8AE090E00E944A097E
:101EB0009FEF980F9E3F08F09ACE22E330E03093D8
:101EC00029052093280528E330E030932B05209343
:101ED0002A052BE030E03A832983682F8FEB99E0C5
:101EE0000E948F0789819A810E944A0949815A81FB
:101EF0004F5F5F4F5A8349834131510571F70E940B
:101F0000400688EE93E00E94280671CE80913F0142
:101F1000F42FF81B8F2F90910001F91748F48F5F71
:101F2000891708F01FCF21E023BF889513BE1ACF71
:101F300031E030933E0140933F0180913C0190910C
:101F40003D01019690933D0180933C0140912D0508
:101F50004B8740932C050E942D068F8380932D057F
:101F6000EDE6F5E011111FEF002411931193119389
:101F700011930394D1F710922B0510922A05109219
:101F800029051092280580E20E9435068823B1F0C9
:101F90002DEC3CEC4CE45DE360914A0570914B05FF
:101FA00080914C0590914D050E944C1560934A0517
:101FB00070934B0580934C0590934D0580E40E94EF
:101FC00035068823B1F02DEC3CEC4CE45DE36091E8
:101FD0004A0570914B0580914C0590914D050E94EA
:101FE0004D1560934A0570934B0580934C05909373
:101FF0004D0588E00E943506882309F44AC0809088
:10200000420590904305A0904405B09045052BED06
:102010003FE049EC5FE360914A0570914B05809188
:102020004C0590914D050E944C156B017C010E945E
:10203000BE152DEC3CEC4CEC5DE30E9461179B015E
:10204000AC016091460570914705809148059091DB
:1020500049050E944D15609346057093470580938E
:10206000480590934905C701B6010E94CE172DEC93
:102070003CEC4CEC5DE30E946117A50194010E94C9
:102080004D156093420570934305809344059093EA
:102090004505409046055090470560904805709072
:1020A000490520913E0530913F05409140055091F2
:1020B0004105C301B2010E944D154B015C018092A4
:1020C0003E0590923F05A0924005B0924105809157
:1020D000420590914305A0914405B091450589833F
:1020E0009A83AB83BC8320913A0530913B054091A4
:1020F0003C0550913D05BC01CD010E944D156B0181
:102100007C01C0923A05D0923B05E0923C05F092EA
:102110003D0524EA30E74DE75FE3C301B2010E94C9
:102120006117609346057093470580934805909327
:10213000490524EA30E74DE75FE369817A818B81C5
:102140009C810E94611760934205709343058093C0
:1021500044059093450520E030E0A901C501B40194
:102160000E94B91587FF08C010923E0510923F05E6
:10217000109240051092410520E030E040E054E428
:1021800060913E0570913F05809140059091410519
:102190000E945C17181664F480E090E0A0E0B4E4BC
:1021A00080933E0590933F05A0934005B093410571
:1021B00020E030E0A901C701B6010E94B91587FFF0
:1021C00008C010923A0510923B0510923C051092FF
:1021D0003D0520E030E040E054E460913A05709124
:1021E0003B0580913C0590913D050E945C171816B7
:1021F00064F480E090E0A0E0B4E480933A0590932A
:102200003B05A0933C05B0933D0520E030E040E85D
:1022100052E460913E0570913F0580914005909198
:1022200041050E944C154B015C018092360590924D
:102230003705A0923805B092390520E030E040E043
:1022400052E460913A0570913B0580913C05909174
:102250003D050E944C156B017C01C0923205D09265
:102260003305E0923405F092350520E030E0A90115
:10227000C501B4010E94B91587FF08C01092360548
:1022800010923705109238051092390520E030E0A1
:1022900040EC53E460913605709137058091380524
:1022A000909139050E945C17181664F480E090E064
:1022B000A0ECB3E48093360590933705A0933805DE
:1022C000B093390520E030E0A901C701B6010E94B2
:1022D000B91587FF08C0109232051092330510928D
:1022E00034051092350520E030E040EE53E4609173
:1022F00032057091330580913405909135050E9427
:102300005C17181664F480E090E0A0EEB3E48093CC
:10231000320590933305A0933405B093350500E45E
:1023200011E020E030E040E05FE36091360570911D
:10233000370580913805909139050E9461179B01FE
:10234000AC01D8016D917D918D919C910E944C15AD
:102350000E9435166B016038710588F520E030E089
:1023600040E05FE360913205709133058091340560
:10237000909135050E9461179B01AC01F8016481C1
:102380007581868197810E944C150E9435162B011C
:1023900060347105A0F4D8011896AD90BC904A2D18
:1023A000440F4F5FC5019927B201681B790BC60125
:1023B0000E94E5064A2DB201C6010E940B07065F86
:1023C0001F4FED81FE81E017F10709F0AACFFB85D1
:1023D000F2FD11C02F8122FF0EC080913005909137
:1023E0003105009711F00E94C1180E94F6079093E2
:1023F000310580933005209030053090310521144F
:10240000310409F4FAC03A8229823C862B8610E016
:1024100000E040916D0950916E0958874F83C0903C
:102420003605D0903705E0903805F090390580905A
:10243000320590903305A0903405B090350504170F
:102440001507D4F520E030E040E853E4AB85BC85C7
:102450006D917D918D919C910E944D15A7019601E2
:102460000E944C150E9435166B0120E030E040E8D8
:1024700053E4EB85FC8564817581868197810E9498
:102480004D15A50194010E944C150E9435164B0173
:102490006150710943E0C6010E94E50641E0B401C4
:1024A000C6010E940B070F5F1F4F2B853C85285FDD
:1024B0003F4F3C872B87ADCF4F81588514161506AB
:1024C0000CF09BC020E030E040E853E4D1016D9176
:1024D0007D918D919C910E944D15A70196010E94BE
:1024E0004C150E9435168B0120E030E040E853E4A3
:1024F000F10164817581868197810E944D15A50146
:1025000094010E944C150E9435167C8B6B8B21E048
:1025100030E03C872B8749815A81485F5F4F5A835F
:1025200049838F819885AB85BC8520E030E040E809
:1025300053E48A179B07C9F1E981FA8160817181AF
:10254000828193810E944D15A70196010E944C152E
:102550000E9435166F87788B898B9A8B20E030E04C
:1025600040E853E4A981BA8114966D917D918D91D3
:102570009C9117970E944D15A50194010E944C153E
:102580000E9435162B019B014F8558896B897C89E8
:10259000C8010E946106EB85FC853196FC87EB87BC
:1025A0005C8A4B8A0F851889B6CFD10114966D913C
:1025B0007D918D919C9117970E944D15A5019401D5
:1025C0000E944C150E9435164B0120E030E040E897
:1025D00053E4F10160817181828193810E944D15E4
:1025E000A70196010E944C150E9435169401AB017B
:1025F0006B897C89C8010E94610620913605309163
:102600003705409138055091390560913E0570912C
:102610003F0580914005909141050E944C156983CA
:102620007A838B839C8320913205309133054091CE
:1026300034055091350560913A0570913B058091C4
:102640003C0590913D050E944C156F8378878987E2
:102650009A87C0904A05D0904B05E0904C05F090C9
:102660004D05C701B6010E94BE154B015C01C701B3
:10267000B6010E94CE176B017C0120E030E040E8FB
:1026800050E40E9461176B877C878D879E8720E0CE
:1026900030E040E850E4C501B4010E9461176F8743
:1026A000788B898B9A8B20E030E0A901C501B401B9
:1026B0000E9461172B013C0120E030E040E850EC23
:1026C000C701B6010E9461179B01AC01C301B201B1
:1026D0000E944C1529813A814B815C810E944D15E5
:1026E0000E9435166B8B7C8B8D8B9E8B20E030E0AF
:1026F000A901C701B6010E9461172B013C0120E02E
:1027000030E040E850ECC501B4010E9461179B0124
:10271000AC01C301B2010E944D152F813885498556
:102720005A850E944D150E9435166F8B788F898FC0
:102730009A8F20E030E040E450ECC501B4010E94E3
:1027400061172B853C854D855E850E944C1529813E
:102750003A814B815C810E944D150E9435166B8F2A
:102760007C8F8D8F9E8F20E030E040E450ECC701DD
:10277000B6010E9461172F85388949895A890E94BC
:102780004D152F81388549855A850E944D150E9427
:1027900035162B0120E030E040E450E4C501B401DF
:1027A0000E9461172B853C854D855E850E944C15E6
:1027B00029813A814B815C810E944D150E9435161A
:1027C0004B0120E030E040E450E4C701B6010E9434
:1027D00061172F85388949895A890E944D152F81A3
:1027E000388549855A850E944D150E9435166B0122
:1027F00092014B8D5C8D6F89788D8B899C890E94AD
:1028000061069601A401B2018B8D9C8D0E94610628
:102810002F89388D4B895C89B601C4010E946106FD
:10282000C0902E05D0902F050D2C000CEE08FF084F
:102830004AE0C701B601F7FE0DC06DE28FEB99E0EB
:102840000E948F0766277727CB016C197D098E09B7
:102850009F094AE00E94FC080E94400683CA8F92AA
:102860009F92AF92BF92CF92DF92EF92FF92CF935F
:10287000DF93EC01688179818A819B816115710503
:102880008105910521F464E279ED8BE597E02DE176
:1028900033EF41E050E00E94E91449015A019B01E5
:1028A000AC01A7EAB1E40E9408156B017C01ACEE13
:1028B000B4EFA50194010E941615C60ED71EE81E9E
:1028C000F91EF7FE06C081E0C81AD108E10880E8C9
:1028D000F80AC882D982EA82FB82C701B6019F77D3
:1028E000DF91CF91FF90EF90DF90CF90BF90AF90AE
:1028F0009F908F9008958F929F92AF92BF92CF92A8
:10290000DF92EF92FF9260910D0170910E01809124
:102910000F0190911001611571058105910521F458
:1029200064E279ED8BE597E02DE133EF41E050E093
:102930000E94E91449015A019B01AC01A7EAB1E4E4
:102940000E9408156B017C01ACEEB4EFA501940167
:102950000E941615C60ED71EE81EF91EF7FE06C009
:1029600081E0C81AD108E10880E8F80AC0920D0198
:10297000D0920E01E0920F01F0921001C701B60152
:102980009F77FF90EF90DF90CF90BF90AF909F9098
:102990008F90089560930D0170930E0180930F0145
:1029A000909310010895F999FECF92BD81BDF89AD8
:1029B000992780B50895262FF999FECF1FBA92BDA9
:1029C00081BD20BD0FB6F894FA9AF99A0FBE019610
:1029D0000895052E97FB1EF400940E94001557FDE4
:1029E00007D00E941B1507FC03D04EF40C94001571
:1029F00050954095309521953F4F4F4F5F4F08952B
:102A000090958095709561957F4F8F4F9F4F08955A
:102A10000E943D15A59F900DB49F900DA49F800D21
:102A2000911D11240895B7FF0C9408150E940815F4
:102A3000821B930B0895A1E21A2EAA1BBB1BFD015A
:102A40000DC0AA1FBB1FEE1FFF1FA217B307E4078D
:102A5000F50720F0A21BB30BE40BF50B661F771FE5
:102A6000881F991F1A9469F76095709580959095C5
:102A70009B01AC01BD01CF010895A29FB001B39F9E
:102A8000C001A39F700D811D1124911DB29F700D77
:102A9000811D1124911D08955058BB27AA270E941B
:102AA00064150C940E170E94D51638F00E94DC169F
:102AB00020F039F49F3F19F426F40C94D2160EF44A
:102AC000E095E7FB0C94CC16E92F0E94331758F3DE
:102AD000BA17620773078407950720F079F4A6F503
:102AE0000C9455170EF4E0950B2EBA2FA02D0B0168
:102AF000B90190010C01CA01A0011124FF27591B43
:102B000099F0593F50F4503E68F11A16F040A22F48
:102B1000232F342F4427585FF3CF469537952795B9
:102B2000A795F0405395C9F77EF41F16BA0B620BB8
:102B3000730B840BBAF09150A1F0FF0FBB1F661FFF
:102B4000771F881FC2F70EC0BA0F621F731F841F42
:102B500048F4879577956795B795F7959E3F08F068
:102B6000B0CF9395880F08F09927EE0F979587952A
:102B700008950E94A81608F481E008950E94E516C1
:102B8000E3950C941F170E94D7150C940E170E9402
:102B9000DC1658F00E94D51640F029F45F3F29F06A
:102BA0000C94CC1651110C9456170C94D2160E940A
:102BB000331768F39923B1F3552391F3951B550B04
:102BC000BB27AA2762177307840738F09F5F5F4F00
:102BD000220F331F441FAA1FA9F335D00E2E3AF03F
:102BE000E0E832D091505040E695001CCAF72BD057
:102BF000FE2F29D0660F771F881FBB1F26173707A8
:102C00004807AB07B0E809F0BB0B802DBF01FF27D9
:102C100093585F4F3AF09E3F510578F00C94CC16D4
:102C20000C9456175F3FE4F3983ED4F3869577955E
:102C30006795B795F7959F5FC9F7880F911D969592
:102C4000879597F90895E1E0660F771F881FBB1FEE
:102C5000621773078407BA0720F0621B730B840B9B
:102C6000BA0BEE1F88F7E09508950E943C16689411
:102C7000B1110C94561708950E943B1788F09F5786
:102C800098F0B92F9927B751B0F0E1F0660F771F90
:102C9000881F991F1AF0BA95C9F714C0B13091F086
:102CA0000E945517B1E008950C945517672F782F9F
:102CB0008827B85F39F0B93FCCF38695779567954B
:102CC000B395D9F73EF490958095709561957F4FB7
:102CD0008F4F9F4F0895E89409C097FB3EF490955D
:102CE0008095709561957F4F8F4F9F4F9923A9F0E5
:102CF000F92F96E9BB279395F69587957795679574
:102D0000B795F111F8CFFAF4BB0F11F460FF1BC0B7
:102D10006F5F7F4F8F4F9F4F16C0882311F096E94A
:102D200011C0772321F09EE8872F762F05C06623F8
:102D300071F096E8862F70E060E02AF09A95660FB1
:102D4000771F881FDAF7880F9695879597F908956A
:102D5000990F0008550FAA0BE0E8FEEF16161706AC
:102D6000E807F907C0F012161306E407F50798F014
:102D7000621B730B840B950B39F40A2661F0232B2D
:102D8000242B252B21F408950A2609F4A140A695A9
:102D90008FEF811D811D089597F99F6780E870E08E
:102DA00060E008959FEF80EC089500240A941616C1
:102DB000170618060906089500240A941216130629
:102DC0001406050608950C94D2160E943B17D8F3FA
:102DD000E894E0E0BB279F57F0F02AED3FE049EC94
:102DE00006C0EE0FBB0F661F771F881F28F0B23A90
:102DF00062077307840728F0B25A620B730B840BC7
:102E0000E3959A9572F7803830F49A95BB0F661F58
:102E1000771F881FD2F790480C94D817092E039477
:102E2000000C11F4882352F0BB0F40F4BF2B11F4B7
:102E300060FF04C06F5F7F4F8F4F9F4F0895EF93E8
:102E4000E0FF07C0A2EA2AED3FE049EC5FEB0E94F9
:102E500064150E940E170F90039401FC9058ECEA41
:102E6000F0E00C94E41757FD9058440F551F59F0AB
:102E70005F3F71F04795880F97FB991F61F09F3F67
:102E800079F087950895121613061406551FF2CF90
:102E90004695F1DF08C0161617061806991FF1CFE0
:102EA00086957105610508940895E894BB27662707
:102EB0007727CB0197F908950E94A81608F48FEFA1
:102EC00008950E9474170C940E170E94D51638F0BE
:102ED0000E94DC1620F0952311F00C94CC160C9473
:102EE000D21611240C9456170E94331770F3959F35
:102EF000C1F3950F50E0551F629FF001729FBB27F1
:102F0000F00DB11D639FAA27F00DB11DAA1F649F8C
:102F10006627B00DA11D661F829F2227B00DA11D3F
:102F2000621F739FB00DA11D621F839FA00D611DC5
:102F3000221F749F3327A00D611D231F849F600DE6
:102F4000211D822F762F6A2F11249F5750409AF00F
:102F5000F1F088234AF0EE0FFF1FBB1F661F771F9B
:102F6000881F91505040A9F79E3F510580F00C9466
:102F7000CC160C9456175F3FE4F3983ED4F3869535
:102F800077956795B795F795E7959F5FC1F7FE2B06
:102F9000880F911D9695879597F908959F930E94A4
:102FA000E5160F9007FCEE5F0C941F179F3F31F062
:102FB000915020F4879577956795B795880F911D67
:102FC0009695879597F908959F938F937F936F9325
:102FD000FF93EF939B01AC010E946117EF91FF916A
:102FE0000E94F8172F913F914F915F910C946117B8
:102FF000DF93CF931F930F93FF92EF92DF927B01AA
:103000008C01689406C0DA2EEF010E947417FE014D
:10301000E894A5912591359145915591A6F3EF013D
:103020000E946415FE019701A801DA9469F7DF9008
:10303000EF90FF900F911F91CF91DF910895EE0FC8
:10304000FF1F0590F491E02D09940F931F93CF93E8
:10305000DF938230910510F482E090E0E091C509A1
:10306000F091C60930E020E0B0E0A0E0309799F49C
:103070002115310509F44AC0281B390B24303105CC
:10308000D8F58A819B816115710589F1FB019383D4
:103090008283FE0111C04081518102811381481752
:1030A0005907E0F04817590799F4109761F0129604
:1030B0000C93129713961C933296CF01DF91CF9108
:1030C0001F910F9108950093C5091093C609F4CF7D
:1030D0002115310551F04217530738F0A901DB01E2
:1030E0009A01BD01DF01F801C1CFEF01F9CF909343
:1030F000C6098093C509CDCFFE01E20FF31F81936E
:1031000091932250310939832883D7CF2091C30965
:103110003091C409232B41F4209113013091140103
:103120003093C4092093C3092091110130911201F9
:103130002115310541F42DB73EB74091150150914D
:103140001601241B350BE091C309F091C409E21765
:10315000F307A0F42E1B3F0B2817390778F0AC01BA
:103160004E5F5F4F2417350748F04E0F5F1F509397
:10317000C4094093C309819391939FCFF0E0E0E0AD
:103180009CCFCF93DF930097E9F0FC013297138235
:103190001282A091C509B091C609ED0130E020E08E
:1031A0001097A1F420813181820F931F2091C309D0
:1031B0003091C4092817390709F061C0F093C40998
:1031C000E093C309DF91CF910895EA01CE17DF079D
:1031D000E8F54A815B819E0141155105B1F7E9018E
:1031E000FB83EA8349915991C40FD51FEC17FD0762
:1031F00061F4808191810296840F951FE901998382
:103200008883828193819B838A83F0E0E0E0129639
:103210008D919C9113970097B9F52D913C91119741
:10322000CD010296820F931F2091C3093091C409EA
:103230002817390739F6309751F51092C6091092C0
:10324000C509B093C409A093C309BCCFD383C2837B
:1032500040815181840F951FC817D90761F44E5FD3
:103260005F4F88819981480F591F518340838A811C
:103270009B81938382832115310509F0B0CFF093B0
:10328000C609E093C5099ECFFD01DC01C0CF1382C2
:083290001282D7CFF894FFCFA2
:1032980010FFFFFFFF00E100000000000001000038
:1032A800000000C709800000C18081000000000004
:1032B8000000090474052A041F0470042E044C0439
:0C32C800000000008F07F905F307F20773
:00000001FF
