:100000000C94F3030C941B040C941B040C941B041D
:100010000C941B040C941B040C941B040C941B04E4
:100020000C941B040C941B040C946C130C94DB13A5
:100030000C941B040C941B040C941B040C941B04C4
:100040000C941B040C941B040C941B040C941B04B4
:100050000C941B040C941B040C941B040C9422138E
:100060000C941B040C941B040C941B040C941B0494
:100070000C941B040C941B040C941B040C941B0484
:100080000C941B040C941B040C941B040C941B0474
:100090000C941B040C941B040C941B040C941B0464
:1000A0000C941B040C941B040C941B04084AD73BAF
:1000B0003BCE016E84BCBFFDC12F3D6C74319ABD37
:1000C00056833DDA3D00C77F11BED9E4BB4C3E915B
:1000D0006BAAAABE000000803F05A84CCDB2D44E4A
:1000E000B93836A9020C50B9918688083CA6AAAA4C
:1000F0002ABE000000803F0003081F051F1F151BBC
:100100001F11111F110E1F15111F05011F111D1F9A
:10011000041F001F0010101F1F041B1F10101F06BC
:100120001F1F011F1F111F1F05071F311F1F051B49
:1001300017151D011F011F101F0F100F1F0C1F1B74
:10014000041B071C071915130C121E1F120C1E127C
:10015000120C121F0C1A14041F052E2A1E1F021C3B
:10016000001D00201D001F041A011F001E041E1E7A
:10017000021E1E121E3E120C0C123E1E020614120D
:100180000A020F121E101E0E100E1E081E1A041A4E
:100190002E281E1A12161F111F001F001D151711E1
:1001A000151F07041F17151D1F151D01011F1F1502
:1001B0001F17151F00170000100000000000003E70
:1001C0005B4F5B3E3E6B4F6B3E1C3E7C3E1C183CC7
:1001D0007E3C181C577D571C1C5E7F5E1C00183C23
:1001E0001800FFE7C3E7FF0018241800FFE7DBE76C
:1001F000FF30483A060E2629792926407F05050753
:10020000407F05253F5A3CE73C5A7F3E1C1C0808AE
:100210001C1C3E7F14227F22145F5F005F5F060973
:100220007F017F006689956A606060606094A2FFCC
:10023000A29408047E040810207E201008082A1CBE
:1002400008081C2A08081E101010100C1E0C1E0C8A
:1002500030383E3830060E3E0E060000000000002A
:10026000005F00000007000700147F147F14242A99
:100270007F2A12231308646236495620500008076B
:100280000300001C2241000041221C002A1C7F1C8C
:100290002A08083E0808008070300008080808088E
:1002A000000060600020100804023E5149453E00F5
:1002B000427F400072494949462141494D33181453
:1002C000127F1027454545393C4A494931412111A2
:1002D00009073649494936464949291E0000140094
:1002E00000004034000000081422411414141414B7
:1002F000004122140802015909063E415D594E7C15
:100300001211127C7F494949363E414141227F41C9
:1003100041413E7F494949417F090909013E414127
:1003200051737F0808087F00417F41002040413F12
:10033000017F081422417F404040407F021C027F21
:100340007F0408107F3E4141413E7F090909063E76
:100350004151215E7F091929462649494932030145
:100360007F01033F4040403F1F2040201F3F403857
:10037000403F631408146303047804036159494D32
:1003800043007F4141410204081020004141417F68
:1003900004020102044040404040000307080020DE
:1003A000545478407F2844443838444444283844DE
:1003B00044287F385454541800087E090218A4A415
:1003C0009C787F0804047800447D40002040403D34
:1003D000007F1028440000417F40007C04780478AE
:1003E0007C080404783844444438FC182424181841
:1003F000242418FC7C08040408485454542404049D
:100400003F44243C4040207C1C2040201C3C403089
:10041000403C44281028444C9090907C4464544CB8
:100420004400083641000000770000004136080013
:1004300002010204023C2623263C1EA1A161123ABD
:100440004040207A3854545559215555794121540A
:10045000547841215554784020545579400C1E520F
:1004600072123955555559395454545939555454B3
:10047000580000457C410002457D420001457C401A
:10048000F0292429F0F0282528F07C545545002037
:1004900054547C547C0A097F4932494949323248D4
:1004A000484832324A4848303A4141217A3A42403B
:1004B0002078009DA0A07D39444444393D4040400F
:1004C0003D3C24FF2424487E4943662B2FFC2F2BE0
:1004D000FF0929F620C0887E090320545479410081
:1004E00000447D413048484A32384040227A007A00
:1004F0000A0A727D0D19317D2629292F28262929DE
:10050000292630484D4020380808080808080808FF
:10051000382F10C8ACBA2F102834FA00007B000026
:1005200008142A142222142A14089500220095AADD
:10053000005500AAAA55AA55AA000000FF001010F5
:1005400010FF00141414FF001010FF00FF1010F033
:1005500010F0141414FC001414F700FF0000FF0046
:10056000FF1414F404FC141417101F10101F101F94
:100570001414141F00101010F0000000001F1010C1
:1005800010101F10101010F010000000FF101010BD
:10059000101010101010FF10000000FF140000FFDA
:1005A00000FF00001F10170000FC04F414141710C3
:1005B000171414F404F40000FF00F71414141414B6
:1005C0001414F700F7141414171410101F101F142C
:1005D0001414F4141010F010F000001F101F00008D
:1005E000001F14000000FC140000F010F01010FFB9
:1005F00010FF141414FF141010101F00000000F05E
:1006000010FFFFFFFFFFF0F0F0F0F0FFFFFF000032
:10061000000000FFFF0F0F0F0F0F38444438447CD9
:100620002A2A3E147E02020606027E027E026355DC
:100630004941633844443C04407E201E2006027E2B
:10064000020299A5E7A5991C2A492A1C4C7201723D
:100650004C304A4D4D303048784830BC625A463DA7
:100660003E494949007E0101017E2A2A2A2A2A445C
:10067000445F444440514A444040444A5140000091
:10068000FF0103E080FF000008086B6B083612369C
:100690002436060F090F060000181800000010107D
:1006A000003040FF0101001F01011E00191D17123B
:1006B000003C3C3C3C0000000000080B0002020231
:1006C00000000904000001020200000524001001DE
:1006D0000524010101042402060524060001070582
:1006E000810310004009040100020A000000070510
:1006F00002024000000705830240000004030904D1
:1007000012010002EF020140412336800001010284
:10071000030141726475696E6F204C4C4300417255
:100720006475626F7900F0F89C8E8783878E9CF8E1
:10073000F00000FEFF0303030303070EFCF80000B4
:10074000FEFF0303030303070EFCF80000FFFF0096
:10075000000000000000FFFF0000FEFF8383838392
:1007600083C7EE7C380000F8FC0E07030303070E76
:10077000FCF800003F7FE0C08080C0E07F3FFFFFCB
:1007800001010101010101FFFF0000FFFF0C0C0C42
:100790000C1C3E77E3C100007FFFC0C0C0C0C0E0BA
:1007A000703F1F00001F3F70E0C0C0C0E0703F1FDF
:1007B00000007FFFC1C1C1C1C1E3773E1C00001F23
:1007C0003F70E0C0C0C0E0703F1F000000000001AB
:1007D000FFFF01000000D5F08D14A1C881CFD9F131
:1007E000AF200000401611241FBECFEFDAE0DEBFBD
:1007F000CDBF11E0A0E0B1E0EAE5F7E502C0059069
:100800000D92A838B107D9F727E0A8E8B1E001C0F8
:100810001D92A43BB207E1F713E0C3EFD3E004C09D
:100820002197FE010E94802AC23FD107C9F70E948A
:1008300077160C94AB2B0C940000EEE2F2E0A0E0F3
:10084000B8E000800EBC8111012C1197A0FDFDCFF6
:100850000192B9F70DB40895FC0180912D0288230F
:1008600011F13FB7F89482E08093E9002091F20003
:10087000822F90E01816190614F481E090E0882386
:1008800039F0289844E640932C024091F1004083CF
:10089000222339F02091F200211103C02BE620938E
:1008A000E8003FBF08958FEF9FEF08952FB7F894AA
:1008B00083E08093E9009091E800892F807295FF92
:1008C00004C09091F20080E4891B2FBF08958091AD
:1008D000240281110DC082E08093200284E0809385
:1008E0002102109223021092220281E080932402BE
:1008F00080E292E008953FB7F89480911C029091B5
:100900001D02A0911E02B0911F0226B5A89B05C032
:100910002F3F19F00196A11DB11D3FBFBA2FA92F7E
:10092000982F8827BC01CD01620F711D811D911D7B
:1009300042E0660F771F881F991F4A95D1F70895E7
:100940008F929F92AF92BF92CF92DF92EF92FF92DF
:100950006B017C010E947B044B015C01C114D1043A
:10096000E104F104B9F00E947B04681979098A094D
:100970009B09683E73408105910580F321E0C21A0E
:10098000D108E108F10888EE880E83E0981EA11CCA
:10099000B11CE4CFFF90EF90DF90CF90BF90AF906D
:1009A0009F908F90089540918A0150918B012091E2
:1009B00088013091890142175307B4F49091E800FF
:1009C0009570E1F39091E80092FD19C08093F100D9
:1009D00080918A0190918B0101968F739927892BC1
:1009E00019F48EEF8093E80080918A0190918B0139
:1009F000019690938B0180938A0181E0089580E0B5
:100A00000895DF92EF92FF920F931F93CF93DF939E
:100A1000D82E8A01EB017B01E40EF51ECE15DF0511
:100A200059F0D7FE12C0FE0184910E94D304219692
:100A30008111F4CF0FEF1FEFC801DF91CF911F910C
:100A40000F91FF90EF90DF9008958881EECF0F9384
:100A50001F93CF93DF931F92CDB7DEB782E08983D8
:100A600042E450E06AEB76E080E80E9401050E94D3
:100A70006704DC0112960D911C910115110589F096
:100A8000D801ED91FC910280F381E02DBE016F5FF2
:100A90007F4FC801099597FD04C0F80100851185B5
:100AA000ECCF89810F90DF91CF911F910F91089525
:100AB000615030F02091F100FC0120830196F8CFC5
:100AC000289884E680932C020895AF92BF92CF922B
:100AD000DF92EF92FF920F931F93CF93DF936C01FE
:100AE0007B018B01040F151FEB015E01AE18BF08DF
:100AF000C017D10759F06991D601ED91FC91019091
:100B0000F081E02DC6010995892B79F7C501DF91A8
:100B1000CF911F910F91FF90EF90DF90CF90BF90FA
:100B2000AF9008958F929F92AF92BF92CF92DF9233
:100B3000EF92FF920F931F93CF93DF936C017B0192
:100B40008A0180910B01882309F45CC080912D02F9
:100B5000882309F457C080918E0180FF05C08091E1
:100B6000E00082608093E000E801B12C8AEFA82EBB
:100B700093E0892E2AE3922E209711F4BB20D9F11D
:100B80000E94560481110AC0AA94AA20D9F161E0FA
:100B900070E080E090E00E94A004EECF8C171D066C
:100BA00011F00CF08C2F9FB7F8948092E9002091FF
:100BB000E80025FD02C09FBFDFCF282F30E0C21B19
:100BC000D30BF701815020F041914093F100FACF0F
:100BD000E20EF31EBB2021F09092E800B12CEBCF87
:100BE0008091E80085FDE7CF9092E800BB24B394A4
:100BF000209709F3F3CF5D9884E680938D0110165A
:100C000011063CF081E090E0F6019383828310E0CE
:100C100000E0C801DF91CF911F910F91FF90EF90FD
:100C2000DF90CF90BF90AF909F908F900895CF931B
:100C3000DF931F92CDB7DEB76983DC01ED91FC91A4
:100C40000280F381E02D41E050E0BE016F5F7F4FF5
:100C500009950F90DF91CF91089583E08093E9008B
:100C60008091F200882319F08AE38093E8000895C8
:100C70000E94560490E00895CF93DF931F92CDB762
:100C8000DEB7FC018485958597FD08C02FEF3FEF07
:100C9000358724870F90DF91CF910895CE0101967B
:100CA0000E942C04019719F4898190E0F3CF8FEF13
:100CB0009FEFF0CF0F931F93CF93DF931F92CDB78A
:100CC000DEB78C01FC018485958597FF0BC0CE01B2
:100CD00001960E942C04019771F4898190E0F8013B
:100CE00095878487F801848595850F90DF91CF9152
:100CF0001F910F9108958FEF9FEFF1CFFC01848535
:100D0000958597FD0BC09FB7F89482E08093E9002A
:100D10008091F2009FBF90E0019608959FB7F894EC
:100D200082E08093E9008091F2009FBF90E00895F7
:100D30004F925F926F927F928F929F92AF92BF92EB
:100D4000CF92DF92EF92FF920F931F93CF93DF9397
:100D50004C015901FC2DC02FD0E0CE01880D991D0A
:100D6000181619060CF067C09B012E0D311D1216C6
:100D700013060CF060C0603471050CF05CC04115C6
:100D8000510509F458C0262F2770F22EDB0177FD9C
:100D9000179633E0B595A7953A95E1F73A2F77FF87
:100DA00004C0FF2011F03FEF3A0F6627772768193C
:100DB000790997FC02C070E060E0803891050CF47E
:100DC0004BC090E89819961BA32F032E000CBB0B69
:100DD0001A2F10953F3F0CF010E021E08E2D877008
:100DE00009F420E0E694E694E694E20EAE0DB11D1F
:100DF00019971CF028E0E22EE31AE11A310F20E8DF
:100E00003203D0011124A80DB91DA60FB71F019FF1
:100E1000600D711D1124460F571F0F2D0F2C000C54
:100E2000110BF33009F41CC1C8F4F13009F4D0C03F
:100E3000F23009F47CC0DF91CF911F910F91FF90A8
:100E4000EF90DF90CF90BF90AF909F908F907F906A
:100E50006F905F904F900895902FB5CFFA3FB1F10A
:100E6000232F2E0DFB3F39F7321729F3BD01625DA9
:100E70007D4FD12CC12CC91608F0A4C0FA01EC0D8D
:100E8000FD1DE491F0E04F01002E02C0880C991C7A
:100E90000A94E2F737FD06C0FB018081E82CE0945C
:100EA0008E218083FF2061F0373054F45B01F0E83D
:100EB000AF0EB11CE92CE094F50180818E21808376
:100EC000FFEFCF1ADF0A6F5F7F4FD5CF232F2E0D95
:100ED000321709F4B0CFBD01625D7D4FD12CC12C1A
:100EE000C91608F069C0FA01EC0DFD1DE491F0E0AF
:100EF0004F01002E02C0880C991C0A94E2F737FDBE
:100F000004C0FB01808188298083FF2051F03730A5
:100F100044F45B01F0E8AF0EB11CF5018081892932
:100F20008083FFEFCF1ADF0A6F5F7F4FD9CF6FEF5C
:100F300070E00F2C02C0660F771F0A94E2F76095ED
:100F40007095772E232F2E0D321709F474CFFD01E3
:100F5000E25DFD4F6F01B12CA12CA91638F5FA0105
:100F6000EA0DFB1DE491F0E02F01002E02C0440CBD
:100F7000551C0A94E2F737FD05C0F60180818623EF
:100F800084298083FF2059F037304CF44601F0E883
:100F90008F0E911CF4018081872185298083FFEFCA
:100FA000AF1ABF0A8FEFC81AD80AD7CF3F5F4C0FCE
:100FB0005D1FA058BF4FC8CF3F5F4C0F5D1FA058AB
:100FC000BF4F86CF3F5F4C0F5D1FA058BF4F4CCF28
:100FD0006A0D7B1D232F2E0D321709F42CCFFD0136
:100FE000E25DFD4F6F01B12CA12CA91688F5FB0124
:100FF000EA0DFB1D8490912C002E02C0880C991CD8
:101000000A94E2F780949094FA01EA0DFB1D649033
:10101000712C002E02C0660C771C0A94E2F737FD93
:1010200005C0F6018081882186298083FF2049F050
:1010300037303CF4F601E058FF4F80818921872941
:101040008083FFEFAF1ABF0A8FEFC81AD80ACDCF3F
:101050003F5F4C0F5D1F6C0F7D1FA058BF4FBCCF73
:10106000C92ED12CFA01E60FF71FA25DBD4F00E893
:1010700010E00C191D09CC19DD09BE01660F771FA0
:1010800041E050E06A010F2C01C0CC0C0A94EAF751
:10109000592F2E2D792ECF93DF93ED01EF96EF96FA
:1010A00022968590A590FF2059F08C9C4001AC9C25
:1010B000500137302CF4E880B094EB20E928E99215
:1010C00033233AF0EC90A094EA20E828ED920C94B7
:1010D0006A0811965A9529F72A9551F0572D33959C
:1010E0001124E60FF11DA00FB11DC00FD11DD9CFE6
:1010F000DF91CF9111249FCE2D9A0895BC0190E0ED
:1011000080E00C94A0048FB18095807F669B8860FE
:101110001C9B8460089580E0EEE2F2E081118FEF85
:10112000002481938193819381930394D1F710924A
:1011300091011092900110929701109296010895DA
:10114000CF93C82F0E948308982F9C2381E09C1383
:1011500080E0CF91089580E00C941D0480389105C3
:10116000B8F460347105A0F420E191E061FD94E0F1
:1011700060FD990F62FD9295687F269FD001112432
:10118000A80FA25DBD4F8C9140FF03C0892B8C93AB
:10119000089590958923FBCF2F923F924F925F92B3
:1011A0006F927F928F929F92AF92BF92CF92DF9277
:1011B000EF92FF920F931F93CF93DF93EC018B017C
:1011C0007A016901C61AD70AD7FE03C0D194C19427
:1011D000D10847018C1A9D0A97FE03C0919481940F
:1011E00091088C149D0454F49E2D8F2D7901292F84
:1011F000382F9C2F8D2FE801092F182FEC16FD0694
:1012000054F4902F812F8901292F382F9C2F8D2F57
:10121000E701E92EF82E17012C1A3D0A2901401A80
:10122000510A57FE03C0519441945108310137FED1
:1012300003C08FEF681A780A759467948FEF0217CE
:1012400013070CF481E0A82E880FBB08EC16FD06EE
:10125000A4F041E0BE01C8018C149D0414F0B80153
:10126000CE010E94AE086418750877FE04C00A0D0E
:101270001B1D620C731C2196E9CFDF91CF911F914A
:101280000F91FF90EF90DF90CF90BF90AF909F9025
:101290008F907F906F905F904F903F902F90089528
:1012A000EF92FF920F931F93CF93DF937C018B01FB
:1012B000040F111DEB0177FF02C0D0E0C0E0C801B0
:1012C0000134110514F080E490E0C817D9073CF40C
:1012D00041E0BE01C7010E94AE082196F0CFDF9128
:1012E000CF911F910F91FF90EF9008952F923F9211
:1012F0004F925F926F927F928F929F92AF92BF9226
:10130000CF92DF92EF92FF920F931F93CF93DF93D1
:1013100000D01F92CDB7DEB76C015B01242F30E007
:101320003B832A83440F4F5F621B730B0E9450095B
:1013300001E010E08A819B81081B190B1C0131948C
:1013400021943108220C331CF12CE12C6624639487
:10135000712C2A813B81E216F3060CF03FC017FD89
:1013600009C0215031093B832A8332E0230E311C0E
:10137000020D131D8FEFE81AF80A92E0690E711C36
:10138000060D171D8A81880F8F5F8983482F2501DD
:101390002A813B81421A530AB201C7018C0D9D1D5F
:1013A0000E94500945018E189F08462DB4018A817C
:1013B0009B818C0D9D1D0E9450094981B201C6017F
:1013C0008E199F090E945009462DB401C6012A8139
:1013D0003B81821B930B0E945009BBCF0F900F9053
:1013E0000F90DF91CF911F910F91FF90EF90DF90C1
:1013F000CF90BF90AF909F908F907F906F905F90B5
:101400004F903F902F9008958F929F92AF92BF92EE
:10141000CF92DF92EF92FF920F931F93CF93DF93C0
:101420006D3089F0C0909001D09091016A30D1F474
:10143000109297011092960188E0C80ED11CD092AC
:101440009101C092900181E090E0DF91CF911F91D6
:101450000F91FF90EF90DF90CF90BF90AF909F9053
:101460008F9008950091960110919701E5E06E9F8D
:10147000E0011124C654DE4F4801F12CF5E0E12CC7
:10148000FF1629F0CE010196FE01E490EC01B12C8B
:10149000A12C4E2D4170B6016A0D7B1DC4010E9426
:1014A000AE08E694FFEFAF1ABF0A88E0A816B104B1
:1014B00081F7F394EFEF8E1A9E0AF6E0FF12DECF6B
:1014C0000A5F1F4F1093970100939601BCCF80E0F5
:1014D00090E0A0E8B3E48093070290930802A09301
:1014E0000902B0930A0280E090E0A8ECB2E4809395
:1014F000030290930402A0930502B0930602109297
:1015000013021092140210921502109216021092F9
:101510000F021092100210921102109212021092F9
:101520000B0210920C0210920D0210920E020895FE
:10153000CF92EF920F93CF93DF93EC018E816A30BD
:1015400069F49D819C836985860F8E8381E090E09C
:10155000DF91CF910F91EF90CF9008956A3378F497
:10156000603308F051C0613209F450C09FE36E321D
:1015700091F098859D5F8C81890F8C83E7CF6134D2
:10158000C0F36B3530F09FE9960F9A3190F799EBE5
:1015900001C09FEB960F61E0680F062E000C770BE1
:1015A000AC810A2E000CBB0BE8EFF0E029EF30E035
:1015B0008F81813069F50491F901E4904AEF50E0A0
:1015C0009923D1F041E050E08E2D877011F450E066
:1015D00040E02E2D269526952695240F352F311D7A
:1015E000029FF001039FF00D11249E9FA0019F9F79
:1015F000500D112446505F4F9AEFC92E30E020E085
:10160000CD010E949806B5CF94E0C4CF9EE3C3CF2E
:101610000491F901E4904AEF50E09923D1F041E0C0
:1016200050E08E2D877011F450E040E02E2D26956D
:1016300026952695240F352F311D029FF001039F1B
:10164000F00D11249E9FA0019F9F500D1124465024
:101650005F4F8BEFC82ED2CF089590E080E00895C1
:101660004F925F926F927F928F929F92AF92BF92B2
:10167000CF92DF92EF92FF920F931F93CF93DF935E
:10168000CDB7DEB7A8970FB6F894DEBF0FBECDBFBB
:10169000698F7A8F8B8F9C8F2D8F3E8F4F8F58A3A2
:1016A000C801B7012BAD3CAD4DAD5EAD298B3A8B7A
:1016B0004B8B5C8B20E030E040E05FE30E947029C0
:1016C00069877A878B879C8720E030E040E05FE382
:1016D000C601B5010E9470296D877E878F87988B20
:1016E00049845A846B847C8477FA709477F8709478
:1016F000DC01CB01B05889839A83AB83BC836989B1
:101700007A898B899C890E949E276D837E838F8333
:10171000988769897A898B899C890E94DD296B0168
:101720007C012D813E814F815885C301B2010E9409
:101730007029698B7A8B8B8B9C8BA70196016981B1
:101740007A818B819C810E9470296D8B7E8B8F8B1F
:10175000988FA7019601C301B2010E94702969A365
:101760007AA38BA39CA32D813E814F8158856981EB
:101770007A818B819C810E94702969837A838B8313
:101780009C832D813E814F81588569857A858B8523
:101790009C850E9470292B013C01A7019601698557
:1017A0007A858B859C850E9470294B015C01A7017D
:1017B00096016D857E858F8598890E9470296B01C1
:1017C0007C012D813E814F8158856D857E858F8579
:1017D00098890E9470296D837E838F8398872D89D5
:1017E0003E894F89588D69897A898B899C890E94A5
:1017F000BA26298D3A8D4B8D5C8D0E94BB260E94A6
:10180000152869877A878B879C8729813A814B8144
:101810005C8169A17AA18BA19CA10E94BB262D8D20
:101820003E8D4F8D58A10E94BB260E9415286D87C2
:101830007E878F87988B2D893E894F89588DC3016C
:10184000B2010E94BA26298D3A8D4B8D5C8D0E9483
:10185000BB260E9415286D8B7E8B8F8B988FA501E0
:10186000940169817A818B819C810E94BB262D8D98
:101870003E8D4F8D58A10E94BB260E94152869837A
:101880007A838B839C83A7019601C301B2010E94D6
:10189000BA26298D3A8D4B8D5C8D0E94BB260E9405
:1018A00015286DA37EA38FA398A72D813E814F811C
:1018B0005885C501B4010E94BB262D8D3E8D4F8DEC
:1018C00058A10E94BB260E9415284B01A701960132
:1018D00069897A898B899C890E94BA26298D3A8DDB
:1018E0004B8D5C8D0E94BB260E9415286B012D81BB
:1018F0003E814F81588569A17AA18BA19CA10E944C
:10190000BB262D8D3E8D4F8D58A10E94BB260E9477
:1019100015282B0129813A814D895E896D857E8547
:1019200089859A850E94CC0894014DA15EA16981A8
:101930007A818D899E890E94CC089201A601B4010A
:101940008DA19EA10E94CC082D853E8549855A8592
:10195000B201C601A8960FB6F894DEBF0FBECDBF88
:10196000DF91CF911F910F91FF90EF90DF90CF907B
:10197000BF90AF909F908F907F906F905F904F90AF
:101980000C94CC08CF92DF92EF92FF926B017C0116
:10199000C114D104E104F10441F00E94E925A7013A
:1019A00096010E9457266B017C01C701B601FF908A
:1019B000EF90DF90CF9008952F923F924F925F92D9
:1019C0006F927F928F929F92AF92BF92CF92DF924F
:1019D000EF92FF920F931F93CF93DF9300D000D02D
:1019E00000D0CDB7DEB780E790E00E94862A9E83C4
:1019F0008D838C011C01712C612C6BE070E080E008
:101A000090E00E94C20C6550710981099109660D30
:101A1000771D77FFF4C068597E4F072E000C880BA6
:101A2000990B0E944D2825E33AEF4EE85CE30E94B3
:101A300070294B015C0161E177E280E090E00E9457
:101A4000C20C0E944D2820E030E44CE156E40E9494
:101A5000A32720E030E048E452E40E94702920E00F
:101A600030E040E252E40E94BB266B017C01C501DC
:101A7000B4010E949E27A70196010E9470296983E4
:101A80007A838B839C83C501B4010E94DD29A70161
:101A900096010E9470296B017C0161E177E280E090
:101AA00090E00E94C20C0E944D2820E030E44CE1FE
:101AB00056E40E94A32720E030E040E850E40E9472
:101AC000702920E030E040E050E40E94BA262981ED
:101AD0003A814B815C810E94BB264B015C0161E134
:101AE00077E280E090E00E94C20CF1018082918256
:101AF000A282B3820E944D2820E030E44CE156E4FB
:101B00000E94A32720E030E040E850E40E947029C2
:101B100020E030E040E050E40E94BA26A7019601A0
:101B20000E94BB26F1016483758386839783F9E164
:101B30006F0E711C88E0280E311CEEE56E16E1E098
:101B40007E0609F05ACFAD80BE80F0E7AF0EB11C23
:101B5000C12CD12C760126013701F8012081318179
:101B600042815381C301B2010E94BB262B013C017B
:101B7000F8012481358146815781C701B6010E9451
:101B8000BB266B017C01085F1F4FA016B10629F729
:101B900020E030E040E651E4C301B2010E94A327F7
:101BA0000E941528709327076093260720E030E0F5
:101BB00040E651E4C701B6010E94A3270E94152800
:101BC00070932507609324078D819E8126960FB61A
:101BD000F894DEBF0FBECDBFDF91CF911F910F9163
:101BE000FF90EF90DF90CF90BF90AF909F908F903D
:101BF0007F906F905F904F903F902F900895683640
:101C000081E078070CF409CF6856714006CFCF9376
:101C1000DF9360E072E080E090E00E94C20CC8E9CF
:101C2000D1E00E944D28688379838A839B8360E09A
:101C300072E080E090E00E94C20C0E944D286C830C
:101C40007D838E839F8362E070E080E090E00E945D
:101C5000C20C79876887DF91CF9108952F923F92C8
:101C60004F925F926F927F928F929F92AF92BF92AC
:101C7000CF92DF92EF92FF920F931F93CF93DF9358
:101C8000CDB7DEB72E970FB6F894DEBF0FBECDBF2F
:101C900010921F0710921E0735E0232E312C0EE004
:101CA00010E06EE070E080E090E00E94C20C2091B5
:101CB0002007309121073A872987FB0183E0EE0F47
:101CC000FF1F8A95E1F7E20FF31F208131814281E6
:101CD00053812D833E834F835887248135814681EC
:101CE000578129833A834B835C83CB010196B801EA
:101CF0000E94582A23E0880F991F2A95E1F7498509
:101D00005A85480F591F5A8749872D813E814F8137
:101D10005885E985FA8560817181828193810E946D
:101D2000BA262B013C0129813A814B815C81E985EE
:101D3000FA8564817581868197810E94BA266B013C
:101D40007C01A30192010E943A2769877A878B87D9
:101D50009C870E94E92520E137E240E050E00E94A4
:101D600057260E944D2820E030E44CE156E40E94C2
:101D7000A3274B015C0180911E0790911F074EE045
:101D8000489F9001499F300D11242852394F3E87BA
:101D90002D87A5019401C301B2010E9470292D81F4
:101DA0003E814F8158850E94BB2620E030E040E80C
:101DB00053E40E94BB26ED85FE8560837183828398
:101DC0009383A5019401C701B6010E94702929815E
:101DD0003A814B815C810E94BB2620E030E040E8E4
:101DE00053E40E94BB26ED85FE856483758386835C
:101DF00097832BED3FE049EC5FE369857A858B851E
:101E00009C850E94BB26ED85FE8560877187828751
:101E1000938768E770E080E090E00E94C20C209118
:101E20001E0730911F074EE0429FF001439FF00DC7
:101E30001124E852F94F75876487C9010196909380
:101E40001F0780931E0751E0251A310809F029CF9A
:101E5000EEE2F6E01082719686E0E83DF807D1F7F1
:101E60002E960FB6F894DEBF0FBECDBFDF91CF9197
:101E70001F910F91FF90EF90DF90CF90BF90AF90A8
:101E80009F908F907F906F905F904F903F902F909A
:101E900008952F923F924F925F926F927F928F920E
:101EA0009F92AF92BF92CF92DF92EF92FF920F93E9
:101EB0001F93CF93DF93CDB7DEB72E970FB6F8946D
:101EC000DEBF0FBECDBF109223071092220703E0A2
:101ED00010E06EE070E080E090E00E94C20C209183
:101EE0002007309121073A872987FB0183E0EE0F15
:101EF000FF1F8A95E1F7E20FF31F208131814281B4
:101F0000538129833A834B835C83248135814681C5
:101F100057812D833E834F835887CB0101966EE016
:101F200070E00E94582A23E0880F991F2A95E1F754
:101F300049855A85480F591F5A87498729813A810F
:101F40004B815C81E985FA85608171818281938111
:101F50000E94BA262B013C012D813E814F8158857C
:101F6000E985FA8564817581868197810E94BA2608
:101F70006B017C01A30192010E943A2769877A874D
:101F80008B879C870E94E92520E137E240E050E002
:101F90000E9457260E944D2820E030E44CE156E490
:101FA0000E94A3274B015C01209022073090230759
:101FB0004EE0429D9001439D300D11242858384F2A
:101FC0003E872D87AC019B01C301B2010E9470299D
:101FD00029813A814B815C810E94BB2620E030E060
:101FE00040E853E40E94BB26ED85FE856083718343
:101FF00082839383A5019401C701B6010E947029D1
:102000002D813E814F8158850E94BB2620E030E023
:1020100040E853E40E94BB26ED85FE85648375830A
:10202000868397832BED3FE049EC5FE369857A85F2
:102030008B859C850E94BB26ED85FE856087718718
:1020400082879387FFEF2F1A3F0A3092230720924F
:1020500022070150110909F03CCF2E960FB6F894D3
:10206000DEBF0FBECDBFDF91CF911F910F91FF90CB
:10207000EF90DF90CF90BF90AF909F908F907F9028
:102080006F905F904F903F902F9008952F923F92C6
:102090004F925F926F927F928F929F92AF92BF9278
:1020A000CF92DF92EF92FF920F931F93CF93DF9324
:1020B000CDB7DEB7A8970FB6F894DEBF0FBECDBF81
:1020C0001C01498B5A8B6B8B7C8B0D8B1E8B2F8B42
:1020D000388F2DAD3EAD3E832D8321968EAD9FADC5
:1020E00021979A87898723960EAD1FAD2397259652
:1020F0002EAD3FAD25973E872D87C701B6010E94C3
:102100009E272B013C01C701B6010E94DD2969838E
:102110007A838B839C83B501BB0C880B990B0E943F
:102120004D286B017C01B401990C880B990B0E941E
:102130004D284B015C012D813E81B901330F880B85
:10214000990B0E944D28698F7A8F8B8F9C8F2985E0
:102150003A85B901330F880B990B0E944D286D8F7A
:102160007E8F8F8F98A3B801110F880B990B0E9457
:102170004D2869A37AA38BA39CA32D853E85B90125
:10218000330F880B990B0E944D286DA37EA38FA35C
:1021900098A7A7019601C301B2010E9470296D831F
:1021A0007E838F839887A501940169817A818B81D1
:1021B0009C810E9470299B01AC016D817E818F8181
:1021C00098850E94BA2629893A894B895C890E94A0
:1021D000BB260E9415286D837E838F839887A70175
:1021E000960169817A818B819C810E9470296B01A3
:1021F0007C01A5019401C301B2010E9470299B01D9
:10220000AC01C701B6010E94BB262D893E894F89CA
:10221000588D0E94BB260E94152869877A878B8774
:102220009C87298D3A8D4B8D5C8DC301B2010E9434
:1022300070296B017C012D8D3E8D4F8D58A16981D8
:102240007A818B819C810E9470299B01AC01C7011E
:10225000B6010E94BA2629893A894B895C890E9475
:10226000BB260E9415286D877E878F87988B298DC6
:102270003A8D4B8D5C8D69817A818B819C810E9426
:1022800070296B017C012D8D3E8D4F8D58A1C301AE
:10229000B2010E9470299B01AC01C701B6010E94E6
:1022A000BB262D893E894F89588D0E94BB260E94EE
:1022B00015284B0129A13AA14BA15CA1C301B20190
:1022C0000E9470296B017C012DA13EA14FA158A550
:1022D00069817A818B819C810E9470299B01AC016C
:1022E000C701B6010E94BA2629893A894B895C89BF
:1022F0000E94BB260E9415286B0129A13AA14BA17F
:102300005CA169817A818B819C810E94702969839B
:102310007A838B839C832DA13EA14FA158A5C30135
:10232000B2010E9470299B01AC0169817A818B8185
:102330009C810E94BB262D893E894F89588D0E9421
:10234000BB260E9415282B0137E02316310481F5A6
:1023500094014D855E8569857A858D819E810E9477
:10236000CC089201A601B4018D859E850E94CC08FF
:1023700029853A854D815E81B201C601A8960FB6C6
:10238000F894DEBF0FBECDBFDF91CF911F910F91AB
:10239000FF90EF90DF90CF90BF90AF909F908F9085
:1023A0007F906F905F904F903F902F900C94CC084F
:1023B00020FE09C094014D855E8569857A858D81F1
:1023C0009E810E94CC0821FE07C09201A601B401A3
:1023D0008D859E850E94CC0822FCCACFA8960FB698
:1023E000F894DEBF0FBECDBFDF91CF911F910F914B
:1023F000FF90EF90DF90CF90BF90AF909F908F9025
:102400007F906F905F904F903F902F900895FC01C8
:1024100001900020E9F73197AF01481B590BBC012F
:102420008CEA97E00C9465058F929F92AF92BF92D1
:102430000F931F93CF93DF93CDB7DEB7A1970FB65E
:10244000F894DEBF0FBECDBF19A2423008F44AE0B7
:102450008E010F5D1F4F842E912CB12CA12CA50154
:1024600094010E948926E62FB901CA01EA30F4F4EA
:10247000E05DD801EE938D01232B242B252B79F7DA
:1024800090E080E0109719F0CD010E940712A1960C
:102490000FB6F894DEBF0FBECDBFDF91CF911F9175
:1024A0000F91BF90AF909F908F900895E95CE1CF1E
:1024B000CF92DF92EF92FF92CF93DF936B017C017B
:1024C0006DE28CEA97E00E94040AEC016627772708
:1024D000CB016C197D098E099F094AE00E941412F4
:1024E0008C0F9D1FDF91CF91FF90EF90DF90CF90E9
:1024F0000895BC01990F880B990B97FD0C94581205
:102500004AE00C941412CF93DF930E940712EC015F
:102510008CE491E00E9407128C0F9D1FDF91CF91F8
:1025200008950F931F93CF93DF9380910D019091A6
:102530000E010197181619060CF470C083E090E0A4
:1025400090930E0180930D0188E893E19093100120
:1025500080930F011092A5011092A4010E948B0894
:102560008AE090E090939701809396018EE190E04D
:1025700090939101809390018FE491E00E948312E7
:102580008AE591E00E9483128BE691E00E9483121B
:102590000E94AB088091A3018093A2010E9483084E
:1025A0008093A3010E9483088823A1F30E94670AF5
:1025B0000E947B04611571058105910511F00E944F
:1025C00038260E94DC0C90932107809320070E94FC
:1025D000490F0E942E0E0E94070E1092A601109223
:1025E000B7011092C8011092D9011092EA01C8ED0A
:1025F000D6E010E000E080911E0790911F070817B9
:1026000019078CF468E770E080E090E00E94C20C4B
:102610007D876C870F5F1F4F2E96EDCF90930E0135
:1026200080930D01C3CFEEE2F6E01082719686E052
:10263000E83DF807D1F7DF91CF911F910F910895F1
:102640000C9441261F920F920FB60F9211242F93D4
:102650003F938F939F93AF93BF9380911802909174
:102660001902A0911A02B0911B023091170223E0C7
:10267000230F2D3758F50196A11DB11D2093170288
:102680008093180290931902A0931A02B0931B0230
:1026900080911C0290911D02A0911E02B0911F0218
:1026A0000196A11DB11D80931C0290931D02A09361
:1026B0001E02B0931F02BF91AF919F918F913F91E6
:1026C0002F910F900FBE0F901F90189526E8230FA3
:1026D0000296A11DB11DD2CF1F920F920FB60F927D
:1026E00011248F939F938091E1009091E100937F5B
:1026F0009093E10083FF0FC01092E90091E0909366
:10270000EB001092EC0092E39093ED0010922D02FA
:1027100098E09093F00082FF22C093E09093E9004C
:102720009091F200992319F09AE39093E800909128
:102730008D01992341F090918D01915090938D01DD
:10274000911101C05D9A90912C02992341F09091D2
:102750002C02915090932C02911101C0289A84FF71
:1027600018C08091E2008E7E81608093E2008091AB
:10277000E1008F7E8093E10080918E018E7E8061EA
:1027800080938E019F918F910F900FBE0F901F909D
:10279000189580FFF7CF8091E2008E7E8061809354
:1027A000E2008091E1008E7E8093E10080918E01B5
:1027B0008E7E8160E5CF1F920F920FB60F9211248B
:1027C000CF92DF92EF92FF920F931F932F933F933D
:1027D0004F935F936F937F938F939F93AF93BF9329
:1027E000EF93FF93CF93DF93CDB7DEB76C97DEBF48
:1027F000CDBF1092E9008091E80083FF25C068E01A
:10280000CE0145960E94580582EF8093E8008D899D
:1028100087FF39C09091E80090FFFCCF982F907609
:1028200009F034C19E894F89588D2F89F88C9111F8
:1028300031C0803861F580918F018093F100109252
:10284000F1008EEF8093E8006C960FB6F894DEBF2F
:102850000FBECDBFDF91CF91FF91EF91BF91AF91AF
:102860009F918F917F916F915F914F913F912F91A8
:102870001F910F91FF90EF90DF90CF900F900FBEC0
:102880000F901F9018959EEF9093E800C7CF10927D
:10289000F100D5CF913059F48111D3CF413051059A
:1028A00081F680918F018D7F80938F01CACF933005
:1028B00049F48111C6CF4130510519F680918F013D
:1028C0008260F2CF953041F48091E80080FFFCCF28
:1028D00020682093E300B5CF963009F0A9C00B8D96
:1028E0001C8D22E01092E90010928B0110928A0157
:1028F000F2122EC010928901109288010E942705C1
:102900001F8299E09983FA8291E09E8390EA9887EA
:102910009AEF998720918A0130918B01275F3F4F71
:102920003C832B838D831092E90010928B011092CF
:102930008A01109389010093880149E050E0BE01AB
:102940006F5F7F4F80E00E9401050E94270579CFCD
:1029500010938901009388010E946704DC0112969C
:102960000D911C910115110509F451C1D801ED918A
:10297000FC910480F581E02DBE016B5E7F4FC801A4
:102980000995009709F03EC1F80100851185EACF4D
:10299000F3E0FF120EC08F89882309F440C0823013
:1029A00061F440E867E08EE197E00E940D16811126
:1029B00048CF81E28093EB0047CF813029F440E893
:1029C0006BE082E197E0F1CF833099F70E946704D2
:1029D000DC011296ED90FC908E010F5F1F4F680195
:1029E000E114F10479F0D701ED91FC910680F781B3
:1029F000E02DB801C7010995080F111DF701E0840A
:102A0000F184EECFD8011C92F60101900020E9F785
:102A10003197BF016C197D0940E0C601C6CF6CEF4C
:102A200076E0FB01449150E080E80E94010509CF67
:102A3000973009F4BECF983021F481E08093F10003
:102A400000CF993009F0FDCE837009F0B2CFECE1F0
:102A5000F1E081E031E096E32191222371F080934F
:102A6000E9003093EB00DF0111972C912093EC00EB
:102A70009093ED008F5F873079F78EE78093EA00BF
:102A80001092EA008F8980932D02DBCE8B8D9C8D76
:102A90001092E90010928B0110928A0190938901A3
:102AA00080938801898D811192C08E899D89913A88
:102AB00049F4813209F07DCF47E050E064E071E0F5
:102AC00080E0B3CF913209F074CF833269F48F89FB
:102AD000988DB0E0A0E08093000190930101A09355
:102AE0000201B0930301ADCE803269F48091E80019
:102AF00082FFFCCF67E084E091E00E9458058BEFF5
:102B00008093E8009ECE823209F09BCE8F8980931D
:102B10000B01EEEFFFE7859194918B3F9C4D51F1B6
:102B2000E0E0F8E08091040190910501A091060198
:102B3000B0910701803B9440A105B105F1F480916B
:102B40000B0180FD1AC0EE3F8AE0F80789F587E7A0
:102B500097E7918380838091600080938C0188E166
:102B60009BE00FB6F894A895809360000FBE9093F9
:102B7000600067CEEEEFFAE0D5CF80819181873794
:102B8000974709F05ECEA895809160008861809398
:102B9000600080918C0180936000EE3F2AE0F20794
:102BA00089F08091FE0A9091FF0A9183808349CE3B
:102BB000808191818737980751F29093FF0A809323
:102BC000FE0AC5CF1092FF0A1092FE0A3ACE0E946A
:102BD0006704DC0112960D911C910115110509F491
:102BE000E8CED801ED91FC910190F081E02DBE017D
:102BF0006B5E7F4FC8010995811123CEF8010085D6
:102C00001185EBCF181619060CF41BCED2CEF1E0CD
:102C1000FF12BECE60E077E004CFEF92FF920F93F9
:102C20001F93CF93DF93F82E192FE62E042F81E008
:102C3000860F880F0E94D30483E00E94D304CF2D17
:102C4000D12FEC0EFD2EF11CCE15DF05B9F007FFDC
:102C500013C0FE0184910E94D304182F80E00E94CB
:102C6000D304812321968111EFCFDF91CF911F9162
:102C70000F91FF90EF9008958881EDCF81E0F5CF1F
:102C8000E8E2F7E01382128288EE93E0A0E0B0E081
:102C900084839583A683B78386E291E091838083C2
:102CA0008FEF9FEF95878487ECEAF7E0138212821B
:102CB00084E491E091838083E2EAF7E01382128258
:102CC00088E391E09183808388E0818781E0808739
:102CD0001582168214828783E8E7F7E084EC99E096
:102CE00095878487938F828F91A780A70895CF932C
:102CF000DF93CDB7DEB7E5970FB6F894DEBF0FBE12
:102D0000CDBF789484B5826084BD84B5816084BD74
:102D100085B5826085BD85B5816085BD80916E0079
:102D2000816080936E0010928100809181008260AA
:102D300080938100809181008160809381008091E7
:102D400080008160809380008091910082608093F8
:102D5000910080919100816080939100809190001A
:102D60008160809390008091C10084608093C10055
:102D70008091C10082608093C1008091C100816018
:102D80008093C1008091C30081608093C3008091D3
:102D9000C00082608093C0008091C20081608093F7
:102DA000C20080917A00846080937A0080917A00DA
:102DB000826080937A0080917A00816080937A00AB
:102DC00080917A00806880937A0010922D02109290
:102DD0008F0110928E018091D70081608093D7007F
:102DE00080EA8093D80089B5806189BD89B5826009
:102DF00089BD09B400FEFDCF61E070E080E090E0A5
:102E00000E94A0048091D8008F7C80618093D800BC
:102E10008091E000807F8093E0008091E1008E7ED1
:102E20008093E1008DE08093E200559A209A8FEF25
:102E30009FEF909335078093340760ED77E080E053
:102E400090E00E94A00481EC80937C0085B1806FAB
:102E500085B984B1877E84B984B1876E84B95E9A5E
:102E60005F988AB1806D8AB9769A6E9881B3806FC7
:102E700081BB899880B38D7080BB80E58CBD81E07B
:102E80008DBD85E090E00E947E085F9A85E090E02D
:102E90000E947E085E985C98E6EDF7E084918EBD16
:102EA00000000DB407FEFDCF319627E0E33EF207A8
:102EB000A9F75C9A81E88093640080916500816045
:102EC000809365000E94AB0880E80E94A0088823D8
:102ED000A9F05C9885EA8EBD00000DB407FEFDCF19
:102EE0005C9A2E982F982D98809164008062809330
:102EF000640081E083BF889513BEFCCF84E00E940C
:102F0000A008882309F448C02D9884E80E94A008EE
:102F10008823E1F00E947C0888EC90E00E947E0803
:102F20002F9882E090E00E9441268F3F29F06FEFBA
:102F300082E090E00E94492684EF91E00E947E08A2
:102F40002F9A84E80E94A0088111FBCF84E10E949F
:102F5000A0088823E1F00E947C0888EC90E00E94A1
:102F60007E082E9882E090E00E944126882329F076
:102F700060E082E090E00E94492684EF91E00E94A8
:102F80007E082E9A84E10E94A0088111FBCF88EC74
:102F900090E00E947E08B2CF0E947C0882E090E020
:102FA0000E942013882309F46CC03E9A3F9A81E066
:102FB00090E00E942013382F3470732E81FF15C0CB
:102FC00031112E9861EF262E33243A9408E010E058
:102FD0007CE6E72EF12C80E40E94A008882309F407
:102FE00053C02E9A2F9A0E947C0882E390E00E94A0
:102FF0007E080E9483088111F8CF80E180930C0144
:1030000061E070E080E090E00E94A0040E947B04F8
:10301000611571058105910511F00E9438260E9405
:10302000DC0C90932107809320070E94490F0E9497
:103030002E0E0E94070E0E94670A1092A60110929F
:10304000B7011092C8011092D9011092EA018FB70E
:10305000F894409118025091190260911A027091EF
:103060001B028FBFB0919401BBA3BB2309F4DEC048
:103070001092940140E050E0452B49F30E9400007B
:10308000E6CF3E983F9893CF772031F044E0241666
:10309000310411F42E9A2F9881E00E941D049101B1
:1030A00037FE04C02227332722193309277033271C
:1030B000C10137FC079653E0959587955A95E1F73E
:1030C00037FE05C00197D801A21BB30B9D01BC01BF
:1030D0007695762F662777956795625D7D4FB0E090
:1030E000A0E02801421A530A8E3FEFEF9E0709F431
:1030F00046C048E550E0FD01E258F84F5F014B0142
:10310000F0E88F0E911C8F3F9807C9F0F501E41B82
:10311000F50B64906701C41AD50AC60ED71EE62DBA
:10312000F0E0022E02C0EE0FFF1F0A94E2F7FE83CA
:10313000ED83F6016080FD816F2AF6016082211522
:103140003105C9F0F501E41BF50B64906701C41A61
:10315000D50AC80CD91CE62DF0E0042C02C0F59568
:10316000E7950A94E2F7FE83ED83F6016080FD8126
:103170006F2AF60160824150510909F0C4CF0196CF
:10318000A85ABF4F60587F4FA03BB10509F0ACCFA4
:103190000E94AB088FE090E00E947E08FFEF2F1A9C
:1031A0003F0A29E12216310409F015CF772011F0EA
:1031B0002F9A2D9880E991E00E947E080E947C0859
:1031C00081E090E00E94201380FF0FCF8AE090E022
:1031D0000E9420139FEF980F9E3F08F006CF22E336
:1031E00030E0309397012093960128E330E030934C
:1031F0009101209390014BE050E05A834983682F5E
:103200008CEA97E00E94040A89819A810E94201327
:10321000A981BA811196BA83A983519781F70E9437
:10322000AB0888EE93E00E947E08DFCE8091950186
:10323000E42FE81B8E2F90910C01E91748F48F5F63
:10324000891708F017CF81E083BF889513BE12CF8E
:1032500081E0809394014093950180919201909137
:10326000930101969093930180939201F091A301B1
:10327000F98BF093A2010E94830889878093A301B0
:103280000E948B0880E20E94A0088823B1F02DECF8
:103290003CEC4CEC5DE36091130270911402809160
:1032A0001502909116020E94BA2660931302709341
:1032B0001402809315029093160280E40E94A008E5
:1032C0008823B1F02DEC3CEC4CEC5DE360911302F3
:1032D0007091140280911502909116020E94BB26F3
:1032E0006093130270931402809315029093160258
:1032F00088E00E94A008882309F458C000910F01BB
:1033000010911001101611060CF050C080900B02A5
:1033100090900C02A0900D02B0900E022BED3FE0B9
:1033200049EC5FE3609113027091140280911502E1
:10333000909116020E94BA266B017C010E949E2782
:103340002AE037ED43E25DE30E9470299B01AC0166
:1033500060910F02709110028091110290911202FF
:103360000E94BB2660930F0270931002809311029B
:1033700090931202C701B6010E94DD292AE037EDC1
:1033800043E25DE30E947029A50194010E94BB26DF
:1033900060930B0270930C0280930D0290930E02C7
:1033A000005111091093100100930F0120910702A1
:1033B000309108024091090250910A022D873E8700
:1033C0004F87588B60912607709127077395072EBA
:1033D000000C880B990B0E944D282D853E854F854A
:1033E00058890E94BA264B015C018091030290919A
:1033F0000402A0910502B091060289839A83AB83EF
:10340000BC8360912407709125077395072E000CEB
:10341000880B990B0E944D2829813A814B815C8150
:103420000E94BA266B017C01A5019401C501B4017B
:103430000E9470292B013C01A7019601C701B6012A
:103440000E9470299B01AC01C301B2010E94BB26FE
:103450000E94EB292B013C0120E030E0A9010E94F1
:103460006329181684F4A3019201C501B4010E94D6
:10347000A3274B015C01A3019201C701B6010E9481
:10348000A3276B017C012FE832EC45E75CE3C50123
:10349000B4010E94702920910F02309110024091D6
:1034A0001102509112020E94BB266D837E838F838E
:1034B00098872FE832EC45E75CE3C701B6010E942C
:1034C000702920910B0230910C0240910D02509115
:1034D0000E020E94BB262B013C012D813E814F81B3
:1034E00058856D857E858F8598890E94BB264B0106
:1034F0005C018092070290920802A0920902B092A9
:103500000A02A301920169817A818B819C810E94C8
:10351000BB266B017C01C0920302D0920402E092B0
:103520000502F092060224EA30E74DE75FE36D8181
:103530007E818F8198850E94702960930F0270931D
:103540001002809311029093120224EA30E74DE7B3
:103550005FE3C301B2010E94702960930B02709374
:103560000C0280930D0290930E0220E030E0A9013E
:10357000C501B4010E94992787FF08C01092070275
:10358000109208021092090210920A0220E030E024
:1035900040E054E4609107027091080280910902B2
:1035A00090910A020E946329181664F480E090E06A
:1035B000A0E0B4E48093070290930802A09309026C
:1035C000B0930A0220E030E0A901C701B6010E94D1
:1035D000992787FF08C010920302109204021092EC
:1035E00005021092060220E030E040E054E46091D1
:1035F00003027091040280910502909106020E94DC
:103600006329181664F480E090E0A0E0B4E48093AD
:10361000030290930402A0930502B0930602209146
:103620000702309108024091090250910A02298351
:103630003A834B835C8320E030E040E852E46981C8
:103640007A818B819C810E94BA264B015C01809219
:10365000FF0190920002A0920102B09202028091BA
:10366000030290910402A0910502B09106028D839D
:103670009E83AF83B88720E030E040E052E4BC0195
:10368000CD010E94BA266B017C01C092FB01D09251
:10369000FC01E092FD01F092FE0120E030E0A90182
:1036A000C501B4010E94992787FF08C01092FF014D
:1036B00010920002109201021092020220E030E00B
:1036C00040EC53E46091FF0170910002809101028F
:1036D000909102020E946329181664F480E090E041
:1036E000A0ECB3E48093FF0190930002A093010249
:1036F000B093020220E030E0A901C701B6010E94A8
:10370000992787FF08C01092FB011092FC011092CC
:10371000FD011092FE0120E030E040EE53E46091A4
:10372000FB017091FC018091FD019091FE010E94CE
:103730006329181664F480E090E0A0EEB3E480936F
:10374000FB019093FC01A093FD01B093FE019989C8
:1037500092FD4AC0A985A2FF47C0E6EAF1E050E029
:1037600040E02081211108C260911302709114027F
:10377000809115029091160221E1249FF001259F6E
:10378000F00D1124EA55FE4FFA87E98721E02083E6
:1037900029813A814B815C81218332834383548325
:1037A0002D813E814F8158852583368347835087FD
:1037B0002BED3FE049EC5FE30E94BA266B017C01F0
:1037C0000E949E27E985FA8561877287838794879F
:1037D000C701B6010E94DD29A985BA851D966D93A2
:1037E0007D938D939C935097E6EAF1E0FE8FED8FE9
:1037F0008F01D8018C91882309F450C019962D911E
:103800003D914D915C911C9711966D917D918D919B
:103810009C9114970E94BB264B015C01F8018182A8
:103820009282A382B4822585368547855089658139
:103830007681878190850E94BB266B017C01D8012F
:103840001596CD92DD92ED92FC92189720E030E033
:10385000A901C501B4010E94992787FD1DC020E080
:1038600030E040E054E4C501B4010E946329181619
:103870009CF020E030E0A901C701B6010E94992721
:1038800087FD0AC020E030E040E054E4C701B60103
:103890000E946329181614F4F80110820F5E1F4F5E
:1038A0002BEF31E02017310709F0A3CF46EA51E0B2
:1038B0005E874D87AD85BE858C91882309F454C001
:1038C00019962D913D914D915C911C9711966D919A
:1038D0007D918D919C9114970E94BB264B015C01B8
:1038E000ED85FE8581829282A382B482258536850C
:1038F0004785508965817681878190850E94BB26A6
:103900006B017C01AD85BE851596CD92DD92ED9261
:10391000FC92189720E030E0A901C501B4010E9493
:10392000992787FD1EC020E030E040E054E4C50147
:10393000B4010E9463291816A4F020E030E0A90128
:10394000C701B6010E94992787FD0BC020E030E037
:1039500040E054E4C701B6010E94632918160CF038
:1039600013C1ED85FE8510828D859E8541969E87CB
:103970008D878017910709F09DCF80E10E94A008F4
:1039800081117BC1A0911E07B0911F07BA8FA98F2B
:10399000E8EDF6E0FA8BE98B8F01312C212C498D73
:1039A0005A8D241635060CF073C3D8011C968D91E0
:1039B0009C911D970197181619060CF464C3E8E74B
:1039C000F0E01D96FC93EE931C9714962D913D917B
:1039D0004D915C91179729873A874B875C87CD90EB
:1039E000DD90ED90FC9029813A814B815C81C7018B
:1039F000B6010E94BA262B013C012D813E814F81E8
:103A0000588569857A858B859C850E94BA264B01ED
:103A10005C01A3019201C301B2010E9470292B0134
:103A20003C01A5019401C501B4010E9470299B01CC
:103A3000AC01C301B2010E94BB2620E030E041E6A8
:103A400055E40E94992718160CF490C0EEE2F6E0B7
:103A50001E8A1D8A808181110AC341E12D893E8918
:103A6000429FF001439FF00D1124E25DF94F51E0B8
:103A70005083C182D282E382F48289859A85AB85A4
:103A8000BC8585839683A783B087A701960169814A
:103A90007A818B819C810E94BA264B015C01298529
:103AA0003A854B855C856D817E818F8198850E94EA
:103AB000BA262B013C01A5019401C501B4010E9465
:103AC00070296B017C01A3019201C301B2010E9424
:103AD00070299B01AC01C701B6010E94BB260E9460
:103AE000EB296B017C012FE632E143E85AE30E94A7
:103AF000992787FF08C08FE6C82E82E1D82E83E879
:103B0000E82E8AE3F82EE1E1AD89BE89EA9FC00183
:103B1000EB9F900D11249C01225D394F3A87298734
:103B2000A7019601C501B4010E94A32720E030E05F
:103B300040E05FE30E947029A985BA8519966D93CC
:103B40007D938D939C931C97A7019601C301B201AD
:103B50000E94A32720E030E040E05FE30E9470294C
:103B6000E985FA85658776878787908BBFEF2B1A63
:103B70003B0A025F1F4F13CF4F5F5F4F7196453077
:103B8000510509F0EECD30CE28ED36E03A8B298B89
:103B9000312C212CA5019401A989BA896D917D91BF
:103BA0008D919C910E94BA262B013C01A7019601A0
:103BB000E989FA8964817581868197810E94BA2694
:103BC00069877A878B879C87A3019201C301B20121
:103BD0000E9470292B013C0129853A854B855C8523
:103BE000CA01B9010E9470299B01AC01C301B20155
:103BF0000E94BB2620E030E040E851E40E94992773
:103C0000181664F18091A4019091A50186509F4FF0
:103C10009093A5018093A401AD85BE851C928091EF
:103C20001E0790911F07019790931F0780931E070F
:103C3000EEE0E29DD001E39DB00D1124A852B94FF2
:103C40002EE0289FF001299FF00D1124E852F94F32
:103C50008EE001900D928A95E1F786CE3FEF231A10
:103C6000330A49895A89425F5F4F5A8B498B55E025
:103C70002516310409F08ECF77CE80910F019091F7
:103C8000100181979093100180930F01809013028F
:103C900090901402A0901502B0901602C501B401D4
:103CA0000E949E276B017C01C501B4010E94DD29A1
:103CB0004B015C0120E030E048EC51E40E947029A7
:103CC00069877A878B879C8720E030E040E751EC5A
:103CD000C701B6010E94702929853A854B855C850C
:103CE0000E94BA2629813A814B815C810E94BB26C1
:103CF00068A779A78AA79BA720E030E048EC51E4A9
:103D0000C701B6010E947029698F7A8F8B8F9C8FB3
:103D100020E030E040E751ECC501B4010E94702979
:103D2000298D3A8D4B8D5C8D0E94BB262D813E8165
:103D30004F8158850E94BB266D8B7E8B8F8B988F11
:103D400020E030E0A901C701B6010E947029698B0B
:103D50007A8B8B8B9C8B20E030E0A901C501B401EC
:103D60000E9470292B013C01AC019B0169897A8971
:103D70008B899C890E94BA2629813A814B815C817A
:103D80000E94BB266CA77DA78EA79FA7A3019201C7
:103D900069897A898B899C890E94BB262D813E8105
:103DA0004F8158850E94BB2668AB79AB8AAB9BAB31
:103DB00020E030E040E751E4C701B6010E947029DD
:103DC00029853A854B855C850E94BA2629813A81EE
:103DD0004B815C810E94BB26698B7A8B8B8B9C8B81
:103DE00020E030E040E751E4C501B4010E947029B1
:103DF000298D3A8D4B8D5C8D0E94BB262D813E8195
:103E00004F8158850E94BB2669877A878B879C875C
:103E100010E000E0209022073090230702151305E0
:103E20000CF0B0CD29853A854B855C8568A979A9C8
:103E30008AA99BA90E94BA262B013C0129893A89AB
:103E40004B895C8968A579A58AA59BA50E94BA269D
:103E50006F8F78A389A39AA32CA53DA54EA55FA536
:103E600069897A898B899C890E94BA264B015C01F9
:103E700029853A854B855C856D897E898F89988DEA
:103E80000E94BA26A50194010E9470296B017C0151
:103E90002F8D38A149A15AA1C301B2010E947029F6
:103EA0009B01AC01C701B6010E94BB26698F7A8FC6
:103EB0008B8F9C8F20E030E0A9010E9499278823F6
:103EC00009F4D2C04EE0409F9001419F300D112473
:103ED0002858384F3DAB2CAB29893A894B895C89EE
:103EE000ACA9BDA96D917D918D919C910E94BA263E
:103EF0006B017C0129853A854B855C85ECA9FDA980
:103F000064817581868197810E94BA266CA37DA306
:103F10008EA39FA3A7019601C301B2010E9470293D
:103F20002B013C012CA13DA14EA15FA1C501B40113
:103F30000E9470299B01AC01C301B2010E94BB2603
:103F4000298D3A8D4B8D5C8D0E94A3274B015C011E
:103F500020E030E0A9010E94632987FD85C020E0B0
:103F600030E040E85FE3C501B4010E9499271816CC
:103F70000CF47AC02D893E894F89588D69857A85E0
:103F80008B859C850E94BA26A70196010E94702904
:103F90006B017C012CA13DA14EA15FA16F8D78A189
:103FA00089A19AA10E9470299B01AC01C701B601A9
:103FB0000E94BB26298D3A8D4B8D5C8D0E94A327D4
:103FC0006B017C0120E030E0A9010E94632987FD9C
:103FD0004BC020E030E040E85FE3C701B6010E943B
:103FE000992718160CF440C0A501940160E070E018
:103FF00080E89FE30E94BA26A70196010E94BA2694
:104000006B017C0120E030E0A9010E94632987FD5B
:104010002BC020E030E040E85FE3C701B6010E941A
:10402000992718160CF180910F01909110018C5373
:10403000964F9093100180930F01F1E02F1A3108F1
:104040002EE0229DF001239DF00D1124E858F84F39
:104050008EE0ACA9BDA901900D928A95E1F730924E
:10406000230720922207D6CE0F5F1F4FD3CE2D8974
:104070003E892F5F3F4F3E8B2D8B71962A30310545
:1040800009F0E8CC73CD1D969C938E931C976ECD52
:104090001EE2212E16E0312E3A862986A985BA85A0
:1040A0008C91882309F46CC040900702509008025C
:1040B0006090090270900A0220910302309104027C
:1040C000409105025091060229833A834B835C8319
:1040D00019962D913D914D915C911C9711966D9182
:1040E0007D918D919C9114970E94BB264B015C01A0
:1040F000A985BA8511968D929D92AD92BC92149726
:104100001D962D913D914D915C91509715966D9115
:104110007D918D919C9118970E94BB266B017C012B
:10412000E985FA85C582D682E782F08620E030E014
:10413000A901C501B4010E94992787FD1EC020E096
:1041400030E040E054E4C501B4010E946329181630
:10415000A4F020E030E0A901C701B6010E94992730
:1041600087FD0BC020E030E040E054E4C701B60119
:104170000E94632918160CF074C0A985BA851C9298
:1041800029853A852F5E3F4F3A87298748ED56E0CB
:104190004217530709F082CF90E080E0C090980169
:1041A000D0909901E0909A01F0909B0180909C0141
:1041B00090909D01A0909E01B0909F012091FF01E1
:1041C00030910002409101025091020229833A830A
:1041D0004B835C832091FB013091FC014091FD01F8
:1041E0005091FE012D833E834F835887019709F438
:1041F00071C020E030E040E05FE369817A818B812B
:104200009C810E9470299B01AC01C701B6010E94EC
:10421000BA260E9415286B018B0120E030E040E0B7
:104220005FE36D817E818F8198850E9470299B015B
:10423000AC01C501B4010E94BA260E9415280038BD
:10424000110508F047C077FD45C0603471050CF0DA
:1042500041C04091A001C6010E94760981E090E032
:104260009DCF80E10E94A00881118ACFA301920115
:10427000C501B4010E94BA264B015C0129813A8133
:104280004B815C81C701B6010E94BA266B017C019B
:10429000A5019401C501B4010E9470294B015C0184
:1042A000A7019601C701B6010E9470299B01AC01CC
:1042B000C501B4010E94BB2620E030E048EC51E487
:1042C0000E94992787FF5CCF0E949112E985FA85A9
:1042D000108256CFD1018C91882309F12D813E8126
:1042E0004F81588515966D917D918D919C91189770
:1042F0000E94BA260E9415286B0129813A814B81C0
:104300005C81F10161817281838194810E94BA266E
:104310000E941528CB0141E0B6010E947609F1E127
:104320002F0E311C29853A852215330599F64091C7
:104330002007509121075A87498720E030E040E864
:1043400053E4A985BA856D917D918D919C910E94D0
:10435000BB2629813A814B815C810E94BA260E944A
:1043600015283B0120E030E040E853E4E985FA8578
:1043700064817581868197810E94BB262D813E8153
:104380004F8158850E94BA260E9415288B012985E5
:104390003A853A8F298F290138E6430E511C498509
:1043A0005A855E8B4D8B20E030E040E853E4AD89C8
:1043B000BE8918966D917D918D919C911B970E945D
:1043C000BB2629813A814B815C810E94BA260E94DA
:1043D00015286B0120E030E040E853E4ED89FE89C8
:1043E00064857585868597850E94BB262D813E81D3
:1043F0004F8158850E94BA260E9415284B019B01C7
:10440000A601B801C3010E94CC082D893E89285F0E
:104410003F4F3E8B2D8B360184014216530619F611
:1044200020E030E040E853E4A985BA8514966D9108
:104430007D918D919C9117970E94BB262D813E8185
:104440004F8158850E94BA260E9415282B0120E032
:1044500030E040E853E4E985FA856081718182812A
:1044600093810E94BB2629813A814B815C810E9405
:10447000BA260E9415289201AB01B401C6010E9420
:10448000CC08312C212C80911E0790911F072816F3
:1044900039060CF4AFC0B8E72B2EB7E03B2E1A8AD2
:1044A000198A809122079091230749895A894817D0
:1044B00059070CF044C12BED3FE049EC5FE3D1011B
:1044C00018966D917D918D919C911B970E94BB26B2
:1044D0008B018F8F9CA3382F292F712F832F922F21
:1044E0000E949E272B013C013F8D2CA1602F712F34
:1044F000832F922F0E94DD296B017C012D813E814B
:104500004F815885F10164817581868197810E9470
:10451000BA264B015C0120E030E0A901C701B601D9
:104520000E9470296D8B7E8B8F8B988F20E030E0FE
:1045300040E050ECC301B2010E9470299B01AC0124
:104540006D897E898F89988D0E94BB269B01AC0165
:10455000C501B4010E94BB266D8B7E8B8F8B988F1B
:1045600029813A814B815C81D1016D917D918D9141
:104570009C910E94BA264B015C0120E030E0A90129
:10458000C301B2010E9470292B013C01A7019601D1
:10459000C701B6010E94BB269B01AC01C301B20159
:1045A0000E94BB269B01AC01C501B4010E94BB2641
:1045B000BCA1BF93EF8DEF931F930F93A12CB12C50
:1045C000E0E8CE2EE0E4DE2E860175012D893E89DD
:1045D0004F89588D0E94300B29893A892F5F3F4FB0
:1045E0003A8B298B3EE0230E311C0F900F900F90D9
:1045F0000F9057CF2BED3FE049EC5FE3A989BA89D3
:1046000018966D917D918D919C911B970E94BA2671
:104610008B018F8F9CA3382F292F712F832F922FDF
:104620000E949E272B013C013F8D2CA1602F712FF2
:10463000832F922F0E94DD296B017C012D813E8109
:104640004F815885E989FA896481758186819781CE
:104650000E94BA264B015C0120E030E0A901C701AD
:10466000B6010E9470296D8B7E8B8F8B988F20E016
:1046700030E040E850ECC301B2010E9470299B0178
:10468000AC016D897E898F89988D0E94BB269B0124
:10469000AC01C501B4010E94BB266D8B7E8B8F8B54
:1046A000988F29813A814B815C81A989BA896D9162
:1046B0007D918D919C910E94BA264B015C0120E076
:1046C00030E0A901C301B2010E9470292B013C0115
:1046D00020E030E040E850E4C701B6010E947029B4
:1046E0009B01AC01C301B2010E94BB269B01AC013E
:1046F000C501B4010E94BB26BCA1BF93EF8DEF930F
:104700001F930F93A12CB12CC12CF1E4DF2EE12CCF
:10471000F12C00E810E42D893E894F89588D0E94C4
:10472000300BFFEF2F1A3F0A29893A89225F3F4F4A
:104730003A8B298B0F900F900F900F90A4CEAD8DD8
:10474000BE8D8C91882311F12D813E814F8158853A
:1047500015966D917D918D919C9118970E94BA2626
:104760000E9415286B0129813A814B815C81ED8D76
:10477000FE8D61817281838194810E94BA260E949C
:104780001528CB0141E0B6010E9476092D8D3E8DA2
:104790002F5E3F4F3E8F2D8F4D855E85421753070D
:1047A00071F68091070290910802A0910902B091E0
:1047B0000A028F8F98A3A9A3BAA329813A814B81BA
:1047C0005C81BC01CD010E94BA262B013C012091E5
:1047D00003023091040240910502509106022D8798
:1047E0003E874F87588B2D813E814F8158856D853F
:1047F0007E858F8598890E94BA2669837A838B8308
:104800009C83309113023D83409114024D8F209080
:104810001502309016021F9252E05F931F9283E0C0
:104820008F931F925F938FEF8F938DEF8F936BEF2B
:10483000862E99249A94B12CA12C3D812D8DC32EC6
:10484000D22EE22CF32C09811A812B813C81B301F9
:10485000A20187E090E00E94461088E00E94A00834
:104860000FB6F894DEBF0FBECDBF882371F18091E3
:104870000F0190911001181619063CF51F92B3E034
:10488000BF931F92E2E0EF931F9287E08F931F92F6
:104890001F9243E0842E912C5EEFA52EBB24BA9488
:1048A0003D812D8DC32ED22EE22CF32C09811A814D
:1048B0002B813C81B301A20183E090E00E9446106D
:1048C0000FB6F894DEBF0FBECDBF80E10E94A008F6
:1048D000882309F441C01F9289E18F931F928FE0D2
:1048E0008F931F921F921F921F9299E1892E912CF4
:1048F00021EFA22EBB24BA943D813CA34D8D48A745
:10490000298A3D8AC32ED42E710109811A812B81F7
:104910003C81B301A20183E090E00E9446105D89D2
:104920005F9389898F9398A59F93ACA1AF93A12C96
:10493000B12C30E4C32E31E4D32E860175012981D8
:104940003A814B815C81C301B2010E94300B0FB6EA
:10495000F894DEBF0FBECDBF2DE030E03A8329834F
:1049600010E000E033243394A98DBA8DCD90DD9012
:10497000ED90FC90139720E030E040E853E414966B
:104980006D917D918D919C9117970E94BB264B0153
:104990005C01E981FA8183E0EE0FFF1F8A95E1F760
:1049A00029853A85E20FF31F408051806280738031
:1049B00020E030E040E853E464817581868197818E
:1049C0000E94BB2669837A838B839C83A501940113
:1049D0006D857E858F8598890E949927881F8827F5
:1049E000881F8D8329813A814B815C816D857E850D
:1049F0008F8598890E949927881F8827881F3D8165
:104A0000381709F447C020E030E040E853E4C7011C
:104A1000B6010E94BB266B017C0120E030E040E83B
:104A200053E4C301B2010E94BB26A70196010E9474
:104A3000BA262B013C01A50194016D857E858F85E9
:104A400098890E94BA269B01AC01C301B2010E9461
:104A500070292B013C01A501940169817A818B8128
:104A60009C810E94BA269B01AC01C301B2010E9445
:104A7000A327A70196010E94BB269B01AC016F8D65
:104A800078A189A19AA10E94992787FF03C04BA111
:104A900043254BA3C8010196A98DBA8D1896BA8FEC
:104AA000A98F1A8309838E309105E1F5BBA1BB2341
:104AB00031F086E791E00E9407120E9491128091E6
:104AC0000D0190910E010E947912E8E1F0E0F0935F
:104AD0009701E093960180910F01909110011816B3
:104AE000190614F50E94791228E530E030939701F9
:104AF000209396016091A4017091A501072E000CEE
:104B0000880B990B97FF15C00E9458128CE491E016
:104B10000E94071210929701109296010E94AB0812
:104B20000C943A188C0120CF82E891E00E94071281
:104B3000DBCF4AE00E941412E9CF8F929F92AF928E
:104B4000BF92CF92DF92EF92FF92CF93DF93EC016F
:104B5000688179818A819B81611571058105910543
:104B600021F464E279ED8BE597E02DE133EF41E04C
:104B700050E00E94572649015A019B01AC01A7EA67
:104B8000B1E40E9476266B017C01ACEEB4EFA50186
:104B900094010E948426C60ED71EE81EF91EF7FE59
:104BA00006C081E0C81AD108E10880E8F80AC88286
:104BB000D982EA82FB82C701B6019F77DF91CF914C
:104BC000FF90EF90DF90CF90BF90AF909F908F902D
:104BD00008958F929F92AF92BF92CF92DF92EF9201
:104BE000FF926091110170911201809113019091D7
:104BF0001401611571058105910521F464E279EDD7
:104C00008BE597E02DE133EF41E050E00E9457261D
:104C100049015A019B01AC01A7EAB1E40E94762642
:104C20006B017C01ACEEB4EFA50194010E948426D7
:104C3000C60ED71EE81EF91EF7FE06C081E0C81A90
:104C4000D108E10880E8F80AC0921101D09212015F
:104C5000E0921301F0921401C701B6019F77FF9013
:104C6000EF90DF90CF90BF90AF909F908F9008957E
:104C700060931101709312018093130190931401BA
:104C80000895F999FECF92BD81BDF89A992780B514
:104C90000895262FF999FECF1FBA92BD81BD20BD80
:104CA0000FB6F894FA9AF99A0FBE01960895052E58
:104CB00097FB1EF400940E946E2657FD07D00E94B9
:104CC000892607FC03D04EF40C946E26509540952F
:104CD000309521953F4F4F4F5F4F089590958095A8
:104CE000709561957F4F8F4F9F4F08950E94AB261F
:104CF000A59F900DB49F900DA49F800D911D112430
:104D00000895B7FF0C9476260E947626821B930B9B
:104D10000895A1E21A2EAA1BBB1BFD010DC0AA1FFC
:104D2000BB1FEE1FFF1FA217B307E407F50720F014
:104D3000A21BB30BE40BF50B661F771F881F991F8F
:104D40001A9469F760957095809590959B01AC01D8
:104D5000BD01CF010895A29FB001B39FC001A39FE1
:104D6000700D811D1124911DB29F700D811D1124A4
:104D7000911D08955058BB27AA270E94D2260C9453
:104D800015290E94DC2838F00E94E32820F039F42D
:104D90009F3F19F426F40C94B2280EF4E095E7FB3B
:104DA0000C94AC28E92F0E943A2958F3BA176207ED
:104DB00073078407950720F079F4A6F50C945C2915
:104DC0000EF4E0950B2EBA2FA02D0B01B901900126
:104DD0000C01CA01A0011124FF27591B99F0593F6A
:104DE00050F4503E68F11A16F040A22F232F342FB2
:104DF0004427585FF3CF469537952795A795F04000
:104E00005395C9F77EF41F16BA0B620B730B840B14
:104E1000BAF09150A1F0FF0FBB1F661F771F881FCC
:104E2000C2F70EC0BA0F621F731F841F48F4879524
:104E300077956795B795F7959E3F08F0B0CF939516
:104E4000880F08F09927EE0F9795879508950E948F
:104E5000DC2860F080E891E009F49EEF0E94E328EE
:104E600028F040E851E071F45EEF0CC00C94B228D9
:104E70000C945C29E92FE0780E943A2940F3092E2E
:104E8000052AB1F3261737074807590738F00E2EC1
:104E900007F8E02569F0E025E0640AC0EF6307F851
:104EA000009407FADB01B9019D01DC01CA01AD01E3
:104EB000EF930E94BA270E9415290E946A275F91EA
:104EC000552339F02BED3FE049E450FD49EC0C94BB
:104ED000BB260895DF93DD27B92FBF7740E85FE356
:104EE0001616170648075B0718F4D92F0E94682981
:104EF0009F938F937F936F930E942B2AECEAF0E0AD
:104F00000E94B5280E9415292F913F914F915F91E2
:104F10000E948329DD2351F09058A2EA2AED3FE058
:104F200049EC5FE3D0785D270E94D226DF910C9494
:104F300015290E94882808F481E008950E94EC2831
:104F4000E3950C9426290E94B7270C9415290E94FA
:104F5000E32858F00E94DC2840F029F45F3F29F054
:104F60000C94AC2851110C945D290C94B2280E9429
:104F70003A2968F39923B1F3552391F3951B550B07
:104F8000BB27AA2762177307840738F09F5F5F4F1C
:104F9000220F331F441FAA1FA9F335D00E2E3AF05B
:104FA000E0E832D091505040E695001CCAF72BD073
:104FB000FE2F29D0660F771F881FBB1F26173707C4
:104FC0004807AB07B0E809F0BB0B802DBF01FF27F6
:104FD00093585F4F3AF09E3F510578F00C94AC28FF
:104FE0000C945D295F3FE4F3983ED4F38695779562
:104FF0006795B795F7959F5FC9F7880F911D9695AF
:10500000879597F90895E1E0660F771F881FBB1F0A
:10501000621773078407BA0720F0621B730B840BB7
:10502000BA0BEE1F88F7E09508950E941C2868943B
:10503000B1110C945D2908950E94422988F09F5770
:1050400098F0B92F9927B751B0F0E1F0660F771FAC
:10505000881F991F1AF0BA95C9F714C0B13091F0A2
:105060000E945C29B1E008950C945C29672F782F89
:105070008827B85F39F0B93FCCF386957795679567
:10508000B395D9F73EF490958095709561957F4FD3
:105090008F4F9F4F0895E89409C097FB3EF4909579
:1050A0008095709561957F4F8F4F9F4F9923A9F001
:1050B000F92F96E9BB279395F69587957795679590
:1050C000B795F111F8CFFAF4BB0F11F460FF1BC0D4
:1050D0006F5F7F4F8F4F9F4F16C0882311F096E967
:1050E00011C0772321F09EE8872F762F05C0662315
:1050F00071F096E8862F70E060E02AF09A95660FCE
:10510000771F881FDAF7880F9695879597F9089586
:10511000990F0008550FAA0BE0E8FEEF16161706C8
:10512000E807F907C0F012161306E407F50798F030
:10513000621B730B840B950B39F40A2661F0232B49
:10514000242B252B21F408950A2609F4A140A695C5
:105150008FEF811D811D089597F99F6780E870E0AA
:1051600060E008959FEF80EC0895DF93CF931F9345
:105170000F93FF92EF92DF927B018C01689406C03F
:10518000DA2EEF010E948329FE01E894A591259172
:10519000359145915591A6F3EF010E94D226FE016B
:1051A0009701A801DA9469F7DF90EF90FF900F91D3
:1051B0001F91CF91DF91089500240A9416161706C7
:1051C00018060906089500240A94121613061406F8
:1051D000050608950C94B2280E944229D8F3E89459
:1051E000E0E0BB279F57F0F02AED3FE049EC06C016
:1051F000EE0FBB0F661F771F881F28F0B23A6207B9
:105200007307840728F0B25A620B730B840BE39583
:105210009A9572F7803830F49A95BB0F661F771F06
:10522000881FD2F790480C94312A092E0394000C61
:1052300011F4882352F0BB0F40F4BF2B11F460FF30
:1052400004C06F5F7F4F8F4F9F4F0895EF93E0FF34
:1052500007C0A2EA2AED3FE049EC5FEB0E94D226AC
:105260000E9415290F90039401FC9058E9EDF0E09D
:105270000C94442A57FD9058440F551F59F05F3F36
:1052800071F04795880F97FB991F61F09F3F79F068
:1052900087950895121613061406551FF2CF4695EA
:1052A000F1DF08C0161617061806991FF1CF86956C
:1052B0007105610508940895E894BB276627772750
:1052C000CB0197F908950E94882808F48FEF08957C
:1052D0009B01AC0160E070E080E89FE30C94A327A1
:1052E0000E9483290C9415290E94DC2838F00E9422
:1052F000E32820F0952311F00C94AC280C94B228EC
:1053000011240C945D290E943A2970F3959FC1F3F2
:10531000950F50E0551F629FF001729FBB27F00D63
:10532000B11D639FAA27F00DB11DAA1F649F6627B8
:10533000B00DA11D661F829F2227B00DA11D621F07
:10534000739FB00DA11D621F839FA00D611D221FC1
:10535000749F3327A00D611D231F849F600D211DA5
:10536000822F762F6A2F11249F5750409AF0F1F028
:1053700088234AF0EE0FFF1FBB1F661F771F881F91
:1053800091505040A9F79E3F510580F00C94AC28F5
:105390000C945D295F3FE4F3983ED4F386957795AE
:1053A0006795B795F795E7959F5FC1F7FE2B880F37
:1053B000911D9695879597F908959F930E94EC28E3
:1053C0000F9007FCEE5F0C94262919F416F40C9448
:1053D000B2280C942F2A0E944229B8F39923C9F3CA
:1053E000B6F39F57550B87FF0E943D2A0024A0E685
:1053F00040EA900180585695979528F4805C660F96
:10540000771F881F20F026173707480730F4621BE4
:10541000730B840B202931294A2BA69517940794E6
:10542000202531254A2758F7660F771F881F20F05F
:1054300026173707480730F4620B730B840B200DD7
:10544000311D411DA09581F7B901842F9158880F16
:105450009695879508959B01AC010C9470299F3F08
:1054600031F0915020F4879577956795B795880F1F
:10547000911D9695879597F9089591505040660F24
:10548000771F881FD2F708959F938F937F936F9311
:10549000FF93EF939B01AC010E947029EF91FF9164
:1054A0000E94B5282F913F914F915F910C947029E4
:1054B00097FB072E16F4009407D077FD09D00E94C1
:1054C0006C2A07FC05D03EF4909581959F4F089576
:1054D000709561957F4F0895AA1BBB1B51E107C0D2
:1054E000AA1FBB1FA617B70710F0A61BB70B881F74
:1054F000991F5A95A9F780959095BC01CD01089503
:10550000EE0FFF1F0590F491E02D09940F931F9368
:10551000CF93DF938230910510F482E090E0E09128
:10552000B207F091B30730E020E0B0E0A0E03097A0
:1055300099F42115310509F44AC0281B390B243090
:105540003105D8F58A819B816115710589F1FB01CF
:1055500093838283FE0111C04081518102811381B6
:1055600048175907E0F04817590799F4109761F068
:1055700012960C93129713961C933296CF01DF91DB
:10558000CF911F910F9108950093B2071093B30725
:10559000F4CF2115310551F04217530738F0A90116
:1055A000DB019A01BD01DF01F801C1CFEF01F9CFA5
:1055B0009093B3078093B207CDCFFE01E20FF31FA4
:1055C000819391932250310939832883D7CF209139
:1055D000B0073091B107232B41F42091170130918E
:1055E00018013093B1072093B00720911501309135
:1055F00016012115310541F42DB73EB7409119012F
:1056000050911A01241B350BE091B007F091B107BE
:10561000E217F307A0F42E1B3F0B2817390778F089
:10562000AC014E5F5F4F2417350748F04E0F5F1FE8
:105630005093B1074093B007819391939FCFF0E0CF
:10564000E0E09CCFCF93DF930097E9F0FC01329725
:1056500013821282A091B207B091B307ED0130E03E
:1056600020E01097A1F420813181820F931F2091B7
:10567000B0073091B1072817390709F061C0F093DE
:10568000B107E093B007DF91CF910895EA01CE17FB
:10569000DF07E8F54A815B819E0141155105B1F7AD
:1056A000E901FB83EA8349915991C40FD51FEC1797
:1056B000FD0761F4808191810296840F951FE901B5
:1056C00099838883828193819B838A83F0E0E0E0E1
:1056D00012968D919C9113970097B9F52D913C915D
:1056E0001197CD010296820F931F2091B007309140
:1056F000B1072817390739F6309751F51092B307DB
:105700001092B207B093B107A093B007BCCFD38378
:10571000C28340815181840F951FC817D90761F456
:105720004E5F5F4F88819981480F591F5183408395
:105730008A819B81938382832115310509F0B0CF43
:10574000F093B307E093B2079ECFFD01DC01C0CF19
:0A57500013821282D7CFF894FFCF26
:10575A00FFFFFFFF00E100000000000010030088C7
:10576A0013010000000000B407800000C18081001E
:10577A000000000000001706920538062D067E0676
:10578A003C065A0600000000980A65052D0B2C0BF2
:10579A0000000000040A65052D0B2C0B0D0A0047BA
:1057AA00616D65204F7665722100507265737320B2
:1057BA00616E7920627574746F6E00746F20726501
:1057CA0073746172740048495420504C414E4554D8
:0857DA002100454D5054590017
:00000001FF
