:100000000C94F9030C9421040C9421040C94210405
:100010000C9421040C9421040C9421040C942104CC
:100020000C9421040C9421040C940B0F0C947A0F63
:100030000C9421040C9421040C9421040C942104AC
:100040000C9421040C9421040C9421040C9421049C
:100050000C9421040C9421040C9421040C94C10EE2
:100060000C9421040C9421040C9421040C9421047C
:100070000C9421040C9421040C9421040C9421046C
:100080000C9421040C9421040C9421040C9421045C
:100090000C9421040C9421040C9421040C9421044C
:1000A0000C9421040C9421040C942104084AD73B9D
:1000B0003BCE016E84BCBFFDC12F3D6C74319ABD37
:1000C00056833DDA3D00C77F11BED9E4BB4C3E915B
:1000D0006BAAAABE000000803F05A84CCDB2D44E4A
:1000E000B93836A9020C50B9918688083CA6AAAA4C
:1000F0002ABE000000803F0003081F051F1F151BBC
:100100001F11111F110E1F15111F05011F111D1F9A
:10011000041F001F0010101F1F041B1F10101F06BC
:100120001F1F011F1F111F1F05071F311F1F051B49
:1001300017151D011F011F101F0F100F1F0C1F1B74
:10014000041B071C071915130C121E1F120C1E127C
:10015000120C121F0C1A14041F052E2A1E1F021C3B
:10016000001D00201D001F041A011F001E041E1E7A
:10017000021E1E121E3E120C0C123E1E020614120D
:100180000A020F121E101E0E100E1E081E1A041A4E
:100190002E281E1A12161F111F001F001D151711E1
:1001A000151F07041F17151D1F151D01011F1F1502
:1001B0001F17151F00170000100000000000003E70
:1001C0005B4F5B3E3E6B4F6B3E1C3E7C3E1C183CC7
:1001D0007E3C181C577D571C1C5E7F5E1C00183C23
:1001E0001800FFE7C3E7FF0018241800FFE7DBE76C
:1001F000FF30483A060E2629792926407F05050753
:10020000407F05253F5A3CE73C5A7F3E1C1C0808AE
:100210001C1C3E7F14227F22145F5F005F5F060973
:100220007F017F006689956A606060606094A2FFCC
:10023000A29408047E040810207E201008082A1CBE
:1002400008081C2A08081E101010100C1E0C1E0C8A
:1002500030383E3830060E3E0E060000000000002A
:10026000005F00000007000700147F147F14242A99
:100270007F2A12231308646236495620500008076B
:100280000300001C2241000041221C002A1C7F1C8C
:100290002A08083E0808008070300008080808088E
:1002A000000060600020100804023E5149453E00F5
:1002B000427F400072494949462141494D33181453
:1002C000127F1027454545393C4A494931412111A2
:1002D00009073649494936464949291E0000140094
:1002E00000004034000000081422411414141414B7
:1002F000004122140802015909063E415D594E7C15
:100300001211127C7F494949363E414141227F41C9
:1003100041413E7F494949417F090909013E414127
:1003200051737F0808087F00417F41002040413F12
:10033000017F081422417F404040407F021C027F21
:100340007F0408107F3E4141413E7F090909063E76
:100350004151215E7F091929462649494932030145
:100360007F01033F4040403F1F2040201F3F403857
:10037000403F631408146303047804036159494D32
:1003800043007F4141410204081020004141417F68
:1003900004020102044040404040000307080020DE
:1003A000545478407F2844443838444444283844DE
:1003B00044287F385454541800087E090218A4A415
:1003C0009C787F0804047800447D40002040403D34
:1003D000007F1028440000417F40007C04780478AE
:1003E0007C080404783844444438FC182424181841
:1003F000242418FC7C08040408485454542404049D
:100400003F44243C4040207C1C2040201C3C403089
:10041000403C44281028444C9090907C4464544CB8
:100420004400083641000000770000004136080013
:1004300002010204023C2623263C1EA1A161123ABD
:100440004040207A3854545559215555794121540A
:10045000547841215554784020545579400C1E520F
:1004600072123955555559395454545939555454B3
:10047000580000457C410002457D420001457C401A
:10048000F0292429F0F0282528F07C545545002037
:1004900054547C547C0A097F4932494949323248D4
:1004A000484832324A4848303A4141217A3A42403B
:1004B0002078009DA0A07D39444444393D4040400F
:1004C0003D3C24FF2424487E4943662B2FFC2F2BE0
:1004D000FF0929F620C0887E090320545479410081
:1004E00000447D413048484A32384040227A007A00
:1004F0000A0A727D0D19317D2629292F28262929DE
:10050000292630484D4020380808080808080808FF
:10051000382F10C8ACBA2F102834FA00007B000026
:1005200008142A142222142A14089500220095AADD
:10053000005500AAAA55AA55AA000000FF001010F5
:1005400010FF00141414FF001010FF00FF1010F033
:1005500010F0141414FC001414F700FF0000FF0046
:10056000FF1414F404FC141417101F10101F101F94
:100570001414141F00101010F0000000001F1010C1
:1005800010101F10101010F010000000FF101010BD
:10059000101010101010FF10000000FF140000FFDA
:1005A00000FF00001F10170000FC04F414141710C3
:1005B000171414F404F40000FF00F71414141414B6
:1005C0001414F700F7141414171410101F101F142C
:1005D0001414F4141010F010F000001F101F00008D
:1005E000001F14000000FC140000F010F01010FFB9
:1005F00010FF141414FF141010101F00000000F05E
:1006000010FFFFFFFFFFF0F0F0F0F0FFFFFF000032
:10061000000000FFFF0F0F0F0F0F38444438447CD9
:100620002A2A3E147E02020606027E027E026355DC
:100630004941633844443C04407E201E2006027E2B
:10064000020299A5E7A5991C2A492A1C4C7201723D
:100650004C304A4D4D303048784830BC625A463DA7
:100660003E494949007E0101017E2A2A2A2A2A445C
:10067000445F444440514A444040444A5140000091
:10068000FF0103E080FF000008086B6B083612369C
:100690002436060F090F060000181800000010107D
:1006A000003040FF0101001F01011E00191D17123B
:1006B000003C3C3C3C0000000000080B0002020231
:1006C00000000904000001020200000524001001DE
:1006D0000524010101042402060524060001070582
:1006E000810310004009040100020A000000070510
:1006F00002024000000705830240000004030904D1
:1007000012010002EF020140412336800001010284
:10071000030141726475696E6F204C4C4300417255
:100720006475626F7900F0F89C8E8783878E9CF8E1
:10073000F00000FEFF0303030303070EFCF80000B4
:10074000FEFF0303030303070EFCF80000FFFF0096
:10075000000000000000FFFF0000FEFF8383838392
:1007600083C7EE7C380000F8FC0E07030303070E76
:10077000FCF800003F7FE0C08080C0E07F3FFFFFCB
:1007800001010101010101FFFF0000FFFF0C0C0C42
:100790000C1C3E77E3C100007FFFC0C0C0C0C0E0BA
:1007A000703F1F00001F3F70E0C0C0C0E0703F1FDF
:1007B00000007FFFC1C1C1C1C1E3773E1C00001F23
:1007C0003F70E0C0C0C0E0703F1F000000000001AB
:1007D000FFFF01000000D5F08D14A1C881CFD9F131
:1007E000AF2000070605040100080A0B0C0D0900E4
:1007F000DF1111241FBECFEFDAE0DEBFCDBF11E065
:10080000A0E0B1E0E4ECF0E502C005900D92A43662
:10081000B107D9F727E0A4E6B1E001C01D92AE38D8
:10082000B207E1F713E0C9EFD3E004C02197FE015E
:100830000E943527C83FD107C9F70E9416120C94B1
:1008400060280C940000E2E0F3E0A0E0B8E0008053
:100850000EBC8111012C1197A0FDFDCF0192B9F7BB
:100860000DB40895FC0180910103882311F13FB775
:10087000F89482E08093E9002091F200822F90E0CA
:100880001816190614F481E090E0882339F02898AE
:1008900044E6409300034091F1004083222339F065
:1008A0002091F200211103C02BE62093E8003FBF06
:1008B00008958FEF9FEF08952FB7F89483E080930A
:1008C000E9009091E800892F807295FF04C0909113
:1008D000F20080E4891B2FBF08958091F8028111F6
:1008E0000DC082E08093F40284E08093F5021092C0
:1008F000F7021092F60281E08093F80284EF92E012
:1009000008953FB7F8948091F0029091F102A09180
:10091000F202B091F30226B5A89B05C02F3F19F053
:100920000196A11DB11D3FBFBA2FA92F982F88276F
:10093000BC01CD01620F711D811D911D42E0660F4A
:10094000771F881F991F4A95D1F708958F929F921C
:10095000AF92BF92CF92DF92EF92FF926B017C0138
:100960000E9481044B015C01C114D104E104F10433
:10097000B9F00E948104681979098A099B09683EC7
:1009800073408105910580F321E0C21AD108E10886
:10099000F10888EE880E83E0981EA11CB11CE4CFFC
:1009A000FF90EF90DF90CF90BF90AF909F908F908F
:1009B0000895409166015091670120916401309142
:1009C000650142175307B4F49091E8009570E1F384
:1009D0009091E80092FD19C08093F100809166012A
:1009E0009091670101968F739927892B19F48EEFE7
:1009F0008093E80080916601909167010196909341
:100A000067018093660181E0089580E00895DF9298
:100A1000EF92FF920F931F93CF93DF93D82E8A010B
:100A2000EB017B01E40EF51ECE15DF0559F0D7FE74
:100A300012C0FE0184910E94D90421968111F4CF45
:100A40000FEF1FEFC801DF91CF911F910F91FF9022
:100A5000EF90DF9008958881EECF0F931F93CF938F
:100A6000DF931F92CDB7DEB782E0898342E450E086
:100A70006AEB76E080E80E9407050E946D04DC01C5
:100A800012960D911C910115110589F0D801ED9177
:100A9000FC910280F381E02DBE016F5F7F4FC801A2
:100AA000099597FD04C0F80100851185ECCF898177
:100AB0000F90DF91CF911F910F910895615030F009
:100AC0002091F100FC0120830196F8CF289884E65C
:100AD000809300030895AF92BF92CF92DF92EF927E
:100AE000FF920F931F93CF93DF936C017B018B01D8
:100AF000040F151FEB015E01AE18BF08C017D10728
:100B000059F06991D601ED91FC910190F081E02DB1
:100B1000C6010995892B79F7C501DF91CF911F9106
:100B20000F91FF90EF90DF90CF90BF90AF9008951E
:100B30008F929F92AF92BF92CF92DF92EF92FF92ED
:100B40000F931F93CF93DF936C017B018A018091F8
:100B50000B01882309F45CC080910103882309F408
:100B600057C080916A0180FF05C08091E0008260DB
:100B70008093E000E801B12C8AEFA82E93E0892E43
:100B80002AE3922E209711F4BB20D9F10E945C0435
:100B900081110AC0AA94AA20D9F161E070E080E036
:100BA00090E00E94A604EECF8C171D0611F00CF009
:100BB0008C2F9FB7F8948092E9002091E80025FDE2
:100BC00002C09FBFDFCF282F30E0C21BD30BF7013D
:100BD000815020F041914093F100FACFE20EF31ED4
:100BE000BB2021F09092E800B12CEBCF8091E8007F
:100BF00085FDE7CF9092E800BB24B394209709F3DA
:100C0000F3CF5D9884E680936901101611063CF0DD
:100C100081E090E0F6019383828310E000E0C80158
:100C2000DF91CF911F910F91FF90EF90DF90CF90C8
:100C3000BF90AF909F908F900895CF93DF931F92B6
:100C4000CDB7DEB76983DC01ED91FC910280F381C1
:100C5000E02D41E050E0BE016F5F7F4F09950F909E
:100C6000DF91CF91089583E08093E9008091F200B5
:100C7000882319F08AE38093E80008950E945C04B9
:100C800090E00895CF93DF931F92CDB7DEB7FC01BC
:100C90008485958597FD08C02FEF3FEF3587248722
:100CA0000F90DF91CF910895CE0101960E943204FA
:100CB000019719F4898190E0F3CF8FEF9FEFF0CF88
:100CC0000F931F93CF93DF931F92CDB7DEB78C01A5
:100CD000FC018485958597FF0BC0CE0101960E948B
:100CE0003204019771F4898190E0F8019587848737
:100CF000F801848595850F90DF91CF911F910F9119
:100D000008958FEF9FEFF1CFFC018485958597FDC6
:100D10000BC09FB7F89482E08093E9008091F200C5
:100D20009FBF90E0019608959FB7F89482E080936A
:100D3000E9008091F2009FBF90E008954F925F928A
:100D40006F927F928F929F92AF92BF92CF92DF92DB
:100D5000EF92FF920F931F93CF93DF934C015901B2
:100D6000FC2DC02FD0E0CE01880D991D1816190654
:100D70000CF067C09B012E0D311D121613060CF0EE
:100D800060C0603471050CF05CC04115510509F478
:100D900058C0262F2770F22EDB0177FD179633E01F
:100DA000B595A7953A95E1F73A2F77FF04C0FF2054
:100DB00011F03FEF3A0F662777276819790997FCFA
:100DC00002C070E060E0803891050CF44BC090E800
:100DD0009819961BA32F032E000CBB0B1A2F1095EE
:100DE0003F3F0CF010E021E08E2D877009F420E0E9
:100DF000E694E694E694E20EAE0DB11D19971CF050
:100E000028E0E22EE31AE11A310F20E83203D00184
:100E10001124A80DB91DA60FB71F019F600D711DEC
:100E20001124460F571F0F2D0F2C000C110BF33000
:100E300009F41CC1C8F4F13009F4D0C0F23009F44F
:100E40007CC0DF91CF911F910F91FF90EF90DF90C9
:100E5000CF90BF90AF909F908F907F906F905F905A
:100E60004F900895902FB5CFFA3FB1F1232F2E0D5B
:100E7000FB3F39F7321729F3BD016E5F7C4FD12C50
:100E8000C12CC91608F0A4C0FA01EC0DFD1DE491B7
:100E9000F0E04F01002E02C0880C991C0A94E2F782
:100EA00037FD06C0FB018081E82CE0948E21808311
:100EB000FF2061F0373054F45B01F0E8AF0EB11C55
:100EC000E92CE094F50180818E218083FFEFCF1A19
:100ED000DF0A6F5F7F4FD5CF232F2E0D321709F416
:100EE000B0CFBD016E5F7C4FD12CC12CC91608F06C
:100EF00069C0FA01EC0DFD1DE491F0E04F01002EF8
:100F000002C0880C991C0A94E2F737FD04C0FB016B
:100F1000808188298083FF2051F0373044F45B01C1
:100F2000F0E8AF0EB11CF501808189298083FFEFC5
:100F3000CF1ADF0A6F5F7F4FD9CF6FEF70E00F2CB2
:100F400002C0660F771F0A94E2F760957095772EBE
:100F5000232F2E0D321709F474CFFD01EE5FFC4FE5
:100F60006F01B12CA12CA91638F5FA01EA0DFB1D71
:100F7000E491F0E02F01002E02C0440C551C0A94AD
:100F8000E2F737FD05C0F60180818623842980833E
:100F9000FF2059F037304CF44601F0E88F0E911CD9
:100FA000F4018081872185298083FFEFAF1ABF0A72
:100FB0008FEFC81AD80AD7CF3F5F4C0F5D1FA058DC
:100FC000BF4FC8CF3F5F4C0F5D1FA058BF4F86CFAC
:100FD0003F5F4C0F5D1FA058BF4F4CCF6A0D7B1D6C
:100FE000232F2E0D321709F42CCFFD01EE5FFC4F9D
:100FF0006F01B12CA12CA91688F5FB01EA0DFB1D90
:101000008490912C002E02C0880C991C0A94E2F75F
:1010100080949094FA01EA0DFB1D6490712C002ECF
:1010200002C0660C771C0A94E2F737FD05C0F60192
:101030008081882186298083FF2049F037303CF465
:10104000F601E058FF4F8081892187298083FFEFD7
:10105000AF1ABF0A8FEFC81AD80ACDCF3F5F4C0F27
:101060005D1F6C0F7D1FA058BF4FBCCFC92ED12C68
:10107000FA01E60FF71FAE5FBC4F00E810E00C1955
:101080001D09CC19DD09BE01660F771F41E050E054
:101090006A010F2C01C0CC0C0A94EAF7592F2E2DAF
:1010A000792ECF93DF93ED01EF96EF962296859000
:1010B000A590FF2059F08C9C4001AC9C500137302A
:1010C0002CF4E880B094EB20E928E99233233AF03D
:1010D000EC90A094EA20E828ED920C947008119608
:1010E0005A9529F72A9551F0572D33951124E60F7B
:1010F000F11DA00FB11DC00FD11DD9CFDF91CF9130
:1011000011249FCE2D9A0895BC0190E080E00C94AC
:10111000A6048FB18095807F669B88601C9B84604D
:10112000089580E0E2E0F3E081118FEF00248193E5
:101130008193819381930394D1F710926D01109262
:101140006C0110927501109274010895CF93C82F0D
:101150000E948908982F9C2381E09C1380E0CF9106
:10116000089580E00C94230480389105B8F460342D
:101170007105A0F420E191E061FD94E060FD990F1C
:1011800062FD9295687F269FD0011124A80FAE5F63
:10119000BC4F8C9140FF03C0892B8C930895909590
:1011A0008923FBCF2F923F924F925F926F927F9253
:1011B0008F929F92AF92BF92CF92DF92EF92FF9267
:1011C0000F931F93CF93DF93EC018B017A01690199
:1011D000C61AD70AD7FE03C0D194C194D1084701DB
:1011E0008C1A9D0A97FE03C09194819491088C14E7
:1011F0009D0454F49E2D8F2D7901292F382F9C2F7B
:101200008D2FE801092F182FEC16FD0654F4902FAE
:10121000812F8901292F382F9C2F8D2FE701E92E4F
:10122000F82E17012C1A3D0A2901401A510A57FEBF
:1012300003C0519441945108310137FE03C08FEF30
:10124000681A780A759467948FEF021713070CF4E5
:1012500081E0A82E880FBB08EC16FD06A4F041E043
:10126000BE01C8018C149D0414F0B801CE010E9487
:10127000B4086418750877FE04C00A0D1B1D620CC3
:10128000731C2196E9CFDF91CF911F910F91FF90B1
:10129000EF90DF90CF90BF90AF909F908F907F9016
:1012A0006F905F904F903F902F900895EF92FF9234
:1012B0000F931F93CF93DF937C018B01040F111DBC
:1012C000EB0177FF02C0D0E0C0E0C8010134110596
:1012D00014F080E490E0C817D9073CF441E0BE0167
:1012E000C7010E94B4082196F0CFDF91CF911F91E2
:1012F0000F91FF90EF9008958F929F92AF92BF92BF
:10130000CF92DF92EF92FF920F931F93CF93DF93D1
:101310006D3089F0C0906C01D0906D016A30D1F4CD
:10132000109275011092740188E0C80ED11CD09201
:101330006D01C0926C0181E090E0DF91CF911F912F
:101340000F91FF90EF90DF90CF90BF90AF909F9064
:101350008F9008950091740110917501E5E06E9FE2
:10136000E0011124C654DE4F4801F12CF5E0E12CD8
:10137000FF1629F0CE010196FE01E490EC01B12C9C
:10138000A12C4E2D4170B6016A0D7B1DC4010E9437
:10139000B408E694FFEFAF1ABF0A88E0A816B104BC
:1013A00081F7F394EFEF8E1A9E0AF6E0FF12DECF7C
:1013B0000A5F1F4F1093750100937401BCCFCF9249
:1013C000EF920F93CF93DF93EC018E816A3069F433
:1013D0009D819C836985860F8E8381E090E0DF91FB
:1013E000CF910F91EF90CF9008956A3378F46033E6
:1013F00008F051C0613209F450C09FE36E3291F0A1
:1014000098859D5F8C81890F8C83E7CF6134C0F311
:101410006B3530F09FE9960F9A3190F799EB01C048
:101420009FEB960F61E0680F062E000C770BAC81E6
:101430000A2E000CBB0BE8EFF0E029EF30E08F81C3
:10144000813069F50491F901E4904AEF50E0992365
:10145000D1F041E050E08E2D877011F450E040E073
:101460002E2D269526952695240F352F311D029F6A
:10147000F001039FF00D11249E9FA0019F9F500D2E
:10148000112446505F4F9AEFC92E30E020E0CD0185
:101490000E949E06B5CF94E0C4CF9EE3C3CF0491D3
:1014A000F901E4904AEF50E09923D1F041E050E097
:1014B0008E2D877011F450E040E02E2D2695269554
:1014C0002695240F352F311D029FF001039FF00D4B
:1014D00011249E9FA0019F9F500D112446505F4FE5
:1014E0008BEFC82ED2CF089590E080E008954F9200
:1014F0005F926F927F928F929F92AF92BF92CF92A4
:10150000DF92EF92FF920F931F93CF93DF93CDB7AC
:10151000DEB7A8970FB6F894DEBF0FBECDBF6D8BB8
:101520007E8B8F8B988F298F3A8F4B8F5C8FC80162
:10153000B70120E030E040E05FE30E9425266D83A4
:101540007E838F8398872B013C0177FA709477F81C
:101550007094C601B5010E94532469837A838B83FA
:101560009C83C601B5010E9492266B017C0120E09C
:1015700030E040E050EC69817A818B819C810E944F
:1015800025266D8F7E8F8F8F98A3A7019601C301AB
:10159000B2010E94252669877A878B879C8720E085
:1015A00030E040E050ECC701B6010E94252669A357
:1015B0007AA38BA39CA329813A814B815C81C301CF
:1015C000B2010E9425266D877E878F87988B29819F
:1015D0003A814B815C81CA01B9010E9470232B01C1
:1015E0003C01A7019601C701B6010E947023698BD7
:1015F0007A8B8B8B9C8BA70196016D817E818F816D
:1016000098850E9425266B017C0129813A814B81B6
:101610005C816D817E818F8198850E9425264B019A
:101620005C0129853A854B855C856D8D7E8D8F8D1E
:1016300098A10E946F232D893E894F89588D0E9461
:1016400070230E94CA2469837A838B839C832D85AF
:101650003E854F85588969A17AA18BA19CA10E94E2
:101660007023298D3A8D4B8D5C8D0E9470230E94D2
:10167000CA246D837E838F83988729853A854B851D
:101680005C85C301B2010E946F232D893E894F8979
:10169000588D0E9470230E94CA2469877A878B879D
:1016A0009C8729893A894B895C896D857E858F85E0
:1016B00098890E947023298D3A8D4B8D5C8D0E94F4
:1016C00070230E94CA246D877E878F87988BA7011D
:1016D0009601C301B2010E946F232D893E894F8973
:1016E000588D0E9470230E94CA246DA37EA38FA3ED
:1016F00098A7A501940169897A898B899C890E94A0
:101700007023298D3A8D4B8D5C8D0E9470230E9431
:10171000CA24698B7A8B8B8B9C8BA70196016D8D6C
:101720007E8D8F8D98A10E946F232D893E894F89D0
:10173000588D0E9470230E94CA246B01A501940158
:1017400069A17AA18BA19CA10E947023298D3A8D59
:101750004B8D5C8D0E9470230E94CA242B012D8525
:101760003E8549855A856D817E8189819A810E9455
:10177000D20829893A894DA15EA16D857E8589852A
:101780009A850E94D2089201A60169897A898DA161
:101790009EA10E94D2082D813E8149815A81B201C9
:1017A000C601A8960FB6F894DEBF0FBECDBFDF917D
:1017B000CF911F910F91FF90EF90DF90CF90BF904E
:1017C000AF909F908F907F906F905F904F900C9410
:1017D000D2082F923F924F925F926F927F928F9298
:1017E0009F92AF92BF92CF92DF92EF92FF920F93B0
:1017F0001F93CF93DF93CDB7DEB7A9970FB6F894B9
:10180000DEBF0FBECDBF898F498B5A8B6B8B7C8B14
:101810000D8B1E8B2F8B388F0EAD1FAD22962EACED
:101820003FAC229724962EAD3FAD24973A87298767
:1018300026968EAD9FAD26979E878D87C701B601F0
:101840000E9453242B013C01C701B6010E9492263D
:1018500069837A838B839C83B501BB0C880B990BBE
:101860000E9402256D837E838F839887B401990C33
:10187000880B990B0E9402256B017C01B801110FA6
:10188000880B990B0E9402256A8F7B8F8C8F9D8F0E
:10189000B101330C880B990B0E9402256E8F7F8F4C
:1018A00088A399A329853A85B901330F880B990B31
:1018B0000E94022569877A878B879C872D853E85C4
:1018C000B901330F880B990B0E9402256D877E8723
:1018D0008F87988BA30192016D817E818F8198857E
:1018E0000E9425264B015C0129813A814B815C8154
:1018F000C701B6010E9425269B01AC01C501B401B8
:101900000E946F2329893A894B895C890E94702340
:101910000E94CA246AA37BA38CA39DA329813A8138
:101920004B815C816D817E818F8198850E94252607
:101930004B015C01A3019201C701B6010E9425265B
:101940009B01AC01C501B4010E9470232D893E8921
:101950004F89588D0E9470230E94CA246D837E8314
:101960008F839887A30192016A8D7B8D8C8D9D8DCD
:101970000E9425266B017C0129813A814B815C8183
:101980006E8D7F8D88A199A10E9425269B01AC01B7
:10199000C701B6010E946F2329893A894B895C8966
:1019A0000E9470230E94CA246EA37FA388A799A7D0
:1019B00029813A814B815C816A8D7B8D8C8D9D8DD7
:1019C0000E9425266B017C01A30192016E8D7F8D03
:1019D00088A199A10E9425269B01AC01C701B601EF
:1019E0000E9470232D893E894F89588D0E94702353
:1019F0000E94CA244B01A301920169857A858B85D7
:101A00009C850E9425266B017C0129813A814B81AE
:101A10005C816D857E858F8598890E9425269B0136
:101A2000AC01C701B6010E946F2329893A894B890D
:101A30005C890E9470230E94CA246B0129813A812B
:101A40004B815C8169857A858B859C850E942526E2
:101A500069837A838B839C83A30192016D857E8544
:101A60008F8598890E9425269B01AC0169817A8126
:101A70008B819C810E9470232D893E894F89588DCE
:101A80000E9470230E94CA242B01398D30FF09C0A7
:101A900094014EA15FA16D817E818AA19BA10E94CC
:101AA000D208898D81FF07C09201A601B4018EA1E1
:101AB0009FA10E94D208998D92FF20C02D813E8166
:101AC0004AA15BA1B201C601A9960FB6F894DEBF88
:101AD0000FBECDBFDF91CF911F910F91FF90EF907F
:101AE000DF90CF90BF90AF909F908F907F906F903E
:101AF0005F904F903F902F900C94D208A9960FB60C
:101B0000F894DEBF0FBECDBFDF91CF911F910F9133
:101B1000FF90EF90DF90CF90BF90AF909F908F900D
:101B20007F906F905F904F903F902F9008958F928D
:101B30009F92AF92BF920F931F93CF93DF93CDB736
:101B4000DEB7A1970FB6F894DEBF0FBECDBF19A2C6
:101B5000423008F44AE08E010F5D1F4F842E912C15
:101B6000B12CA12CA50194010E943E23E62FB901BE
:101B7000CA01EA3044F5E05DD801EE938D01232BD4
:101B8000242B252B79F790E080E0109769F0FD0178
:101B900001900020E9F73197AF014A1B5B0BBD01B3
:101BA00086E897E00E946B05A1960FB6F894DEBF19
:101BB0000FBECDBFDF91CF911F910F91BF90AF901E
:101BC0009F908F900895E95CD7CFCF92DF92EF92EC
:101BD000FF92CF93DF936C01990FEE08FF08F7FE99
:101BE00019C06DE286E897E00E947C09EC01662747
:101BF0007727CB016C197D098E099F094AE00E9465
:101C0000970D8C0F9D1FDF91CF91FF90EF90DF908C
:101C1000CF9008954AE0C701B601DF91CF91FF90C0
:101C2000EF90DF90CF900C94970DCF92DF92EF92D0
:101C3000FF926B017C01C114D104E104F10441F075
:101C40000E949E22A70196010E940C236B017C0139
:101C5000C701B601FF90EF90DF90CF9008950F93EA
:101C60001F93CF93DF9380910D0190910E01019707
:101C7000181619060CF051C090930E0180930D01B7
:101C800080E090E0A0E8B3E48093D7029093D8027C
:101C9000A093D902B093DA021092D3021092D40228
:101CA0001092D5021092D6021092E7021092E8022A
:101CB0001092E9021092EA021092E3021092E402FA
:101CC0001092E5021092E6021092DF021092E002FA
:101CD0001092E1021092E2021092760210928702B4
:101CE000109298021092A9021092BA02C0E3D2E0B8
:101CF00010E000E080912E0290912F020817190742
:101D00008CF568E770E080E090E00E94150E7D871A
:101D10006C870F5F1F4F2E96EDCF83E090E090937E
:101D20000E0180930D010E9491088AE090E090934B
:101D30007501809374018EE190E090936D01809322
:101D40006C014AE050E06CE471E086E897E00E94A4
:101D50006B050E94B10868E873E180E090E00E94A2
:101D6000A6048ECFE0E8F1E01082719682E0EA32BC
:101D7000F807D1F7DF91CF911F910F9108950C943F
:101D8000F6221F920F920FB60F9211242F933F93BA
:101D90008F939F93AF93BF938091EC029091ED024C
:101DA000A091EE02B091EF023091EB0223E0230FFD
:101DB0002D3758F50196A11DB11D2093EB0280939C
:101DC000EC029093ED02A093EE02B093EF028091AB
:101DD000F0029091F102A091F202B091F30201960B
:101DE000A11DB11D8093F0029093F102A093F20225
:101DF000B093F302BF91AF919F918F913F912F913B
:101E00000F900FBE0F901F90189526E8230F029693
:101E1000A11DB11DD2CF1F920F920FB60F921124A8
:101E20008F939F938091E1009091E100937F909335
:101E3000E10083FF0FC01092E90091E09093EB0066
:101E40001092EC0092E39093ED001092010398E061
:101E50009093F00082FF22C093E09093E90090916C
:101E6000F200992319F09AE39093E80090916901A8
:101E7000992341F0909169019150909369019111DA
:101E800001C05D9A90910003992341F09091000365
:101E9000915090930003911101C0289A84FF18C0BB
:101EA0008091E2008E7E81608093E2008091E1006B
:101EB0008F7E8093E10080916A018E7E80618093A5
:101EC0006A019F918F910F900FBE0F901F901895F0
:101ED00080FFF7CF8091E2008E7E80618093E200E8
:101EE0008091E1008E7E8093E10080916A018E7E78
:101EF0008160E5CF1F920F920FB60F921124CF92FF
:101F0000DF92EF92FF920F931F932F933F934F9384
:101F10005F936F937F938F939F93AF93BF93EF9351
:101F2000FF93CF93DF93CDB7DEB76C97DEBFCDBF06
:101F30001092E9008091E80083FF25C068E0CE019F
:101F400045960E945E0582EF8093E8008D8987FFA9
:101F500039C09091E80090FFFCCF982F907609F05F
:101F600034C19E894F89588D2F89F88C911131C0C9
:101F7000803861F580916B018093F1001092F1003F
:101F80008EEF8093E8006C960FB6F894DEBF0FBE1C
:101F9000CDBFDF91CF91FF91EF91BF91AF919F9115
:101FA0008F917F916F915F914F913F912F911F91F1
:101FB0000F91FF90EF90DF90CF900F900FBE0F909A
:101FC0001F9018959EEF9093E800C7CF1092F100F4
:101FD000D5CF913059F48111D3CF4130510581F6DD
:101FE00080916B018D7F80936B01CACF933049F450
:101FF0008111C6CF4130510519F680916B01826085
:10200000F2CF953041F48091E80080FFFCCF20684A
:102010002093E300B5CF963009F0A9C00B8D1C8D3D
:1020200022E01092E9001092670110926601F2120C
:102030002EC010926501109264010E942D051F822E
:1020400099E09983FA8291E09E8390EA98879AEFCB
:1020500099872091660130916701275F3F4F3C834C
:102060002B838D831092E900109267011092660114
:10207000109365010093640149E050E0BE016F5F79
:102080007F4F80E00E9407050E942D0579CF1093B5
:102090006501009364010E946D04DC0112960D91AC
:1020A0001C910115110509F451C1D801ED91FC9164
:1020B0000480F581E02DBE016B5E7F4FC80109955C
:1020C000009709F03EC1F80100851185EACFF3E0E1
:1020D000FF120EC08F89882309F440C0823061F45A
:1020E00040E867E08EE197E00E94AC11811148CF93
:1020F00081E28093EB0047CF813029F440E86BE028
:1021000082E197E0F1CF833099F70E946D04DC0102
:102110001296ED90FC908E010F5F1F4F6801E11445
:10212000F10479F0D701ED91FC910680F781E02D63
:10213000B801C7010995080F111DF701E084F1846A
:10214000EECFD8011C92F60101900020E9F73197FB
:10215000BF016C197D0940E0C601C6CF6CEF76E087
:10216000FB01449150E080E80E94070509CF9730B9
:1021700009F4BECF983021F481E08093F10000CFC4
:10218000993009F0FDCE837009F0B2CFECE1F1E0B7
:1021900081E031E096E32191222371F08093E90000
:1021A0003093EB00DF0111972C912093EC0090937A
:1021B000ED008F5F873079F78EE78093EA00109209
:1021C000EA008F8980930103DBCE8B8D9C8D10926A
:1021D000E900109267011092660190936501809367
:1021E0006401898D811192C08E899D89913A49F44B
:1021F000813209F07DCF47E050E064E071E080E09B
:10220000B3CF913209F074CF833269F48F89988DFE
:10221000B0E0A0E08093000190930101A09302013F
:10222000B0930301ADCE803269F48091E80082FF63
:10223000FCCF67E084E091E00E945E058BEF809325
:10224000E8009ECE823209F09BCE8F8980930B01ED
:10225000EEEFFFE7859194918B3F9C4D51F1E0E0CB
:10226000F8E08091040190910501A0910601B091E0
:102270000701803B9440A105B105F1F480910B0169
:1022800080FD1AC0EE3F8AE0F80789F587E797E7F7
:1022900091838083809160008093680188E19BE056
:1022A0000FB6F894A895809360000FBE90936000DD
:1022B00067CEEEEFFAE0D5CF8081918187379747DF
:1022C00009F05ECEA89580916000886180936000DF
:1022D0008091680180936000EE3F2AE0F20789F068
:1022E0008091FE0A9091FF0A9183808349CE80817C
:1022F00091818737980751F29093FF0A8093FE0AE5
:10230000C5CF1092FF0A1092FE0A3ACE0E946D04C9
:10231000DC0112960D911C910115110509F4E8CE0E
:10232000D801ED91FC910190F081E02DBE016B5E32
:102330007F4FC8010995811123CEF80100851185D1
:10234000EBCF181619060CF41BCED2CEF1E0FF121B
:10235000BECE60E077E004CFEF92FF920F931F9321
:10236000CF93DF93F82E192FE62E042F81E0860FEE
:10237000880F0E94D90483E00E94D904CF2DD12F69
:10238000EC0EFD2EF11CCE15DF05B9F007FF13C0D2
:10239000FE0184910E94D904182F80E00E94D90484
:1023A000812321968111EFCFDF91CF911F910F9162
:1023B000FF90EF9008958881EDCF81E0F5CFE2E0C6
:1023C000F7E01382128288EE93E0A0E0B0E084830D
:1023D0009583A683B78386E291E0918380838FEF14
:1023E0009FEF95878487E6E8F7E01382128284E402
:1023F00091E091838083ECE7F7E01382128288E317
:1024000091E09183808388E0818781E080871582D5
:10241000168214828783E2E5F7E084EC99E09587E1
:102420008487938F828F91A780A70895CF93DF939E
:10243000CDB7DEB7A5970FB6F894DEBF0FBECDBF00
:10244000789484B5826084BD84B5816084BD85B58F
:10245000826085BD85B5816085BD80916E0081609B
:1024600080936E0010928100809181008260809341
:102470008100809181008160809381008091800043
:1024800081608093800080919100826080939100B0
:102490008091910081608093910080919000816093
:1024A000809390008091C10084608093C1008091EE
:1024B000C10082608093C1008091C10081608093DF
:1024C000C1008091C30081608093C3008091C000EF
:1024D00082608093C0008091C20081608093C200BE
:1024E00080917A00846080937A0080917A00826083
:1024F00080937A0080917A00816080937A00809145
:102500007A00806880937A001092010310926B0128
:1025100010926A018091D70081608093D70080EA91
:102520008093D80089B5806189BD89B5826089BDF5
:1025300009B400FEFDCF61E070E080E090E00E9411
:10254000A6048091D8008F7C80618093D800809110
:10255000E000807F8093E0008091E1008E7E809398
:10256000E1008DE08093E200559A209A8FEF9FEF73
:1025700090930F0780930E0760ED77E080E090E086
:102580000E94A60481EC80937C0085B1806F85B9A0
:1025900084B1877E84B984B1876E84B95E9A5F986E
:1025A0008AB1806D8AB9769A6E9881B3806F81BB4B
:1025B000899880B38D7080BB80E58CBD81E08DBD36
:1025C00085E090E00E9484085F9A85E090E00E9498
:1025D00084085E985C98E6EDF7E083EE97E024913E
:1025E0002EBD00000DB407FEFDCF31968E179F075C
:1025F000B1F75C9A81E88093640080916500816006
:10260000809365000E94B10880E80E94A608882394
:10261000A9F05C9885EA8EBD00000DB407FEFDCFE1
:102620005C9A2E982F982D988091640080628093F8
:10263000640081E083BF889513BEFCCF84E00E94D4
:10264000A608882309F448C02D9884E80E94A608AB
:102650008823E1F00E94820888EC90E00E948408C0
:102660002F9882E090E00E94F6228F3F29F06FEFD2
:1026700082E090E00E94FE2284EF91E00E948408B4
:102680002F9A84E80E94A6088111FBCF84E10E9462
:10269000A6088823E1F00E94820888EC90E00E945E
:1026A00084082E9882E090E00E94F622882329F088
:1026B00060E082E090E00E94FE2284EF91E00E94C0
:1026C00084082E9A84E10E94A6088111FBCF88EC31
:1026D00090E00E948408B2CF0E94820882E090E0DD
:1026E0000E94BF0E882309F484C33E9A3F9A81E07A
:1026F00090E00E94BF0E282F2470722E81FF15C01B
:1027000021112E9861EF262E33243A9408E010E030
:102710007CE6E72EF12C80E40E94A608882309F4C9
:102720006BC32E9A2F9A0E94820882E390E00E9447
:1027300084080E9489088111F8CF80E180930C0100
:10274000E3EEF7E0E49190917B008E2F880F880FE5
:1027500080729F7D892B80937B00E770E064E0931B
:102760007C0080917A00806480937A0080917A0066
:1027700086FDFCCF6091780070917900072E000CE7
:10278000880B990B611571058105910511F00E9467
:10279000ED2280E790E00E943B278C019E838D8391
:1027A0001C01712C612C6BE070E080E090E00E94D5
:1027B000150E6550710981099109660D771D77FF26
:1027C000EDC368597E4F072E000C880B990B0E94B1
:1027D000022525E33AEF4EE85CE30E9425264B01F3
:1027E0005C0161E177E280E090E00E94150E0E94BA
:1027F000022520E030E44CE156E40E94582420E019
:1028000030E044EB52E40E94252620E030E044EB27
:1028100052E40E9470236B017C01C501B4010E9447
:102820005324A70196010E94252669837A838B830E
:102830009C83C501B4010E949226A70196010E94C3
:1028400025266B017C0161E177E280E090E00E9447
:10285000150E0E94022520E030E44CE156E40E946F
:10286000582420E030E040E850E40E94252620E093
:1028700030E040E050E40E946F2329813A814B818F
:102880005C810E9470234B015C0161E177E280E092
:1028900090E00E94150EF10180829182A282B382A3
:1028A0000E94022520E030E44CE156E40E945824C6
:1028B00020E030E040E850E40E94252620E030E0AF
:1028C00040E050E40E946F23A70196010E9470230C
:1028D000D10114966D937D938D939C931797B9E1D5
:1028E0006B0E711CE8E02E0E311CFEE56F16F1E058
:1028F0007F0609F058CF580120E7A20EB11CC12C69
:10290000D12C760126013701AD81BE812D913D91FB
:102910004D915C91C301B2010E9470232B013C01D7
:10292000ED81FE812481358146815781C701B60141
:102930000E9470236B017C012D813E81285F3F4FF7
:102940003E832D83A216B306F9F620E030E040E680
:1029500051E4C301B2010E9458240E94CA2470931A
:10296000DE026093DD0220E030E040E651E4C70182
:10297000B6010E9458240E94CA247093DC0260931E
:10298000DB0210932D0200932C0210926F01109223
:102990006E0103E010E06EE070E080E090E00E94E5
:1029A000150E40912C0250912D025A874987FB0148
:1029B000A3E0EE0FFF1FAA95E1F7E40FF51F2081BA
:1029C0003181428153812D833E834F8358872481F7
:1029D00035814681578129833A834B835C83CB01C0
:1029E00001966EE070E00E940D27B3E0880F991FFA
:1029F000BA95E1F749855A85480F591F5A87498783
:102A00002D813E814F815885A985BA856D917D9133
:102A10008D919C910E946F232B013C0129813A8169
:102A20004B815C81E985FA85648175818681978116
:102A30000E946F236B017C01A30192010E94EF238E
:102A400069877A878B879C870E949E2220E137E2E4
:102A500040E050E00E940C230E94022520E030E478
:102A60004CE156E40E9458244B015C0120906E0119
:102A700030906F014EE0429D9001439D300D112436
:102A80002E5A384F3E872D87AC019B01C301B201FE
:102A90000E9425262D813E814F8158850E947023FA
:102AA00020E030E040E853E40E947023AD85BE850D
:102AB0006D937D938D939C931397A5019401C7010A
:102AC000B6010E94252629813A814B815C810E94B2
:102AD000702320E030E040E853E40E947023ED854D
:102AE000FE8564837583868397832BED3FE049ECF5
:102AF0005FE369857A858B859C850E947023AD850F
:102B0000BE8518966D937D938D939C931B97BFEF15
:102B10002B1A3B0A30926F0120926E01015011096D
:102B200009F039CF10922F0210922E0255E0252E77
:102B3000312C0EE010E06EE070E080E090E00E944A
:102B4000150EE0912C02F0912D02FA87E987FB0126
:102B500033E0EE0FFF1F3A95E1F729853A85E20F42
:102B6000F31F20813181428153812D833E834F8326
:102B70005887248135814681578129833A834B8345
:102B80005C83CB010196B8010E940D2743E0880FBA
:102B9000991F4A95E1F749855A85480F591F5A8769
:102BA00049872D813E814F815885A985BA856D91D0
:102BB0007D918D919C910E946F232B013C01298175
:102BC0003A814B815C81E985FA85648175818681D2
:102BD00097810E946F236B017C01A30192010E94E7
:102BE000EF2369877A878B879C870E949E2220E14A
:102BF00037E240E050E00E940C230E94022520E0D2
:102C000030E44CE156E40E9458244B015C01809171
:102C10002E0290912F024EE0489F9001499F300D67
:102C20001124205D3D4F3E872D87A5019401C301EE
:102C3000B2010E9425262D813E814F8158850E9438
:102C4000702320E030E040E853E40E947023AD851B
:102C5000BE856D937D938D939C931397A5019401ED
:102C6000C701B6010E94252629813A814B815C81EA
:102C70000E94702320E030E040E853E40E9470237B
:102C8000ED85FE8564837583868397832BED3FE016
:102C900049EC5FE369857A858B859C850E9470236A
:102CA000AD85BE8518966D937D938D939C931B97F0
:102CB00068E770E080E090E00E94150E20912E02FF
:102CC00030912F02BEE0B29FF001B39FF00D1124AE
:102CD000E05DFD4F75876487C901019690932F02CF
:102CE00080932E02E1E02E1A310809F024CFE0E8AB
:102CF000F1E01082719622E0EA32F207D1F760E04B
:102D000072E080E090E00E94150E0E940225609320
:102D1000760170937701809378019093790160E058
:102D200072E080E090E00E94150E0E940225609300
:102D30007A0170937B0180937C0190937D0162E026
:102D400070E080E090E00E94150E70937F01609328
:102D50007E0180E090E0A0E8B3E48093D7029093F6
:102D6000D802A093D902B093DA021092D302109243
:102D7000D4021092D5021092D6021092E70210925D
:102D8000E8021092E9021092EA021092E302109215
:102D9000E4021092E5021092E6021092DF02109215
:102DA000E0021092E1021092E2021092760210927A
:102DB0008702109298021092A9021092BA028FB75D
:102DC000F8944091EC025091ED026091EE02709106
:102DD000EF028FBF309172013BA3332309F4E6C0A9
:102DE0001092720180E090E0892B49F30E9400006C
:102DF000E6CF3E983F987BCC772031F034E0231625
:102E0000310411F42E9A2F9881E00E94230491013D
:102E100037FE04C0222733272219330927703327AE
:102E2000C10137FC079653E0959587955A95E1F7D0
:102E300037FE05C00197A801421B530B9A01BC0144
:102E40007695762F6627779567956E5F7C4FB0E015
:102E5000A0E02801421A530A8E3F5FEF950709F45C
:102E600046C048E550E0FD01E258F84F5F014B01D4
:102E7000F0E88F0E911C8F3F9807C9F0F501E41B15
:102E8000F50B64906701C41AD50AC60ED71EE62D4D
:102E9000F0E0022E02C0EE0FFF1F0A94E2F7FE835D
:102EA000ED83F6016080FD816F2AF60160822115B5
:102EB0003105C9F0F501E41BF50B64906701C41AF4
:102EC000D50AC80CD91CE62DF0E0042C02C0F595FB
:102ED000E7950A94E2F7FE83ED83F6016080FD81B9
:102EE0006F2AF60160824150510909F0C4CF019662
:102EF000A85ABF4F60587F4FA03BB10509F0ACCF37
:102F00000E94B1088FE090E00E948408FFEF2F1A22
:102F10003F0A29E12216310409F0FDCB772011F098
:102F20002F9A2D9880E991E00E9484080E948208DF
:102F300081E090E00E94BF0E80FFF7CB8AE090E036
:102F40000E94BF0E9FEF980F9E3F08F0EECB22E34A
:102F500030E0309375012093740128E330E0309322
:102F60006D0120936C014BE050E05A834983682F38
:102F700086E897E00E947C0989819A810E94BF0EB1
:102F8000A981BA811196BA83A983519781F70E94CA
:102F9000B10888EE93E00E948408C7CB6836B1E0A0
:102FA0007B070CF410CC685671400DCC80917301F6
:102FB000942F981B892F90910C01891748F48F5FEB
:102FC000891708F00FCF81E083BF889513BE0ACF21
:102FD00081E0809372014093730180917001909120
:102FE000710101969093710180937001A0912B0261
:102FF000A98BA0932A020E9489088D8780932B02B7
:103000000E94910880E20E94A6088823B1F02DEC6E
:103010003CEC4CEC5DE36091E7027091E80280913A
:10302000E9029091EA020E946F236093E702709395
:10303000E8028093E9029093EA0280E40E94A608E5
:103040008823B1F02DEC3CEC4CEC5DE36091E702A1
:103050007091E8028091E9029091EA020E94702347
:103060006093E7027093E8028093E9029093EA028A
:1030700088E00E94A608882309F453C08090DF02EC
:103080009090E002A090E102B090E2022BED3FE0D0
:1030900049EC5FE36091E7027091E8028091E902F8
:1030A0009091EA020E946F236B017C010E945324DD
:1030B0002DEC3CEC4CEC5DE30E9425269B01AC0121
:1030C0006091E3027091E4028091E5029091E60242
:1030D0000E9470236093E3027093E4028093E50200
:1030E0009093E602C701B6010E9492262DEC3CECBB
:1030F0004CEC5DE30E942526A50194010E947023FB
:103100006093DF027093E0028093E1029093E20209
:1031100080910F019091100101979093100180937D
:103120000F012091D7023091D8024091D9025091DD
:10313000DA0229833A834B835C836091DD027091CC
:10314000DE027395072E000C880B990B0E94022556
:1031500029813A814B815C810E946F234B015C0184
:103160008091D3029091D402A091D502B091D60261
:103170008D839E83AF83B8876091DB027091DC0200
:103180007395072E000C880B990B0E9402252D8148
:103190003E814F8158850E946F236B017C01A50100
:1031A0009401C501B4010E9425262B013C01A70111
:1031B0009601C701B6010E9425269B01AC01C301FF
:1031C000B2010E9470230E94A0262B013C0120E046
:1031D00030E0A9010E941826181684F4A301920178
:1031E000C501B4010E9458244B015C01A301920166
:1031F000C701B6010E9458246B017C012AE037ED1B
:1032000043E25CE3C501B4010E9425262091E3025C
:103210003091E4024091E5025091E6020E94702351
:1032200069877A878B879C872AE037ED43E25CE3E6
:10323000C701B6010E9425262091DF023091E002ED
:103240004091E1025091E2020E9470232B013C0167
:1032500029853A854B855C8569817A818B819C8142
:103260000E9470234B015C018092D7029092D80299
:10327000A092D902B092DA02A30192016D817E81FF
:103280008F8198850E9470236B017C01C092D302CC
:10329000D092D402E092D502F092D60224EA30E72E
:1032A0004DE75FE369857A858B859C850E9425269D
:1032B0006093E3027093E4028093E5029093E60248
:1032C00024EA30E74DE75FE3C301B2010E942526FF
:1032D0006093DF027093E0028093E1029093E20238
:1032E00020E030E0A901C501B4010E944E2487FF0F
:1032F00008C01092D7021092D8021092D9021092F0
:10330000DA0220E030E040E054E46091D7027091AE
:10331000D8028091D9029091DA020E9418261816DC
:1033200064F480E090E0A0E0B4E48093D70290934E
:10333000D802A093D902B093DA0220E030E0A901CC
:10334000C701B6010E944E2487FF08C01092D30225
:103350001092D4021092D5021092D60220E030E0F2
:1033600040E054E46091D3027091D4028091D50280
:103370009091D6020E941826181664F480E090E01E
:10338000A0E0B4E48093D3029093D402A093D5023A
:10339000B093D6022091D7023091D8024091D90241
:1033A0005091DA022D833E834F83588720E030E02E
:1033B00040E852E46D817E818F8198850E946F2361
:1033C0004B015C018092CF029092D002A092D10278
:1033D000B092D2028091D3029091D402A091D502F2
:1033E000B091D60289879A87AB87BC8720E030E00E
:1033F00040E052E4BC01CD010E946F236B017C01CF
:10340000C092CB02D092CC02E092CD02F092CE02DA
:1034100020E030E0A901C501B4010E944E2487FFDD
:1034200008C01092CF021092D0021092D1021092D6
:10343000D20220E030E040EC53E46091CF02709182
:10344000D0028091D1029091D2020E9418261816C3
:1034500064F480E090E0A0ECB3E48093CF0290931A
:10346000D002A093D102B093D20220E030E0A901B3
:10347000C701B6010E944E2487FF08C01092CB02FC
:103480001092CC021092CD021092CE0220E030E0D9
:1034900040EE53E46091CB027091CC028091CD025A
:1034A0009091CE020E941826181664F480E090E0F5
:1034B000A0EEB3E48093CB029093CC02A093CD0214
:1034C000B093CE02998992FD4AC0AD85A2FF47C054
:1034D000E6E7F2E050E040E020812111C5C16091B3
:1034E000E7027091E8028091E9029091EA0221E1FD
:1034F000249FF001259FF00D1124EA58FD4FFA8317
:10350000E98321E020832D813E814F8158852183ED
:1035100032834383548329853A854B855C85258393
:103520003683478350872BED3FE049EC5FE30E94F1
:103530006F236B017C010E945324E981FA8161872A
:10354000728783879487C701B6010E949226A9815A
:10355000BA811D966D937D938D939C935097E6E76A
:10356000F2E0F88FEF8B1F01D1018C91882309F4D1
:1035700050C019962D913D914D915C911C971196DB
:103580006D917D918D919C9114970E9470234B01B8
:103590005C01F10181829282A382B4822585368505
:1035A0004785508965817681878190850E94702347
:1035B0006B017C01D1011596CD92DD92ED92FC92CA
:1035C000189720E030E0A901C501B4010E944E2403
:1035D00087FD1DC020E030E040E054E4C501B401A7
:1035E0000E94182618169CF020E030E0A901C701BF
:1035F000B6010E944E2487FD0AC020E030E040E082
:1036000054E4C701B6010E941826181614F4F101FB
:103610001082F1E12F0E311C2BEC32E02215330524
:1036200009F0A2CF46E752E05A834983A981BA81C3
:103630008C91882309F454C019962D913D914D9198
:103640005C911C9711966D917D918D919C91149731
:103650000E9470234B015C01E981FA818182928290
:10366000A382B48225853685478550896581768118
:10367000878190850E9470236B017C01A981BA81AA
:103680001596CD92DD92ED92FC92189720E030E0F5
:10369000A901C501B4010E944E2487FD1EC020E08F
:1036A00030E040E054E4C501B4010E941826181629
:1036B000A4F020E030E0A901C701B6010E944E2429
:1036C00087FD0BC020E030E040E054E4C701B601C4
:1036D0000E94182618160CF0CFC0E981FA811082DA
:1036E00089819A8141969A8389838215930509F08D
:1036F0009DCFA0912E02B0912F02BA8BA98BE0E34F
:10370000F2E0FE87ED878F011E8A1D8A29893A899A
:103710004D895E89421753070CF02AC1D8011C96C7
:103720008D919C911D970197181619060CF41BC1D9
:10373000E8E7F0E01D96FC93EE931C97E0E8F1E0DB
:10374000312C212C8081811104C1D8011496CD9097
:10375000DD90ED90FC9017972D913D914D915C91EE
:10376000B1E1B29DF001B39DF00D1124E058FE4F80
:1037700081E080832183328343835483C582D68250
:10378000E782F0866D817E818F8198850E946F230C
:103790002B013C01A701960169857A858B859C8563
:1037A0000E946F234B015C01A3019201C301B2018E
:1037B0000E9425266B017C01A5019401C501B4017D
:1037C0000E9425269B01AC01C701B6010E9470230F
:1037D0000E94A0266B017C012FE632E143E85AE308
:1037E0000E944E2487FF08C02FE6C22E22E1D22E6F
:1037F00023E8E22E2AE3F22EE1E1E29DD001E39DEF
:10380000B00D1124A058BE4FBC8FAB8FA7019601FD
:10381000C301B2010E94582420E030E040E05FE3A1
:103820000E942526AB8DBC8D19966D937D938D934B
:103830009C931C97A7019601C501B4010E945824CE
:1038400020E030E040E05FE30E942526EB8DFC8D18
:10385000658776878787908BED89FE893196FE8B09
:10386000ED8B025F1F4F52CF4F5F5F4F7196453018
:10387000510509F031CE73CE20E332E03A8B298B2B
:1038800010E000E0A989BA892D913D914D915C919C
:10389000C501B4010E946F232B013C01E989FA891B
:1038A0002481358146815781C701B6010E946F236B
:1038B0006D877E878F87988BA3019201C301B20128
:1038C0000E9425262B013C012D853E854F85588978
:1038D000CA01B9010E9425269B01AC01C301B201B6
:1038E0000E94702320E030E040EB51E40E944E241F
:1038F00087FF22C0A981BA811C9280912E029091EB
:103900002F02019790932F0280932E02EEE0E09F0A
:10391000D001E19FB00D1124A05DBD4F2EE0289F86
:10392000F001299FF00D1124E05DFD4F8EE0019024
:103930000D928A95E1F7D4CE0F5F1F4F49895A89BE
:10394000425F5F4F5A8B498B0530110509F09ACFC2
:10395000C7CE2FEF221A320A71963AE023163104AD
:1039600009F0F0CE79CF1D969C938E931C9774CF5F
:1039700090E8292E91E0392ED1018C91882309F409
:1039800069C04090D7025090D8026090D9027090E0
:10399000DA022091D3023091D4024091D5025091A5
:1039A000D6022D833E834F83588719962D913D91E2
:1039B0004D915C911C9711966D917D918D919C918B
:1039C00014970E9470234B015C01D10111968D92D6
:1039D0009D92AD92BC9214971D962D913D914D9163
:1039E0005C91509715966D917D918D919C91189752
:1039F0000E9470236B017C01F101C582D682E782AF
:103A0000F08620E030E0A901C501B4010E944E24F7
:103A100087FD1EC020E030E040E054E4C501B40161
:103A20000E9418261816A4F020E030E0A901C70172
:103A3000B6010E944E2487FD0BC020E030E040E03C
:103A400054E4C701B6010E94182618160CF0DBC01A
:103A5000D1011C92F1E12F0E311C2AE2221622E044
:103A6000320609F089CF1A8A198AC0907601D0905F
:103A70007701E0907801F090790180907A01909040
:103A80007B01A0907C01B0907D018091CF0290914C
:103A9000D002A091D102B091D2028D839E83AF83D8
:103AA000B8872091CB023091CC024091CD02509149
:103AB000CE0229873A874B875C8749895A894130EA
:103AC000510509F4D3C020E030E040E05FE3BC01E1
:103AD000CD010E9425269B01AC01C701B6010E94C1
:103AE0006F230E94CA246B017E8B6D8B20E030E037
:103AF00040E05FE369857A858B859C850E94252659
:103B00009B01AC01C501B4010E946F230E94CA242D
:103B10003B01DC8ECB8ED601A038B10508F02CC25B
:103B200077FD2FC2603471050CF030C240917E01E8
:103B300050917F01FA01FF27FA87E987440F4F5F11
:103B40006E1B7F0BC6010E945609EE24E394F12CF4
:103B500029853A85E21AF30AD12CC12CC21AD30A5C
:103B6000CC0CDD1C09891A8944244394512C41E072
:103B700050E05A8B498B89859A85081719070CF0F4
:103B800074CFF7FC08C001979A87898792E0C90E25
:103B9000D11CEC0CFD1C0F5F1F4FA2E04A0E511C04
:103BA000E40CF51C8985880F8F5F8D83482F5301A6
:103BB000E985FA85AE1ABF0AB5018B8D9C8D800F01
:103BC000911F0E9456094301801A910A442DB401A5
:103BD0008D899E8929853A85820F931F0E945609F7
:103BE0004D81B5018B8D9C8D801B910B0E945609D8
:103BF000442DB4018D899E89A985BA858A1B9B0BAA
:103C00000E945609B8CFA3019201C501B4010E94D8
:103C10006F234B015C012D813E814F815885C70187
:103C2000B6010E946F236B017C01A5019401C501BF
:103C3000B4010E9425264B015C01A7019601C70132
:103C4000B6010E9425269B01AC01C501B4010E946A
:103C5000702320E030E048EC51E40E944E2487FFBE
:103C6000F9CE0E942F0EF1011082F4CEE0E8F1E0CF
:103C7000FA8BE98BA989BA898C91882311F129855E
:103C80003A854B855C8515966D917D918D919C91C2
:103C900018970E946F230E94CA246B012D813E81D8
:103CA0004F815885E989FA89618172818381948184
:103CB0000E946F230E94CA24CB0141E0B6010E94FA
:103CC000B40829893A892F5E3F4F3A8B298B2216F7
:103CD000330681F620902C0230902D0220E030E057
:103CE00040E853E4D1016D917D918D919C910E94AA
:103CF00070232D813E814F8158850E946F230E9441
:103D0000CA243B0120E030E040E853E4F101648143
:103D10007581868197810E94702329853A854B851C
:103D20005C850E946F230E94CA248B013E8A2D8AE3
:103D30002101F8E64F0E511C3A8A298A20E030E032
:103D400040E853E4A989BA8918966D917D918D91C7
:103D50009C911B970E9470232D813E814F81588535
:103D60000E946F230E94CA246B0120E030E040E8EB
:103D700053E4E989FA8964857585868597850E946B
:103D8000702329853A854B855C850E946F230E94AC
:103D9000CA244B019B01A601B801C3010E94D208AD
:103DA00029893A89285F3F4F3A8B298B3601840154
:103DB0004216530619F620E030E040E853E4D10102
:103DC00014966D917D918D919C9117970E9470230F
:103DD00029853A854B855C850E946F230E94CA2401
:103DE0002B0120E030E040E853E4F1016081718173
:103DF000828193810E9470232D813E814F8158855D
:103E00000E946F230E94CA249201AB01B401C60133
:103E10000E94D2081DA21CA280902E0290902F0218
:103E20002CA13DA1281539050CF4B5C042E557E099
:103E30005DA34CA31E861D864D855E8548155905DC
:103E40000CF047C12BED3FE049EC5FE3ACA1BDA115
:103E500018966D917D918D919C911B970E94702376
:103E60005B016C010E9453242B013C01C601B5018A
:103E70000E949226698B7A8B8B8B9C8B29853A8545
:103E80004B855C85ECA1FDA164817581868197815C
:103E90000E946F236B8F7C8F8D8F9E8F20E030E090
:103EA000A90169897A898B899C890E9425266F8F4F
:103EB00078A389A39AA320E030E040E050ECC3014E
:103EC000B2010E9425269B01AC016F8D78A189A1CA
:103ED0009AA10E9470239B01AC016B8D7C8D8D8D0E
:103EE0009E8D0E9470236B8F7C8F8D8F9E8F2D8176
:103EF0003E814F815885ACA1BDA16D917D918D9181
:103F00009C910E946F236F8F78A389A39AA320E0CE
:103F100030E0A901C301B2010E9425262B013C011A
:103F200029893A894B895C89CA01B9010E947023A9
:103F30009B01AC01C301B2010E9470239B01AC0143
:103F40006F8D78A189A19AA10E947023E12CF12C98
:103F500000E810E42B8D3C8D4D8D5E8D0E94770A1C
:103F6000ED85FE853196FE87ED872CA13DA1225F70
:103F70003F4F3DA32CA360CF20E831E03A8B298B43
:103F800079CE40E851E05A8B498B74CE80E891E0BD
:103F90009A8B898B6FCE2BED3FE049EC5FE3AD85CB
:103FA000BE8518966D917D918D919C911B970E9475
:103FB0006F235B016C010E945324698B7A8B8B8B7E
:103FC0009C8BC601B5010E9492266B8F7C8F8D8FD2
:103FD0009E8F29853A854B855C85ED85FE856481BC
:103FE0007581868197810E946F236F8F78A389A343
:103FF0009AA320E030E0A9016B8D7C8D8D8D9E8D84
:104000000E9425262B013C0120E030E040E850ECE6
:1040100069897A898B899C890E9425269B01AC013C
:10402000C301B2010E9470239B01AC016F8D78A186
:1040300089A19AA10E9470232B013C012D813E8110
:104040004F815885AD85BE856D917D918D919C91F7
:104050000E946F236F8F78A389A39AA320E030E09A
:10406000A90169897A898B899C890E942526698B97
:104070007A8B8B8B9C8B20E030E040E850E46B8D9A
:104080007C8D8D8D9E8D0E9425269B01AC016989BA
:104090007A898B899C890E9470239B01AC016F8D6A
:1040A00078A189A19AA10E947023E12CF12C00E053
:1040B00011E4A30192010E94770AECA1FDA13196BF
:1040C000FDA3ECA32D853E85225F3F4F3E872D87C4
:1040D000A3CEAF89B88D8C91882311F129853A85BB
:1040E0004B855C8515966D917D918D919C9118976E
:1040F0000E946F230E94CA246B012D813E814F8153
:104100005885EF89F88D61817281838194810E9445
:104110006F230E94CA24CB0141E0B6010E94B4087B
:104120002F89388D2F5E3F4F388F2F8B49815A81D1
:104130004217530771F68091D7029091D802A0914F
:10414000D902B091DA028D879E87AF87B88B2D8117
:104150003E814F815885BC01CD010E946F23698348
:104160007A838B839C832091D3023091D402409137
:10417000D5025091D6022F8B388F498F5A8F2985BF
:104180003A854B855C856F89788D898D9A8D0E94E3
:104190006F236D837E838F8398874090E7025090D2
:1041A000E8026090E9027090EA021F921F921F924B
:1041B00035E03F931F921F924FEF4F935BEF5F935A
:1041C0004BEF842E99249A94B12CA12C7301620197
:1041D0000D811E812F81388549815A816B817C81B7
:1041E00085E090E00E94E90B1F921F921F921F92A0
:1041F0001F9281E08F939FEF9F93ABEFAF9353E0BC
:10420000852E912C6DEFA62EBB24BA940D811E81B4
:104210002F81388549815A816B817C8185E090E0CE
:104220000E94E90B1F921F921F921F921F92B1E0F2
:10423000BF931F92E5E0EF9373E0A72EB12C0D81A1
:104240001E812F81388549815A816B817C8185E06F
:1042500090E00E94E90B88E00E94A6080FB6F8944F
:10426000DEBF0FBECDBF882301F11F9283E08F9385
:104270001F9282E08F931F9287E08F931F921F926D
:104280003EEFA32EBB24BA940D811E812F81388569
:1042900049815A816B817C8183E090E00E94E90B27
:1042A0000FB6F894DEBF0FBECDBF80E10E94A60816
:1042B000882321F11F9289E18F931F928FE08F93C2
:1042C0001F921F921F921F9299E1892E912C21EF2C
:1042D000A22EBB24BA94730162010D811E812F812D
:1042E000388549815A816B817C8183E090E00E940E
:1042F000E90B0FB6F894DEBF0FBECDBFADE0B0E066
:10430000BA83A98310E000E0ED89FE89C080D180E6
:10431000E280F38020E030E040E853E4648175817E
:10432000868197810E9470234B015C0129813A812B
:1043300083E0220F331F8A95E1F7220D331D3A8364
:104340002983D9014D905D906D907C90139720E06A
:1043500030E040E853E414966D917D918D919C91ED
:1043600017970E94702369837A838B839C83A501AE
:1043700094016F89788D898D9A8D0E944E24881FB3
:104380008827881F8D8329813A814B815C816F89C1
:10439000788D898D9A8D0E944E24881F8827881FCA
:1043A000BD81B81709F448C020E030E040E853E48C
:1043B000C701B6010E9470236B017C0120E030E050
:1043C00040E853E4C301B2010E947023A7019601A3
:1043D0000E946F232B013C01A50194016F89788D08
:1043E000898D9A8D0E946F239B01AC01C301B2019C
:1043F0000E9425262B013C01A501940169817A8147
:104400008B819C810E946F239B01AC01C301B2018F
:104410000E945824A70196010E9470239B01AC01C1
:104420006D857E858F8598890E944E2487FF04C004
:10443000EBA1F1E0EF27EBA3C80101962D893E899E
:10444000285F3F4F3E8B2D8B1A8309838E30910559
:1044500039F53BA1332351F04BE050E067E571E0C3
:1044600086E897E00E946B050E942F0E80910D0157
:1044700090910E010E94E50D40E450E050937501CB
:104480004093740180910F01909110010E94E50DFD
:1044900010927501109274010E94B1080C94F216EA
:1044A0008C0132CF8F929F92AF92BF92CF92DF92C8
:1044B000EF92FF92CF93DF93EC01688179818A813B
:1044C0009B81611571058105910521F464E279ED07
:1044D0008BE597E02DE133EF41E050E00E940C23A3
:1044E00049015A019B01AC01A7EAB1E40E942B23C8
:1044F0006B017C01ACEEB4EFA50194010E9439235D
:10450000C60ED71EE81EF91EF7FE06C081E0C81AC7
:10451000D108E10880E8F80AC882D982EA82FB82E1
:10452000C701B6019F77DF91CF91FF90EF90DF90A9
:10453000CF90BF90AF909F908F9008958F929F9251
:10454000AF92BF92CF92DF92EF92FF9260911101F2
:104550007091120180911301909114016115710500
:104560008105910521F464E279ED8BE597E02DE179
:1045700033EF41E050E00E940C2349015A019B01B6
:10458000AC01A7EAB1E40E942B236B017C01ACEEE5
:10459000B4EFA50194010E943923C60ED71EE81E70
:1045A000F91EF7FE06C081E0C81AD108E10880E8CC
:1045B000F80AC0921101D0921201E0921301F09218
:1045C0001401C701B6019F77FF90EF90DF90CF9065
:1045D000BF90AF909F908F9008956093110170935A
:1045E000120180931301909314010895F999FECF5D
:1045F00092BD81BDF89A992780B50895262FF99923
:10460000FECF1FBA92BD81BD20BD0FB6F894FA9AB5
:10461000F99A0FBE01960895052E97FB1EF400949B
:104620000E94232357FD07D00E943E2307FC03D09E
:104630004EF40C94232350954095309521953F4F8F
:104640004F4F5F4F089590958095709561957F4F7E
:104650008F4F9F4F08950E946023A59F900DB49F98
:10466000900DA49F800D911D11240895B7FF0C9407
:104670002B230E942B23821B930B0895A1E21A2E59
:10468000AA1BBB1BFD010DC0AA1FBB1FEE1FFF1FF6
:10469000A217B307E407F50720F0A21BB30BE40B46
:1046A000F50B661F771F881F991F1A9469F760958D
:1046B0007095809590959B01AC01BD01CF01089547
:1046C000A29FB001B39FC001A39F700D811D112453
:1046D000911DB29F700D811D1124911D0895505898
:1046E000BB27AA270E9487230C94CA250E949125E4
:1046F00038F00E94982520F039F49F3F19F426F4F1
:104700000C9467250EF4E095E7FB0C946125E92FE6
:104710000E94EF2558F3BA176207730784079507BD
:1047200020F079F4A6F50C9411260EF4E0950B2EEA
:10473000BA2FA02D0B01B90190010C01CA01A001F3
:104740001124FF27591B99F0593F50F4503E68F14E
:104750001A16F040A22F232F342F4427585FF3CF8F
:10476000469537952795A795F0405395C9F77EF460
:104770001F16BA0B620B730B840BBAF09150A1F0A9
:10478000FF0FBB1F661F771F881FC2F70EC0BA0F2F
:10479000621F731F841F48F4879577956795B795B7
:1047A000F7959E3F08F0B0CF9395880F08F09927B2
:1047B000EE0F9795879508950E94912560F080E807
:1047C00091E009F49EEF0E94982528F040E851E01E
:1047D00071F45EEF0CC00C9467250C941126E92F40
:1047E000E0780E94EF2540F3092E052AB1F3261741
:1047F00037074807590738F00E2E07F8E02569F00B
:10480000E025E0640AC0EF6307F8009407FADB01D3
:10481000B9019D01DC01CA01AD01EF930E946F2433
:104820000E94CA250E941F245F91552339F02BED69
:104830003FE049E450FD49EC0C9470230895DF9368
:10484000DD27B92FBF7740E85FE316161706480744
:104850005B0718F4D92F0E941D269F938F937F9397
:104860006F930E94E026ECEAF0E00E946A250E9425
:10487000CA252F913F914F915F910E943826DD23E9
:1048800051F09058A2EA2AED3FE049EC5FE3D0787E
:104890005D270E948723DF910C94CA250E943D2545
:1048A00008F481E008950E94A125E3950C94DB258E
:1048B0000E946C240C94CA250E94982558F00E94EE
:1048C000912540F029F45F3F29F00C9461255111A6
:1048D0000C9412260C9467250E94EF2568F3992307
:1048E000B1F3552391F3951B550BBB27AA276217EC
:1048F0007307840738F09F5F5F4F220F331F441FF9
:10490000AA1FA9F335D00E2E3AF0E0E832D091502C
:104910005040E695001CCAF72BD0FE2F29D0660F19
:10492000771F881FBB1F261737074807AB07B0E85C
:1049300009F0BB0B802DBF01FF2793585F4F3AF062
:104940009E3F510578F00C9461250C9412265F3F30
:10495000E4F3983ED4F3869577956795B795F795E8
:104960009F5FC9F7880F911D9695879597F90895D0
:10497000E1E0660F771F881FBB1F6217730784076C
:10498000BA0720F0621B730B840BBA0BEE1F88F77B
:10499000E09508950E94D1246894B1110C941226D8
:1049A00008950E94F72588F09F5798F0B92F99270E
:1049B000B751B0F0E1F0660F771F881F991F1AF00A
:1049C000BA95C9F714C0B13091F00E941126B1E038
:1049D00008950C941126672F782F8827B85F39F037
:1049E000B93FCCF3869577956795B395D9F73EF4A3
:1049F00090958095709561957F4F8F4F9F4F08954B
:104A0000E89409C097FB3EF4909580957095619568
:104A10007F4F8F4F9F4F9923A9F0F92F96E9BB271E
:104A20009395F695879577956795B795F111F8CF9A
:104A3000FAF4BB0F11F460FF1BC06F5F7F4F8F4F05
:104A40009F4F16C0882311F096E911C0772321F0FB
:104A50009EE8872F762F05C0662371F096E8862F93
:104A600070E060E02AF09A95660F771F881FDAF7EA
:104A7000880F9695879597F90895990F0008550F17
:104A8000AA0BE0E8FEEF16161706E807F907C0F0D4
:104A900012161306E407F50798F0621B730B840BDC
:104AA000950B39F40A2661F0232B242B252B21F4B6
:104AB00008950A2609F4A140A6958FEF811D811D56
:104AC000089597F99F6780E870E060E008959FEF90
:104AD00080EC0895DF93CF931F930F93FF92EF9293
:104AE000DF927B018C01689406C0DA2EEF010E94F0
:104AF0003826FE01E894A59125913591459155916F
:104B0000A6F3EF010E948723FE019701A801DA9422
:104B100069F7DF90EF90FF900F911F91CF91DF9198
:104B2000089500240A941616170618060906089513
:104B300000240A94121613061406050608950C9410
:104B400067250E94F725D8F3E894E0E0BB279F573C
:104B5000F0F02AED3FE049EC06C0EE0FBB0F661FF8
:104B6000771F881F28F0B23A62077307840728F07E
:104B7000B25A620B730B840BE3959A9572F78038E7
:104B800030F49A95BB0F661F771F881FD2F79048A5
:104B90000C94E626092E0394000C11F4882352F09D
:104BA000BB0F40F4BF2B11F460FF04C06F5F7F4F59
:104BB0008F4F9F4F0895EF93E0FF07C0A2EA2AEDC1
:104BC0003FE049EC5FEB0E9487230E94CA250F90CB
:104BD000039401FC9058E9EDF0E00C94F92657FDA0
:104BE0009058440F551F59F05F3F71F04795880F5B
:104BF00097FB991F61F09F3F79F0879508951216F2
:104C000013061406551FF2CF4695F1DF08C016169D
:104C100017061806991FF1CF86957105610508944E
:104C20000895E894BB2766277727CB0197F9089565
:104C30000E943D2508F48FEF08959B01AC0160E0D0
:104C400070E080E89FE30C9458240E9438260C946E
:104C5000CA250E94912538F00E94982520F09523BE
:104C600011F00C9461250C94672511240C941226E4
:104C70000E94EF2570F3959FC1F3950F50E0551FEB
:104C8000629FF001729FBB27F00DB11D639FAA27A1
:104C9000F00DB11DAA1F649F6627B00DA11D661FF0
:104CA000829F2227B00DA11D621F739FB00DA11D11
:104CB000621F839FA00D611D221F749F3327A00DCB
:104CC000611D231F849F600D211D822F762F6A2F67
:104CD00011249F5750409AF0F1F088234AF0EE0FCC
:104CE000FF1FBB1F661F771F881F91505040A9F7F9
:104CF0009E3F510580F00C9461250C9412265F3F75
:104D0000E4F3983ED4F3869577956795B795F79534
:104D1000E7959F5FC1F7FE2B880F911D96958795AC
:104D200097F908959F930E94A1250F9007FCEE5FCD
:104D30000C94DB2519F416F40C9467250C94E426E6
:104D40000E94F725B8F39923C9F3B6F39F57550B83
:104D500087FF0E94F2260024A0E640EA90018058D6
:104D60005695979528F4805C660F771F881F20F072
:104D700026173707480730F4621B730B840B202972
:104D800031294A2BA69517940794202531254A27C7
:104D900058F7660F771F881F20F026173707480738
:104DA00030F4620B730B840B200D311D411DA09557
:104DB00081F7B901842F9158880F969587950895AA
:104DC0009B01AC010C9425269F3F31F0915020F4BB
:104DD000879577956795B795880F911D96958795D7
:104DE00097F9089591505040660F771F881FD2F7AA
:104DF00008959F938F937F936F93FF93EF939B01FE
:104E0000AC010E942526EF91FF910E946A252F9107
:104E10003F914F915F910C94252697FB072E16F436
:104E2000009407D077FD09D00E94212707FC05D008
:104E30003EF4909581959F4F0895709561957F4FB1
:104E40000895AA1BBB1B51E107C0AA1FBB1FA617D1
:104E5000B70710F0A61BB70B881F991F5A95A9F723
:104E600080959095BC01CD010895EE0FFF1F059030
:104E7000F491E02D09940F931F93CF93DF93823029
:104E8000910510F482E090E0E0918C07F0918D079D
:104E900030E020E0B0E0A0E0309799F42115310532
:104EA00009F44AC0281B390B24303105D8F58A8112
:104EB0009B816115710589F1FB0193838283FE015A
:104EC00011C0408151810281138148175907E0F0D8
:104ED0004817590799F4109761F012960C9312979E
:104EE00013961C933296CF01DF91CF911F910F91B2
:104EF000089500938C0710938D07F4CF2115310589
:104F000051F04217530738F0A901DB019A01BD01A6
:104F1000DF01F801C1CFEF01F9CF90938D078093A6
:104F20008C07CDCFFE01E20FF31F819391932250A6
:104F3000310939832883D7CF20918A0730918B0795
:104F4000232B41F4209117013091180130938B07E6
:104F500020938A0720911501309116012115310502
:104F600041F42DB73EB74091190150911A01241B0D
:104F7000350BE0918A07F0918B07E217F307A0F455
:104F80002E1B3F0B2817390778F0AC014E5F5F4F9F
:104F90002417350748F04E0F5F1F50938B0740933F
:104FA0008A07819391939FCFF0E0E0E09CCFCF936D
:104FB000DF930097E9F0FC01329713821282A091EF
:104FC0008C07B0918D07ED0130E020E01097A1F43F
:104FD00020813181820F931F20918A0730918B07A6
:104FE0002817390709F061C0F0938B07E0938A070F
:104FF000DF91CF910895EA01CE17DF07E8F54A81E6
:105000005B819E0141155105B1F7E901FB83EA83FC
:1050100049915991C40FD51FEC17FD0761F48081A8
:1050200091810296840F951FE9019983888382817B
:1050300093819B838A83F0E0E0E012968D919C91AE
:1050400013970097B9F52D913C911197CD010296D8
:10505000820F931F20918A0730918B0728173907F9
:1050600039F6309751F510928D0710928C07B09356
:105070008B07A0938A07BCCFD383C2834081518121
:10508000840F951FC817D90761F44E5F5F4F888161
:105090009981480F591F518340838A819B81938353
:1050A00082832115310509F0B0CFF0938D07E0938D
:1050B0008C079ECFFD01DC01C0CF13821282D7CFB7
:0450C000F894FFCF92
:1050C400FFFFFFFF00E100000000000010030010DC
:1050D400270100000000008E07800000C1808100CD
:1050E4000000000000001D0698053E0633068406F5
:1050F4004206600600000000DF096B05740A730AAB
:10510400000000007C096B05740A730A47616D6531
:10511400204F766572210048495420504C414E4539
:045124005421000012
:00000001FF
