:100000000C9481030C94A9030C94A9030C94A903E8
:100010000C94A9030C94A9030C94A9030C94A903B0
:100020000C94A9030C94A9030C9453080C94C208D3
:100030000C94A9030C94A9030C94A9030C94A90390
:100040000C94A9030C94A9030C94A9030C94A90380
:100050000C94A9030C94A9030C94A9030C94F40A1E
:100060000C94A9030C94A9030C94A9030C94A90360
:100070000C94A9030C94A9030C94A9030C94A90350
:100080000C94A9030C94A9030C94A9030C94A90340
:100090000C94A9030C94A9030C94A9030C94A90330
:1000A0000C94A9030C94A9030C94A90305A84CCDA6
:1000B000B2D44EB93836A9020C50B9918688083CA2
:1000C000A6AAAA2ABE000000803F00000000003E51
:1000D0005B4F5B3E3E6B4F6B3E1C3E7C3E1C183CB8
:1000E0007E3C181C577D571C1C5E7F5E1C00183C14
:1000F0001800FFE7C3E7FF0018241800FFE7DBE75D
:10010000FF30483A060E2629792926407F05050743
:10011000407F05253F5A3CE73C5A7F3E1C1C08089F
:100120001C1C3E7F14227F22145F5F005F5F060964
:100130007F017F006689956A606060606094A2FFBD
:10014000A29408047E040810207E201008082A1CAF
:1001500008081C2A08081E101010100C1E0C1E0C7B
:1001600030383E3830060E3E0E060000000000001B
:10017000005F00000007000700147F147F14242A8A
:100180007F2A12231308646236495620500008075C
:100190000300001C2241000041221C002A1C7F1C7D
:1001A0002A08083E0808008070300008080808087F
:1001B000000060600020100804023E5149453E00E6
:1001C000427F400072494949462141494D33181444
:1001D000127F1027454545393C4A49493141211193
:1001E00009073649494936464949291E0000140085
:1001F00000004034000000081422411414141414A8
:10020000004122140802015909063E415D594E7C05
:100210001211127C7F494949363E414141227F41BA
:1002200041413E7F494949417F090909013E414118
:1002300051737F0808087F00417F41002040413F03
:10024000017F081422417F404040407F021C027F12
:100250007F0408107F3E4141413E7F090909063E67
:100260004151215E7F091929462649494932030136
:100270007F01033F4040403F1F2040201F3F403848
:10028000403F631408146303047804036159494D23
:1002900043007F4141410204081020004141417F59
:1002A00004020102044040404040000307080020CF
:1002B000545478407F2844443838444444283844CF
:1002C00044287F385454541800087E090218A4A406
:1002D0009C787F0804047800447D40002040403D25
:1002E000007F1028440000417F40007C047804789F
:1002F0007C080404783844444438FC182424181832
:10030000242418FC7C08040408485454542404048D
:100310003F44243C4040207C1C2040201C3C40307A
:10032000403C44281028444C9090907C4464544CA9
:100330004400083641000000770000004136080004
:1003400002010204023C2623263C1EA1A161123AAE
:100350004040207A385454555921555579412154FB
:10036000547841215554784020545579400C1E5200
:1003700072123955555559395454545939555454A4
:10038000580000457C410002457D420001457C400B
:10039000F0292429F0F0282528F07C545545002028
:1003A00054547C547C0A097F4932494949323248C5
:1003B000484832324A4848303A4141217A3A42402C
:1003C0002078009DA0A07D39444444393D40404000
:1003D0003D3C24FF2424487E4943662B2FFC2F2BD1
:1003E000FF0929F620C0887E090320545479410072
:1003F00000447D413048484A32384040227A007AF1
:100400000A0A727D0D19317D2629292F28262929CE
:10041000292630484D4020380808080808080808F0
:10042000382F10C8ACBA2F102834FA00007B000017
:1004300008142A142222142A14089500220095AACE
:10044000005500AAAA55AA55AA000000FF001010E6
:1004500010FF00141414FF001010FF00FF1010F024
:1004600010F0141414FC001414F700FF0000FF0037
:10047000FF1414F404FC141417101F10101F101F85
:100480001414141F00101010F0000000001F1010B2
:1004900010101F10101010F010000000FF101010AE
:1004A000101010101010FF10000000FF140000FFCB
:1004B00000FF00001F10170000FC04F414141710B4
:1004C000171414F404F40000FF00F71414141414A7
:1004D0001414F700F7141414171410101F101F141D
:1004E0001414F4141010F010F000001F101F00007E
:1004F000001F14000000FC140000F010F01010FFAA
:1005000010FF141414FF141010101F00000000F04E
:1005100010FFFFFFFFFFF0F0F0F0F0FFFFFF000023
:10052000000000FFFF0F0F0F0F0F38444438447CCA
:100530002A2A3E147E02020606027E027E026355CD
:100540004941633844443C04407E201E2006027E1C
:10055000020299A5E7A5991C2A492A1C4C7201722E
:100560004C304A4D4D303048784830BC625A463D98
:100570003E494949007E0101017E2A2A2A2A2A444D
:10058000445F444440514A444040444A5140000082
:10059000FF0103E080FF000008086B6B083612368D
:1005A0002436060F090F060000181800000010106E
:1005B000003040FF0101001F01011E00191D17122C
:1005C000003C3C3C3C0000000000F0F89C8E87831F
:1005D000878E9CF8F00000FEFF0303030303070E61
:1005E000FCF80000FEFF0303030303070EFCF80002
:1005F00000FFFF00000000000000FFFF0000FEFF02
:100600008383838383C7EE7C380000F8FC0E0703E6
:100610000303070EFCF800003F7FE0C08080C0E0CD
:100620007F3FFFFF01010101010101FFFF0000FF0A
:10063000FF0C0C0C0C1C3E77E3C100007FFFC0C018
:10064000C0C0C0E0703F1F00001F3F70E0C0C0C0CE
:10065000E0703F1F00007FFFC1C1C1C1C1E3773E11
:100660001C00001F3F70E0C0C0C0E0703F1F0000D2
:1006700000000001FFFF01000000D5F08D14A1C8AB
:1006800081CFD9F1AF2000070605040100080A0B4D
:100690000C0D09080B000202020000090400000111
:1006A00002020000052400100105240101010424B8
:1006B0000206052406000107058103100040090415
:1006C0000100020A000000070502024000000705C1
:1006D00083024000000403090412010002EF02013A
:1006E00040412336800001010203014172647569B3
:1006F0006E6F204C4C430041726475626F7900004C
:10070000710B11241FBECFEFDAE0DEBFCDBF11E0C9
:10071000A0E0B1E0ECE5FFE202C005900D92AC3341
:10072000B107D9F725E0ACE3B1E001C01D92AD3DC2
:10073000B207E1F713E0C1E8D3E004C02197FE015E
:100740000E948116C038D107C9F70E948E0B0C9405
:10075000AC170C940000E3E8F1E0A0E0B8E0008002
:100760000EBC8111012C1197A0FDFDCF0192B9F7AC
:100770000DB40895FC0180918201882311F13FB7E7
:10078000F89482E08093E9002091F200822F90E0BB
:100790001816190614F481E090E0882339F028989F
:1007A00044E6409381014091F1004083222339F0D7
:1007B0002091F200211103C02BE62093E8003FBFF7
:1007C00008958FEF9FEF08952FB7F89483E08093FB
:1007D000E9009091E800892F807295FF04C0909104
:1007E000F20080E4891B2FBF089580917901811167
:1007F0000DC082E08093750184E0809376011092B1
:1008000078011092770181E08093790185E791E08A
:100810000895CF93DF931F92CDB7DEB76983DC01D4
:10082000ED91FC910280F381E02D41E050E0BE01AA
:100830006F5F7F4F09950F90DF91CF91089583E00F
:100840008093E9008091F200882319F08AE3809375
:10085000E80008950E94E40390E00895CF93DF93A9
:100860001F92CDB7DEB7FC018485958597FD08C042
:100870002FEF3FEF358724870F90DF91CF910895B9
:10088000CE0101960E94BA03019719F4898190E084
:10089000F3CF8FEF9FEFF0CF0F931F93CF93DF93A3
:1008A0001F92CDB7DEB78C01FC018485958597FF3B
:1008B0000BC0CE0101960E94BA03019771F48981A1
:1008C00090E0F80195878487F801848595850F90DD
:1008D000DF91CF911F910F9108958FEF9FEFF1CF8F
:1008E000FC018485958597FD0BC09FB7F89482E045
:1008F0008093E9008091F2009FBF90E001960895F7
:100900009FB7F89482E08093E9008091F2009FBF46
:1009100090E0089540916F015091700120916D0118
:1009200030916E0142175307B4F49091E80095702E
:10093000E1F39091E80092FD19C08093F10080915D
:100940006F019091700101968F739927892B19F48B
:100950008EEF8093E80080916F0190917001019675
:100960009093700180936F0181E0089580E0089575
:10097000DF92EF92FF920F931F93CF93DF93D82EC6
:100980008A01EB017B01E40EF51ECE15DF0559F05F
:10099000D7FE12C0FE0184910E948A042196811123
:1009A000F4CF0FEF1FEFC801DF91CF911F910F918F
:1009B000FF90EF90DF9008958881EECF0F931F9303
:1009C000CF93DF931F92CDB7DEB782E0898342E4F5
:1009D00050E063E976E080E80E94B8040E94F503E5
:1009E000DC0112960D911C910115110589F0D801B9
:1009F000ED91FC910280F381E02DBE016F5F7F4F8E
:100A0000C801099597FD04C0F80100851185ECCF58
:100A100089810F90DF91CF911F910F9108956150BF
:100A200030F02091F100FC0120830196F8CF289846
:100A300084E68093810108953FB7F894809169011D
:100A400090916A01A0916B01B0916C0126B5A89BB1
:100A500005C02F3F19F00196A11DB11D3FBFBA2F50
:100A6000A92F982F8827BC01CD01620F711D811D10
:100A7000911D42E0660F771F881F991F4A95D1F795
:100A800008958F929F92AF92BF92CF92DF92EF9292
:100A9000FF926B017C010E941C054B015C01C1149B
:100AA000D104E104F104B9F00E941C056819790928
:100AB0008A099B09683E73408105910580F321E016
:100AC000C21AD108E108F10888EE880E83E0981E6A
:100AD000A11CB11CE4CFFF90EF90DF90CF90BF90AE
:100AE000AF909F908F9008958F929F92AF92BF92F8
:100AF000CF92DF92EF92FF920F931F93CF93DF93EA
:100B00006C017B018A0180910C01882309F45CC08F
:100B100080918201882309F457C08091740180FF7D
:100B200005C08091E00082608093E000E801B12C74
:100B30008AEFA82E93E0892E2AE3922E209711F4B3
:100B4000BB20D9F10E94E40381110AC0AA94AA2013
:100B5000D9F161E070E080E090E00E944105EECFC5
:100B60008C171D0611F00CF08C2F9FB7F894809213
:100B7000E9002091E80025FD02C09FBFDFCF282FAC
:100B800030E0C21BD30BF701815020F0419140931C
:100B9000F100FACFE20EF31EBB2021F09092E800A4
:100BA000B12CEBCF8091E80085FDE7CF9092E80073
:100BB000BB24B394209709F3F3CF5D9884E6809328
:100BC0007301101611063CF081E090E0F60193836A
:100BD000828310E000E0C801DF91CF911F910F9157
:100BE000FF90EF90DF90CF90BF90AF909F908F904D
:100BF0000895AF92BF92CF92DF92EF92FF920F9340
:100C00001F93CF93DF936C017B018B01040F151FA2
:100C1000EB015E01AE18BF08C017D10759F069910A
:100C2000D601ED91FC910190F081E02DC60109956E
:100C3000892B79F7C501DF91CF911F910F91FF901B
:100C4000EF90DF90CF90BF90AF9008952D9A0895C8
:100C5000BC0190E080E00C9441058FB18095807FCD
:100C6000669B88601C9B84600895CF93C82F0E9468
:100C70002D06982F9C2381E09C1380E0CF9108954E
:100C800080E00C94AB0380389105B8F460347105B2
:100C9000A0F420E191E061FD94E060FD990F62FD18
:100CA0009295687F269FD0011124A80FAD57BE4FA3
:100CB0008C9140FF03C0892B8C93089590958923D4
:100CC000FBCF2F923F924F925F926F927F928F92C3
:100CD0009F92AF92BF92CF92DF92EF92FF920F93CB
:100CE0001F93CF93DF93EC018B017A016901C61A40
:100CF000D70AD7FE03C0D194C194D10847018C1AFA
:100D00009D0A97FE03C09194819491088C149D04D0
:100D100054F49E2D8F2D7901292F382F9C2F8D2F44
:100D2000E801092F182FEC16FD0654F4902F812F9F
:100D30008901292F382F9C2F8D2FE701E92EF82EBE
:100D400017012C1A3D0A2901401A510A57FE03C007
:100D5000519441945108310137FE03C08FEF681A56
:100D6000780A759467948FEF021713070CF481E0EB
:100D7000A82E880FBB08EC16FD06A4F041E0BE01CA
:100D8000C8018C149D0414F0B801CE010E944306E2
:100D90006418750877FE04C00A0D1B1D620C731CD5
:100DA0002196E9CFDF91CF911F910F91FF90EF90A6
:100DB000DF90CF90BF90AF909F908F907F906F907B
:100DC0005F904F903F902F900895EF92FF920F9376
:100DD0001F93CF93DF937C018B01040F111DEB0157
:100DE00077FF02C0D0E0C0E0C8010134110514F063
:100DF00080E490E0C817D9073CF441E0BE01C70188
:100E00000E9443062196F0CFDF91CF911F910F9161
:100E1000FF90EF9008958F929F92AF92BF92CF92E2
:100E2000DF92EF92FF920F931F93CF93DF936D307A
:100E300089F0C0904201D09043016A30D1F4109201
:100E400041011092400188E0C80ED11CD0924301AC
:100E5000C092420181E090E0DF91CF911F910F910C
:100E6000FF90EF90DF90CF90BF90AF909F908F90CA
:100E700008950091400110914101E5E06E9FE0016D
:100E80001124C653DF4F4801F12CF5E0E12CFF1689
:100E900029F0CE010196FE01E490EC01B12CA12CC9
:100EA0004E2D4170B6016A0D7B1DC4010E944306A0
:100EB000E694FFEFAF1ABF0A88E0A816B10481F7E5
:100EC000F394EFEF8E1A9E0AF6E0FF12DECF0A5F70
:100ED0001F4F1093410100934001BCCF089590E053
:100EE00080E008952F923F924F925F926F927F928F
:100EF0008F929F92AF92BF92CF92DF92EF92FF922A
:100F00000F931F93CF93DF9300D000D000D0CDB7C5
:100F1000DEB78EE090E0909384058093830580E7B0
:100F200090E00E948716382E292E8D839E8310E034
:100F300000E081E1482E87E2582E612C712CB80127
:100F4000012E000C880B990B0E94CF1425E33AEF79
:100F50004EE85CE30E94C3154B015C010E94DD1268
:100F6000A30192010E944B130E94CF1420E030E4B1
:100F70004CE156E40E94251420E030E040EF52E4BA
:100F80000E94C31520E030E040E752E40E94AF1316
:100F90006B017C01C501B4010E942014A7019601D8
:100FA0000E94C31569837A838B839C83C501B40136
:100FB0000E943016A70196010E94C3156B017C01A7
:100FC0000E94DD12A30192010E944B130E94CF14D4
:100FD00020E030E44CE156E40E94251420E030E0AB
:100FE00040E850E40E94C31520E030E040E050E4C7
:100FF0000E94AE1329813A814B815C810E94AF131C
:101000004B015C010E94DD12ED81FE8180829182A4
:10101000A282B382A30192010E944B130E94CF14BB
:1010200020E030E44CE156E40E94251420E030E05A
:1010300040E850E40E94C31520E030E040E050E476
:101040000E94AE13A70196010E94AF13ED81FE81AD
:101050006483758386839783075E1F4F3896FE836C
:10106000ED830737F1E01F0709F069CF832D922D3B
:1010700026960FB6F894DEBF0FBECDBFDF91CF919D
:101080001F910F91FF90EF90DF90CF90BF90AF90A6
:101090009F908F907F906F905F904F903F902F9098
:1010A00008950C9435131F920F920FB60F921124CE
:1010B0008F939F938091E1009091E100937F9093B3
:1010C000E10083FF0FC01092E90091E09093EB00E4
:1010D0001092EC0092E39093ED001092820198E060
:1010E0009093F00082FF22C093E09093E9009091EA
:1010F000F200992319F09AE39093E800909173011C
:10110000992341F090917301915090937301911143
:1011100001C05D9A90918101992341F090918101E4
:10112000915090938101911101C0289A84FF18C0B9
:101130008091E2008E7E81608093E2008091E100E8
:101140008F7E8093E100809174018E7E8061809318
:1011500074019F918F910F900FBE0F901F90189563
:1011600080FFF7CF8091E2008E7E80618093E20065
:101170008091E1008E7E8093E100809174018E7EEB
:101180008160E5CF1F920F920FB60F921124CF927C
:10119000DF92EF92FF920F931F932F933F934F9302
:1011A0005F936F937F938F939F93AF93BF93EF93CF
:1011B000FF93CF93DF93CDB7DEB76C97DEBFCDBF84
:1011C0001092E9008091E80083FF25C068E0CE011D
:1011D00045960E940F0582EF8093E8008D8987FF76
:1011E00039C09091E80090FFFCCF982F907609F0DD
:1011F00034C19E894F89588D2F89F88C911131C047
:10120000803861F5809172018093F1001092F100B5
:101210008EEF8093E8006C960FB6F894DEBF0FBE99
:10122000CDBFDF91CF91FF91EF91BF91AF919F9192
:101230008F917F916F915F914F913F912F911F916E
:101240000F91FF90EF90DF90CF900F900FBE0F9017
:101250001F9018959EEF9093E800C7CF1092F10071
:10126000D5CF913059F48111D3CF4130510581F65A
:10127000809172018D7F80937201CACF933049F4BF
:101280008111C6CF4130510519F6809172018260FB
:10129000F2CF953041F48091E80080FFFCCF2068C8
:1012A0002093E300B5CF963009F0A9C00B8D1C8DBB
:1012B00022E01092E9001092700110926F01F21278
:1012C0002EC010926E0110926D010E94DE041F82EA
:1012D00099E09983FA8291E09E8390EA98879AEF49
:1012E000998720916F0130917001275F3F4F3C83B8
:1012F0002B838D831092E9001092700110926F0180
:1013000010936E0100936D0149E050E0BE016F5FE4
:101310007F4F80E00E94B8040E94DE0479CF1093D2
:101320006E0100936D010E94F503DC0112960D9190
:101330001C910115110509F451C1D801ED91FC91E1
:101340000480F581E02DBE016B5E7F4FC8010995D9
:10135000009709F03EC1F80100851185EACFF3E05E
:10136000FF120EC08F89882309F440C0823061F4D7
:1013700040E867E087EF96E00E943E0B811148CF7E
:1013800081E28093EB0047CF813029F440E86BE0A5
:101390008BEE96E0F1CF833099F70E94F503DC01E4
:1013A0001296ED90FC908E010F5F1F4F6801E114C3
:1013B000F10479F0D701ED91FC910680F781E02DE1
:1013C000B801C7010995080F111DF701E084F184E8
:1013D000EECFD8011C92F60101900020E9F7319779
:1013E000BF016C197D0940E0C601C6CF65ED76E00E
:1013F000FB01449150E080E80E94B80409CF973087
:1014000009F4BECF983021F481E08093F10000CF41
:10141000993009F0FDCE837009F0B2CFE8E1F1E038
:1014200081E031E096E32191222371F08093E9007D
:101430003093EB00DF0111972C912093EC009093F7
:10144000ED008F5F873079F78EE78093EA00109286
:10145000EA008F8980938201DBCE8B8D9C8D109268
:10146000E9001092700110926F0190936E018093C9
:101470006D01898D811192C08E899D89913A49F4BF
:10148000813209F07DCF47E050E065E071E080E017
:10149000B3CF913209F074CF833269F48F89988D7C
:1014A000B0E0A0E08093010190930201A0930301BA
:1014B000B0930401ADCE803269F48091E80082FFE0
:1014C000FCCF67E085E091E00E940F058BEF8093F1
:1014D000E8009ECE823209F09BCE8F8980930C016A
:1014E000EEEFFFE7859194918B3F9C4D51F1E0E049
:1014F000F8E08091050190910601A0910701B0915B
:101500000801803B9440A105B105F1F480910C01E4
:1015100080FD1AC0EE3F8AE0F80789F587E797E774
:1015200091838083809160008093710188E19BE0CA
:101530000FB6F894A895809360000FBE909360005A
:1015400067CEEEEFFAE0D5CF80819181873797475C
:1015500009F05ECEA895809160008861809360005C
:101560008091710180936000EE3F2AE0F20789F0DC
:101570008091FE0A9091FF0A9183808349CE8081F9
:1015800091818737980751F29093FF0A8093FE0A62
:10159000C5CF1092FF0A1092FE0A3ACE0E94F503C0
:1015A000DC0112960D911C910115110509F4E8CE8C
:1015B000D801ED91FC910190F081E02DBE016B5EB0
:1015C0007F4FC8010995811123CEF801008511854F
:1015D000EBCF181619060CF41BCED2CEF1E0FF1299
:1015E000BECE69ED76E004CF1F920F920FB60F9238
:1015F00011242F933F938F939F93AF93BF93809129
:10160000650190916601A0916701B09168013091E8
:10161000640123E0230F2D3758F50196A11DB11D5C
:10162000209364018093650190936601A093670104
:10163000B09368018091690190916A01A0916B015A
:10164000B0916C010196A11DB11D80936901909329
:101650006A01A0936B01B0936C01BF91AF919F9110
:101660008F913F912F910F900FBE0F901F90189563
:1016700026E8230F0296A11DB11DD2CFEF92FF9253
:101680000F931F93CF93DF93F82E192FE62E042F7D
:1016900081E0860F880F0E948A0483E00E948A04FA
:1016A000CF2DD12FEC0EFD2EF11CCE15DF05B9F09C
:1016B00007FF13C0FE0184910E948A04182F80E066
:1016C0000E948A04812321968111EFCFDF91CF916F
:1016D0001F910F91FF90EF9008958881EDCF81E0E9
:1016E000F5CFE5E8F5E01382128288EE93E0A0E002
:1016F000B0E084839583A683B78382E291E09183EF
:1017000080838FEF9FEF95878487E5EDF5E0138267
:10171000128284E391E0918380830895CF93DF93D5
:10172000CDB7DEB76C970FB6F894DEBF0FBECDBF56
:10173000789484B5826084BD84B5816084BD85B5AC
:10174000826085BD85B5816085BD80916E008160B8
:1017500080936E001092810080918100826080935E
:101760008100809181008160809381008091800060
:1017700081608093800080919100826080939100CD
:1017800080919100816080939100809190008160B0
:10179000809390008091C10084608093C10080910B
:1017A000C10082608093C1008091C10081608093FC
:1017B000C1008091C30081608093C3008091C0000C
:1017C00082608093C0008091C20081608093C200DB
:1017D00080917A00846080937A0080917A008260A0
:1017E00080937A0080917A00816080937A00809162
:1017F0007A00806880937A001092820110927201C0
:10180000109274018091D70081608093D70080EAA4
:101810008093D80089B5806189BD89B5826089BD12
:1018200009B400FEFDCF61E070E080E090E00E942E
:1018300041058091D8008F7C80618093D800809191
:10184000E000807F8093E0008091E1008E7E8093B5
:10185000E1008DE08093E200559A209A81EC80931C
:101860007C0085B1806F85B984B1877E84B984B1ED
:10187000876E84B95E9A5F988AB1806D8AB9769ACC
:101880006E9881B3806F81BB899880B38D7080BB67
:1018900080E58CBD81E08DBD85E090E00E9428064A
:1018A0005F9A85E090E00E9428065E985C98EAE7DF
:1018B000F6E087E896E024912EBD00000DB407FE07
:1018C000FDCF31968E179F07B1F75C9A81E8809320
:1018D0006400809165008160809365000E944006ED
:1018E00080E80E9435068823A9F05C9885EA8EBDC1
:1018F00000000DB407FEFDCF5C9A2E982F982D980E
:101900008091640080628093640081E083BF889549
:1019100013BEFCCF84E00E943506882309F448C03A
:101920002D9884E80E9435068823E1F00E9426065F
:1019300088EC90E00E9428062F9882E090E00E94B8
:1019400035138F3F29F06FEF82E090E00E943D1346
:1019500084EF91E00E9428062F9A84E80E943506C1
:101960008111FBCF84E10E9435068823E1F00E94BB
:10197000260688EC90E00E9428062E9882E090E0EF
:101980000E943513882329F060E082E090E00E94F5
:101990003D1384EF91E00E9428062E9A84E10E9474
:1019A00035068111FBCF88EC90E00E942806B2CF6B
:1019B0000E94260682E090E00E945108882309F4E4
:1019C0009CC03E9A3F9A81E090E00E945108282FE7
:1019D0002470922E81FF12C021112E98E1EF4E2E1D
:1019E00055245A9408E010E080E40E9435068823CC
:1019F00009F486C02E9A2F9A0E94260682E390E070
:101A00000E9428060E942D068111F8CF80E1809364
:101A10000001E7E8F6E0E49190917B008E2F880FBB
:101A2000880F80729F7D892B80937B00E770E06434
:101A3000E0937C0080917A00806480937A008091AA
:101A40007A0086FDFCCF6091780070917900072EB6
:101A5000000C880B990B611571058105910511F03A
:101A60000E942C130E9472079093470180934601B5
:101A700080E090E0A0E8B3E4809354019093550196
:101A8000A0935601B0935701809350019093510158
:101A9000A0935201B0935301109260011092610122
:101AA000109262011092630110925C0110925D012C
:101AB00010925E0110925F0110925801109259012C
:101AC00010925A0110925B018FB7F8944091650112
:101AD0005091660160916701709168018FBF10910C
:101AE0003E01112309F4D1C010923E0120E030E004
:101AF000232B51F30E940000E7CF3E983F9863CF1D
:101B0000992031F034E04316510411F42E9A2F98A5
:101B100081E00E94AB03920157FE04C022273327C5
:101B20002419350927703327C20157FC079673E043
:101B3000959587957A95E1F757FE05C00197A8011D
:101B4000421B530B9A01AC015695542F44275795CD
:101B500047954D575E4FF12CE12C3801621A730AFC
:101B60008E3F6FEF9607B1F1DA01AC56BF4F6A01B5
:101B700070E060E0F701E653FA4F5F018F3F98078E
:101B800079F0F501E60FF71FE491F0E01F01022E56
:101B900001C0220C0A94EAF7F60184882828248AD6
:101BA0002115310571F0F501E60FF71FE491F0E022
:101BB000062C02C0F595E7950A94E2F7FC91EF2B0D
:101BC000EC936F5F7F4F1196FFEFCF1ADF0A6835F6
:101BD0007105A1F6019668E5E60EF11C40585F4FCD
:101BE000A0EBEA16F10409F0BBCF0E9440068FE09B
:101BF00090E00E942806BFEF4B1A5B0AE9E14E16FF
:101C0000510409F0F1CE992011F02F9A2D9880E916
:101C100091E00E9428060E94260681E090E00E9442
:101C2000510880FFEBCE8AE090E00E9451089FEFC0
:101C3000980F9E3F08F0E2CE22E330E0309341015E
:101C40002093400128E330E0309343012093420188
:101C50002BE030E03A832983682F85ED95E00E94E0
:101C60000B0789819A810E94510849815A814F5FEF
:101C70005F4F5A8349834131510571F70E944006F5
:101C800088EE93E00E942806B9CE80913F01942F00
:101C9000981B892F90910001891748F48F5F89174D
:101CA00008F024CFA1E0A3BF889513BE1FCFB1E0F9
:101CB000B0933E0140933F0180913C0190913D01E2
:101CC000019690933D0180933C01E0914501E987A5
:101CD000E09344010E942D068D8380934501E3E843
:101CE000F1E011111FEF002411931193119311933F
:101CF0000394D1F7109243011092420110924101D6
:101D00001092400180E20E9435068823B1F02DEC4C
:101D10003CEC4CEC5DE3609160017091610180915D
:101D20006201909163010E94AE1360936001709311
:101D30006101809362019093630180E40E94350603
:101D40008823B1F02DEC3CEC4CEC5DE3609160013C
:101D50007091610180916201909163010E94AF13C3
:101D600060936001709361018093620190936301BD
:101D700088E00E943506882309F44AC08090580103
:101D800090905901A0905A01B0905B012BED3FE07B
:101D900049EC5FE3609160017091610180916201A3
:101DA000909163010E94AE136B017C010E9420148C
:101DB0002DEC3CEC4CE45EE30E94C3159B01AC01AE
:101DC00060915C0170915D0180915E0190915F0175
:101DD0000E94AF1360935C0170935D0180935E017C
:101DE00090935F01C701B6010E9430162DEC3CECC8
:101DF0004CE45EE30E94C315A50194010E94AF1359
:101E0000609358017093590180935A0190935B013C
:101E100040905C0150905D0160905E0170905F01A8
:101E20002091540130915501409156015091570134
:101E3000C301B2010E94AF134B015C0180925401B7
:101E400090925501A0925601B092570120915801ED
:101E50003091590140915A0150915B0129833A8395
:101E60004B835C832091500130915101409152018C
:101E70005091530169817A818B819C810E94AF13BB
:101E80006B017C01C0925001D0925101E09252014D
:101E9000F092530124EA30E74DE75FE3C301B2015A
:101EA0000E94C31560935C0170935D0180935E0195
:101EB00090935F0124EA30E74DE75FE369817A811F
:101EC0008B819C810E94C3156093580170935901C6
:101ED00080935A0190935B0120E030E0A901C50195
:101EE000B4010E941B1487FF08C010925401109285
:101EF0005501109256011092570120E030E040E069
:101F000054E4609154017091550180915601909173
:101F100057010E94BE15181664F480E090E0A0E01E
:101F2000B4E48093540190935501A0935601B0936B
:101F3000570120E030E0A901C701B6010E941B143F
:101F400087FF08C010925001109251011092520167
:101F50001092530120E030E040E054E460915001E1
:101F60007091510180915201909153010E94BE15D0
:101F7000181664F480E090E0A0E0B4E4809350018F
:101F800090935101A0935201B093530120E030E0AF
:101F900040E852E4609154017091550180915601DE
:101FA000909157010E94AE134B015C0180924C014D
:101FB00090924D01A0924E01B0924F0120E030E08E
:101FC00040E052E4609150017091510180915201C2
:101FD000909153010E94AE136B017C01C0924801A5
:101FE000D0924901E0924A01F0924B0120E030E0AA
:101FF000A901C501B4010E941B1487FF08C01092FB
:102000004C0110924D0110924E0110924F0120E0B0
:1020100030E040EC53E460914C0170914D018091AF
:102020004E0190914F010E94BE15181664F480E095
:1020300090E0A0ECB3E480934C0190934D01A09309
:102040004E01B0934F0120E030E0A901C701B60175
:102050000E941B1487FF08C010924801109249018A
:1020600010924A0110924B0120E030E040EE53E420
:10207000609148017091490180914A0190914B0112
:102080000E94BE15181664F480E090E0A0EEB3E460
:102090008093480190934901A0934A01B0934B016A
:1020A000398532FD11C04D8142FF0EC0809146013D
:1020B00090914701009711F00E9423170E94720728
:1020C000909347018093460120904601309047014C
:1020D0002114310409F40FC13A8229823A862986F3
:1020E00010E000E080918305909184059E838D83AC
:1020F000C0904C01D0904D01E0904E01F0904F0106
:102100008090480190904901A0904A01B0904B0105
:10211000081719070CF04EC020E030E040E853E407
:10212000A985BA856D917D918D919C910E94AF1387
:10213000A70196010E94AE130E9497146B0120E044
:1021400030E040E853E4E985FA8564817581868151
:1021500097810E94AF13A50194010E94AE130E94C3
:1021600097142B015B01F1E0AF1AB10843E0B50110
:10217000C6010E94E506C601019641E0B2010E9437
:10218000E50643E0B501C6010E94E506C6010197D8
:1021900041E0B2010E94E50643E0B501C6010E949C
:1021A000E5060F5F1F4F29853A85285F3F4F3A8725
:1021B000298798CF4D815E81141615060CF09BC0BF
:1021C00020E030E040E853E4D1016D917D918D91A4
:1021D0009C910E94AF13A70196010E94AE130E942A
:1021E00097148B0120E030E040E853E4F101648172
:1021F0007581868197810E94AF13A50194010E9489
:10220000AE130E9497147A8B698B21E030E03A87F5
:10221000298749815A81485F5F4F5A8349838D815D
:102220009E81A985BA8520E030E040E853E48A1712
:102230009B07C9F1E981FA81608171818281938173
:102240000E94AF13A70196010E94AE130E9497143B
:102250006D877E878F87988B20E030E040E853E4DD
:10226000A981BA8114966D917D918D919C9117975A
:102270000E94AF13A50194010E94AE130E9497140F
:102280002B019B014D855E8569897A89C8010E9471
:102290006106E985FA853196FA87E9875A8A498A7B
:1022A0000D851E85B6CFD10114966D917D918D91CE
:1022B0009C9117970E94AF13A50194010E94AE1341
:1022C0000E9497144B0120E030E040E853E4F10114
:1022D00060817181828193810E94AF13A701960171
:1022E0000E94AE130E9497149401AB0169897A8908
:1022F000C8010E94610620914C0130914D0140912E
:102300004E0150914F01609154017091550180919F
:102310005601909157010E94AE1369837A838B8393
:102320009C83209148013091490140914A0150918C
:102330004B01609150017091510180915201909137
:1023400053010E94AE136D837E838F839887C09064
:102350006001D0906101E0906201F0906301C701DB
:10236000B6010E9420144B015C01C701B6010E9416
:1023700030166B017C0120E030E040E850E40E9420
:10238000C31569877A878B879C8720E030E040E817
:1023900050E4C501B4010E94C3156D877E878F8705
:1023A000988B20E030E0A901C501B4010E94C3155B
:1023B0002B013C0120E030E040E850ECC701B601C1
:1023C0000E94C3159B01AC01C301B2010E94AE1370
:1023D00029813A814B815C810E94AF130E9497143E
:1023E000698B7A8B8B8B9C8B20E030E0A901C70135
:1023F000B6010E94C3152B013C0120E030E040E80B
:1024000050ECC501B4010E94C3159B01AC01C3018E
:10241000B2010E94AF132D813E814F8158850E94E9
:10242000AF130E9497146D8B7E8B8F8B988F20E05B
:1024300030E040E450ECC501B4010E94C315298589
:102440003A854B855C850E94AE1329813A814B8188
:102450005C810E94AF130E949714698F7A8F8B8FD3
:102460009C8F20E030E040E450ECC701B6010E94B0
:10247000C3152D853E854F8558890E94AF132D8148
:102480003E814F8158850E94AF130E9497142B0103
:1024900020E030E040E450E4C501B4010E94C315DF
:1024A00029853A854B855C850E94AE1329813A8146
:1024B0004B815C810E94AF130E9497144B0120E076
:1024C00030E040E450E4C701B6010E94C3152D85F9
:1024D0003E854F8558890E94AF132D813E814F81E3
:1024E00058850E94AF130E9497146B019201498D89
:1024F0005A8D6D897E8989899A890E946106960123
:10250000A401B201898D9A8D0E9461062D893E89B0
:1025100049895A89B601C4010E9461060E94400699
:10252000E5CA8F929F92AF92BF92CF92DF92EF92C5
:10253000FF92CF93DF93EC01688179818A819B813F
:10254000611571058105910521F464E279ED8BE552
:1025500097E02DE133EF41E050E00E944B13490139
:102560005A019B01AC01A7EAB1E40E946A136B0116
:102570007C01ACEEB4EFA50194010E947813C60E65
:10258000D71EE81EF91EF7FE06C081E0C81AD10862
:10259000E10880E8F80AC882D982EA82FB82C70192
:1025A000B6019F77DF91CF91FF90EF90DF90CF90B2
:1025B000BF90AF909F908F9008958F929F92AF920F
:1025C000BF92CF92DF92EF92FF9260910D017091D6
:1025D0000E0180910F019091100161157105810527
:1025E000910521F464E279ED8BE597E02DE133EF7D
:1025F00041E050E00E944B1349015A019B01AC019C
:10260000A7EAB1E40E946A136B017C01ACEEB4EF5F
:10261000A50194010E947813C60ED71EE81EF91E6C
:10262000F7FE06C081E0C81AD108E10880E8F80A80
:10263000C0920D01D0920E01E0920F01F0921001B4
:10264000C701B6019F77FF90EF90DF90CF90BF90CA
:10265000AF909F908F90089560930D0170930E013D
:1026600080930F01909310010895F999FECF92BDC8
:1026700081BDF89A992780B50895262FF999FECF44
:102680001FBA92BD81BD20BD0FB6F894FA9AF99A8F
:102690000FBE01960895052E97FB1EF400940E942C
:1026A000621357FD07D00E947D1307FC03D04EF440
:1026B0000C94621350954095309521953F4F4F4FA4
:1026C0005F4F089590958095709561957F4F8F4FDE
:1026D0009F4F08950E949F13A59F900DB49F900D4A
:1026E000A49F800D911D11240895B7FF0C946A13C7
:1026F0000E946A13821B930B0895A1E21A2EAA1B53
:10270000BB1BFD010DC0AA1FBB1FEE1FFF1FA217A1
:10271000B307E407F50720F0A21BB30BE40BF50B9E
:10272000661F771F881F991F1A9469F76095709527
:10273000809590959B01AC01BD01CF010895A29FAA
:10274000B001B39FC001A39F700D811D1124911D85
:10275000B29F700D811D1124911D08955058BB2703
:10276000AA270E94C6130C9470150E94371538F0E2
:102770000E943E1520F039F49F3F19F426F40C9482
:1027800034150EF4E095E7FB0C942E15E92F0E940A
:10279000951558F3BA17620773078407950720F059
:1027A00079F4A6F50C94B7150EF4E0950B2EBA2F1C
:1027B000A02D0B01B90190010C01CA01A001112447
:1027C000FF27591B99F0593F50F4503E68F11A16F3
:1027D000F040A22F232F342F4427585FF3CF469584
:1027E00037952795A795F0405395C9F77EF41F16A6
:1027F000BA0B620B730B840BBAF09150A1F0FF0F70
:10280000BB1F661F771F881FC2F70EC0BA0F621F5B
:10281000731F841F48F4879577956795B795F7954B
:102820009E3F08F0B0CF9395880F08F09927EE0FE0
:102830009795879508950E940A1508F481E00895F8
:102840000E944715E3950C9481150E9439140C944D
:1028500070150E943E1558F00E94371540F029F47B
:102860005F3F29F00C942E1551110C94B8150C945F
:1028700034150E94951568F39923B1F3552391F30C
:10288000951B550BBB27AA2762177307840738F0DF
:102890009F5F5F4F220F331F441FAA1FA9F335D03C
:1028A0000E2E3AF0E0E832D091505040E695001CF0
:1028B000CAF72BD0FE2F29D0660F771F881FBB1FAA
:1028C000261737074807AB07B0E809F0BB0B802D88
:1028D000BF01FF2793585F4F3AF09E3F510578F0B4
:1028E0000C942E150C94B8155F3FE4F3983ED4F386
:1028F000869577956795B795F7959F5FC9F7880F88
:10290000911D9695879597F90895E1E0660F771FD9
:10291000881FBB1F621773078407BA0720F0621B6A
:10292000730B840BBA0BEE1F88F7E09508950E9495
:102930009E146894B1110C94B81508950E949D15C9
:1029400088F09F5798F0B92F9927B751B0F0E1F070
:10295000660F771F881F991F1AF0BA95C9F714C020
:10296000B13091F00E94B715B1E008950C94B715FD
:10297000672F782F8827B85F39F0B93FCCF3869559
:1029800077956795B395D9F73EF4909580957095B6
:1029900061957F4F8F4F9F4F0895E89409C097FB33
:1029A0003EF490958095709561957F4F8F4F9F4F26
:1029B0009923A9F0F92F96E9BB279395F69587956A
:1029C00077956795B795F111F8CFFAF4BB0F11F42D
:1029D00060FF1BC06F5F7F4F8F4F9F4F16C08823D4
:1029E00011F096E911C0772321F09EE8872F762F0A
:1029F00005C0662371F096E8862F70E060E02AF04B
:102A00009A95660F771F881FDAF7880F9695879536
:102A100097F90895990F0008550FAA0BE0E8FEEF0B
:102A200016161706E807F907C0F012161306E40792
:102A3000F50798F0621B730B840B950B39F40A268B
:102A400061F0232B242B252B21F408950A2609F469
:102A5000A140A6958FEF811D811D089597F99F676D
:102A600080E870E060E008959FEF80EC0895002416
:102A70000A941616170618060906089500240A94E3
:102A8000121613061406050608950C9434150E94B8
:102A90009D15D8F3E894E0E0BB279F57F0F02AEDAE
:102AA0003FE049EC06C0EE0FBB0F661F771F881F83
:102AB00028F0B23A62077307840728F0B25A620B13
:102AC000730B840BE3959A9572F7803830F49A95DE
:102AD000BB0F661F771F881FD2F790480C943A16D9
:102AE000092E0394000C11F4882352F0BB0F40F41C
:102AF000BF2B11F460FF04C06F5F7F4F8F4F9F4F5C
:102B00000895EF93E0FF07C0A2EA2AED3FE049EC09
:102B10005FEB0E94C6130E9470150F90039401FC96
:102B20009058ECEAF0E00C94461657FD9058440F8C
:102B3000551F59F05F3F71F04795880F97FB991F1C
:102B400061F09F3F79F087950895121613061406D9
:102B5000551FF2CF4695F1DF08C016161706180666
:102B6000991FF1CF86957105610508940895E89441
:102B7000BB2766277727CB0197F908950E940A158E
:102B800008F48FEF08950E94D6150C9470150E94DA
:102B9000371538F00E943E1520F0952311F00C9463
:102BA0002E150C94341511240C94B8150E9495150B
:102BB00070F3959FC1F3950F50E0551F629FF00190
:102BC000729FBB27F00DB11D639FAA27F00DB11DA9
:102BD000AA1F649F6627B00DA11D661F829F222732
:102BE000B00DA11D621F739FB00DA11D621F839FB9
:102BF000A00D611D221F749F3327A00D611D231F8F
:102C0000849F600D211D822F762F6A2F11249F57DC
:102C100050409AF0F1F088234AF0EE0FFF1FBB1FDF
:102C2000661F771F881F91505040A9F79E3F51059E
:102C300080F00C942E150C94B8155F3FE4F3983E89
:102C4000D4F3869577956795B795F795E7959F5F48
:102C5000C1F7FE2B880F911D9695879597F90895DA
:102C60009F930E9447150F9007FCEE5F0C9481150F
:102C70009F3F31F0915020F4879577956795B795F0
:102C8000880F911D9695879597F908959F938F9337
:102C90007F936F93FF93EF939B01AC010E94C31549
:102CA000EF91FF910E945A162F913F914F915F91A2
:102CB0000C94C315DF93CF931F930F93FF92EF9262
:102CC000DF927B018C01689406C0DA2EEF010E942E
:102CD000D615FE01E894A591259135914591559120
:102CE000A6F3EF010E94C613FE019701A801DA9432
:102CF00069F7DF90EF90FF900F911F91CF91DF91D7
:102D00000895EE0FFF1F0590F491E02D09940F93A5
:102D10001F93CF93DF938230910510F482E090E00F
:102D2000E091DB05F091DC0530E020E0B0E0A0E0D0
:102D3000309799F42115310509F44AC0281B390B45
:102D400024303105D8F58A819B816115710589F19F
:102D5000FB0193838283FE0111C040815181028176
:102D6000138148175907E0F04817590799F410974D
:102D700061F012960C93129713961C933296CF0122
:102D8000DF91CF911F910F9108950093DB05109370
:102D9000DC05F4CF2115310551F04217530738F007
:102DA000A901DB019A01BD01DF01F801C1CFEF01EB
:102DB000F9CF9093DC058093DB05CDCFFE01E20FC8
:102DC000F31F819391932250310939832883D7CF00
:102DD0002091D9053091DA05232B41F4209113017C
:102DE000309114013093DA052093D9052091110117
:102DF000309112012115310541F42DB73EB74091B4
:102E0000150150911601241B350BE091D905F09165
:102E1000DA05E217F307A0F42E1B3F0B281739073A
:102E200078F0AC014E5F5F4F2417350748F04E0F26
:102E30005F1F5093DA054093D905819391939FCFFB
:102E4000F0E0E0E09CCFCF93DF930097E9F0FC0146
:102E5000329713821282A091DB05B091DC05ED015F
:102E600030E020E01097A1F420813181820F931F80
:102E70002091D9053091DA052817390709F061C08A
:102E8000F093DA05E093D905DF91CF910895EA0137
:102E9000CE17DF07E8F54A815B819E014115510598
:102EA000B1F7E901FB83EA8349915991C40FD51F1A
:102EB000EC17FD0761F4808191810296840F951FC4
:102EC000E90199838883828193819B838A83F0E0DF
:102ED000E0E012968D919C9113970097B9F52D9192
:102EE0003C911197CD010296820F931F2091D90535
:102EF0003091DA052817390739F6309751F51092D5
:102F0000DC051092DB05B093DA05A093D905BCCFA0
:102F1000D383C28340815181840F951FC817D9077D
:102F200061F44E5F5F4F88819981480F591F51832B
:102F300040838A819B81938382832115310509F027
:102F4000B0CFF093DC05E093DB059ECFFD01DC0103
:0C2F5000C0CF13821282D7CFF894FFCFBD
:102F5C0010FFFFFFFF00E100000000000001000077
:102F6C00000000DD05800000C18081000000000031
:102F7C000000090474052A041F0470042E044C0478
:0C2F8C00000000000B07F9056F076E073E
:00000001FF
