:100000000C94F3030C941B040C941B040C941B041D
:100010000C941B040C941B040C941B040C941B04E4
:100020000C941B040C941B040C9468180C94D718A3
:100030000C941B040C941B040C941B040C941B04C4
:100040000C941B040C941B040C941B040C941B04B4
:100050000C941B040C941B040C941B040C941E188D
:100060000C941B040C941B040C941B040C941B0494
:100070000C941B040C941B040C941B040C941B0484
:100080000C941B040C941B040C941B040C941B0474
:100090000C941B040C941B040C941B040C941B0464
:1000A0000C941B040C941B040C941B04084AD73BAF
:1000B0003BCE016E84BCBFFDC12F3D6C74319ABD37
:1000C00056833DDA3D00C77F11BED9E4BB4C3E915B
:1000D0006BAAAABE000000803F05A84CCDB2D44E4A
:1000E000B93836A9020C50B9918688083CA6AAAA4C
:1000F0002ABE000000803F0003081F051F1F151BBC
:100100001F11111F110E1F15111F05011F111D1F9A
:10011000041F001F0010101F1F041B1F10101F06BC
:100120001F1F011F1F111F1F05071F311F1F051B49
:1001300017151D011F011F101F0F100F1F0C1F1B74
:10014000041B071C071915130C121E1F120C1E127C
:10015000120C121F0C1A14041F052E2A1E1F021C3B
:10016000001D00201D001F041A011F001E041E1E7A
:10017000021E1E121E3E120C0C123E1E020614120D
:100180000A020F121E101E0E100E1E081E1A041A4E
:100190002E281E1A12161F111F001F001D151711E1
:1001A000151F07041F17151D1F151D01011F1F1502
:1001B0001F17151F00170000100000000000003E70
:1001C0005B4F5B3E3E6B4F6B3E1C3E7C3E1C183CC7
:1001D0007E3C181C577D571C1C5E7F5E1C00183C23
:1001E0001800FFE7C3E7FF0018241800FFE7DBE76C
:1001F000FF30483A060E2629792926407F05050753
:10020000407F05253F5A3CE73C5A7F3E1C1C0808AE
:100210001C1C3E7F14227F22145F5F005F5F060973
:100220007F017F006689956A606060606094A2FFCC
:10023000A29408047E040810207E201008082A1CBE
:1002400008081C2A08081E101010100C1E0C1E0C8A
:1002500030383E3830060E3E0E060000000000002A
:10026000005F00000007000700147F147F14242A99
:100270007F2A12231308646236495620500008076B
:100280000300001C2241000041221C002A1C7F1C8C
:100290002A08083E0808008070300008080808088E
:1002A000000060600020100804023E5149453E00F5
:1002B000427F400072494949462141494D33181453
:1002C000127F1027454545393C4A494931412111A2
:1002D00009073649494936464949291E0000140094
:1002E00000004034000000081422411414141414B7
:1002F000004122140802015909063E415D594E7C15
:100300001211127C7F494949363E414141227F41C9
:1003100041413E7F494949417F090909013E414127
:1003200051737F0808087F00417F41002040413F12
:10033000017F081422417F404040407F021C027F21
:100340007F0408107F3E4141413E7F090909063E76
:100350004151215E7F091929462649494932030145
:100360007F01033F4040403F1F2040201F3F403857
:10037000403F631408146303047804036159494D32
:1003800043007F4141410204081020004141417F68
:1003900004020102044040404040000307080020DE
:1003A000545478407F2844443838444444283844DE
:1003B00044287F385454541800087E090218A4A415
:1003C0009C787F0804047800447D40002040403D34
:1003D000007F1028440000417F40007C04780478AE
:1003E0007C080404783844444438FC182424181841
:1003F000242418FC7C08040408485454542404049D
:100400003F44243C4040207C1C2040201C3C403089
:10041000403C44281028444C9090907C4464544CB8
:100420004400083641000000770000004136080013
:1004300002010204023C2623263C1EA1A161123ABD
:100440004040207A3854545559215555794121540A
:10045000547841215554784020545579400C1E520F
:1004600072123955555559395454545939555454B3
:10047000580000457C410002457D420001457C401A
:10048000F0292429F0F0282528F07C545545002037
:1004900054547C547C0A097F4932494949323248D4
:1004A000484832324A4848303A4141217A3A42403B
:1004B0002078009DA0A07D39444444393D4040400F
:1004C0003D3C24FF2424487E4943662B2FFC2F2BE0
:1004D000FF0929F620C0887E090320545479410081
:1004E00000447D413048484A32384040227A007A00
:1004F0000A0A727D0D19317D2629292F28262929DE
:10050000292630484D4020380808080808080808FF
:10051000382F10C8ACBA2F102834FA00007B000026
:1005200008142A142222142A14089500220095AADD
:10053000005500AAAA55AA55AA000000FF001010F5
:1005400010FF00141414FF001010FF00FF1010F033
:1005500010F0141414FC001414F700FF0000FF0046
:10056000FF1414F404FC141417101F10101F101F94
:100570001414141F00101010F0000000001F1010C1
:1005800010101F10101010F010000000FF101010BD
:10059000101010101010FF10000000FF140000FFDA
:1005A00000FF00001F10170000FC04F414141710C3
:1005B000171414F404F40000FF00F71414141414B6
:1005C0001414F700F7141414171410101F101F142C
:1005D0001414F4141010F010F000001F101F00008D
:1005E000001F14000000FC140000F010F01010FFB9
:1005F00010FF141414FF141010101F00000000F05E
:1006000010FFFFFFFFFFF0F0F0F0F0FFFFFF000032
:10061000000000FFFF0F0F0F0F0F38444438447CD9
:100620002A2A3E147E02020606027E027E026355DC
:100630004941633844443C04407E201E2006027E2B
:10064000020299A5E7A5991C2A492A1C4C7201723D
:100650004C304A4D4D303048784830BC625A463DA7
:100660003E494949007E0101017E2A2A2A2A2A445C
:10067000445F444440514A444040444A5140000091
:10068000FF0103E080FF000008086B6B083612369C
:100690002436060F090F060000181800000010107D
:1006A000003040FF0101001F01011E00191D17123B
:1006B000003C3C3C3C0000000000080B0002020231
:1006C00000000904000001020200000524001001DE
:1006D0000524010101042402060524060001070582
:1006E000810310004009040100020A000000070510
:1006F00002024000000705830240000004030904D1
:1007000012010002EF020140412336800001010284
:10071000030141726475696E6F204C4C4300417255
:100720006475626F7900F0F89C8E8783878E9CF8E1
:10073000F00000FEFF0303030303070EFCF80000B4
:10074000FEFF0303030303070EFCF80000FFFF0096
:10075000000000000000FFFF0000FEFF8383838392
:1007600083C7EE7C380000F8FC0E07030303070E76
:10077000FCF800003F7FE0C08080C0E07F3FFFFFCB
:1007800001010101010101FFFF0000FFFF0C0C0C42
:100790000C1C3E77E3C100007FFFC0C0C0C0C0E0BA
:1007A000703F1F00001F3F70E0C0C0C0E0703F1FDF
:1007B00000007FFFC1C1C1C1C1E3773E1C00001F23
:1007C0003F70E0C0C0C0E0703F1F000000000001AB
:1007D000FFFF01000000D5F08D14A1C881CFD9F131
:1007E000AF2000003C1B11241FBECFEFDAE0DEBFBC
:1007F000CDBF11E0A0E0B1E0E0E7FEE502C005906A
:100800000D92A238B107D9F729E0A2E8B1E001C002
:100810001D92A733B207E1F713E0C3EFD3E004C0A2
:100820002197FE010E94302FC23FD107C9F70E94D5
:10083000A71B0C94362F0C9400002F923F924F92DE
:100840005F926F927F928F929F92AF92BF92CF9260
:10085000DF92EF92FF920F931F93CF93DF93CDB769
:10086000DEB72F970FB6F894DEBF0FBECDBF6A87F5
:100870007B878C879D8749015A0133EC232E36E014
:10088000332E1D828DE090E09F838E8310E000E088
:10089000F101C080D180E280F38020E030E040E8C8
:1008A00053E464817581868197810E946B2B6983F3
:1008B0007A838B839C838E819F8123E0880F991F8D
:1008C0002A95E1F78D53994F9F838E83FC014080D9
:1008D00051806280738020E030E040E853E464811E
:1008E0007581868197810E946B2B6E837F838887B9
:1008F0009987F1E0FF87A501940169817A818B8155
:100900009C810E94132E18160CF01F8621E02E8762
:10091000A50194016E817F81888599850E94132E9F
:1009200018160CF01E868F859E85891709F448C01D
:1009300020E030E040E853E4C701B6010E946B2B91
:100940006B017C0120E030E040E853E4C301B201D8
:100950000E946B2BA70196010E946A2B2B013C0180
:1009600029813A814B815C81C501B4010E946A2BC7
:100970009B01AC01C301B2010E94202E2B013C015E
:1009800029813A814B815C816E817F81888599853F
:100990000E946A2B9B01AC01C301B2010E94532C3F
:1009A000A70196010E946B2B2A853B854C855D85AE
:1009B0000E94132E181624F4ED81F1E0EF27ED8349
:1009C000C801019628E0220E311C1F830E838E3051
:1009D0009105D1F48D812F960FB6F894DEBF0FBE2E
:1009E000CDBFDF91CF911F910F91FF90EF90DF90DE
:1009F000CF90BF90AF909F908F907F906F905F90BF
:100A00004F903F902F9008958C0142CF480F592F5F
:100A1000511D1416150684F5803891056CF597FF65
:100A200002C090E080E04138510514F040E850E009
:100A3000481BFB01E770FF2721E001C0220FEA9568
:100A4000EAF777FF02C0695F7F4FFB0133E0F5955E
:100A5000E7953A95E1F7F695FE2FEE27F795E7959E
:100A6000E80FF91FE353FE4F415030F08191DF0151
:100A70001197822B8C93F8CF0895EDECF1E0A0E074
:100A8000B8E000800EBC8111012C1197A0FDFDCFB4
:100A90000192B9F70DB40895FC018091CC0188232F
:100AA00011F13FB7F89482E08093E9002091F200C1
:100AB000822F90E01816190614F481E090E0882344
:100AC00039F0289844E64093CB014091F1004083EF
:100AD000222339F02091F200211103C02BE620934C
:100AE000E8003FBF08958FEF9FEF08952FB7F89468
:100AF00083E08093E9009091E800892F807295FF50
:100B000004C09091F20080E4891B2FBF089580916A
:100B1000C30181110DC082E08093BF0184E0809306
:100B2000C0011092C2011092C10181E08093C30103
:100B30008FEB91E008953FB7F8948091BB019091BD
:100B4000BC01A091BD01B091BE0126B5A89B05C016
:100B50002F3F19F00196A11DB11D3FBFBA2FA92F3C
:100B6000982F8827BC01CD01620F711D811D911D39
:100B700042E0660F771F881F991F4A95D1F70895A5
:100B80008F929F92AF92BF92CF92DF92EF92FF929D
:100B90006B017C010E949B054B015C01C114D104D7
:100BA000E104F104B9F00E949B05681979098A09EA
:100BB0009B09683E73408105910580F321E0C21ACC
:100BC000D108E108F10888EE880E83E0981EA11C88
:100BD000B11CE4CFFF90EF90DF90CF90BF90AF902B
:100BE0009F908F90089540918401509185012091AC
:100BF00082013091830142175307B4F49091E800C9
:100C00009570E1F39091E80092FD19C08093F10096
:100C1000809184019091850101968F739927892B8A
:100C200019F48EEF8093E800809184019091850102
:100C30000196909385018093840181E0089580E07E
:100C40000895DF92EF92FF920F931F93CF93DF935C
:100C5000D82E8A01EB017B01E40EF51ECE15DF05CF
:100C600059F0D7FE12C0FE0184910E94F30521962F
:100C70008111F4CF0FEF1FEFC801DF91CF911F91CA
:100C80000F91FF90EF90DF9008958881EECF0F9342
:100C90001F93CF93DF931F92CDB7DEB782E0898396
:100CA00042E450E06AEB76E080E80E9421060E9470
:100CB0008705DC0112960D911C910115110589F033
:100CC000D801ED91FC910280F381E02DBE016F5FB0
:100CD0007F4FC801099597FD04C0F8010085118573
:100CE000ECCF89810F90DF91CF911F910F910895E3
:100CF000615030F02091F100FC0120830196F8CF83
:100D0000289884E68093CB010895AF92BF92CF924A
:100D1000DF92EF92FF920F931F93CF93DF936C01BB
:100D20007B018B01040F151FEB015E01AE18BF089C
:100D3000C017D10759F06991D601ED91FC9101904E
:100D4000F081E02DC6010995892B79F7C501DF9166
:100D5000CF911F910F91FF90EF90DF90CF90BF90B8
:100D6000AF9008958F929F92AF92BF92CF92DF92F1
:100D7000EF92FF920F931F93CF93DF936C017B0150
:100D80008A0180910B01882309F45CC08091CC0119
:100D9000882309F457C08091880180FF05C08091A5
:100DA000E00082608093E000E801B12C8AEFA82E79
:100DB00093E0892E2AE3922E209711F4BB20D9F1DB
:100DC0000E94760581110AC0AA94AA20D9F161E097
:100DD00070E080E090E00E94C005EECF8C171D0609
:100DE00011F00CF08C2F9FB7F8948092E9002091BD
:100DF000E80025FD02C09FBFDFCF282F30E0C21BD7
:100E0000D30BF701815020F041914093F100FACFCC
:100E1000E20EF31EBB2021F09092E800B12CEBCF44
:100E20008091E80085FDE7CF9092E800BB24B39461
:100E3000209709F3F3CF5D9884E68093870110161D
:100E400011063CF081E090E0F6019383828310E08C
:100E500000E0C801DF91CF911F910F91FF90EF90BB
:100E6000DF90CF90BF90AF909F908F900895CF93D9
:100E7000DF931F92CDB7DEB76983DC01ED91FC9162
:100E80000280F381E02D41E050E0BE016F5F7F4FB3
:100E900009950F90DF91CF91089583E08093E90049
:100EA0008091F200882319F08AE38093E800089586
:100EB0000E94760590E00895CF93DF931F92CDB7FF
:100EC000DEB7FC018485958597FD08C02FEF3FEFC5
:100ED000358724870F90DF91CF910895CE01019639
:100EE0000E944C05019719F4898190E0F3CF8FEFB0
:100EF0009FEFF0CF0F931F93CF93DF931F92CDB748
:100F0000DEB78C01FC018485958597FF0BC0CE016F
:100F100001960E944C05019771F4898190E0F801D7
:100F200095878487F801848595850F90DF91CF910F
:100F30001F910F9108958FEF9FEFF1CFFC018485F2
:100F4000958597FD0BC09FB7F89482E08093E900E8
:100F50008091F2009FBF90E0019608959FB7F894AA
:100F600082E08093E9008091F2009FBF90E00895B5
:100F70004F925F926F927F928F929F92AF92BF92A9
:100F8000CF92DF92EF92FF920F931F93CF93DF9355
:100F90004C015901FC2DC02FD0E0CE01880D991DC8
:100FA000181619060CF067C09B012E0D311D121684
:100FB00013060CF060C0603471050CF05CC0411584
:100FC000510509F458C0262F2770F22EDB0177FD5A
:100FD000179633E0B595A7953A95E1F73A2F77FF45
:100FE00004C0FF2011F03FEF3A0F662777276819FA
:100FF000790997FC02C070E060E0803891050CF43C
:101000004BC090E89819961BA32F032E000CBB0B26
:101010001A2F10953F3F0CF010E021E08E2D8770C5
:1010200009F420E0E694E694E694E20EAE0DB11DDC
:1010300019971CF028E0E22EE31AE11A310F20E89C
:101040003203D0011124A80DB91DA60FB71F019FAF
:10105000600D711D1124460F571F0F2D0F2C000C12
:10106000110BF33009F41CC1C8F4F13009F4D0C0FD
:10107000F23009F47CC0DF91CF911F910F91FF9066
:10108000EF90DF90CF90BF90AF909F908F907F9028
:101090006F905F904F900895902FB5CFFA3FB1F1C8
:1010A000232F2E0DFB3F39F7321729F3BD01635370
:1010B0007E4FD12CC12CC91608F0A4C0FA01EC0D4A
:1010C000FD1DE491F0E04F01002E02C0880C991C38
:1010D0000A94E2F737FD06C0FB018081E82CE0941A
:1010E0008E218083FF2061F0373054F45B01F0E8FB
:1010F000AF0EB11CE92CE094F50180818E21808334
:10110000FFEFCF1ADF0A6F5F7F4FD5CF232F2E0D52
:10111000321709F4B0CFBD0163537E4FD12CC12CDF
:10112000C91608F069C0FA01EC0DFD1DE491F0E06C
:101130004F01002E02C0880C991C0A94E2F737FD7B
:1011400004C0FB01808188298083FF2051F0373063
:1011500044F45B01F0E8AF0EB11CF50180818929F0
:101160008083FFEFCF1ADF0A6F5F7F4FD9CF6FEF1A
:1011700070E00F2C02C0660F771F0A94E2F76095AB
:101180007095772E232F2E0D321709F474CFFD01A1
:10119000E353FE4F6F01B12CA12CA91638F5FA01CB
:1011A000EA0DFB1DE491F0E02F01002E02C0440C7B
:1011B000551C0A94E2F737FD05C0F60180818623AD
:1011C00084298083FF2059F037304CF44601F0E841
:1011D0008F0E911CF4018081872185298083FFEF88
:1011E000AF1ABF0A8FEFC81AD80AD7CF3F5F4C0F8C
:1011F0005D1FA058BF4FC8CF3F5F4C0F5D1FA05869
:10120000BF4F86CF3F5F4C0F5D1FA058BF4F4CCFE5
:101210006A0D7B1D232F2E0D321709F42CCFFD01F3
:10122000E353FE4F6F01B12CA12CA91688F5FB01E9
:10123000EA0DFB1D8490912C002E02C0880C991C95
:101240000A94E2F780949094FA01EA0DFB1D6490F1
:10125000712C002E02C0660C771C0A94E2F737FD51
:1012600005C0F6018081882186298083FF2049F00E
:1012700037303CF4F601E058FF4F808189218729FF
:101280008083FFEFAF1ABF0A8FEFC81AD80ACDCFFD
:101290003F5F4C0F5D1F6C0F7D1FA058BF4FBCCF31
:1012A000C92ED12CFA01E60FF71FA353BE4F00E859
:1012B00010E00C191D09CC19DD09BE01660F771F5E
:1012C00041E050E06A010F2C01C0CC0C0A94EAF70F
:1012D000592F2E2D792ECF93DF93ED01EF96EF96B8
:1012E00022968590A590FF2059F08C9C4001AC9CE3
:1012F000500137302CF4E880B094EB20E928E992D3
:1013000033233AF0EC90A094EA20E828ED920C9474
:101310008A0911965A9529F72A9551F0572D339538
:101320001124E60FF11DA00FB11DC00FD11DD9CFA3
:10133000DF91CF9111249FCE2D9A0895BC0190E0AA
:1013400080E00C94C0058FB18095807F669B88609B
:101350001C9B8460089580E0EDECF1E081118FEF3B
:10136000002481938193819381930394D1F7109208
:101370008B0110928A0110929101109290010895B0
:10138000CF93C82F0E94A309982F9C2381E09C1320
:1013900080E0CF91089580E00C943D058038910560
:1013A000B8F460347105A0F420E191E061FD94E0AF
:1013B00060FD990F62FD9295687F269FD0011124F0
:1013C000A80FA353BE4F8C9140FF03C0892B8C9371
:1013D000089590958923FBCF2F923F924F925F9271
:1013E0006F927F928F929F92AF92BF92CF92DF9235
:1013F000EF92FF920F931F93CF93DF93EC018B013A
:101400007A016901C61AD70AD7FE03C0D194C194E4
:10141000D10847018C1A9D0A97FE03C091948194CC
:1014200091088C149D0454F49E2D8F2D7901292F41
:10143000382F9C2F8D2FE801092F182FEC16FD0651
:1014400054F4902F812F8901292F382F9C2F8D2F15
:10145000E701E92EF82E17012C1A3D0A2901401A3E
:10146000510A57FE03C0519441945108310137FE8F
:1014700003C08FEF681A780A759467948FEF02178C
:1014800013070CF481E0A82E880FBB08EC16FD06AC
:10149000A4F041E0BE01C8018C149D0414F0B80111
:1014A000CE010E94CE096418750877FE04C00A0DAB
:1014B0001B1D620C731C2196E9CFDF91CF911F9108
:1014C0000F91FF90EF90DF90CF90BF90AF909F90E3
:1014D0008F907F906F905F904F903F902F900895E6
:1014E000EF92FF920F931F93CF93DF937C018B01B9
:1014F000040F111DEB0177FF02C0D0E0C0E0C8016E
:101500000134110514F080E490E0C817D9073CF4C9
:1015100041E0BE01C7010E94CE092196F0CFDF91C4
:10152000CF911F910F91FF90EF9008952F923F92CE
:101530004F925F926F927F928F929F92AF92BF92E3
:10154000CF92DF92EF92FF920F931F93CF93DF938F
:1015500000D01F92CDB7DEB76C015B01242F30E0C5
:101560003B832A83440F4F5F621B730B0E94700AF8
:1015700001E010E08A819B81081B190B1C0131944A
:1015800021943108220C331CF12CE12C6624639445
:10159000712C2A813B81E216F3060CF03FC017FD47
:1015A00009C0215031093B832A8332E0230E311CCC
:1015B000020D131D8FEFE81AF80A92E0690E711CF4
:1015C000060D171D8A81880F8F5F8983482F25019B
:1015D0002A813B81421A530AB201C7018C0D9D1D1D
:1015E0000E94700A45018E189F08462DB4018A8119
:1015F0009B818C0D9D1D0E94700A4981B201C6011C
:101600008E199F090E94700A462DB401C6012A81D5
:101610003B81821B930B0E94700ABBCF0F900F90EF
:101620000F90DF91CF911F910F91FF90EF90DF907E
:10163000CF90BF90AF909F908F907F906F905F9072
:101640004F903F902F9008958F929F92AF92BF92AC
:10165000CF92DF92EF92FF920F931F93CF93DF937E
:101660006D3089F0C0908A01D0908B016A30D1F43E
:10167000109291011092900188E0C80ED11CD09276
:101680008B01C0928A0181E090E0DF91CF911F91A0
:101690000F91FF90EF90DF90CF90BF90AF909F9011
:1016A0008F9008950091900110919101E5E06E9F57
:1016B000E0011124C654DE4F4801F12CF5E0E12C85
:1016C000FF1629F0CE010196FE01E490EC01B12C49
:1016D000A12C4E2D4170B6016A0D7B1DC4010E94E4
:1016E000CE09E694FFEFAF1ABF0A88E0A816B1044E
:1016F00081F7F394EFEF8E1A9E0AF6E0FF12DECF29
:101700000A5F1F4F1093910100939001BCCF80E0BE
:1017100090E0A0E8B3E48093A4019093A501A09386
:10172000A601B093A70180E090E0A2EAB2E4809322
:10173000A0019093A101A093A201B093A3011092E4
:10174000B0011092B1011092B2011092B301109247
:10175000AC011092AD011092AE011092AF01109247
:10176000A8011092A9011092AA011092AB0108954C
:101770004F925F926F927F928F929F92AF92BF92A1
:10178000CF92DF92EF92FF920F931F93CF93DF934D
:10179000CDB7DEB764970FB6F894DEBF0FBECDBFEE
:1017A0002B013C01298B3A8B4B8B5C8BE982FA82B3
:1017B0000B831C83AD82BE82CF82D8862BA93CA925
:1017C0004DA95EA96BA57CA58DA59EA50E946A2B3F
:1017D0006B017C012FA538A949A95AA969817A8191
:1017E0008B819C810E946A2B69877A878B879C8773
:1017F0002FA138A549A55AA56FA578A989A99AA9A5
:101800000E946A2B6D877E878F87988B2BA93CA9B6
:101810004DA95EA96D817E818F8198850E946A2B7A
:101820002D853E854F8558890E94202E4B015C01F5
:1018300029853A854B855C85C701B6010E94202E1B
:101840009B01AC01C501B4010E946B2B69837A83B3
:101850008B839C8320E030E0A9010E94492C8823DF
:1018600009F49DC02FA538A949A95AA9C301B201FD
:101870000E946A2B4B015C012BA93CA94DA95EA9D2
:1018800069897A898B899C890E946A2B2B013C018A
:10189000A5019401C701B6010E94202E6B017C01B5
:1018A000A30192016D857E858F8598890E94202EE7
:1018B0009B01AC01C701B6010E946B2B29813A81C3
:1018C0004B815C810E94532C6B017C0120E030E055
:1018D000A9010E94132E87FD62C020E030E040E89D
:1018E0005FE3C701B6010E94492C18160CF457C0DB
:1018F0002D813E814F8158856BA97CA98DA99EA918
:101900000E946A2BA50194010E94202E4B015C01CC
:10191000A301920169857A858B859C850E94202E82
:101920009B01AC01C501B4010E946B2B29813A8156
:101930004B815C810E94532C4B015C0120E030E024
:10194000A9010E94132E87FD2AC020E030E040E864
:101950005FE3C501B4010E94492C181604F1A701E8
:10196000960160E070E080E89FE30E946A2BA50189
:1019700094010E946A2B6B017C0120E030E0A901F8
:101980000E94132E87FD0BC011E020E030E040E8FC
:101990005FE3C701B6010E94492C18160CF410E051
:1019A000812F64960FB6F894DEBF0FBECDBFDF91D6
:1019B000CF911F910F91FF90EF90DF90CF90BF904C
:1019C000AF909F908F907F906F905F904F90089511
:1019D000CF92EF920F93CF93DF93EC018E816A3019
:1019E00069F49D819C836985860F8E8381E090E0F8
:1019F000DF91CF910F91EF90CF9008956A3378F4F3
:101A0000603308F051C0613209F450C09FE36E3278
:101A100091F098859D5F8C81890F8C83E7CF61342D
:101A2000C0F36B3530F09FE9960F9A3190F799EB40
:101A300001C09FEB960F61E0680F062E000C770B3C
:101A4000AC810A2E000CBB0BE8EFF0E029EF30E090
:101A50008F81813069F50491F901E4904AEF50E0FB
:101A60009923D1F041E050E08E2D877011F450E0C1
:101A700040E02E2D269526952695240F352F311DD5
:101A8000029FF001039FF00D11249E9FA0019F9FD4
:101A9000500D112446505F4F9AEFC92E30E020E0E0
:101AA000CD010E94B807B5CF94E0C4CF9EE3C3CF69
:101AB0000491F901E4904AEF50E09923D1F041E01C
:101AC00050E08E2D877011F450E040E02E2D2695C9
:101AD00026952695240F352F311D029FF001039F77
:101AE000F00D11249E9FA0019F9F500D1124465080
:101AF0005F4F8BEFC82ED2CF089590E080E008951D
:101B00002F923F924F925F926F927F928F929F920D
:101B1000AF92BF92CF92DF92EF92FF920F931F93FB
:101B2000CF93DF93CDB7DEB7E1970FB6F894DEBF62
:101B30000FBECDBF89AB788F6F8B298F3A8F4B8FBC
:101B40005C8FED8EFE8E0F8F18A328960EAD1FAD05
:101B500028972A966EAC7FAC2A972C964EAC5FAC39
:101B60002C972E962EAC3FAC2E9760962EAD3FADA7
:101B700060973A832983C601B5010E944E2C6B837E
:101B80007C838D839E83C601B5010E948D2E6F8359
:101B9000788789879A87B401990C880B990B0E94E2
:101BA000FD2C4B015C01B801110F880B990B0E94B1
:101BB000FD2C6B017C01B301770C880B990B0E9403
:101BC000FD2C69A37AA38BA39CA3B201550C880BAF
:101BD000990B0E94FD2C6DA37EA38FA398A7B10142
:101BE000330C880B990B0E94FD2C69A77AA78BA751
:101BF0009CA729813A81B901330F880B990B0E9468
:101C0000FD2C6DA77EA78FA798AB2B813C814D81C2
:101C10005E81C501B4010E94202E2B013C012F8161
:101C2000388549855A85C701B6010E94202E9B013F
:101C3000AC01C301B2010E946A2B298D3A8D4B8DF4
:101C40005C8D0E946B2B0E94C52C6F87788B898BD3
:101C50009A8B8F8598899A8389832F8138854985C6
:101C60005A85C501B4010E94202E4B015C012B81D5
:101C70003C814D815E81C701B6010E94202E9B01EF
:101C8000AC01C501B4010E946B2B2D8D3E8D4F8D93
:101C900058A10E946B2B0E94C52C6B8B7C8B8D8B6B
:101CA0009E8B2B883C882B813C814D815E8169A174
:101CB0007AA18BA19CA10E94202E6B017C012F8117
:101CC000388549855A856DA17EA18FA198A50E946E
:101CD000202E9B01AC01C701B6010E946A2B298D01
:101CE0003A8D4B8D5C8D0E946B2B0E94C52C6B87AF
:101CF0007C878D879E876B847C842F81388549857E
:101D00005A8569A17AA18BA19CA10E94202E6B010A
:101D10007C012B813C814D815E816DA17EA18FA1D3
:101D200098A50E94202E9B01AC01C701B6010E941C
:101D30006B2B2D8D3E8D4F8D58A10E946B2B0E94D9
:101D4000C52C6B012B012B813C814D815E8169A5E6
:101D50007AA58BA59CA50E94202E4B015C012F81AA
:101D6000388549855A856DA57EA58FA598A90E94BD
:101D7000202E9B01AC01C501B4010E946A2B298D64
:101D80003A8D4B8D5C8D0E946B2B0E94C52C4B01B4
:101D90008B012F81388549855A8569A57AA58BA540
:101DA0009CA50E94202E6F83788789879A872B8134
:101DB0003C814D815E816DA57EA58FA598A90E946D
:101DC000202E9B01AC016F81788589859A850E94C0
:101DD0006B2B2D8D3E8D4F8D58A10E946B2B0E9439
:101DE000C52C6F83788789879A872F8138853C83B4
:101DF0002B838F89988D0797B1F199A9911137C0DD
:101E00003F8930FF09C096014B855C856B897C89D1
:101E10008F8598890E94EC098F8981FF08C02F81E6
:101E20003885A401B6018B859C850E94EC099F89A9
:101E300092FD3FC1E1960FB6F894DEBF0FBECDBF55
:101E4000DF91CF911F910F91FF90EF90DF90CF9096
:101E5000BF90AF909F908F907F906F905F904F90CA
:101E60003F902F90089529A9222309F411C142140B
:101E700053040CF03FC18B819C81821593050CF4B7
:101E800052C1922D832D1201492E582E99818A819B
:101E90007A826982692E782E2B813C812216330644
:101EA000D1F589819A816816790634F499818A81FD
:101EB0007A826982692E782E29813A810217130766
:101EC00034F0601671060CF4380109811A8130E48F
:101ED0002316310408F0AECF41E0460D401BB1019E
:101EE000C801E1960FB6F894DEBF0FBECDBFDF91FB
:101EF000CF911F910F91FF90EF90DF90CF90BF9007
:101F0000AF909F908F907F906F905F904F903F9099
:101F10002F900C940605902F812F09811A819983A7
:101F20008A839B818C813C822B82292E382E9301BF
:101F3000201B310B3C8B2B8BC2012B813C81821BE4
:101F4000930B98878F8389809A80801A910AC101A8
:101F5000821B930B9C878B8729813A81261937092D
:101F60003A832983C10184199509988F8F8B421474
:101F7000530409F444C0920121503109388B2F8752
:101F8000EB80FC80D12CC12CB12CA12C8F859889A1
:101F90008E159F05BCF1C5016F8178850E94082FC1
:101FA0009B01200F311FC6016B857C850E94082F85
:101FB000600F711F8B899C89A80EB91EC80CD91C93
:101FC000621773071CF4922F9B01692F90E4E916A6
:101FD000F10438F46F5F462F421BB701C9010E941C
:101FE00006052FEFE21AF20AD1CF6F8478888B852D
:101FF0009C859A83898316014B885C8898CF588A80
:102000004F86BECFC7018419950929813A81829FE5
:102010006001839FD00C929FD00C1124C7012B81AB
:102020003C81821B930B889D5001899DB00C989D2B
:10203000B00C11242E143F040CF4FCCEC6016F89A1
:10204000788D0E94082F9B01260D371DC5016B85D9
:102050007C850E94082F600F711F89819A81C80EAC
:10206000D91EA80CB91C621773071CF4922F9B0190
:10207000692F90E4E916F10438F46F5F462F421B94
:10208000B701C9010E9406052FEFE21AF20AD2CF6A
:1020900096014B855C856B897C898F8598890E9428
:1020A000EC092F813885A401B6018B859C850E949F
:1020B000EC092B893C894F8558896F817885C4014B
:1020C000E1960FB6F894DEBF0FBECDBFDF91CF9182
:1020D0001F910F91FF90EF90DF90CF90BF90AF9046
:1020E0009F908F907F906F905F904F903F902F9038
:1020F0000C94EC092B813C81241535050CF0CCCED9
:102100002B813C81221533050CF46FCF0B851C8588
:102110006F8478889A8289824B885C882F80388483
:10212000DC82CB82AECE8B819C81841595050CF42C
:10213000FECE0B851C853401DC82CB824F80588417
:10214000F6CE4F925F926F927F928F929F92AF9254
:10215000BF92CF92DF92EF92FF920F931F93CF9394
:10216000DF93CDB7DEB7A8970FB6F894DEBF0FBEEA
:10217000CDBF698F7A8F8B8F9C8F2D8F3E8F4F8F26
:1021800058A3C801B7012BAD3CAD4DAD5EAD298B59
:102190003A8B4B8B5C8B20E030E040E05FE30E94A9
:1021A000202E69877A878B879C8720E030E040E08B
:1021B0005FE3C601B5010E94202E6D877E878F8761
:1021C000988B49845A846B847C8477FA709477F86E
:1021D0007094DC01CB01B05889839A83AB83BC83B4
:1021E00069897A898B899C890E944E2C6D837E83B4
:1021F0008F83988769897A898B899C890E948D2E23
:102200006B017C012D813E814F815885C301B20154
:102210000E94202E698B7A8B8B8B9C8BA701960159
:1022200069817A818B819C810E94202E6D8B7E8BAF
:102230008F8B988FA7019601C301B2010E94202EB7
:1022400069A37AA38BA39CA32D813E814F815885DE
:1022500069817A818B819C810E94202E69837A8397
:102260008B839C832D813E814F81588569857A853A
:102270008B859C850E94202E2B013C01A701960195
:1022800069857A858B859C850E94202E4B015C0197
:10229000A70196016D857E858F8598890E94202EE5
:1022A0006B017C012D813E814F8158856D857E8536
:1022B0008F8598890E94202E6D837E838F839887D7
:1022C0002D893E894F89588D69897A898B899C89A6
:1022D0000E946A2B298D3A8D4B8D5C8D0E946B2B51
:1022E0000E94C52C69877A878B879C8729813A81D0
:1022F0004B815C8169A17AA18BA19CA10E946B2B6F
:102300002D8D3E8D4F8D58A10E946B2B0E94C52CA8
:102310006D877E878F87988B2D893E894F89588D51
:10232000C301B2010E946A2B298D3A8D4B8D5C8DC1
:102330000E946B2B0E94C52C6D8B7E8B8F8B988F90
:10234000A501940169817A818B819C810E946B2B0C
:102350002D8D3E8D4F8D58A10E946B2B0E94C52C58
:1023600069837A838B839C83A7019601C301B201A1
:102370000E946A2B298D3A8D4B8D5C8D0E946B2BB0
:102380000E94C52C6DA37EA38FA398A72D813E81AB
:102390004F815885C501B4010E946B2B2D8D3E8D58
:1023A0004F8D58A10E946B2B0E94C52C4B01A70199
:1023B000960169897A898B899C890E946A2B298D6B
:1023C0003A8D4B8D5C8D0E946B2B0E94C52C6B014E
:1023D0002D813E814F81588569A17AA18BA19CA155
:1023E0000E946B2B2D8D3E8D4F8D58A10E946B2B23
:1023F0000E94C52C2B0129813A814D895E896D850A
:102400007E8589859A850E94EC0994014DA15EA183
:1024100069817A818D899E890E94EC099201A601C9
:10242000B4018DA19EA10E94EC092D853E854985B0
:102430005A85B201C601A8960FB6F894DEBF0FBE4A
:10244000CDBFDF91CF911F910F91FF90EF90DF9063
:10245000CF90BF90AF909F908F907F906F905F9044
:102460004F900C94EC09CF92DF92EF92FF926B01A8
:102470007C01C114D104E104F10441F00E94992AC5
:10248000A70196010E94072B6B017C01C701B601D1
:10249000FF90EF90DF90CF9008952F923F924F9250
:1024A0005F926F927F928F929F92AF92BF92CF92E4
:1024B000DF92EF92FF920F931F93CF93DF93C3ECC2
:1024C000D6E08E01312C212C6BE070E080E090E0B2
:1024D0000E9433126550710981099109620D731DC3
:1024E00077FFE1C068597E4F072E000C880B990BCF
:1024F0000E94FD2C25E33AEF4EE85CE30E94202E7B
:102500004B015C0161E177E280E090E00E943312D0
:102510000E94FD2C20E030E44CE156E40E94532C54
:1025200020E030E04CED52E40E94202E20E030E02C
:1025300040E252E40E946B2B6B017C01C501B401A7
:102540000E944E2CA70196010E94202E2B013C01D7
:10255000C501B4010E948D2EA70196010E94202E74
:102560006B017C0161E177E280E090E00E94331230
:102570000E94FD2C20E030E44CE156E40E94532CF4
:1025800020E030E040E850E40E94202E20E030E0DF
:1025900040E050E40E946A2BA30192010E946B2B41
:1025A0004B015C0161E177E280E090E00E94331230
:1025B000F80180829182A282B3820E94FD2C20E0E9
:1025C00030E44CE156E40E94532C20E030E040E837
:1025D00050E40E94202E20E030E040E050E40E94D1
:1025E0006A2BA70196010E946B2BF8016483758307
:1025F00086839783F9E12F0E311C085F1F4F8EE50C
:10260000281681E0380609F05FCF03E317E0C12CFC
:10261000D12C760146015701288139814A815B819D
:10262000C501B4010E946B2B4B015C012C813D81E3
:102630004E815F81C701B6010E946B2B6B017C014B
:1026400028960C171D0741F720E030E040E651E4E2
:10265000C501B4010E94532C0E94C52C7093C20680
:102660006093C10620E030E040E651E4C701B601C6
:102670000E94532C0E94C52C7093C0066093BF0625
:10268000DF91CF911F910F91FF90EF90DF90CF904E
:10269000BF90AF909F908F907F906F905F904F9082
:1026A0003F902F900895683681E078070CF41CCF96
:1026B0006856714019CFCF93DF9360E072E080E0FD
:1026C00090E00E943312C2E9D1E00E94FD2C6883A1
:1026D00079838A839B8360E072E080E090E00E94CF
:1026E00033120E94FD2C6C837D838E839F8362E076
:1026F00070E080E090E00E94331279876887DF9174
:10270000CF9108952F923F924F925F926F927F9256
:102710008F929F92AF92BF92CF92DF92EF92FF92F1
:102720000F931F93CF93DF93CDB7DEB7A2970FB66A
:10273000F894DEBF0FBECDBF1092BC061092BB0650
:1027400025E0222E312C6EE070E080E090E00E94C7
:102750003312FB0183E0EE0FFF1F8A95E1F7ED5383
:10276000F94F208131814281538129833A834B8300
:102770005C8324813581468157812D833E834F833D
:102780005887CB0101966EE070E00E94082FAC01E3
:1027900093E0440F551F9A95E1F74D53594F5A87CF
:1027A000498729813A814B815C81A985BA856D91E0
:1027B0007D918D919C910E946A2B2B013C012D8172
:1027C0003E814F815885E985FA85648175818681CE
:1027D00097810E946A2B6B017C01A30192010E94E8
:1027E000EA2B69877A878B879C870E94992A20E148
:1027F00037E240E050E00E94072B0E94FD2C20E0D1
:1028000030E44CE156E40E94532C4B015C01809172
:10281000BB069091BC064EE2489F9001499F300D47
:1028200011242B523A4F3E872D87A5019401C301F5
:10283000B2010E94202E29813A814B815C810E9445
:102840006B2B20E030E040E853E40E946B2BAD8519
:10285000BE856D937D938D939C931397A5019401F1
:10286000C701B6010E94202E2D813E814F815885DF
:102870000E946B2B20E030E040E853E40E946B2B79
:10288000ED85FE85648375838683978329853A85E4
:102890004B855C8520873187428753876AE570E0E6
:1028A00080E090E00E9433120091BB061091BC06BC
:1028B000BEE2B09FF001B19FF00D1124EB52FA4F30
:1028C000758764870F5F1F4F1093BC060093BB068C
:1028D000E1E02E1A310809F036CF25ED35E03AA3B4
:1028E00029A3312C212C201631060CF061C1A9A19D
:1028F000BAA114968D919D910D90BC91A02D8D8FB4
:102900009E8FAF8FB8A3E9A1FAA1C084D184E284DD
:10291000F384C701B6010E944E2C4B015C01C70134
:10292000B6010E948D2E6B017C0120E030E040EC6E
:102930005FEBC501B4010E94202E6D837E838F83DF
:10294000988720E030E040E450ECC701B6010E94D7
:10295000202E69877A878B879C8720E030E040ECC7
:102960005FEBC701B6010E94202E6D877E878F879F
:10297000988B20E030E040E450ECC501B4010E94A7
:10298000202E69837A838B839C8320E030E040ECA7
:102990005FE3C501B4010E94202E698B7A8B8B8B7B
:1029A0009C8B20E030E040EC5FE3C701B6010E9461
:1029B000202E6D8B7E8B8F8B988F20E030E040E453
:1029C00050E4C701B6010E94202E2B013C0120E0FB
:1029D00030E040E450E4C501B4010E94202E698F2C
:1029E0007A8F8B8F9C8F20E030E0A901C501B40164
:1029F0000E94202EA30192010E946B2BA9A1BAA1D3
:102A00002D913D914D915C910E946B2B4B015C018E
:102A1000E9A1FAA180829182A282B38220E030E013
:102A2000A901C701B6010E94202E29813A814B815C
:102A30005C810E946B2B2D8D3E8D4F8D58A10E9485
:102A40006B2B6B017C01A9A1BAA11496CD92DD92EA
:102A5000ED92FC92179729853A854B855C856D81AF
:102A60007E818F8198850E946A2BA50194010E9426
:102A70006B2BE9A1FAA166877787808B918B2981DF
:102A80003A814B815C816D857E858F8598890E9416
:102A90006B2BA70196010E946B2BA9A1BAA152969C
:102AA0006D937D938D939C93559729853A854B859E
:102AB0005C8569897A898B899C890E946A2BA5012A
:102AC00094010E946B2BE9A1FAA1668B778B808F12
:102AD000918F2D893E894F89588D69817A818B81AB
:102AE0009C810E946B2BA70196010E946B2BA9A1D0
:102AF000BAA15A966D937D938D939C935D97A30194
:102B0000920169897A898B899C890E946A2BA50127
:102B100094010E946B2BE9A1FAA1668F778F80A3A5
:102B200091A3298D3A8D4B8D5C8D6D897E898F891E
:102B3000988D0E946B2BA70196010E946B2BA9A177
:102B4000BAA192966D937D938D939C939597A301D3
:102B500092016D817E818F8198850E946A2BA501EB
:102B600094010E946B2BE9A1FAA166A377A380A729
:102B700091A7298D3A8D4B8D5C8D6D857E858F85D6
:102B800098890E946B2BA70196010E946B2BA9A12B
:102B9000BAA19A966D937D938D939C939D97BFEF69
:102BA0002B1A3B0AE9A1FAA1BE96FAA3E9A39BCE90
:102BB000E2EEF7E08FEF98E0108273968E179F0792
:102BC000D9F7A2960FB6F894DEBF0FBECDBFDF9146
:102BD000CF911F910F91FF90EF90DF90CF90BF901A
:102BE000AF909F908F907F906F905F904F903F90AD
:102BF0002F9008952F923F924F925F926F927F9203
:102C00008F929F92AF92BF92CF92DF92EF92FF92FC
:102C10000F931F93CF93DF93CDB7DEB72E970FB6E9
:102C2000F894DEBF0FBECDBF1092BE061092BD0657
:102C300003E010E06EE070E080E090E00E9433126C
:102C4000FB0183E0EE0FFF1F8A95E1F7ED53F94F8B
:102C5000208131814281538129833A834B835C8374
:102C600024813581468157812D833E834F83588748
:102C7000CB0101966EE070E00E94082FAC0193E05A
:102C8000440F551F9A95E1F74D53594F5A8749877D
:102C900029813A814B815C81E985FA856081718166
:102CA000828193810E946A2B2B013C012D813E8100
:102CB0004F815885E985FA85648175818681978180
:102CC0000E946A2B6B017C01A30192010E94EA2BF6
:102CD00069877A878B879C870E94992A20E137E24F
:102CE00040E050E00E94072B0E94FD2C20E030E4E1
:102CF0004CE156E40E94532C4B015C012090BD0630
:102D00003090BE064EE0429D9001439D300D11244F
:102D10002150374F3E872D87AC019B01C301B20183
:102D20000E94202E29813A814B815C810E946B2B6D
:102D300020E030E040E853E40E946B2BED85FE85F7
:102D40006083718382839383A5019401C701B601D7
:102D50000E94202E2D813E814F8158850E946B2B31
:102D600020E030E040E853E40E946B2BED85FE85C7
:102D700064837583868397832BED3FE049EC5FE3A3
:102D800069857A858B859C850E946B2BED85FE85F8
:102D90006087718782879387FFEF2F1A3F0A3092EF
:102DA000BE062092BD060150110909F043CF2E96B0
:102DB0000FB6F894DEBF0FBECDBFDF91CF911F914C
:102DC0000F91FF90EF90DF90CF90BF90AF909F90CA
:102DD0008F907F906F905F904F903F902F900895CD
:102DE000FC0101900020E9F73197AF01481B590B16
:102DF000BC0183E399E00C9485068F929F92AF9279
:102E0000BF920F931F93CF93DF93CDB7DEB7A197F8
:102E10000FB6F894DEBF0FBECDBF19A2423008F442
:102E20004AE08E010F5D1F4F842E912CB12CA12CF6
:102E3000A50194010E94392BE62FB901CA01EA309D
:102E4000F4F4E05DD801EE938D01232B242B252B88
:102E500079F790E080E0109719F0CD010E94F0160C
:102E6000A1960FB6F894DEBF0FBECDBFDF91CF9114
:102E70001F910F91BF90AF909F908F900895E95C44
:102E8000E1CFCF92DF92EF92FF92CF93DF936B016E
:102E90007C016DE283E399E00E94240BEC0166273C
:102EA0007727CB016C197D098E099F094AE00E94A2
:102EB000FD168C0F9D1FDF91CF91FF90EF90DF905B
:102EC000CF900895CF93DF930E94F016EC0186E433
:102ED00091E00E94F0168C0F9D1FDF91CF91089515
:102EE000BC01990F880B990B97FD0C9441174AE090
:102EF0000C94FD16CF92DF92EF92FF920F931F93E7
:102F0000CF93DF9380910D0190910E0101971816D8
:102F100019068CF590930E0180930D011092B50166
:102F20001092B4010E94870B1092830710929607AB
:102F30001092A9071092BC071092CF07C5EDD5E0FB
:102F400010E000E08AE5C82ED12CE12CF12C809114
:102F5000BB069091BC06081719070CF05CC00E94D4
:102F6000992AA70196010E94072B7D876C870F5F26
:102F70001F4FAE96ECCF83E090E090930E018093CC
:102F80000D0180E29EE49093100180930F01109256
:102F90009F0110929E010E94AB098AE090E09093FD
:102FA0009101809390018EE190E090938B0180934A
:102FB0008A0189E491E00E94621784E591E00E9411
:102FC000621785E691E00E9462170E94CB0968EEC5
:102FD00073E080E090E00E94C00580919D018093A5
:102FE0009C010E94A30980939D010E94A30988234C
:102FF000A1F30E949B05611571058105910511F0F2
:103000000E94E82A0E944D120E94FA150E94821323
:103010000E945B1383CFE2EEF7E01082739688E0A4
:10302000EF3FF807D1F7DF91CF911F910F91FF90FC
:10303000EF90DF90CF9008950C94F12A1F920F9299
:103040000FB60F9211242F933F938F939F93AF93BB
:10305000BF938091B7019091B801A091B901B0914F
:10306000BA013091B60123E0230F2D3758F50196B0
:10307000A11DB11D2093B6018093B7019093B801B3
:10308000A093B901B093BA018091BB019091BC01AA
:10309000A091BD01B091BE010196A11DB11D80930B
:1030A000BB019093BC01A093BD01B093BE01BF9141
:1030B000AF919F918F913F912F910F900FBE0F90E5
:1030C0001F90189526E8230F0296A11DB11DD2CF9F
:1030D0001F920F920FB60F9211248F939F9380919E
:1030E000E1009091E100937F9093E10083FF0FC096
:1030F0001092E90091E09093EB001092EC0092E3C3
:103100009093ED001092CC0198E09093F00082FF34
:1031100022C093E09093E9009091F200992319F076
:103120009AE39093E80090918701992341F0909160
:103130008701915090938701911101C05D9A909100
:10314000CB01992341F09091CB0191509093CB0109
:10315000911101C0289A84FF18C08091E2008E7EF0
:1031600081608093E2008091E1008F7E8093E10096
:10317000809188018E7E8061809388019F918F91DC
:103180000F900FBE0F901F90189580FFF7CF809182
:10319000E2008E7E80618093E2008091E1008E7E6D
:1031A0008093E100809188018E7E8160E5CF1F923F
:1031B0000F920FB60F921124CF92DF92EF92FF92EF
:1031C0000F931F932F933F934F935F936F937F932F
:1031D0008F939F93AF93BF93EF93FF93CF93DF931F
:1031E000CDB7DEB76C97DEBFCDBF1092E9008091FE
:1031F000E80083FF25C068E0CE0145960E9478066E
:1032000082EF8093E8008D8987FF39C09091E800B4
:1032100090FFFCCF982F907609F034C19E894F899A
:10322000588D2F89F88C911131C0803861F58091CB
:1032300089018093F1001092F1008EEF8093E800F5
:103240006C960FB6F894DEBF0FBECDBFDF91CF9165
:10325000FF91EF91BF91AF919F918F917F916F916E
:103260005F914F913F912F911F910F91FF90EF90A0
:10327000DF90CF900F900FBE0F901F9018959EEF8C
:103280009093E800C7CF1092F100D5CF913059F458
:103290008111D3CF4130510581F6809189018D7F15
:1032A00080938901CACF933049F48111C6CF413050
:1032B000510519F6809189018260F2CF953041F471
:1032C0008091E80080FFFCCF20682093E300B5CF19
:1032D000963009F0A9C00B8D1C8D22E01092E900F8
:1032E0001092850110928401F2122EC01092830177
:1032F000109282010E9447061F8299E09983FA8208
:1033000091E09E8390EA98879AEF998720918401B3
:1033100030918501275F3F4F3C832B838D83109233
:10332000E9001092850110928401109383010093AB
:10333000820149E050E0BE016F5F7F4F80E00E9454
:1033400021060E94470679CF1093830100938201E2
:103350000E948705DC0112960D911C910115110543
:1033600009F451C1D801ED91FC910480F581E02D63
:10337000BE016B5E7F4FC8010995009709F03EC101
:10338000F80100851185EACFF3E0FF120EC08F89A6
:10339000882309F440C0823061F440E867E08EE1A0
:1033A00097E00E94091B811148CF81E28093EB00D6
:1033B00047CF813029F440E86BE082E197E0F1CF1C
:1033C000833099F70E948705DC011296ED90FC90FE
:1033D0008E010F5F1F4F6801E114F10479F0D701EE
:1033E000ED91FC910680F781E02DB801C7010995A8
:1033F000080F111DF701E084F184EECFD8011C9273
:10340000F60101900020E9F73197BF016C197D09A1
:1034100040E0C601C6CF6CEF76E0FB01449150E07E
:1034200080E80E94210609CF973009F4BECF98307A
:1034300021F481E08093F10000CF993009F0FDCEB6
:10344000837009F0B2CFE6E1F1E081E031E096E38C
:103450002191222371F08093E9003093EB00DF018A
:1034600011972C912093EC009093ED008F5F8730A3
:1034700079F78EE78093EA001092EA008F898093B3
:10348000CC01DBCE8B8D9C8D1092E90010928501D2
:10349000109284019093830180938201898D811120
:1034A00092C08E899D89913A49F4813209F07DCF8D
:1034B00047E050E064E071E080E0B3CF913209F082
:1034C00074CF833269F48F89988DB0E0A0E0809347
:1034D000000190930101A0930201B0930301ADCECE
:1034E000803269F48091E80082FFFCCF67E084E0DD
:1034F00091E00E9478068BEF8093E8009ECE8232A6
:1035000009F09BCE8F8980930B01EEEFFFE7859149
:1035100094918B3F9C4D51F1E0E0F8E080910401E3
:1035200090910501A0910601B0910701803B944064
:10353000A105B105F1F480910B0180FD1AC0EE3FA9
:103540008AE0F80789F587E797E791838083809180
:1035500060008093860188E19BE00FB6F894A895FF
:10356000809360000FBE9093600067CEEEEFFAE0AC
:10357000D5CF808191818737974709F05ECEA89596
:1035800080916000886180936000809186018093C3
:103590006000EE3F2AE0F20789F08091FE0A9091E8
:1035A000FF0A9183808349CE808191818737980774
:1035B00051F29093FF0A8093FE0AC5CF1092FF0A42
:1035C0001092FE0A3ACE0E948705DC0112960D91F8
:1035D0001C910115110509F4E8CED801ED91FC917B
:1035E0000190F081E02DBE016B5E7F4FC80109950F
:1035F000811123CEF80100851185EBCF181619062D
:103600000CF41BCED2CEF1E0FF12BECE60E077E02C
:1036100004CFEF92FF920F931F93CF93DF93F82E77
:10362000192FE62E042F81E0860F880F0E94F305E4
:1036300083E00E94F305CF2DD12FEC0EFD2EF11C5F
:10364000CE15DF05B9F007FF13C0FE0184910E947B
:10365000F305182F80E00E94F30581232196811144
:10366000EFCFDF91CF911F910F91FF90EF900895D1
:103670008881EDCF81E0F5CF1092360710923507A3
:1036800088EE93E0A0E0B0E080933707909338078E
:10369000A0933907B0933A0780E291E09093340702
:1036A000809333078FEF9FEF9093400780933F07FE
:1036B00010923609109235098EE391E09093340907
:1036C0008093330910922C0910922B0982E391E028
:1036D00090932A098093290988E08093320981E038
:1036E0008093310910922E0910922F0910922D0902
:1036F0008093300984EC99E090930C0980930B0936
:1037000090931A09809319099093280980932709A7
:10371000E2EEF7E08FEF98E0128A118A73968E1727
:103720009F07D1F710929507109294071092A8075F
:103730001092A7071092BB071092BA071092CE07FB
:103740001092CD071092E1071092E0070895CF93F1
:10375000DF93CDB7DEB7E8970FB6F894DEBF0FBEA4
:10376000CDBF789484B5826084BD84B5816084BD0A
:1037700085B5826085BD85B5816085BD80916E000F
:10378000816080936E001092810080918100826040
:10379000809381008091810081608093810080917D
:1037A000800081608093800080919100826080938E
:1037B00091008091910081608093910080919000B0
:1037C0008160809390008091C10084608093C100EB
:1037D0008091C10082608093C1008091C1008160AE
:1037E0008093C1008091C30081608093C300809169
:1037F000C00082608093C0008091C200816080938D
:10380000C20080917A00846080937A0080917A006F
:10381000826080937A0080917A00816080937A0040
:1038200080917A00806880937A001092CC01109287
:103830008901109288018091D70081608093D70020
:1038400080EA8093D80089B5806189BD89B582609E
:1038500089BD09B400FEFDCF61E070E080E090E03A
:103860000E94C0058091D8008F7C80618093D80031
:103870008091E000807F8093E0008091E1008E7E67
:103880008093E1008DE08093E200559A209A8FEFBB
:103890009FEF9093400780933F0760ED77E080E0D3
:1038A00090E00E94C00581EC80937C0085B1806F20
:1038B00085B984B1877E84B984B1876E84B95E9AF4
:1038C0005F988AB1806D8AB9769A6E9881B3806F5D
:1038D00081BB899880B38D7080BB80E58CBD81E011
:1038E0008DBD85E090E00E949E095F9A85E090E0A2
:1038F0000E949E095E985C98E6EDF7E084918EBD8B
:1039000000000DB407FEFDCF319627E0E33EF2073D
:10391000A9F75C9A81E880936400809165008160DA
:10392000809365000E94CB0980E80E94C00988232B
:10393000A9F05C9885EA8EBD00000DB407FEFDCFAE
:103940005C9A2E982F982D988091640080628093C5
:10395000640081E083BF889513BEFCCF84E00E94A1
:10396000C009882309F448C02D9884E80E94C00942
:103970008823E1F00E949C0988EC90E00E949E0957
:103980002F9882E090E00E94F12A8F3F29F06FEF9C
:1039900082E090E00E94F92A84EF91E00E949E0963
:1039A0002F9A84E80E94C0098111FBCF84E10E9414
:1039B000C0098823E1F00E949C0988EC90E00E94F5
:1039C0009E092E9882E090E00E94F12A882329F037
:1039D00060E082E090E00E94F92A84EF91E00E948A
:1039E0009E092E9A84E10E94C0098111FBCF88ECC8
:1039F00090E00E949E09B2CF0E949C0982E090E074
:103A00000E941C18882309F461C03E9A3F9A81E005
:103A100090E00E941C18382F3470732E81FF15C05F
:103A200031112E98A1EF2A2E33243A9408E010E0A9
:103A3000BCE6EB2EF12C80E40E94C009882309F437
:103A400048C02E9A2F9A0E949C0982E390E00E941F
:103A50009E090E94A3098111F8CF80E180930C0197
:103A60000E949B05611571058105910511F00E9469
:103A7000E82A0E944D120E94FA150E9482130E94A9
:103A80005B130E94870B1092830710929607109287
:103A9000A9071092BC071092CF078FB7F8944091F6
:103AA000B7015091B8016091B9017091BA018FBF0F
:103AB00080918E01882309F4DEC010928E0140E0CF
:103AC00050E0452B51F30E940000E7CF3E983F980D
:103AD0009ECF772031F044E02416310411F42E9A61
:103AE0002F9881E00E943D05910137FE04C02227F6
:103AF00033272219330927703327C10137FC079672
:103B0000F3E095958795FA95E1F737FE05C00197A3
:103B1000D801A21BB30B9D01BC017695762F6627B9
:103B20007795679563537E4FB0E0A0E02801421A75
:103B3000530A8E3FEFEF9E0709F446C048E550E078
:103B4000FD01E258F84F5F014B01F0E88F0E911C28
:103B50008F3F9807C9F0F501E41BF50B64906701EE
:103B6000C41AD50AC60ED71EE62DF0E0022E02C0FA
:103B7000EE0FFF1F0A94E2F7FE83ED83F6016080EB
:103B8000FD816F2AF601608221153105C9F0F5012A
:103B9000E41BF50B64906701C41AD50AC80CD91C44
:103BA000E62DF0E0042C02C0F595E7950A94E2F7C3
:103BB000FE83ED83F6016080FD816F2AF60160824D
:103BC0004150510909F0C4CF0196A85ABF4F60581F
:103BD0007F4FA03BB10509F0ACCF0E94CB098FE02D
:103BE00090E00E949E09FFEF2F1A3F0A29E122165A
:103BF000310409F020CF772011F02F9A2D9880E919
:103C000091E00E949E090E949C0981E090E00E9440
:103C10001C1880FF1ACF8AE090E00E941C189FEFCA
:103C2000980F9E3F08F011CF22E330E030939101CE
:103C30002093900128E330E030938B0120938A0198
:103C40004BE050E05A834983682F83E399E00E9458
:103C5000240B89819A810E941C18A981BA8111962E
:103C6000BA83A983519781F70E94CB0988EE93E02C
:103C70000E949E09EACE80918F01B42FB81B8B2F32
:103C800090910C01B91748F48F5F891708F017CF8E
:103C900081E083BF889513BE12CF81E080938E01AF
:103CA00040938F0180918C0190918D0101969093AA
:103CB0008D0180938C01E0919D01E98BE0939C0143
:103CC0000E94A309898380939D010E94AB09809182
:103CD000B4019091B5019C012F5F3F4F3C8F2B8F1A
:103CE0003093B5012093B40180E20E94C00988237B
:103CF000B1F02DEC3CEC4CEC5DE36091B0017091C7
:103D0000B1018091B2019091B3010E946A2B60933E
:103D1000B0017093B1018093B2019093B30180E43C
:103D20000E94C0098823B1F02DEC3CEC4CEC5DE323
:103D30006091B0017091B1018091B2019091B30195
:103D40000E946B2B6093B0017093B1018093B2011C
:103D50009093B30188E00E94C009882309F458C0F9
:103D600000910F0110911001101611060CF050C0B7
:103D70008090A8019090A901A090AA01B090AB01F9
:103D80002BED3FE049EC5FE36091B0017091B10130
:103D90008091B2019091B3010E946A2B6B017C016A
:103DA0000E944E2C2AE037ED43EA5CE30E94202E6D
:103DB0009B01AC016091AC017091AD018091AE01AD
:103DC0009091AF010E946B2B6093AC017093AD0199
:103DD0008093AE019093AF01C701B6010E948D2E72
:103DE0002AE037ED43EA5CE30E94202EA50194010E
:103DF0000E946B2B6093A8017093A9018093AA0184
:103E00009093AB01005111091093100100930F0121
:103E10008091A4019091A501A091A601B091A70164
:103E20008D839E83AF83B8876091C1067091C2066F
:103E30007395072E000C880B990B0E94FD2C2D8189
:103E40003E814F8158850E946A2B4B015C01209175
:103E5000A0013091A1014091A2015091A3012D87B1
:103E60003E874F87588B6091BF067091C00673954F
:103E7000072E000C880B990B0E94FD2C2D853E858A
:103E80004F8558890E946A2B6B017C01A501940122
:103E9000C501B4010E94202E2B013C01A70196010F
:103EA000C701B6010E94202E9B01AC01C301B201E3
:103EB0000E946B2B0E949B2E2B013C0120E030E0E6
:103EC000A9010E94132E181684F4A3019201C501C2
:103ED000B4010E94532C4B015C01A3019201C70164
:103EE000B6010E94532C6B017C012AE037ED43EAB6
:103EF0005BE3C501B4010E94202E2091AC013091FA
:103F0000AD014091AE015091AF010E946B2B6987CA
:103F10007A878B879C872AE037ED43EA5BE3C7010A
:103F2000B6010E94202E2091A8013091A901409154
:103F3000AA015091AB010E946B2B2B013C012985FA
:103F40003A854B855C856D817E818F8198850E9445
:103F50006B2B4B015C018092A4019092A501A09271
:103F6000A601B092A701A30192016D857E858F8580
:103F700098890E946B2B6B017C01C092A001D092AA
:103F8000A101E092A201F092A30124E63BE34FE7F6
:103F90005FE369857A858B859C850E94202E6093DE
:103FA000AC017093AD018093AE019093AF0124E614
:103FB0003BE34FE75FE3C301B2010E94202E609311
:103FC000A8017093A9018093AA019093AB0120E00E
:103FD00030E0A901C501B4010E94492C87FF08C047
:103FE0001092A4011092A5011092A6011092A701AF
:103FF00020E030E040E054E46091A4017091A5011C
:104000008091A6019091A7010E94132E181664F4C6
:1040100080E090E0A0E0B4E48093A4019093A50137
:10402000A093A601B093A70120E030E0A901C70149
:10403000B6010E94492C87FF08C01092A00110927F
:10404000A1011092A2011092A30120E030E040E013
:1040500054E46091A0017091A1018091A20190911E
:10406000A3010E94132E181664F480E090E0A0E0F3
:10407000B4E48093A0019093A101A093A201B09316
:10408000A3018091A4019091A501A091A601B091F6
:10409000A7018D879E87AF87B88B20E030E040E88E
:1040A00052E4BC01CD010E946A2B4B015C0180925D
:1040B000D1059092D205A092D305B092D40520915B
:1040C000A0013091A1014091A2015091A301298743
:1040D0003A874B875C8720E030E040E052E4698516
:1040E0007A858B859C850E946A2B6B017C01C0922E
:1040F000CD05D092CE05E092CF05F092D00520E01C
:1041000030E0A901C501B4010E94492C87FF08C015
:104110001092D1051092D2051092D3051092D405B9
:1041200020E030E040EC53E46091D1057091D2057D
:104130008091D3059091D4050E94132E181664F433
:1041400080E090E0A0ECB3E48093D1059093D20599
:10415000A093D305B093D40520E030E0A901C701B6
:10416000B6010E94492C87FF08C01092CD0510921D
:10417000CE051092CF051092D00520E030E040EE41
:1041800053E46091CD057091CE058091CF0590915B
:10419000D0050E94132E181664F480E090E0A0EE83
:1041A000B3E48093CD059093CE05A093CF05B09353
:1041B000D005398932FD4EC0498142FF4BC0E3E84A
:1041C000F7E050E040E020812111C3C26091B001CE
:1041D0007091B1018091B2019091B301E3E1E49F4C
:1041E000D001E59FB00D1124AD57B84FBA83A98314
:1041F00021E02C932D853E854F85588911962D936E
:104200003D934D935C93149729853A854B855C8546
:1042100015962D933D934D935C9318972BED3FE0AE
:1042200049EC5FE30E946A2B6B017C010E944E2CDB
:10423000E981FA816187728783879487C701B60114
:104240000E948D2EA981BA811D966D937D938D93C9
:104250009C935097E3E8F7E0FA8FE98FFE83ED83B4
:10426000AD81BE818C91882309F465C151968D91F1
:104270009C915297019652969C938E9351971996C2
:104280002D913D914D915C911C9711966D917D9171
:104290008D919C9114970E946B2B2B013C01ED8119
:1042A000FE814182528263827482258536854785EC
:1042B000508965817681878190850E946B2B698307
:1042C0007A838B839C83AD81BE8115966D937D939C
:1042D0008D939C9318979B01AC01C301B2010E947E
:1042E0001D04882329F0ED81FE811082128A118A33
:1042F00020E030E0A901C301B2010E94492C87FDF2
:1043000021C020E030E040E054E4C301B2010E944B
:10431000132E1816BCF020E030E0A90169817A81E3
:104320008B819C810E94492C87FD0CC020E030E0ED
:1043300040E054E469817A818B819C810E94132E34
:1043400018163CF4AD81BE811C9252961C921E92AE
:104350005197ED81FE8161897289072E000C880BCF
:10436000990B0E94FD2C20E030E040EF52E40E94C7
:10437000132E18163CF4AD81BE811C9252961C92ED
:104380001E925197E5EDF5E0F8AFEFAB912C812C43
:10439000AFA9B8AD9296BC91BF8FEFA9F8ADF3A1CC
:1043A000FBA3AFA9B8AD94962C9094979596BC9129
:1043B000BFA3EFA9F8ADF68DFBA7AFA9B8AD5F9687
:1043C000BC91BFA7EFA9F8ADF0A1F8ABAFA9B8AD0C
:1043D00091963C90919752962D913D914D915C9183
:1043E0005597298B3A8B4B8B5C8B1E962D913D916B
:1043F0004D915C9151972D8B3E8B4F8B588FBFA168
:10440000BF932F92EBA1EF93FF8DFF933F9228A9CB
:104410002F933FA53F934BA54F93AFA9B8AD5D96A2
:104420008C915D978F935C968C915C978F935B9644
:104430008C915B978F935A968C915A978F9359963C
:104440008C9159978F9358968C9158978F93579634
:104450008C9157978F9356968C918F93A988BA8891
:10446000CB88DC88ED88FE880F89188D29813A81F8
:104470004B815C81C301B2010E94B80B0FB6F89466
:10448000DEBF0FBECDBF89ABAFA9B8AD9D968C91F5
:104490009D978F939C968C919C978F939B968C91D4
:1044A0009B978F939A968C919A978F9399968C91CC
:1044B00099978F9398968C9198978F9397968C91C4
:1044C00097978F9396968C918F93BFA1BF932F92BE
:1044D000EBA1EF93FF8DFF933F9228A92F933FA568
:1044E0003F934BA54F93A988BA88CB88DC88ED8889
:1044F000FE880F89188D29813A814B815C81C30127
:10450000B2010E94B80B0FB6F894DEBF0FBECDBF4C
:10451000B9A9B11126C1811124C1EFEF8E1A9E0AEB
:104520002FA938AD225D3F4F38AF2FAB35E0831652
:10453000910409F02DCF4D815E814D5E5F4F5E830A
:104540004D8382EE97E08417950709F089CE80E1CC
:104550000E94C009811131C1A091BB06B091BC0677
:10456000BE8BAD8B05ED15E018011A8219828D897D
:104570009E89A981BA81A817B9070CF072C2F1010E
:10458000848595850197181619060CF467C22AE5EB
:1045900030E03587248784819581A681B781898B16
:1045A0009A8BAB8BBC8BC080D180E280F3802D8551
:1045B0003E854F855889C701B6010E946A2B2B01A1
:1045C0003C0129853A854B855C8569897A898B8987
:1045D0009C890E946A2B4B015C01A3019201C301DB
:1045E000B2010E94202E2B013C01A5019401C501BE
:1045F000B4010E94202E9B01AC01C301B2010E94B4
:104600006B2B20E030E041E655E40E94492C18165F
:104610000CF496C02B8D3C8D253B31050CF490C0DD
:10462000E2EEF7E018A21F8E808181110BC283E1B8
:104630004F8D58A1849FF001859FF00D1124EE51FC
:10464000F84F91E09083C182D282E382F48229897B
:104650003A894B895C892583368347835087A70134
:1046600096016D857E858F8598890E946A2B4B0106
:104670005C0129893A894B895C8969857A858B85B2
:104680009C850E946A2B2B013C01A5019401C50168
:10469000B4010E94202E6B017C01A3019201C30191
:1046A000B2010E94202E9B01AC01C701B6010E94FD
:1046B0006B2B0E949B2E6B017C012FE632E143E8BD
:1046C0005AE30E94492C87FF08C06FE6C62E62E1BC
:1046D000D62E63E8E62E6AE3F62EA3E14F8D58A1AD
:1046E000A49FC001A59F900D1124FC01EE51F84F2D
:1046F000FA8BE98BA7019601C501B4010E94532CE6
:1047000020E030E040E05FE30E94202EA989BA89D2
:1047100019966D937D938D939C931C97A701960199
:10472000C301B2010E94532C20E030E040E05FE37F
:104730000E94202EE989FA89658776878787908B82
:10474000E981FA813196FA83E983FEE22F0E311C6A
:104750000ECF4F5F5F4F73964530510509F033CD53
:1047600079CD80919E0190919F0186509F4F9093AB
:104770009F0180939E01AD81BE811C928091BB06FA
:104780009091BC0601979093BC068093BB06EEE225
:10479000E89DD001E99DB00D1124AB52BA4F2EE235
:1047A000289FF001299FF00D1124EB52FA4F8EE261
:1047B00001900D928A95E1F7BECE80910F01909104
:1047C000100181979093100180930F01181619061C
:1047D0000CF0C2CE8090B0019090B101A090B201D7
:1047E000B090B301C501B4010E944E2C6B017C0155
:1047F000C501B4010E948D2E4B015C0120E030E028
:1048000048EC51E40E94202E69837A838B839C8339
:1048100020E030E040E751ECC701B6010E94202EB5
:1048200029813A814B815C810E946A2B2D853E85CE
:104830004F8558890E946B2B6F8F78A389A39AA309
:1048400020E030E048EC51E4C701B6010E94202E80
:10485000698B7A8B8B8B9C8B20E030E040E751ECAE
:10486000C501B4010E94202E29893A894B895C89AF
:104870000E946B2B29853A854B855C850E946B2BAA
:104880006BA37CA38DA39EA320E030E0A901C70108
:10489000B6010E94202E6D8B7E8B8F8B988F20E02F
:1048A00030E0A901C501B4010E94202E2B013C017A
:1048B000AC019B016D897E898F89988D0E946A2B3E
:1048C0002D853E854F8558890E946B2B6FA37BA752
:1048D0008FA798ABA30192016D897E898F89988DEE
:1048E0000E946B2B29853A854B855C850E946B2B3A
:1048F0006D8B79AB8AAB9BAB20E030E040E751E4B5
:10490000C701B6010E94202E29813A814B815C812A
:104910000E946A2B2D853E854F8558890E946B2BFE
:1049200069837CAB8DAB9EAB20E030E040E751E487
:10493000C501B4010E94202E29893A894B895C89DE
:104940000E946B2B29853A854B855C850E946B2BD9
:104950002B013C01312C212C8090BD069090BE068D
:10496000281439040CF0F8CD2EE0229DF001239D8F
:10497000F00D1124E150F74FFA8BE98B248135813A
:104980004681578160817181828193817F926F928C
:104990005F924F92AEA9AF93BDA9BF93ECA9EF93DD
:1049A000F981FF93ABA9AF93BAA9BF93E9A9EF939C
:1049B000FD89FF93A8A9AF93BFA5BF93EBA5EF9384
:1049C000FFA1FF93ABA0BCA0CDA0DEA0EF8CF8A010
:1049D00009A11AA10E94B80B0FB6F894DEBF0FBE52
:1049E000CDBF882359F180910F01909110018C5314
:1049F000964F9093100180930F0180919E019091AA
:104A00009F018C599F4F90939F0180939E0131E0AD
:104A1000831A91084EE0489DF001499DF00D112444
:104A2000E150F74F8EE0A989BA8901900D928A95DD
:104A3000E1F79092BE068092BD068ECF5FEF251AF9
:104A4000350A8ACF2F8D38A12F5F3F4F38A32F8F84
:104A500073962F30310509F0E7CD72CE95878487A4
:104A60006FCE22EE37E03A87298738AF2FABAFA958
:104A7000B8AD8C91882309F465C019962D913D91AC
:104A80004D915C911C9711966D917D918D919C91AA
:104A900014970E946B2B4B015C01EFA9F8AD81824A
:104AA0009282A382B48225853685478550896581A7
:104AB0007681878190850E946B2B6B017C01AFA969
:104AC000B8AD1596CD92DD92ED92FC921897AC019F
:104AD0009B01C501B4010E941D04882329F0EFA9A0
:104AE000F8AD1082128A118A20E030E0A901C501D8
:104AF000B4010E94492C87FD1EC020E030E040E058
:104B000054E4C501B4010E94132E1816A4F020E04D
:104B100030E0A901C701B6010E94492C87FD0BC0F6
:104B200020E030E040E054E4C701B6010E94132EBB
:104B300018160CF074C0AFA9B8AD1C9252961C9216
:104B40001E925197EFA9F8AD7396F8AFEFABEF5FF8
:104B5000F84009F08CCF312C212CC0909201D090DC
:104B60009301E0909401F0909501809096019090CF
:104B70009701A0909801B09099014090D105509074
:104B8000D2056090D3057090D4058091CD059091A9
:104B9000CE05A091CF05B091D0058D879E87AF87B8
:104BA000B88B91E02916310409F490C020E030E080
:104BB00040E05FE3C301B2010E94202E9B01AC01E3
:104BC000C701B6010E946A2B0E94C52C6B017A8333
:104BD000698320E030E040E05FE36D857E858F856E
:104BE00098890E94202E9B01AC01C501B4010E944E
:104BF0006A2B0E94C52CD601A038B10508F068C008
:104C000077FD66C0603471050CF062C040919A0176
:104C1000C6010E94960A22242394312C9ECFEFA92C
:104C2000F8AD81899289893791051CF01082128A2A
:104C3000118A80E10E94C009811184CF2091A401D2
:104C40003091A5014091A6015091A701AFA9B8AD3F
:104C500011966D917D918D919C9114970E946A2B74
:104C60004B015C012091A0013091A1014091A20172
:104C70005091A301EFA9F8AD658176818781908578
:104C80000E946A2B6B017C01A5019401C501B4014E
:104C90000E94202E4B015C01A7019601C701B601BD
:104CA0000E94202E9B01AC01C501B4010E946B2B18
:104CB00020E030E040E151E40E94492C87FF42CFE0
:104CC0000E947A17AFA9B8AD1C923CCF312C212C91
:104CD0008091BB069091BC06281639060CF0F6C0F0
:104CE000F80180809180A280B380A3019201C50168
:104CF000B4010E946A2B69837A838B839C83D801D9
:104D00001496CD90DD90ED90FC9017972D853E8503
:104D10004F855889C701B6010E946A2B698B7A8B2F
:104D20008B8B9C8BF8012685378540895189698159
:104D30007A818B819C810E946B2BA50194010E943A
:104D40006A2B0E94C52C6B8F7C8F8D8F9E8FD80114
:104D500052962D913D914D915C91559769897A8933
:104D60008B899C890E946B2BA70196010E946A2B5C
:104D70000E94C52C6D8B7E8B8F8B988FF8012689B6
:104D80003789408D518D69817A818B819C810E9408
:104D90006B2BA50194010E946A2B0E94C52C6F8F7A
:104DA00078A389A39AA3D8015A962D913D914D914C
:104DB0005C915D9769897A898B899C890E946B2BAC
:104DC000A70196010E946A2B0E94C52C6BA37CA3AD
:104DD0008DA39EA3F801268D378D40A151A1698135
:104DE0007A818B819C810E946B2BA50194010E948A
:104DF0006A2B0E94C52C6FA378A789A79AA7D80110
:104E000092962D913D914D915C91959769897A8902
:104E10008B899C890E946B2BA70196010E946A2BAB
:104E20000E94C52C6BA77CA78DA79EA7F80126A181
:104E300037A140A551A569817A818B819C810E940F
:104E40006B2BA50194010E946A2B0E94C52C4B017B
:104E5000D8019A962D913D914D915C919D976989CC
:104E60007A898B899C890E946B2BA70196010E94ED
:104E70006A2B0E94C52C6B012BA13CA14F8D58A120
:104E80006D897E898B8D9C8D0E94EC092BA53CA59C
:104E90004FA158A56BA17CA18F8D98A10E94EC0910
:104EA0009601A4016BA57CA58FA198A50E94EC0991
:104EB0002D893E894B8D5C8DB601C4010E94EC09A1
:104EC000BFEF2B1A3B0A025D1F4F02CFE985FA851F
:104ED0008081882301F12D853E854F855889658124
:104EE0007681878190850E946A2B0E94C52C6B0178
:104EF000A3019201A985BA8511966D917D918D913D
:104F00009C9114970E946A2B0E94C52CCB0141E012
:104F1000B6010E94960AE985FA857396FA87E987B1
:104F20002FA938AD2E173F0789F620E030E040E882
:104F300053E46091C3067091C4068091C5069091B8
:104F4000C6060E946B2BA30192010E946A2B0E944D
:104F5000C52C1B0120E030E040E853E46091C70617
:104F60007091C8068091C9069091CA060E946B2B69
:104F70002D853E854F8558890E946A2B0E94C52C3D
:104F80008B0143EC56E05A83498320E030E040E84F
:104F900053E4A981BA8118966D917D918D919C9170
:104FA0001B970E946B2BA30192010E946A2B0E9407
:104FB000C52C6B0120E030E040E853E4E981FA8140
:104FC00064857585868597850E946B2B2D853E852A
:104FD0004F8558890E946A2B0E94C52C4B019B016A
:104FE000A601B801C1010E94EC0929813A81285F1C
:104FF0003F4F3A832983160184014BE257E0421761
:10500000530719F620E030E040E853E46091C7060A
:105010007091C8068091C9069091CA060E946B2BB8
:105020002D853E854F8558890E946A2B0E94C52C8C
:1050300069877A878B879C8720E030E040E853E4DB
:105040006091C3067091C4068091C5069091C60612
:105050000E946B2BA30192010E946A2B0E94C52C17
:1050600029853A85AB01B401C6010E94EC094FEFD6
:10507000242E48E0342E1A8619868091BD06909120
:10508000BE06A985BA85A817B9070CF0A7C02BEDF5
:105090003FE049EC5FE3F10160857185828593858E
:1050A0000E946B2B8B018D8B9B8F382F292F712F9B
:1050B000832F922F0E944E2C69837A838B839C834B
:1050C0003D892B8D602F712F832F922F0E948D2E63
:1050D0006B017C012D853E854F855889D101149641
:1050E0006D917D918D919C9117970E946A2B4B0138
:1050F0005C0120E030E0A901C701B6010E94202E2A
:10510000698B7A8B8B8B9C8B20E030E040E050ECFD
:1051100069817A818B819C810E94202E9B01AC0148
:1051200069897A898B899C890E946B2B9B01AC01D0
:10513000C501B4010E946B2B698B7A8B8B8B9C8B86
:10514000A3019201F10160817181828193810E94AA
:105150006A2B4B015C0120E030E0A90169817A8172
:105160008B819C810E94202E69837A838B839C8310
:10517000A7019601C701B6010E946B2B9B01AC01F0
:1051800069817A818B819C810E946B2B9B01AC0190
:10519000C501B4010E946B2BFB8DFF932D892F93CA
:1051A0001F930F93A12CB12C30E8C32E30E4D32EE3
:1051B0008601750129893A894B895C890E94A11071
:1051C00049855A854F5F5F4F5A8749875EE0250EB4
:1051D000311C0F900F900F900F904FCFA98DBA8D6B
:1051E0008C91882301F12D853E854F855889159630
:1051F0006D917D918D919C9118970E946A2B0E94D0
:10520000C52C6B01A3019201E98DFA8D6181728138
:10521000838194810E946A2B0E94C52CCB0141E0BE
:10522000B6010E94960A298D3A8D2D5E3F4F3A8F26
:10523000298F4D815E814217530781F68091A40129
:105240009091A501A091A601B091A701898B9A8B9D
:10525000AB8BBC8BA3019201BC01CD010E946A2BD8
:105260002B013C012091A0013091A1014091A201AC
:105270005091A3012B8F3C8F4D8F5E8F2D853E85E6
:105280004F8558896B8D7C8D8D8D9E8D0E946A2BEC
:105290006D837E838F8398873091B0013D87209006
:1052A000B1013090B2014091B3014F8F1F9252E093
:1052B0005F931F925F931F925F938FEF8F939EEF89
:1052C0009F938F938CEF8F93912C812C3D858F8DA5
:1052D000A32EB22CC32CD82EED80FE800F81188512
:1052E000A301920167E070E080E00E94800D88E0F9
:1052F0000E94C0090FB6F894DEBF0FBECDBF882351
:1053000071F180910F0190911001181619063CF56A
:105310001F9283E08F931F92B2E0BF931F9297E09A
:105320009F931F921F921F928F932EEF822E99248C
:105330009A943D858F8DA32EB22CC32CD82EED8050
:10534000FE800F811885A301920163E070E081E087
:105350000E94800D0FB6F894DEBF0FBECDBF80E176
:105360000E94C009882309F44AC080910F019091DE
:105370001001181619060CF042C01F9289E18F9394
:105380001F929FE09F931F921F921F921F921F9246
:105390008F9381EF882E99249A94FD85FD8B298621
:1053A00039822F8D298FAF2EB22CC32CD22EED80B7
:1053B000FE800F811885A301920163E070E080E018
:1053C0000E94800D398D3F9349814F9359855F939A
:1053D0008D898F93A12CB12C90E4C92E91E4D92E04
:1053E000860175012D813E814F815885C301B2012F
:1053F0000E94A1100FB6F894DEBF0FBECDBF2B8D5B
:105400003C8D4D8D5E8D69897A898B899C890E943E
:105410001D04882331F080E791E00E94F0160E947D
:105420007A1780910D0190910E010E947017E8E1AA
:10543000F0E0F0939101E093900180910F01909141
:1054400010011816190604F50E94701728E530E0BF
:10545000309391012093900160919E0170919F0182
:10546000072E000C880B990B97FF13C00E94411761
:1054700086E491E00E94F016109291011092900142
:105480000E94CB090C945F1D8CE791E00E94F016FE
:10549000DDCF4AE00E94FD16EBCF8F929F92AF9234
:1054A000BF92CF92DF92EF92FF92CF93DF93EC0106
:1054B000688179818A819B816115710581059105DA
:1054C00021F464E279ED8BE597E02DE133EF41E0E3
:1054D00050E00E94072B49015A019B01AC01A7EA49
:1054E000B1E40E94262B6B017C01ACEEB4EFA50168
:1054F00094010E94342BC60ED71EE81EF91EF7FE3B
:1055000006C081E0C81AD108E10880E8F80AC8821C
:10551000D982EA82FB82C701B6019F77DF91CF91E2
:10552000FF90EF90DF90CF90BF90AF909F908F90C3
:1055300008958F929F92AF92BF92CF92DF92EF9297
:10554000FF9260911101709112018091130190916D
:105550001401611571058105910521F464E279ED6D
:105560008BE597E02DE133EF41E050E00E94072BFF
:1055700049015A019B01AC01A7EAB1E40E94262B24
:105580006B017C01ACEEB4EFA50194010E94342BB9
:10559000C60ED71EE81EF91EF7FE06C081E0C81A27
:1055A000D108E10880E8F80AC0921101D0921201F6
:1055B000E0921301F0921401C701B6019F77FF90AA
:1055C000EF90DF90CF90BF90AF909F908F90089515
:1055D0006093110170931201809313019093140151
:1055E0000895F999FECF92BD81BDF89A992780B5AB
:1055F0000895262FF999FECF1FBA92BD81BD20BD17
:105600000FB6F894FA9AF99A0FBE01960895052EEE
:1056100097FB1EF400940E941E2B57FD07D00E949A
:10562000392B07FC03D04EF40C941E2B509540955B
:10563000309521953F4F4F4F5F4F0895909580953E
:10564000709561957F4F8F4F9F4F08950E945B2B00
:10565000A59F900DB49F900DA49F800D911D1124C6
:105660000895B7FF0C94262B0E94262B821B930BC8
:105670000895A1E21A2EAA1BBB1BFD010DC0AA1F93
:10568000BB1FEE1FFF1FA217B307E407F50720F0AB
:10569000A21BB30BE40BF50B661F771F881F991F26
:1056A0001A9469F760957095809590959B01AC016F
:1056B000BD01CF010895A29FB001B39FC001A39F78
:1056C000700D811D1124911DB29F700D811D11243B
:1056D000911D08955058BB27AA270E94822B0C9435
:1056E000C52D0E948C2D38F00E94932D20F039F4A6
:1056F0009F3F19F426F40C94622D0EF4E095E7FB1D
:105700000C945C2DE92F0E94EA2D58F3BA1762071A
:1057100073078407950720F079F4A6F50C940C2EF6
:105720000EF4E0950B2EBA2FA02D0B01B9019001BC
:105730000C01CA01A0011124FF27591B99F0593F00
:1057400050F4503E68F11A16F040A22F232F342F48
:105750004427585FF3CF469537952795A795F04096
:105760005395C9F77EF41F16BA0B620B730B840BAB
:10577000BAF09150A1F0FF0FBB1F661F771F881F63
:10578000C2F70EC0BA0F621F731F841F48F48795BB
:1057900077956795B795F7959E3F08F0B0CF9395AD
:1057A000880F08F09927EE0F9795879508950E9426
:1057B0008C2D60F080E891E009F49EEF0E94932D1B
:1057C00028F040E851E071F45EEF0CC00C94622DBB
:1057D0000C940C2EE92FE0780E94EA2D40F3092E5C
:1057E000052AB1F3261737074807590738F00E2E58
:1057F00007F8E02569F0E025E0640AC0EF6307F8E8
:10580000009407FADB01B9019D01DC01CA01AD0179
:10581000EF930E946A2C0E94C52D0E941A2C5F9162
:10582000552339F02BED3FE049E450FD49EC0C9451
:105830006B2B0895DF93DD27B92FBF7740E85FE337
:105840001616170648075B0718F4D92F0E94182E62
:105850009F938F937F936F930E94DB2EECEAF0E08F
:105860000E94652D0E94C52D2F913F914F915F9110
:105870000E94332EDD2351F09058A2EA2AED3FE03A
:1058800049EC5FE3D0785D270E94822BDF910C9476
:10589000C52D0E94382D08F481E008950E949C2DAA
:1058A000E3950C94D62D0E94672C0C94C52D0E9474
:1058B000932D58F00E948C2D40F029F45F3F29F081
:1058C0000C945C2D51110C940D2E0C94622D0E94A1
:1058D000EA2D68F39923B1F3552391F3951B550BEA
:1058E000BB27AA2762177307840738F09F5F5F4FB3
:1058F000220F331F441FAA1FA9F335D00E2E3AF0F2
:10590000E0E832D091505040E695001CCAF72BD009
:10591000FE2F29D0660F771F881FBB1F261737075A
:105920004807AB07B0E809F0BB0B802DBF01FF278C
:1059300093585F4F3AF09E3F510578F00C945C2DE0
:105940000C940D2E5F3FE4F3983ED4F38695779543
:105950006795B795F7959F5FC9F7880F911D969545
:10596000879597F90895E1E0660F771F881FBB1FA1
:10597000621773078407BA0720F0621B730B840B4E
:10598000BA0BEE1F88F7E09508950E94CC2C68941E
:10599000B1110C940D2E08950E94F22D88F09F579E
:1059A00098F0B92F9927B751B0F0E1F0660F771F43
:1059B000881F991F1AF0BA95C9F714C0B13091F039
:1059C0000E940C2EB1E008950C940C2E672F782FB6
:1059D0008827B85F39F0B93FCCF3869577956795FE
:1059E000B395D9F73EF490958095709561957F4F6A
:1059F0008F4F9F4F0895E89409C097FB3EF4909510
:105A00008095709561957F4F8F4F9F4F9923A9F097
:105A1000F92F96E9BB279395F69587957795679526
:105A2000B795F111F8CFFAF4BB0F11F460FF1BC06A
:105A30006F5F7F4F8F4F9F4F16C0882311F096E9FD
:105A400011C0772321F09EE8872F762F05C06623AB
:105A500071F096E8862F70E060E02AF09A95660F64
:105A6000771F881FDAF7880F9695879597F908951D
:105A7000990F0008550FAA0BE0E8FEEF161617065F
:105A8000E807F907C0F012161306E407F50798F0C7
:105A9000621B730B840B950B39F40A2661F0232BE0
:105AA000242B252B21F408950A2609F4A140A6955C
:105AB0008FEF811D811D089597F99F6780E870E041
:105AC00060E008959FEF80EC0895DF93CF931F93DC
:105AD0000F93FF92EF92DF927B018C01689406C0D6
