:100000000C94B8040C94E0040C94E0040C94E00408
:100010000C94E0040C94E0040C94E0040C94E004D0
:100020000C94E0040C94E0040C94B0190C941F1A86
:100030000C94E0040C94E0040C94E0040C94E004B0
:100040000C94E0040C94E0040C94E0040C94E004A0
:100050000C94E0040C94E0040C94E0040C94511C07
:100060000C94E0040C94E0040C94E0040C94E00480
:100070000C94E0040C94E0040C94E0040C94E00470
:100080000C949B1C0C94E0040C94E0040C94E0048D
:100090000C94E0040C94E0040C94E0040C94E00450
:1000A0000C94E0040C94E0040C94E004084AD73B60
:1000B0003BCE016E84BCBFFDC12F3D6C74319ABD37
:1000C00056833DDA3D00C77F11BED9E4BB4C3E915B
:1000D0006BAAAABE000000803F05A84CCDB2D44E4A
:1000E000B93836A9020C50B9918688083CA6AAAA4C
:1000F0002ABE000000803F0003081F051F1F151BBC
:100100001F11111F110E1F15111F05011F111D1F9A
:10011000041F001F0010101F1F041B1F10101F06BC
:100120001F1F011F1F111F1F05071F311F1F051B49
:1001300017151D011F011F101F0F100F1F0C1F1B74
:10014000041B071C071915130C121E1F120C1E127C
:10015000120C121F0C1A14041F052E2A1E1F021C3B
:10016000001D00201D001F041A011F001E041E1E7A
:10017000021E1E121E3E120C0C123E1E020614120D
:100180000A020F121E101E0E100E1E081E1A041A4E
:100190002E281E1A12161F111F001F001D151711E1
:1001A000151F07041F17151D1F151D01011F1F1502
:1001B0001F17151F001700001000746F2072657361
:1001C0007461727400507265737320616E7920627D
:1001D0007574746F6E0046696E616C2053636F7244
:1001E000653A200047616D65204F766572210000F9
:1001F000000000003E5B4F5B3E3E6B4F6B3E1C3E83
:100200007C3E1C183C7E3C181C577D571C1C5E7F96
:100210005E1C00183C1800FFE7C3E7FF0018241815
:1002200000FFE7DBE7FF30483A060E26297929264A
:10023000407F050507407F05253F5A3CE73C5A7F34
:100240003E1C1C08081C1C3E7F14227F22145F5F8A
:10025000005F5F06097F017F006689956A606060C4
:10026000606094A2FFA29408047E040810207E20FF
:100270001008082A1C08081C2A08081E1010101054
:100280000C1E0C1E0C30383E3830060E3E0E06009A
:100290000000000000005F00000007000700147F5E
:1002A000147F14242A7F2A122313086462364956C5
:1002B00020500008070300001C2241000041221CBE
:1002C000002A1C7F1C2A08083E08080080703000A5
:1002D0000808080808000060600020100804023EBA
:1002E0005149453E00427F400072494949462141FB
:1002F000494D331814127F1027454545393C4A496A
:1003000049314121110907364949493646494929A8
:100310001E000014000000403400000008142241B8
:100320001414141414004122140802015909063E41
:10033000415D594E7C1211127C7F494949363E413C
:100340004141227F4141413E7F494949417F09095D
:1003500009013E414151737F0808087F00417F41F8
:10036000002040413F017F081422417F404040402F
:100370007F021C027F7F0408107F3E4141413E7F87
:10038000090909063E4151215E7F0919294626497E
:1003900049493203017F01033F4040403F1F204055
:1003A000201F3F4038403F6314081463030478045F
:1003B000036159494D43007F414141020408102027
:1003C000004141417F04020102044040404040009E
:1003D0000307080020545478407F284444383844A8
:1003E000444428384444287F385454541800087E24
:1003F000090218A4A49C787F0804047800447D4076
:10040000002040403D007F1028440000417F400014
:100410007C047804787C080404783844444438FC2C
:100420001824241818242418FC7C080404084854B0
:1004300054542404043F44243C4040207C1C20406D
:10044000201C3C4030403C44281028444C90909064
:100450007C4464544C44000836410000007700009E
:10046000004136080002010204023C2623263C1EFD
:10047000A1A161123A4040207A385454555921556F
:100480005579412154547841215554784020545590
:1004900079400C1E527212395555555939545454DD
:1004A0005939555454580000457C410002457D425D
:1004B0000001457C40F0292429F0F0282528F07C13
:1004C000545545002054547C547C0A097F493249D4
:1004D0004949323248484832324A4848303A414124
:1004E000217A3A42402078009DA0A07D39444444BE
:1004F000393D4040403D3C24FF2424487E4943662A
:100500002B2FFC2F2BFF0929F620C0887E09032002
:10051000545479410000447D413048484A323840C3
:1005200040227A007A0A0A727D0D19317D26292926
:100530002F28262929292630484D40203808080828
:100540000808080808382F10C8ACBA2F102834FA49
:1005500000007B000008142A142222142A14089593
:1005600000220095AA005500AAAA55AA55AA000083
:1005700000FF00101010FF00141414FF001010FFF3
:1005800000FF1010F010F0141414FC001414F70005
:10059000FF0000FF00FF1414F404FC141417101FD4
:1005A00010101F101F1414141F00101010F0000062
:1005B00000001F101010101F10101010F01000007D
:1005C00000FF101010101010101010FF100000008D
:1005D000FF140000FF00FF00001F10170000FC04C4
:1005E000F414141710171414F404F40000FF00F7A7
:1005F00014141414141414F700F71414141714100A
:10060000101F101F141414F4141010F010F0000038
:100610001F101F0000001F14000000FC140000F059
:1006200010F01010FF10FF141414FF141010101FFE
:1006300000000000F010FFFFFFFFFFF0F0F0F0F00F
:10064000FFFFFF0000000000FFFF0F0F0F0F0F382C
:10065000444438447C2A2A3E147E02020606027E66
:10066000027E0263554941633844443C04407E2085
:100670001E2006027E020299A5E7A5991C2A492A96
:100680001C4C7201724C304A4D4D30304878483025
:10069000BC625A463D3E494949007E0101017E2A1D
:1006A0002A2A2A2A44445F444440514A4440404450
:1006B0004A51400000FF0103E080FF000008086B82
:1006C0006B083612362436060F090F06000018187C
:1006D0000000001010003040FF0101001F01011E4A
:1006E00000191D1712003C3C3C3C0000000000F0CB
:1006F000F89C8E8783878E9CF8F00000FEFF030332
:10070000030303070EFCF80000FEFF0303030303CB
:10071000070EFCF80000FFFF00000000000000FFD3
:10072000FF0000FEFF8383838383C7EE7C380000D5
:10073000F8FC0E07030303070EFCF800003F7FE000
:10074000C08080C0E07F3FFFFF0101010101010186
:10075000FFFF0000FFFF0C0C0C0C1C3E77E3C100F8
:10076000007FFFC0C0C0C0C0E0703F1F00001F3F3F
:1007700070E0C0C0C0E0703F1F00007FFFC1C1C17A
:10078000C1C1E3773E1C00001F3F70E0C0C0C0E065
:10079000703F1F000000000001FFFF01000000D5B6
:1007A000F08D14A1C881CFD9F1AF200073686965BD
:1007B0006C6420616E642074726163746F72206275
:1007C00065616D00726F74617465206C656674207C
:1007D0006F722072696768740041005468727573A3
:1007E0007400420053686F6F740050726573732019
:1007F0004120666F7220736F756E6400507265736E
:1008000073204220666F72206E6F20736F756E6466
:1008100000436F6C6C656374204675656C20202006
:10082000202031303020706F696E7473004465731E
:1008300074726F7920547572726574732020202051
:100840002032353020706F696E747300746F2073BE
:1008500074617274206E657720706C616E657400CF
:10086000507265737320616E7920627574746F6E57
:100870000043757272656E742073636F72653A20FF
:1008800000547572726574732044657374726F7965
:10089000656421000507605C435C60B400140001DE
:1008A000809001190001808403320000001400844C
:1008B00003320000004B0084033200000014008467
:1008C00003320000004B0084033200000014008457
:1008D00003320000004B0000800B023C0093023CFE
:1008E0000010037800000032001704B400008045B7
:1008F0004D5054590048495420504C414E455421C4
:1009000000080B00020202000009040000010202BC
:100910000000052400100105240101010424020641
:1009200005240600010705810310004009040100A9
:10093000020A0000000705020240000007058302CA
:100940004000000403090412010002EF02014041CB
:1009500023368000010102030141726475696E6FE4
:10096000204C4C430041726475626F7900002F1D6A
:1009700011241FBECFEFDAE0DEBFCDBF11E0A0E053
:10098000B1E0EAEBF8E602C005900D92A635B1079A
:10099000D9F728E0A6E5B1E001C01D92AC3AB20754
:1009A000E1F714E0C8EBD4E004C02197FE010E94F7
:1009B0005534C73BD107C9F70E94A21D0C945B3484
:1009C0000C9400008091710108952F923F924F92F4
:1009D0005F926F927F928F929F92AF92BF92CF92CF
:1009E000DF92EF92FF920F931F93CF93DF9300D08C
:1009F00000D01F92CDB7DEB769017A010E94EA31BB
:100A00007B836A83C701B6010E94EA313B010DEA8C
:100A100016E019829DE0E92EF12C512C412CF801B1
:100A200080809180A280B380648175818681978166
:100A30000E94EA319B0128533F4F3D832C83F701ED
:100A400083E0EE0FFF1F8A95E1F7E355F94FC08071
:100A5000D180E280F38064817581868197810E94D4
:100A6000EA311B0138EC230E311C91E0EC81FD8151
:100A70006E167F060CF090E081E0621473040CF0B7
:100A800080E0981771F1C501B4010E94EA315B0161
:100A9000F8ECAF0EB11CC701B6010E94EA316853F1
:100AA0007F4F6A197B0993018C819D81281B390B2B
:100AB000629FC001639F900D729F900D1124B10140
:100AC000EC81FD816E1B7F0B0E942D34A60EB71E9C
:100AD0002A813B812A153B0524F4398181E038279E
:100AE0003983C2010196085F1F4F72018E30910554
:100AF000C9F489810F900F900F900F900F90DF91A4
:100B0000CF911F910F91FF90EF90DF90CF90BF900A
:100B1000AF909F908F907F906F905F904F903F909D
:100B20002F9008952C017BCF480F592F511D14167B
:100B3000150684F5803891056CF597FF02C090E0AA
:100B400080E04138510514F040E850E0481BFB01BB
:100B5000E770FF2721E001C0220FEA95EAF777FF4F
:100B600002C0695F7F4FFB0133E0F595E7953A9549
:100B7000E1F7F695FE2FEE27F795E795E80FF91FB9
:100B8000ED54FE4F415030F08191DF011197822BDF
:100B90008C93F8CF08952F923F924F925F926F926D
:100BA0007F928F929F92AF92BF92CF92DF92EF92FD
:100BB000FF920F931F93CF93DF93CDB7DEB72E979E
:100BC0000FB6F894DEBF0FBECDBF6B015E874D87B9
:100BD0005901261737070CF003C1E616F7060CF487
:100BE00016C13C2D2D2D6501A32EB22E382F292F95
:100BF0008D859E853D872E87CE14DF04D1F52D850A
:100C00003E852817390734F4382F292F8D859E8586
:100C10003D872E870817190744F04D855E854017DC
:100C2000510714F41E870D878C0150E4C516D104BA
:100C300008F0FDC04D854F5F401BB601C8012E96E0
:100C40000FB6F894DEBF0FBECDBFDF91CF911F91DD
:100C50000F91FF90EF90DF90CF90BF90AF909F905B
:100C60008F907F906F905F904F903F902F900C945B
:100C70009405302F212F8C01832F922F3E2D2F2D65
:100C80007601C32ED22E2D853E85201B310B388751
:100C90002F83A5014E195F095A8749873C01601AC5
:100CA000710A96012E193F093A832983AC012D85DB
:100CB0003E85421B530B5C834B83A6014A195B099B
:100CC0005C874B87CA14DB0409F442C0C501019755
:100CD0009E838D834701512C412C312C212C2D8159
:100CE0003E8128153905BCF1C10169857A850E94CC
:100CF0002D349B01200F311FC20169817A810E942E
:100D00002D34600F711F4F815885240E351E460CFF
:100D1000571C621773071CF4922F9B01692F50E434
:100D20008516910438F46F5F462F421BB401C90148
:100D30000E9494058FEF881A980AD1CF3D852E85A1
:100D40009E878D87832F922F3C2D2D2D65016CC0A2
:100D5000DE82CD82BFCFC4018A199B092B813C81E1
:100D6000829F5001839FB00C929FB00C1124C4014C
:100D70008E199F09869D7001879DF00C969DF00C41
:100D80001124C814D9040CF452C0C5016B857C85AC
:100D90000E942D342D853E85260F371FC70169819E
:100DA0007A810E942D34600F711F4B815C81A40EEB
:100DB000B51EE60CF71C621773071CF4922F9B01FB
:100DC000692F50E48516910438F46F5F462F421B5B
:100DD000B401C9010E9494058FEF881A980AD1CFF7
:100DE000E216F3060CF008CFE616F7060CF4A6CFD1
:100DF000302F212F0D851E859E878D87832F922F63
:100E00003A2D2B2D5B016701E32EF22EEACEE2167E
:100E1000F3060CF438CF302F212F0D851E853D872A
:100E20002E873E2D2F2D7501A32EB22E2CCF2E9660
:100E30000FB6F894DEBF0FBECDBFDF91CF911F91EB
:100E40000F91FF90EF90DF90CF90BF90AF909F9069
:100E50008F907F906F905F904F903F902F9008956C
:100E6000E3EBF1E0A0E0B8E000800EBC8111012CC2
:100E70001197A0FDFDCF0192B9F70DB40895FC01C3
:100E80008091B201882311F13FB7F89482E08093FA
:100E9000E9002091F200822F90E01816190614F450
:100EA00081E090E0882339F0289844E64093B1012E
:100EB0004091F1004083222339F02091F20021116A
:100EC00003C02BE62093E8003FBF08958FEF9FEF0C
:100ED00008952FB7F89483E08093E9009091E8009B
:100EE000892F807295FF04C09091F20080E4891BE5
:100EF0002FBF08958091A90181110DC082E08093D8
:100F0000A50184E08093A6011092A8011092A70188
:100F100081E08093A90185EA91E00895CF93DF9362
:100F20001F92CDB7DEB76983DC01ED91FC910280A1
:100F3000F381E02D41E050E0BE016F5F7F4F0995E6
:100F40000F90DF91CF91089583E08093E900809125
:100F5000F200882319F08AE38093E80008950E9444
:100F6000690790E00895CF93DF931F92CDB7DEB766
:100F7000FC018485958597FD08C02FEF3FEF3587ED
:100F800024870F90DF91CF910895CE0101960E94A2
:100F90003F07019719F4898190E0F3CF8FEF9FEF1E
:100FA000F0CF0F931F93CF93DF931F92CDB7DEB790
:100FB0008C01FC018485958597FF0BC0CE010196BD
:100FC0000E943F07019771F4898190E0F8019587AD
:100FD0008487F801848595850F90DF91CF911F91CB
:100FE0000F9108958FEF9FEFF1CFFC0184859585D8
:100FF00097FD0BC09FB7F89482E08093E900809141
:10100000F2009FBF90E0019608959FB7F89482E0A8
:101010008093E9008091F2009FBF90E00895409195
:101020009F015091A00120919D0130919E01421796
:101030005307B4F49091E8009570E1F39091E800C3
:1010400092FD19C08093F10080919F019091A001C1
:1010500001968F739927892B19F48EEF8093E800FE
:1010600080919F019091A00101969093A00180939F
:101070009F0181E0089580E00895DF92EF92FF9252
:101080000F931F93CF93DF93D82E8A01EB017B013F
:10109000E40EF51ECE15DF0559F0D7FE12C0FE0195
:1010A00084910E940F0821968111F4CF0FEF1FEF5A
:1010B000C801DF91CF911F910F91FF90EF90DF90CA
:1010C00008958881EECF0F931F93CF93DF931F92E4
:1010D000CDB7DEB782E0898342E450E061E079E099
:1010E00080E80E943D080E947A07DC0112960D916B
:1010F0001C910115110589F0D801ED91FC91028038
:10110000F381E02DBE016F5F7F4FC801099597FD08
:1011100004C0F80100851185ECCF89810F90DF9123
:10112000CF911F910F910895615030F02091F100FF
:10113000FC0120830196F8CF289884E68093B101C2
:1011400008953FB7F8948091990190919A01A091E8
:101150009B01B0919C0126B5A89B05C02F3F19F0BB
:101160000196A11DB11D3FBFBA2FA92F982F882727
:10117000BC01CD01620F711D811D911D42E0660F02
:10118000771F881F991F4A95D1F708958F929F92D4
:10119000AF92BF92CF92DF92EF92FF926B017C01F0
:1011A0000E94A1084B015C01C114D104E104F104C7
:1011B000B9F00E94A108681979098A099B09683E5B
:1011C00073408105910580F321E0C21AD108E1083E
:1011D000F10888EE880E83E0981EA11CB11CE4CFB4
:1011E000FF90EF90DF90CF90BF90AF909F908F9047
:1011F00008958F929F92AF92BF92CF92DF92EF921B
:10120000FF920F931F93CF93DF936C017B018A01B1
:1012100080911001882309F45CC08091B201882379
:1012200009F457C08091A40180FF05C08091E000BF
:1012300082608093E000E801B12C8AEFA82E93E051
:10124000892E2AE3922E209711F4BB20D9F10E9417
:10125000690781110AC0AA94AA20D9F161E070E05F
:1012600080E090E00E94C608EECF8C171D0611F0BA
:101270000CF08C2F9FB7F8948092E9002091E80041
:1012800025FD02C09FBFDFCF282F30E0C21BD30B4C
:10129000F701815020F041914093F100FACFE20E26
:1012A000F31EBB2021F09092E800B12CEBCF80918F
:1012B000E80085FDE7CF9092E800BB24B394209727
:1012C00009F3F3CF5D9884E68093A301101611060D
:1012D0003CF081E090E0F6019383828310E000E02F
:1012E000C801DF91CF911F910F91FF90EF90DF9098
:1012F000CF90BF90AF909F908F900895EF92FF9204
:101300000F931F93CF93DF938C017B01D0E0C0E05C
:10131000F701EC0FFD1F6491662361F0D801ED9198
:10132000FC910190F081E02DC8010995892B11F005
:101330002196EECFCE01DF91CF911F910F91FF90BB
:10134000EF900895AF92BF92CF92DF92EF92FF920B
:101350000F931F93CF93DF936C017B018B01040FDD
:10136000151FEB015E01AE18BF08C017D10759F079
:101370006991D601ED91FC910190F081E02DC601BB
:101380000995892B79F7C501DF91CF911F910F91B5
:10139000FF90EF90DF90CF90BF90AF900895209195
:1013A0005C01E0915A01F0915B01CF0102969093AC
:1013B0005B0180935A01222319F08591949108953D
:1013C000808191810895E1E7F0E080818D7F8083C5
:1013D0001092910046984798109274010895CF9208
:1013E000DF92EF92FF92CF93DF930E94CF09811596
:1013F00020E8920741F4DF91CF91FF90EF90DF90CA
:10140000CF900C94E30921E020937401813020E80F
:10141000920751F4809158019091590190935B018A
:1014200080935A010E94CF0997FD05C02091570172
:10143000222309F45BC020915601211157C021E0FD
:1014400020935D01EC01DF77209709F052C081E025
:1014500080935E0146983FE9C32E3FE0D32EE12CF6
:10146000F12CCAEFD0E0E0917B07F0917C07099561
:10147000811103C081E080935E0180915D0188232A
:1014800029F080915E01882309F446C047980E94A4
:10149000CF09009709F444C09C01DE010E9480300E
:1014A000DC01CB0129E0B595A795979587952A95FD
:1014B000D1F7109290002AE020939100D0929900E9
:1014C000C092980080935F0190936001A0936101A6
:1014D000B093620180917100826080937100DF910E
:1014E000CF91FF90EF90DF90CF90089510925D0123
:1014F000A9CF9E0150E040E060E472E48FE090E00C
:101500000E942C3069017A0181E0C81AD108E108F3
:10151000F10810925E01A7CF4699B8CF479AB7CF8E
:101520008FEF9FEFDC01C5CF9C01E1E7F0E09081F8
:101530009D7F908381E080935C0130935B012093D9
:101540005A0130935901209358010C94EF094F929E
:101550005F926F927F928F929F92AF92BF92CF9243
:10156000DF92EF92FF920F931F93CF93DF934C0183
:101570005901FC2DC02FD0E0CE01880D991D181601
:1015800019060CF06CC020E8821691040CF067C0BC
:101590009B012E0D311D121613060CF060C0603435
:1015A00071050CF05CC04115510509F458C0E62FD7
:1015B000E770FE2EDB0177FD179633E0B595A79512
:1015C0003A95E1F73A2F77FF04C0FF2011F03FEF83
:1015D0003A0F662777276819790997FC02C070E0EF
:1015E00060E0803891050CF44BC090E89819961B88
:1015F000A32F032E000CBB0B1A2F10953F3F0CF0AE
:1016000010E021E08E2D877009F420E0E694E69446
:10161000E694E20EAE0DB11D19971CF028E0E22E03
:10162000E31AE11A310F20E83203D0011124A80D8A
:10163000B91DA60FB71F019F600D711D1124460F24
:10164000571F0F2D0F2C000C110BF33009F41CC188
:10165000C8F4F13009F4D0C0F23009F47CC0DF9155
:10166000CF911F910F91FF90EF90DF90CF90BF909F
:10167000AF909F908F907F906F905F904F90089564
:10168000902FB5CFFA3FB1F1232F2E0DFB3F39F745
:10169000321729F3BD016D547E4FD12CC12CC916D0
:1016A00008F0A4C0FA01EC0DFD1DE491F0E04F013B
:1016B000002E02C0880C991C0A94E2F737FD06C080
:1016C000FB018081E82CE0948E218083FF2061F073
:1016D000373054F45B01F0E8AF0EB11CE92CE09414
:1016E000F50180818E218083FFEFCF1ADF0A6F5FC3
:1016F0007F4FD5CF232F2E0D321709F4B0CFBD0168
:101700006D547E4FD12CC12CC91608F069C0FA0166
:10171000EC0DFD1DE491F0E04F01002E02C0880C9D
:10172000991C0A94E2F737FD04C0FB0180818829E7
:101730008083FF2051F0373044F45B01F0E8AF0EB6
:10174000B11CF501808189298083FFEFCF1ADF0A60
:101750006F5F7F4FD9CF6FEF70E00F2C02C0660F25
:10176000771F0A94E2F760957095772E232F2E0D40
:10177000321709F474CFFD01ED54FE4F6F01B12C07
:10178000A12CA91638F5FA01EA0DFB1DE491F0E051
:101790002F01002E02C0440C551C0A94E2F737FDBD
:1017A00005C0F6018081862384298083FF2059F0BB
:1017B00037304CF44601F0E88F0E911CF401808123
:1017C000872185298083FFEFAF1ABF0A8FEFC81AE0
:1017D000D80AD7CF3F5F4C0F5D1FA058BF4FC8CF6F
:1017E0003F5F4C0F5D1FA058BF4F86CF3F5F4C0F30
:1017F0005D1FA058BF4F4CCF6A0D7B1D232F2E0DB0
:10180000321709F42CCFFD01ED54FE4F6F01B12CBE
:10181000A12CA91688F5FB01EA0DFB1D8490912CE3
:10182000002E02C0880C991C0A94E2F780949094D0
:10183000FA01EA0DFB1D6490712C002E02C0660CAB
:10184000771C0A94E2F737FD05C0F60180818821F4
:1018500086298083FF2049F037303CF4F601E058B8
:10186000FF4F8081892187298083FFEFAF1ABF0A4C
:101870008FEFC81AD80ACDCF3F5F4C0F5D1F6C0F9A
:101880007D1FA058BF4FBCCFC92ED12CFA01E60F47
:10189000F71FAD54BE4F00E810E00C191D09CC191C
:1018A000DD09BE01660F771F41E050E06A010F2C91
:1018B00001C0CC0C0A94EAF7592F2E2D792ECF9324
:1018C000DF93ED01EF96EF9622968590A590FF208D
:1018D00059F08C9C4001AC9C500137302CF4E880CE
:1018E000B094EB20E928E99233233AF0EC90A094ED
:1018F000EA20E828ED920C947E0C11965A9529F76F
:101900002A9551F0572D33951124E60FF11DA00FA4
:10191000B11DC00FD11DD9CFDF91CF9111249FCE22
:101920002D9A0895BC0190E080E00C94C6088FB118
:101930008095807F669B88601C9B846008951092D0
:1019400071013E983F98089580E0E3EBF1E081114A
:101950008FEF002481938193819381930394D1F736
:1019600010926A011092690110926C0110926B0141
:10197000089580917201809373010E94970C809367
:1019800072010895CF93C82F0E94970C982F9C2323
:1019900081E09C1380E0CF91089580E00C943007A3
:1019A00080389105B8F460347105A0F420E191E02D
:1019B00061FD94E060FD990F62FD9295687F269F1E
:1019C000D0011124A80FAD54BE4F8C9140FF03C02D
:1019D000892B8C93089590958923FBCF2F923F926A
:1019E0004F925F926F927F928F929F92AF92BF922F
:1019F000CF92DF92EF92FF920F931F93CF93DF93DB
:101A0000EC018B017A016901C61AD70AD7FE03C01F
:101A1000D194C194D10847018C1A9D0A97FE03C046
:101A20009194819491088C149D0454F49E2D8F2DD3
:101A30007901292F382F9C2F8D2FE801092F182F7E
:101A4000EC16FD0654F4902F812F8901292F382F91
:101A50009C2F8D2FE701E92EF82E17012C1A3D0A35
:101A60002901401A510A57FE03C05194419451086C
:101A7000310137FE03C08FEF681A780A75946794B6
:101A80008FEF021713070CF481E0A82E880FBB0814
:101A9000EC16FD06A4F041E0BE01C8018C149D04C3
:101AA00014F0B801CE010E94D00C6418750877FEBE
:101AB00004C00A0D1B1D620C731C2196E9CFDF9137
:101AC000CF911F910F91FF90EF90DF90CF90BF903B
:101AD000AF909F908F907F906F905F904F903F90CE
:101AE0002F900895EF92FF920F931F93CF93DF9360
:101AF0007C018B01040F111DEB0177FF02C0D0E0C8
:101B0000C0E0C8010134110514F080E490E0C8176A
:101B1000D9073CF441E0BE01C7010E94D00C2196D8
:101B2000F0CFDF91CF911F910F91FF90EF9008952B
:101B30002F923F924F925F926F927F928F929F92DD
:101B4000AF92BF92CF92DF92EF92FF920F931F93CB
:101B5000CF93DF9300D01F92CDB7DEB76C015B014E
:101B6000242F30E03B832A83440F4F5F621B730BAB
:101B70000E94720D01E010E08A819B81081B190B05
:101B80001C01319421943108220C331C6624639487
:101B9000712CF12CE12C17FD0BC02A813B812150C7
:101BA00031093B832A8332E0230E311C020D131DC1
:101BB0008FEFE81AF80A92E0690E711C060D171DE6
:101BC0008A81880F8F5F8983482F25012A813B8175
:101BD000421A530AB201C7018C0D9D1D0E94720D5D
:101BE00045018E189F08462DB4018A819B818C0D7A
:101BF0009D1D0E94720D4981B201C6018E199F0977
:101C00000E94720D462DB401C6012A813B81821BC0
:101C1000930B0E94720D8A819B81E816F9060CF4E1
:101C2000BACF0F900F900F90DF91CF911F910F912E
:101C3000FF90EF90DF90CF90BF90AF909F908F90EC
:101C40007F906F905F904F903F902F9008958F926C
:101C50009F92AF92BF92CF92DF92EF92FF920F933B
:101C60001F93CF93DF936D3089F0C0906901D090BE
:101C70006A016A30D1F410926C0110926B0188E015
:101C8000C80ED11CD0926A01C092690181E090E037
:101C9000DF91CF911F910F91FF90EF90DF90CF9048
:101CA000BF90AF909F908F90089500916B0110911D
:101CB0006C01E5E06E9FE0011124C151DE4F480147
:101CC000F12CF5E0E12CFF1629F0CE010196FE0182
:101CD000E490EC01B12CA12C4E2D4170B6016A0D9F
:101CE0007B1DC4010E94D00CE694FFEFAF1ABF0A1F
:101CF00088E0A816B10481F7F394EFEF8E1A9E0ADC
:101D0000F6E0FF12DECF0A5F1F4F10936C010093C5
:101D10006B01BCCF8091150190911601A091170124
:101D2000B09118018093810190938201A093830167
:101D3000B09384018091110190911201A09113013F
:101D4000B091140180937D0190937E01A0937F0157
:101D5000B093800110928E0110928F011092900129
:101D60001092910110928A0110928B0110928C01B5
:101D700010928D01109286011092870110928801B5
:101D80001092890108954F925F926F927F928F9285
:101D90009F92AF92BF92DF92EF92FF920F931F93A9
:101DA000CF93DF93C6E5D1E0F12CE12C10E000E009
:101DB0008AE0D82E8091670190916801E816F906B3
:101DC0000CF048C020E030E048E453E468817981B9
:101DD0008A819B810E948F302B013C0120E030E002
:101DE00048E453E46C817D818E819F810E948F3015
:101DF0004B015C01A3019201C301B2010E94453372
:101E00002B013C01A5019401C501B4010E94453399
:101E10009B01AC01C301B2010E94903020E030E28E
:101E200049E956E40E94383387FD0FC0D09ED001A7
:101E3000D19EB00D1124AA5ABE4FFE018D2D0190E6
:101E40000D928A95E1F70F5F1F4F8FEFE81AF80A9E
:101E50002A96B0CF1093680100936701DF91CF916C
:101E60001F910F91FF90EF90DF90BF90AF909F90E8
:101E70008F907F906F905F904F9008952F923F9238
:101E80004F925F926F927F928F929F92AF92BF928A
:101E9000CF92DF92EF92FF920F931F93CF93DF9336
:101EA000CDB7DEB763970FB6F894DEBF0FBECDBFD8
:101EB0009F838E8379876887CA01B9010E94EA31BE
:101EC0006B01C801B7010E94EA311B018E809F801F
:101ED00021E0821A9108088519851B8A1A8A1982BD
:101EE000C601DD0CAA0BBB0B8E879F87A88BB98B15
:101EF000D801CD90DD90ED90FC90139714966D91E4
:101F00007D918D919C9117970E94EA316A837B8322
:101F10008C839D83AA80BB8083E0880C991C8A9562
:101F2000E1F7E885F985E80DF91D40805180628070
:101F3000738064817581868197810E94EA316A8706
:101F40007B878C879D878A859B8521E02A143B04AB
:101F50000CF020E031E0281639060CF030E02317B1
:101F600009F453C0C701B6010E94EA316B016E85C6
:101F70007F85888999890E9422324B015C01C301C7
:101F8000B2010E94EA316C197D099101EA81FB815D
:101F90002E1B3F0B629FC001639F900D729F900D9F
:101FA0001124BC01990F880B990B0E9422322B013E
:101FB0003C016A857B852A813B81621B730B072E5E
:101FC000000C880B990B0E9422329B01AC01C301CB
:101FD000B2010E9478312B013C01B601DD0C880B67
:101FE000990B0E9422329B01AC01C301B2010E94F5
:101FF00090309B01AC01C501B4010E946E3187FF96
:1020000004C0398181E0382739838A899B89019608
:10201000085F1F4F8A889B88AE81BF81A817B907C8
:10202000D1F4898163960FB6F894DEBF0FBECDBFA1
:10203000DF91CF911F910F91FF90EF90DF90CF90A4
:10204000BF90AF909F908F907F906F905F904F90D8
:102050003F902F9008959B8B8A8B4ACFCF92EF921F
:102060000F93CF93DF93EC018E816A3069F49D81E9
:102070009C836985860F8E8381E090E0DF91CF910C
:102080000F91EF90CF9008956A3378F4603308F0A1
:1020900051C0613209F450C09FE36E3291F09885CF
:1020A0009D5F8C81890F8C83E7CF6134C0F36B35E2
:1020B00030F09FE9960F9A3190F799EB01C09FEBB2
:1020C000960F61E0680F062E000C770BAC810A2E8C
:1020D000000CBB0BE8EFF0E029EF30E08F8181309E
:1020E00069F50491F901E4904AEF50E09923D1F0A9
:1020F00041E050E08E2D877011F450E040E02E2D2D
:10210000269526952695240F352F311D029FF00127
:10211000039FF00D11249E9FA0019F9F500D11243D
:1021200046505F4F9AEFC92E30E020E0CD010E946B
:10213000A70AB5CF94E0C4CF9EE3C3CF0491F901C1
:10214000E4904AEF50E09923D1F041E050E08E2D29
:10215000877011F450E040E02E2D269526952695A7
:10216000240F352F311D029FF001039FF00D112424
:102170009E9FA0019F9F500D112446505F4F8BEFF3
:10218000C82ED2CF089590E080E008952F923F921C
:102190004F925F926F927F928F929F92AF92BF9277
:1021A000CF92DF92EF92FF920F931F93CF93DF9323
:1021B000CDB7DEB7A9970FB6F894DEBF0FBECDBF7F
:1021C00089A71B012D8B3E8B4F8B588FE98EFA8E82
:1021D0000B8F1C8FEEACFFAC22966EAC7FAC2297BF
:1021E00024964EAC5FAC249726960EAD1FAD269775
:1021F00028962EAD3FAD28973A832983C601B501B5
:102200000E9473316D837E838F839887C601B501E9
:102210000E94B23369877A878B879C87B401990CB7
:10222000880B990B0E9422324B015C01B701FF0C15
:10223000880B990B0E9422326B017C01B301770C51
:10224000880B990B0E9422326D8F7E8F8F8F98A3FF
:10225000B201550C880B990B0E9422322B013C01D4
:10226000B801110F880B990B0E94223269A37AA33F
:102270008BA39CA329813A81B901330F880B990B59
:102280000E9422326DA37EA38FA398A72D813E8149
:102290004F815885C501B4010E94453369837A8313
:1022A0008B839C8329853A854B855C85C701B60164
:1022B0000E9445339B01AC0169817A818B819C81AD
:1022C0000E948F302D893E894F89588D0E94903011
:1022D0000E94EA3169837A838B839C8329853A85BE
:1022E0004B855C85C501B4010E9445334B015C01FF
:1022F0002D813E814F815885C701B6010E9445332B
:102300009B01AC01C501B4010E949030298D3A8D2A
:102310004B8D5C8D0E9490300E94EA316D877E87E4
:102320008F87988B2D813E814F8158856D8D7E8D55
:102330008F8D98A10E9445336B017C0129853A85D8
:102340004B855C85C301B2010E9445339B01AC0102
:10235000C701B6010E948F302D893E894F89588D63
:102360000E9490300E94EA31698B7A8B8B8B9C8B18
:1023700029853A854B855C856D8D7E8D8F8D98A1E5
:102380000E9445336B017C012D813E814F81588530
:10239000C301B2010E9445339B01AC01C701B601E4
:1023A0000E949030298D3A8D4B8D5C8D0E9490302B
:1023B0000E94EA312B012D813E814F81588569A110
:1023C0007AA18BA19CA10E9445336B017C012985D8
:1023D0003A854B855C856DA17EA18FA198A50E9451
:1023E00045339B01AC01C701B6010E948F302D8996
:1023F0003E894F89588D0E9490300E94EA314B01EE
:1024000029853A854B855C8569A17AA18BA19CA120
:102410000E9445336B017C012D813E814F8158859F
:102420006DA17EA18FA198A50E9445339B01AC01AF
:10243000C701B6010E949030298D3A8D4B8D5C8D7D
:102440000E9490300E94EA316B0137E0231631047C
:10245000D1F089A581111AC020FE09C092014989D5
:102460005A896D857E8589819A810E94EE0C21FEB4
:1024700007C09601A401B20189899A890E94EE0CD5
:1024800022FE0FC037C099A5992321F1760184015E
:10249000920149895A896D857E8589819A810E9438
:1024A000CB05A9960FB6F894DEBF0FBECDBFDF9166
:1024B000CF911F910F91FF90EF90DF90CF90BF9041
:1024C000AF909F908F907F906F905F904F903F90D4
:1024D0002F900895920149895A896D857E85898159
:1024E0009A810E94EE0C9601A401B20189899A8911
:1024F0000E94EE0C2D853E8549815A81B601C401AA
:10250000A9960FB6F894DEBF0FBECDBFDF91CF9175
:102510001F910F91FF90EF90DF90CF90BF90AF9001
:102520009F908F907F906F905F904F903F902F90F3
:102530000C94EE0C2F923F924F925F926F927F928B
:102540008F929F92AF92BF92CF92DF92EF92FF92C3
:102550000F931F93CF93DF93CDB7DEB72C970FB6B2
:10256000F894DEBF0FBECDBF1092AC061092AB0642
:1025700023E0222E312C0E94BE2F2EE030E040E0DE
:1025800050E00E942C30FB0183E0EE0FFF1F8A9584
:10259000E1F7E355F94F208131814281538129834D
:1025A0003A834B835C832481358146815781298717
:1025B0003A874B875C87CB0101966EE070E00E9402
:1025C0002D34AC0193E0440F551F9A95E1F7435524
:1025D000594F5E834D8329813A814B815C81AD8166
:1025E000BE816D917D918D919C910E948F304B01A8
:1025F0005C0129853A854B855C85ED81FE8164818E
:102600007581868197810E948F306B017C01A501C5
:1026100094010E940F312BED3FE049EC5FE30E94F3
:1026200090306D837E838F8398870E94BE2F20E138
:1026300037E240E050E00E942C300E94223220E03D
:1026400030E44CE156E40E9478312B013C01AC01AE
:102650009B01C501B4010E94453329813A814B8118
:102660005C810E94903020E030E048E453E40E9416
:1026700090304B015C01A3019201C701B6010E9499
:10268000453329853A854B855C850E94903020E052
:1026900030E048E453E40E94903069837A838B836E
:1026A0009C836D817E818F8198850E9473312B017F
:1026B0003C016D817E818F8198850E94B2336B01D0
:1026C0007C010091AB061091AC064EE0409F90015A
:1026D000419F300D11242C58374F3A87298720E02D
:1026E00030E040E450E4C301B2010E944533A5014B
:1026F00094010E949030A985BA856D937D938D9346
:102700009C93139720E030E040E450E4C701B60109
:102710000E94453329813A814B815C810E9490302F
:10272000E985FA8564837583868397832D813E814D
:102730004F81588520873187428753870F5F1F4F0E
:102740001093AC060093AB06B1E02B1A310809F0E8
:1027500012CF2C960FB6F894DEBF0FBECDBFDF911F
:10276000CF911F910F91FF90EF90DF90CF90BF908E
:10277000AF909F908F907F906F905F904F903F9021
:102780002F9008952F923F924F925F926F927F9277
:102790008F929F92AF92BF92CF92DF92EF92FF9271
:1027A0000F931F93CF93DF93CDB7DEB766970FB626
:1027B000F894DEBF0FBECDBF1092AA061092A906F4
:1027C00025E0222E312C0E94BE2F2EE030E040E08A
:1027D00050E00E942C30FB0183E0EE0FFF1F8A9532
:1027E000E1F7E355F94F20813181428153812983FB
:1027F0003A834B835C8324813581468157812D83C5
:102800003E834F835887CB0101966EE070E00E94B3
:102810002D34AC0193E0440F551F9A95E1F74355D1
:10282000594F5A87498729813A814B815C81A98513
:10283000BA856D917D918D919C910E948F302B0175
:102840003C012D813E814F815885E985FA8564815F
:102850007581868197810E948F306B017C01A30175
:1028600092010E940F3169877A878B879C870E942B
:10287000BE2F20E137E240E050E00E942C300E9461
:10288000223220E030E44CE156E40E9478314B01E2
:102890005C018091A9069091AA064EE2489F9001A2
:1028A000499F300D11242D533A4F3E872D87A501A6
:1028B0009401C301B2010E94453329813A814B81C1
:1028C0005C810E94903020E030E048E453E40E94B4
:1028D0009030AD85BE856D937D938D939C931397BA
:1028E000A5019401C701B6010E9445332D813E81A7
:1028F0004F8158850E94903020E030E048E453E456
:102900000E949030ED85FE8564837583868397836E
:1029100029853A854B855C85208731874287538797
:102920000E94BE2F0091A9061091AA062EE2209FB8
:10293000F001219FF00D1124ED53FA4FFA83E98342
:102940002AE530E040E050E00E942C30A981BA81B5
:102950001D967C936E931C970F5F1F4F1093AA06D2
:102960000093A906B1E02B1A310809F02CCFE3EC53
:10297000F5E0FE8BED8B312C212C201631060CF06E
:1029800049C1AD89BE8914964D905D906D907C9043
:1029900017971896CD90DD90ED90FC901B97C7018E
:1029A000B6010E9473314B015C01C701B6010E9460
:1029B000B2336B017C0120E030E040E050ECC50117
:1029C000B4010E9445336D837E838F83988720E016
:1029D00030E040E050ECC701B6010E9445336D87FE
:1029E0007E878F87988BA5019401C501B4010E9451
:1029F0009030698B7A8B8B8B9C8BA7019601C701DA
:102A0000B6010E94903069877A878B879C8720E087
:102A100030E0A901C501B4010E94453329853A85FA
:102A20004B855C850E949030ED89FE892081318143
:102A3000428153810E94903069837A838B839C8387
:102A4000AD89BE896D937D938D939C93139720E000
:102A500030E0A901C701B6010E9445332D813E81B6
:102A60004F8158850E949030A30192010E949030BE
:102A70002B013C01ED89FE89448255826682778272
:102A80002D853E854F8558896D817E818F81988502
:102A90000E948F3029813A814B815C810E94903065
:102AA000AD89BE891E966D937D938D939C935197AE
:102AB0002D853E854F8558896D817E818F819885D2
:102AC0000E949030A30192010E949030ED89FE890E
:102AD000628B738B848B958B2D853E854F855889B2
:102AE00069897A898B899C890E948F3029813A81F2
:102AF0004B815C810E949030AD89BE8956966D9362
:102B00007D938D939C93599729853A854B855C8558
:102B10006D817E818F8198850E949030A301920102
:102B20000E949030ED89FE89628F738F848F958F1C
:102B300020E030E040E850E4C501B4010E94453394
:102B400029853A854B855C850E948F3029813A81A1
:102B50004B815C810E949030AD89BE895E966D93F9
:102B60007D938D939C93919720E030E040E850E472
:102B7000C701B6010E94453329893A894B895C898E
:102B80000E949030A30192010E949030ED89FE894D
:102B900062A373A384A395A320E030E040E850EC47
:102BA000C501B4010E94453329853A854B855C8572
:102BB0000E948F3029813A814B815C810E94903044
:102BC000AD89BE8996966D937D938D939C939997CD
:102BD00020E030E040E850ECC701B6010E944533E8
:102BE00029893A894B895C890E949030A30192011E
:102BF0000E949030ED89FE8962A773A784A795A7EC
:102C0000FFEF2F1A3F0A2D893E89225D3F4F3E8BF1
:102C10002D8BB3CEE6EBF7E084E798E01082739655
:102C20008E179F07D9F766960FB6F894DEBF0FBED2
:102C3000CDBFDF91CF911F910F91FF90EF90DF906B
:102C4000CF90BF90AF909F908F907F906F905F904C
:102C50004F903F902F900895CF92DF92EF92FF9286
:102C60000F931F93CF93DF9310927D0710929007DD
:102C70001092A307C3ECD5E010E000E08AE5C82E6F
:102C8000D12CE12CF12C8091A9069091AA0608176D
:102C9000190764F40E94BE2FA70196010E942C30F0
:102CA0007D876C870F5F1F4FAE96EDCFE6EBF7E0A9
:102CB0001082739688E0E437F807D1F7DF91CF915F
:102CC0001F910F91FF90EF90DF90CF9008958F921A
:102CD0009F92AF92BF92CF92DF92EF92FF926B01E1
:102CE0007C01CA01B901A70196010E948F304B01F6
:102CF0005C010E94BE2F21E137E240E050E00E94DB
:102D00002C300E94223220E030E44CE156E40E9454
:102D10007831A50194010E944533A70196010E94D4
:102D20009030FF90EF90DF90CF90BF90AF909F904A
:102D30008F9008952F923F924F925F926F927F9261
:102D40008F929F92AF92BF92CF92DF92EF92FF92BB
:102D50000F931F93CF93DF93CDB7DEB72A970FB6AC
:102D6000F894DEBF0FBECDBF0E94A10861157105AA
:102D70008105910511F00E940D308DEA96E09A8749
:102D800089871C0110E000E01D821E8298EC9F8361
:102D9000E3E4E887412C512C80E2682E82E4782E0F
:102DA0000E94BE2F2BE030E040E050E00E942C302B
:102DB00065507109810991095801A60EB71EB7FE29
:102DC00004C0F8E9AF1AFEEFBF0A20E030E040E8A7
:102DD0005FE360E070E0CB010E9467162AE939E901
:102DE00049E95EE30E9490306B017C0120E030E015
:102DF00040E85FE30E94383318160CF45FC1C092BC
:102E0000B705D092B805E092B905F092BA052DEC5D
:102E10003CEC4CE45FE360E070E0CB010E9467169D
:102E20002DEC3CEC4CE45EE30E9490306B017C01A5
:102E300020E030E040E85FE30E94383318160CF4DD
:102E40004AC1C0921901D0921A01E0921B01F0927E
:102E50001C012091B7053091B8054091B9055091FA
:102E6000BA0560E070E080E89FE30E948F306B015C
:102E70007C01A301920160E070E08CE093E40E9489
:102E80008F309B01AC01C701B6010E9445339B0105
:102E9000AC01C301B2010E9490302B013C01C090F3
:102EA0001901D0901A01E0901B01F0901C01B501AE
:102EB000BB0C880B990B0E94223225E33AEF4EE8B7
:102EC0005CE30E9445334B015C0120E030E04CE0C4
:102ED00053E4C701B6010E94453369837A838B832B
:102EE0009C83A7019601C301B2010E944533298149
:102EF0003A814B815C810E9467166B017C01C501A0
:102F0000B4010E9473319B01AC01C701B6010E945C
:102F1000453369837A838B839C83C501B4010E9406
:102F2000B2339B01AC01C701B6010E9445336B016E
:102F30007C0120E030E040E050E460E070E080E0C0
:102F400090EC0E94671629813A814B815C810E9436
:102F500090304B015C0120E030E040E050E460E064
:102F600070E080E090EC0E946716A70196010E9435
:102F700090306B017C012D813E814F8158850E94EC
:102F80006E3187FF2AC020E030E048E453E4C501F9
:102F9000B4010E94903060931501709316018093E4
:102FA00017019093180120E030E048E453E4B601A3
:102FB000C7010E94903020E030E040EF51E40E94D1
:102FC0008F306093110170931201809313019093DD
:102FD0001401CD82DE82EF82F886F1018082918237
:102FE000A282B382C601D70184839583A683B78367
:102FF000075E1F4FF8E02F0E311C0E3581E01807D9
:1030000009F0CECE0DE117E0C12CD12C760146019E
:103010005701E985FA852081318142815381C501BB
:10302000B4010E9490304B015C01E985FA8524814E
:10303000358146815781C701B6010E9490306B01EE
:103040007C0189859A8508969A87898708171907C8
:1030500001F720E030E040E651E4C501B4010E94F0
:1030600078310E94EA317093B6056093B50520E08F
:1030700030E040E651E4C701B6010E9478310E9479
:10308000EA317093B4056093B3052A960FB6F894AD
:10309000DEBF0FBECDBFDF91CF911F910F91FF908B
:1030A000EF90DF90CF90BF90AF909F908F907F90E8
:1030B0006F905F904F903F902F90089580E090E048
:1030C000A0E8BFE38093B7059093B805A093B90536
:1030D000B093BA059CCE80E090E0A0E8BFE3809377
:1030E000190190931A01A0931B01B0931C01B1CE5A
:1030F000FB0101900020E9F73197AF01461B570B08
:10310000DC01ED91FC910280F381E02D09948F9216
:103110009F92AF92BF92EF92FF920F931F93CF9324
:10312000DF93CDB7DEB7A1970FB6F894DEBF0FBE21
:10313000CDBF7C01FA01CB0119A2223008F42AE0AC
:103140008E010F5D1F4F822E912CB12CA12CBF013F
:10315000A50194010E945E30F901CA016A300CF5A4
:10316000605DD8016E938D01232B242B252B79F7DD
:1031700090E080E0109721F0BD01C7010E9478180F
:10318000A1960FB6F894DEBF0FBECDBFDF91CF91F1
:103190001F910F91FF90EF90BF90AF909F908F90F5
:1031A0000895695CDECFCF92DF92EF92FF920F938A
:1031B0001F93CF93DF93EC016A017B01E881F981D2
:1031C0000190F081E02D6DE209958C01442755278F
:1031D000BA014C195D096E097F092AE0CE010E94EF
:1031E0008718800F911FDF91CF911F910F91FF9052
:1031F000EF90DF90CF9008950F931F93CF93DF93BD
:10320000EC01AB01770F660B770B77FF0FC00E94C5
:10321000D3188C0162E571E0CE010E947818800F0E
:10322000911FDF91CF911F910F9108952AE00E9485
:103230008718EFCF0F931F93CF93DF93EC010E947A
:103240007E098C0162E571E0CE010E947818800F42
:10325000911FDF91CF911F910F9108950E94E30973
:10326000109279011092C0008091010190910201A9
:1032700001979093020180930101181619060CF42E
:1032800065C00E94A40C10926C0110926B01109208
:103290006A011092690164EE71E088EA98E00E9488
:1032A0001A1966ED71E088EA98E00E941A19609197
:1032B0007A0170917B0188EA98E00E94FC180E94D4
:1032C000CD0C68EE73E080E090E00E94C60883E0D9
:1032D00090E0909302018093010188E99AE3909332
:1032E00004018093030110927B0110927A0162E540
:1032F00071E088EA98E00E94781865EC71E088EA4D
:1033000098E00E941A196AEB71E088EA98E00E943E
:103310001A190E94CD0C0E94B90C0E94970C8823A8
:10332000D1F30E94A108611571058105910511F085
:103330000E940D300E949A160E949A120E94C21397
:1033400010926801109267010E94C30E10929301BF
:10335000109292010E948A0E0C942C160C94163036
:103360001F920F920FB60F9211248F939F9380910B
:10337000E1009091E100937F9093E10083FF0FC003
:103380001092E90091E09093EB001092EC0092E330
:103390009093ED001092B20198E09093F00082FFBC
:1033A00022C093E09093E9009091F200992319F0E4
:1033B0009AE39093E8009091A301992341F09091B2
:1033C000A30191509093A301911101C05D9A909136
:1033D000B101992341F09091B10191509093B101C5
:1033E000911101C0289A84FF18C08091E2008E7E5E
:1033F00081608093E2008091E1008F7E8093E10004
:103400008091A4018E7E80618093A4019F918F9111
:103410000F900FBE0F901F90189580FFF7CF8091EF
:10342000E2008E7E80618093E2008091E1008E7EDA
:103430008093E1008091A4018E7E8160E5CF1F9290
:103440000F920FB60F921124CF92DF92EF92FF925C
:103450000F931F932F933F934F935F936F937F939C
:103460008F939F93AF93BF93EF93FF93CF93DF938C
:10347000CDB7DEB76C97DEBFCDBF1092E90080916B
:10348000E80083FF25C068E0CE0145960E949408BD
:1034900082EF8093E8008D8987FF39C09091E80022
:1034A00090FFFCCF982F907609F034C19E894F8908
:1034B000588D2F89F88C911131C0803861F5809139
:1034C000A2018093F1001092F1008EEF8093E8004A
:1034D0006C960FB6F894DEBF0FBECDBFDF91CF91D3
:1034E000FF91EF91BF91AF919F918F917F916F91DC
:1034F0005F914F913F912F911F910F91FF90EF900E
:10350000DF90CF900F900FBE0F901F9018959EEFF9
:103510009093E800C7CF1092F100D5CF913059F4C5
:103520008111D3CF4130510581F68091A2018D7F69
:103530008093A201CACF933049F48111C6CF4130A4
:10354000510519F68091A2018260F2CF953041F4C5
:103550008091E80080FFFCCF20682093E300B5CF86
:10356000963009F0A9C00B8D1C8D22E01092E90065
:103570001092A00110929F01F2122EC010929E0193
:1035800010929D010E9463081F8299E09983FA823C
:1035900091E09E8390EA98879AEF998720919F0106
:1035A0003091A001275F3F4F3C832B838D83109286
:1035B000E9001092A00110929F0110939E010093C8
:1035C0009D0149E050E0BE016F5F7F4F80E00E94A7
:1035D0003D080E94630879CF10939E0100939D01DE
:1035E0000E947A07DC0112960D911C9101151105BC
:1035F00009F451C1D801ED91FC910480F581E02DD1
:10360000BE016B5E7F4FC8010995009709F03EC16E
:10361000F80100851185EACFF3E0FF120EC08F8913
:10362000882309F440C0823061F440E867E085E611
:1036300099E00E94FC1C811148CF81E28093EB004D
:1036400047CF813029F440E86BE089E599E0F1CF7C
:10365000833099F70E947A07DC011296ED90FC9076
:103660008E010F5F1F4F6801E114F10479F0D7015B
:10367000ED91FC910680F781E02DB801C701099515
:10368000080F111DF701E084F184EECFD8011C92E0
:10369000F60101900020E9F73197BF016C197D090F
:1036A00040E0C601C6CF63E479E0FB01449150E0FD
:1036B00080E80E943D0809CF973009F4BECF9830CA
:1036C00021F481E08093F10000CF993009F0FDCE24
:1036D000837009F0B2CFE2E2F1E081E031E096E3FD
:1036E0002191222371F08093E9003093EB00DF01F8
:1036F00011972C912093EC009093ED008F5F873011
:1037000079F78EE78093EA001092EA008F89809320
:10371000B201DBCE8B8D9C8D1092E9001092A0013E
:1037200010929F0190939E0180939D01898D81113C
:1037300092C08E899D89913A49F4813209F07DCFFA
:1037400047E050E069E071E080E0B3CF913209F0EA
:1037500074CF833269F48F89988DB0E0A0E08093B4
:10376000050190930601A0930701B0930801ADCE27
:10377000803269F48091E80082FFFCCF67E089E045
:1037800091E00E9494088BEF8093E8009ECE8232F5
:1037900009F09BCE8F8980931001EEEFFFE78591B2
:1037A00094918B3F9C4D51F1E0E0F8E0809109014C
:1037B00090910A01A0910B01B0910C01803B9440C3
:1037C000A105B105F1F48091100180FD1AC0EE3F12
:1037D0008AE0F80789F587E797E7918380838091EE
:1037E00060008093A10188E19BE00FB6F894A89552
:1037F000809360000FBE9093600067CEEEEFFAE01A
:10380000D5CF808191818737974709F05ECEA89503
:10381000809160008861809360008091A101809315
:103820006000EE3F2AE0F20789F08091FE0A909155
:10383000FF0A9183808349CE8081918187379807E1
:1038400051F29093FF0A8093FE0AC5CF1092FF0AAF
:103850001092FE0A3ACE0E947A07DC0112960D9170
:103860001C910115110509F4E8CED801ED91FC91E8
:103870000190F081E02DBE016B5E7F4FC80109957C
:10388000811123CEF80100851185EBCF181619069A
:103890000CF41BCED2CEF1E0FF12BECE67E479E08D
:1038A00004CF1F920F920FB60F9211242F933F93C4
:1038B0008F939F93AF93BF938091950190919601C1
:1038C000A0919701B09198013091940123E0230FCA
:1038D0002D3758F50196A11DB11D209394018093B9
:1038E000950190939601A0939701B09398018091D0
:1038F000990190919A01A0919B01B0919C01019630
:10390000A11DB11D8093990190939A01A0939B01F1
:10391000B0939C01BF91AF919F918F913F912F9157
:103920000F900FBE0F901F90189526E8230F029658
:10393000A11DB11DD2CF1F920F920FB60F9211246D
:103940002F933F934F935F936F937F938F939F93A7
:10395000AF93BF93EF93FF9380915F0190916001CC
:10396000A0916101B0916201892B8A2B8B2B09F404
:1039700040C080915E0181110BC088B190E489271D
:1039800088B980915D01882319F088B1805888B981
:1039900080915F0190916001A0916101B0916201FD
:1039A000181619061A061B069CF480915F01909167
:1039B0006001A0916101B09162010197A109B10973
:1039C00080935F0190936001A0936101B0936201C5
:1039D000FF91EF91BF91AF919F918F917F916F91E7
:1039E0005F914F913F912F910F900FBE0F901F90BD
:1039F00018950E94EF09ECCFEF92FF920F931F935F
:103A0000CF93DF93F82E192FE62E042F81E0860F37
:103A1000880F0E940F0883E00E940F08CF2DD12F3E
:103A2000EC0EFD2EF11CCE15DF05B9F007FF13C01B
:103A3000FE0184910E940F08182F80E00E940F0859
:103A4000812321968111EFCFDF91CF911F910F91AB
:103A5000FF90EF9008958881EDCF81E0F5CFEDE103
:103A6000F7E01382128288EE93E0A0E0B0E0848356
:103A70009583A683B7838CE291E0918380838FEF57
:103A80009FEF95878487E8EAF8E0138212828AE440
:103A900091E091838083EEE9F8E0138212828EE355
:103AA00091E09183808388E0818781E0808715821F
:103AB000168214828783E4E7F8E088E893E195872B
:103AC0008487938F828F91A780A7E6EBF7E0128A15
:103AD000118A15A214A210AE17AA10920108109212
:103AE00000081092140810921308109227081092E0
:103AF000260810923A081092390810924D08109238
:103B00004C081092600810925F081092730810928F
:103B10007208EDE7F7E0128A118A15A214A210AE1E
:103B200017AA82EE94E090937C0780937B0780E055
:103B300090E890937A078093790746983E9A479841
:103B40003F9A0895CF93DF93CDB7DEB7CC54D10918
:103B50000FB6F894DEBF0FBECDBF789484B58260F7
:103B600084BD84B5816084BD85B5826085BD85B521
:103B7000816085BD80916E00816080936E0010929F
:103B8000810080918100826080938100809181001A
:103B900081608093810080918000816080938000AB
:103BA000809191008260809391008091910081606A
:103BB000809391008091900081608093900080912B
:103BC000C10084608093C1008091C10082608093B5
:103BD000C1008091C10081608093C1008091C300C9
:103BE00081608093C3008091C00082608093C00098
:103BF0008091C20081608093C20080917A008460CD
:103C000080937A0080917A00826080937A0080911C
:103C10007A00816080937A0080917A008068809336
:103C20007A001092B2011092A2011092A401809128
:103C3000D70081608093D70080EA8093D80089B54F
:103C4000806189BD89B5826089BD09B400FEFDCF60
:103C500061E070E080E090E00E94C6088091D800AA
:103C60008F7C80618093D8008091E000807F80937A
:103C7000E0008091E1008E7E8093E1008DE08093F2
:103C8000E200559A209A81EC80937C0085B1806F88
:103C900085B984B1877E84B984B1876E84B95E9A10
:103CA0005F988AB1806D8AB9769A6E9881B3806F79
:103CB00081BB899880B38D7080BB80E58CBD81E02D
:103CC0008DBD85E090E00E94920C5F9A85E090E0C7
:103CD0000E94920C5E985C98EFE9F7E08CEA97E01E
:103CE00024912EBD00000DB407FEFDCF31968E1736
:103CF0009F07B1F75C9A81E880936400809165002A
:103D00008160809365000E94CD0C80E80E94C20C07
:103D10008823A9F05C9885EA8EBD00000DB407FEEB
:103D2000FDCF5C9A2E982F982D9880916400806228
:103D30008093640081E083BF889513BEFCCF84E04C
:103D40000E94C20C882309F448C02D9884E80E9480
:103D5000C20C8823E1F00E94900C88EC90E00E9455
:103D6000920C2F9882E090E00E9416308F3F29F04D
:103D70006FEF82E090E00E941E3084EF91E00E949D
:103D8000920C2F9A84E80E94C20C8111FBCF84E12F
:103D90000E94C20C8823E1F00E94900C88EC90E015
:103DA0000E94920C2E9882E090E00E9416308823A8
:103DB00029F060E082E090E00E941E3084EF91E004
:103DC0000E94920C2E9A84E10E94C20C8111FBCFBA
:103DD00088EC90E00E94920CB2CF0E94900C82E09E
:103DE00090E00E94AE19882309F4AEC13E9A3F9A32
:103DF00081E08093710181E090E00E94AE19282F4C
:103E00002470522E81FF14C021112E9801EF1FEF54
:103E100068E0A62EB12C7CE6E72EF12C80E40E940F
:103E2000C20C882309F493C12E9A2F9A0E94900CF9
:103E300082E390E00E94920C0E94970C8111F8CFCF
:103E400080E1809300010E94A40C6DE278E08EE98D
:103E500098E00E941A1921E030E044E450E065E067
:103E600070E082E490E00E94EE0C21E030E048E453
:103E700050E061E070E084E490E00E94EE0C25E008
:103E800030E04AE450E061E070E088E490E00E94B5
:103E9000EE0C25E030E042E450E065E070E08AE4BA
:103EA00090E00E94EE0C61E178E08EE998E00E94DB
:103EB0001A1943E06BE070E089E390E00E94980DEE
:103EC0001092A3081092A20809E10093A4086CEFD5
:103ED00077E08EE998E00E941A191092A3081092D8
:103EE000A20813E21093A4086AEE77E08EE998E046
:103EF0000E941A1989E68093A3088093A208009370
:103F0000A40864EE77E08EE998E00E941A1989E52A
:103F10008093A3088093A2080093A4081092A50898
:103F200044E06CE170E08AE590E00E94980D62EE5A
:103F300077E08EE998E00E941A192CE130E046E61D
:103F400050E06CE170E081E690E00E94EE0C01E050
:103F50000093A50884E68093A3088093A208109399
:103F6000A4086BED77E08EE998E00E941A198FE4BF
:103F70008093A3088093A2081093A4081092A50828
:103F800044E066E270E080E590E00E94980D69ED03
:103F900077E08EE998E00E941A190093A50826E2BE
:103FA00030E04DE550E066E270E088E590E00E9488
:103FB000EE0C8DE28093A3088093A20881E38093A6
:103FC000A40864EC77E08EE998E00E941A1924E3D3
:103FD00030E049E250E064E370E084E290E00E9467
:103FE000EE0C84E28093A3088093A20889E3809377
:103FF000A4086CEA77E08EE998E00E941A192CE395
:1040000030E040E250E06CE370E08BE190E00E9431
:10401000EE0C07E010E047E060E370E0C8010E94AA
:10402000720D0F5F1F4F0E301105A9F713E3E12E3C
:10403000F12C00E110E026E330E04DE050E060E3D9
:1040400070E08DE090E00E94CB0547E069E370E00E
:10405000C8010E94720D0F5F1F4F07311105A9F7AC
:10406000B6E3EB2EF12C03E110E029E330E046E16A
:1040700050E069E370E080E190E00E94CB0509E147
:1040800010E047E060E370E0C8010E94720D0F5F2E
:104090001F4F00321105A9F7A3E3EA2EF12C06E128
:1040A00010E026E330E049E150E060E370E089E1B0
:1040B00090E00E94CB050E94CD0C0E94B90C0E949A
:1040C000970C8823D1F384E00E94C20C882321F04E
:1040D0000E949F0C0E94E3090E94A10861157105CE
:1040E0008105910511F00E940D300E949A160E94E0
:1040F0009A120E94C21310926801109267010E94E6
:10410000C30E0E948A0E10927D07109290071092A3
:10411000A3070E94A1088FB7F89440919501509190
:10412000960160919701709198018FBF8091650110
:10413000882309F4D6C01092650180E090E0892BB5
:1041400041F30E940000E5CF0E949F0C54CE552001
:1041500029F00430110511F42E9A2F9881E00E9465
:104160003007980117FF04C022273327201B310B8B
:1041700027703327C80117FD079653E0959587955B
:104180005A95E1F717FF05C00197A501421B530B94
:104190009A01BC017695762F6627779567956D54C1
:1041A0007E4FB0E0A0E01501221A330A8E3F5FEF88
:1041B000950709F446C048E550E0FD01E95BF84F7A
:1041C0004F013B01F0E86F0E711C8F3F9807C9F05B
:1041D000F401E41BF50B44906701C41AD50AC60E1E
:1041E000D71EE42DF0E0022E02C0EE0FFF1F0A944E
:1041F000E2F7FAA3E9A3F6014080F9A14F2AF601FC
:10420000408221153105C9F0F401E41BF50B4490FF
:104210006701C41AD50AC60CD71CE42DF0E0022CA5
:1042200002C0F595E7950A94E2F7FAA3E9A3F6012F
:104230004080F9A14F2AF60140824150510909F00E
:10424000C4CF0196A85ABF4F60587F4FA03BB1051D
:1042500009F0ACCF0E94CD0C8FE090E00E94920C50
:104260000F5F1F4F0931110509F0D8CD552011F00E
:104270002F9A2D9880E991E00E94920C0E94900C58
:1042800081E090E00E94AE1980FFD2CD8AE090E0FC
:104290000E94AE199FEF980F9E3F08F0C9CD22E310
:1042A00030E030936C0120936B0128E330E03093D1
:1042B0006A01209369010BE010E0682F88EA98E01A
:1042C0000E94270EC8010E94AE190F5F1F4F0131D7
:1042D000110599F70E94CD0C88EE93E00E94920C94
:1042E000A7CD80916601F42FF81B8F2F90910001CC
:1042F000F91748F48F5F891708F01FCF81E083BF5B
:10430000889513BE1ACF81E08093650140936601C2
:104310008091630190916401019690936401809370
:10432000630180917901882339F08150809379016C
:10433000811102C01092C00080917801882391F011
:104340008091760190917701049761F01092780145
:1043500089ED98E00E94940A84E090E090937701C0
:10436000809376018091760190917701049741F4D2
:1043700080917401811104C010927701109276012E
:1043800080917501882391F0809176019091770159
:10439000892B61F41092750187EA98E00E94940AD3
:1043A00083E090E09093770180937601809176018D
:1043B00090917701039741F480917401811104C0B9
:1043C0001092770110927601809176019091770199
:1043D00020917C01222309F4CAC2892B51F481EA7D
:1043E00098E00E94940A82E090E090937701809395
:1043F00076018091760190917701209185012223A9
:1044000009F4BFC2892B51F48BE998E00E94940A09
:1044100081E090E090937701809376010E94A1085B
:104420000E94B90C0E94A1080E94A1080E94A40C3D
:104430000E94A1088091920190919301019690931E
:104440009301809392010E94A10880E20E94C20C15
:104450008823B1F02DEC3CEC4CEC5DE360918E01D7
:1044600070918F0180919001909191010E948F3005
:1044700060938E0170938F018093900190939101CE
:1044800080E40E94C20C8823B1F02DEC3CEC4CEC93
:104490005DE360918E0170918F0180919001909108
:1044A00091010E94903060938E0170938F018093F0
:1044B00090019093910188E00E94C20C882309F436
:1044C0006AC20091030110910401101611060CF04C
:1044D00062C28090860190908701A0908801B09080
:1044E00089012BED3FE049EC5FE360918E01709113
:1044F0008F0180919001909191010E948F306B010A
:104500007C010E9473312AE037ED43EA5CE30E94AC
:1045100045339B01AC0160918A0170918B018091C0
:104520008C0190918D010E94903060938A0170936C
:104530008B0180938C0190938D01C701B6010E947D
:10454000B2332AE037ED43EA5CE30E944533A5012C
:1045500094010E949030609386017093870180934C
:10456000880190938901005111091093040100936F
:10457000030181E0809385010E94A1080E94A108A7
:1045800020918101309182014091830150918401F9
:1045900029A33AA34BA35CA36091B5057091B6051E
:1045A00068537F4F072E000C880B990B0E94223214
:1045B00029A13AA14BA15CA10E948F304B015C0163
:1045C00080917D0190917E01A0917F01B091800149
:1045D0008DA39EA3AFA3B8A76091B3057091B40556
:1045E00068537F4F072E000C880B990B0E942232D4
:1045F0002DA13EA14FA158A50E948F306B017C01D7
:10460000A5019401C501B4010E9445332B013C0171
:10461000A7019601C701B6010E9445339B01AC0179
:10462000C301B2010E9490300E94C0332B013C01B3
:1046300020E030E0A9010E943833181684F4A30169
:104640009201C501B4010E9478314B015C01A301C4
:104650009201C701B6010E9478316B017C012AE00A
:1046600037ED43EA5BE3C501B4010E944533209175
:104670008A0130918B0140918C0150918D010E94F3
:1046800090306DA77EA78FA798AB2AE037ED43EA5D
:104690005BE3C701B6010E9445332091860130914A
:1046A000870140918801509189010E9490302B012F
:1046B0003C010E94A1080E94A1082DA53EA54FA57E
:1046C00058A969A17AA18BA19CA10E9490304B01AD
:1046D0005C018092810190928201A0928301B0924C
:1046E0008401A30192016DA17EA18FA198A50E94D2
:1046F00090306B017C01C0927D01D0927E01E092EE
:104700007F01F092800124E63BE34FE75FE36DA574
:104710007EA58FA598A90E94453360938A01709366
:104720008B0180938C0190938D0124E63BE34FE74E
:104730005FE3C301B2010E94453360938601709329
:10474000870180938801909389010E94A1080E94AB
:10475000A10820E030E0A901C501B4010E946E313A
:1047600087FF08C01092810110928201109283018C
:104770001092840120E030E048EC53E46091810124
:104780007091820180918301909184010E9438335D
:10479000181664F480E090E0A8ECB3E48093810103
:1047A00090938201A0938301B093840120E030E0D4
:1047B000A901C701B6010E946E3187FF08C010929F
:1047C0007D0110927E0110927F011092800120E005
:1047D00030E048EC53E460917D0170917E0180915E
:1047E0007F01909180010E943833181664F480E0B4
:1047F00090E0A8ECB3E480937D0190937E01A093B8
:104800007F01B09380010E94A1080E94A108C0907E
:104810008101D0908201E0908301F090840120E03A
:1048200030E040E852E4C701B6010E948F302B010E
:104830003C014092BF055092C0056092C105709244
:10484000C20520917D0130917E0140917F01509100
:10485000800129A33AA34BA35CA320E030E040E011
:1048600052E469A17AA18BA19CA10E948F304B01D7
:104870005C018092BB059092BC05A092BD05B092F0
:10488000BE0520E030E0A901C301B2010E946E31F3
:1048900087FF08C01092BF051092C0051092C10595
:1048A0001092C20520E030E048E853E46091BF0573
:1048B0007091C0058091C1059091C2050E94383366
:1048C000181664F480E090E0A8E8B3E48093BF0594
:1048D0009093C005A093C105B093C20520E030E0DD
:1048E000A901C501B4010E946E3187FF08C0109272
:1048F000BB051092BC051092BD051092BE0520E0CC
:1049000030E048EA53E46091BB057091BC058091AA
:10491000BD059091BE050E943833181664F480E0FE
:1049200090E0A8EAB3E48093BB059093BC05A09304
:10493000BD05B093BE050E94A1088091730182FD60
:104940007CC08091720182FF78C00E94A108809192
:104950007D07882319F180919007882309F443C3C8
:104960008091A307811167C042E050E019C002970F
:1049700009F03FCD0E94E309109277011092760171
:1049800038CD019709F04ACD0E94E30910927701D2
:104990001092760143CD10928501EECD50E040E0BB
:1049A00060918E0170918F018091900190919101A1
:1049B00023E1249F8001259F100D11240358184FD7
:1049C00021E0D8012C93F801C182D282E382F482E3
:1049D00029A13AA14BA15CA115962D933D934D932E
:1049E0005C9318972BED3FE049EC5FE30E948F301A
:1049F0006B017C010E947331F801618772878387A4
:104A00009487C701B6010E94B233D8011D966D93F9
:104A10007D938D939C93509780917101882359F0D9
:104A200088E08093790180E48093C0001092BF00F9
:104A300089EF8093D1000E94A1080E94A108EDE7B0
:104A4000F7E0FEA7EDA7FAA3E9A333243394A9A1C5
:104A5000BAA18C91882309F439C151968D919C910A
:104A60005297019652969C938E93519719962D9139
:104A70003D914D915C911C9711966D917D918D9119
:104A80009C9114970E949030E9A1FAA161837283EE
:104A90008383948325853685478550896581768112
:104AA000878190850E949030A9A1BAA115966D9337
:104AB0007D938D939C931897F3ECCF2EF5E0DF2E2A
:104AC0000E94A10860936D0170936E0180936F0145
:104AD00090937001E9A1FAA1E580F6800781108525
:104AE0002181328143815481D6019A968D919D9185
:104AF0000D90BC91A02D8DA39EA3AFA3B8A7D60106
:104B000096968D919D910D90BC91A02D89A79AA705
:104B1000ABA7BCA7D60192968D919D910D90BC91AB
:104B2000A02D89AB9AABABABBCABD6015E968D9199
:104B30009D910D90BC91A02D8DAB9EABAFABB8AF4E
:104B4000D6015A968D919D910D90BC91A02D2196E4
:104B50008CAF9DAFAEAFBFAF2197F6018688978827
:104B6000A08CB18C42885388648875888685978527
:104B7000A089B18989839A83AB83BC834D825E828D
:104B80006F82788689869A86AB86BC8621968CADA4
:104B90009DADAEADBFAD21978D879E87AF87B88B9A
:104BA0008DA99EA9AFA9B8AD898B9A8BAB8BBC8B15
:104BB00089A99AA9ABA9BCA98D8B9E8BAF8BB88F05
:104BC00089A59AA5ABA5BCA5898F9A8FAB8FBC8F01
:104BD0008DA19EA1AFA1B8A58D8F9E8FAF8FB8A3D9
:104BE000BE016F5F7F4F84E090E00E943E0F8823FC
:104BF00031F180917A0190917B0186509F4F909383
:104C00007B0180937A01A9A1BAA11C928091A90687
:104C10009091AA0601979093AA068093A906BEE2F6
:104C2000B89FF001B99FF00D1124ED53FA4FD60152
:104C30008EE201900D928A95E1F7309278010E9400
:104C4000A108EEE2CE0ED11CF9EACF16F6E0DF069F
:104C500009F036CFA9A1BAA11196CD90DD90ED90C3
:104C6000FC90149720E030E0A901C701B6010E9432
:104C70006E3187FD24C020E030E048EC53E4C701EA
:104C8000B6010E9438331816D4F0E9A1FAA1C58004
:104C9000D680E780F08420E030E0A901C701B601AA
:104CA0000E946E3187FD0BC020E030E048EC53E4F9
:104CB000C701B6010E94383318160CF097C1A9A19C
:104CC000BAA11C9252961C921E925197E9A1FAA188
:104CD0007396FAA3E9A326EB37E02E173F0709F0F6
:104CE000B6CE0E94A10880E10E94C20C882309F47C
:104CF000D7C28091810190918201A0918301B091EE
:104D0000840189A79AA7ABA7BCA720917D01309108
:104D10007E0140917F015091800129AB3AAB4BABB2
:104D20005CAB0E94A10880910301909104011816C8
:104D300019060CF094C181979093040180930301AC
:104D4000181619060CF08BC181E080937C018090CD
:104D50008E0190908F01A0909001B0909101C501BB
:104D6000B4010E9473316B017C01C501B4010E9442
:104D7000B2336DA37EA38FA398A720E030E048EC68
:104D800051E40E9445336DAB7EAB8FAB98AF20E012
:104D900030E040E751ECC701B6010E9445332DA930
:104DA0003EA94FA958AD0E948F3029A53AA54BA521
:104DB0005CA50E94903021966CAF7DAF8EAF9FAF07
:104DC000219720E030E048EC51E4C701B6010E9491
:104DD000453369AF7AAF8BAF9CAF20E030E040E75E
:104DE00051EC6DA17EA18FA198A50E94453329ADFC
:104DF0003AAD4BAD5CAD0E94903029A93AA94BA9C0
:104E00005CA90E94903025966CAF7DAF8EAF9FAFAE
:104E1000259720E030E0A901C701B6010E94453383
:104E20004B015C0120E030E0A9016DA17EA18FA1C2
:104E300098A50E9445332B013C01AC019B01C501A3
:104E4000B4010E948F3029A53AA54BA55CA50E940C
:104E5000903029966CAF7DAF8EAF9FAF2997A3019D
:104E60009201C501B4010E94903029A93AA94BA929
:104E70005CA90E9490302B013C0120E030E040E72B
:104E800051E4C701B6010E9445332DA93EA94FA99F
:104E900058AD0E948F3029A53AA54BA55CA50E946C
:104EA00090304B015C0120E030E040E751E46DA11F
:104EB0007EA18FA198A50E94453329AD3AAD4BAD97
:104EC0005CAD0E94903029A93AA94BA95CA90E9427
:104ED000903069A77AA78BA79CA7312C212CC09072
:104EE000AB06D090AC062C143D040CF0BAC03EE0EA
:104EF000329DC001339D900D1124AC014C58574F89
:104F00005EA34DA3DA011496ED90FD900D911C91D6
:104F100017972D913D914D915C9121968CAD9DAD52
:104F2000AEADBFAD219789839A83AB83BC832596B1
:104F30008CAD9DADAEADBFAD25978D839E83AF8308
:104F4000B88729968CAD9DADAEADBFAD2997898749
:104F50009A87AB87BC874D865E866F86788A898AFA
:104F60009A8AAB8ABC8A89A59AA5ABA5BCA58D8B6C
:104F70009E8BAF8BB88FBE016F5F7F4F83E090E059
:104F80000E943E0F882309F466C08091030190912E
:104F9000040188579C4E90930401809303018091F3
:104FA0007A0190917B018C599F4F90937B01809364
:104FB0007A0191E0C91AD108AEE0AC9DF001AD9D37
:104FC000F00D1124EC58F74F8EE0ADA1BEA1019079
:104FD0000D928A95E1F7D092AC06C092AB06B1E093
:104FE000B09375017CCF41E050E0DACCE9A1FAA1A1
:104FF00061897289072E000C880B990B0E9422325E
:1050000020E030E040EF52E40E94383318160CF4F0
:1050100056CE0E94A10860936D0170936E0180933B
:105020006F0190937001E9A1FAA125813681478132
:10503000508561817281838194810E94E504882377
:1050400039F0A9A1BAA11C9252961C921E925197B6
:105050000E94A1083BCEEFEF2E1A3E0A40CF1092DD
:105060007C010E94A1080E94A10823EC35E03EA328
:105070002DA389011AA619A680917D0190917E0128
:10508000A0917F01B091800189AB9AABABABBCAB77
:1050900020918101309182014091830150918401DE
:1050A0002DAB3EAB4FAB58AF8091A9069091AA06AD
:1050B00049A55AA5481759070CF004C1D8011C96F8
:1050C0008D919C911D970197181619060CF4F5C047
:1050D000EAE5F0E01D96FC93EE931C9714968D90F4
:1050E0009D90AD90BC901797CD90DD90ED90FC9089
:1050F0002DA93EA94FA958ADC701B6010E948F3016
:105100002B013C0129A93AA94BA95CA9C501B4010D
:105110000E948F3069AF7AAF8BAF9CAFA301920131
:10512000C301B2010E9445332B013C0129AD3AADC8
:105130004BAD5CADCA01B9010E9445339B01AC0186
:10514000C301B2010E94903020E030E041E655E416
:105150000E946E3118160CF49BC0809192019091C0
:105160009301853B91050CF493C0E6EBF7E0312CFD
:10517000212C8081811197C023E1229DF001239D84
:10518000F00D1124EA54F84F31E03083C182D2820D
:10519000E382F48285829682A782B086A701960177
:1051A0006DA97EA98FA998AD0E948F306B017C01FB
:1051B000A501940169A97AA98BA99CA90E948F30A5
:1051C0002B013C01A7019601C701B6010E9445339E
:1051D0004B015C01A3019201C301B2010E9445335E
:1051E0009B01AC01C501B4010E9490300E94C03304
:1051F0004B015C012FE632E143E85AE30E946E3135
:1052000087FF08C0EFE68E2EE2E19E2EE3E8AE2E89
:10521000EAE3BE2E43E1429DC001439D900D11245F
:10522000DC01AA54B84F1D01A5019401C701B601C4
:105230000E94783120E030E040E05FE30E94453397
:10524000F1016187728783879487A5019401C30167
:10525000B2010E94783120E030E040E05FE30E943C
:105260004533D1011D966D937D938D939C935097FB
:1052700080917101882361F0B6E0B0937901E0E498
:10528000E093C000F1E0F093BF002AE52093D10045
:10529000E9A5FAA53196FAA7E9A7025D1F4FECCE62
:1052A00010927C01E0CE3FEF231A330A73964AE056
:1052B0002416310409F05DCFEBCF1D969C938E939D
:1052C0001C97E6CF0E94A1080E94A10876EB272E2A
:1052D00077E0372E8101D8018C91882309F47AC0B8
:1052E00019962D913D914D915C911C9711966D9160
:1052F0007D918D919C9114970E949030F80161836B
:10530000728383839483258536854785508965819B
:105310007681878190850E949030D80115966D9393
:105320007D938D939C9318970E94A10860936D01C3
:1053300070936E0180936F0190937001F801258145
:1053400036814781508561817281838194810E9479
:10535000E504882331F0D8011C9252961C921E92CB
:1053600051970E94A108F801C180D280E380F480A7
:1053700020E030E0A901C701B6010E946E3187FD2F
:1053800025C020E030E048EC53E4C701B6010E949C
:1053900038331816DCF0D8011596CD90DD90ED90DD
:1053A000FC90189720E030E0A901C701B6010E94E7
:1053B0006E3187FD0BC020E030E048EC53E4C701BC
:1053C000B6010E94383318160CF03CC1F801108267
:1053D000128A118A0D5E1F4F24E738E0201731072B
:1053E00009F079CF0E94A1080E94A1081AAA19AA5F
:1053F0008090BF059090C005A090C105B090C205F7
:10540000C090BB05D090BC05E090BD05F090BE05F6
:105410008091A9069091AA0649A95AA94817590747
:105420000CF06FC1ADA1BEA18D919D910D90BC916D
:10543000A02D89A79AA7ABA7BCA7A5019401BC0181
:10544000CD010E948F304B015C01EDA1FEA1448093
:10545000558066807780A7019601C301B2010E9442
:105460008F306B017C01ADA1BEA11E962D913D91A7
:105470004D915C915197C501B4010E94903029A5CE
:105480003AA54BA55CA50E948F300E94EA316DAB16
:105490007EAB8FAB98AFEDA1FEA122893389448901
:1054A0005589C701B6010E949030A30192010E9464
:1054B0008F300E94EA3169AF7AAF8BAF9CAFADA15C
:1054C000BEA156962D913D914D915C915997C50184
:1054D000B4010E94903029A53AA54BA55CA50E9475
:1054E0008F300E94EA3121966CAF7DAF8EAF9FAFB7
:1054F0002197EDA1FEA1228D338D448D558DC701DD
:10550000B6010E949030A30192010E948F300E9448
:10551000EA3125966CAF7DAF8EAF9FAF2597ADA1D9
:10552000BEA15E962D913D914D915C919197C501E3
:10553000B4010E94903029A53AA54BA55CA50E9414
:105540008F300E94EA3129966CAF7DAF8EAF9FAF4E
:105550002997EDA1FEA122A133A144A155A1C70124
:10556000B6010E949030A30192010E948F300E94E8
:10557000EA312D966CAF7DAF8EAF9FAF2D97ADA169
:10558000BEA196962D913D914D915C919997C50143
:10559000B4010E94903029A53AA54BA55CA50E94B4
:1055A0008F300E94EA314B01EDA1FEA122A533A567
:1055B00044A555A5C701B6010E949030A3019201F0
:1055C0000E948F300E94EA316B0123962EAD3FADD1
:1055D00023974DAD5EAD69AD7AAD8DA99EA90E94B0
:1055E000EE0C2B962EAD3FAD2B9727964EAD5FADB3
:1055F000279723966EAD7FAD23978DAD9EAD0E940C
:10560000EE0C9601A4012B966EAD7FAD2B972796DD
:105610008EAD9FAD27970E94EE0C29AD3AAD4DA9F6
:105620005EA9B601C4010E94EE0C29A93AA92F5F18
:105630003F4F3AAB29AB4DA15EA1425D5F4F5EA3E8
:105640004DA3D6CED80151968D919C915297893712
:1056500091052CF01C9252961C921E92519780E15B
:105660000E94C20C8111B6CE809103019091040179
:10567000181619060CF0AECE2091810130918201EE
:105680004091830150918401F8016181728183818D
:1056900094810E948F304B015C0120917D013091FB
:1056A0007E0140917F0150918001D80115966D9146
:1056B0007D918D919C9118970E948F306B017C0198
:1056C000A5019401C501B4010E9445334B015C0161
:1056D000A7019601C701B6010E9445339B01AC01A9
:1056E000C501B4010E94903020E030E040E151E477
:1056F0000E946E3187FF6ECE0E942E19F801108233
:1057000069CE0E94A1080E94A108D1018C91882332
:10571000E9F0A701960115966D917D918D919C916F
:1057200018970E948F300E94EA312B01A501940145
:10573000F10161817281838194810E948F300E9486
:10574000EA31CB0141E0B2010E94980DF3E12F0E46
:10575000311C20163106C9F60E94A1080E94A1083A
:1057600020E030E048E453E46091AD067091AE066D
:105770008091AF069091B0060E949030A5019401EF
:105780000E948F300E94EA312B0120E030E048E493
:1057900053E46091B1067091B2068091B306909186
:1057A000B4060E949030A70196010E948F300E949B
:1057B000EA318B015DEA652E56E0752E65E1262EF5
:1057C00067E0362E20E030E048E453E4D301189639
:1057D0006D917D918D919C911B970E949030A501B8
:1057E00094010E948F300E94EA316DA37EA38FA3A3
:1057F00098A720E030E048E453E4F3016485758520
:10580000868597850E949030A70196010E948F306F
:105810000E94EA3169A77AA78BA79CA729A53AA578
:105820004DA15EA1B801C2010E94EE0CF8E06F0E1E
:10583000711C4DA05EA009A51AA52614370411F607
:1058400020E030E048E453E46091B1067091B20684
:105850008091B3069091B4060E949030A701960102
:105860000E948F300E94EA312B0120E030E048E4B2
:1058700053E46091AD067091AE068091AF069091B1
:10588000B0060E949030A50194010E948F300E94C2
:10589000EA319201AB01B8018DA19EA10E94EE0CEC
:1058A0000E94A1080E94A10844E7242E48E0342E5B
:1058B00010E000E08091AB069091AC060817190744
:1058C00024F5A7019601D10114966D917D918D91DA
:1058D0009C9117970E948F300E94EA312B01A501FD
:1058E0009401F10160817181828193810E948F30E6
:1058F0000E94EA31CB0143E0B2010E94980D0F5F94
:105900001F4FFEE02F0E311CD5CF0E94A1080E9430
:10591000A108ADA5BEA58C918823F1F0A701960141
:1059200015966D917D918D919C9118970E948F3065
:105930000E94EA312B01A5019401EDA5FEA561812C
:105940007281838194810E948F300E94EA31CB0161
:1059500041E0B2010E94980D2DA53EA52D5E3F4F5E
:105960003EA72DA749A15AA12417350791F60E94F9
:10597000A1088091810190918201A0918301B09151
:10598000840189A79AA7ABA7BCA7A5019401BC0174
:10599000CD010E948F3069A37AA38BA39CA3209191
:1059A0007D0130917E0140917F015091800129ABB2
:1059B0003AAB4BAB5CABA701960169A97AA98BA95D
:1059C0009CA90E948F302B013C010E94A10880916C
:1059D0008E0190918F01A0919001B09191018DA3C2
:1059E0009EA3AFA3B8A71F9232E0332E3F921F921F
:1059F0003F921F923F928FEF8F939EEF9F938F93D3
:105A00008CEF8F93912C812CADA0BEA0CFA0D8A4F9
:105A10008301720129A13AA14BA15CA167E070E06A
:105A200080E00E94C61088E00E94C20C0FB6F89475
:105A3000DEBF0FBECDBF882349F180910301909155
:105A400004011816190614F51F9283E08F931F9214
:105A50003F921F9297E09F931F921F921F928F93E6
:105A60002EEF822E99249A94ADA0BEA0CFA0D8A4E8
:105A700029A13AA14BA15CA163E070E081E00E9402
:105A8000C6100FB6F894DEBF0FBECDBF80E10E94F6
:105A9000C20C882309F438C180910301909104015C
:105AA000181619060CF030C11F9289E18F931F92CE
:105AB0009FE09F931F921F921F921F921F928F939E
:105AC00091EF892E99249A94ADA0BEA0CFA0D8A41E
:105AD0008301720129A13AA14BA15CA163E070E0AE
